:100000000C9426040C9457040C9457040C94570435
:100010000C9457040C9457040C9457040C945704F4
:100020000C9457040C9457040C9457040C945704E4
:100030000C9457040C9457040C9457040C945704D4
:100040000C9457040C9457040C9457040C945704C4
:100050000C9457040C9457040C9457040C94483196
:100060000C9457040C9448130C941E130C945704CE
:100070000C9457040C9457040C9457040C94570494
:100080000C9457040C9457040C9457040C94570484
:100090000C94F4120C94CA120C9457040C9472131E
:1000A0000C9457040C9457040C9457040C94570464
:1000B0000C9457040C9457040C9457040C94570454
:1000C0000C9457040C9457040C9457040C94570444
:1000D0000C9457040C9457040C9457040C94570434
:1000E0000C945704AA04650468046B046E0471043C
:1000F000740477047A047D048004830486048904EC
:100100008C048F049204950498049B049E04A1041B
:10011000A404A704EB05F405FD0506060F06180662
:1001200021062A0633063C0645064E06570660069B
:10013000690672067B0684068D0696069F06A8064B
:10014000B106BA06F7168517ED16EF16F116071762
:100150008717EB16F316F5166419761988199A198C
:10016000AC19BE19181A181A181A181A181A181AC7
:10017000181A181A181A181A181A181A181A181AEF
:10018000181A181AD019E219F419061AE422E622EC
:10019000E822EA22EC22EE22F022F222F422F822D5
:1001A000F822F822F822F6222A243F245424692433
:1001B0007E249324A824BD24D224E724FC241125E2
:1001C00026253B25502565257A258F25A425B9258B
:1001D000CE25E325F8250D265A266F268426992656
:1001E000AE26C326D826ED26022717272C2741271F
:1001F00056276B2780279527AA27BF27D427E927CB
:10020000FE27132828283D283B293E294129442937
:1002100047294A294D2950295329562959295C290A
:100220005F296229652968296B296E29712974293A
:1002300077297A297D29802983298629672BC72B4D
:10024000C72BBD2AC72B032B4A2B472BC72BC72BEA
:10025000C72B412B162BCC2AC72BC72BC72BC72B41
:10026000E62AC72B9C2BC72BC72BC72B392BC72B99
:10027000C72BC72BC72BC72BC72BC72B6F2BC72B46
:10028000C72BA82AC72BC72B582B4D2B7B2BAB2A50
:10029000C72BAE2AFD2A002BC72BC72BC72BC72B7A
:1002A000812B2B2BC72BC72BCF2AC72B3C2BD72A15
:1002B000B430B730A630AA30AE30EE30BB30BF30ED
:1002C000C530C930CD30D330D730DB30EE30E130FF
:1002D000E530E9300C946B270C9486040C948F0461
:1002E0000C9489040C945C290C94DB300C94B4308D
:1002F0000C9442150C947B2B0C94F5160C948304EF
:100300000C94AB2A0C940F060C9487170C94992626
:100310000C9447120C9465250C94EC220C94053037
:100320000C9474040C9404110C946E040C94E93035
:100330000C943B290C94BF300C94BD240C94F40510
:100340000C946B040C94C9300C943D280C94570603
:100350000C94F8220C94F8250C946E290C9433120A
:100360000C94181A0C94412B0C94A4040C942B2B71
:100370000C94392B0C9413280C9469060C94A70444
:100380000C9450250C94D3300C94B1060C94AF12FD
:100390000C94672B0C94EB160C9456270C9476193E
:1003A0000C94BF270C94EE220C9468290C94D72A45
:1003B0000C9468040C9480290C94AA040C947A255B
:1003C0000C9445060C942A240C94E62A0C94D42709
:1003D0000C9484060C9472060C9406060C943C064D
:1003E0000C946F260C94CD300C9492040C94ED2652
:1003F0000C9480040C9412110C9465290C944A29D5
:100400000C94BA060C94EB050C944D2B0C94A80696
:100410000C94E2190C94E3250C94E5300C94CC2A4E
:100420000C949B040C9495270C9453110C94002B62
:100430000C9447290C94AC190C94A6300C94842687
:100440000C9477290C94E6220C94F4190C94E7246C
:100450000C9460060C940D260C94D7300C949A19C9
:100460000C9417270C947D290C9462290C94C326B4
:100470000C94F1160C943E290C9465040C948D0692
:100480000C94EA220C94D0190C94BD2A0C94B92532
:100490000C94D8260C94BE190C946F2B0C94241237
:1004A0000C9464190C94F3160C9495040C94AE2AD5
:1004B0000C9477040C94FD2A0C945F290C9441272A
:1004C0000C944E060C947F120C94472B0C944429E8
:1004D0000C94E9270C944F120C9471040C94180698
:1004E0000C9441290C9411250C947D040C94AE2697
:1004F0000C949A110C94BB300C94E1300C94532959
:100500000C94F6220C9456290C94F0100C94ED16D1
:100510000C94FC240C94FE270C94061A0C9483294A
:100520000C9493240C94F7160C946B290C94742956
:100530000C94A4250C94A82A0C943F240C949804A1
:100540000C9485170C949C2B0C94AA270C947A2954
:100550000C943B250C9469240C942A060C94FD05FC
:100560000C94F0220C949E040C94953A0C94C53093
:100570000C9486290C9433060C94CE250C94071702
:100580000C94A1040C9423120C9426250C94CF2ACD
:100590000C94C72B0C94812B0C9459290C947A043D
:1005A0000C94EF160C94582B0C948C040C94D224BD
:1005B0000C949F060C942C270C94E1100C94881931
:1005C0000C9454240C94162B0C947B060C94AE3093
:1005D0000C94B7300C9450290C9480270C94F22280
:1005E0000C94F4220C9402270C94E8220C942828F2
:1005F0000C943C2B0C94AA300C948D3A0C94EE3055
:100600000C9496060C944A2B0C948F250C94E4229F
:100610000C9471290C94AE120C94A8240C94032B06
:100620000C945A260C947E240C9421060C944D298B
:1006300000407A10F35A00A0724E18090010A5D499
:10064000E80000E87648170000E40B54020000CAF6
:100650009A3B000000E1F50500008096980000003C
:1006600040420F000000A08601000000102700009B
:100670000000E803000000006400000000000A0021
:10068000000000000100000000002C76D888DC6724
:100690004F0823DFC1DFAE59E1B1B796E5E3E4537C
:1006A000C63AE651997696E8E6C28426EB898C9B99
:1006B00062ED407C6FFCEFBC9C9F40F2BAA56FA539
:1006C000F490055A2AF75C936B6CF9676DC11BFCBB
:1006D000E0E40D47FEF520E6B500D0ED902E0300D6
:1006E000943577050080841E080000204E0A000023
:1006F00000C80C333333330F986E12831141EF8DE2
:100700002114893BE65516CFFEE6DB18D1844B3821
:100710001BF77C1D901DA4BBE424203284725E2252
:100720008100C9F124ECA1E53D2700030205000387
:100730000501040602041F1C1F1E1F1E1F1F1E1F73
:100740001E1F00002200250028002B002E00310073
:10075000340002010000050108010B010000210026
:10076000240027002A002D00300033000101000082
:10077000040107010A010505050507050808080821
:10078000020202020A0A0808040404040101010129
:100790000101010103030303030303030407070724
:1007A0000C0C0C0C0C0C0C0C0202020206060606C9
:1007B000060606060B0B0B0B0B0B0B0B0102102096
:1007C0002008081020401020408002010201080487
:1007D000020101020408102040808040201008041B
:1007E0000201800402018040201008040201080474
:1007F00002010102040810204080010204081020B8
:10080000408000000A0B02090C0D0E0807030401CA
:1008100000000000000000000000000000000000D8
:1008200000000000000000000000000000001211A5
:1008300010000000000000000000000000000000A8
:100840000000000000000000953A8D3A11241FBE00
:10085000CFEFD1E2DEBFCDBF00E00CBF2AE0A6E7BC
:10086000B6E001C01D92A43DB207E1F716E0A0E09A
:10087000B2E0EEEEF9E800E00BBF02C007900D9287
:10088000A637B107D9F714E0C5E2D4E000E006C00E
:1008900021970109802FFE010E94C03FC432D10779
:1008A00080E00807A9F70E9446320C94E5440C94B6
:1008B0000000FC013197E831F10508F04DC08827B0
:1008C000EE58FF4F8F4F0C94C03F87E190E00895A2
:1008D00088E190E0089589E190E008958AE190E050
:1008E00008958BE190E008958CE190E008958DE10A
:1008F00090E008958EE190E008958FE190E00895F2
:1009000080E290E0089581E290E0089582E290E034
:10091000089583E290E0089584E290E0089585E2EE
:1009200090E0089586E290E0089587E290E00895CF
:1009300088E290E0089589E290E008958AE290E0EC
:1009400008958BE290E008958CE290E008958DE2A6
:1009500090E0089586E190E00895AF92BF92CF9223
:10096000DF92EF92FF920F931F93CF93DF935C017F
:100970006A017B01E9010E945904182F092F8FEAAF
:100980009AE00E944B1560E083E00E94F92C6EE42F
:1009900073E08FEA9AE00E9444322AE0B701A60190
:1009A0008FEA9AE00E94E7316BEF72E08FEA9AE0FB
:1009B0000E94443261E082E00E94F92C60E08FEAFC
:1009C0009AE00E94421564E073E08FEA9AE00E9488
:1009D0004432B5018FEA9AE00E94BF2C6FEF72E0BB
:1009E0008FEA9AE00E944432612F702F8FEA9AE0DA
:1009F0000E94BF2C60E0812F0E948530C701B601A4
:100A00000E94023161E0812F0E948530BE0180E0AA
:100A100090E00E9402318FEA9AE00E944B15DF912C
:100A2000CF911F910F91FF90EF90DF90CF90BF90EB
:100A3000AF90089528EE33E04FE550E060E070E0BD
:100A400081E090E00E94AD0428EE33E049E650E0FA
:100A500060E070E082E090E00E94AD0424EF31E0BD
:100A600044E650E060E070E083E090E00E94AD0476
:100A700020ED37E044E650E060E070E084E090E094
:100A80000E94AD0428EE33E044E650E060E070E000
:100A900085E090E00E94AD0428EE33E044E650E0AB
:100AA00060E070E086E090E00E94AD0428EE33E064
:100AB00044E650E060E070E087E090E00E94AD0422
:100AC00028EE33E044E650E060E070E088E090E03B
:100AD0000C94AD044091960650919706609198064B
:100AE000709199069C0180E190E00C94AD044091D6
:100AF0009A0650919B0660919C0670919D069C0100
:100B00008FE090E00C94AD044091A2065091A306B2
:100B10006091A4067091A5069C018DE090E00C9474
:100B2000AD044091A6065091A7066091A806709169
:100B3000A9069C018CE090E00C94AD044091AA06BB
:100B40005091AB066091AC067091AD069C018BE0B4
:100B500090E00C94AD044091BA065091BB066091B0
:100B6000BC067091BD069C0187E090E00C94AD043A
:100B70004091BE065091BF066091C0067091C106BB
:100B80009C0186E090E00C94AD044091C206509127
:100B9000C3066091C4067091C5069C0185E090E093
:100BA0000C94AD044091C6065091C7066091C806EA
:100BB0007091C9069C0184E090E00C94AD04FC01A6
:100BC0003197E831F10508F0DEC08827E657FF4F7E
:100BD0008F4F0C94C03F6091D2067091D3068091E4
:100BE000D4069091D50608956091CE067091CF06F7
:100BF0008091D0069091D10608956091CA067091B7
:100C0000CB068091CC069091CD0608956091C606E2
:100C10007091C7068091C8069091C90608956091A9
:100C2000C2067091C3068091C4069091C5060895CE
:100C30006091BE067091BF068091C0069091C1067A
:100C400008956091BA067091BB068091BC069091A0
:100C5000BD0608956091B6067091B7068091B806FA
:100C60009091B90608956091B2067091B306809193
:100C7000B4069091B50608956091AE067091AF06E6
:100C80008091B0069091B10608956091AA06709186
:100C9000AB068091AC069091AD0608956091A606D2
:100CA0007091A7068091A8069091A9060895609179
:100CB000A2067091A3068091A4069091A5060895BE
:100CC00060919E0670919F068091A0069091A1066A
:100CD000089560919A0670919B0680919C06909170
:100CE0009D060895609196067091970680919806EA
:100CF0009091990608956091920670919306809163
:100D0000940690919506089560918E0670918F06D5
:100D10008091900690919106089560918A06709155
:100D20008B0680918C0690918D06089560918606C1
:100D30007091870680918806909189060895609148
:100D400082067091830680918406909185060895AD
:100D500060917E0670917F06809180069091810659
:100D6000089560917A0670917B0680917C0690913F
:100D70007D060895609176067091770680917806D9
:100D800090917906089564E670E080E090E008951F
:100D90002F923F924F925F926F927F928F929F928B
:100DA000AF92BF92CF92DF92EF92FF920F931F9379
:100DB000CF93DF93CDB7DEB7AF970FB6F894DEBF12
:100DC0000FBECDBF2C013B011A013A8329839FA698
:100DD0008EA60E9459048E83C3010E9459048F83FA
:100DE000C1010E945904888789819A810E9459040F
:100DF0008987C8010E9459048A87C7010E94590443
:100E00008B87C6010E9459048C87C5010E94590432
:100E10008D87C2010E94DF056E877F87888B998B43
:100E2000C3010E94DF056A8B7B8B8C8B9D8BC1017C
:100E30000E94DF056E8B7F8B888F998F89819A81C5
:100E40000E94DF056A8F7B8F8C8F9D8FC8010E9467
:100E5000DF056E8F7F8F88A399A3C7010E94DF05EE
:100E60006AA37BA38CA39DA3C6010E94DF056EA38A
:100E70007FA388A799A7C5010E94DF056AA77BA762
:100E80008CA79DA78FEA9AE00E944B1560E083E053
:100E90000E94F92C60E08FEA9AE00E94421566E019
:100EA00073E08FEA9AE00E94443261E080E00E94A1
:100EB000F92CB2018FEA9AE00E94BF2C64E073E043
:100EC0008FEA9AE00E944432B3018FEA9AE00E94CE
:100ED000BF2C64E073E08FEA9AE00E944432B101D3
:100EE0008FEA9AE00E94BF2C64E073E08FEA9AE0F8
:100EF0000E94443269817A818FEA9AE00E94BF2C75
:100F000064E073E08FEA9AE00E944432B8018FEA0D
:100F10009AE00E94BF2C64E073E08FEA9AE00E949E
:100F20004432B7018FEA9AE00E94BF2C64E073E07C
:100F30008FEA9AE00E944432B6018FEA9AE00E945A
:100F4000BF2C64E073E08FEA9AE00E944432B5015E
:100F50008FEA9AE00E94BF2C60E08E810E9485306B
:100F600060E08F810E94853060E088850E94853036
:100F700060E089850E94853060E08A850E94853026
:100F800060E08B850E94853060E08C850E94853012
:100F900060E08D850E9485300E943C312B013C0130
:100FA0006093410270934202809343029093440203
:100FB00021E02D8331E03C832B833324339422249E
:100FC0002394398301E011E00E943C3160933D029B
:100FD00070933E0280933F02909340026B017C012C
:100FE000C418D508E608F7088E859F85A889B989B1
:100FF000C816D906EA06FB0628F061E08E810E9439
:10100000853010E08A899B89AC89BD89C816D906CC
:10101000EA06FB0628F061E08F810E94853000E03F
:101020008E899F89A88DB98DC816D906EA06FB0658
:1010300028F061E088850E94853019828A8D9B8D19
:10104000AC8DBD8DC816D906EA06FB0628F061E016
:1010500089850E948530212C8E8D9F8DA8A1B9A1F4
:10106000C816D906EA06FB0628F061E08A850E94C8
:101070008530312C8AA19BA1ACA1BDA1C816D9068F
:10108000EA06FB0628F061E08B850E9485301B8212
:101090008EA19FA1A8A5B9A5C816D906EA06FB0688
:1010A00028F061E08C850E9485301C828AA59BA572
:1010B000ACA5BDA5C816D906EA06FB0628F061E076
:1010C0008D850E9485301D8211117ECF01117CCF4C
:1010D0002981211179CF211077CF311075CF3B8134
:1010E000311172CF2C8121116FCF3D8131116CCF25
:1010F0002EA53FA5B90180E090E0AF960FB6F89419
:10110000DEBF0FBECDBFDF91CF911F910F91FF903A
:10111000EF90DF90CF90BF90AF909F908F907F9097
:101120006F905F904F903F902F900C9402312F92D0
:101130003F924F925F926F927F928F929F92AF9267
:10114000BF92CF92DF92EF92FF920F931F93CF93B4
:10115000DF93CDB7DEB7A6970FB6F894DEBF0FBE0C
:10116000CDBF4C017EA36DA31A013A832983BBA294
:10117000AAA20E9459048B838DA19EA10E945904AA
:101180008C83C1010E9459048D8389819A810E94B8
:1011900059048E83C8010E9459048F83C7010E949D
:1011A00059048887C6010E9459048987C4010E9496
:1011B000DF056A877B878C879D878DA19EA10E9412
:1011C000DF056E877F87888B998BC1010E94DF05C1
:1011D0006A8B7B8B8C8B9D8B89819A810E94DF052A
:1011E0006E8B7F8B888F998FC8010E94DF056A8F75
:1011F0007B8F8C8F9D8FC7010E94DF052B013C01E7
:10120000C6010E94DF056E8F7F8F88A399A38FEAA6
:101210009AE00E944B1560E083E00E94F92C60E0A8
:101220008FEA9AE00E9442156EE073E08FEA9AE03E
:101230000E94443261E080E00E94F92CB4018FEA00
:101240009AE00E94BF2C64E073E08FEA9AE00E946B
:1012500044326DA17EA18FEA9AE00E94BF2C64E027
:1012600073E08FEA9AE00E944432B1018FEA9AE07B
:101270000E94BF2C64E073E08FEA9AE00E9444323F
:1012800069817A818FEA9AE00E94BF2C64E073E062
:101290008FEA9AE00E944432B8018FEA9AE00E94F5
:1012A000BF2C64E073E08FEA9AE00E944432B701F9
:1012B0008FEA9AE00E94BF2C64E073E08FEA9AE024
:1012C0000E944432B6018FEA9AE00E94BF2C60E08F
:1012D0008B810E94853060E08C810E94853060E0C7
:1012E0008D810E94853060E08E810E94853060E0B3
:1012F0008F810E94853060E088850E94853060E0A3
:1013000089850E9485300E943C314B015C016093CD
:10131000410270934202809343029093440221E081
:1013200029832224239411E03324339401E031E013
:101330003DA32CA30E943C3160933D0270933E027A
:1013400080933F02909340026B017C01C818D9083A
:10135000EA08FB088A859B85AC85BD85C816D90639
:10136000EA06FB0628F061E08B810E9485301CA212
:101370008E859F85A889B989C816D906EA06FB0615
:1013800028F061E08C810E9485301DA28A899B89AA
:10139000AC89BD89C816D906EA06FB0628F061E0CB
:1013A0008D810E94853000E08E899F89A88DB98D3E
:1013B000C816D906EA06FB0628F061E08E810E9475
:1013C0008530312C8A8D9B8DAC8DBD8DC816D9068C
:1013D000EA06FB0628F061E08F810E94853010E06C
:1013E000C414D504E604F70428F061E088850E945F
:1013F0008530212C8E8D9F8DA8A1B9A1C816D90644
:10140000EA06FB0628F061E089850E948530198292
:101410002CA121118FCF3DA131118CCF01118ACF89
:10142000311088CF111186CF211084CF298121114D
:1014300081CF2AA13BA1B90180E090E0A6960FB62A
:10144000F894DEBF0FBECDBFDF91CF911F910F91FA
:10145000FF90EF90DF90CF90BF90AF909F908F90D4
:101460007F906F905F904F903F902F900C9402313F
:101470002F923F924F925F926F927F928F929F92A4
:10148000AF92BF92CF92DF92EF92FF920F931F9392
:10149000CF93DF93CDB7DEB76F970FB6F894DEBF6B
:1014A0000FBECDBF5C017F8F6E8F4A011901DC8EAC
:1014B000CB8E0E94590489838E8D9F8D0E94590482
:1014C0008A83C4010E9459048B83C1010E9459047C
:1014D0008C83C8010E9459048D83C7010E9459045E
:1014E0008E83C5010E94DF056F83788789879A877D
:1014F0008E8D9F8D0E94DF056B877C878D879E87F1
:10150000C4010E94DF056F87788B898B9A8BC1019C
:101510000E94DF056B8B7C8B8D8B9E8BC8010E949C
:10152000DF052B013C01C7010E94DF056F8B788F1F
:10153000898F9A8F8FEA9AE00E944B1560E083E0D2
:101540000E94F92C60E08FEA9AE00E94421566E161
:1015500073E08FEA9AE00E94443261E080E00E94EA
:10156000F92CB5018FEA9AE00E94BF2C64E073E089
:101570008FEA9AE00E9444326E8D7F8D8FEA9AE066
:101580000E94BF2C64E073E08FEA9AE00E9444322C
:10159000B4018FEA9AE00E94BF2C64E073E08FEA06
:1015A0009AE00E944432B1018FEA9AE00E94BF2C77
:1015B00064E073E08FEA9AE00E944432B8018FEA57
:1015C0009AE00E94BF2C64E073E08FEA9AE00E94E8
:1015D0004432B7018FEA9AE00E94BF2C60E0898113
:1015E0000E94853060E08A810E94853060E08B81B6
:1015F0000E94853060E08C810E94853060E08D81A2
:101600000E94853060E08E810E9485300E943C31CE
:101610004B015C016093410270934202809343024C
:1016200090934402222423943324339401E011E064
:1016300021E02E8F31E03D8F0E943C3160933D02CE
:1016400070933E0280933F02909340026B017C01B5
:10165000C818D908EA08FB088F819885A985BA853A
:10166000C816D906EA06FB0628F061E089810E94C7
:1016700085301D8E8B859C85AD85BE85C816D906A7
:10168000EA06FB0628F061E08A810E9485301E8E02
:101690008F859889A989BA89C816D906EA06FB06F2
:1016A00028F061E08B810E94853010E08B899C8955
:1016B000AD89BE89C816D906EA06FB0628F061E0A6
:1016C0008C810E94853000E0C414D504E604F70440
:1016D00028F061E08D810E948530312C8F89988DB2
:1016E000A98DBA8DC816D906EA06FB0628F061E076
:1016F0008E810E948530212C2D8D21119DCF3E8D14
:1017000031119ACF111198CF011196CF311094CF8A
:10171000211092CF2B8D3C8DB90180E090E06F9627
:101720000FB6F894DEBF0FBECDBFDF91CF911F91F2
:101730000F91FF90EF90DF90CF90BF90AF909F9070
:101740008F907F906F905F904F903F902F900C9470
:1017500002312F923F924F925F926F927F928F92BF
:101760009F92AF92BF92CF92DF92EF92FF920F9330
:101770001F93CF93DF93CDB7DEB769970FB6F89479
:10178000DEBF0FBECDBF998F888F6B011A01490153
:101790005801FE8AED8A0E9459048A83C6010E947C
:1017A00059048B83C1010E9459048C83C4010E9497
:1017B0005904082FC5010E945904182F888D998D4E
:1017C0000E94DF056D837E838F839887C6010E9408
:1017D000DF0569877A878B879C87C1010E94DF05B7
:1017E0006D877E878F87988BC4010E94DF05698B88
:1017F0007A8B8B8B9C8BC5010E94DF052B013C01F2
:101800008FEA9AE00E944B1560E083E00E94F92C79
:1018100060E08FEA9AE00E9442156EE173E08FEA81
:101820009AE00E94443261E080E00E94F92C688DC9
:10183000798D8FEA9AE00E94BF2C64E073E08FEA12
:101840009AE00E944432B6018FEA9AE00E94BF2CCF
:1018500064E073E08FEA9AE00E944432B1018FEABB
:101860009AE00E94BF2C64E073E08FEA9AE00E9445
:101870004432B4018FEA9AE00E94BF2C64E073E026
:101880008FEA9AE00E944432B5018FEA9AE00E9402
:10189000BF2C60E08A810E94853060E08B810E94CD
:1018A000853060E08C810E94853060E0802F0E944E
:1018B000853060E0812F0E9485300E943C314B01D1
:1018C0005C016093410270934202809343029093C3
:1018D000440221E02983222423943324339431E0E9
:1018E000388F2F8B0E943C3160933D0270933E02F3
:1018F00080933F02909340026B017C01C818D90885
:10190000EA08FB088D819E81AF81B885C816D9068B
:10191000EA06FB0628F061E08A810E9485301F8A72
:1019200089859A85AB85BC85C816D906EA06FB066B
:1019300028F061E08B810E948530188E8D859E8510
:10194000AF85B889C816D906EA06FB0628F061E01B
:101950008C810E948530312C89899A89AB89BC8918
:10196000C816D906EA06FB0628F061E0802F0E941F
:101970008530212CC414D504E604F70428F061E076
:10198000812F0E94853019822F892111ABCF388D8C
:101990003111A8CF3110A6CF2110A4CF2981211158
:1019A000A1CF2D893E89B90180E090E069960FB6FC
:1019B000F894DEBF0FBECDBFDF91CF911F910F9185
:1019C000FF90EF90DF90CF90BF90AF909F908F905F
:1019D0007F906F905F904F903F902F900C940231CA
:1019E0002F923F924F925F926F927F928F929F922F
:1019F000AF92BF92CF92DF92EF92FF920F931F931D
:101A0000CF93DF93CDB7DEB762970FB6F894DEBF02
:101A10000FBECDBF7C016B015A011901188B0F87D6
:101A20000E9459048983C6010E9459048A83C50112
:101A30000E945904082FC1010E945904182FC701A0
:101A40000E94DF056B837C838D839E83C6010E9489
:101A5000DF056F83788789879A87C5010E94DF0534
:101A60002B013C01C1010E94DF056B877C878D87BC
:101A70009E878FEA9AE00E944B1560E083E00E9407
:101A8000F92C60E08FEA9AE00E94421566E273E06A
:101A90008FEA9AE00E94443261E080E00E94F92CD3
:101AA000B7018FEA9AE00E94BF2C64E073E08FEAEE
:101AB0009AE00E944432B6018FEA9AE00E94BF2C5D
:101AC00064E073E08FEA9AE00E944432B5018FEA45
:101AD0009AE00E94BF2C64E073E08FEA9AE00E94D3
:101AE0004432B1018FEA9AE00E94BF2C60E0898104
:101AF0000E94853060E08A810E94853060E0802FFE
:101B00000E94853060E0812F0E9485300E943C3128
:101B10006B017C0160934102709342028093430207
:101B2000909344022224239421E02A8B31E0398BC4
:101B3000332433940E943C3160933D0270933E0203
:101B400080933F02909340024B015C018C189D08EA
:101B5000AE08BF088B819C81AD81BE818816990635
:101B6000AA06BB0628F061E089810E948530312CED
:101B70008F819885A985BA8588169906AA06BB061D
:101B800028F061E08A810E948530198A84149504C6
:101B9000A604B70428F061E0802F0E9485301A8ADD
:101BA0008B859C85AD85BE8588169906AA06BB06E1
:101BB00028F061E0812F0E948530212C3110BACFAE
:101BC00029892111B7CF3A893111B4CF2110B2CF71
:101BD0002F853889B90180E090E062960FB6F894BD
:101BE000DEBF0FBECDBFDF91CF911F910F91FF9050
:101BF000EF90DF90CF90BF90AF909F908F907F90AD
:101C00006F905F904F903F902F900C9402312F92E5
:101C10003F924F925F926F927F928F929F92AF927C
:101C2000BF92CF92DF92EF92FF920F931F93CF93C9
:101C3000DF93CDB7DEB72C970FB6F894DEBF0FBE9B
:101C4000CDBF7C016B015A013A8729870E94590454
:101C5000382EC6010E945904082FC5010E9459045C
:101C6000182FC7010E94DF0569837A838B839C83C9
:101C7000C6010E94DF052B013C01C5010E94DF0562
:101C80006D837E838F8398878FEA9AE00E944B153D
:101C900060E083E00E94F92C60E08FEA9AE00E9405
:101CA00042156EE273E08FEA9AE00E94443261E0EE
:101CB00080E00E94F92CB7018FEA9AE00E94BF2CC5
:101CC00064E073E08FEA9AE00E944432B6018FEA42
:101CD0009AE00E94BF2C64E073E08FEA9AE00E94D1
:101CE0004432B5018FEA9AE00E94BF2C60E0832D58
:101CF0000E94853060E0802F0E94853060E0812F57
:101D00000E9485300E943C316B017C01609341024E
:101D100070934202809343029093440222242394BE
:101D200021E02B8731E03C870E943C3160933D02EB
:101D300070933E0280933F02909340024B015C01FE
:101D40008C189D08AE08BF0889819A81AB81BC813F
:101D500088169906AA06BB0628F061E0832D0E942A
:101D600085301C8684149504A604B70428F061E02D
:101D7000802F0E9485301B868D819E81AF81B88522
:101D800088169906AA06BB0628F061E0812F0E94FA
:101D90008530212C2C852111C7CF3B853111C4CF33
:101DA0002110C2CF29853A85B90180E090E02C96B8
:101DB0000FB6F894DEBF0FBECDBFDF91CF911F915C
:101DC0000F91FF90EF90DF90CF90BF90AF909F90DA
:101DD0008F907F906F905F904F903F902F900C94DA
:101DE00002312F923F924F925F926F927F928F9229
:101DF0009F92AF92BF92CF92DF92EF92FF920F939A
:101E00001F93CF93DF9300D000D0CDB7DEB77C0116
:101E10008B015E834D830E945904382EC8010E94B5
:101E20005904282EC7010E94DF0569837A838B83BA
:101E30009C83C8010E94DF054B015C018FEA9AE098
:101E40000E944B1560E083E00E94F92C60E08FEA6D
:101E50009AE00E94421566E373E08FEA9AE00E94DE
:101E6000443261E080E00E94F92CB7018FEA9AE0E9
:101E70000E94BF2C64E073E08FEA9AE00E94443233
:101E8000B8018FEA9AE00E94BF2C60E0832D0E9487
:101E9000853060E0822D0E9485300E943C316B01CC
:101EA0007C016093410270934202809343029093BD
:101EB000440211E001E00E943C3160933D027093C6
:101EC0003E0280933F02909340022B013C014C184C
:101ED0005D086E087F0889819A81AB81BC814816B4
:101EE00059066A067B0668F061E0832D0E94853002
:101EF000481459046A047B0450F41123A1F000E053
:101F0000DACF481459046A047B0450F001C000E0A1
:101F100061E0822D0E948530002329F010E0CBCFB4
:101F2000002359F3C8CF2D813E81B90180E090E0B4
:101F300026960FB6F894DEBF0FBECDBFDF91CF91CE
:101F40001F910F91FF90EF90DF90CF90BF90AF90D7
:101F50009F908F907F906F905F904F903F902F90C9
:101F60000C9402318F929F92AF92BF92EF92FF92A8
:101F70000F931F93CF93DF937C01EB010E945904D1
:101F8000182F092FC7010E94DF054B015C018FEA62
:101F90009AE00E944B1560E083E00E94F92C6EE409
:101FA00073E08FEA9AE00E9444322AE0B501A4016E
:101FB0008FEA9AE00E94E7316BEF72E08FEA9AE0D5
:101FC0000E94443261E082E00E94F92C60E08FEAD6
:101FD0009AE00E94421564E073E08FEA9AE00E9462
:101FE0004432B7018FEA9AE00E94BF2C6FEF72E093
:101FF0008FEA9AE00E944432612F702F8FEA9AE0B4
:102000000E94BF2C60E0812F0E948530C501B40181
:102010000E94023161E0812F0E948530BE0180E084
:1020200090E00E9402318FEA9AE00E944B15DF9106
:10203000CF911F910F91FF90EF90BF90AF909F9025
:102040008F9008958F929F92AF92BF92CF92DF921E
:10205000EF92FF920F931F9364EF71E081E090E0A5
:102060000E94B20F64EF71E082E090E00E94B20F34
:1020700064EF71E083E090E00E94B20F64EF71E0E2
:1020800084E090E00E94B20F64EF71E085E090E0A0
:102090000E94B20F64EF71E086E090E00E94B20F00
:1020A00064EF71E087E090E00E94B20F64EF71E0AE
:1020B00088E090E00E94B20F44EF51E062E070E0EF
:1020C00081E090E00E94F10E24EF31E043E050E027
:1020D00062E070E081E090E00E94070E04EF11E002
:1020E00024E030E043E050E062E070E081E090E026
:1020F0000E94F00C84EFE82EFF24F39405E010E03A
:1021000024E030E043E050E062E070E081E090E005
:102110000E94A90B94EFC92EDD24D39426E0E22E71
:10212000F12C24E030E043E050E062E070E081E038
:1021300090E00E94380A34EFA32EBB24B39447E00A
:10214000C42ED12C24E030E043E050E062E070E0A7
:1021500081E090E00E94970854EF852E9924939493
:1021600068E0A62EB12C24E030E043E050E062E0CD
:1021700070E081E090E00E94C8061F910F91FF90EF
:10218000EF90DF90CF90BF90AF909F908F90089589
:10219000FC01A089B1898C91A689B78982FD0FC005
:1021A0009C91818D8F5F8F73228D821749F0218DD5
:1021B000DF01A20FB11D5D969C93818F08958C91D4
:1021C0000895FC01538D448D252F30E0842F90E03D
:1021D000821B930B541710F0CF9608950197089522
:1021E000FC01918D828D981761F0828DDF01A80F1F
:1021F000B11D5D968C91928D9F5F9F73928F90E041
:1022000008958FEF9FEF0895FC01918D828D9817AF
:1022100031F0828DE80FF11D858D90E008958FEFEC
:102220009FEF0895FC01918D228D892F90E0805CB5
:102230009F4F821B91098F73992708958DE599E02F
:102240000E94121121E0892B09F420E0822F0895C9
:102250008AEF99E00E94121121E0892B09F420E015
:10226000822F0895FC01848DDF01A80FB11DA35AB0
:10227000BF4F2C91848D90E001968F739927848FA6
:10228000A689B7892C93A089B1898C9180648C939D
:10229000938D848D981306C00288F389E02D808188
:1022A0008F7D80830895EF92FF920F931F93CF93BA
:1022B000DF93EC0181E0888F9B8D8C8D981305C096
:1022C000E889F989808185FD24C0F62E0B8D10E008
:1022D0000F5F1F4F0F731127E02E8C8DE8120CC07B
:1022E0000FB607FCFACFE889F989808185FFF5CF21
:1022F000CE010E943211F1CF8B8DFE01E80FF11D4E
:10230000E35AFF4FF0820B8FEA89FB89808180625C
:1023100007C0EE89FF896083E889F989808180643C
:10232000808381E090E0DF91CF911F910F91FF902A
:10233000EF900895CF93DF93EC01888D8823C9F047
:10234000EA89FB89808185FD05C0A889B9898C91BE
:1023500086FD0FC00FB607FCF5CF808185FFF2CF59
:10236000A889B9898C9185FFEDCFCE010E943211E9
:10237000E7CFDF91CF91089580E090E0892B21F0A5
:102380000E942811811121C080E090E0892B21F06A
:102390000E941E1181111CC080E090E0892B41F049
:1023A00080E090E0892B21F00E940000811113C091
:1023B00080E090E0892BA1F080E090E0892B81F013
:1023C0000E94000081110AC008950E940000DCCF25
:1023D0000E940000E1CF0E940000EACF0C940000B0
:1023E000089585ED8093BC008091BC0084FDFCCFF6
:1023F00010923A09089540911D07262F30E0240FCE
:10240000311D21323105DCF420913A092430C9F420
:10241000FC0180E090E0861758F430911D0721916F
:10242000DC01A550B94FA30FB11D2C930196F3CF3A
:1024300080911D07680F60931D0780E0089581E07B
:10244000089582E008950895E0913C0980913B0948
:10245000E81730F4F0E0E35CF64F808190E00895F7
:102460008FEF9FEF089590913C0980913B09981759
:1024700050F4E92FF0E0E35CF64F208130E09F5FFD
:1024800090933C0902C02FEF3FEFC901089580915E
:102490003B0990E020913C09821B91090895CF925D
:1024A000DF92EF92FF920F931F93CF93DF937C0104
:1024B000262F972F8A018091F008882391F0C62F4C
:1024C000D72F6E01C40ED51ECC15DD0571F06991B4
:1024D000D701ED91FC910190F081E02DC701199594
:1024E000F3CF642F822F0E94FB11C801DF91CF919F
:1024F0001F910F91FF90EF90DF90CF900895CF93B1
:10250000DF931F92CDB7DEB769832091F0082223B5
:10251000D1F020911309203240F021E030E0FC019D
:102520003383228380E090E015C08091F108E82F8A
:10253000F0E0EE50F74F998190838F5F8093F10820
:102540008093130905C061E0CE0101960E94FB1142
:1025500081E090E00F90DF91CF910895089580E0A1
:1025600090E008950E94DE41CF93DF93EC0160E09C
:102570008E810E94853061E08E810E94853060E00E
:102580008E810E9485308BE891E00197F1F7DF9111
:10259000CF9108951F920F920FB60F9211240BB690
:1025A0000F922F933F934F935F936F937F938F93EC
:1025B0009F93AF93BF93EF93FF938DE599E00E94B4
:1025C0003211FF91EF91BF91AF919F918F917F91C8
:1025D0006F915F914F913F912F910F900BBE0F9094
:1025E0000FBE0F901F9018951F920F920FB60F926B
:1025F00011240BB60F922F933F934F935F936F93DA
:102600007F938F939F93AF93BF93EF93FF938DE54A
:1026100099E00E94C810FF91EF91BF91AF919F91F7
:102620008F917F916F915F914F913F912F910F907B
:102630000BBE0F900FBE0F901F9018951F920F9218
:102640000FB60F9211240BB60F922F933F934F9317
:102650005F936F937F938F939F93AF93BF93EF930A
:10266000FF938AEF99E00E943211FF91EF91BF91A1
:10267000AF919F918F917F916F915F914F913F911A
:102680002F910F900BBE0F900FBE0F901F901895BB
:102690001F920F920FB60F9211240BB60F922F9329
:1026A0003F934F935F936F937F938F939F93AF93DA
:1026B000BF93EF93FF938AEF99E00E94C810FF91B8
:1026C000EF91BF91AF919F918F917F916F915F91AA
:1026D0004F913F912F910F900BBE0F900FBE0F9017
:1026E0001F9018951F920F920FB60F9211240BB6E0
:1026F0000F922F933F934F935F936F937F938F939B
:102700009F93AF93BF93EF93FF938091B900887F1E
:10271000803609F49CC068F5883209F45BC090F4F7
:10272000803109F454C038F4882309F4F6C08830A5
:1027300009F44DC0F6C0883109F44CC0803209F468
:102740005DC0EFC0803409F468C048F4803309F4F8
:1027500055C0883309F0E5C080933809D8C080356A
:1027600009F44FC0883509F45DC0883409F0D9C038
:10277000D6C0883909F4C7C0A8F4883709F467C0FF
:1027800038F4883609F463C0803709F460C0C9C0E2
:10279000883809F4B8C0803909F45FC0803809F07E
:1027A000C0C05BC0803B09F486C038F4803A09F4AD
:1027B00066C0883A09F47FC0B4C0803C09F4A7C061
:1027C000883C09F4A4C0883B09F48AC0AAC080915F
:1027D000350910C09091370980913609981770F526
:1027E000E091370981E08E0F80933709F0E0EC5ECD
:1027F000F64F80818093BB0085EC86C080933809BA
:102800008EC0E091370981E08E0F80933709809167
:10281000BB00F0E0EC5EF64F808390913709809129
:1028200036096EC0E091370981E08E0F8093370939
:102830008091BB00F0E0EC5EF64F80838091390917
:1028400081116DC081E08093340984EA61C083E026
:1028500080933A0910924107CFCF8091410780328F
:1028600008F051C0E091410781E08E0F809341074D
:102870008091BB00F0E0EF5DF84F8083BDCF85EC29
:102880008093BC0010923A0980914107803230F465
:10289000E0914107F0E0EF5DF84F10826091410751
:1028A00070E0E0911F07F091200781E297E0199511
:1028B0001092410736C084E080933A0910921E07B7
:1028C00010921D07E0911B07F0911C07199580914C
:1028D0001D07811105C081E080931D071092FB0642
:1028E000E0911E0781E08E0F80931E07F0E0E55017
:1028F000F94F80818093BB0090911E0780911D0746
:10290000981708F479CF85E88093BC000AC085EC5D
:102910008093BC0010923A0904C0109238090E94BA
:10292000F111FF91EF91BF91AF919F918F917F91A5
:102930006F915F914F913F912F910F900BBE0F9030
:102940000FBE0F901F90189510923A0981E0809366
:1029500039091092340961E084E10E94853061E018
:1029600085E10E948530E9EBF0E080818E7F8083F5
:1029700080818D7F808388E48093B80085E4809394
:10298000BC000895CF92DF92EF92FF920F931F93B6
:10299000CF93DF937C016C0187E0C80ED11CC0E0AF
:1029A000D0E0062F10E0B8010C2E02C07595679597
:1029B0000A94E2F76170F60181916F010E948530FF
:1029C0002196C430D10579F7C701DF91CF911F91CE
:1029D0000F91FF90EF90DF90CF900C94B412CF92B4
:1029E000DF92EF92FF920F931F93CF93DF93EC014F
:1029F000F62E642F8C810E9485308D818F3F19F0D7
:102A000060E00E9485308F850F2D10E084FF25C087
:102A10006E0187E0C80ED11CE12CF12CB8010E2C00
:102A200002C0759567950A94E2F76170F60181918D
:102A30006F010E948530FFEFEF1AFF0A88E0E81669
:102A4000F10461F7CE01DF91CF911F910F91FF90BB
:102A5000EF90DF90CF900C94B412B80184E075959C
:102A600067958A95E1F7CE010E94C2146F2DCE01C1
:102A7000DF91CF911F910F91FF90EF90DF90CF905A
:102A80000C94C21441E00E94EF1481E090E008959C
:102A900040E00C94EF1461E00E9448158BE39FE145
:102AA0000197F1F708952F923F924F925F926F92A4
:102AB0007F928F929F92AF92BF92CF92DF92EF92CE
:102AC000FF920F931F93CF938FEA9AE00E944B15CA
:102AD00060E086E00E94F92C6EE373E08FEA9AE0F2
:102AE0000E94443268EE73E080E090E00E94023180
:102AF0000E94641B0E94C4230E9499280E945B1DAF
:102B00004091F9065091FA066091F7067091F80627
:102B10008091F5069091F6060E94832361E080E0A3
:102B20000E94F92C64E08FEA9AE00E944215C0E00E
:102B300011E080ED482E87E0582EAA24A394B12CF2
:102B40002BE3C22ED12C3EEA232E38E0332E0E94F6
:102B5000311B8823E1F3813049F4812F8B7F813051
:102B600009F413C1163009F0FCC00DC1823051F4D4
:102B7000115009F411E068EC70E080E090E00E94F0
:102B8000023114C1833009F06DC0113009F4FDC069
:102B9000123079F48091F5069091F6060197181697
:102BA000190614F08FE190E09093F6068093F506F5
:102BB000EFC0133079F48091F7069091F8060197F1
:102BC0001816190614F08CE090E09093F8068093A4
:102BD000F706DEC0143079F48091F9069091FA0678
:102BE0000197803D27E092070CF075C03092FA06FD
:102BF0002092F906CDC0153009F4C7C0163009F48B
:102C0000C2C0173071F48091F1069091F2060197DD
:102C100097FF02C087E190E09093F2068093F1065F
:102C2000B7C0183061F48091390290913A0201974F
:102C300097FF7BC0D0923A02C0923902A9C01930E6
:102C400009F08FC08091F3069091F406019790935C
:102C5000F4068093F30697FF9BC0D092F406C092CF
:102C6000F30696C0843009F09BC0113049F468EC3B
:102C700070E080E090E00E9402310E94992888C0B4
:102C8000123071F48091F5069091F606019680322B
:102C900091050CF489CFB092F606A092F50678C0A3
:102CA000133071F48091F7069091F80601968D30FB
:102CB00091050CF48ACFB092F806A092F70668C08E
:102CC000143099F48091F9069091FA0601968F3AA2
:102CD00028E092072CF49093FA068093F90658C0E6
:102CE0005092FA064092F90653C0153009F44DC0CF
:102CF000163009F44CC0173071F48091F1069091B0
:102D0000F2060196883191050CF486CF1092F206F6
:102D10001092F1063DC0183091F4809139029091E3
:102D20003A0201968C3391052CF490933A028093E9
:102D300039022EC010923A021092390229C019307D
:102D400081F48091F3069091F40601969093F40635
:102D50008093F306CC97E4F01092F4061092F306F9
:102D600017C01A30A9F4E090F306009139022091BF
:102D7000F1064091F5066091F7068091F906909171
:102D8000FA060E940E2D00E004C016E001C011E01A
:102D900001E068EC70E080E090E00E94023107C042
:102DA000853021F41F5F1B3008F01AE001E068EC69
:102DB00070E080E090E00E940231812F90E0FC0101
:102DC0003197EA30F10508F0A4C08827EE55FF4F8F
:102DD0008F4F0C94C03FC5E01BC0C5E009C0C9E0DF
:102DE00007C0CEE005C0C8E013C0CDE011C0C0E010
:102DF0004091F9065091FA066091F7067091F80635
:102E00008091F5069091F6060E9483233FC0C0E0B2
:102E10008090F3069090F406E0903902F0903A0228
:102E20006090F1067090F2068FEA9AE00E944B15CE
:102E300060E080E00E94F92C65E08FEA9AE00E9451
:102E4000421560E082E00E94F92CB3018FEA9AE01B
:102E50000E94BF2C60E085E00E94F92CB7018FEA48
:102E60009AE00E94BF2C60E088E00E94F92CB40137
:102E70008FEA9AE00E94BF2C60E08CE00E94F92C5F
:102E800063E473E08FEA9AE00E94443261E08C2FA1
:102E90000E94F92C64E08FEA9AE00E9442151530F6
:102EA00029F463E08FEA9AE00E94421501114FCEA7
:102EB0008FEA9AE00E944B1560E086E00E94F92CB0
:102EC00068E473E08FEA9AE00E94443268EE73E0AF
:102ED00080E090E00E9402318DE390E090933A020E
:102EE00080933902CF911F910F91FF90EF90DF9067
:102EF000CF90BF90AF909F908F907F906F905F909A
:102F00004F903F902F900C94191EC2E071CFC2E0F9
:102F10007FCF163008F07CCF6BCFCF92DF92EF924D
:102F2000FF92CF93DF93EC016A017B018FEA9AE075
:102F30000E944B1560E080E00E94F92C60E08FEA6F
:102F40009AE00E94421560E082E00E94F92CBE01E6
:102F50008FEA9AE00E94BF2C60E084E00E94F92C86
:102F60006DE473E08FEA9AE00E94443260E089E009
:102F70000E94F92C2AE0B701A6018FEA9AE00E948C
:102F8000E73160E08EE00E94F92C63E573E08FEAA0
:102F90009AE0DF91CF91FF90EF90DF90CF900C946B
:102FA00044324F925F926F927F928F929F92AF9234
:102FB000BF92CF92DF92EF92FF920F931F93CF9326
:102FC000DF93E82F8FEF8E0F863408F031C28832FE
:102FD00008F06CC18091420790914307892B11F052
:102FE0000E940B1F8091420790914307892B11F09B
:102FF0000E940B1F10920B0810920A0810924307B0
:1030000010924207CCE0D8E058E0452E6624639445
:10301000712C55245394FE01E85CF1092081318123
:103020002115310591F4DF91CF911F910F91FF9000
:10303000EF90DF90CF90BF90AF909F908F907F9058
:103040006F905F904F900C940B1F888099808091B7
:10305000D7069091D8068114910409F4FEC0892BFB
:10306000D1F4B401C9010E94B20F28813981809145
:103070000A0890910B08820F931F90930B0880937E
:103080000A08809142079091430701969093430765
:103090008093420704C190913B02E92FF0E0EE0FCC
:1030A000FF1FE952F94F31832083923061F4609120
:1030B000DB067091DC06A4018091D9069091DA06B6
:1030C0000E94F10EA6C0933081F44091DD0650912C
:1030D000DE066091DB067091DC0694018091D906D2
:1030E0009091DA060E94070E94C09430A1F42091CA
:1030F000DF063091E0064091DD065091DE066091DA
:10310000DB067091DC0684018091D9069091DA0685
:103110000E94F00C7EC09530C1F40091E106109140
:10312000E2062091DF063091E0064091DD065091E5
:10313000DE066091DB067091DC0674018091D90691
:103140009091DA060E94A90B64C09630E1F4E090F9
:10315000E306F090E4060091E1061091E20620916A
:10316000DF063091E0064091DD065091DE06609169
:10317000DB067091DC0664018091D9069091DA0635
:103180000E94380A46C0973001F5C090E506D090FD
:10319000E606E090E306F090E4060091E106109167
:1031A000E2062091DF063091E0064091DD06509165
:1031B000DE066091DB067091DC0654018091D90631
:1031C0009091DA060E94970824C09830B9F5A09033
:1031D000E706B090E806C090E506D090E606E090DD
:1031E000E306F090E4060091E1061091E2062091DA
:1031F000DF063091E0064091DD065091DE066091D9
:10320000DB067091DC068091D9069091DA060E9467
:10321000C8062881398180910A0890910B08820F95
:10322000931F90930B0880930A0880914207909116
:1032300043070196909343078093420750923B02C5
:103240001092D8061092D706E7EDF6E0119211928F
:1032500086E0E93EF807D1F722C0892B21F470926D
:10326000D8066092D70690913B02E92FF0E0EE0F6E
:10327000FF1FE952F94F3183208381E0890F80934A
:103280003B0220914207309143072F5F3F4F30931D
:10329000430720934207893010F040923B02229668
:1032A00088E0C23DD80709F0B6CEBDCE8E2F90E0A3
:1032B000FC01B997EA31F10508F0BAC08827E45556
:1032C000FF4F8F4F0C94C03FDF91CF911F910F9113
:1032D000FF90EF90DF90CF90BF90AF909F908F9036
:1032E0007F906F905F904F900C941A05DF91CF9173
:1032F0001F910F91FF90EF90DF90CF90BF90AF9014
:103300009F908F907F906F905F904F900C942210C1
:10331000DF91CF911F910F91FF90EF90DF90CF90B1
:10332000BF90AF909F908F907F906F905F904F90E5
:103330000C949022DF91CF911F910F91FF90EF900D
:10334000DF90CF90BF90AF909F908F907F906F90C5
:103350005F904F900C948E21DF91CF911F910F9130
:10336000FF90EF90DF90CF90BF90AF909F908F90A5
:103370007F906F905F904F900C947220DF91CF916F
:103380001F910F91FF90EF90DF90CF90BF90AF9083
:103390009F908F907F906F905F904F900C94BE1F86
:1033A000DF91CF911F910F91FF90EF90DF90CF9021
:1033B000BF90AF909F908F907F906F905F904F9055
:1033C0000C94AE1FDF91CF911F910F91FF90EF9062
:1033D000DF90CF90BF90AF909F908F907F906F9035
:1033E0005F904F900C946E1FDF91CF911F910F91C2
:1033F000FF90EF90DF90CF90BF90AF909F908F9015
:103400007F906F905F904F900C94561FDF91CF91FB
:103410001F910F91FF90EF90DF90CF90BF90AF90F2
:103420009F908F907F906F905F904F900C94BB1DFA
:10343000DF91CF911F910F91FF90EF90DF90CF9090
:10344000BF90AF909F908F907F906F905F904F90C4
:1034500008958F929F92AF92BF92EF92FF920F9337
:103460001F93CF93DF93EC01892B11F4C8E1D0E0D7
:103470008091390290913A02892B49F020913902CA
:1034800030913A022115310509F044C06FC0FE01A8
:10349000E55BFD4F8081882389F30E94D11768EE98
:1034A00073E080E090E00E94023186E190E00E94AB
:1034B000DF054B015C017E01CD30D1051CF08CE0B5
:1034C000E81AF10800E010E00E151F05BCF68FEABF
:1034D0009AE00E944B1561E087E00E94F92C65E0BC
:1034E0008FEA9AE00E9442150F5F1F4FB8018FEAE2
:1034F0009AE00E94BF2C64EC79E080E090E00E94AA
:10350000023124EC39E0B501A40186E190E00E948B
:10351000AD04DACFCE0101968931910514F081E036
:1035200090E0C55BDD4F4881442301F1FC01E55B80
:10353000FD4F80818823D1F02F30310511F48FE3C6
:1035400009C02E31310511F480E404C02D3231055B
:1035500069F481E4DF91CF911F910F91FF90EF907B
:10356000BF90AF909F908F900C94D117DF91CF9127
:103570001F910F91FF90EF90BF90AF909F908F9011
:103580000895DF92EF92FF920F931F93CF93DF93F3
:1035900000D01F92CDB7DEB7880F991F880F991FF3
:1035A0008E010F5F1F4F7C01E01AF10A34E0D32E29
:1035B000D00EC701800F911F0E94C83EF801819371
:1035C0008F01DE12F6CF69817A818B819C810F9009
:1035D0000F900F900F90DF91CF911F910F91FF905F
:1035E000EF90DF900895CF92DF92EF92FF920F93CA
:1035F0001F93CF93DF9300D01F92CDB7DEB78C011E
:103600000E94DF056B017C01C8010E94C11A6C1584
:103610007D058E059F05C1F0C982DA82EB82FC82AE
:10362000000F111F000F111FCE0101967C0194E0C5
:10363000D92EDE0CF70161917F01C8010E94D03EB6
:103640000F5F1F4FDE10F6CF0F900F900F900F906F
:10365000DF91CF911F910F91FF90EF90DF90CF906E
:10366000089580917B00877F80937B0080E4809326
:103670007C0080917A00806480937A0080917A0047
:1036800086FDFCCF209178008091790030E0382BC6
:10369000233431058CF02D3D310584F02C3881E048
:1036A000380774F02A3592E0390764F081E0293652
:1036B00033404CF080E0089585E0089584E008955B
:1036C00083E0089582E008957F928F929F92AF9257
:1036D000BF92CF92DF92EF92FF920F931F93CF93FF
:1036E000DF9344E650E060E070E08CE090E00E9400
:1036F0008D1761E080E00E94F92C64E08FEA9AE087
:103700000E9442150CE010E064E6C62ED12CE12C9C
:10371000F12CC1E0712C812C912C540183940E94D6
:10372000311B8823E1F38130D9F4C13009F447C05B
:10373000C23009F43CC0C330C1F5AAE0B0E0A50135
:1037400094010E94DE3E4B015C0185E688169104DF
:10375000A104B104B0F1812C912C5401839431C0A7
:10376000823029F4C15009F06DC0C4E06BC08330D1
:1037700081F5C13021F1C23049F401501109D1E085
:1037800010161106FCF008E110E01CC0C33069F40B
:10379000C818D908EA08FB08D1E0A1F44FE0C42E0C
:1037A00047E2D42EE12CF12C0DC0C43051F420E0BE
:1037B00030E0B701A601C8010E94AD0402C0D0E00C
:1037C00001C0D1E068EC70E080E090E00E9402313E
:1037D00040C0843089F5C13049F468EC70E080E085
:1037E00090E00E9402310E9453152CC0C23041F477
:1037F0000F5F1F4F093111052CF101E010E022C0CD
:10380000C33081F4C80CD91CEA1CFB1C80E1C8162B
:1038100087E2D806E104F104A8F0C12CD12C76018E
:10382000C39410C0C43071F420E030E0B701A601A9
:10383000C8010E94AD0406C0853051F4CF5FC53089
:1038400008F0C1E068EC70E080E090E00E94023196
:10385000D1E0C23061F020F4C13071F4712C0CC0A1
:10386000C33041F0C43041F48EE0782E05C022E030
:10387000722E02C099E0792EB701A601C8010E94FC
:103880008D1761E0872D0E94F92C64E08FEA9AE0A1
:103890000E944215C33039F42AE0B501A4018FEA31
:1038A0009AE00E94E731D1113ACFDF91CF911F9179
:1038B0000F91FF90EF90DF90CF90BF90AF909F90CF
:1038C0008F907F900895CF930E945B1D8091D606C4
:1038D00081110CC08091D2089091D308069724F0F2
:1038E00081E08093380202C0109238028091390240
:1038F00090913A02009709F050C08091D708811149
:10390000D8C0C1E0C093D7081092D6081092D5084D
:103910001092D4088FEA9AE00E944B1561E086E08D
:103920000E94F92C61E08FEA9AE00E94421561E062
:1039300088E00E94F92C6091F1067091F2068FEAFE
:103940009AE00E94BF2C66E573E08FEA9AE00E943D
:10395000443268EE73E080E090E00E9402318FEA2A
:103960009AE00E944B158091F1069091F206813009
:10397000910571F41092D6062091D2083091D308A7
:10398000263031051CF0C093380202C01092380274
:103990006091390270913A0281C08F30910509F52A
:1039A0008091D608811185C01092D70881E080935C
:1039B000D6081092D5081092D4088FEA9AE00E9497
:1039C0004B1561E086E00E94F92C61E08FEA9AE0F5
:1039D0000E94421561E088E00E94F92C68E573E0DE
:1039E00047C08E31910509F58091D508811161C0DC
:1039F0001092D7081092D60881E08093D5081092D3
:103A0000D4088FEA9AE00E944B1561E086E00E949C
:103A1000F92C61E08FEA9AE00E94421561E088E0AB
:103A20000E94F92C6CE573E023C08D9709F041C02A
:103A30008091D40881113DC01092D7081092D60809
:103A40001092D50881E08093D4088FEA9AE00E9412
:103A50004B1561E086E00E94F92C61E08FEA9AE064
:103A60000E94421561E088E00E94F92C60E673E054
:103A70008FEA9AE00E94443268EE73E080E090E0C2
:103A80000E9402318FEA9AE00E944B156091390240
:103A900070913A028091F1069091F2060E94291AE3
:103AA0008DE390E090933A0280933902CF910C9489
:103AB000191ECF910895CF92DF92EF92FF920F934C
:103AC0001F93CF93DF93C8EDD8E0CE010E94EC2B7B
:103AD0008E8190E09093F4068093F3068D8190E0C0
:103AE00090933A02809339028C8190E09093F20691
:103AF0008093F1068B8190E09093F6068093F50613
:103B00008F8190E09093D3088093D2088A8190E0CF
:103B10009093F8068093F706888199819093FA062E
:103B20008093F906C090D808D090D908E090DA08C0
:103B3000F090DB080091DC081091DD082091DE0890
:103B40003091DF084091E0085091E1086091E2086F
:103B50007091E30884E693E00E94F129BC0189EAB0
:103B60009AE0DF91CF911F910F91FF90EF90DF903E
:103B7000CF900C949231CF92DF92EF92FF9286E138
:103B800090E00E94DF056B017C018FEA9AE00E94C1
:103B90004B1560E082E00E94F92C60E08FEA9AE029
:103BA0000E94421560E084E00E94F92C66E673E012
:103BB0008FEA9AE00E94443268EE73E080E090E081
:103BC0000E94023120ED37E0B701A60186E190E0C6
:103BD0000E94AD048FEA9AE00E944B1560E082E0FB
:103BE0000E94F92C60E08FEA9AE00E94421560E0A2
:103BF00084E00E94F92C66E673E08FEA9AE00E9466
:103C0000443260ED77E080E090E00E9402310E9453
:103C10005B1D8091390290913A02892B99F68FEAC7
:103C20009AE00E944B15FF90EF90DF90CF900C949C
:103C3000631CAF92BF92CF92DF92EF92FF920F93ED
:103C40001F93CF93DF93CDB7DEB7A7970FB6F89446
:103C5000DEBF0FBECDBF88ED98E00E94EC2B8091B7
:103C6000DD0890E02091390230913A0282179307E3
:103C700009F4A7C090933A02809339028FEA9AE040
:103C80000E944B15C090D808D090D908E090DA086F
:103C9000F090DB080091DC081091DD082091DE082F
:103CA0003091DF084091E0085091E1086091E2080E
:103CB0007091E30881E793E00E94F129BC018FEA4B
:103CC0009AE00E94443261E080E00E94F92C6BE7A8
:103CD00073E08FEA9AE00E94443281E08093F0081A
:103CE00088E6809312091092F1081092130981E17D
:103CF00090E00E94A92F0E944C2F82E090E00E9449
:103D0000032F90913B0980913C099817F1F387E9C3
:103D10009AE00E943312182F87E99AE00E9433122A
:103D20001BA21AA21DA21CA21FA21EA2B12EA12C70
:103D3000B501682B86E0759567958A95E1F7072EA2
:103D4000000C880B990B0E94AB3D20E030E040E86E
:103D50005EE30E940A3E8E010F5F1F4F22E044E0A7
:103D60000E941E3BBC01CE0182960E9492314EA160
:103D70005FA16AA17BA18FEA9AE00E940530CE0183
:103D800082960E94B3310E945B1D61E08FE00E9429
:103D9000F92C6091D2087091D3088FEA9AE00E94C2
:103DA000BF2C8091D60681110CC08091D2089091D1
:103DB000D308069724F081E08093380202C0109265
:103DC0003802909138028091E906992341F08111DF
:103DD00006C061E08CE00E94F92C62E007C08823F5
:103DE00049F061E08CE00E94F92C66E08FEA9AE0ED
:103DF0000E944215A7960FB6F894DEBF0FBECDBF46
:103E0000DF91CF911F910F91FF90EF90DF90CF90B6
:103E1000BF90AF900895E2E4F7E011921192DF01B4
:103E2000AA53BF4F1D921C9288E0EA30F807A9F709
:103E3000089580913C02813049F461E873E08DE59A
:103E400099E00E94303264E973E02BC0823049F47B
:103E500069EA73E08DE599E00E9430326CEC73E022
:103E600020C0833049F46AE074E08DE599E00E9457
:103E7000303261E274E015C0843049F46DE374E0DF
:103E80008DE599E00E94303267E574E00AC0853024
:103E900061F468E774E08DE599E00E94303262E9F0
:103EA00074E08DE599E00C94303208958CE291E055
:103EB0000E9484058CE291E00E94AB058CE291E0C7
:103EC0000E949E0584EF91E00E94B80540E050E01A
:103ED0006BE070E085E090E00C94F10E24EF31E0AF
:103EE0004BE050E062E170E08AE090E00E94070E53
:103EF00024EF31E047E050E062E170E08AE090E0DA
:103F00000E94070E24EF31E046E050E062E170E0ED
:103F10008AE090E00E94070E24EF31E04BE050E091
:103F200062E170E08AE090E00E94070E24EF31E049
:103F300045E050E062E170E08AE090E00E94070E08
:103F400020E233E046E050E062E170E081E190E0A1
:103F50000E94070E80E090E00C94D20588E592E084
:103F60000E94AB0588E592E00E94C50588E592E0D5
:103F70000E94B80580E090E00C94D20544EF51E037
:103F80006EE070E08BE090E00E94F10E4CE251E0B8
:103F90006EE070E08BE090E00E94F10E8CE291E028
:103FA0000E949E058CE291E00E949E0544EF51E044
:103FB0006EE070E08BE090E00E94F10E48EC50E083
:103FC0006EE070E08BE090E00E94F10E8CE291E0F8
:103FD0000E949E058CE291E00E949E058CE291E099
:103FE0000E94B8058CE291E00E94AB058CE291E062
:103FF0000E949E0584E690E00E949E058CE291E07E
:104000000E94AB058CE291E00E94B8058CE291E041
:104010000E94B8058CE291E00E94AB058CE291E031
:104020000E94AB058CE291E00E94B8058CE291E021
:104030000E94AB058CE291E00E949E0584E690E030
:104040000E94AB0584E690E00E94AB058CE291E013
:104050000E94B8058CE291E00E949E0548EC50E079
:104060006EE070E08BE090E00E94F10E88EC90E052
:104070000E949E0548EC50E06EE070E08BE090E01E
:104080000E94F10E88EC90E00E949E0544EF51E002
:1040900060E170E08EE090E00E94F10E84E690E036
:1040A0000E94770548EC50E06EE070E08BE090E015
:1040B0000E94F10E8CE291E00E9477054CE251E003
:1040C0006EE070E08BE090E00E94F10E88EC90E0F2
:1040D0000E949E054CE251E06EE070E08BE090E0C3
:1040E0000C94F10E44EF51E061E170E080E190E06A
:1040F0000E94F10E4CE251E061E170E080E190E05D
:104100000E94F10E44EF51E061E170E085E090E043
:104110000E94F10E48EC50E061E170E085E090E033
:104120000E94F10E48EC50E061E170E080E190E027
:104130000E94F10E88EC90E00E94770548EC50E078
:1041400061E170E080E190E00E94F10E48EC50E007
:1041500061E170E080E190E00E94F10E88EC90E077
:104160000E94C50544EF51E061E170E08FE090E00E
:104170000E94F10E88EC90E00E949E0588EC90E091
:104180000E946A0588EC90E00E94AB0580E991E00E
:104190000E949E0540919E0650919F066091A00648
:1041A0007091A10628EC30E08EE090E00E94AD0412
:1041B00088EC90E00E9484058CE291E00E949105D9
:1041C00080E991E00E946A0584EF91E00E949105E8
:1041D00088EC90E00E946A0584EF91E00E949105CE
:1041E00088EC90E00E94910588EC90E00E94C50563
:1041F00088EC90E00E946A0584EF91E00E949105AE
:1042000088EC90E00E94770584EF91E00E9484059D
:1042100088EC90E00E94AB0588EC90E00E94AB0532
:1042200084EF91E00E946A0548EC50E06DE070E098
:1042300085E090E00E94F10E4CE251E063E070E016
:104240008DE090E00E94F10E48EC50E063E070E0F9
:1042500085E090E00E94F10E4CE251E063E070E0F6
:1042600082E190E00E94F10E4091CA065091CB0687
:104270006091CC067091CD0628EC30E083E090E0B0
:104280000E94AD044CE251E060E170E08BE090E010
:104290000E94F10E48EC50E06FE070E085E090E0A5
:1042A0000E94F10E48EC50E06FE070E085E090E095
:1042B0000E94F10E44EF51E063E070E08DE090E089
:1042C0000E94F10E4CE251E067E070E08EE090E079
:1042D0000E94F10E48EC50E063E170E080E190E074
:1042E0000E94F10E88EC90E00E94C50548EC50E079
:1042F0006DE070E08EE090E00E94F10E48EC50E03E
:104300006DE070E08FE090E00E94F10E40E050E040
:104310006DE070E082E190E00C94F10E2EE531E06A
:1043200044E650E060E070E084E090E00E94AD047C
:104330002EE531E044E650E060E070E085E090E09A
:104340000E94AD042EE531E044E650E060E070E00C
:1043500086E090E00E94AD042EE531E044E650E0B6
:1043600060E070E087E090E00E94AD042EE531E06F
:1043700044E650E060E070E086E090E00E94AD042A
:104380002EE531E044E650E060E070E085E090E04A
:104390000E94AD0428E532E044E650E060E070E0C1
:1043A00084E090E00E94AD042AEF30E044E650E063
:1043B00060E070E085E090E00E94AD042AEF30E01C
:1043C00044E650E060E070E085E090E00E94AD04DB
:1043D00020E931E044E650E060E070E085E090E004
:1043E0000E94AD042CE231E044E650E060E070E071
:1043F00086E090E00E94AD042CE231E044E650E01B
:1044000060E070E085E090E00E94AD0428E532E0D5
:1044100044E650E060E070E084E090E00E94AD048B
:104420002EE531E044E650E060E070E084E090E0AA
:104430000E94AD042EE531E044E650E060E070E01B
:1044400085E090E00E94AD042EE531E044E650E0C6
:1044500060E070E086E090E00E94AD042EE531E07F
:1044600044E650E060E070E087E090E00E94AD0438
:104470002EE531E044E650E060E070E086E090E058
:104480000E94AD042EE531E044E650E060E070E0CB
:1044900085E090E00E94AD0428E532E044E650E07B
:1044A00060E070E084E090E00E94AD042AEF30E02C
:1044B00044E650E060E070E085E090E00E94AD04EA
:1044C0002AEF30E044E650E060E070E085E090E004
:1044D0000E94AD0420E931E044E650E060E070E085
:1044E00085E090E00E94AD042CE231E044E650E02B
:1044F00060E070E086E090E00E94AD042CE231E0E4
:1045000044E650E060E070E085E090E00E94AD0499
:1045100040E050E065E070E084E090E00C94F10E43
:104520004091D2065091D3066091D4067091D50681
:1045300024EF31E081E090E00E94AD044091CE068E
:104540005091CF066091D0067091D10624EF31E0F2
:1045500082E090E00E94AD044091CA065091CB06E3
:104560006091CC067091CD0624EF31E083E090E0BD
:104570000E94AD0484EF91E00E94D20584EF91E0A7
:104580000E94C50584EF91E00E94B80584EF91E098
:104590000E94AB054091B6065091B7066091B806EF
:1045A0007091B90624EF31E088E090E00C94AD04FE
:1045B00090E0FC013D97EE30F105D0F48827EA53F6
:1045C000FF4F8F4F0C94C03F0C94AE1F0C946E1F86
:1045D0000C94561F0C941A050C9422100C949022E3
:1045E0000C948E210C9472200C94BE1F0C94BB1D55
:1045F0000895CF93DF9300D000D0CDB7DEB7BC01D4
:10460000CE0101960E94B8318FEA9AE00E944B15C4
:104610008FEA9AE00E944B1560E080E00E94F92C3E
:1046200061E08FEA9AE00E94421560E082E00E9419
:10463000F92C4D815E8169817A818FEA9AE00E942E
:10464000053060E08EE00E94F92C63E573E08FEAAC
:104650009AE00E944432CE0101960E94B331269620
:104660000FB6F894DEBF0FBECDBFDF91CF91089596
:10467000CF92DF92EF92FF92CF93DF93EC010E94F3
:10468000DF056B017C018FEA9AE00E944B1560E028
:1046900080E00E94F92C65E08FEA9AE00E944215C2
:1046A00060E08FEA9AE00E94421560E082E00E949A
:1046B000F92CBE018FEA9AE00E94BF2C60E084E0F2
:1046C0000E94F92C63EB74E08FEA9AE00E94443276
:1046D00060E089E00E94F92C2AE0B701A6018FEA88
:1046E0009AE00E94E73160E08EE00E94F92C63E5D9
:1046F00073E08FEA9AE0DF91CF91FF90EF90DF9027
:10470000CF900C944432EF92FF920F931F93CF936C
:10471000DF937C018B01EA018FEA9AE00E944B153E
:1047200060E080E00E94F92C65E08FEA9AE00E9448
:10473000421560E082E00E94F92CB7018FEA9AE00E
:104740000E94BF2C60E085E00E94F92CB8018FEA3E
:104750009AE00E94BF2C60E088E00E94F92CBE0124
:104760008FEA9AE00E94BF2C60E08EE00E94F92C54
:1047700063E573E08FEA9AE0DF91CF911F910F918B
:10478000FF90EF900C944432BF92CF92DF92EF9261
:10479000FF920F931F93CF93DF938CE090E00E94E2
:1047A000382361E080E00E94F92C64E08FEA9AE00F
:1047B0000E944215D1E0B12CC12CD12C7601C394BA
:1047C0000CE010E00E94311B8823E1F38130D1F42A
:1047D000D13009F43DC2D33009F034C2AAE0B0E0D0
:1047E000A70196010E94DE3E6B017C0185E6C8169A
:1047F000D104E104F10408F42DC2C12CD12C7601BE
:10480000C39428C2823029F4D15009F057C4D4E0AF
:1048100055C4833009F026C2D13009F419C2D23010
:1048200051F401501109C1E0101611060CF413C225
:1048300008E110E010C2D33009F004C2F80131974A
:10484000E831F10508F006C28827EC52FF4F8F4F80
:104850000C94C03F8091D2069091D306A091D406CB
:10486000B091D5068C199D09AE09BF098093D20677
:104870009093D306A093D406B093D506EBC1809154
:10488000CE069091CF06A091D006B091D1068C199A
:104890009D09AE09BF098093CE069093CF06A093E1
:1048A000D006B093D106D6C18091CA069091CB06AE
:1048B000A091CC06B091CD068C199D09AE09BF0917
:1048C0008093CA069093CB06A093CC06B093CD06F6
:1048D000C1C18091C6069091C706A091C806B0914B
:1048E000C9068C199D09AE09BF098093C60690932D
:1048F000C706A093C806B093C906ACC18091C20692
:104900009091C306A091C406B091C5068C199D096B
:10491000AE09BF098093C2069093C306A093C40654
:10492000B093C50697C18091BE069091BF06A09135
:10493000C006B091C1068C199D09AE09BF098093CC
:10494000BE069093BF06A093C006B093C10682C175
:104950008091BA069091BB06A091BC06B091BD06AD
:104960008C199D09AE09BF098093BA069093BB06C6
:10497000A093BC06B093BD066DC18091B606909120
:10498000B706A091B806B091B9068C199D09AE0979
:10499000BF098093B6069093B706A093B806B0936C
:1049A000B90658C18091B2069091B306A091B406A1
:1049B000B091B5068C199D09AE09BF098093B20666
:1049C0009093B306A093B406B093B50643C180910B
:1049D000AE069091AF06A091B006B091B1068C19C9
:1049E0009D09AE09BF098093AE069093AF06A093D0
:1049F000B006B093B1062EC18091AA069091AB0685
:104A0000A091AC06B091AD068C199D09AE09BF0905
:104A10008093AA069093AB06A093AC06B093AD0624
:104A200019C18091A6069091A706A091A806B09101
:104A3000A9068C199D09AE09BF098093A60690931B
:104A4000A706A093A806B093A90604C18091A20668
:104A50009091A306A091A406B091A5068C199D097A
:104A6000AE09BF098093A2069093A306A093A40663
:104A7000B093A506EFC080919E0690919F06A091ED
:104A8000A006B091A1068C199D09AE09BF098093BB
:104A90009E0690939F06A093A006B093A106DAC04D
:104AA00080919A0690919B06A0919C06B0919D06DC
:104AB0008C199D09AE09BF0980939A0690939B06B5
:104AC000A0939C06B0939D06C5C0809196069091D8
:104AD0009706A0919806B09199068C199D09AE0988
:104AE000BF098093960690939706A0939806B0937B
:104AF0009906B0C08091920690919306A091940679
:104B0000B09195068C199D09AE09BF098093920654
:104B100090939306A0939406B09395069BC08091C2
:104B20008E0690918F06A0919006B09191068C19F7
:104B30009D09AE09BF0980938E0690938F06A093BE
:104B40009006B093910686C080918A0690918B065C
:104B5000A0918C06B0918D068C199D09AE09BF09F4
:104B600080938A0690938B06A0938C06B0938D0653
:104B700071C08091860690918706A0918806B091B9
:104B800089068C199D09AE09BF098093860690930A
:104B90008706A0938806B09389065CC08091820640
:104BA00090918306A0918406B09185068C199D0989
:104BB000AE09BF098093820690938306A093840672
:104BC000B093850647C080917E0690917F06A091A4
:104BD0008006B09181068C199D09AE09BF098093AA
:104BE0007E0690937F06A0938006B093810632C024
:104BF00080917A0690917B06A0917C06B0917D060B
:104C00008C199D09AE09BF0980937A0690937B06A3
:104C1000A0937C06B0937D061DC08091760690918E
:104C20007706A0917806B09179068C199D09AE0996
:104C3000BF098093760690937706A0937806B09389
:104C4000790608C0D43031F4C8010E94F31A02C0BA
:104C5000C0E001C0C1E068EC70E080E090E00E943C
:104C6000023133C2843009F023C2D13049F468ECF8
:104C700070E080E090E00E9402310E94641B1EC23E
:104C8000D23049F40F5F1F4F093111050CF416C2E1
:104C900001E010E013C2D33009F004C2F8013197EB
:104CA000E831F10508F00AC28827E451FF4F8F4F21
:104CB0000C94C03F8091D2069091D306A091D40667
:104CC000B091D5068C0D9D1DAE1DBF1D8093D206E3
:104CD0009093D306A093D406B093D506EFC18091EC
:104CE000CE069091CF06A091D006B091D1068C0D42
:104CF0009D1DAE1DBF1D8093CE069093CF06A09341
:104D0000D006B093D106DAC18091CA069091CB0645
:104D1000A091CC06B091CD068C0D9D1DAE1DBF1D82
:104D20008093CA069093CB06A093CC06B093CD0691
:104D3000C5C18091C6069091C706A091C806B091E2
:104D4000C9068C0D9D1DAE1DBF1D8093C606909398
:104D5000C706A093C806B093C906B0C18091C20629
:104D60009091C306A091C406B091C5068C0D9D1DFF
:104D7000AE1DBF1D8093C2069093C306A093C406C8
:104D8000B093C5069BC18091BE069091BF06A091CD
:104D9000C006B091C1068C0D9D1DAE1DBF1D809338
:104DA000BE069093BF06A093C006B093C10686C10D
:104DB0008091BA069091BB06A091BC06B091BD0649
:104DC0008C0D9D1DAE1DBF1D8093BA069093BB0632
:104DD000A093BC06B093BD0671C18091B6069091B8
:104DE000B706A091B806B091B9068C0D9D1DAE1DF9
:104DF000BF1D8093B6069093B706A093B806B093F4
:104E0000B9065CC18091B2069091B306A091B40638
:104E1000B091B5068C0D9D1DAE1DBF1D8093B206D1
:104E20009093B306A093B406B093B50647C18091A2
:104E3000AE069091AF06A091B006B091B1068C0D70
:104E40009D1DAE1DBF1D8093AE069093AF06A0932F
:104E5000B006B093B10632C18091AA069091AB061C
:104E6000A091AC06B091AD068C0D9D1DAE1DBF1D71
:104E70008093AA069093AB06A093AC06B093AD06C0
:104E80001DC18091A6069091A706A091A806B09199
:104E9000A9068C0D9D1DAE1DBF1D8093A606909387
:104EA000A706A093A806B093A90608C18091A20600
:104EB0009091A306A091A406B091A5068C0D9D1D0E
:104EC000AE1DBF1D8093A2069093A306A093A406D7
:104ED000B093A506F3C080919E0690919F06A09185
:104EE000A006B091A1068C0D9D1DAE1DBF1D809327
:104EF0009E0690939F06A093A006B093A106DEC0E5
:104F000080919A0690919B06A0919C06B0919D0677
:104F10008C0D9D1DAE1DBF1D80939A0690939B0620
:104F2000A0939C06B0939D06C9C08091960690916F
:104F30009706A0919806B09199068C0D9D1DAE1D07
:104F4000BF1D8093960690939706A0939806B09302
:104F50009906B4C08091920690919306A091940610
:104F6000B09195068C0D9D1DAE1DBF1D80939206C0
:104F700090939306A0939406B09395069FC080915A
:104F80008E0690918F06A0919006B09191068C0D9F
:104F90009D1DAE1DBF1D80938E0690938F06A0931E
:104FA0009006B09391068AC080918A0690918B06F4
:104FB000A0918C06B0918D068C0D9D1DAE1DBF1D60
:104FC00080938A0690938B06A0938C06B0938D06EF
:104FD00075C08091860690918706A0918806B09151
:104FE00089068C0D9D1DAE1DBF1D80938606909376
:104FF0008706A0938806B093890660C080918206D8
:1050000090918306A0918406B09185068C0D9D1D1C
:10501000AE1DBF1D8093820690938306A0938406E5
:10502000B09385064BC080917E0690917F06A0913B
:105030008006B09181068C0D9D1DAE1DBF1D809315
:105040007E0690937F06A0938006B093810636C0BB
:1050500080917A0690917B06A0917C06B0917D06A6
:105060008C0D9D1DAE1DBF1D80937A0690937B060F
:10507000A0937C06B0937D0621C080917606909126
:105080007706A0917806B09179068C0D9D1DAE1D16
:10509000BF1D8093760690937706A0937806B09311
:1050A00079060CC0D43051F4C8010E94F31A06C02E
:1050B000853051F4DF5FD53008F0D1E068EC70E066
:1050C00080E090E00E940231C1E0D23061F020F433
:1050D000D13071F4B12C0CC0D33041F0D43041F454
:1050E0008EE0B82E05C022E0B22E02C099E0B92EA3
:1050F000C8010E94382361E08B2D0E94F92C64E0E6
:105100008FEA9AE00E944215D33039F42AE0B701C1
:10511000A6018FEA9AE00E94E731C11153CBDF91DB
:10512000CF911F910F91FF90EF90DF90CF90BF90A4
:105130000895EF92FF920F931F93CF93DF93CDB714
:10514000DEB72C970FB6F894DEBF0FBECDBF69EB6C
:1051500074E0CE0101960E94D231BE016F5F7F4F95
:10516000CE0107960E94B831CE0107960E94F9221F
:10517000CE0107960E94B33161E080E00E94F92CD5
:1051800064E08FEA9AE00E94421511E0E12CFF24CE
:10519000F3940E94311B8823E1F3813029F411300C
:1051A000E1F01230A1F415C0823029F4115009F059
:1051B00040C013E03EC08330D1F4113071F01230A2
:1051C00031F4FA94F1100BC02AE1F22E08C013302A
:1051D00031F48F2D0E94D82202C000E001C001E00E
:1051E00068EC70E080E090E00E94023129C08430D9
:1051F000D1F4113049F468EC70E080E090E00E9456
:1052000002310E94C42315C0123039F4F3948AE1AC
:105210008F1578F4FF24F3940CC0133051F48F2DC4
:105220000E94D82206C0853051F41F5F143008F068
:1052300011E068EC70E080E090E00E94023101E053
:10524000123031F0133039F0113039F4E12C05C04F
:1052500095E0E92E02C08EE0E82E8F2D90E0FC0153
:105260003197EA31F10508F057C08827EC5FFE4F0F
:105270008F4F0C94C03F69EB74E04AC062EC74E05D
:1052800047C06BEC74E044C064ED74E041C06DED68
:1052900074E03EC066EE74E03BC06FEE74E038C070
:1052A00068EF74E035C061E075E032C06AE075E037
:1052B0002FC064E175E02CC06EE175E029C068E2A2
:1052C00075E026C062E375E023C06CE375E020C0A2
:1052D00066E475E01DC061E575E01AC06CE575E037
:1052E00017C067E675E014C063E775E011C06FE7AB
:1052F00075E00EC06BE875E00BC067E975E008C0AB
:1053000063EA75E005C06FEA75E002C066E673E027
:10531000CE0101960E949231BE016F5F7F4FCE0198
:1053200007960E94B831CE0107960E94F922CE015D
:1053300007960E94B33161E08E2D0E94F92C64E043
:105340008FEA9AE00E944215011123CFCE01019607
:105350000E94B3312C960FB6F894DEBF0FBECDBFBE
:10536000DF91CF911F910F91FF90EF9008950F93D0
:105370001F930E943C316093650970936609809386
:10538000670990936809E0915D09F0915E090484D2
:10539000F585E02D8DE599E0199597FF1FC00E94D6
:1053A0003C3100916509109166092091670930919F
:1053B0006809DC01CB01801B910BA20BB30B0091A0
:1053C0006109109162092091630930916409801785
:1053D0009107A207B307B8F28FEF9FEF1F910F91CC
:1053E00008952F923F924F925F926F927F928F9289
:1053F0009F92AF92BF92CF92DF92EF92FF920F9364
:105400001F93CF93DF93CDB7DEB7C052D1400FB615
:10541000F894DEBF0FBECDBFF82FE92FC55FDE4F7A
:10542000C882CB50D140C45FDE4FD882CC50D1402F
:10543000C05FDE4F1883C051D140CF5EDE4F28835E
:10544000C151D140CD5EDE4F4883C351D140CC5EC7
:10545000DE4F5883C451D140CB5EDE4F6883C551C7
:10546000D140CA5EDE4F7883C651D140C55FDE4F62
:10547000A880B980CB50D1401E2D1982632E712C8B
:10548000C301079667E070E00E948A3FE82EC25E83
:10549000DE4F9883CE51D1408F2D6AE00E946A3F43
:1054A000C95EDE4F9883C751D1408F2E9E2E6E016C
:1054B000D394250143E044225524812F90E0DC0160
:1054C000AB5CB84FC15EDE4FB983A883CF51D140EA
:1054D0002FEF210FC85EDE4F2883C851D140822FA5
:1054E00090E0880F991FAC0145595D4FC65EDE4FB5
:1054F00059834883CA51D1403150C75EDE4F38834B
:10550000C951D140832F90E0880F991F9C012D57DE
:105510003D4FC45EDE4F39832883CC51D140B40166
:10552000D401ED914D01EE2309F43AC18E2FEE0F17
:10553000990BAA0BBB0BFC01E154F109EA33F1050D
:1055400008F025C18827E25EFE4F8F4F0C94C03FC4
:105550001F92FF92DDC01F92FF92B6C0C75EDE4F62
:105560003881C951D140373008F05DC0C45EDE4F8C
:10557000A881B981CC51D14053C0C75EDE4F28818C
:10558000C951D140273008F061C0C45EDE4FA88108
:10559000B981CC51D14057C07F926F9295C0C25E05
:1055A000DE4F2881CE51D1402F93EF928DC041E044
:1055B00061E0C5010E94AE2F1C014F2D612FC50176
:1055C0000E94AE2F821993099F937DC0C95EDE4F62
:1055D0003881C751D140313039F0323041F0333069
:1055E00049F069EC75E082C063E176E07FC063EC6E
:1055F00075E07CC066EC75E079C01F921F9388C08F
:105600001F921F9361C0C85EDE4F2881C851D140F0
:105610002C3048F4C65EDE4FA881B981CA51D14012
:105620006D917C9163C06BEB75E060C0C85EDE4F2E
:105630002881C851D1402C3048F4C65EDE4FA88185
:10564000B981CA51D1406D917C9102C06BEB75E07C
:1056500043E050E09EC0C15EDE4FE881F981CF514A
:10566000D1408491123071F54114510409F496C06F
:1056700029C0BF92AF9228C0C501805D97409F931B
:1056800046C081E041145104E9F080E01BC01F9244
:105690000F933EC01F920F9317C0002329F00D30C7
:1056A00028F084EF800F32C08CE030C0802F2EC0F5
:1056B000002329F00D3028F084EF800F03C08CE028
:1056C00001C0802F1F928F938DED95E023C00C3089
:1056D00018F06FEC75E00AC06CEC75E007C00C3098
:1056E00018F062ED75E002C065ED75E0CE0101963F
:1056F0000E94EC4114CFC05FDE4F8881C051D14081
:1057000005C0CF5EDE4F8881C151D1401F928F937B
:1057100088ED95E09F938F93DF92CF920E940E4287
:10572000B601CE0101960E94EC410F900F900F90B0
:105730000F900F900F90F3CECA5EDE4F8881C65156
:10574000D1408F93CB5EDE4F8881C551D1408F937E
:10575000CC5EDE4F8881C451D1408F93CD5EDE4F49
:105760008881C351D1408F9380EE95E09F938F93B2
:10577000DF92CF920E940E42B601CE0101960E94A6
:10578000EC410FB6F894DEBF0FBECDBFC8CE41E0EE
:1057900050E0CE0101960E94FE41C1CE8F5F92CFB4
:1057A000CE010196C05EDE4F0FB6F894DEBF0FBE8D
:1057B000CDBFDF91CF911F910F91FF90EF90DF90C0
:1057C000CF90BF90AF909F908F907F906F905F90A1
:1057D0004F903F902F900895CF92DF92EF92FF92DB
:1057E0000F931F93CF93DF93CDB7DEB72E970FB6EE
:1057F000F894DEBF0FBECDBF8C0181E08093F0082E
:1058000088E6809312091092F1081092130980E043
:1058100090E00E94A92F0E944C2F87E090E00E9408
:10582000032F90913B0980913C099817F1F37E0179
:105830008FE0E80EF11CFE0131966F0187E99AE0D6
:105840000E943312282F82958F702F70FAE08F9F5D
:10585000200D112430E0F701329322937F01EC15E3
:10586000FD0561F70E944C2F89819A818053984FE2
:105870009093E5088093E4086B816093E6084D817E
:105880004093E7082F812093EB08D984D092E80851
:10589000EB84E092E908FD84F092EA080E94AE2FC2
:1058A0009C01A8E1B0E00E94E93E9B01AC012D0DF6
:1058B000311D411D511DACE3B0E00E94DE3E9B0155
:1058C000AC012E0D311D411D511D0E94DE3EDC013B
:1058D000CB018F0D911DA11DB11D80599A4CA2497C
:1058E000B74C8093EC089093ED08A093EE08B0932A
:1058F000EF088CE0E4EEF8E0D80101900D928A9573
:10590000E1F7C8012E960FB6F894DEBF0FBECDBFEB
:10591000DF91CF911F910F91FF90EF90DF90CF908B
:105920000895EF92FF920F931F93CF93DF931F92EF
:10593000CDB7DEB7162F877028E0829FC0011124F3
:10594000682F60648FEA9AE079830E944815E12EFF
:105950007981F72E8701085F1F4FF70161917F0161
:105960008FEA9AE00E944215E016F106B1F70F9017
:10597000DF91CF911F910F91FF90EF900895CF92FB
:10598000DF92EF92FF920F931F93CF93DF936B0100
:10599000770FEE08FF08F7FE1FC0EC01E881F981E0
:1059A0000190F081E02D6DE219958C014427552777
:1059B000BA014C195D096E097F092AE0CE010E94E7
:1059C000E731800F911FDF91CF911F910F91FF90D1
:1059D000EF90DF90CF9008952AE0B701A601DF9104
:1059E000CF911F910F91FF90EF90DF90CF900C948B
:1059F000E731643008F063E09091C20A691710F053
:105A00006FEF690FE62FF0E0E155F54F9489682FAD
:105A1000690F60688FEA9AE00C944815AF92BF92C4
:105A2000CF92DF92EF92FF920F931F93CF93DF936A
:105A30001F92CDB7DEB75C01162FF42E81E0809364
:105A4000F00888E6809312091092F1081092130969
:105A500080E090E029830E94A92F5AE0D52E8E2D58
:105A60006D2D0E946A3F692F30E1839F600D1124E4
:105A700087E99AE00E947F12802F6D2D0E946A3F75
:105A8000692F30E1839F600D112487E99AE00E941D
:105A90007F122981822F6D2D0E946A3F692F20E19C
:105AA000829F600D112487E99AE00E947F1281E0B5
:105AB00090E0133010F080E090E06501C81AD90A38
:105AC000E12FF0E0E75DF84FE49196012F0D311DD5
:105AD000C6019695879596958795280F391FC6011B
