:100000000C9426040C9457040C9457040C94570435
:100010000C9457040C9457040C9457040C945704F4
:100020000C9457040C9457040C9457040C945704E4
:100030000C9457040C9457040C9457040C945704D4
:100040000C9457040C9457040C9457040C945704C4
:100050000C9457040C9457040C9457040C94741586
:100060000C9457040C94842E0C945A2E0C94570420
:100070000C9457040C9457040C9457040C94570494
:100080000C9457040C9457040C9457040C94570484
:100090000C94302E0C94062E0C9457040C94AE2E17
:1000A0000C9457040C9457040C9457040C94570464
:1000B0000C9457040C9457040C9457040C94570454
:1000C0000C9457040C9457040C9457040C94570444
:1000D0000C9457040C9457040C9457040C94570434
:1000E0000C945704AA04650468046B046E0471043C
:1000F000740477047A047D048004830486048904EC
:100100008C048F049204950498049B049E04A1041B
:10011000A404A7049A05A305AC05B505BE05C7054B
:10012000D005D905E205EB05F405FD0506060F0629
:10013000180621062A0633063C0645064E065706D3
:1001400060066906D611361236122C11361272115B
:10015000B911B611361236123612B01185113B1193
:100160003612361236123612551136120B1236125C
:1001700036123612A81136123612361236123612CE
:1001800036123612DE1136123612171136123612A8
:10019000C711BC11EA111A1136121D116C116F1121
:1001A0003612361236123612F0119A1136123612F3
:1001B0003E113612AB1146112D1430141F142314A6
:1001C00027146714341438143E14421446144C1483
:1001D0005014541467145A145E1462146717691784
:1001E0006B176D176F1771177317751777177B17C5
:1001F0007B177B177B177917211836184B18601857
:1002000075188A189F18B418C918DE18F318081939
:100210001D19321947195C19711986199B19B019E2
:10022000C519DA19EF19041A511A661A7B1A901AAD
:10023000A51ABA1ACF1AE41AF91A0E1B231B381B77
:100240004D1B621B771B8C1BA11BB61BCB1BE01B22
:10025000F51B0A1C1F1C341C311D341D371D3A1D93
:100260003D1D401D431D461D491D4C1D4F1D521D6A
:10027000551D581D5B1D5E1D611D641D671D6A1D9A
:100280006D1D701D731D761D791D7C1D511FDF1F97
:10029000471F491F4B1F611FE11F451F4D1F4F1F68
:1002A000662478248A249C24AE24C0241A251A2586
:1002B0001A251A251A251A251A251A251A251A2546
:1002C0001A251A251A251A251A251A25D224E424B6
:1002D000F62408250C949A110C949A050C94EB16AC
:1002E0000C941D110C948F040C949E040C949C246B
:1002F0000C949B040C9472110C9436180C94A51A4F
:100300000C94B5050C942C110C94EF190C946714F3
:100310000C9432190C94B8160C94CB1B0C94A811A5
:100320000C945E1D0C9446140C94641D0C942A06C7
:100330000C9467170C947C1D0C940E1B0C94EB050D
:100340000C9468040C94C7050C94F3180C945B1D72
:100350000C9479170C94E41A0C947A040C94612D83
:100360000C94ED3C0C94F0110C94E01B0C94791D52
:100370000C94A7040C9469170C949F180C94041AFD
:100380000C94461D0C9450140C9421180C9477175F
:100390000C941A110C9477040C9483040C94341C60
:1003A0000C9454140C94B4180C9492040C94521D94
:1003B0000C946A1D0C948A180C947B1A0C94D92CFA
:1003C0000C9471040C946D1D0C940A1C0C94E42480
:1003D0000C94B61B0C94A11B0C94611D0C94751805
:1003E0000C94341D0C9471170C9436120C944C140C
:1003F0000C94A6300C94B6110C94701D0C9421062C
:100400000C9445060C945C190C9486190C94DE111E
:100410000C9485110C943E140C943C060C943814E6
:100420000C948C040C94AB110C94DA190C94401DB0
:100430000C94AA040C943E110C94A4040C941A2D50
:100440000C94A3050C94E2050C94B7160C94CF1AE7
:100450000C94491F0C944E060C940B120C94611FC3
:100460000C941F140C948A240C946D170C94D905C9
:100470000C94471F0C94731D0C9475170C94C711A2
:100480000C94C9180C94431D0C94C22D0C94621446
:100490000C945A140C94F53C0C9406060C945706D4
:1004A0000C9478240C9480040C94581D0C94BC116A
:1004B0000C947B170C9455110C9469060C948604CB
:1004C0000C94DF1F0C9442140C94D2240C94D0058D
:1004D0000C9460180C9474040C944B1F0C94EA1147
:1004E0000C9408190C9489040C941A250C94E62D8C
:1004F0000C9427140C9418060C942D140C943306A9
:100500000C94C0240C94F51B0C944F1D0C948C1B64
:100510000C945E140C9460060C940F060C94650405
:100520000C946B170C944F1F0C94771B0C943D1D6F
:100530000C94D6110C94FD050C94BB160C94901AD7
:100540000C947D040C94F91A0C946C110C943A1DC3
:100550000C94BA1A0C94231B0C94311D0C941F1C80
:100560000C94CB2C0C9495040C943B110C944D1BC7
:100570000C94D22D0C94381B0C94671D0C949B1971
:100580000C94551D0C9471190C94371D0C94341453
:100590000C94511A0C946E040C94761D0C94A104C6
:1005A0000C94C32D0C94AE240C946F110C9408255C
:1005B0000C94B0190C94621B0C94451F0C94BE054E
:1005C0000C9423140C946F170C9447190C94B911C4
:1005D0000C946B040C9473170C9430140C944C1DF5
:1005E0000C94DE180C94AC050C9498040C944D1FDC
:1005F0000C941D190C94511F0C94491D0C94F62455
:100600000C94F50F0C9417110C9446110C94A82C13
:100610000C94F4050C9466240C94C5190C94B72C16
:100620000C94E11F0C94B0110C944B180C94661AA6
:1006300000407A10F35A00A0724E18090010A5D499
:10064000E80000E87648170000E40B54020000CAF6
:100650009A3B000000E1F50500008096980000003C
:1006600040420F000000A08601000000102700009B
:100670000000E803000000006400000000000A0021
:10068000000000000100000000002C76D888DC6724
:100690004F0823DFC1DFAE59E1B1B796E5E3E4537C
:1006A000C63AE651997696E8E6C28426EB898C9B99
:1006B00062ED407C6FFCEFBC9C9F40F2BAA56FA539
:1006C000F490055A2AF75C936B6CF9676DC11BFCBB
:1006D000E0E40D47FEF520E6B500D0ED902E0300D6
:1006E000943577050080841E080000204E0A000023
:1006F00000C80C333333330F986E12831141EF8DE2
:100700002114893BE65516CFFEE6DB18D1844B3821
:100710001BF77C1D901DA4BBE424203284725E2252
:100720008100C9F124ECA1E53D2700000A0B020974
:100730000C0D0E080703040100000000000000007B
:1007400000000000000000000000000000000000A9
:100750000000000000001211100000000000000066
:100760000000000000000000000000000000000089
:100770000003020500030501040602041F1C1F1EDE
:100780001F1E1F1F1E1F1E1F000022002500280005
:100790002B002E0031003400020100000501080189
:1007A0000B0100002100240027002A002D0030004A
:1007B000330001010000040107010A0105050505D8
:1007C000070508080808020202020A0A08080404C9
:1007D00004040101010101010101030303030303F7
:1007E0000303040707070C0C0C0C0C0C0C0C020286
:1007F000020206060606060606060B0B0B0B0B0B83
:100800000B0B01021020200808102040102040800F
:1008100002010201080402010102040810204080C4
:100820008040201008040201800402018040201052
:10083000080402010804020101020408102040809B
:100840000102040810204080F53CED3C11241FBE3D
:10085000CFEFD1E2DEBFCDBF00E00CBF2BE0A8E6BA
:10086000B7E001C01D92A23DB207E1F717E0A0E09A
:10087000B2E0EEEAFEE800E00BBF02C007900D9286
:10088000A836B107D9F714E0C5E2D4E000E006C00D
:1008900021970109802FFE010E942042C432D10716
:1008A00080E00807A9F70E9462320C9445470C9437
:1008B0000000FC013197E831F10508F04DC08827B0
:1008C000EE58FF4F8F4F0C94204287E190E008953F
:1008D00088E190E0089589E190E008958AE190E050
:1008E00008958BE190E008958CE190E008958DE10A
:1008F00090E008958EE190E008958FE190E00895F2
:1009000080E290E0089581E290E0089582E290E034
:10091000089583E290E0089584E290E0089585E2EE
:1009200090E0089586E290E0089587E290E00895CF
:1009300088E290E0089589E290E008958AE290E0EC
:1009400008958BE290E008958CE290E008958DE2A6
:1009500090E0089586E190E00895AF92BF92CF9223
:10096000DF92EF92FF920F931F93CF93DF935C017F
:100970006A017B01E9010E945904182F092F86EBB7
:100980009BE00E94AF3060E083E00E942E136DE197
:1009900075E086EB9BE00E94B516B701A60186EBD9
:1009A0009BE00E9496166FEF72E086EB9BE00E9440
:1009B000B51661E082E00E942E1360E086EB9BE0BA
:1009C0000E94A63065EE72E086EB9BE00E94B516B1
:1009D000B50186EB9BE00E945C1663E073E086EB5A
:1009E0009BE00E94B516612F702F86EB9BE00E9462
:1009F0005C1660E0812F0E94FE13C701B6010E94C1
:100A00007B1461E0812F0E94FE13BE0180E090E024
:100A10000E947B1486EB9BE00E94AF30DF91CF9168
:100A20001F910F91FF90EF90DF90CF90BF90AF900C
:100A30000895409188075091890760918A077091C5
:100A40008B079C0180E190E00C94AD0440918C07F1
:100A500050918D0760918E0770918F079C018FE0F8
:100A600090E00C94AD0440919407509195076091EB
:100A70009607709197079C018DE090E00C94AD046F
:100A8000409198075091990760919A0770919B0740
:100A90009C018CE090E00C94AD0440919C07509137
:100AA0009D0760919E0770919F079C018BE090E0ED
:100AB0000C94AD044091AC075091AD076091AE0726
:100AC0007091AF079C0187E090E00C94AD044091D9
:100AD000B0075091B1076091B2077091B3079C01C4
:100AE00086E090E00C94AD044091B4075091B507B6
:100AF0006091B6077091B7079C0185E090E00C9477
:100B0000AD044091B8075091B9076091BA07709150
:100B1000BB079C0184E090E00C94AD04FC0131978C
:100B2000E831F10508F0DEC08827E657FF4F8F4F08
:100B30000C9420426091C4077091C5078091C6074C
:100B40009091C70708956091C0077091C107809187
:100B5000C2079091C30708956091BC077091BD07CB
:100B60008091BE079091BF0708956091B80770917A
:100B7000B9078091BA079091BB0708956091B407B7
:100B80007091B5078091B6079091B707089560916D
:100B9000B0077091B1078091B2079091B3070895A3
:100BA0006091AC077091AD078091AE079091AF074F
:100BB00008956091A8077091A9078091AA07909164
:100BC000AB0708956091A4077091A5078091A607CF
:100BD0009091A70708956091A0077091A107809157
:100BE000A2079091A307089560919C0770919D07BB
:100BF00080919E0790919F0708956091980770914A
:100C0000990780919A0790919B07089560919407A6
:100C1000709195078091960790919707089560913C
:100C20009007709191078091920790919307089592
:100C300060918C0770918D0780918E0790918F073E
:100C40000895609188077091890780918A07909133
:100C50008B070895609184077091850780918607BE
:100C60009091870708956091800770918107809126
:100C7000820790918307089560917C0770917D07AA
:100C800080917E0790917F07089560917807709119
:100C9000790780917A0790917B0708956091740796
:100CA000709175078091760790917707089560910C
:100CB0007007709171078091720790917307089582
:100CC00060916C0770916D0780916E0790916F072E
:100CD0000895609168077091690780916A07909103
:100CE0006B07089564E670E080E090E008952F922D
:100CF0003F924F925F926F927F928F929F92AF92AC
:100D0000BF92CF92DF92EF92FF920F931F93CF93F8
:100D1000DF93CDB7DEB7AF970FB6F894DEBF0FBE47
:100D2000CDBF2C013B011A013A8329839FA68EA6D1
:100D30000E9459048E83C3010E9459048F83C1010C
:100D40000E945904888789819A810E945904898761
:100D5000C8010E9459048A87C7010E9459048B87E1
:100D6000C6010E9459048C87C5010E9459048D87D1
:100D7000C2010E948E056E877F87888B998BC30185
:100D80000E948E056A8B7B8B8C8B9D8BC1010E9490
:100D90008E056E8B7F8B888F998F89819A810E94B7
:100DA0008E056A8F7B8F8C8F9D8FC8010E948E0568
:100DB0006E8F7F8F88A399A3C7010E948E056AA3B7
:100DC0007BA38CA39DA3C6010E948E056EA37FA367
:100DD00088A799A7C5010E948E056AA77BA78CA743
:100DE0009DA786EB9BE00E94AF3060E083E00E940D
:100DF0002E1360E086EB9BE00E94A6306AE073E071
:100E000086EB9BE00E94B51661E080E00E942E1305
:100E1000B20186EB9BE00E945C1665EE72E086EB09
:100E20009BE00E94B516B30186EB9BE00E945C1626
:100E300065EE72E086EB9BE00E94B516B10186EB91
:100E40009BE00E945C1665EE72E086EB9BE00E94E0
:100E5000B51669817A8186EB9BE00E945C1665EE8F
:100E600072E086EB9BE00E94B516B80186EB9BE032
:100E70000E945C1665EE72E086EB9BE00E94B51660
:100E8000B70186EB9BE00E945C1665EE72E086EB94
:100E90009BE00E94B516B60186EB9BE00E945C16B3
:100EA00065EE72E086EB9BE00E94B516B50186EB1D
:100EB0009BE00E945C1660E08E810E94FE1360E061
:100EC0008F810E94FE1360E088850E94FE1360E01F
:100ED00089850E94FE1360E08A850E94FE1360E00F
:100EE0008B850E94FE1360E08C850E94FE1360E0FB
:100EF0008D850E94FE130E94B5142B013C01609366
:100F0000410270934202809343029093440221E095
:100F10002D8331E03C832B83332433942224239488
:100F2000398301E011E00E94B51460933D02709393
:100F30003E0280933F02909340026B017C01C418F3
:100F4000D508E608F7088E859F85A889B989C8164F
:100F5000D906EA06FB0628F061E08E810E94FE13A6
:100F600010E08A899B89AC89BD89C816D906EA0632
:100F7000FB0628F061E08F810E94FE1300E08E895D
:100F80009F89A88DB98DC816D906EA06FB0628F0F8
:100F900061E088850E94FE1319828A8D9B8DAC8D3D
:100FA000BD8DC816D906EA06FB0628F061E08985E2
:100FB0000E94FE13212C8E8D9F8DA8A1B9A1C81669
:100FC000D906EA06FB0628F061E08A850E94FE1336
:100FD000312C8AA19BA1ACA1BDA1C816D906EA06F5
:100FE000FB0628F061E08B850E94FE131B828EA118
:100FF0009FA1A8A5B9A5C816D906EA06FB0628F040
:1010000061E08C850E94FE131C828AA59BA5ACA57D
:10101000BDA5C816D906EA06FB0628F061E08D8555
:101020000E94FE131D8211117ECF01117CCF2981F8
:10103000211179CF211077CF311075CF3B8131113C
:1010400072CF2C8121116FCF3D8131116CCF2EA534
:101050003FA5B90180E090E0AF960FB6F894DEBFEF
:101060000FBECDBFDF91CF911F910F91FF90EF90F9
:10107000DF90CF90BF90AF909F908F907F906F90B8
:101080005F904F903F902F900C947B142F923F9243
:101090004F925F926F927F928F929F92AF92BF9288
:1010A000CF92DF92EF92FF920F931F93CF93DF9334
:1010B000CDB7DEB7A6970FB6F894DEBF0FBECDBF93
:1010C0004C017EA36DA31A013A832983BBA2AAA275
:1010D0000E9459048B838DA19EA10E9459048C8388
:1010E000C1010E9459048D8389819A810E9459040B
:1010F0008E83C8010E9459048F83C7010E9459043E
:101100008887C6010E9459048987C4010E948E0500
:101110006A877B878C879D878DA19EA10E948E0503
:101120006E877F87888B998BC1010E948E056A8BA1
:101130007B8B8C8B9D8B89819A810E948E056E8B17
:101140007F8B888F998FC8010E948E056A8F7B8F55
:101150008C8F9D8FC7010E948E052B013C01C6011B
:101160000E948E056E8F7F8F88A399A386EB9BE0EC
:101170000E94AF3060E083E00E942E1360E086EBB7
:101180009BE00E94A63062E173E086EB9BE00E9448
:10119000B51661E080E00E942E13B40186EB9BE05F
:1011A0000E945C1665EE72E086EB9BE00E94B5162D
:1011B0006DA17EA186EB9BE00E945C1665EE72E05D
:1011C00086EB9BE00E94B516B10186EB9BE00E9486
:1011D0005C1665EE72E086EB9BE00E94B5166981B5
:1011E0007A8186EB9BE00E945C1665EE72E086EBEE
:1011F0009BE00E94B516B80186EB9BE00E945C164E
:1012000065EE72E086EB9BE00E94B516B70186EBB7
:101210009BE00E945C1665EE72E086EB9BE00E940C
:10122000B516B60186EB9BE00E945C1660E08B81F0
:101230000E94FE1360E08C810E94FE1360E08D81AD
:101240000E94FE1360E08E810E94FE1360E08F8199
:101250000E94FE1360E088850E94FE1360E089858D
:101260000E94FE130E94B5144B015C016093410281
:1012700070934202809343029093440221E02983B9
:101280002224239411E03324339401E031E03DA380
:101290002CA30E94B51460933D0270933E0280938C
:1012A0003F02909340026B017C01C818D908EA08FC
:1012B000FB088A859B85AC85BD85C816D906EA06DC
:1012C000FB0628F061E08B810E94FE131CA28E8534
:1012D0009F85A889B989C816D906EA06FB0628F0B1
:1012E00061E08C810E94FE131DA28A899B89AC89D2
:1012F000BD89C816D906EA06FB0628F061E08D8193
:101300000E94FE1300E08E899F89A88DB98DC816B2
:10131000D906EA06FB0628F061E08E810E94FE13E2
:10132000312C8A8D9B8DAC8DBD8DC816D906EA06F1
:10133000FB0628F061E08F810E94FE1310E0C414C8
:10134000D504E604F70428F061E088850E94FE13C6
:10135000212C8E8D9F8DA8A1B9A1C816D906EA06A9
:10136000FB0628F061E089850E94FE1319822CA1FA
:1013700021118FCF3DA131118CCF01118ACF3110B6
:1013800088CF111186CF211084CF2981211181CFDF
:101390002AA13BA1B90180E090E0A6960FB6F8948F
:1013A000DEBF0FBECDBFDF91CF911F910F91FF9098
:1013B000EF90DF90CF90BF90AF909F908F907F90F5
:1013C0006F905F904F903F902F900C947B142F92D2
:1013D0003F924F925F926F927F928F929F92AF92C5
:1013E000BF92CF92DF92EF92FF920F931F93CF9312
:1013F000DF93CDB7DEB76F970FB6F894DEBF0FBEA1
:10140000CDBF5C017F8F6E8F4A011901DC8ECB8EC0
:101410000E94590489838E8D9F8D0E9459048A836E
:10142000C4010E9459048B83C1010E9459048C831A
:10143000C8010E9459048D83C7010E9459048E83FC
:10144000C5010E948E056F83788789879A878E8D64
:101450009F8D0E948E056B877C878D879E87C40138
:101460000E948E056F87788B898B9A8BC1010E94B1
:101470008E056B8B7C8B8D8B9E8BC8010E948E059D
:101480002B013C01C7010E948E056F8B788F898FDD
:101490009A8F86EB9BE00E94AF3060E083E00E9471
:1014A0002E1360E086EB9BE00E94A6306AE173E0B9
:1014B00086EB9BE00E94B51661E080E00E942E134F
:1014C000B50186EB9BE00E945C1665EE72E086EB50
:1014D0009BE00E94B5166E8D7F8D86EB9BE00E948F
:1014E0005C1665EE72E086EB9BE00E94B516B401D7
:1014F00086EB9BE00E945C1665EE72E086EB9BE05B
:101500000E94B516B10186EB9BE00E945C1665EE69
:1015100072E086EB9BE00E94B516B80186EB9BE07B
:101520000E945C1665EE72E086EB9BE00E94B516A9
:10153000B70186EB9BE00E945C1660E089810E9407
:10154000FE1360E08A810E94FE1360E08B810E949E
:10155000FE1360E08C810E94FE1360E08D810E948A
:10156000FE1360E08E810E94FE130E94B5144B01B1
:101570005C01609341027093420280934302909316
:101580004402222423943324339401E011E021E027
:101590002E8F31E03D8F0E94B51460933D02709311
:1015A0003E0280933F02909340026B017C01C81879
:1015B000D908EA08FB088F819885A985BA85C816DD
:1015C000D906EA06FB0628F061E089810E94FE1335
:1015D0001D8E8B859C85AD85BE85C816D906EA060D
:1015E000FB0628F061E08A810E94FE131E8E8F8523
:1015F0009889A989BA89C816D906EA06FB0628F08F
:1016000061E08B810E94FE1310E08B899C89AD897B
:10161000BE89C816D906EA06FB0628F061E08C816F
:101620000E94FE1300E0C414D504E604F70428F079
:1016300061E08D810E94FE13312C8F89988DA98DD8
:10164000BA8DC816D906EA06FB0628F061E08E813D
:101650000E94FE13212C2D8D21119DCF3E8D311125
:101660009ACF111198CF011196CF311094CF21103C
:1016700092CF2B8D3C8DB90180E090E06F960FB634
:10168000F894DEBF0FBECDBFDF91CF911F910F91B8
:10169000FF90EF90DF90CF90BF90AF909F908F9092
:1016A0007F906F905F904F903F902F900C947B14A1
:1016B0002F923F924F925F926F927F928F929F9262
:1016C000AF92BF92CF92DF92EF92FF920F931F9350
:1016D000CF93DF93CDB7DEB769970FB6F894DEBF2F
:1016E0000FBECDBF998F888F6B011A014901580138
:1016F000FE8AED8A0E9459048A83C6010E94590419
:101700008B83C1010E9459048C83C4010E94590437
:10171000082FC5010E945904182F888D998D0E94A9
:101720008E056D837E838F839887C6010E948E0508
:1017300069877A878B879C87C1010E948E056D8798
:101740007E878F87988BC4010E948E05698B7A8B68
:101750008B8B9C8BC5010E948E052B013C0186EB77
:101760009BE00E94AF3060E083E00E942E1360E0B7
:1017700086EB9BE00E94A63062E273E086EB9BE082
:101780000E94B51661E080E00E942E13688D798D6D
:1017900086EB9BE00E945C1665EE72E086EB9BE0B8
:1017A0000E94B516B60186EB9BE00E945C1665EEC2
:1017B00072E086EB9BE00E94B516B10186EB9BE0E0
:1017C0000E945C1665EE72E086EB9BE00E94B51607
:1017D000B40186EB9BE00E945C1665EE72E086EB3E
:1017E0009BE00E94B516B50186EB9BE00E945C165B
:1017F00060E08A810E94FE1360E08B810E94FE13EC
:1018000060E08C810E94FE1360E0802F0E94FE1336
:1018100060E0812F0E94FE130E94B5144B015C0111
:10182000609341027093420280934302909344027A
:1018300021E02983222423943324339431E0388F08
:101840002F8B0E94B51460933D0270933E028093EB
:101850003F02909340026B017C01C818D908EA0846
:10186000FB088D819E81AF81B885C816D906EA062E
:10187000FB0628F061E08A810E94FE131F8A898599
:101880009A85AB85BC85C816D906EA06FB0628F002
:1018900061E08B810E94FE13188E8D859E85AF8539
:1018A000B889C816D906EA06FB0628F061E08C81E3
:1018B0000E94FE13312C89899A89AB89BC89C8168C
:1018C000D906EA06FB0628F061E0802F0E94FE138D
:1018D000212CC414D504E604F70428F061E0812F1C
:1018E0000E94FE1319822F892111ABCF388D31113F
:1018F000A8CF3110A6CF2110A4CF29812111A1CFCB
:101900002D893E89B90180E090E069960FB6F89480
:10191000DEBF0FBECDBFDF91CF911F910F91FF9022
:10192000EF90DF90CF90BF90AF909F908F907F907F
:101930006F905F904F903F902F900C947B142F925C
:101940003F924F925F926F927F928F929F92AF924F
:10195000BF92CF92DF92EF92FF920F931F93CF939C
:10196000DF93CDB7DEB762970FB6F894DEBF0FBE38
:10197000CDBF7C016B015A011901188B0F870E94A2
:1019800059048983C6010E9459048A83C5010E94B3
:101990005904082FC1010E945904182FC7010E9441
:1019A0008E056B837C838D839E83C6010E948E058A
:1019B0006F83788789879A87C5010E948E052B01DE
:1019C0003C01C1010E948E056B877C878D879E87B5
:1019D00086EB9BE00E94AF3060E083E00E942E1314
:1019E00060E086EB9BE00E94A6306AE273E086EB43
:1019F0009BE00E94B51661E080E00E942E13B701C3
:101A000086EB9BE00E945C1665EE72E086EB9BE045
:101A10000E94B516B60186EB9BE00E945C1665EE4F
:101A200072E086EB9BE00E94B516B50186EB9BE069
:101A30000E945C1665EE72E086EB9BE00E94B51694
:101A4000B10186EB9BE00E945C1660E089810E94F8
:101A5000FE1360E08A810E94FE1360E0802F0E94E6
:101A6000FE1360E0812F0E94FE130E94B5146B01EB
:101A70007C016093410270934202809343029093F1
:101A800044022224239421E02A8B31E0398B332431
:101A900033940E94B51460933D0270933E0280938C
:101AA0003F02909340024B015C018C189D08AE08E8
:101AB000BF088B819C81AD81BE8188169906AA06DC
:101AC000BB0628F061E089810E94FE13312C8F81D2
:101AD0009885A985BA8588169906AA06BB0628F0B6
:101AE00061E08A810E94FE13198A84149504A60479
:101AF000B70428F061E0802F0E94FE131A8A8B85BC
:101B00009C85AD85BE8588169906AA06BB0628F079
:101B100061E0812F0E94FE13212C3110BACF298958
:101B20002111B7CF3A893111B4CF2110B2CF2F850F
:101B30003889B90180E090E062960FB6F894DEBF74
:101B40000FBECDBFDF91CF911F910F91FF90EF900E
:101B5000DF90CF90BF90AF909F908F907F906F90CD
:101B60005F904F903F902F900C947B142F923F9258
:101B70004F925F926F927F928F929F92AF92BF929D
:101B8000CF92DF92EF92FF920F931F93CF93DF9349
:101B9000CDB7DEB72C970FB6F894DEBF0FBECDBF22
:101BA0007C016B015A013A8729870E945904382E1B
:101BB000C6010E945904082FC5010E945904182F1C
:101BC000C7010E948E0569837A838B839C83C6013B
:101BD0000E948E052B013C01C5010E948E056D837C
:101BE0007E838F83988786EB9BE00E94AF3060E016
:101BF00083E00E942E1360E086EB9BE00E94A630FB
:101C000062E373E086EB9BE00E94B51661E080E042
:101C10000E942E13B70186EB9BE00E945C1665EED6
:101C200072E086EB9BE00E94B516B60186EB9BE066
:101C30000E945C1665EE72E086EB9BE00E94B51692
:101C4000B50186EB9BE00E945C1660E0832D0E944C
:101C5000FE1360E0802F0E94FE1360E0812F0E943F
:101C6000FE130E94B5146B017C01609341027093D6
:101C7000420280934302909344022224239421E061
:101C80002B8731E03C870E94B51460933D0270932E
:101C90003E0280933F02909340024B015C018C18FE
:101CA0009D08AE08BF0889819A81AB81BC818816E6
:101CB0009906AA06BB0628F061E0832D0E94FE1358
:101CC0001C8684149504A604B70428F061E0802FD4
:101CD0000E94FE131B868D819E81AF81B885881678
:101CE0009906AA06BB0628F061E0812F0E94FE1328
:101CF000212C2C852111C7CF3B853111C4CF211058
:101D0000C2CF29853A85B90180E090E02C960FB6C4
:101D1000F894DEBF0FBECDBFDF91CF911F910F9121
:101D2000FF90EF90DF90CF90BF90AF909F908F90FB
:101D30007F906F905F904F903F902F900C947B140A
:101D40002F923F924F925F926F927F928F929F92CB
:101D5000AF92BF92CF92DF92EF92FF920F931F93B9
:101D6000CF93DF9300D000D0CDB7DEB77C018B01DD
:101D70005E834D830E945904382EC8010E94590485
:101D8000282EC7010E948E0569837A838B839C83EA
:101D9000C8010E948E054B015C0186EB9BE00E940E
:101DA000AF3060E083E00E942E1360E086EB9BE0A2
:101DB0000E94A6306AE373E086EB9BE00E94B516B2
:101DC00061E080E00E942E13B70186EB9BE00E9449
:101DD0005C1665EE72E086EB9BE00E94B516B801DA
:101DE00086EB9BE00E945C1660E0832D0E94FE1350
:101DF00060E0822D0E94FE130E94B5146B017C01ED
:101E00006093410270934202809343029093440294
:101E100011E001E00E94B51460933D0270933E0210
:101E200080933F02909340022B013C014C185D08C7
:101E30006E087F0889819A81AB81BC81481659065A
:101E40006A067B0668F061E0832D0E94FE13481449
:101E500059046A047B0450F41123A1F000E0DACFA6
:101E6000481459046A047B0450F001C000E061E0AA
:101E7000822D0E94FE13002329F010E0CBCF002317
:101E800059F3C8CF2D813E81B90180E090E02696BC
:101E90000FB6F894DEBF0FBECDBFDF91CF911F917B
:101EA0000F91FF90EF90DF90CF90BF90AF909F90F9
:101EB0008F907F906F905F904F903F902F900C94F9
:101EC0007B148F929F92AF92BF92EF92FF920F93EB
:101ED0001F93CF93DF937C01EB010E945904182FCD
:101EE000092FC7010E948E054B015C0186EB9BE028
:101EF0000E94AF3060E083E00E942E136DE175E038
:101F000086EB9BE00E94B516B501A40186EB9BE031
:101F10000E9496166FEF72E086EB9BE00E94B5166A
:101F200061E082E00E942E1360E086EB9BE00E945D
:101F3000A63065EE72E086EB9BE00E94B516B70115
:101F400086EB9BE00E945C1663E073E086EB9BE00F
:101F50000E94B516612F702F86EB9BE00E945C16E5
:101F600060E0812F0E94FE13C501B4010E947B1422
:101F700061E0812F0E94FE13BE0180E090E00E948C
:101F80007B1486EB9BE00E94AF30DF91CF911F91D5
:101F90000F91FF90EF90BF90AF909F908F9008951A
:101FA0003FB7F8948091F4079091F507A091F60758
:101FB000B091F70726B5A89B05C02F3F19F00196F1
:101FC000A11DB11D3FBFBA2FA92F982F8827820FBF
:101FD000911DA11DB11DBC01CD0142E0660F771F0F
:101FE000881F991F4A95D1F70895CF92DF92EF92FB
:101FF000FF920F931F93CF93DF936C017A018B01B4
:10200000C0E0D0E0CE15DF0589F0D8016D918D01DB
:10201000D601ED91FC910190F081E02DC60119955A
:10202000892B11F47E0102C02196ECCFC701DF910C
:10203000CF911F910F91FF90EF90DF90CF90089577
:10204000EF92FF920F931F93CF93DF93EC017B01ED
:102050008A0188819981009729F02A813B81241780
:102060003507F8F4B8016F5F7F4F0E945543009722
:1020700059F0998388831B830A832C813D81232B0C
:1020800081F4FC0110820DC088819981009711F0C4
:102090000E94BD42198218821D821C821B821A82F4
:1020A00007C01D830C83B701888199810E94574422
:1020B000CE01DF91CF911F910F91FF90EF90089586
:1020C0002F923F924F925F926F927F928F929F9248
:1020D000AF92BF92CF92DF92EF92FF920F931F9336
:1020E000CF93DF93CDB7DEB7C052D1400FB6F8948F
:1020F000DEBF0FBECDBFF82FE92FC55FDE4FC88210
:10210000CB50D140C45FDE4FD882CC50D140C05FAD
:10211000DE4F1883C051D140CF5EDE4F2883C151BE
:10212000D140CD5EDE4F4883C351D140CC5EDE4FFF
:102130005883C451D140CB5EDE4F6883C551D14036
:10214000CA5EDE4F7883C651D140C55FDE4FA8809E
:10215000B980CB50D1401E2D1982632E712CC30142
:10216000079667E070E00E94EA41E82EC25EDE4F0B
:102170009883CE51D1408F2D6AE00E94CA41C95E3A
:10218000DE4F9883C751D1408F2E9E2E6E01D3947F
:10219000250143E044225524812F90E0DC01A5581D
:1021A000B84FC15EDE4FB983A883CF51D1402FEF26
:1021B000210FC85EDE4F2883C851D140822F90E0A6
:1021C000880F991FAC01455B5D4FC65EDE4F59839A
:1021D0004883CA51D1403150C75EDE4F3883C95160
:1021E000D140832F90E0880F991F9C012D593D4FBE
:1021F000C45EDE4F39832883CC51D140B401D40171
:10220000ED914D01EE2309F43AC18E2FEE0F990B9B
:10221000AA0BBB0BFC01E154F109EA33F10508F00C
:1022200025C18827EE55FF4F8F4F0C9420421F92F7
:10223000FF92DDC01F92FF92B6C0C75EDE4F3881AD
:10224000C951D140373008F05DC0C45EDE4FA8816F
:10225000B981CC51D14053C0C75EDE4F2881C951EE
:10226000D140273008F061C0C45EDE4FA881B9813B
:10227000CC51D14057C07F926F9295C0C25EDE4F65
:102280002881CE51D1402F93EF928DC041E061E083
:10229000C5010E941B321C014F2D612FC5010E94F8
:1022A0001B32821993099F937DC0C95EDE4F38812E
:1022B000C751D140313039F0323041F0333049F03C
:1022C00060E573E082C06DE973E07FC06AE473E0AB
:1022D0007CC06DE473E079C01F921F9388C01F9289
:1022E0001F9361C0C85EDE4F2881C851D1402C3099
:1022F00048F4C65EDE4FA881B981CA51D1406D91C4
:102300007C9163C062E473E060C0C85EDE4F2881E8
:10231000C851D1402C3048F4C65EDE4FA881B98147
:10232000CA51D1406D917C9102C062E473E043E0F8
:1023300050E09EC0C15EDE4FE881F981CF51D140AF
:102340008491123071F54114510409F496C029C0EA
:10235000BF92AF9228C0C501805D97409F9346C051
:1023600081E041145104E9F080E01BC01F920F93FB
:102370003EC01F920F9317C0002329F00D3028F0A4
:1023800084EF800F32C08CE030C0802F2EC000233D
:1023900029F00D3028F084EF800F03C08CE001C0DD
:1023A000802F1F928F9384E693E023C00C3018F0A7
:1023B00066E573E00AC063E573E007C00C3018F00F
:1023C00069E573E002C06CE573E0CE0101960E94FE
:1023D0004C4414CFC05FDE4F8881C051D14005C04E
:1023E000CF5EDE4F8881C151D1401F928F938FE520
:1023F00093E09F938F93DF92CF920E946E44B60139
:10240000CE0101960E944C440F900F900F900F90B8
:102410000F900F90F3CECA5EDE4F8881C651D14037
:102420008F93CB5EDE4F8881C551D1408F93CC5EB8
:10243000DE4F8881C451D1408F93CD5EDE4F8881BD
:10244000C351D1408F9387E693E09F938F93DF92A0
:10245000CF920E946E44B601CE0101960E944C4478
:102460000FB6F894DEBF0FBECDBFC8CE41E050E03E
:10247000CE0101960E945E44C1CE8F5F92CFCE0105
:102480000196C05EDE4F0FB6F894DEBF0FBECDBF23
:10249000DF91CF911F910F91FF90EF90DF90CF9040
:1024A000BF90AF909F908F907F906F905F904F9074
:1024B0003F902F900895CF92DF92EF92FF920F936B
:1024C0001F93CF93DF93CDB7DEB72E970FB6F89457
:1024D000DEBF0FBECDBF8C0181E08093F70988E697
:1024E0008093190A1092F80910921A0A80E090E07D
:1024F0000E9416320E94B93187E090E00E9470314C
:102500009091420A8091430A9817F1F37E018FE07F
:10251000E80EF11CFE0131966F018EE99BE00E94EE
:10252000D22D282F82958F702F70FAE08F9F200D6B
:10253000112430E0F701329322937F01EC15FD0561
:1025400061F70E94B93189819A818053984F9093A5
:10255000EC098093EB096B816093ED094D81409309
:10256000EE092F812093F209D984D092EF09EB84F0
:10257000E092F009FD84F092F1090E941B329C0167
:10258000A8E1B0E00E9449419B01AC012D0D311D35
:10259000411D511DACE3B0E00E943E419B01AC01E6
:1025A0002E0D311D411D511D0E943E41DC01CB010C
:1025B0008F0D911DA11DB11D80599A4CA249B74C98
:1025C0008093F3099093F409A093F509B093F60969
:1025D0008CE0EBEEF9E0D80101900D928A95E1F7DD
:1025E000C8012E960FB6F894DEBF0FBECDBFDF91A7
:1025F000CF911F910F91FF90EF90DF90CF900895B2
:10260000EF92FF920F931F93CF93DF931F92CDB75B
:10261000DEB7162F877028E0829FC0011124682F33
:10262000606486EB9BE079830E94AC30E12E798177
:10263000F72E8701085F1F4FF70161917F0186EB3D
:102640009BE00E94A630E016F106B1F70F90DF91F3
:10265000CF911F910F91FF90EF900895643008F093
:1026600063E09091C90B691710F06FEF690FE62FC7
:10267000F0E0EA54F44F9489682F690F606886EBA4
:102680009BE00C94AC30AF92BF92CF92DF92EF926E
:10269000FF920F931F93CF93DF931F92CDB7DEB7B7
:1026A0005C01162FF42E81E08093F70988E6809371
:1026B000190A1092F80910921A0A80E090E0298312
:1026C0000E9416325AE0D52E8E2D6D2D0E94CA41E1
:1026D000692F30E1839F600D11248EE99BE00E94F9
:1026E000EB16802F6D2D0E94CA41692F30E1839F28
:1026F000600D11248EE99BE00E94EB162981822F48
:102700006D2D0E94CA41692F20E1829F600D112426
:102710008EE99BE00E94EB1681E090E0133010F010
:1027200080E090E06501C81AD90AE12FF0E0E15994
:10273000F84FE49196012F0D311DC60196958795AE
:1027400096958795280F391FC60160E971E00E94B0
:10275000D641260F371FC60164E670E00E94D641BD
:10276000261B370BC9018E0F911D67E070E00E9498
:10277000D641009709F487E00AE0602F0E94CA4121
:10278000692F8EE99BE00E94EB168F2D602F0E942F
:10279000CA41692F30E1839F600D11248EE99BE0CF
:1027A0000E94EB16812F602F0E94CA41692F20E101
:1027B000829F600D11248EE99BE00E94EB1680E35E
:1027C0008A0D602F0E94CA41692F30E1839F600DFE
:1027D00011248EE99BE00E94EB1680E090E00E94BD
:1027E00016320F90DF91CF911F910F91FF90EF90D4
:1027F000DF90CF90BF90AF900C94B931362F90E01E
:10280000FC01E65DF84F4491FC01EE5FF74F249127
:10281000FC01E454F84F9491992309F46BC04423CC
:1028200009F455C050E0FA013197E231F10508F0A2
:102830004EC08827E452FF4F8F4F0C942042809166
:1028400080008F7707C0809180008F7D03C08091CA
:102850008000877F809380003AC084B58F7702C064
:1028600084B58F7D84BD33C08091B0008F7703C065
:102870008091B0008F7D8093B00029C0809190003E
:102880008F7707C0809190008F7D03C0809190006A
:10289000877F809390001BC08091A0008F7707C036
:1028A0008091A0008F7D03C08091A000877F8093DE
:1028B000A0000DC0809120018F7707C0809120017A
:1028C0008F7D03C080912001877F80932001E92FB5
:1028D000F0E0EE0FFF1FE857F84FA591B4918FB7C6
:1028E000F894EC91311103C020952E2301C02E2BBA
:1028F0002C938FBF08958F929F92AF92BF92CF92E9
:10290000DF92EF92FF926B017C010E94D00F4B018E
:102910005C01C114D104E104F104F1F00E94D00F74
:10292000DC01CB0188199909AA09BB09883E9340AB
:10293000A105B10570F321E0C21AD108E108F10840
:1029400088EE880E83E0981EA11CB11CC114D1042E
:10295000E104F10419F7DDCFFF90EF90DF90CF9005
:10296000BF90AF909F908F9008952FB7F89460918B
:10297000F0077091F1078091F2079091F3072FBF54
:1029800008950F931F930E94B51460936C0A70937F
:102990006D0A80936E0A90936F0AE091640AF09139
:1029A000650A0484F585E02D84E69AE0199597FF81
:1029B0001FC00E94B51400916C0A10916D0A2091FD
:1029C0006E0A30916F0ADC01CB01801B910BA20BC8
:1029D000B30B0091680A1091690A20916A0A30913C
:1029E0006B0A80179107A207B307B8F28FEF9FEF2A
:1029F0001F910F910895FF920F931F93CF93DF9331
:102A000000D01F92CDB7DEB70E94C114FC0197FD24
:102A100011C08D32910591F0C0970A9778F0E0913E
:102A2000640AF091650A0284F385E02D84E69AE059
:102A30001995EACF60E070E0CB014CC020E030E0B7
:102A4000A901F12CE130F105F1F0ED32F105C9F009
:102A5000CF01C0970A97B8F4AAE0B0E00E943E41C7
:102A60008F01FF0F220B330BDC01CB01800F911F75
:102A7000A21FB31F9C01AD01205331094109510927
:102A800002C0FF24F394E091640AF091650A028485
:102A9000F385E02D84E69AE029833A834B835C83B7
:102AA00019950E94C114FC01C09729813A814B817C
:102AB0005C810A9738F2E130F10521F2FF2041F004
:102AC00066277727CB01621B730B840B950B02C023
:102AD000CA01B9010F900F900F900F90DF91CF9125
:102AE0001F910F91FF9008951F920F920FB60F92B2
:102AF00011242F933F938F939F93AF93BF93809114
:102B0000F0079091F107A091F207B091F30730918F
:102B1000EF0723E0230F2D3720F40196A11DB11DEF
:102B200005C026E8230F0296A11DB11D2093EF07D3
:102B30008093F0079093F107A093F207B093F30707
:102B40008091F4079091F507A091F607B091F707EF
:102B50000196A11DB11D8093F4079093F507A093F2
:102B6000F607B093F707BF91AF919F918F913F9177
:102B70002F910F900FBE0F901F901895CF93DF935A
:102B8000EC016115710559F0FB0101900020E9F796
:102B90003197AF01461B570B0E9420100CC0888153
:102BA0009981009711F00E94BD42198218821D82FE
:102BB0001C821B821A82CE01DF91CF910895FC0105
:102BC000808191810C94BD42FB01DC0111961C9225
:102BD0001E9213961C921E92129715961C921E928C
:102BE00014978617970749F0608171816115710507
:102BF00021F0448155810C9420100895FC0111822C
:102C0000108213821282158214826115710551F0AF
:102C1000FB0101900020E9F73197AF01461B570BEC
:102C20000C94201008954F925F926F927F92EF92D2
:102C3000FF920F931F93CF93DF93CDB7DEB7A1978A
:102C40000FB6F894DEBF0FBECDBF7C01FA01CB01F9
:102C500019A2223008F42AE08E010F5D1F4F422E88
:102C6000512C612C712CBF01A30192010E94FE41E5
:102C7000F901CA01015011096A3014F4605D01C004
:102C8000695CD8016C93232B242B252B61F7B801A9
:102C9000C7010E944D32A1960FB6F894DEBF0FBE59
:102CA000CDBFDF91CF911F910F91FF90EF907F905B
:102CB0006F905F904F900895CF92DF92EF92FF92C6
:102CC0000F931F93CF93DF936B01770FEE08FF08ED
:102CD000F7FE1FC0EC01E881F9810190F081E02D41
:102CE0006DE219958C0144275527BA014C195D09ED
:102CF0006E097F092AE0CE010E941316800F911FF2
:102D0000DF91CF911F910F91FF90EF90DF90CF90C7
:102D100008952AE0B701A601DF91CF911F910F918D
:102D2000FF90EF90DF90CF900C9413162AE00C9454
:102D30001316AC0160E070E02AE081E09BE00C94A7
:102D400013160F931F93CF93DF93EC010E944D3224
:102D50008C016BE673E0CE010E944D32800F911F13
:102D6000DF91CF911F910F9108950C944D320895EA
:102D700080E090E00895CF92DF92EF92FF920F9360
:102D80001F93CF93DF937C01262F972F8A01809189
:102D9000F709882391F0C62FD72F6E01C40ED51ED8
:102DA000CC15DD0571F06991D701ED91FC91019091
:102DB000F081E02DC7011995F3CF642F822F0E9477
:102DC000E02FC801DF91CF911F910F91FF90EF90FD
:102DD000DF90CF900895CF93DF931F92CDB7DEB7EA
:102DE00069832091F7092223D1F020911A0A203219
:102DF00040F021E030E0FC013383228380E090E06A
:102E000015C08091F809E82FF0E0E750F64F99815E
:102E100090838F5F8093F80980931A0A05C061E060
:102E2000CE0101960E94E02F81E090E00F90DF91AB
:102E3000CF910895EF92FF920F931F93CF93DF935B
:102E40007C018B01EA0186EB9BE00E94AF3060E0E1
:102E500080E00E942E1365E086EB9BE00E94A63086
:102E600060E082E00E942E13B70186EB9BE00E9497
:102E70005C1660E085E00E942E13B80186EB9BE0B3
:102E80000E945C1660E088E00E942E13BE0186EB73
:102E90009BE00E945C1660E08EE00E942E136DEFB6
:102EA00073E086EB9BE0DF91CF911F910F91FF9034
:102EB000EF900C94B51690E0FC013D97EE30F105D3
:102EC000D0F48827E251FF4F8F4F0C9420420C948E
:102ED0006F280C942F280C9417280C943F2C0C94DA
:102EE000992B0C94512B0C944F2A0C9433290C944D
:102EF0007F280C9475220895CF93DF9300D000D0E3
:102F0000CDB7DEB7BC01CE0101960E94E41586EB79
:102F10009BE00E94AF3086EB9BE00E94AF3060E008
:102F200080E00E942E1361E086EB9BE00E94A630B9
:102F300060E082E00E942E134D815E8169817A817A
:102F400086EB9BE00E94F50F60E08EE00E942E135E
:102F50006DEF73E086EB9BE00E94B516CE01019603
:102F60000E94DF1526960FB6F894DEBF0FBECDBFC8
:102F7000DF91CF910895BF92CF92DF92EF92FF92AF
:102F80000F931F93CF93DF938CE090E00E942A2051
:102F900061E080E00E942E1364E086EB9BE00E94DB
:102FA000A630D1E0B12CC12CD12C7601C3940CE019
:102FB00010E00E94E4208823E1F38130D1F4D13085
:102FC00009F43DC2D33009F034C2AAE0B0E0A70151
:102FD00096010E943E416B017C0185E6C816D10432
:102FE000E104F10408F42DC2C12CD12C7601C39464
:102FF00028C2823029F4D15009F057C4D4E055C416
:10300000833009F026C2D13009F419C2D23051F40C
:1030100001501109C1E0101611060CF413C208E1A9
:1030200010E010C2D33009F004C2F8013197E83142
:10303000F10508F006C28827E450FF4F8F4F0C942B
:1030400020428091C4079091C507A091C607B09116
:10305000C7078C199D09AE09BF098093C4079093D7
:10306000C507A093C607B093C707EBC18091C007FF
:103070009091C107A091C207B091C3078C199D0917
:10308000AE09BF098093C0079093C107A093C20700
:10309000B093C307D6C18091BC079091BD07A091A2
:1030A000BE07B091BF078C199D09AE09BF09809377
:1030B000BC079093BD07A093BE07B093BF07C1C1E3
:1030C0008091B8079091B907A091BA07B091BB075A
:1030D0008C199D09AE09BF098093B8079093B90771
:1030E000A093BA07B093BB07ACC18091B40790918D
:1030F000B507A091B607B091B7078C199D09AE0925
:10310000BF098093B4079093B507A093B607B09317
:10311000B70797C18091B0079091B107A091B2070E
:10312000B091B3078C199D09AE09BF098093B00710
:103130009093B107A093B207B093B30782C1809177
:10314000AC079091AD07A091AE07B091AF078C1975
:103150009D09AE09BF098093AC079093AD07A0937A
:10316000AE07B093AF076DC18091A8079091A907F2
:10317000A091AA07B091AB078C199D09AE09BF09B0
:103180008093A8079093A907A093AA07B093AB07D1
:1031900058C18091A4079091A507A091A607B0916E
:1031A000A7078C199D09AE09BF098093A4079093C6
:1031B000A507A093A607B093A70743C18091A007D6
:1031C0009091A107A091A207B091A3078C199D0926
:1031D000AE09BF098093A0079093A107A093A2070F
:1031E000B093A3072EC180919C0790919D07A09159
:1031F0009E07B0919F078C199D09AE09BF09809366
:103200009C0790939D07A0939E07B0939F0719C1B9
:103210008091980790919907A0919A07B0919B0788
:103220008C199D09AE09BF0980939807909399075F
:10323000A0939A07B0939B0704C180919407909143
:103240009507A0919607B09197078C199D09AE0933
:10325000BF098093940790939507A0939607B09326
:103260009707EFC08091900790919107A0919207E6
:10327000B09193078C199D09AE09BF0980939007FF
:1032800090939107A0939207B0939307DAC080912F
:103290008C0790918D07A0918E07B0918F078C19A4
:1032A0009D09AE09BF0980938C0790938D07A09369
:1032B0008E07B0938F07C5C08091880790918907CA
:1032C000A0918A07B0918B078C199D09AE09BF099F
:1032D0008093880790938907A0938A07B0938B0700
:1032E000B0C08091840790918507A0918607B09126
:1032F00087078C199D09AE09BF09809384079093B5
:103300008507A0938607B09387079BC080918007AD
:1033100090918107A0918207B09183078C199D0934
:10332000AE09BF098093800790938107A09382071D
:10333000B093830786C080917C0790917D07A09110
:103340007E07B0917F078C199D09AE09BF09809354
:103350007C0790937D07A0937E07B0937F0771C091
:103360008091780790917907A0917A07B0917B07B7
:103370008C199D09AE09BF0980937807909379074E
:10338000A0937A07B0937B075CC0809174079091FB
:103390007507A0917607B09177078C199D09AE0942
:1033A000BF098093740790937507A0937607B09335
:1033B000770747C08091700790917107A0917207BD
:1033C000B09173078C199D09AE09BF0980937007EE
:1033D00090937107A0937207B093730732C08091E6
:1033E0006C0790916D07A0916E07B0916F078C19D3
:1033F0009D09AE09BF0980936C0790936D07A09358
:103400006E07B0936F071DC08091680790916907A0
:10341000A0916A07B0916B078C199D09AE09BF098D
:103420008093680790936907A0936A07B0936B072E
:1034300008C0D43031F4C8010E94A62002C0C0E008
:1034400001C0C1E068EC70E080E090E00E947B1475
:1034500033C2843009F023C2D13049F468EC70E003
:1034600080E090E00E947B140E9417211EC2D2309F
:1034700049F40F5F1F4F093111050CF416C201E02A
:1034800010E013C2D33009F004C2F8013197E831DB
:10349000F10508F00AC28827EC5EFE4F8F4F0C94AE
:1034A00020428091C4079091C507A091C607B091B2
:1034B000C7078C0D9D1DAE1DBF1D8093C407909343
:1034C000C507A093C607B093C707EFC18091C00797
:1034D0009091C107A091C207B091C3078C0D9D1DAB
:1034E000AE1DBF1D8093C0079093C107A093C20774
:1034F000B093C307DAC18091BC079091BD07A0913A
:10350000BE07B091BF078C0D9D1DAE1DBF1D8093E2
:10351000BC079093BD07A093BE07B093BF07C5C17A
:103520008091B8079091B907A091BA07B091BB07F5
:103530008C0D9D1DAE1DBF1D8093B8079093B907DC
:10354000A093BA07B093BB07B0C18091B407909124
:10355000B507A091B607B091B7078C0D9D1DAE1DA4
:10356000BF1D8093B4079093B507A093B607B0939F
:10357000B7079BC18091B0079091B107A091B207A6
:10358000B091B3078C0D9D1DAE1DBF1D8093B0077C
:103590009093B107A093B207B093B30786C180910F
:1035A000AC079091AD07A091AE07B091AF078C0D1D
:1035B0009D1DAE1DBF1D8093AC079093AD07A093DA
:1035C000AE07B093AF0771C18091A8079091A9078A
:1035D000A091AA07B091AB078C0D9D1DAE1DBF1D1C
:1035E0008093A8079093A907A093AA07B093AB076D
:1035F0005CC18091A4079091A507A091A607B09106
:10360000A7078C0D9D1DAE1DBF1D8093A407909331
:10361000A507A093A607B093A70747C18091A0076D
:103620009091A107A091A207B091A3078C0D9D1DB9
:10363000AE1DBF1D8093A0079093A107A093A20782
:10364000B093A30732C180919C0790919D07A091F0
:103650009E07B0919F078C0D9D1DAE1DBF1D8093D1
:103660009C0790939D07A0939E07B0939F071DC151
:103670008091980790919907A0919A07B0919B0724
:103680008C0D9D1DAE1DBF1D8093980790939907CB
:10369000A0939A07B0939B0708C1809194079091DB
:1036A0009507A0919607B09197078C0D9D1DAE1DB3
:1036B000BF1D8093940790939507A0939607B093AE
:1036C0009707F3C08091900790919107A09192077E
:1036D000B09193078C0D9D1DAE1DBF1D809390076B
:1036E00090939107A0939207B0939307DEC08091C7
:1036F0008C0790918D07A0918E07B0918F078C0D4C
:103700009D1DAE1DBF1D80938C0790938D07A093C8
:103710008E07B0938F07C9C0809188079091890761
:10372000A0918A07B0918B078C0D9D1DAE1DBF1D0A
:103730008093880790938907A0938A07B0938B079B
:10374000B4C08091840790918507A0918607B091BD
:1037500087078C0D9D1DAE1DBF1D80938407909320
:103760008507A0938607B09387079FC08091800745
:1037700090918107A0918207B09183078C0D9D1DC8
:10378000AE1DBF1D8093800790938107A093820791
:10379000B09383078AC080917C0790917D07A091A8
:1037A0007E07B0917F078C0D9D1DAE1DBF1D8093C0
:1037B0007C0790937D07A0937E07B0937F0775C029
:1037C0008091780790917907A0917A07B0917B0753
:1037D0008C0D9D1DAE1DBF1D8093780790937907BA
:1037E000A0937A07B0937B0760C080917407909193
:1037F0007507A0917607B09177078C0D9D1DAE1DC2
:10380000BF1D8093740790937507A0937607B093BC
:1038100077074BC08091700790917107A091720754
:10382000B09173078C0D9D1DAE1DBF1D8093700759
:1038300090937107A0937207B093730736C080917D
:103840006C0790916D07A0916E07B0916F078C0D7A
:103850009D1DAE1DBF1D80936C0790936D07A093B7
:103860006E07B0936F0721C0809168079091690738
:10387000A0916A07B0916B078C0D9D1DAE1DBF1DF9
:103880008093680790936907A0936A07B0936B07CA
:103890000CC0D43051F4C8010E94A62006C0853067
:1038A00051F4DF5FD53008F0D1E068EC70E080E0E3
:1038B00090E00E947B14C1E0D23061F020F4D1305E
:1038C00071F4B12C0CC0D33041F0D43041F48EE00F
:1038D000B82E05C022E0B22E02C099E0B92EC80170
:1038E0000E942A2061E08B2D0E942E1364E086EB5B
:1038F0009BE00E94A630D33031F4B701A60186EBDD
:103900009BE00E949616C11154CBDF91CF911F917D
:103910000F91FF90EF90DF90CF90BF900895EF92BE
:10392000FF920F931F93CF93DF93CDB7DEB72C9702
:103930000FB6F894DEBF0FBECDBF60E074E0CE01DD
:1039400001960E94FE15BE016F5F7F4FCE01079664
:103950000E94E415CE0107960E947C17CE010796BF
:103960000E94DF1561E080E00E942E1364E086EB88
:103970009BE00E94A63011E0E12CFF24F3940E940A
:10398000E4208823E1F3813029F41130E1F0123092
:10399000A1F415C0823029F4115009F040C013E0A1
:1039A0003EC08330D1F4113071F0123031F4FA940A
:1039B000F1100BC02AE1F22E08C0133031F48F2D24
:1039C0000E945B1702C000E001C001E068EC70E0FB
:1039D00080E090E00E947B1429C08430D1F4113043
:1039E00049F468EC70E080E090E00E947B140E9453
:1039F000BB1715C0123039F4F3948AE18F1578F4AF
:103A0000FF24F3940CC0133051F48F2D0E945B17E8
:103A100006C0853051F41F5F143008F011E068ECE7
:103A200070E080E090E00E947B1401E0123031F001
:103A3000133039F0113039F4E12C05C095E0E92E4E
:103A400002C08EE0E82E8F2D90E0FC013197EA3124
:103A5000F10508F057C08827E45DFE4F8F4F0C94A6
:103A6000204260E074E04AC069E074E047C062E16F
:103A700074E044C06BE174E041C064E274E03EC0B5
:103A80006DE274E03BC066E374E038C06FE374E05D
:103A900035C068E474E032C061E574E02FC06BE5C6
:103AA00074E02CC065E674E029C06FE674E026C0BF
:103AB00069E774E023C063E874E020C06DE874E057
:103AC0001DC068E974E01AC063EA74E017C06EEACA
:103AD00074E014C06AEB74E011C066EC74E00EC0D0
:103AE00062ED74E00BC06EED74E008C06AEE74E045
:103AF00005C066EF74E002C062E075E0CE01019699
:103B00000E94BE15BE016F5F7F4FCE0107960E94D7
:103B1000E415CE0107960E947C17CE0107960E94FD
:103B2000DF1561E08E2D0E942E1364E086EB9BE092
:103B30000E94A630011123CFCE0101960E94DF150D
:103B40002C960FB6F894DEBF0FBECDBFDF91CF919C
:103B50001F910F91FF90EF9008952F923F924F92F7
:103B60005F926F927F928F929F92AF92BF92CF920D
:103B7000DF92EF92FF920F931F93CF9386EB9BE020
:103B80000E94AF3060E086E00E942E136DE075E089
:103B900086EB9BE00E94B51668EE73E080E090E053
:103BA0000E947B140E9417210E94BB170E948F1C49
:103BB0000E94152240910008509101086091FE0773
:103BC0007091FF078091FC079091FD070E941A17E2
:103BD00061E080E00E942E1364E086EB9BE00E948F
:103BE000A630C0E011E080ED482E87E0582EAA24D0
:103BF000A394B12C2BE3C22ED12C3EEA232E38E025
:103C0000332E0E94E4208823E1F3813049F4812F90
:103C10008B7F813009F413C1163009F0FCC00DC14F
:103C2000823051F4115009F411E068EC70E080E04A
:103C300090E00E947B1414C1833009F06DC01130F4
:103C400009F4FDC0123079F48091FC079091FD07D2
:103C500001971816190614F08FE190E09093FD0774
:103C60008093FC07EFC0133079F48091FE079091A8
:103C7000FF0701971816190614F08CE090E0909356
:103C8000FF078093FE07DEC0143079F480910008AE
:103C9000909101080197803D27E092070CF075C0D4
:103CA0003092010820920008CDC0153009F4C7C039
:103CB000163009F4C2C0173071F48091F807909162
:103CC000F907019797FF02C087E190E09093F90709
:103CD0008093F807B7C0183061F480913902909151
:103CE0003A02019797FF7BC0D0923A02C092390204
:103CF000A9C0193009F08FC08091FA079091FB0795
:103D000001979093FB078093FA0797FF9BC0D0928F
:103D1000FB07C092FA0796C0843009F09BC01130AF
:103D200049F468EC70E080E090E00E947B140E940F
:103D30008F1C88C0123071F48091FC079091FD07B0
:103D40000196803291050CF489CFB092FD07A092C4
:103D5000FC0778C0133071F48091FE079091FF0743
:103D600001968D3091050CF48ACFB092FF07A09296
:103D7000FE0768C0143099F4809100089091010802
:103D800001968F3A28E092072CF4909301088093D3
:103D9000000858C0509201084092000853C01530E6
:103DA00009F44DC0163009F44CC0173071F48091FD
:103DB000F8079091F9070196883191050CF486CFA8
:103DC0001092F9071092F8073DC0183091F48091D5
:103DD000390290913A0201968C3391052CF490931C
:103DE0003A02809339022EC010923A0210923902A0
:103DF00029C0193081F48091FA079091FB07019650
:103E00009093FB078093FA07CC97E4F01092FB079E
:103E10001092FA0717C01A30A9F4E090FA0700913F
:103E200039022091F8074091FC076091FE078091CC
:103E30000008909101080E94431300E004C016E0BE
:103E400001C011E001E068EC70E080E090E00E94C9
:103E50007B1407C0853021F41F5F1B3008F01AE087
:103E600001E068EC70E080E090E00E947B14812F1C
:103E700090E0FC013197EA30F10508F0A4C08827F2
:103E8000EA5BFE4F8F4F0C942042C5E01BC0C5E09B
:103E900009C0C9E007C0CEE005C0C8E013C0CDE04E
:103EA00011C0C0E040910008509101086091FE07E8
:103EB0007091FF078091FC079091FD070E941A17EF
:103EC0003FC0C0E08090FA079090FB07E090390275
:103ED000F0903A026090F8077090F90786EB9BE04B
:103EE0000E94AF3060E080E00E942E1365E086EB18
:103EF0009BE00E94A63060E082E00E942E13B30196
:103F000086EB9BE00E945C1660E085E00E942E1329
:103F1000B70186EB9BE00E945C1660E088E00E949F
:103F20002E13B40186EB9BE00E945C1660E08CE0EF
:103F30000E942E1362E175E086EB9BE00E94B516AD
:103F400061E08C2F0E942E1364E086EB9BE00E94C0
:103F5000A630153029F463E086EB9BE00E94A63082
:103F600001114FCE86EB9BE00E94AF3060E086E00F
:103F70000E942E1367E175E086EB9BE00E94B51668
:103F800068EE73E080E090E00E947B148DE390E0A7
:103F900090933A0280933902CF911F910F91FF9035
:103FA000EF90DF90CF90BF90AF909F908F907F90D9
:103FB0006F905F904F903F902F900C94BB26C2E083
:103FC00071CFC2E07FCF163008F07CCF6BCFCF929D
:103FD000DF92EF92FF92CF93DF93EC016A017B01B6
:103FE00086EB9BE00E94AF3060E080E00E942E13E1
:103FF00060E086EB9BE00E94A63060E082E00E94D9
:104000002E13BE0186EB9BE00E945C1660E084E00C
:104010000E942E136CE175E086EB9BE00E94B516C2
:1040200060E089E00E942E13B701A60186EB9BE0B9
:104030000E94961660E08EE00E942E136DEF73E0F2
:1040400086EB9BE0DF91CF91FF90EF90DF90CF90D8
:104050000C94B516CF92DF92EF92FF92CF93DF933D
:10406000EC010E948E056B017C0186EB9BE00E94B7
:10407000AF3060E080E00E942E1365E086EB9BE0AD
:104080000E94A63060E086EB9BE00E94A63060E0D4
:1040900082E00E942E13BE0186EB9BE00E945C161C
:1040A00060E084E00E942E1362E275E086EB9BE004
:1040B0000E94B51660E089E00E942E13B701A601A8
:1040C00086EB9BE00E94961660E08EE00E942E1325
:1040D0006DEF73E086EB9BE0DF91CF91FF90EF9067
:1040E000DF90CF900C94B516DF92EF92FF920F9372
:1040F0001F93CF93DF9300D01F92CDB7DEB7880F09
:10410000991F880F991F8E010F5F1F4F7C01E01AC6
:10411000F10A34E0D32ED00EC701800F911F0E9408
:104120002841F80181938F01DE12F6CF69817A81EF
:104130008B819C810F900F900F900F90DF91CF910A
:104140001F910F91FF90EF90DF900895CF92DF9233
:10415000EF92FF920F931F93CF93DF9300D01F92A4
:10416000CDB7DEB78C010E948E056B017C01C801C2
:104170000E9474206C157D058E059F05C1F0C982D3
:10418000DA82EB82FC82000F111F000F111FCE019B
:1041900001967C0194E0D92EDE0CF70161917F013C
:1041A000C8010E9430410F5F1F4FDE10F6CF0F9005
:1041B0000F900F900F90DF91CF911F910F91FF9073
:1041C000EF90DF90CF90089580917B00877F809360
:1041D0007B0080E480937C0080917A0080648093EF
:1041E0007A0080917A0086FDFCCF20917800809142
:1041F000790030E0382B233431058CF02D3D31052A
:1042000084F02C3881E0380774F02A3592E03907C1
:1042100064F081E0293633404CF080E0089585E079
:10422000089584E0089583E0089582E008957F92E0
:104230008F929F92AF92BF92CF92DF92EF92FF92B6
:104240000F931F93CF93DF9344E650E060E070E05C
:104250008CE090E00E94E71F61E080E00E942E1356
:1042600064E086EB9BE00E94A6300CE010E064E680
:10427000C62ED12CE12CF12CC1E0712C812C912C7B
:10428000540183940E94E4208823E1F38130D9F41F
:10429000C13009F447C0C23009F43CC0C330C1F595
:1042A000AAE0B0E0A50194010E943E414B015C01EF
:1042B00085E688169104A104B104B0F1812C912CFB
:1042C0005401839431C0823029F4C15009F06DC08B
:1042D000C4E06BC0833081F5C13021F1C23049F4B4
:1042E00001501109D1E010161106FCF008E110E0B0
:1042F0001CC0C33069F4C818D908EA08FB08D1E02B
:10430000A1F44FE0C42E47E2D42EE12CF12C0DC0D5
:10431000C43051F420E030E0B701A601C8010E948A
:10432000AD0402C0D0E001C0D1E068EC70E080E0F4
:1043300090E00E947B1440C0843089F5C13049F47C
:1043400068EC70E080E090E00E947B140E94AD1D5C
:104350002CC0C23041F40F5F1F4F093111052CF101
:1043600001E010E022C0C33081F4C80CD91CEA1C63
:10437000FB1C80E1C81687E2D806E104F104A8F02E
:10438000C12CD12C7601C39410C0C43071F420E04C
:1043900030E0B701A601C8010E94AD0406C0853017
:1043A00051F4CF5FC53008F0C1E068EC70E080E008
:1043B00090E00E947B14D1E0C23061F020F4C13063
:1043C00071F4712C0CC0C33041F0C43041F48EE064
:1043D000782E05C022E0722E02C099E0792EB70136
:1043E000A601C8010E94E71F61E0872D0E942E13DD
:1043F00064E086EB9BE00E94A630C33031F4B50147
:10440000A40186EB9BE00E949616D1113BCFDF9171
:10441000CF911F910F91FF90EF90DF90CF90BF90C1
:10442000AF909F908F907F900895CF92DF92EF9200
:10443000FF920F931F93CF93DF93C2E0D8E0CE019A
:104440000E945B128E8190E09093FB078093FA07A5
:104450008D8190E090933A02809339028C8190E0B4
:104460009093F9078093F8078B8190E09093FD0774
:104470008093FC078F8190E090939F0980939E0921
:104480008A8190E09093FF078093FE07888199814D
:104490009093010880930008C0900208D090030810
:1044A000E0900408F09005080091060810910708B4
:1044B000209108083091090840910A0850910B0892
:1044C00060910C0870910D0888E295E00E946010E0
:1044D000BC0180EB9BE0DF91CF911F910F91FF908A
:1044E000EF90DF90CF900C94BE15CF92DF92EF92B9
:1044F000FF9286E190E00E948E056B017C0186EBC5
:104500009BE00E94AF3060E082E00E942E1360E0EA
:1045100086EB9BE00E94A63060E084E00E942E13B0
:1045200062E075E086EB9BE00E94B51668EE73E0F2
:1045300080E090E00E947B1420ED37E0B701A601F7
:1045400086E190E00E94AD0486EB9BE00E94AF30D4
:1045500060E082E00E942E1360E086EB9BE00E9408
:10456000A63060E084E00E942E1362E075E086EBE6
:104570009BE00E94B51660ED77E080E090E00E943D
:104580007B140E9415228091390290913A02892B66
:1045900099F686EB9BE00E94AF30FF90EF90DF90A2
:1045A000CF900C94C3254F925F926F927F928F921F
:1045B0009F92AF92BF92CF92DF92EF92FF920F93B2
:1045C0001F93CF93DF93E82F8FEF8E0F863408F081
:1045D00031C2883208F06CC180910E0890910F08AA
:1045E000892B11F00E94B62780910E0890910F0838
:1045F000892B11F00E94B6271092D7081092D60886
:1046000010920F0810920E08C8EDD8E058E0452E21
:1046100066246394712C55245394FE01E85CF109DF
:10462000208131812115310591F4DF91CF911F91C6
:104630000F91FF90EF90DF90CF90BF90AF909F9041
:104640008F907F906F905F904F900C94B6278880EA
:1046500099808091C9079091CA078114910409F447
:10466000FEC0892BD1F4B401C9010E94610F2881D9
:1046700039818091D6089091D708820F931F90932B
:10468000D7088093D60880910E0890910F08019664
:1046900090930F0880930E0804C190913B02E92F7C
:1046A000F0E0EE0FFF1FE753F84F31832083923085
:1046B00061F46091CD077091CE07A4018091CB0782
:1046C0009091CC070E94A00EA6C0933081F4409137
:1046D000CF075091D0076091CD077091CE0794011C
:1046E0008091CB079091CC070E94B60D94C0943076
:1046F000A1F42091D1073091D2074091CF0750917A
:10470000D0076091CD077091CE0784018091CB07CF
:104710009091CC070E949F0C7EC09530C1F400910F
:10472000D3071091D4072091D1073091D20740913F
:10473000CF075091D0076091CD077091CE077401DB
:104740008091CB079091CC070E94580B64C09630A3
:10475000E1F4E090D507F090D6070091D3071091CF
:10476000D4072091D1073091D2074091CF075091C3
:10477000D0076091CD077091CE0764018091CB077F
:104780009091CC070E94E70946C0973001F5C09090
:10479000D707D090D807E090D507F090D6070091C2
:1047A000D3071091D4072091D1073091D2074091BF
:1047B000CF075091D0076091CD077091CE0754017B
:1047C0008091CB079091CC070E94460824C0983076
:1047D000B9F5A090D907B090DA07C090D707D0906C
:1047E000D807E090D507F090D6070091D307109135
:1047F000D4072091D1073091D2074091CF07509133
:10480000D0076091CD077091CE078091CB07909132
:10481000CC070E947706288139818091D608909133
:10482000D708820F931F9093D7088093D608809162
:104830000E0890910F08019690930F0880930E0830
:1048400050923B021092CA071092C907E9ECF7E0B8
:104850001192119287E0EB3DF807D1F722C0892B26
:1048600021F47092CA076092C90790913B02E92F28
:10487000F0E0EE0FFF1FE753F84F3183208381E014
:10488000890F80933B0220910E0830910F082F5F13
:104890003F4F30930F0820930E08893010F040925C
:1048A0003B02229689E0CE39D80709F0B6CEBDCEBC
:1048B0008E2F90E0FC01B997EA31F10508F0BAC0FB
:1048C0008827E05BFE4F8F4F0C942042DF91CF9101
:1048D0001F910F91FF90EF90DF90CF90BF90AF901E
:1048E0009F908F907F906F905F904F900C943F2C93
:1048F000DF91CF911F910F91FF90EF90DF90CF90BC
:10490000BF90AF909F908F907F906F905F904F90EF
:104910000C94992BDF91CF911F910F91FF90EF9005
:10492000DF90CF90BF90AF909F908F907F906F90CF
:104930005F904F900C94512BDF91CF911F910F916D
:10494000FF90EF90DF90CF90BF90AF909F908F90AF
:104950007F906F905F904F900C944F2ADF91CF9192
:104960001F910F91FF90EF90DF90CF90BF90AF908D
:104970009F908F907F906F905F904F900C94332911
:10498000DF91CF911F910F91FF90EF90DF90CF902B
:10499000BF90AF909F908F907F906F905F904F905F
:1049A0000C947F28DF91CF911F910F91FF90EF9092
:1049B000DF90CF90BF90AF909F908F907F906F903F
:1049C0005F904F900C946F28DF91CF911F910F91C2
:1049D000FF90EF90DF90CF90BF90AF909F908F901F
:1049E0007F906F905F904F900C942F28DF91CF9124
:1049F0001F910F91FF90EF90DF90CF90BF90AF90FD
:104A00009F908F907F906F905F904F900C9417289D
:104A1000DF91CF911F910F91FF90EF90DF90CF909A
:104A2000BF90AF909F908F907F906F905F904F90CE
:104A30000C947522DF91CF911F910F91FF90EF9011
:104A4000DF90CF90BF90AF909F908F907F906F90AE
:104A50005F904F9008958F929F92AF92BF92EF9286
:104A6000FF920F931F93CF93DF93EC01892B11F4E7
:104A7000C8E1D0E08091390290913A02892B49F047
:104A80002091390230913A022115310509F044C0D4
:104A90006FC0FE01EF58FD4F8081882389F30E948B
:104AA000D32268EE73E080E090E00E947B1486E100
:104AB00090E00E948E054B015C017E01CD30D10556
:104AC0001CF08CE0E81AF10800E010E00E151F055C
:104AD000BCF686EB9BE00E94AF3061E087E00E946D
:104AE0002E1365E086EB9BE00E94A6300F5F1F4F00
:104AF000B80186EB9BE00E945C1664EC79E080E0F4
:104B000090E00E947B1424EC39E0B501A40186E119
:104B100090E00E94AD04DACFCE0101968931910573
:104B200014F081E090E0CF58DD4F4881442301F13B
:104B3000FC01EF58FD4F80818823D1F02F303105E3
:104B400011F48FE309C02E31310511F480E404C063
:104B50002D32310569F481E4DF91CF911F910F91DE
:104B6000FF90EF90BF90AF909F908F900C94D322C6
:104B7000DF91CF911F910F91FF90EF90BF90AF9079
:104B80009F908F900895CF930E9415228091C8071F
:104B900081110CC080919E0990919F09069724F085
:104BA00081E08093380202C010923802809139026D
:104BB00090913A02009709F050C08091A3098111A9
:104BC000D8C0C1E0C093A3091092A2091092A10914
:104BD0001092A00986EB9BE00E94AF3061E086E076
:104BE0000E942E1361E086EB9BE00E94A63061E0FC
:104BF00088E00E942E136091F8077091F90786EB08
:104C00009BE00E945C166AE275E086EB9BE00E94E6
:104C1000B51668EE73E080E090E00E947B1486EBAE
:104C20009BE00E94AF308091F8079091F9078130A6
:104C3000910571F41092C80720919E0930919F0947
:104C4000263031051CF0C093380202C010923802A1
:104C50006091390270913A0281C08F30910509F557
:104C60008091A209811185C01092A30981E08093EF
:104C7000A2091092A1091092A00986EB9BE00E9464
:104C8000AF3061E086E00E942E1361E086EB9BE08E
:104C90000E94A63061E088E00E942E136CE275E06D
:104CA00047C08E31910509F58091A109811161C03C
:104CB0001092A3091092A20981E08093A109109299
:104CC000A00986EB9BE00E94AF3061E086E00E9485
:104CD0002E1361E086EB9BE00E94A63061E088E045
:104CE0000E942E1360E375E023C08D9709F041C048
:104CF0008091A00981113DC01092A3091092A209D0
:104D00001092A10981E08093A00986EB9BE00E94AC
:104D1000AF3061E086E00E942E1361E086EB9BE0FD
:104D20000E94A63061E088E00E942E1364E375E0E3
:104D300086EB9BE00E94B51668EE73E080E090E0A1
:104D40000E947B1486EB9BE00E94AF306091390299
:104D500070913A028091F8079091F9070E942B25F3
:104D60008DE390E090933A0280933902CF910C94B6
:104D7000BB26CF910895AF92BF92CF92DF92EF9270
:104D8000FF920F931F93CF93DF93CDB7DEB7E397D7
:104D90000FB6F894DEBF0FBECDBFCE0188960E943D
:104DA0005B128CE0FE01B896A2E0B8E001900D9293
:104DB0008A95E1F78091070890E0209139023091BF
:104DC0003A028217930709F4A7C090933A0280939E
:104DD000390286EB9BE00E94AF30C0900208D09071
:104DE0000308E0900408F09005080091060810916F
:104DF0000708209108083091090840910A0850914D
:104E00000B0860910C0870910D0888E395E00E94F2
:104E10006010BC0186EB9BE00E94B51661E080E06B
:104E20000E942E1362E475E086EB9BE00E94B516AB
:104E300081E08093F70988E68093190A1092F809B7
:104E400010921A0A81E190E00E9416320E94B93154
:104E500082E090E00E9470319091420A8091430A72
:104E60009817F1F38EE99BE00E94D22D182F8EE95E
:104E70009BE00E94D22D1BA21AA21DA21CA21FA25F
:104E80001EA2B12EA12CB501682B86E07595679501
:104E90008A95E1F7072E000C880B990B0E940B40B6
:104EA00020E030E040E85EE30E946A408E010F5F40
:104EB0001F4F22E044E00E947E3DBC01CE0182965D
:104EC0000E94BE154EA15FA16AA17BA186EB9BE06B
:104ED0000E94F50FCE0182960E94DF150E941522D6
:104EE00061E08FE00E942E1360919E0970919F09EE
:104EF00086EB9BE00E945C168091C80781110CC074
:104F000080919E0990919F09069724F081E08093FB
:104F1000380202C010923802909138028091DB076B
:104F2000992341F0811106C061E08CE00E942E13AC
:104F300062E007C0882349F061E08CE00E942E13F4
:104F400066E086EB9BE00E94A630E3960FB6F894ED
:104F5000DEBF0FBECDBFDF91CF911F910F91FF90AC
:104F6000EF90DF90CF90BF90AF900895EEE0F8E023
:104F700011921192DF01AA53BF4F1D921C9288E03B
:104F8000E63DF807A9F7089580913C02813049F485
:104F900068E475E084E69AE00E94A1166BE575E08E
:104FA00041C0823049F460E775E084E69AE00E94EF
:104FB000A11669E875E036C0833049F466EE75E005
:104FC00084E69AE00E94A1166FEF75E02BC0843052
:104FD00049F46DE576E084E69AE00E94A11664E764
:104FE00076E020C0853049F460E976E084E69AE016
:104FF0000E94A1166AEA76E015C0863049F46BEC8F
:1050000076E084E69AE00E94A11665EE76E00AC09A
:10501000873061F466E077E084E69AE00E94A116AA
:1050200062E177E084E69AE00C94A11608958CE2A0
:1050300091E00E9433058CE291E00E945A058CE2D7
:1050400091E00E944D0584EF91E00E94670540E0E9
:1050500050E06BE070E085E090E00C94A00E24EF4F
:1050600031E04BE050E062E170E08AE090E00E94C5
:10507000B60D24EF31E047E050E062E170E08AE0F5
:1050800090E00E94B60D24EF31E046E050E062E18E
:1050900070E08AE090E00E94B60D24EF31E04BE032
:1050A00050E062E170E08AE090E00E94B60D24EFEB
:1050B00031E045E050E062E170E08AE090E00E947B
:1050C000B60D20E233E046E050E062E170E081E1BD
:1050D00090E00E94B60D80E090E00C94810588E598
:1050E00092E00E945A0588E592E00E94740588E5E6
:1050F00092E00E94670580E090E00C94810544EF07
:1051000051E06EE070E08BE090E00E94A00E4CE277
:1051100051E06EE070E08BE090E00E94A00E8CE227
:1051200091E00E944D058CE291E00E944D0544EF14
:1051300051E06EE070E08BE090E00E94A00E48EC41
:1051400050E06EE070E08BE090E00E94A00E8CE2F8
:1051500091E00E944D058CE291E00E944D058CE2A9
:1051600091E00E9467058CE291E00E945A058CE272
:1051700091E00E944D0584E690E00E944D058CE28E
:1051800091E00E945A058CE291E00E9467058CE252
:1051900091E00E9467058CE291E00E945A058CE242
:1051A00091E00E945A058CE291E00E9467058CE232
:1051B00091E00E945A058CE291E00E944D0584E640
:1051C00090E00E945A0584E690E00E945A058CE225
:1051D00091E00E9467058CE291E00E944D0548EC49
:1051E00050E06EE070E08BE090E00E94A00E88EC52
:1051F00090E00E944D0548EC50E06EE070E08BE0DE
:1052000090E00E94A00E88EC90E00E944D0544EFD3
:1052100051E060E170E08EE090E00E94A00E84E634
:1052200090E00E94260548EC50E06EE070E08BE0D4
:1052300090E00E94A00E8CE291E00E9426054CE2D4
:1052400051E06EE070E08BE090E00E94A00E88ECF0
:1052500090E00E944D054CE251E06EE070E08BE082
:1052600090E00C94A00E44EF51E061E170E080E129
:1052700090E00E94A00E4CE251E061E170E080E11C
:1052800090E00E94A00E44EF51E061E170E085E003
:1052900090E00E94A00E48EC50E061E170E085E0F3
:1052A00090E00E94A00E48EC50E061E170E080E1E7
:1052B00090E00E94A00E88EC90E00E94260548EC49
:1052C00050E061E170E080E190E00E94A00E48ECC7
:1052D00050E061E170E080E190E00E94A00E88EC77
:1052E00090E00E94740544EF51E061E170E08FE0CE
:1052F00090E00E94A00E88EC90E00E944D0588ECA2
:1053000090E00E94190588EC90E00E945A0580E91F
:1053100091E00E944D054091900750919107609156
:1053200092077091930728EC30E08EE090E00E94A5
:10533000AD0488EC90E00E9433058CE291E00E947D
:10534000400580E991E00E94190584EF91E00E94F8
:10535000400588EC90E00E94190584EF91E00E94DE
:10536000400588EC90E00E94400588EC90E00E94A7
:10537000740588EC90E00E94190584EF91E00E948A
:10538000400588EC90E00E94260584EF91E00E94A1
:10539000330588EC90E00E945A0588EC90E00E946A
:1053A0005A0584EF91E00E94190548EC50E06DE049
:1053B00070E085E090E00E94A00E4CE251E063E0D6
:1053C00070E08DE090E00E94A00E48EC50E063E0B9
:1053D00070E085E090E00E94A00E4CE251E063E0B6
:1053E00070E082E190E00E94A00E4091BC075091D5
:1053F000BD076091BE077091BF0728EC30E083E0E5
:1054000090E00E94AD044CE251E060E170E08BE07E
:1054100090E00E94A00E48EC50E06FE070E085E064
:1054200090E00E94A00E48EC50E06FE070E085E054
:1054300090E00E94A00E44EF51E063E070E08DE048
:1054400090E00E94A00E4CE251E067E070E08EE038
:1054500090E00E94A00E48EC50E063E170E080E133
:1054600090E00E94A00E88EC90E00E94740548EC49
:1054700050E06DE070E08EE090E00E94A00E48ECFD
:1054800050E06DE070E08FE090E00E94A00E40E000
:1054900050E06DE070E082E190E00C94A00E2EE50B
:1054A00031E044E650E060E070E084E090E00E948B
:1054B000AD042EE531E044E650E060E070E085E0C8
:1054C00090E00E94AD042EE531E044E650E060E05B
:1054D00070E086E090E00E94AD042EE531E044E605
:1054E00050E060E070E087E090E00E94AD042EE5BF
:1054F00031E044E650E060E070E086E090E00E9439
:10550000AD042EE531E044E650E060E070E085E077
:1055100090E00E94AD0428E532E044E650E060E00F
:1055200070E084E090E00E94AD042AEF30E044E6B1
:1055300050E060E070E085E090E00E94AD042AEF6A
:1055400030E044E650E060E070E085E090E00E94EA
:10555000AD0420E931E044E650E060E070E085E031
:1055600090E00E94AD042CE231E044E650E060E0BF
:1055700070E086E090E00E94AD042CE231E044E669
:1055800050E060E070E085E090E00E94AD0428E526
:1055900032E044E650E060E070E084E090E00E9499
:1055A000AD042EE531E044E650E060E070E084E0D8
:1055B00090E00E94AD042EE531E044E650E060E06A
:1055C00070E085E090E00E94AD042EE531E044E615
:1055D00050E060E070E086E090E00E94AD042EE5CF
:1055E00031E044E650E060E070E087E090E00E9447
:1055F000AD042EE531E044E650E060E070E086E086
:1056000090E00E94AD042EE531E044E650E060E019
:1056100070E085E090E00E94AD0428E532E044E6C9
:1056200050E060E070E084E090E00E94AD042AEF7A
:1056300030E044E650E060E070E085E090E00E94F9
:10564000AD042AEF30E044E650E060E070E085E031
:1056500090E00E94AD0420E931E044E650E060E0D3
:1056600070E085E090E00E94AD042CE231E044E679
:1056700050E060E070E086E090E00E94AD042CE233
:1056800031E044E650E060E070E085E090E00E94A8
:10569000AD0440E050E065E070E084E090E00C9400
:1056A000A00E4091C4075091C5076091C607709144
:1056B000C70724EF31E081E090E00E94AD04409103
:1056C000C0075091C1076091C2077091C30724EFD2
:1056D00031E082E090E00E94AD044091BC0750911F
:1056E000BD076091BE077091BF0724EF31E083E0F2
:1056F00090E00E94AD0484EF91E00E94810584EF68
:1057000091E00E94740584EF91E00E94670584EFA8
:1057100091E00E945A054091A8075091A907609115
:10572000AA077091AB0724EF31E088E090E00C9479
:10573000AD048F929F92AF92BF92CF92DF92EF9281
:10574000FF920F931F9364EF71E081E090E00E945D
:10575000610F64EF71E082E090E00E94610F64EFFE
:1057600071E083E090E00E94610F64EF71E084E0FB
:1057700090E00E94610F64EF71E085E090E00E948C
:10578000610F64EF71E086E090E00E94610F64EFCA
:1057900071E087E090E00E94610F64EF71E088E0C3
:1057A00090E00E94610F44EF51E062E070E081E020
:1057B00090E00E94A00E24EF31E043E050E062E070
:1057C00070E081E090E00E94B60D04EF11E024E06B
:1057D00030E043E050E062E070E081E090E00E9461
:1057E0009F0C84EFE82EFF24F39405E010E024E002
:1057F00030E043E050E062E070E081E090E00E9441
:10580000580B94EFC92EDD24D39426E0E22EF12C20
:1058100024E030E043E050E062E070E081E090E0BE
:105820000E94E70934EFA32EBB24B39447E0C42EB3
:10583000D12C24E030E043E050E062E070E081E011
:1058400090E00E94460854EF852E9924939468E0D6
:10585000A62EB12C24E030E043E050E062E070E09E
:1058600081E090E00E9477061F910F91FF90EF90EA
:10587000DF90CF90BF90AF909F908F90089528EECB
:1058800033E04FE550E060E070E081E090E00E949E
:10589000AD0428EE33E049E650E060E070E082E0DD
:1058A00090E00E94AD0424EF31E044E650E060E077
:1058B00070E083E090E00E94AD0420ED37E044E624
:1058C00050E060E070E084E090E00E94AD0428EEDB
:1058D00033E044E650E060E070E085E090E00E9454
:1058E000AD0428EE33E044E650E060E070E086E08E
:1058F00090E00E94AD0428EE33E044E650E060E022
:1059000070E087E090E00E94AD0428EE33E044E6CA
:1059100050E060E070E088E090E00C94AD04FC01A1
:10592000A089B1898C91A689B78982FD0FC09C910D
:10593000818D8F5F8F73228D821749F0218DDF015A
:10594000A20FB11D5D969C93818F08958C9108954F
:10595000FC01538D448D252F30E0842F90E0821B75
:10596000930B541710F0CF96089501970895FC01FA
:10597000918D828D981761F0828DDF01A80FB11D86
:105980005D968C91928D9F5F9F73928F90E00895AA
:105990008FEF9FEF0895FC01918D828D981731F064
:1059A000828DE80FF11D858D90E008958FEF9FEFB8
:1059B0000895FC01918D228D892F90E0805C9F4F8E
:1059C000821B91098F739927089584E69AE00E94BB
:1059D000D92C21E0892B09F420E0822F089581E061
:1059E0009BE00E94D92C21E0892B09F420E0822F32
:1059F0000895FC01848DDF01A80FB11DA35ABF4F8C
:105A00002C91848D90E001968F739927848FA689BD
:105A1000B7892C93A089B1898C9180648C93938DE4
:105A2000848D981306C00288F389E02D80818F7DD4
:105A300080830895EF92FF920F931F93CF93DF938C
:105A4000EC0181E0888F9B8D8C8D981305C0E889CF
:105A5000F989808185FD24C0F62E0B8D10E00F5F43
:105A60001F4F0F731127E02E8C8DE8120CC00FB65C
:105A700007FCFACFE889F989808185FFF5CFCE014F
:105A80000E94F92CF1CF8B8DFE01E80FF11DE35A36
:105A9000FF4FF0820B8FEA89FB898081806207C00B
:105AA000EE89FF896083E889F98980818064808339
:105AB00081E090E0DF91CF911F910F91FF90EF90E7
:105AC0000895CF93DF93EC01888D8823C9F0EA898C
:105AD000FB89808185FD05C0A889B9898C9186FDE7
