:100000000C9426040C9457040C9457040C94570435
:100010000C9457040C9457040C9457040C945704F4
:100020000C9457040C9457040C9457040C945704E4
:100030000C9457040C9457040C9457040C945704D4
:100040000C9457040C9457040C9457040C945704C4
:100050000C9457040C9457040C9457040C940F30D0
:100060000C9457040C94DC150C94B2150C945704A2
:100070000C9457040C9457040C9457040C94570494
:100080000C9457040C9457040C9457040C94570484
:100090000C9488150C945E150C9457040C94BE2592
:1000A0000C9457040C9457040C9457040C94570464
:1000B0000C9457040C9457040C9457040C94570454
:1000C0000C9457040C9457040C9457040C94570444
:1000D0000C9457040C9457040C9457040C94570434
:1000E0000C945704AA04650468046B046E0471043C
:1000F000740477047A047D048004830486048904EC
:100100008C048F049204950498049B049E04A1041B
:10011000A404A7049705A005A905B205BB05C4055D
:10012000CD05D605DF05E805F105FA0503060C0641
:1001300015061E0627063006390642064B065406EB
:100140005D0666068212E212E212D811E2121E1257
:1001500065126212E212E212E2125C123112E7112F
:10016000E212E212E212E2120112E212B712E212FB
:10017000E212E2125412E212E212E212E212E2126D
:10018000E212E2128A12E212E212C311E212E21247
:10019000731268129612C611E212C91118121B12BC
:1001A000E212E212E212E2129C124612E212E21291
:1001B000EA11E2125712F211EE1A001B121B241B55
:1001C000361B481BA21BA21BA21BA21BA21BA21B0D
:1001D000A21BA21BA21BA21BA21BA21BA21BA21B37
:1001E000A21BA21B5A1B6C1B7E1B901B551C571C71
:1001F000591C5B1C5D1C5F1C611C631C651C691C1D
:10020000691C691C691C671CD41EE91EFE1E131F95
:10021000281F3D1F521F671F7C1F911FA61FBB1F5A
:10022000D01FE51FFA1F0F20242039204E20632005
:1002300078208D20A220B720042119212E214321CE
:1002400058216D2182219721AC21C121D621EB219A
:10025000002215222A223F22542269227E22932242
:10026000A822BD22D222E722E523E823EB23EE23B6
:10027000F123F423F723FA23FD2300240324062487
:1002800009240C240F241224152418241B241E24B2
:100290002124242427242A242D2430244329CB2933
:1002A00039293B293D295329CD2937293F2941297E
:1002B000412F442F332F372F3B2F7B2F482F4C2F8D
:1002C000522F562F5A2F602F642F682F7B2F6E2F9F
:1002D000722F762F0C9424200C9404210C94CD05BD
:1002E0000C9415060C94372F0C94A21B0C94E72247
:1002F0000C94E91E0C9415220C9496120C941B126B
:100300000C946E2F0C94CB290C94F7230C94152489
:100310000C945A2F0C94CB360C948D200C94FA2309
:100320000C9418240C94591C0C94F2110C94830412
:100330000C9431120C9442060C946D210C945406CA
:100340000C946C1B0C94361B0C94682F0C94D222CA
:100350000C944E200C9468040C94131F0C94C91137
:100360000C94C6110C94A4040C9403060C940C2455
:100370000C943D1F0C9409240C94F5140C94A104C6
:100380000C94481B0C9495040C9480040C94300637
:100390000C94D41E0C94FD230C9400240C94482F30
:1003A0000C94631C0C9481250C940C060C94612411
:1003B0000C9406240C94EE1A0C942A240C94571CCA
:1003C0000C94E8230C9462120C94C1210C943F22EB
:1003D0000C9492040C94F7240C943D290C94EE2375
:1003E0000C9469220C94B2050C945B1C0C94A8220A
:1003F0000C945D1C0C94EA110C9457120C943B2F36
:100400000C94AC210C945D060C94BD220C94192123
:100410000C948C040C9482210C9439290C9446126F
:100420000C9453290C941E120C9473120C94BB1F41
:100430000C947E220C943B290C94762F0C94E7119B
:100440000C948E270C9401120C941B240C94FA0526
:100450000C94A0050C94E8050C947A040C943906CD
:100460000C94BB050C94A7040C942E210C94F1055C
:100470000C949B040C9427060C94EB210C945A1BAF
:100480000C946B040C944C2F0C9422250C94671F35
:100490000C9474040C94412F0C94F6240C94B71211
:1004A0000C948F040C94FE1E0C94901B0C947D04F1
:1004B0000C94D01F0C94D8110C9493220C94A72E5A
:1004C0000C9427240C94AA040C947E1B0C94860490
:1004D0000C9406250C94E2120C940F200C947524B5
:1004E0000C94B7200C94562F0C9477040C94372955
:1004F0000C9498040C94642F0C9454220C946E0465
:100500000C9403240C9458210C9441290C9400223F
:100510000C942A220C941E060C9489040C94722FBD
:100520000C9471040C94C3110C94D6210C94832464
:100530000C9468120C94602F0C9430240C94522F5D
:100540000C9478200C944B060C9443210C94281F97
:100550000C94551C0C941A250C94D6050C9454122A
:100560000C9412240C945F1C0C9439200C949E045F
:100570000C94C4050C9443290C94691C0C946512CA
:100580000C940F240C94442F0C9424240C942124B8
:100590000C94F4230C94611C0C9418120C943C15CC
:1005A0000C947C1F0C94911F0C941E240C94822597
:1005B0000C94671C0C9497050C94D2140C94DF05D2
:1005C0000C94EB230C9463200C94001B0C94241BC0
:1005D0000C9497210C947B2F0C94A2200C94F12363
:1005E0000C94E51F0C9465040C942D240C94CD29D7
:1005F0000C94E5230C948A120C94121B0C94522533
:100600000C945C120C94651C0C9466060C94FA1FF6
:100610000C943F290C94A9050C94332F0C949C1234
:100620000C944B310C9482120C94A61F0C94521F04
:1006300000407A10F35A00A0724E18090010A5D499
:10064000E80000E87648170000E40B54020000CAF6
:100650009A3B000000E1F50500008096980000003C
:1006600040420F000000A08601000000102700009B
:100670000000E803000000006400000000000A0021
:10068000000000000100000000002C76D888DC6724
:100690004F0823DFC1DFAE59E1B1B796E5E3E4537C
:1006A000C63AE651997696E8E6C28426EB898C9B99
:1006B00062ED407C6FFCEFBC9C9F40F2BAA56FA539
:1006C000F490055A2AF75C936B6CF9676DC11BFCBB
:1006D000E0E40D47FEF520E6B500D0ED902E0300D6
:1006E000943577050080841E080000204E0A000023
:1006F00000C80C333333330F986E12831141EF8DE2
:100700002114893BE65516CFFEE6DB18D1844B3821
:100710001BF77C1D901DA4BBE424203284725E2252
:100720008100C9F124ECA1E53D2700030205000387
:100730000501040602041F1C1F1E1F1E1F1F1E1F73
:100740001E1F00002200250028002B002E00310073
:10075000340002010000050108010B010000210026
:10076000240027002A002D00300033000101000082
:10077000040107010A010505050507050808080821
:10078000020202020A0A0808040404040101010129
:100790000101010103030303030303030407070724
:1007A0000C0C0C0C0C0C0C0C0202020206060606C9
:1007B000060606060B0B0B0B0B0B0B0B0102102096
:1007C0002008081020401020408002010201080487
:1007D000020101020408102040808040201008041B
:1007E0000201800402018040201008040201080474
:1007F00002010102040810204080010204081020B8
:10080000408000000A0B02090C0D0E0807030401CA
:1008100000000000000000000000000000000000D8
:1008200000000000000000000000000000001211A5
:1008300010000000000000000000000000000000A8
:1008400000000000000000004B31CB3611241FBE19
:10085000CFEFD1E2DEBFCDBF00E00CBF2AE0A4E1C4
:10086000B6E001C01D92A237B207E1F716E0A0E0A2
:10087000B2E0E8E5F1E800E00BBF02C007900D929E
:10088000A431B107D9F714E0C5E2D4E000E006C016
:1008900021970109802FFE010E94753BC432D107C8
:1008A00080E00807A9F70E94D4310C949A400C9478
:1008B0000000FC013197E831F10508F04DC08827B0
:1008C000EE58FF4F8F4F0C94753B87E190E00895F1
:1008D00088E190E0089589E190E008958AE190E050
:1008E00008958BE190E008958CE190E008958DE10A
:1008F00090E008958EE190E008958FE190E00895F2
:1009000080E290E0089581E290E0089582E290E034
:10091000089583E290E0089584E290E0089585E2EE
:1009200090E0089586E290E0089587E290E00895CF
:1009300088E290E0089589E290E008958AE290E0EC
:1009400008958BE290E008958CE290E008958DE2A6
:1009500090E0089586E190E00895AF92BF92CF9223
:10096000DF92EF92FF920F931F93CF93DF935C017F
:100970006A017B01E9010E945904182F092F8FEDAC
:1009800097E00E94972760E083E00E94E91369E105
:1009900074E08FED97E00E9449312AE0B701A6018B
:1009A0008FED97E00E94C33061EC72E08FED97E02D
:1009B0000E94493161E082E00E94E91360E08FED1E
:1009C00097E00E948E276AEC72E08FED97E00E941C
:1009D0004931C5010E94DA1365EC72E08FED97E0B2
:1009E0000E944931812F902F0E94DA1360E0812FFD
:1009F0000E94122FC701B6010E948F2F61E0812F44
:100A00000E94122FBE0180E090E00E948F2F8FED98
:100A100097E00E949727DF91CF911F910F91FF9050
:100A2000EF90DF90CF90BF90AF900895409117085E
:100A3000509118086091190870911A089C0180E182
:100A400090E00C94AD0440911B0850911C086091FB
:100A50001D0870911E089C018FE090E00C94AD047D
:100A60004091230850912408609125087091260830
:100A70009C018DE090E00C94AD04409127085091CA
:100A800028086091290870912A089C018CE090E068
:100A90000C94AD0440912B0850912C0860912D08C6
:100AA00070912E089C018BE090E00C94AD04409175
:100AB0003B0850913C0860913D0870913E089C01B4
:100AC00087E090E00C94AD0440913F0850914008BD
:100AD00060914108709142089C0186E090E00C947E
:100AE000AD044091430850914408609145087091CD
:100AF00046089C0185E090E00C94AD0440914708C5
:100B0000509148086091490870914A089C0184E01E
:100B100090E00C94AD04FC013197E831F10508F048
:100B2000DEC08827E657FF4F8F4F0C94753B6091CE
:100B30005308709154088091550890915608089573
:100B400060914F087091500880915108909152081F
:100B5000089560914B0870914C0880914D089091D8
:100B60004E0808956091470870914808809149089F
:100B700090914A08089560914308709144088091CB
:100B8000450890914608089560913F08709140088B
:100B90008091410890914208089560913B087091BE
:100BA0003C0880913D0890913E0808956091370877
:100BB000709138088091390890913A0808956091B1
:100BC0003308709134088091350890913608089563
:100BD00060912F087091300880913108909132080F
:100BE000089560912B0870912C0880912D089091A8
:100BF0002E0808956091270870912808809129088F
:100C000090912A080895609123087091240880919A
:100C1000250890912608089560911F08709120087A
:100C20008091210890912208089560911B0870918D
:100C30001C0880911D0890911E0808956091170866
:100C4000709118088091190890911A080895609180
:100C50001308709114088091150890911608089552
:100C600060910F08709110088091110890911208FE
:100C7000089560910B0870910C0880910D08909177
:100C80000E0808956091070870910808809109087E
:100C900090910A080895609103087091040880916A
:100CA00005089091060808956091FF07709100086B
:100CB000809101089091020808956091FB0770915E
:100CC000FC078091FD079091FE0708956091F7075A
:100CD0007091F8078091F9079091FA07089564E6FA
:100CE00070E080E090E008952F923F924F925F92E3
:100CF0006F927F928F929F92AF92BF92CF92DF922C
:100D0000EF92FF920F931F93CF93DF93CDB7DEB790
:100D1000AC970FB6F894DEBF0FBECDBF2C013B01E0
:100D20001A013A832983BC82AB829CA68BA60E94BF
:100D300059048F83C3010E9459048887C1010E940E
:100D40005904898789819A810E9459048A87C80138
:100D50000E9459048B87C7010E9459048C87C601E1
:100D60000E9459048D87C5010E9459048E87C201D3
:100D70000E948B056F87788B898B9A8BC3010E94A9
:100D80008B056B8B7C8B8D8B9E8BC1010E948B05A1
:100D90006F8B788F898F9A8F89819A810E948B05BA
:100DA0006B8F7C8F8D8F9E8FC8010E948B056F8FFC
:100DB00078A389A39AA3C7010E948B056BA37CA388
:100DC0008DA39EA3C6010E948B056FA378A789A758
:100DD0009AA7C5010E948B054B015C018FED97E03E
:100DE0000E94972760E083E00E94E91360E08FEDA6
:100DF00097E00E948E276CEC72E08FED97E00E94E6
:100E0000493161E080E00E94E913C2010E94DA13D7
:100E10006AEC72E08FED97E00E944931C3010E94B5
:100E2000DA136AEC72E08FED97E00E944931C1015C
:100E30000E94DA136AEC72E08FED97E00E9449316C
:100E400089819A810E94DA136AEC72E08FED97E053
:100E50000E944931C8010E94DA136AEC72E08FEDFA
:100E600097E00E944931C7010E94DA136AEC72E0F0
:100E70008FED97E00E944931C6010E94DA136AECB7
:100E800072E08FED97E00E9449318B819C810E9436
:100E9000DA1360E08F810E94122F60E088850E9443
:100EA000122F60E089850E94122F60E08A850E94DF
:100EB000122F60E08B850E94122F60E08C850E94CB
:100EC000122F60E08D850E94122F60E08E850E94B7
:100ED000122F0E94C92F6B017C0160930402709352
:100EE0000502809306029093070221E02E8331E0F1
:100EF0003D832B833324339422242394398301E0CC
:100F000011E00E94C92F6093000270930102809348
:100F10000202909303022B013C014C185D086E08FD
:100F20007F088F859889A989BA89481659066A0663
:100F30007B0628F061E08F810E94122F10E08B89E0
:100F40009C89AD89BE89481659066A067B0628F039
:100F500061E088850E94122F00E08F89988DA98D0D
:100F6000BA8D481659066A067B0628F061E0898525
:100F70000E94122F19828B8D9C8DAD8DBE8D4816CF
:100F800059066A067B0628F061E08A850E94122FC6
:100F9000212C8F8D98A1A9A1BAA1481659066A06DD
:100FA0007B0628F061E08B850E94122F312C8BA1EB
:100FB0009CA1ADA1BEA1481659066A067B0628F081
:100FC00061E08C850E94122F1B828FA198A5A9A594
:100FD000BAA5481659066A067B0628F061E08D8599
:100FE0000E94122F1D82481459046A047B0428F0C1
:100FF00061E08E850E94122F1E82111182CF011195
:1010000080CF298121117DCF21107BCF311079CF65
:101010003B81311176CF2D81211173CF3E8131116A
:1010200070CF2BA53CA5B90180E090E0AC960FB63F
:10103000F894DEBF0FBECDBFDF91CF911F910F910E
:10104000FF90EF90DF90CF90BF90AF909F908F90E8
:101050007F906F905F904F903F902F900C948F2FC8
:101060002F923F924F925F926F927F928F929F92B8
:10107000AF92BF92CF92DF92EF92FF920F931F93A6
:10108000CF93DF93CDB7DEB7A6970FB6F894DEBF48
:101090000FBECDBF3C014B011A012901BEA2ADA27A
:1010A0000E9459048A83C4010E9459048B83C101A0
:1010B0000E9459048C83C2010E9459048D83C80187
:1010C0000E9459048E83C7010E9459048F83C60170
:1010D0000E9459048887C3010E948B0569877A871B
:1010E0008B879C87C4010E948B056D877E878F87C5
:1010F000988BC1010E948B05698B7A8B8B8B9C8BA3
:10110000C2010E948B056D8B7E8B8F8B988FC801DF
:101110000E948B05698F7A8F8B8F9C8FC7010E94ED
:101120008B056D8F7E8F8F8F98A3C6010E948B05D4
:1011300069A37AA38BA39CA38FED97E00E949727C6
:1011400060E083E00E94E91360E08FED97E00E9489
:101150008E2764ED72E08FED97E00E94493161E0E7
:1011600080E00E94E913C3010E94DA136AEC72E086
:101170008FED97E00E944931C4010E94DA136AECB6
:1011800072E08FED97E00E944931C1010E94DA13AD
:101190006AEC72E08FED97E00E944931C2010E9433
:1011A000DA136AEC72E08FED97E00E944931C801D2
:1011B0000E94DA136AEC72E08FED97E00E944931E9
:1011C000C7010E94DA136AEC72E08FED97E00E948B
:1011D0004931C6010E94DA1360E08A810E94122F11
:1011E00060E08B810E94122F60E08C810E94122FA0
:1011F00060E08D810E94122F60E08E810E94122F8C
:1012000060E08F810E94122F60E088850E94122F7B
:101210000E94C92F4B015C01609304027093050288
:101220008093060290930702FF24F39422242394D0
:101230003324339401E011E0DD24D394EE24E394CD
:101240000E94C92F609300027093010280930202F2
:10125000909303022B013C01481859086A087B0847
:1012600089859A85AB85BC85481659066A067B0632
:1012700028F061E08A810E94122FE12C8D859E85E5
:10128000AF85B889481659066A067B0628F061E0E2
:101290008B810E94122FD12C89899A89AB89BC89B4
:1012A000481659066A067B0628F061E08C810E9488
:1012B000122F10E08D899E89AF89B88D4816590686
:1012C0006A067B0628F061E08D810E94122F00E003
:1012D000898D9A8DAB8DBC8D481659066A067B06A2
:1012E00028F061E08E810E94122F312C8D8D9E8D11
:1012F000AF8DB8A1481659066A067B0628F061E052
:101300008F810E94122F212C89A19AA1ABA1BCA18F
:10131000481659066A067B0628F061E088850E9417
:10132000122FF12CE1108CCFD1108ACF111188CF60
:10133000011186CF311084CF211082CFF11080CFE0
:101340002DA13EA1B90180E090E0A6960FB6F894D9
:10135000DEBF0FBECDBFDF91CF911F910F91FF90E8
:10136000EF90DF90CF90BF90AF909F908F907F9045
:101370006F905F904F903F902F900C948F2F2F92F3
:101380003F924F925F926F927F928F929F92AF9215
:10139000BF92CF92DF92EF92FF920F931F93CF9362
:1013A000DF93CDB7DEB76F970FB6F894DEBF0FBEF1
:1013B000CDBF3C014B015A013F8F2E8FDC8ECB8E6F
:1013C0000E9459048983C4010E9459048A83C5017B
:1013D0000E9459048B838E8D9F8D0E9459048C83AB
:1013E000C8010E9459048D83C7010E9459048E834D
:1013F000C3010E948B056F83788789879A87C40110
:101400000E948B056B877C878D879E87C5010E9414
:101410008B056F87788B898B9A8B8E8D9F8D0E9421
:101420008B056B8B7C8B8D8B9E8BC8010E948B05F3
:101430006F8B788F898F9A8FC7010E948B051B0154
:101440002C018FED97E00E94972760E083E00E94D7
:10145000E91360E08FED97E00E948E276CED72E05B
:101460008FED97E00E94493161E080E00E94E9132E
:10147000C3010E94DA136AEC72E08FED97E00E94DC
:101480004931C4010E94DA136AEC72E08FED97E0F3
:101490000E944931C5010E94DA136AEC72E08FEDB7
:1014A00097E00E9449318E8D9F8D0E94DA136AEC7D
:1014B00072E08FED97E00E944931C8010E94DA1373
:1014C0006AEC72E08FED97E00E944931C7010E94FB
:1014D000DA1360E089810E94122F60E08A810E9405
:1014E000122F60E08B810E94122F60E08C810E949D
:1014F000122F60E08D810E94122F60E08E810E9489
:10150000122F0E94C92F6B017C016093040270931B
:101510000502809306029093070266246394772461
:10152000739401E021E02E8F11E031E03D8F0E94A5
:10153000C92F60930002709301028093020290937E
:1015400003024B015C018C189D08AE08BF088F8117
:101550009885A985BA8588169906AA06BB0628F03B
:1015600061E089810E94122F1D8E8B859C85AD853F
:10157000BE8588169906AA06BB0628F061E08A8116
:101580000E94122F10E08F859889A989BA89881640
:101590009906AA06BB0628F061E08B810E94122FF3
:1015A0001E8E8B899C89AD89BE8988169906AA06EC
:1015B000BB0628F061E08C810E94122F00E08F8929
:1015C000988DA98DBA8D88169906AA06BB0628F0B3
:1015D00061E08D810E94122F712C82149304A40467
:1015E000B50428F061E08E810E94122F612C2D8DB0
:1015F00021119DCF11119BCF3E8D311198CF01113B
:1016000096CF711094CF611092CF2B8D3C8DB90184
:1016100080E090E06F960FB6F894DEBF0FBECDBFAE
:10162000DF91CF911F910F91FF90EF90DF90CF90BE
:10163000BF90AF909F908F907F906F905F904F90F2
:101640003F902F900C948F2F2F923F924F925F924A
:101650006F927F928F929F92AF92BF92CF92DF92C2
:10166000EF92FF920F931F93CF93DF93CDB7DEB727
:1016700068970FB6F894DEBF0FBECDBF4C016B016B
:101680001A015901FF8AEE8A0E9459048983C60112
:101690000E9459048A83C1010E9459048B83C501A9
:1016A0000E9459048C83C8010E9459048D83C4018F
:1016B0000E948B056E837F8388879987C6010E946D
:1016C0008B056A877B878C879D87C1010E948B056C
:1016D0006E877F87888B998BC5010E948B056A8BEB
:1016E0007B8B8C8B9D8BC8010E948B052B013C0151
:1016F0008FED97E00E94972760E083E00E94E91356
:1017000060E08FED97E00E948E2764EE72E08FED2F
:1017100097E00E94493161E080E00E94E913C40132
:101720000E94DA136AEC72E08FED97E00E94493173
:10173000C6010E94DA136AEC72E08FED97E00E9416
:101740004931C1010E94DA136AEC72E08FED97E033
:101750000E944931C5010E94DA136AEC72E08FEDF4
:1017600097E00E944931C8010E94DA1360E0898144
:101770000E94122F60E08A810E94122F60E08B810C
:101780000E94122F60E08C810E94122F60E08D81F8
:101790000E94122F0E94C92F4B015C01609304022A
:1017A00070930502809306029093070233243394CA
:1017B00001E011E021E0288F222423940E94C92F08
:1017C00060930002709301028093020290930302DF
:1017D0006B017C01C818D908EA08FB088E819F813B
:1017E000A885B985C816D906EA06FB0628F061E087
:1017F00089810E94122F212C8A859B85AC85BD850D
:10180000C816D906EA06FB0628F061E08A810E9424
:10181000122F188E8E859F85A889B989C816D9067A
:10182000EA06FB0628F061E08B810E94122F10E08F
:101830008A899B89AC89BD89C816D906EA06FB0648
:1018400028F061E08C810E94122F00E0C414D504BE
:10185000E604F70428F061E08D810E94122F312CFC
:101860002110ACCF288D2111A9CF1111A7CF0111C3
:10187000A5CF3110A3CF2E893F89B90180E090E038
:1018800068960FB6F894DEBF0FBECDBFDF91CF9143
:101890001F910F91FF90EF90DF90CF90BF90AF908E
:1018A0009F908F907F906F905F904F903F902F9080
:1018B0000C948F2F2F923F924F925F926F927F9254
:1018C0008F929F92AF92BF92CF92DF92EF92FF9250
:1018D0000F931F93CF93DF93CDB7DEB762970FB609
:1018E000F894DEBF0FBECDBF5C016B017A014901E8
:1018F000188B0F870E945904282EC6010E94590494
:10190000382EC7010E945904082FC4010E945904AF
:10191000182FC5010E948B056B837C838D839E836A
:10192000C6010E948B056F83788789879A87C701D4
:101930000E948B052B013C01C4010E948B056B8723
:101940007C878D879E878FED97E00E94972760E0C8
:1019500083E00E94E91360E08FED97E00E948E27FC
:101960006CEE72E08FED97E00E94493161E080E01B
:101970000E94E913C5010E94DA136AEC72E08FED50
:1019800097E00E944931C6010E94DA136AEC72E0C6
:101990008FED97E00E944931C7010E94DA136AEC8B
:1019A00072E08FED97E00E944931C4010E94DA1382
:1019B00060E0822D0E94122F60E0832D0E94122F82
:1019C00060E0802F0E94122F60E0812F0E94122F72
:1019D0000E94C92F6B017C01609304027093050281
:1019E000809306029093070221E0298331E03A8B2D
:1019F000298B3A830E94C92F6093000270930102E1
:101A000080930202909303024B015C018C189D08A5
:101A1000AE08BF088B819C81AD81BE818816990676
:101A2000AA06BB0628F061E0822D0E94122F1A82BE
:101A30008F819885A985BA8588169906AA06BB065E
:101A400028F061E0832D0E94122F198A84149504D6
:101A5000A604B70428F061E0802F0E94122F1A8A92
:101A60008B859C85AD85BE8588169906AA06BB0622
:101A700028F061E0812F0E94122F19822A81211102
:101A8000B9CF39893111B6CF2A892111B3CF398124
:101A90003111B0CF2F853889B90180E090E062968E
:101AA0000FB6F894DEBF0FBECDBFDF91CF911F916F
:101AB0000F91FF90EF90DF90CF90BF90AF909F90ED
:101AC0008F907F906F905F904F903F902F900C94ED
:101AD0008F2F2F923F924F925F926F927F928F92B1
:101AE0009F92AF92BF92CF92DF92EF92FF920F93AD
:101AF0001F93CF93DF93CDB7DEB72C970FB6F89433
:101B0000DEBF0FBECDBF7C016B015A013A8729872A
:101B10000E945904382EC6010E945904082FC5019D
:101B20000E945904182FC7010E948B0569837A838C
:101B30008B839C83C6010E948B052B013C01C50150
:101B40000E948B056D837E838F8398878FED97E04E
:101B50000E94972760E083E00E94E91360E08FED28
:101B600097E00E948E2764EF72E08FED97E00E946D
:101B7000493161E080E00E94E913C7010E94DA1355
:101B80006AEC72E08FED97E00E944931C6010E9435
:101B9000DA136AEC72E08FED97E00E944931C501DB
:101BA0000E94DA1360E0832D0E94122F60E0802FE4
:101BB0000E94122F60E0812F0E94122F0E94C92FD5
:101BC0006B017C016093040270930502809306020E
:101BD000909307022224239421E02B8731E03C8755
:101BE0000E94C92F60930002709301028093020249
:101BF000909303024B015C018C189D08AE08BF084E
:101C000089819A81AB81BC8188169906AA06BB0698
:101C100028F061E0832D0E94122F1C868414950405
:101C2000A604B70428F061E0802F0E94122F1B86C3
:101C30008D819E81AF81B88588169906AA06BB065C
:101C400028F061E0812F0E94122F212C2C85211178
:101C5000C7CF3B853111C4CF2110C2CF29853A852A
:101C6000B90180E090E02C960FB6F894DEBF0FBE6D
:101C7000CDBFDF91CF911F910F91FF90EF90DF903B
:101C8000CF90BF90AF909F908F907F906F905F901C
:101C90004F903F902F900C948F2F2F923F924F9206
:101CA0005F926F927F928F929F92AF92BF92CF92EC
:101CB000DF92EF92FF920F931F93CF93DF9300D0A9
:101CC00000D0CDB7DEB77C018B015E834D830E94CF
:101CD0005904382EC8010E945904282EC7010E94B9
:101CE0008B0569837A838B839C83C8010E948B0553
:101CF0004B015C018FED97E00E94972760E083E045
:101D00000E94E91360E08FED97E00E948E276CEF50
:101D100072E08FED97E00E94493161E080E00E941F
:101D2000E913C7010E94DA136AEC72E08FED97E0C5
:101D30000E944931C8010E94DA1360E0832D0E949D
:101D4000122F60E0822D0E94122F0E94C92F6B017A
:101D50007C016093040270930502809306029093C5
:101D6000070211E001E00E94C92F60930002709306
:101D7000010280930202909303022B013C014C1854
:101D80005D086E087F0889819A81AB81BC81481605
:101D900059066A067B0668F061E0832D0E94122FC7
:101DA000481459046A047B0450F41123A1F000E0A4
:101DB000DACF481459046A047B0450F001C000E0F3
:101DC00061E0822D0E94122F002329F010E0CBCF7A
:101DD000002359F3C8CF2D813E81B90180E090E006
:101DE00026960FB6F894DEBF0FBECDBFDF91CF9120
:101DF0001F910F91FF90EF90DF90CF90BF90AF9029
:101E00009F908F907F906F905F904F903F902F901A
:101E10000C948F2F8F929F92AF92BF92EF92FF926E
:101E20000F931F93CF93DF937C01EB010E94590422
:101E3000182F092FC7010E948B054B015C018FED04
:101E400097E00E94972760E083E00E94E91369E130
:101E500074E08FED97E00E9449312AE0B501A401BA
:101E60008FED97E00E94C33061EC72E08FED97E058
:101E70000E94493161E082E00E94E91360E08FED49
:101E800097E00E948E276AEC72E08FED97E00E9447
:101E90004931C7010E94DA1365EC72E08FED97E0DB
:101EA0000E944931812F902F0E94DA1360E0812F28
:101EB0000E94122FC501B4010E948F2F61E0812F73
:101EC0000E94122FBE0180E090E00E948F2F8FEDC4
:101ED00097E00E949727DF91CF911F910F91FF907C
:101EE000EF90BF90AF909F908F900895DC01A05D20
:101EF000B74050E0E6E3F7E021E02E1B322F3E0F23
:101F0000361728F43491430F511D3196F7CF6230C4
:101F100029F49D0123703327232BB9F02DE631E0FE
:101F2000A29FB001A39F700DB29F700D11249C0160
:101F30002D5C37403695279536952795CB01820F36
:101F4000931F0197840F951F08954F5F5F4FE6CF52
:101F500090E0FC01E454F84F2491FC01EA58F84F5A
:101F60008491882399F090E0880F991FFC01E45A2E
:101F7000F84FA591B491FC01EE5BF84F85919491D7
:101F80008FB7F894EC91E22BEC938FBF0895EF920A
:101F9000FF920F931F93CF93DF93EC01623018F001
:101FA0008F8588608F876B8B1C8A80E48D8B80E1A6
:101FB0008E8B80E58F8B8C810E94A80F8D818F3F47
:101FC00011F00E94A80F8E810E94A80F7E0187E069
:101FD000E80EF11C00E010E08F8584FD03C084E072
:101FE00090E002C088E090E00817190744F4F70178
:101FF00081917F010E94A80F0F5F1F4FEDCF8BE3F0
:102000009DE00197F1F760E08C810E94122F60E063
:102010008E810E94122F8D818F3F19F060E00E9407
:10202000122F6F8564FD1DC063E0CE010E940E2754
:102030000BE416E4C8010197F1F763E0CE010E94BA
:102040000E27C8010197F1F763E0CE010E940E2729
:1020500083E592E00197F1F762E0CE010E940E273E
:1020600016C06062CE010E9494278BE496E401972B
:10207000F1F76F856062CE010E94942783E592E0BC
:102080000197F1F76F856062CE010E9494276F85FA
:102090006062CE010E94942784E0888B6CE0CE01C0
:1020A0000E949427CE010E94972782E0898B66E0E8
:1020B000CE01DF91CF911F910F91FF90EF900C9483
:1020C000942790916A069111FCCF813208F080E24A
:1020D00091E090936A06909369062FEF209368062B
:1020E00010926706280F20936606909365069091DC
:1020F0006506906D9093650690916406913061F449
:1021000010926406909165069093BB009091BC007C
:1021100093FDF8CF95EC01C095EE9093BC009091A3
:102120006A069130E1F390916706981710F4809158
:102130006706A4E4B6E02DE636E0F9019E2F921B77
:10214000981718F49D919193F9CF10926C06809393
:102150006B0608952091430690914206213208F0C3
:102160004AC080916A068111FCCF32E030936A0642
:1021700031E0309369063FEF3093680610926706AE
:1021800020936606A2E2B6E044E456E0FA013E2F50
:10219000341B321718F43D913193F9CF1092650634
:1021A00020916506990F922B909365069091640695
:1021B000913061F410926406909165069093BB0093
:1021C0009091BC0093FDF8CF95EC01C095EE9093F3
:1021D000BC0090916A069230E1F3909168069F3FAF
:1021E00079F080916806803241F0809168068033F2
:1021F00031F084E005C081E003C082E001C083E0EB
:102200001092210610924306109220060895682F1E
:1022100087EC97E00C9452252F923F924F925F9259
:102220006F927F928F929F92AF92BF92CF92DF92E6
:10223000EF92FF920F931F93CF93DF93CDB7DEB74B
:10224000C052D1400FB6F894DEBF0FBECDBFF82FFD
:10225000E92FC55FDE4FC882CB50D140C45FDE4F4F
:10226000D882CC50D140C05FDE4F1883C051D140DE
:10227000CF5EDE4F2883C151D140CD5EDE4F488313
:10228000C351D140CC5EDE4F5883C451D140CB5EA8
:10229000DE4F6883C551D140CA5EDE4F7883C65198
:1022A000D140C55FDE4FA880B980CB50D1401E2DF4
:1022B0001982632E712CC301079667E070E00E94BB
:1022C0003F3BE82EC25EDE4F9883CE51D1408F2D2A
:1022D0006AE00E941F3BC95EDE4F9883C751D14020
:1022E0008F2E9E2E6E01D394250143E04422552467
:1022F000812F90E0DC01AB5CB84FC15EDE4FB9834B
:10230000A883CF51D1402FEF210FC85EDE4F288325
:10231000C851D140822F90E0880F991FAC01455BD6
:102320005D4FC65EDE4F59834883CA51D14031505C
:10233000C75EDE4F3883C951D140832F90E0880FAC
:10234000991F9C012D593D4FC45EDE4F3983288370
:10235000CC51D140B401D401ED914D01EE2309F4EB
:102360003AC18E2FEE0F990BAA0BBB0BFC01E15467
:10237000F109EA33F10508F025C18827EE55FF4F32
:102380008F4F0C94753B1F92FF92DDC01F92FF92FE
:10239000B6C0C75EDE4F3881C951D140373008F032
:1023A0005DC0C45EDE4FA881B981CC51D14053C01D
:1023B000C75EDE4F2881C951D140273008F061C087
:1023C000C45EDE4FA881B981CC51D14057C07F9205
:1023D0006F9295C0C25EDE4F2881CE51D1402F93BF
:1023E000EF928DC041E061E0C5010E94760F1C01B3
:1023F0004F2D612FC5010E94760F821993099F937B
:102400007DC0C95EDE4F3881C751D140313039F0CF
:10241000323041F0333049F062E173E082C06CE564
:1024200073E07FC06CE073E07CC06FE073E079C064
:102430001F921F9388C01F921F9361C0C85EDE4F1A
:102440002881C851D1402C3048F4C65EDE4FA881A7
:10245000B981CA51D1406D917C9163C064E073E051
:1024600060C0C85EDE4F2881C851D1402C3048F48E
:10247000C65EDE4FA881B981CA51D1406D917C9171
:1024800002C064E073E043E050E09EC0C15EDE4FF6
:10249000E881F981CF51D1408491123071F5411416
:1024A000510409F496C029C0BF92AF9228C0C5015B
:1024B000805D97409F9346C081E041145104E9F04C
:1024C00080E01BC01F920F933EC01F920F9317C056
:1024D000002329F00D3028F084EF800F32C08CE00B
:1024E00030C0802F2EC0002329F00D3028F084EF5B
:1024F000800F03C08CE001C0802F1F928F9386E273
:1025000093E023C00C3018F068E173E00AC065E185
:1025100073E007C00C3018F06BE173E002C06EE1AD
:1025200073E0CE0101960E94A13D14CFC05FDE4F43
:102530008881C051D14005C0CF5EDE4F8881C15136
:10254000D1401F928F9381E293E09F938F93DF920C
:10255000CF920E94C33DB601CE0101960E94A13DDB
:102560000F900F900F900F900F900F90F3CECA5EC8
:10257000DE4F8881C651D1408F93CB5EDE4F88817C
:10258000C551D1408F93CC5EDE4F8881C451D1407C
:102590008F93CD5EDE4F8881C351D1408F9389E206
:1025A00093E09F938F93DF92CF920E94C33DB60139
:1025B000CE0101960E94A13D0FB6F894DEBF0FBE7A
:1025C000CDBFC8CE41E050E0CE0101960E94B33DA0
:1025D000C1CE8F5F92CFCE010196C05EDE4F0FB6A7
:1025E000F894DEBF0FBECDBFDF91CF911F910F9149
:1025F000FF90EF90DF90CF90BF90AF909F908F9023
:102600007F906F905F904F903F902F900895CF9262
:10261000DF92EF92FF920F931F93CF93DF93CDB78B
:10262000DEB72E970FB6F894DEBF0FBECDBF8C017C
:1026300081E08093200688E680934206109221066E
:102640001092430680E090E00E9407110E94AA10B9
:1026500087E090E00E94611090916B0680916C067B
:102660009817F1F37E018FE0E80EF11CFE01319620
:102670006F0187EC97E00E940625282F82958F70C6
:102680002F70FAE08F9F200D112430E0F701329374
:1026900022937F01EC15FD0561F70E94AA10898144
:1026A0009A818053984F90931506809314066B81FE
:1026B000609316064D81409317062F8120931B06C9
:1026C000D984D0921806EB84E0921906FD84F0922A
:1026D0001A060E94760F9C01A8E1B0E00E949E3A83
:1026E0009B01AC012D0D311D411D511DACE3B0E02E
:1026F0000E94933A9B01AC012E0D311D411D511DCD
:102700000E94933ADC01CB018F0D911DA11DB11DDB
:1027100080599A4CA249B74C80931C0690931D0691
:10272000A0931E06B0931F068CE0E4E1F6E0D8010A
:1027300001900D928A95E1F7C8012E960FB6F89494
:10274000DEBF0FBECDBFDF91CF911F910F91FF90E4
:10275000EF90DF90CF900895EF92FF920F931F9329
:10276000CF93DF931F92CDB7DEB7162F877028E087
:10277000829FC0011124682F60648FED97E07983F8
:102780000E949427E12E7981F72E8701085F1F4F61
:10279000F70161917F018FED97E00E948E27E0168F
:1027A000F106B1F70F90DF91CF911F910F91FF903C
:1027B000EF900895AC01990F660B770B77FF04C07B
:1027C0008FED97E00C940C312AE08FED97E00C949C
:1027D000C330643008F063E09091F207691710F09D
:1027E0006FEF690FE62FF0E0E152F84F9489682F00
:1027F000690F60688FED97E00C949427AF92BF92B9
:10280000CF92DF92EF92FF920F931F93CF93DF93BC
:102810001F92CDB7DEB75C01162FF42E81E08093B6
:10282000200688E680934206109221061092430605
:1028300080E090E029830E9407115AE0D52E8E2D6A
:102840006D2D0E941F3B692F30E1839F600D112485
:1028500087EC97E00E945225802F6D2D0E941F3B30
:10286000692F30E1839F600D112487EC97E00E946F
:1028700052252981822F6D2D0E941F3B692F20E157
:10288000829F600D112487EC97E00E94522581E021
:1028900090E0133010F080E090E06501C81AD90A8A
:1028A000E12FF0E0E75DF84FE49196012F0D311D27
:1028B000C6019695879596958795280F391FC6016D
:1028C00060E971E00E942B3B260F371FC60164E6CA
:1028D00070E00E942B3B261B370BC9018E0F911D08
:1028E00067E070E00E942B3B009709F487E00AE064
:1028F000602F0E941F3B692F87EC97E00E945225B2
:102900008F2D602F0E941F3B692F30E1839F600D48
:10291000112487EC97E00E945225812F602F0E949E
:102920001F3B692F20E1829F600D112487EC97E007
:102930000E94522580E38A0D602F0E941F3B692F61
:1029400030E1839F600D112487EC97E00E945225AF
:1029500080E090E00E9407110F90DF91CF911F91CE
:102960000F91FF90EF90DF90CF90BF90AF900C94BD
:10297000AA10FC01A089B1898C91A689B78982FD32
:102980000FC09C91818D8F5F8F73228D821749F0CC
:10299000218DDF01A20FB11D5D969C93818F08955B
:1029A0008C910895FC01538D448D252F30E0842FA8
:1029B00090E0821B930B541710F0CF960895019767
:1029C00008958DE896E00E94832421E0892B09F484
:1029D00020E0822F08958AE297E00E94832421E07C
:1029E000892B09F420E0822F0895EF92FF920F9334
:1029F0001F93CF93DF93EC0181E0888F9B8D8C8DAB
:102A0000981305C0E889F989808185FD24C0F62ED8
:102A10000B8D10E00F5F1F4F0F731127E02E8C8D71
:102A2000E8120CC00FB607FCFACFE889F98980815B
:102A300085FFF5CFCE010E949D25F1CF8B8DFE0144
:102A4000E80FF11DE35AFF4FF0820B8FEA89FB89F3
:102A50008081806207C0EE89FF896083E889F989F7
:102A600080818064808381E090E0DF91CF911F912D
:102A70000F91FF90EF900895CF93DF93EC01888D35
:102A80008823C9F0EA89FB89808185FD05C0A88972
:102A9000B9898C9186FD0FC00FB607FCF5CF8081F8
:102AA00085FFF2CFA889B9898C9185FFEDCFCE0142
:102AB0000E949D25E7CFDF91CF9108951F920F923D
:102AC0000FB60F9211240BB60F922F933F934F9393
:102AD0005F936F937F938F939F93AF93BF93EF9386
:102AE000FF938DE896E00E949D25FF91EF91BF91A5
:102AF000AF919F918F917F916F915F914F913F9196
:102B00002F910F900BBE0F900FBE0F901F90189536
:102B10001F920F920FB60F9211240BB60F922F93A4
:102B20003F934F935F936F937F938F939F93AF9355
:102B3000BF93EF93FF938DE896E00E94B914FF9145
:102B4000EF91BF91AF919F918F917F916F915F9125
:102B50004F913F912F910F900BBE0F900FBE0F9092
:102B60001F9018951F920F920FB60F9211240BB65B
:102B70000F922F933F934F935F936F937F938F9316
:102B80009F93AF93BF93EF93FF938AE297E00E94E6
:102B90009D25FF91EF91BF91AF919F918F917F9173
:102BA0006F915F914F913F912F910F900BBE0F90BE
:102BB0000FBE0F901F9018951F920F920FB60F9295
:102BC00011240BB60F922F933F934F935F936F9304
:102BD0007F938F939F93AF93BF93EF93FF938AE27B
:102BE00097E00E94B914FF91EF91BF91AF919F912F
:102BF0008F917F916F915F914F913F912F910F90A6
:102C00000BBE0F900FBE0F901F901895EEE7F8E0E7
:102C100011921192DF01AA53BF4F1D921C9289E0BD
:102C2000E634F807A9F70895DF92EF92FF920F9329
:102C30001F93CF93DF9300D01F92CDB7DEB7880FDD
:102C4000991F880F991F8E010F5F1F4F7C01E01A9B
:102C5000F10A34E0D32ED00EC701800F911F0E94DD
:102C60007D3AF80181938F01DE12F6CF69817A8176
:102C70008B819C810F900F900F900F90DF91CF91DF
:102C80001F910F91FF90EF90DF900895CF92DF9208
:102C9000EF92FF920F931F93CF93DF9300D01F9279
:102CA000CDB7DEB78C010E948B056B017C01C8019A
:102CB0000E9414166C157D058E059F05C1F0C98212
:102CC000DA82EB82FC82000F111F000F111FCE0170
:102CD00001967C0194E0D92EDE0CF70161917F0111
:102CE000C8010E94853A0F5F1F4FDE10F6CF0F908C
:102CF0000F900F900F90DF91CF911F910F91FF9048
:102D0000EF90DF90CF90089580917B00877F809334
:102D10007B0080E480937C0080917A0080648093C3
:102D20007A0080917A0086FDFCCF20917800809116
:102D3000790030E0382B233431058CF02D3D3105FE
:102D400084F02C3881E0380774F02A3592E0390796
:102D500064F081E0293633404CF080E0089585E04E
:102D6000089584E0089583E0089582E00895CF9265
:102D7000DF92EF92FF920F931F93CF93DF93C0E602
:102D8000D8E0CE010E9407138E8190E09093170A3D
:102D90008093160A8D8190E09093420280934102C5
:102DA0008C8190E09093150A8093140A8B8190E0B7
:102DB0009093190A8093180A8F8190E09093130AD8
:102DC0008093120A8A8190E090931B0A80931A0ADA
:102DD0008881998190931D0A80931C0AC090600895
:102DE000D0906108E0906208F09063080091640858
:102DF0001091650820916608309167084091680835
:102E00005091690860916A0870916B088AEE93E0AE
:102E10000E940C11BC0189ED97E0DF91CF911F91C9
:102E20000F91FF90EF90DF90CF900C945930AF92BC
:102E3000BF92CF92DF92EF92FF920F931F93CF93A7
:102E4000DF93CDB7DEB7A7970FB6F894DEBF0FBEFE
:102E5000CDBF80E698E00E9407138091650890E05E
:102E600020914102309142028217930709F4A5C0D4
:102E700090934202809341028FED97E00E94972742
:102E8000C0906008D0906108E0906208F0906308FC
:102E900000916408109165082091660830916708D8
:102EA000409168085091690860916A0870916B08B8
:102EB0008CEE93E00E940C11BC018FED97E00E9414
:102EC000493161E080E00E94E91366EF73E08FED25
:102ED00097E00E94493181E08093200688E6809344
:102EE0004206109221061092430681E190E00E9472
:102EF00007110E94AA1082E090E00E946110909158
:102F00006B0680916C069817F1F387EC97E00E94AE
:102F10000625182F87EC97E00E9406251BA21AA20F
:102F20001DA21CA21FA21EA2B12EA12CB501682BAE
:102F300086E0759567958A95E1F7072E000C880B5A
:102F4000990B0E94603920E030E040E85EE30E9487
:102F5000BF398E010F5F1F4F22E044E00E94D3363D
:102F6000BC01CE0182960E9459304EA15FA16AA198
:102F70007BA18FED97E00E94A72ECE0182960E9442
:102F80007A300E94B71661E08FE00E94E9138091C9
:102F9000120A9091130A0E94DA1380915708811146
:102FA0000CC08091120A9091130A069724F081E0D8
:102FB0008093400202C010924002909140028091A2
:102FC0005808992341F0811106C061E08CE00E940D
:102FD000E91362E007C0882349F061E08CE00E94B9
:102FE000E91366E08FED97E00E948E27A7960FB653
:102FF000F894DEBF0FBECDBFDF91CF911F910F912F
:10300000FF90EF90DF90CF90BF90AF900895CF9357
:103010000E94B7168091570881110CC08091120A46
:103020009091130A069724F081E08093400202C039
:10303000109240028091410290914202009709F063
:103040004EC08091110A8111D6C0C1E0C093110A0F
:103050001092100A10920F0A10920E0A8FED97E04C
:103060000E94972761E086E00E94E91361E08FEDFE
:1030700097E00E948E2761E088E00E94E91380912A
:10308000140A9091150A0E94DA136CEF73E08FED29
:1030900097E00E94493168EE73E080E090E00E9482
:1030A0008F2F8FED97E00E9497278091140A9091BF
:1030B000150A8130910571F4109257082091120A77
:1030C0003091130A263031051CF0C093400202C033
:1030D00010924002609141027091420281C08F3093
:1030E000910509F58091100A811185C01092110A8D
:1030F00081E08093100A10920F0A10920E0A8FED51
:1031000097E00E94972761E086E00E94E91361E062
:103110008FED97E00E948E2761E088E00E94E9131E
:103120006EEF73E047C08E31910509F580910F0A6B
:10313000811161C01092110A1092100A81E08093EF
:103140000F0A10920E0A8FED97E00E94972761E018
:1031500086E00E94E91361E08FED97E00E948E27E0
:1031600061E088E00E94E91362E074E023C08D977B
:1031700009F041C080910E0A81113DC01092110AE0
:103180001092100A10920F0A81E080930E0A8FEDC0
:1031900097E00E94972761E086E00E94E91361E0D2
:1031A0008FED97E00E948E2761E088E00E94E9138E
:1031B00066E074E08FED97E00E94493168EE73E0BD
:1031C00080E090E00E948F2F8FED97E00E9497277C
:1031D00060914102709142028091140A9091150A07
:1031E0000E94B31B8DE390E09093420280934102D2
:1031F000CF910C941717CF910895CF92DF92EF9251
:10320000FF9286E190E00E948B056B017C018FEDBF
:1032100097E00E94972760E082E00E94E91360E057
:103220008FED97E00E948E2760E084E00E94E91312
:103230006AE074E08FED97E00E94493168EE73E038
:1032400080E090E00E948F2F20ED37E0B701A601CB
:1032500086E190E00E94AD048FED97E00E949727F1
:1032600060E082E00E94E91360E08FED97E00E9449
:103270008E2760E084E00E94E9136AE074E08FED3D
:1032800097E00E94493160ED77E080E090E00E9495
:103290008F2F0E94B7168091410290914202892B94
:1032A00099F68FED97E00E949727FF90EF90DF90BF
:1032B000CF900C9407184F925F926F927F928F92EB
:1032C0009F92AF92BF92CF92DF92EF92FF920F93B5
:1032D0001F93CF93DF93E82F8FEF8E0F863408F084
:1032E00031C2883208F06CC180917E0890917F08CD
:1032F000892B11F00E94061680917E0890917F081C
:10330000892B11F00E940616109247091092460967
:1033100010927F0810927E08C8E4D9E058E0452E4C
:1033200066246394712C55245394FE01E85CF109E2
:10333000208131812115310591F4DF91CF911F91C9
:103340000F91FF90EF90DF90CF90BF90AF909F9044
:103350008F907F906F905F904F900C9406168880AE
:10336000998080916C0890916D088114910409F402
:10337000FEC0892BD1F4B401C9010E940A0F288133
:1033800039818091460990914709820F931F90934C
:1033900047098093460980917E0890917F080196A5
:1033A00090937F0880937E0804C190914402E92F96
:1033B000F0E0EE0FFF1FE459F74F31832083923086
:1033C00061F46091700870917108A40180916E0899
:1033D00090916F080E944D0EA6C0933081F44091E9
:1033E000720850917308609170087091710894018F
:1033F00080916E0890916F080E94690D94C094307E
:10340000A1F4209174083091750840917208509190
:1034100073086091700870917108840180916E0842
:1034200090916F080E945A0C7EC09530C1F40091B3
:1034300076081091770820917408309175084091B2
:10344000720850917308609170087091710874014E
:1034500080916E0890916F080E94240B64C0963092
:10346000E1F4E0907808F0907908009176081091E6
:103470007708209174083091750840917208509136
:1034800073086091700870917108640180916E08F2
:1034900090916F080E94BF0946C0973001F5C09017
:1034A0007A08D0907B08E0907808F0907908009135
:1034B0007608109177082091740830917508409132
:1034C00072085091730860917008709171085401EE
:1034D00080916E0890916F080E94300824C0983047
:1034E000B9F5A0907C08B0907D08C0907A08D09083
:1034F0007B08E0907808F0907908009176081091A8
:1035000077082091740830917508409172085091A5
:103510007308609170087091710880916E089091A5
:103520006F080E9474062881398180914609909124
:103530004709820F931F9093470980934609809112
:103540007E0890917F08019690937F0880937E0873
:103550005092440210926D0810926C08ECE6F8E06C
:103560001192119288E0EE37F807D1F722C0892B2B
:1035700021F470926D0860926C0890914402E92FDA
:10358000F0E0EE0FFF1FE459F74F3183208381E015
:10359000890F8093440220917E0830917F082F5F2D
:1035A0003F4F30937F0820937E08893010F040927F
:1035B000440222968AE0CE30D80709F0B6CEBDCEBE
:1035C0008E2F90E0FC01B997EA31F10508F0BAC0FE
:1035D0008827E452FF4F8F4F0C94753BDF91CF91BA
:1035E0001F910F91FF90EF90DF90CF90BF90AF9021
:1035F0009F908F907F906F905F904F900C94322EA1
:10360000DF91CF911F910F91FF90EF90DF90CF90BE
:10361000BF90AF909F908F907F906F905F904F90F2
:103620000C948C2DDF91CF911F910F91FF90EF9013
:10363000DF90CF90BF90AF909F908F907F906F90D2
:103640005F904F900C94442DDF91CF911F910F917B
:10365000FF90EF90DF90CF90BF90AF909F908F90B2
:103660007F906F905F904F900C94422CDF91CF91A0
:103670001F910F91FF90EF90DF90CF90BF90AF9090
:103680009F908F907F906F905F904F900C94262B1F
:10369000DF91CF911F910F91FF90EF90DF90CF902E
:1036A000BF90AF909F908F907F906F905F904F9062
:1036B0000C94722ADF91CF911F910F91FF90EF90A0
:1036C000DF90CF90BF90AF909F908F907F906F9042
:1036D0005F904F900C94622ADF91CF911F910F91D0
:1036E000FF90EF90DF90CF90BF90AF909F908F9022
:1036F0007F906F905F904F900C94222ADF91CF9132
:103700001F910F91FF90EF90DF90CF90BF90AF90FF
:103710009F908F907F906F905F904F900C940A2AAB
:10372000DF91CF911F910F91FF90EF90DF90CF909D
:10373000BF90AF909F908F907F906F905F904F90D1
:103740000C94FD18DF91CF911F910F91FF90EF9096
:10375000DF90CF90BF90AF909F908F907F906F90B1
:103760005F904F9008958F929F92AF92BF92EF9289
:10377000FF920F931F93CF93DF93EC01892B11F4EA
:10378000C8E1D0E08091410290914202892B49F03A
:1037900020914102309142022115310509F042C0C9
:1037A0006DC0FE01EF55FD4F8081882389F30E9493
:1037B0005B1968EE73E080E090E00E948F2F86E155
:1037C00090E00E948B054B015C017E01CD30D1055C
:1037D0001CF08CE0E81AF10800E010E00E151F055F
:1037E000BCF68FED97E00E94972761E087E00E948A
:1037F000E91365E08FED97E00E948E270F5F1F4F62
:10380000C8010E94DA1364EC79E080E090E00E9445
:103810008F2F24EC39E0B501A40186E190E00E94ED
:10382000AD04DCCFCE0101968931910514F081E021
:1038300090E0CF55DD4F4881442301F1FC01EF5565
:10384000FD4F80818823D1F02F30310511F48FE3B3
:1038500009C02E31310511F480E404C02D32310548
:1038600069F481E4DF91CF911F910F91FF90EF9068
:10387000BF90AF909F908F900C945B19DF91CF9188
:103880001F910F91FF90EF90BF90AF909F908F90FE
:10389000089590E0FC013D97EE30F105D0F48827C3
:1038A000EA50FF4F8F4F0C94753B0C94622A0C9496
:1038B000222A0C940A2A0C94322E0C948C2D0C94EF
:1038C000442D0C94422C0C94262B0C94722A0C94AC
:1038D000FD180895CF93DF9300D000D0CDB7DEB7A9
:1038E000BC01CE0101960E947F308FED97E00E94CF
:1038F00097278FED97E00E94972760E080E00E9475
:10390000E91361E08FED97E00E948E2760E082E08E
:103910000E94E9134D815E8169817A818FED97E084
:103920000E94A72E60E08EE00E94E91365E174E03A
:103930008FED97E00E944931CE0101960E947A30C6
:1039400026960FB6F894DEBF0FBECDBFDF91CF91A4
:103950000895CF92DF92EF92FF92CF93DF93EC0125
:103960006A017B018FED97E00E94972760E080E07D
:103970000E94E91360E08FED97E00E948E2760E0DF
:1039800082E00E94E913CE010E94DA1360E084E035
:103990000E94E91368E174E08FED97E00E944931DD
:1039A00060E089E00E94E9132AE0B701A6018FEDEB
:1039B00097E00E94C33060E08EE00E94E91365E169
:1039C00074E08FED97E0DF91CF91FF90EF90DF9063
:1039D000CF900C944931CF92DF92EF92FF92CF9328
:1039E000DF93EC010E948B056B017C018FED97E06A
:1039F0000E94972760E080E00E94E91365E08FED68
:103A000097E00E948E2760E08FED97E00E948E275E
:103A100060E082E00E94E913CE010E94DA1360E0C8
:103A200084E00E94E9136EE174E08FED97E00E945C
:103A3000493160E089E00E94E9132AE0B701A6015C
:103A40008FED97E00E94C33060E08EE00E94E913A2
:103A500065E174E08FED97E0DF91CF91FF90EF90FB
:103A6000DF90CF900C944931EF92FF920F931F9308
:103A7000CF93DF937C018B01EA018FED97E00E94E9
:103A8000972760E080E00E94E91365E08FED97E002
:103A90000E948E2760E082E00E94E913C7010E9425
:103AA000DA1360E085E00E94E913C8010E94DA138E
:103AB00060E088E00E94E913CE010E94DA1360E022
:103AC0008EE00E94E91365E174E08FED97E0DF91ED
:103AD000CF911F910F91FF90EF900C9449317F92FD
:103AE0008F929F92AF92BF92CF92DF92EF92FF920E
:103AF0000F931F93CF93DF9344E650E060E070E0B4
:103B00008CE090E00E94A91C61E080E00E94E91333
:103B100064E08FED97E00E948E270CE010E064E6F1
:103B2000C62ED12CE12CF12CC1E0712C812C912CD2
:103B3000540183940E9484168823E1F38130D9F4E0
:103B4000C13009F447C0C23009F43CC0C330C1F5EC
:103B5000AAE0B0E0A50194010E94933A4B015C01F8
:103B600085E688169104A104B104B0F1812C912C52
:103B70005401839431C0823029F4C15009F06DC0E2
:103B8000C4E06BC0833081F5C13021F1C23049F40B
:103B900001501109D1E010161106FCF008E110E007
:103BA0001CC0C33069F4C818D908EA08FB08D1E082
:103BB000A1F44FE0C42E47E2D42EE12CF12C0DC02D
:103BC000C43051F420E030E0B701A601C8010E94E2
:103BD000AD0402C0D0E001C0D1E068EC70E080E04C
:103BE00090E00E948F2F40C0843089F5C13049F4A5
:103BF00068EC70E080E090E00E948F2F0E949F2789
:103C00002CC0C23041F40F5F1F4F093111052CF158
:103C100001E010E022C0C33081F4C80CD91CEA1CBA
:103C2000FB1C80E1C81687E2D806E104F104A8F085
:103C3000C12CD12C7601C39410C0C43071F420E0A3
:103C400030E0B701A601C8010E94AD0406C085306E
:103C500051F4CF5FC53008F0C1E068EC70E080E05F
:103C600090E00E948F2FD1E0C23061F020F4C1308B
:103C700071F4712C0CC0C33041F0C43041F48EE0BB
:103C8000782E05C022E0722E02C099E0792EB7018D
:103C9000A601C8010E94A91C61E0872D0E94E913BA
:103CA00064E08FED97E00E948E27C33039F42AE05C
:103CB000B501A4018FED97E00E94C330D1113ACF36
:103CC000DF91CF911F910F91FF90EF90DF90CF90F8
:103CD000BF90AF909F908F907F900895BF92CF92AA
:103CE000DF92EF92FF920F931F93CF93DF938CE0BD
:103CF00090E00E94EB1C61E080E00E94E91364E028
:103D00008FED97E00E948E27D1E0B12CC12CD12CF1
:103D10007601C3940CE010E00E9484168823E1F33E
:103D20008130D1F4D13009F43DC2D33009F034C22E
:103D3000AAE0B0E0A70196010E94933A6B017C01D2
:103D400085E6C816D104E104F10408F42DC2C12CA3
:103D5000D12C7601C39428C2823029F4D15009F0C5
:103D600057C4D4E055C4833009F026C2D13009F4D9
:103D700019C2D23051F401501109C1E010161106D8
:103D80000CF413C208E110E010C2D33009F004C2F1
:103D9000F8013197E831F10508F006C28827EC5F99
:103DA000FE4F8F4F0C94753B8091530890915408AF
:103DB000A0915508B09156088C199D09AE09BF090C
:103DC0008093530890935408A0935508B0935608D5
:103DD000EBC180914F0890915008A0915108B0918B
:103DE00052088C199D09AE09BF0980934F08909322
:103DF0005008A0935108B0935208D6C180914B0847
:103E000090914C08A0914D08B0914E088C199D09D5
:103E1000AE09BF0980934B0890934C08A0934D08BE
:103E2000B0934E08C1C18091470890914808A09175
:103E30004908B0914A088C199D09AE09BF098093C1
:103E4000470890934808A0934908B0934A08ACC12A
:103E50008091430890914408A0914508B09146088C
:103E60008C199D09AE09BF098093430890934408BB
:103E7000A0934508B093460897C180913F08909160
:103E80004008A0914108B09142088C199D09AE09E3
:103E9000BF0980933F0890934008A0934108B093D6
:103EA000420882C180913B0890913C08A0913D0856
:103EB000B0913E088C199D09AE09BF0980933B085B
:103EC00090933C08A0933D08B0933E086DC180914B
:103ED000370890913808A0913908B0913A088C19A8
:103EE0009D09AE09BF098093370890933808A093C5
:103EF0003908B0933A0858C180913308909134083A
:103F0000A0913508B09136088C199D09AE09BF09FA
:103F10008093330890933408A0933508B093360803
:103F200043C180912F0890913008A0913108B09141
:103F300032088C199D09AE09BF0980932F08909310
:103F40003008A0933108B09332082EC180912B081D
:103F500090912C08A0912D08B0912E088C199D09E4
:103F6000AE09BF0980932B0890932C08A0932D08CD
:103F7000B0932E0819C18091270890912808A0912C
:103F80002908B0912A088C199D09AE09BF098093B0
:103F9000270890932808A0932908B0932A0804C101
:103FA0008091230890912408A0912508B0912608BB
:103FB0008C199D09AE09BF098093230890932408AA
:103FC000A0932508B0932608EFC080911F08909118
:103FD0002008A0912108B09122088C199D09AE09F2
:103FE000BF0980931F0890932008A0932108B093E5
:103FF0002208DAC080911B0890911C08A0911D082E
:10400000B0911E088C199D09AE09BF0980931B0849
:1040100090931C08A0931D08B0931E08C5C0809102
:10402000170890911808A0911908B0911A088C19D6
:104030009D09AE09BF098093170890931808A093B3
:104040001908B0931A08B0C0809113089091140811
:10405000A0911508B09116088C199D09AE09BF09E9
:104060008093130890931408A0931508B093160832
:104070009BC080910F0890911008A0911108B091F9
:1040800012088C199D09AE09BF0980930F089093FF
:104090001008A0931108B093120886C080910B08F5
:1040A00090910C08A0910D08B0910E088C199D09F3
:1040B000AE09BF0980930B0890930C08A0930D08DC
:1040C000B0930E0871C08091070890910808A091E4
:1040D0000908B0910A088C199D09AE09BF0980939F
:1040E000070890930808A0930908B0930A085CC0D9
:1040F0008091030890910408A0910508B0910608EA
:104100008C199D09AE09BF09809303089093040898
:10411000A0930508B093060847C08091FF079091CF
:104120000008A0910108B09102088C199D09AE0900
:10413000BF098093FF0790930008A0930108B093F4
:10414000020832C08091FB079091FC07A091FD0707
:10415000B091FE078C199D09AE09BF098093FB073A
:104160009093FC07A093FD07B093FE071DC08091BC
:10417000F7079091F807A091F907B091FA078C1909
:104180009D09AE09BF098093F7079093F807A093A4
:10419000F907B093FA0708C0D43031F4C8010E947F
:1041A000461602C0C0E001C0C1E068EC70E080E0EB
:1041B00090E00E948F2F33C2843009F023C2D130A7
:1041C00049F468EC70E080E090E00E948F2F0E943C
:1041D0006F1D1EC2D23049F40F5F1F4F0931110508
:1041E0000CF416C201E010E013C2D33009F004C28F
:1041F000F8013197E831F10508F00AC28827E45E3A
:10420000FE4F8F4F0C94753B80915308909154084A
:10421000A0915508B09156088C0D9D1DAE1DBF1D77
:104220008093530890935408A0935508B093560870
:10423000EFC180914F0890915008A0915108B09122
:1042400052088C0D9D1DAE1DBF1D80934F0890938D
:104250005008A0935108B0935208DAC180914B08DE
:1042600090914C08A0914D08B0914E088C0D9D1D69
:10427000AE1DBF1D80934B0890934C08A0934D0832
:10428000B0934E08C5C18091470890914808A0910D
:104290004908B0914A088C0D9D1DAE1DBF1D80932D
:1042A000470890934808A0934908B0934A08B0C1C2
:1042B0008091430890914408A0914508B091460828
:1042C0008C0D9D1DAE1DBF1D809343089093440827
:1042D000A0934508B09346089BC180913F089091F8
:1042E0004008A0914108B09142088C0D9D1DAE1D63
:1042F000BF1D80933F0890934008A0934108B0935E
:10430000420886C180913B0890913C08A0913D08ED
:10431000B0913E088C0D9D1DAE1DBF1D80933B08C6
:1043200090933C08A0933D08B0933E0871C18091E2
:10433000370890913808A0913908B0913A088C0D4F
:104340009D1DAE1DBF1D8093370890933808A09324
:104350003908B0933A085CC18091330890913408D1
:10436000A0913508B09136088C0D9D1DAE1DBF1D66
:104370008093330890933408A0933508B09336089F
:1043800047C180912F0890913008A0913108B091D9
:1043900032088C0D9D1DAE1DBF1D80932F0890937C
:1043A0003008A0933108B093320832C180912B08B5
:1043B00090912C08A0912D08B0912E088C0D9D1D78
:1043C000AE1DBF1D80932B0890932C08A0932D0841
:1043D000B0932E081DC18091270890912808A091C4
:1043E0002908B0912A088C0D9D1DAE1DBF1D80931C
:1043F000270890932808A0932908B0932A0808C199
:104400008091230890912408A0912508B091260856
:104410008C0D9D1DAE1DBF1D809323089093240815
:10442000A0932508B0932608F3C080911F089091AF
:104430002008A0912108B09122088C0D9D1DAE1D71
:10444000BF1D80931F0890932008A0932108B0936C
:104450002208DEC080911B0890911C08A0911D08C5
:10446000B0911E088C0D9D1DAE1DBF1D80931B08B5
:1044700090931C08A0931D08B0931E08C9C080919A
:10448000170890911808A0911908B0911A088C0D7E
:104490009D1DAE1DBF1D8093170890931808A09313
:1044A0001908B0931A08B4C08091130890911408A9
:1044B000A0911508B09116088C0D9D1DAE1DBF1D55
:1044C0008093130890931408A0931508B0931608CE
:1044D0009FC080910F0890911008A0911108B09191
:1044E00012088C0D9D1DAE1DBF1D80930F0890936B
:1044F0001008A0931108B09312088AC080910B088D
:1045000090910C08A0910D08B0910E088C0D9D1D86
:10451000AE1DBF1D80930B0890930C08A0930D084F
:10452000B0930E0875C08091070890910808A0917B
:104530000908B0910A088C0D9D1DAE1DBF1D80930A
:10454000070890930808A0930908B0930A0860C070
:104550008091030890910408A0910508B091060885
:104560008C0D9D1DAE1DBF1D809303089093040804
:10457000A0930508B09306084BC08091FF07909167
:104580000008A0910108B09102088C0D9D1DAE1D80
:10459000BF1D8093FF0790930008A0930108B0937C
:1045A000020836C08091FB079091FC07A091FD079F
:1045B000B091FE078C0D9D1DAE1DBF1D8093FB07A6
:1045C0009093FC07A093FD07B093FE0721C0809154
:1045D000F7079091F807A091F907B091FA078C0DB1
:1045E0009D1DAE1DBF1D8093F7079093F807A09304
:1045F000F907B093FA070CC0D43051F4C8010E94F7
:10460000461606C0853051F4DF5FD53008F0D1E0A2
:1046100068EC70E080E090E00E948F2FC1E0D23023
:1046200061F020F4D13071F4B12C0CC0D33041F0E2
:10463000D43041F48EE0B82E05C022E0B22E02C084
:1046400099E0B92EC8010E94EB1C61E08B2D0E94FD
:10465000E91364E08FED97E00E948E27D33039F4A0
:104660002AE0B701A6018FED97E00E94C330C11187
:1046700053CBDF91CF911F910F91FF90EF90DF907F
:10468000CF90BF900895EF92FF920F931F93CF9317
:10469000DF93CDB7DEB72C970FB6F894DEBF0FBE11
:1046A000CDBF64E274E0CE0101960E949930BE0154
:1046B0006F5F7F4FCE0107960E947F30CE01079635
:1046C0000E946A1CCE0107960E947A3061E080E069
:1046D0000E94E91364E08FED97E00E948E2711E0BD
:1046E000E12CFF24F3940E9484168823E1F38130A7
:1046F00029F41130E1F01230A1F415C0823029F410
:10470000115009F040C013E03EC08330D1F41130A5
:1047100071F0123031F4FA94F1100BC02AE1F22E4C
:1047200008C0133031F48F2D0E94491C02C000E0F4
:1047300001C001E068EC70E080E090E00E948F2F03
:1047400029C08430D1F4113049F468EC70E080E085
:1047500090E00E948F2F0E946E1E15C0123039F417
:10476000F3948AE18F1578F4FF24F3940CC013308E
:1047700051F48F2D0E94491C06C0853051F41F5FF3
:10478000143008F011E068EC70E080E090E00E94E6
:104790008F2F01E0123031F0133039F0113039F43D
:1047A000E12C05C095E0E92E02C08EE0E82E8F2DA9
:1047B00090E0FC013197EA31F10508F057C08827F5
:1047C000EC5CFE4F8F4F0C94753B64E274E04AC082
:1047D0006DE274E047C066E374E044C06FE374E0E8
:1047E00041C068E474E03EC061E574E03BC06AE546
:1047F00074E038C063E674E035C06CE674E032C043
:1048000065E774E02FC06FE774E02CC069E874E0DE
:1048100029C063E974E026C06DE974E023C067EA4B
:1048200074E020C061EB74E01DC06CEB74E01AC052
:1048300067EC74E017C062ED74E014C06EED74E0D4
:1048400011C06AEE74E00EC066EF74E00BC062E067
:1048500075E008C06EE075E005C06AE175E002C071
:104860006AE074E0CE0101960E945930BE016F5F8C
:104870007F4FCE0107960E947F30CE0107960E949F
:104880006A1CCE0107960E947A3061E08E2D0E944C
:10489000E91364E08FED97E00E948E27011123CF8A
:1048A000CE0101960E947A302C960FB6F894DEBFA6
:1048B0000FBECDBFDF91CF911F910F91FF90EF9071
:1048C0000895FC01918D828D981761F0828DDF0132
:1048D000A80FB11D5D968C91928D9F5F9F73928FF3
:1048E00090E008958FEF9FEF0895FC01918D828DE8
:1048F000981731F0828DE80FF11D858D90E00895B5
:104900008FEF9FEF0895FC01918D228D892F90E00C
:10491000805C9F4F821B91098F739927089580E0D7
:1049200090E0892B21F00E94EB14811121C080E0DE
:1049300090E0892B21F00E94E11481111CC080E0DD
:1049400090E0892B41F080E090E0892B21F00E94DB
:104950000000811113C080E090E0892BA1F080E07D
:1049600090E0892B81F00E94000081110AC0089517
:104970000E940000DCCF0E940000E1CF0E940000F6
:10498000EACF0C940000089585ED8093BC008091DF
:10499000BC0084FDFCCF10926A0608954091400A45
:1049A000262F30E0240F311D21323105DCF4209117
:1049B0006A062430C9F4FC0180E090E0861758F4C0
:1049C0003091400A2191DC01A25EB54FA30FB11DC9
:1049D0002C930196F3CF8091400A680F6093400AB0
:1049E00080E0089581E0089582E008950895E091BF
:1049F0006C0680916B06E81730F4F0E0E359F94F4C
:104A0000808190E008958FEF9FEF089590916C065C
:104A100080916B06981750F4E92FF0E0E359F94FB5
:104A2000208130E09F5F90936C0602C02FEF3FEF34
:104A3000C901089580916B0690E020916C06821B5D
:104A400091090895CF92DF92EF92FF920F931F93F7
:104A5000CF93DF937C01262F972F8A018091200628
:104A6000882391F0C62FD72F6E01C40ED51ECC150A
:104A7000DD0571F06991D701ED91FC910190F08114
:104A8000E02DC7011995F3CF642F822F0E94CE2409
:104A9000C801DF91CF911F910F91FF90EF90DF90B0
:104AA000CF900895CF93DF931F92CDB7DEB7698380
:104AB000209120062223D1F020914306203240F09D
:104AC00021E030E0FC013383228380E090E015C0D8
:104AD00080912106E82FF0E0EE5DF94F99819083F7
:104AE0008F5F809321068093430605C061E0CE016D
:104AF00001960E94CE2481E090E00F90DF91CF914B
:104B00000895089580E090E008950E94933DCF932A
:104B1000DF93EC0160E08E810E94122F61E08E81B4
:104B20000E94122F60E08E810E94122F8BE891E08C
:104B30000197F1F7DF91CF910895FC01848DDF019A
:104B4000A80FB11DA35ABF4F2C91848D90E0019600
:104B50008F739927848FA689B7892C93A089B189EF
:104B60008C9180648C93938D848D981306C00288F9
:104B7000F389E02D80818F7D808308951F920F92AD
:104B80000FB60F9211240BB60F922F933F934F93B2
:104B90005F936F937F938F939F93AF93BF93EF93A5
:104BA000FF938091B900887F803609F49CC068F536
:104BB000883209F45BC090F4803109F454C038F4B1
:104BC000882309F4F6C0883009F44DC0F6C0883156
:104BD00009F44CC0803209F45DC0EFC0803409F4A0
:104BE00068C048F4803309F455C0883309F0E5C043
:104BF00080936806D8C0803509F44FC0883509F421
:104C00005DC0883409F0D9C0D6C0883909F4C7C05E
:104C1000A8F4883709F467C038F4883609F463C00B
:104C2000803709F460C0C9C0883809F4B8C0803939
:104C300009F45FC0803809F0C0C05BC0803B09F454
:104C400086C038F4803A09F466C0883A09F47FC017
:104C5000B4C0803C09F4A7C0883C09F4A4C0883BD8
:104C600009F48AC0AAC08091650610C090916706B9
:104C700080916606981770F5E091670681E08E0FC7
:104C800080936706F0E0EC5BF94F80818093BB0076
:104C900085EC86C0809368068EC0E091670681E04F
:104CA0008E0F809367068091BB00F0E0EC5BF94FBC
:104CB000808390916706809166066EC0E0916706DA
:104CC00081E08E0F809367068091BB00F0E0EC5B83
:104CD000F94F80838091690681116DC081E08093D6
:104CE000640684EA61C083E080936A061092640AD5
:104CF000CFCF8091640A803208F051C0E091640AFD
:104D000081E08E0F8093640A8091BB00F0E0EC5B41
:104D1000F54F8083BDCF85EC8093BC0010926A066E
:104D20008091640A803230F4E091640AF0E0EC5B38
:104D3000F54F10826091640A70E0E091420AF091B0
:104D4000430A84E49AE019951092640A36C084E01C
:104D500080936A061092410A1092400AE0913E0A3E
:104D6000F0913F0A19958091400A811105C081E0B8
:104D70008093400A10921E0AE091410A81E08E0F52
:104D80008093410AF0E0E25EF54F80818093BB00A2
:104D90009091410A8091400A981708F479CF85E8EC
:104DA0008093BC000AC085EC8093BC0010926A0618
:104DB00004C0109268060E94C424FF91EF91BF9135
:104DC000AF919F918F917F916F915F914F913F91A3
:104DD0002F910F900BBE0F900FBE0F901F90189544
:104DE00010926A0681E0809369061092640661E081
:104DF00084E10E94122F61E085E10E94122FE9EB0D
:104E0000F0E080818E7F808380818D7F808388E445
:104E10008093B80085E48093BC000895CF92DF9220
:104E2000EF92FF920F931F93CF93DF937C016C015E
:104E300087E0C80ED11CC0E0D0E0062F10E0B8011A
:104E40000C2E02C0759567950A94E2F76170F60121
:104E500081916F010E94122F2196C430D10579F7FC
:104E6000C701DF91CF911F910F91FF90EF90DF90DD
:104E7000CF900C948725CF92DF92EF92FF920F9301
:104E80001F93CF93DF93EC01F62E642F8C810E9449
:104E9000122F8D818F3F19F060E00E94122F8F85B5
:104EA0000F2D10E084FF25C06E0187E0C80ED11CD5
:104EB000E12CF12CB8010E2C02C0759567950A946F
:104EC000E2F76170F60181916F010E94122FFFEFEE
:104ED000EF1AFF0A88E0E816F10461F7CE01DF91CE
:104EE000CF911F910F91FF90EF90DF90CF900C9496
:104EF0008725B80184E0759567958A95E1F7CE011D
:104F00000E940E276F2DCE01DF91CF911F910F913F
:104F1000FF90EF90DF90CF900C940E2741E00E941D
:104F20003B2781E090E0089540E00C943B2761E04E
:104F30000E9494278BE39FE10197F1F708952F9248
:104F40003F924F925F926F927F928F929F92AF9219
:104F5000BF92CF92DF92EF92FF920F931F93CF9366
:104F60008FED97E00E94972760E086E00E94E913AA
:104F700066E275E08FED97E00E94493168EE73E0DC
:104F800080E090E00E948F2F0E946F1D0E946E1E95
:104F90000E9443230E94B71640911C0A50911D0A9B
:104FA00060911A0A70911B0A8091180A9091190A4F
:104FB0000E94341D61E080E00E94E91364E08FEDFF
:104FC00097E00E948E27C0E011E080ED482E87E038
:104FD000582EAA24A394B12C2BE3C22ED12C3EEA46
:104FE000232E38E0332E0E9484168823E1F381308B
:104FF00049F4812F8B7F813009F413C1163009F0F9
:10500000FCC00DC1823051F4115009F411E068EC7C
:1050100070E080E090E00E948F2F14C1833009F08F
:105020006DC0113009F4FDC0123079F48091180A76
:105030009091190A01971816190614F08FE190E063
:105040009093190A8093180AEFC0133079F4809175
:105050001A0A90911B0A01971816190614F08CE091
:1050600090E090931B0A80931A0ADEC0143079F402
:1050700080911C0A90911D0A0197803D27E09207BC
:105080000CF075C030921D0A20921C0ACDC015305C
:1050900009F4C7C0163009F4C2C0173071F480910A
:1050A000140A9091150A019797FF02C087E190E0DA
:1050B0009093150A8093140AB7C0183061F4809158
:1050C000410290914202019797FF7BC0D092420229
:1050D000C0924102A9C0193009F08FC08091160A10
:1050E0009091170A01979093170A8093160A97FFD9
:1050F0009BC0D092170AC092160A96C0843009F05D
:105100009BC0113049F468EC70E080E090E00E94B0
:105110008F2F0E94432388C0123071F48091180AA7
:105120009091190A0196803291050CF489CFB092C2
:10513000190AA092180A78C0133071F480911A0AE3
:1051400090911B0A01968D3091050CF48ACFB09294
:105150001B0AA0921A0A68C0143099F480911C0AA4
:1051600090911D0A01968F3A28E092072CF49093B3
:105170001D0A80931C0A58C050921D0A40921C0AB6
:1051800053C0153009F44DC0163009F44CC0173027
:1051900071F48091140A9091150A01968831910555
:1051A0000CF486CF1092150A1092140A3DC01830E4
:1051B00091F4809141029091420201968C339105C5
:1051C0002CF490934202809341022EC0109242022E
:1051D0001092410229C0193081F48091160A9091F1
:1051E000170A01969093170A8093160ACC97E4F059
:1051F0001092170A1092160A17C01A30A9F4E090FC
:10520000160A009141022091140A4091180A6091F7
:105210001A0A80911C0A90911D0A0E94FE1300E058
:1052200004C016E001C011E001E068EC70E080E02D
:1052300090E00E948F2F07C0853021F41F5F1B3044
:1052400008F01AE001E068EC70E080E090E00E9475
:105250008F2F812F90E0FC013197EA30F10508F0A3
:105260009EC08827E25BFE4F8F4F0C94753BC5E0D4
:105270001BC0C5E009C0C9E007C0CEE005C0C8E05A
:1052800013C0CDE011C0C0E040911C0A50911D0A2E
:1052900060911A0A70911B0A8091180A9091190A5C
:1052A0000E94341D39C0C0E08090160A9090170A01
:1052B000E0904102F09042026090140A7090150A4A
:1052C0008FED97E00E94972760E080E00E94E9134D
:1052D00065E08FED97E00E948E2760E082E00E94FB
:1052E000E913C3010E94DA1360E085E00E94E9132C
:1052F000C7010E94DA1360E088E00E94E913C4014C
:105300000E94DA1360E08CE00E94E9136BE275E022
:105310008FED97E00E94493161E08C2F0E94E913E4
:1053200064E08FED97E00E948E27153029F463E04A
:105330008FED97E00E948E27011155CE8FED97E0FB
:105340000E94972760E086E00E94E91360E375E021
:105350008FED97E00E94493168EE73E080E090E0C5
:105360000E948F2F8DE390E0909342028093410240
:10537000CF911F910F91FF90EF90DF90CF90BF9052
:10538000AF909F908F907F906F905F904F903F90E5
:105390002F900C941717C2E077CFC2E085CF16305C
:1053A00008F082CF71CF80914302813049F465E3E8
:1053B00075E08DE896E00E94353168E475E025C01F
:1053C000823049F46DE575E08DE896E00E94353154
:1053D00064E775E01AC0833049F460E975E08DE850
:1053E00096E00E9435316AEA75E00FC0843049F4D6
:1053F0006BEC75E08DE896E00E94353165EE75E066
:1054000004C0853031F466E076E08DE896E00C94D7
:10541000353108958CE291E00E9430058CE291E0F4
:105420000E9457058CE291E00E944A0584EF91E0CA
:105430000E94640540E050E06BE070E085E090E0A1
:105440000C944D0E24EF31E04BE050E062E170E04F
:105450008AE090E00E94690D24EF31E047E050E0DF
:1054600062E170E08AE090E00E94690D24EF31E093
:1054700046E050E062E170E08AE090E00E94690D51
:1054800024EF31E04BE050E062E170E08AE090E030
:105490000E94690D24EF31E045E050E062E170E0E8
:1054A0008AE090E00E94690D20E233E046E050E09F
:1054B00062E170E081E190E00E94690D80E090E09F
:1054C0000C947E0588E592E00E94570588E592E0FD
:1054D0000E94710588E592E00E94640580E090E0FA
:1054E0000C947E0544EF51E06EE070E08BE090E0BC
:1054F0000E944D0E4CE251E06EE070E08BE090E0D7
:105500000E944D0E8CE291E00E944A058CE291E0EF
:105510000E944A0544EF51E06EE070E08BE090E0BD
:105520000E944D0E48EC50E06EE070E08BE090E0A1
:105530000E944D0E8CE291E00E944A058CE291E0BF
:105540000E944A058CE291E00E9464058CE291E0A1
:105550000E9457058CE291E00E944A0584E690E0A3
:105560000E944A058CE291E00E9457058CE291E08E
:105570000E9464058CE291E00E9464058CE291E057
:105580000E9457058CE291E00E9457058CE291E061
:105590000E9464058CE291E00E9457058CE291E044
:1055A0000E944A0584E690E00E94570584E690E058
:1055B0000E9457058CE291E00E9464058CE291E024
:1055C0000E944A0548EC50E06EE070E08BE090E00D
:1055D0000E944D0E88EC90E00E944A0548EC50E095
:1055E0006EE070E08BE090E00E944D0E88EC90E061
:1055F0000E944A0544EF51E060E170E08EE090E0E7
:105600000E944D0E84E690E00E94230548EC50E095
:105610006EE070E08BE090E00E944D0E8CE291E035
:105620000E9423054CE251E06EE070E08BE090E0D8
:105630000E944D0E88EC90E00E944A054CE251E039
:105640006EE070E08BE090E00C944D0E44EF51E082
:1056500061E170E080E190E00E944D0E4CE251E08B
:1056600061E170E080E190E00E944D0E44EF51E076
:1056700061E170E085E090E00E944D0E48EC50E062
:1056800061E170E085E090E00E944D0E48EC50E052
:1056900061E170E080E190E00E944D0E88EC90E0C6
:1056A0000E94230548EC50E061E170E080E190E069
:1056B0000E944D0E48EC50E061E170E080E190E026
:1056C0000E944D0E88EC90E00E94710544EF51E07D
:1056D00061E170E08FE090E00E944D0E88EC90E078
:1056E0000E944A0588EC90E00E94160588EC90E044
:1056F0000E94570580E991E00E944A0540911F08E9
:1057000050912008609121087091220828EC30E027
:105710008EE090E00E94AD0488EC90E00E9430059D
:105720008CE291E00E943D0580E991E00E9416051F
:1057300084EF91E00E943D0588EC90E00E94160500
:1057400084EF91E00E943D0588EC90E00E943D05C9
:1057500088EC90E00E94710588EC90E00E941605AC
:1057600084EF91E00E943D0588EC90E00E942305C3
:1057700084EF91E00E94300588EC90E00E9457058C
:1057800088EC90E00E94570584EF91E00E94160596
:1057900048EC50E06DE070E085E090E00E944D0E36
:1057A0004CE251E063E070E08DE090E00E944D0E2D
:1057B00048EC50E063E070E085E090E00E944D0E20
:1057C0004CE251E063E070E082E190E00E944D0E17
:1057D00040914B0850914C0860914D0870914E08D3
:1057E00028EC30E083E090E00E94AD044CE251E010
:1057F00060E170E08BE090E00E944D0E48EC50E0DC
:105800006FE070E085E090E00E944D0E48EC50E0C3
:105810006FE070E085E090E00E944D0E44EF51E0B3
:1058200063E070E08DE090E00E944D0E4CE251E0AC
:1058300067E070E08EE090E00E944D0E48EC50E092
:1058400063E170E080E190E00E944D0E88EC90E012
:105850000E94710548EC50E06DE070E08EE090E051
:105860000E944D0E48EC50E06DE070E08FE090E05B
:105870000E944D0E40E050E06DE070E082E190E06B
:105880000C944D0E2EE531E044E650E060E070E00F
:1058900084E090E00E94AD042EE531E044E650E063
:1058A00060E070E085E090E00E94AD042EE531E01C
:1058B00044E650E060E070E086E090E00E94AD04D5
:1058C0002EE531E044E650E060E070E087E090E0F3
:1058D0000E94AD042EE531E044E650E060E070E067
:1058E00086E090E00E94AD042EE531E044E650E011
:1058F00060E070E085E090E00E94AD0428E532E0D1
:1059000044E650E060E070E084E090E00E94AD0486
:105910002AEF30E044E650E060E070E085E090E09F
:105920000E94AD042AEF30E044E650E060E070E011
:1059300085E090E00E94AD0420E931E044E650E0CB
:1059400060E070E085E090E00E94AD042CE231E080
:1059500044E650E060E070E086E090E00E94AD0434
:105960002CE231E044E650E060E070E085E090E059
:105970000E94AD0428E532E044E650E060E070E0CB
:1059800084E090E00E94AD042EE531E044E650E072
:1059900060E070E084E090E00E94AD042EE531E02C
:1059A00044E650E060E070E085E090E00E94AD04E5
:1059B0002EE531E044E650E060E070E086E090E003
:1059C0000E94AD042EE531E044E650E060E070E076
:1059D00087E090E00E94AD042EE531E044E650E01F
:1059E00060E070E086E090E00E94AD042EE531E0DA
:1059F00044E650E060E070E085E090E00E94AD0495
:105A000028E532E044E650E060E070E084E090E0B9
:105A10000E94AD042AEF30E044E650E060E070E020
:105A200085E090E00E94AD042AEF30E044E650E0CB
:105A300060E070E085E090E00E94AD0420E931E094
:105A400044E650E060E070E085E090E00E94AD0444
:105A50002CE231E044E650E060E070E086E090E067
:105A60000E94AD042CE231E044E650E060E070E0DA
:105A700085E090E00E94AD0440E050E065E070E019
:105A800084E090E00C944D0E4091530850915408DE
:105A9000609155087091560824EF31E081E090E064
:105AA0000E94AD0440914F085091500860915108F8
:105AB0007091520824EF31E082E090E00E94AD0442
:105AC00040914B0850914C0860914D0870914E08E0
:105AD00024EF31E083E090E00E94AD0484EF91E098
