:100000000C9442040C9473040C9473040C947304C5
:100010000C9473040C9473040C9473040C94730484
:100020000C9473040C9473040C9473040C94730474
:100030000C9473040C9473040C9473040C94730464
:100040000C9473040C9473040C9473040C94730454
:100050000C9473040C9473040C9473040C94691F33
:100060000C9473040C9491220C9467220C947304E6
:100070000C9473040C9473040C9473040C94730424
:100080000C9473040C9473040C9473040C94730414
:100090000C943D220C9413220C9473040C94BB22F8
:1000A0000C9473040C9473040C9473040C947304F4
:1000B0000C9473040C9473040C9473040C947304E4
:1000C0000C9473040C9473040C9473040C947304D4
:1000D0000C9473040C9473040C9473040C947304C4
:1000E0000C947304C6048104840487048A048D0478
:1000F00090049304960499049C049F04A204A5040C
:10010000A804AB04AE04B104B404B704BA04BD043B
:10011000C004C30423062C0635063E0647065006D7
:10012000590662066B0674067D0686068F069806DB
:10013000A106AA06B306BC06C506CE06D706E0068B
:10014000E906F206F914FC14FF140215051508154A
:100150001615161516151615161516151615161547
:100160001615161516151615161516151615161537
:100170000B150E1511151415371A971A971A8D1994
:10018000971AD3191A1A171A971A971A971A111A2F
:10019000E6199C19971A971A971A971AB619971A67
:1001A0006C1A971A971A971A091A971A971A971A80
:1001B000971A971A971A971A3F1A971A971A78192F
:1001C000971A971A281A1D1A4B1A7B19971A7E1913
:1001D000CD19D019971A971A971A971A511AFB190D
:1001E000971A971A9F19971A0C1AA719221E251EDB
:1001F000141E181E1C1E5C1E291E2D1E331E371EAB
:100200003B1E411E451E491E5C1E4F1E531E571E9F
:100210002E36303632363436363638363A363C3686
:100220003E3642364236423642364036313746371F
:100230005B37703785379A37AF37C437D937EE37E2
:10024000033818382D38423857386C38813896388A
:10025000AB38C038D538EA38FF38143961397639C7
:100260008B39A039B539CA39DF39F439093A1E3A20
:10027000333A483A5D3A723A873A9C3AB13AC63ACA
:10028000DB3AF03A053B1A3B2F3B443B413C443CB4
:10029000473C4A3C4D3C503C533C563C593C5C3CF2
:1002A0005F3C623C653C683C6B3C6E3C713C743C22
:1002B000773C7A3C7D3C803C833C863C893C8C3C52
:1002C000613EEF3E573E593E5B3E713EF13E553E2C
:1002D0005D3E5F3E0C94CD190C94413C0C94740629
:1002E0000C9408630C94DF390C94593E0C94AC2F99
:1002F0000C9432360C9494210C94F03A0C94214BCB
:100300000C94EF3E0C945F200C94B13A0C941D1A9F
:100310000C942E360C949F190C94893C0C94091A59
:100320000C94623C0C9493040C949F040C947121E3
:100330000C94AB380C9481040C943A360C944637E8
:100340000C94803C0C94713C0C94E7200C94723A11
:100350000C94BC060C94C3280C9434360C948D0475
:100360000C9414150C94773C0C942D1E0C94511A7B
:100370000C948B240C94571E0C94C0380C946C383D
:100380000C9416150C94CE060C94573E0C94FB213D
:100390000C94053B0C9435060C9487040C94B61908
:1003A0000C946C1A0C9457380C941C1E0C94A22FAD
:1003B0000C941A3B0C9423060C944F1E0C94512061
:1003C0000C94D9370C9496380C9442360C943836E9
:1003D0000C9486060C9490040C94AE040C94C60401
:1003E0000C94D5380C94553E0C941E3A0C94FF1482
:1003F0000C947D3C0C9431370C942E200C94B40456
:100400000C9438290C94E0060C94563C0C94A804E7
:100410000C9470370C9461390C94331E0C94483A48
:100420000C94291E0C94863C0C9411150C94873A5C
:100430000C94171A0C94473C0C94141E0C94F91449
:100440000C9481380C94EE370C9414390C94D70624
:100450000C943C360C942F3B0C94CA390C94093AFA
:100460000C94333A0C94F13E0C945C3C0C94411E79
:100470000C942A2F0C94A0390C9440360C94183804
:100480000C944B1A0C94752F0C940E150C9480211F
:100490000C943B1E0C9402150C944D3C0C94423869
:1004A0000C94C4370C947E190C94CC210C94C50682
:1004B0000C94111A0C9430360C9499040C94971ADD
:1004C0000C94C4280C949C3A0C9485370C94713E7F
:1004D0000C946E3C0C9447060C946B3C0C940B15DE
:1004E0000C945B370C945D3E0C9403380C94781993
:1004F0000C94E6190C94613E0C94A7190C948C3C56
:100500000C948F060C94B7040C94C63A0C94DB3A06
:100510000C949C190C9400630C94833C0C945C1E0A
:100520000C947B190C94653C0C943F1A0C94503C31
:100530000C949A370C94371A0C94D0190C94AD285B
:100540000C9450060C94221E0C94BA040C94B3061E
:100550000C94AF370C94D3190C94C3040C94FC1472
:100560000C947A3C0C943E060C94443C0C94081574
:100570000C94683C0C9496040C94B1040C949C0468
:100580000C94F4390C9405150C94B5390C94F206BE
:100590000C945B3E0C9470210C942C060C946B060E
:1005A0000C94743C0C94533C0C948D190C943D2089
:1005B0000C9476390C94443B0C94A1060C94590687
:1005C0000C947B280C949C210C94FF380C941A1AE0
:1005D0000C943E360C942D380C948C280C945F3E71
:1005E0000C94181E0C948B390C948A040C9484047B
:1005F0000C940C1A0C9462060C94A2040C94281A05
:100600000C94451E0C944A3C0C947D060C94491E97
:100610000C94A5040C94EA380C945F3C0C94593C5F
:100620000C94AB040C94251E0C945D3A0C94402958
:100630000C94AA060C9498060C94371E0C94C004D3
:100640000C94BD040C94FB190C94A0200C94E906A6
:100650000C94531E0C94363600407A10F35A00A0C6
:10066000724E18090010A5D4E80000E8764817007B
:1006700000E40B54020000CA9A3B000000E1F505BB
:10068000000080969800000040420F000000A08605
:1006900001000000102700000000E8030000000037
:1006A0006400000000000A000000000001000000DB
:1006B00000002C76D888DC674F0823DFC1DFAE59F5
:1006C000E1B1B796E5E3E453C63AE651997696E888
:1006D000E6C28426EB898C9B62ED407C6FFCEFBC0C
:1006E0009C9F40F2BAA56FA5F490055A2AF75C9337
:1006F0006B6CF9676DC11BFCE0E40D47FEF520E66D
:10070000B500D0ED902E0300943577050080841E4F
:10071000080000204E0A000000C80C333333330FAA
:10072000986E12831141EF8D2114893BE65516CF47
:10073000FEE6DB18D1844B381BF77C1D901DA4BB53
:10074000E424203284725E228100C9F124ECA1E508
:100750003D2700000A0B02090C0D0E0807030401D7
:100760000000000000000000000000000000000089
:100770000000000000000000000000000000121156
:100780001000000000000000000000000000000059
:100790000000000000000000000302050003050146
:1007A000040602047C3C3E5E2B3D3F2F5B5D3B2CF0
:1007B0002A225C001F1C1F1E1F1E1F1F1E1F1E1F24
:1007C00000002200250028002B002E0031003400FC
:1007D00002010000050108010B01000021002400B6
:1007E00027002A002D003000330001010000040121
:1007F00007010A01050505050705080808080202A2
:1008000002020A0A080804040404010101010101AA
:1008100001010303030303030303040707070C0C8D
:100820000C0C0C0C0C0C0202020206060606060654
:1008300006060B0B0B0B0B0B0B0B010210202008F9
:10084000081020401020408002010201080402012B
:10085000010204081020408080402010080402019A
:1008600080040201804020100804020108040201F3
:10087000010204081020408001020408102040807A
:100880000863006311241FBECFEFD1E2DEBFCDBFEE
:1008900000E00CBF26E1A0E5BCE001C01D92A83E2F
:1008A000B207E1F71CE0A0E0B2E0E6EFFBED00E00C
:1008B0000BBF02C007900D92A035B107D9F714E025
:1008C000C1E4D4E000E006C021970109802FFE01B9
:1008D0000E949D68C034D10780E00807A9F70E94F4
:1008E0006A4C0C94E96D0C940000FC013197E831DE
:1008F000F10508F04DC08827EE58FF4F8F4F0C943C
:100900009D6887E190E0089588E190E0089589E18D
:1009100090E008958AE190E008958BE190E00895D9
:100920008CE190E008958DE190E008958EE190E0F3
:1009300008958FE190E0089580E290E0089581E2CB
:1009400090E0089582E290E0089583E290E00895B7
:1009500084E290E0089585E290E0089586E290E0D8
:10096000089587E290E0089588E290E0089589E292
:1009700090E008958AE290E008958BE290E0089577
:100980008CE290E008958DE290E0089586E190E099
:100990000895AF92BF92CF92DF92EF92FF920F93A2
:1009A0001F93CF93DF935C016A017B01E9010E94F1
:1009B0007504182F092F81EB96E10E94942460E0C2
:1009C00083E00E949B1B63E975E081EB96E10E9446
:1009D000684CB701A60181EB96E10E94B01B69E368
:1009E00075E081EB96E10E94684C61E082E00E9434
:1009F0009B1B60E081EB96E10E948B2469E173E030
:100A000081EB96E10E94684CB50181EB96E10E9472
:100A1000611B6DE375E081EB96E10E94684C612FEC
:100A2000702F81EB96E10E94611B60E0812F0E9494
:100A3000F31DC701B6010E94701E61E0812F0E9464
:100A4000F31DBE0180E090E00E94701E81EB96E1F4
:100A50000E949424DF91CF911F910F91FF90EF900E
:100A6000DF90CF90BF90AF90089581EB96E10E9408
:100A7000942461E086E00E949B1B61E081EB96E19B
:100A80000E948B2461E088E00E949B1B64E475E077
:100A900081EB96E10E94684C68EE73E080E090E0A4
:100AA0000E94701E28EE33E04FE550E060E070E0F9
:100AB00081E090E00E94C90428EE33E049E650E06E
:100AC00060E070E082E090E00E94C90424EF31E031
:100AD00044E650E060E070E083E090E00E94C904EA
:100AE00020ED37E044E650E060E070E084E090E024
:100AF0000E94C90428EE33E044E650E060E070E074
:100B000085E090E00E94C90428EE33E044E650E01E
:100B100060E070E086E090E00E94C90428EE33E0D7
:100B200044E650E060E070E087E090E00E94C90495
:100B300028EE33E044E650E060E070E088E090E0CA
:100B40000C94C90440913E1450913F14609140149C
:100B5000709141149C0180E190E00C94C904409193
:100B600042145091431460914414709145149C01B7
:100B70008FE090E00C94C90440914A1450914B14BA
:100B800060914C1470914D149C018DE090E00C9498
:100B9000C90440914E1450914F14609150147091BB
:100BA00051149C018CE090E00C94C90440915214C3
:100BB0005091531460915414709155149C018BE022
:100BC00090E00C94C90440916214509163146091B8
:100BD0006414709165149C0187E090E00C94C90442
:100BE0004091661450916714609168147091691473
:100BF0009C0186E090E00C94C90440916A145091E5
:100C00006B1460916C1470916D149C0185E090E000
:100C10000C94C90440916E1450916F14609170143B
:100C2000709171149C0184E090E00C94C904FC0163
:100C30003197E831F10508F0DEC08827E657FF4F0D
:100C40008F4F0C949D6860917A1470917B14809101
:100C50007C1490917D1408956091761470917714AE
:100C60008091781490917914089560917214709124
:100C700073148091741490917514089560916E149A
:100C800070916F1480917014909171140895609117
:100C90006A1470916B1480916C1490916D14089586
:100CA0006091661470916714809168149091691432
:100CB000089560916214709163148091641490910E
:100CC0006514089560915E1470915F1480916014B2
:100CD00090916114089560915A1470915B14809101
:100CE0005C1490915D14089560915614709157149E
:100CF00080915814909159140895609152147091F4
:100D000053148091541490915514089560914E1489
:100D100070914F14809150149091511408956091E6
:100D20004A1470914B1480914C1490914D14089575
:100D30006091461470914714809148149091491421
:100D400008956091421470914314809144149091DD
:100D50004514089560913E1470913F1480914014A1
:100D600090914114089560913A1470913B148091D0
:100D70003C1490913D14089560913614709137148D
:100D800080913814909139140895609132147091C3
:100D900033148091341490913514089560912E1479
:100DA00070912F14809130149091311408956091B6
:100DB0002A1470912B1480912C1490912D14089565
:100DC0006091261470912714809128149091291411
:100DD00008956091221470912314809124149091AD
:100DE0002514089560911E1470911F148091201491
:100DF00090912114089564E670E080E090E00895F9
:100E00002F923F924F925F926F927F928F929F921A
:100E1000AF92BF92CF92DF92EF92FF920F931F9308
:100E2000CF93DF93CDB7DEB7AF970FB6F894DEBFA1
:100E30000FBECDBF2C013B011A013A8329839FA627
:100E40008EA60E9475048E83C3010E9475048F8351
:100E5000C1010E947504888789819A810E94750466
:100E60008987C8010E9475048A87C7010E9475049A
:100E70008B87C6010E9475048C87C5010E9475048A
:100E80008D87C2010E9417066E877F87888B998B9A
:100E9000C3010E9417066A8B7B8B8C8B9D8BC101D3
:100EA0000E9417066E8B7F8B888F998F89819A811C
:100EB0000E9417066A8F7B8F8C8F9D8FC8010E94BE
:100EC00017066E8F7F8F88A399A3C7010E9417060C
:100ED0006AA37BA38CA39DA3C6010E9417066EA3E1
:100EE0007FA388A799A7C5010E9417066AA77BA7B9
:100EF0008CA79DA781EB96E10E94942460E083E09B
:100F00000E949B1B60E081EB96E10E948B246FE4C2
:100F100075E081EB96E10E94684C61E080E00E9400
:100F20009B1BB20181EB96E10E94611B69E173E0BA
:100F300081EB96E10E94684CB30181EB96E10E943F
:100F4000611B69E173E081EB96E10E94684CB1019D
:100F500081EB96E10E94611B69E173E081EB96E110
:100F60000E94684C69817A8181EB96E10E94611B45
:100F700069E173E081EB96E10E94684CB80181EB76
:100F800096E10E94611B69E173E081EB96E10E94AA
:100F9000684CB70181EB96E10E94611B69E173E047
:100FA00081EB96E10E94684CB60181EB96E10E94CC
:100FB000611B69E173E081EB96E10E94684CB50129
:100FC00081EB96E10E94611B60E08E810E94F31D1F
:100FD00060E08F810E94F31D60E088850E94F31D10
:100FE00060E089850E94F31D60E08A850E94F31D00
:100FF00060E08B850E94F31D60E08C850E94F31DEC
:1010000060E08D850E94F31D0E94AA1E2B013C0109
:101010006093290270932A0280932B0290932C02F2
:1010200021E02D8331E03C832B833324339422242D
:101030002394398301E011E00E94AA1E60932502E7
:101040007093260280932702909328026B017C0103
:10105000C418D508E608F7088E859F85A889B98940
:10106000C816D906EA06FB0628F061E08E810E94C8
:10107000F31D10E08A899B89AC89BD89C816D90601
:10108000EA06FB0628F061E08F810E94F31D00E074
:101090008E899F89A88DB98DC816D906EA06FB06E8
:1010A00028F061E088850E94F31D19828A8D9B8D4E
:1010B000AC8DBD8DC816D906EA06FB0628F061E0A6
:1010C00089850E94F31D212C8E8D9F8DA8A1B9A129
:1010D000C816D906EA06FB0628F061E08A850E9458
:1010E000F31D312C8AA19BA1ACA1BDA1C816D906C4
:1010F000EA06FB0628F061E08B850E94F31D1B8247
:101100008EA19FA1A8A5B9A5C816D906EA06FB0617
:1011100028F061E08C850E94F31D1C828AA59BA5A6
:10112000ACA5BDA5C816D906EA06FB0628F061E005
:101130008D850E94F31D1D8211117ECF01117CCF80
:101140002981211179CF211077CF311075CF3B81C3
:10115000311172CF2C8121116FCF3D8131116CCFB4
:101160002EA53FA5B90180E090E0AF960FB6F894A8
:10117000DEBF0FBECDBFDF91CF911F910F91FF90CA
:10118000EF90DF90CF90BF90AF909F908F907F9027
:101190006F905F904F903F902F900C94701E2F9205
:1011A0003F924F925F926F927F928F929F92AF92F7
:1011B000BF92CF92DF92EF92FF920F931F93CF9344
:1011C000DF93CDB7DEB7A6970FB6F894DEBF0FBE9C
:1011D000CDBF4C017EA36DA31A013A832983BBA224
:1011E000AAA20E9475048B838DA19EA10E94750402
:1011F0008C83C1010E9475048D8389819A810E942C
:1012000075048E83C8010E9475048F83C7010E94F4
:1012100075048887C6010E9475048987C4010E94ED
:1012200017066A877B878C879D878DA19EA10E9468
:1012300017066E877F87888B998BC1010E941706DE
:101240006A8B7B8B8C8B9D8B89819A810E94170680
:101250006E8B7F8B888F998FC8010E9417066A8FCB
:101260007B8F8C8F9D8FC7010E9417062B013C013D
:10127000C6010E9417066E8F7F8F88A399A381EB0A
:1012800096E10E94942460E083E00E949B1B60E052
:1012900081EB96E10E948B2467E575E081EB96E196
:1012A0000E94684C61E080E00E949B1BB40181EBCE
:1012B00096E10E94611B69E173E081EB96E10E9477
:1012C000684C6DA17EA181EB96E10E94611B69E1F2
:1012D00073E081EB96E10E94684CB10181EB96E1ED
:1012E0000E94611B69E173E081EB96E10E94684C0A
:1012F00069817A8181EB96E10E94611B69E173E06B
:1013000081EB96E10E94684CB80181EB96E10E9466
:10131000611B69E173E081EB96E10E94684CB701C3
:1013200081EB96E10E94611B69E173E081EB96E13C
:101330000E94684CB60181EB96E10E94611B60E05F
:101340008B810E94F31D60E08C810E94F31D60E0A0
:101350008D810E94F31D60E08E810E94F31D60E08C
:101360008F810E94F31D60E088850E94F31D60E07C
:1013700089850E94F31D0E94AA1E4B015C016093A7
:10138000290270932A0280932B0290932C0221E071
:1013900029832224239411E03324339401E031E0A3
:1013A0003DA32CA30E94AA1E6093250270932602DF
:1013B00080932702909328026B017C01C818D908FA
:1013C000EA08FB088A859B85AC85BD85C816D906C9
:1013D000EA06FB0628F061E08B810E94F31D1CA247
:1013E0008E859F85A889B989C816D906EA06FB06A5
:1013F00028F061E08C810E94F31D1DA28A899B89DF
:10140000AC89BD89C816D906EA06FB0628F061E05A
:101410008D810E94F31D00E08E899F89A88DB98D72
:10142000C816D906EA06FB0628F061E08E810E9404
:10143000F31D312C8A8D9B8DAC8DBD8DC816D906C0
:10144000EA06FB0628F061E08F810E94F31D10E0A0
:10145000C414D504E604F70428F061E088850E94EE
:10146000F31D212C8E8D9F8DA8A1B9A1C816D90678
:10147000EA06FB0628F061E089850E94F31D1982C7
:101480002CA121118FCF3DA131118CCF01118ACF19
:10149000311088CF111186CF211084CF29812111DD
:1014A00081CF2AA13BA1B90180E090E0A6960FB6BA
:1014B000F894DEBF0FBECDBFDF91CF911F910F918A
:1014C000FF90EF90DF90CF90BF90AF909F908F9064
:1014D0007F906F905F904F903F902F900C94701E74
:1014E0002F923F924F925F926F927F928F929F9234
:1014F000AF92BF92CF92DF92EF92FF920F931F9322
:10150000CF93DF93CDB7DEB76F970FB6F894DEBFFA
:101510000FBECDBF5C017F8F6E8F4A011901DC8E3B
:10152000CB8E0E94750489838E8D9F8D0E947504D9
:101530008A83C4010E9475048B83C1010E947504D3
:101540008C83C8010E9475048D83C7010E947504B5
:101550008E83C5010E9417066F83788789879A87D3
:101560008E8D9F8D0E9417066B877C878D879E8747
:10157000C4010E9417066F87788B898B9A8BC101F3
:101580000E9417066B8B7C8B8D8B9E8BC8010E94F3
:1015900017062B013C01C7010E9417066F8B788F3D
:1015A000898F9A8F81EB96E10E94942460E083E01A
:1015B0000E949B1B60E081EB96E10E948B246FE50B
:1015C00075E081EB96E10E94684C61E080E00E944A
:1015D0009B1BB50181EB96E10E94611B69E173E001
:1015E00081EB96E10E94684C6E8D7F8D81EB96E1D8
:1015F0000E94611B69E173E081EB96E10E94684CF7
:10160000B40181EB96E10E94611B69E173E081EB1B
:1016100096E10E94684CB10181EB96E10E94611B4A
:1016200069E173E081EB96E10E94684CB80181EBBF
:1016300096E10E94611B69E173E081EB96E10E94F3
:10164000684CB70181EB96E10E94611B60E08981E3
:101650000E94F31D60E08A810E94F31D60E08B818F
:101660000E94F31D60E08C810E94F31D60E08D817B
:101670000E94F31D60E08E810E94F31D0E94AA1E4D
:101680004B015C016093290270932A0280932B0224
:1016900090932C02222423943324339401E011E00C
:1016A00021E02E8F31E03D8F0E94AA1E609325021B
:1016B0007093260280932702909328026B017C018D
:1016C000C818D908EA08FB088F819885A985BA85CA
:1016D000C816D906EA06FB0628F061E089810E9457
:1016E000F31D1D8E8B859C85AD85BE85C816D906DC
:1016F000EA06FB0628F061E08A810E94F31D1E8E37
:101700008F859889A989BA89C816D906EA06FB0681
:1017100028F061E08B810E94F31D10E08B899C8989
:10172000AD89BE89C816D906EA06FB0628F061E035
:101730008C810E94F31D00E0C414D504E604F70474
:1017400028F061E08D810E94F31D312C8F89988DE6
:10175000A98DBA8DC816D906EA06FB0628F061E005
:101760008E810E94F31D212C2D8D21119DCF3E8D48
:1017700031119ACF111198CF011196CF311094CF1A
:10178000211092CF2B8D3C8DB90180E090E06F96B7
:101790000FB6F894DEBF0FBECDBFDF91CF911F9182
:1017A0000F91FF90EF90DF90CF90BF90AF909F9000
:1017B0008F907F906F905F904F903F902F900C9400
:1017C000701E2F923F924F925F926F927F928F92F4
:1017D0009F92AF92BF92CF92DF92EF92FF920F93C0
:1017E0001F93CF93DF93CDB7DEB769970FB6F89409
:1017F000DEBF0FBECDBF998F888F6B011A014901E3
:101800005801FE8AED8A0E9475048A83C6010E94EF
:1018100075048B83C1010E9475048C83C4010E94EE
:101820007504082FC5010E947504182F888D998DA5
:101830000E9417066D837E838F839887C6010E945E
:10184000170669877A878B879C87C1010E941706D4
:101850006D877E878F87988BC4010E941706698BDE
:101860007A8B8B8B9C8BC5010E9417062B013C0148
:1018700081EB96E10E94942460E083E00E949B1B30
:1018800060E081EB96E10E948B2467E675E081EBD6
:1018900096E10E94684C61E080E00E949B1B688D8D
:1018A000798D81EB96E10E94611B69E173E081EB28
:1018B00096E10E94684CB60181EB96E10E94611BA3
:1018C00069E173E081EB96E10E94684CB10181EB24
:1018D00096E10E94611B69E173E081EB96E10E9451
:1018E000684CB40181EB96E10E94611B69E173E0F1
:1018F00081EB96E10E94684CB50181EB96E10E9474
:10190000611B60E08A810E94F31D60E08B810E9470
:10191000F31D60E08C810E94F31D60E0802F0E9427
:10192000F31D60E0812F0E94F31D0E94AA1E4B014F
:101930005C016093290270932A0280932B0290939A
:101940002C0221E02983222423943324339431E090
:10195000388F2F8B0E94AA1E609325027093260257
:1019600080932702909328026B017C01C818D90844
:10197000EA08FB088D819E81AF81B885C816D9061B
:10198000EA06FB0628F061E08A810E94F31D1F8AA7
:1019900089859A85AB85BC85C816D906EA06FB06FB
:1019A00028F061E08B810E94F31D188E8D859E8545
:1019B000AF85B889C816D906EA06FB0628F061E0AB
:1019C0008C810E94F31D312C89899A89AB89BC894D
:1019D000C816D906EA06FB0628F061E0802F0E94AF
:1019E000F31D212CC414D504E604F70428F061E0AB
:1019F000812F0E94F31D19822F892111ABCF388DC1
:101A00003111A8CF3110A6CF2110A4CF29812111E7
:101A1000A1CF2D893E89B90180E090E069960FB68B
:101A2000F894DEBF0FBECDBFDF91CF911F910F9114
:101A3000FF90EF90DF90CF90BF90AF909F908F90EE
:101A40007F906F905F904F903F902F900C94701EFE
:101A50002F923F924F925F926F927F928F929F92BE
:101A6000AF92BF92CF92DF92EF92FF920F931F93AC
:101A7000CF93DF93CDB7DEB762970FB6F894DEBF92
:101A80000FBECDBF7C016B015A011901188B0F8766
:101A90000E9475048983C6010E9475048A83C5016A
:101AA0000E947504082FC1010E947504182FC701F8
:101AB0000E9417066B837C838D839E83C6010E94E0
:101AC00017066F83788789879A87C5010E94170652
:101AD0002B013C01C1010E9417066B877C878D8713
:101AE0009E8781EB96E10E94942460E083E00E944F
:101AF0009B1B60E081EB96E10E948B246FE675E012
:101B000081EB96E10E94684C61E080E00E949B1BA3
:101B1000B70181EB96E10E94611B69E173E081EB03
:101B200096E10E94684CB60181EB96E10E94611B30
:101B300069E173E081EB96E10E94684CB50181EBAD
:101B400096E10E94611B69E173E081EB96E10E94DE
:101B5000684CB10181EB96E10E94611B60E08981D4
:101B60000E94F31D60E08A810E94F31D60E0802FD7
:101B70000E94F31D60E0812F0E94F31D0E94AA1EA7
:101B80006B017C016093290270932A0280932B02DF
:101B900090932C022224239421E02A8B31E0398B6C
:101BA000332433940E94AA1E609325027093260268
:101BB00080932702909328024B015C018C189D08AA
:101BC000AE08BF088B819C81AD81BE8188169906C5
:101BD000AA06BB0628F061E089810E94F31D312C22
:101BE0008F819885A985BA8588169906AA06BB06AD
:101BF00028F061E08A810E94F31D198A84149504FB
:101C0000A604B70428F061E0802F0E94F31D1A8A11
:101C10008B859C85AD85BE8588169906AA06BB0670
:101C200028F061E0812F0E94F31D212C3110BACFE2
:101C300029892111B7CF3A893111B4CF2110B2CF00
:101C40002F853889B90180E090E062960FB6F8944C
:101C5000DEBF0FBECDBFDF91CF911F910F91FF90DF
:101C6000EF90DF90CF90BF90AF909F908F907F903C
:101C70006F905F904F903F902F900C94701E2F921A
:101C80003F924F925F926F927F928F929F92AF920C
:101C9000BF92CF92DF92EF92FF920F931F93CF9359
:101CA000DF93CDB7DEB72C970FB6F894DEBF0FBE2B
:101CB000CDBF7C016B015A013A8729870E947504C8
:101CC000382EC6010E947504082FC5010E947504B4
:101CD000182FC7010E94170669837A838B839C8320
:101CE000C6010E9417062B013C01C5010E94170680
:101CF0006D837E838F83988781EB96E10E94942485
:101D000060E083E00E949B1B60E081EB96E10E9413
:101D10008B2467E775E081EB96E10E94684C61E0F7
:101D200080E00E949B1BB70181EB96E10E94611B42
:101D300069E173E081EB96E10E94684CB60181EBAA
:101D400096E10E94611B69E173E081EB96E10E94DC
:101D5000684CB50181EB96E10E94611B60E0832D28
:101D60000E94F31D60E0802F0E94F31D60E0812F30
:101D70000E94F31D0E94AA1E6B017C016093290240
:101D800070932A0280932B0290932C022224239496
:101D900021E02B8731E03C870E94AA1E6093250238
:101DA0007093260280932702909328024B015C01D6
:101DB0008C189D08AE08BF0889819A81AB81BC81CF
:101DC00088169906AA06BB0628F061E0832D0E94BA
:101DD000F31D1C8684149504A604B70428F061E062
:101DE000802F0E94F31D1B868D819E81AF81B88557
:101DF00088169906AA06BB0628F061E0812F0E948A
:101E0000F31D212C2C852111C7CF3B853111C4CF67
:101E10002110C2CF29853A85B90180E090E02C9647
:101E20000FB6F894DEBF0FBECDBFDF91CF911F91EB
:101E30000F91FF90EF90DF90CF90BF90AF909F9069
:101E40008F907F906F905F904F903F902F900C9469
:101E5000701E2F923F924F925F926F927F928F925D
:101E60009F92AF92BF92CF92DF92EF92FF920F9329
:101E70001F93CF93DF9300D000D0CDB7DEB77C01A6
:101E80008B015E834D830E947504382EC8010E9429
:101E90007504282EC7010E94170669837A838B83F5
:101EA0009C83C8010E9417064B015C0181EB96E1FF
:101EB0000E94942460E083E00E949B1B60E081EB21
:101EC00096E10E948B246FE775E081EB96E10E941A
:101ED000684C61E080E00E949B1BB70181EB96E1BA
:101EE0000E94611B69E173E081EB96E10E94684CFE
:101EF000B80181EB96E10E94611B60E0832D0E9496
:101F0000F31D60E0822D0E94F31D0E94AA1E6B014A
:101F10007C016093290270932A0280932B02909394
:101F20002C0211E001E00E94AA1E6093250270932A
:101F3000260280932702909328022B013C014C1823
:101F40005D086E087F0889819A81AB81BC81481643
:101F500059066A067B0668F061E0832D0E94F31D36
:101F6000481459046A047B0450F41123A1F000E0E2
:101F7000DACF481459046A047B0450F001C000E031
:101F800061E0822D0E94F31D002329F010E0CBCFE9
:101F9000002359F3C8CF2D813E81B90180E090E044
:101FA00026960FB6F894DEBF0FBECDBFDF91CF915E
:101FB0001F910F91FF90EF90DF90CF90BF90AF9067
:101FC0009F908F907F906F905F904F903F902F9059
:101FD0000C94701E8F929F92AF92BF92EF92FF92DD
:101FE0000F931F93CF93DF937C01EB010E94750445
:101FF000182F092FC7010E9417064B015C0181EBC6
:1020000096E10E94942460E083E00E949B1B63E9B8
:1020100075E081EB96E10E94684CB501A40181EB6B
:1020200096E10E94B01B69E375E081EB96E10E94A6
:10203000684C61E082E00E949B1B60E081EB96E1CE
:102040000E948B2469E173E081EB96E10E94684C69
:10205000B70181EB96E10E94611B6DE375E081EBB6
:1020600096E10E94684C612F702F81EB96E10E94EF
:10207000611B60E0812F0E94F31DC501B4010E9425
:10208000701E61E0812F0E94F31DBE0180E090E090
:102090000E94701E81EB96E10E949424DF91CF9103
:1020A0001F910F91FF90EF90BF90AF909F908F90F6
:1020B00008958F929F92AF92BF92CF92DF92EF924C
:1020C000FF920F931F9381EB96E10E94942461E0AD
:1020D00086E00E949B1B61E081EB96E10E948B24CD
:1020E00061E088E00E949B1B67E875E081EB96E168
:1020F0000E94684C68EE73E080E090E00E94701EE1
:1021000064EF71E081E090E00E94EA0F64EF71E01B
:1021100082E090E00E94EA0F64EF71E083E090E0DB
:102120000E94EA0F64EF71E084E090E00E94EA0F01
:1021300064EF71E085E090E00E94EA0F64EF71E0E7
:1021400086E090E00E94EA0F64EF71E087E090E0A3
:102150000E94EA0F64EF71E088E090E00E94EA0FCD
:1021600044EF51E062E070E081E090E00E94290FCE
:1021700024EF31E043E050E062E070E081E090E085
:102180000E943F0E04EF11E024E030E043E050E015
:1021900062E070E081E090E00E94280D84EFE82E7C
:1021A000FF24F39405E010E024E030E043E050E049
:1021B00062E070E081E090E00E94E10B94EFC92EB4
:1021C000DD24D39426E0E22EF12C24E030E043E03D
:1021D00050E062E070E081E090E00E94700A34EF2D
:1021E000A32EBB24B39447E0C42ED12C24E030E0CE
:1021F00043E050E062E070E081E090E00E94CF08B0
:1022000054EF852E9924939468E0A62EB12C24E0F7
:1022100030E043E050E062E070E081E090E00E9456
:1022200000071F910F91FF90EF90DF90CF90BF902C
:10223000AF909F908F900895CF92DF92EF92FF9290
:10224000CF93DF93EC016A017B0181EB96E10E9461
:10225000942460E080E00E949B1B60E081EB96E1AB
:102260000E948B2460E082E00E949B1BBE0181EBF8
:1022700096E10E94611B60E084E00E949B1B62E982
:1022800075E081EB96E10E94684C60E089E00E9475
:102290009B1BB701A60181EB96E10E94B01B60E099
:1022A0008EE00E949B1B68E374E081EB96E1DF9176
:1022B000CF91FF90EF90DF90CF900C94684CDF921D
:1022C000EF92FF920F931F93CF93DF9300D01F9253
:1022D000CDB7DEB7880F991F880F991F8E010F5F4A
:1022E0001F4F7C01E01AF10A34E0D32ED00EC70153
:1022F000800F911F0E94A567F80181938F01DE1264
:10230000F6CF69817A818B819C810F900F900F901D
:102310000F90DF91CF911F910F91FF90EF90DF9081
:102320000895CF92DF92EF92FF920F931F93CF9376
:10233000DF9300D01F92CDB7DEB78C010E94170645
:102340006B017C01C8010E945F116C157D058E0533
:102350009F05C1F0C982DA82EB82FC82000F111F57
:10236000000F111FCE0101967C0194E0D92EDE0CE6
:10237000F70161917F01C8010E94AD670F5F1F4F98
:10238000DE10F6CF0F900F900F900F90DF91CF914E
:102390001F910F91FF90EF90DF90CF900895809163
:1023A0007B00877F80937B0080E480937C0080911A
:1023B0007A00806480937A0080917A0086FDFCCF59
:1023C000209178008091790030E0382B233431055A
:1023D0008CF02D3D310584F02C3881E0380774F005
:1023E0002A3592E0390764F081E0293633404CF019
:1023F00080E0089585E0089584E0089583E00895DD
:1024000082E008957F928F929F92AF92BF92CF9277
:10241000DF92EF92FF920F931F93CF93DF9344E6E7
:1024200050E060E070E08CE090E00E941C1161E000
:1024300080E00E949B1B64E081EB96E10E948B246C
:102440000CE010E064E6C62ED12CE12CF12CC1E0AA
:10245000712C812C912C540183940E94CF118823DC
:10246000E1F38130D9F4C13009F447C0C23009F436
:102470003CC0C330C1F5AAE0B0E0A50194010E94C0
:10248000BB674B015C0185E688169104A104B10489
:10249000B0F1812C912C5401839431C0823029F405
:1024A000C15009F06DC0C4E06BC0833081F5C1300C
:1024B00021F1C23049F401501109D1E01016110682
:1024C000FCF008E110E01CC0C33069F4C818D9085A
:1024D000EA08FB08D1E0A1F44FE0C42E47E2D42E75
:1024E000E12CF12C0DC0C43051F420E030E0B701F4
:1024F000A601C8010E94C90402C0D0E001C0D1E019
:1025000068EC70E080E090E00E94701E40C0843073
:1025100089F5C13049F468EC70E080E090E00E94F9
:10252000701E0E94BD3C2CC0C23041F40F5F1F4F93
:10253000093111052CF101E010E022C0C33081F413
:10254000C80CD91CEA1CFB1C80E1C81687E2D8061F
:10255000E104F104A8F0C12CD12C7601C39410C081
:10256000C43071F420E030E0B701A601C8010E9438
:10257000C90406C0853051F4CF5FC53008F0C1E012
:1025800068EC70E080E090E00E94701ED1E0C23004
:1025900061F020F4C13071F4712C0CC0C33041F0F3
:1025A000C43041F48EE0782E05C022E0722E02C0C5
:1025B00099E0792EB701A601C8010E941C1161E0C3
:1025C000872D0E949B1B64E081EB96E10E948B2487
:1025D000C33031F4B501A40181EB96E10E94B01B38
:1025E000D1113BCFDF91CF911F910F91FF90EF90D1
:1025F000DF90CF90BF90AF909F908F907F90089585
:10260000CF92DF92EF92FF920F931F93CF93DF93BE
:10261000C3EBD1E1CE010E94BC1A8E8190E0909371
:102620008214809381148D8190E090932202809394
:1026300021028C8190E09093801480937F148B8191
:1026400090E090938414809383148F8190E0909312
:10265000C4118093C3118A8190E090938614809373
:102660008514888199819093881480938714C090F1
:10267000B311D090B411E090B511F090B611009163
:10268000B7111091B8112091B9113091BA11409140
:10269000BB115091BC116091BD117091BE1188E9C0
:1026A00095E00E94C118BC018BEA96E1DF91CF91C1
:1026B0001F910F91FF90EF90DF90CF900C94F41F3B
:1026C000AF92BF92CF92DF92EF92FF920F931F9340
:1026D000CF93DF93CDB7DEB7A7970FB6F894DEBFE1
:1026E0000FBECDBF83EB91E10E94BC1A8091B8115F
:1026F00090E020912102309122028217930709F481
:10270000A6C0909322028093210281EB96E10E9461
:102710009424C090B311D090B411E090B511F09012
:10272000B6110091B7111091B8112091B9113091E3
:10273000BA114091BB115091BC116091BD117091C3
:10274000BE118AE995E00E94C118BC0181EB96E1B7
:102750000E94684C61E080E00E949B1B64EA75E087
:1027600081EB96E10E94684C81E08093A71488E693
:102770008093C9141092A8141092CA1481E190E0B9
:102780000E9450480E94F34782E090E00E94AA47CE
:102790009091F2148091F3149817F1F38EE496E17E
:1027A0000E948021182F8EE496E10E9480211BA2B6
:1027B0001AA21DA21CA21FA21EA2B12EA12CB501FD
:1027C000682B86E0759567958A95E1F7072E000CD2
:1027D000880B990B0E94886620E030E040E85EE3B9
:1027E0000E94E7668E010F5F1F4F22E044E00E94C7
:1027F000BB63BC01CE0182960E94F41FBE016E5DD8
:102800007F4F81EB96E10E94D44BCE0182960E94CD
:10281000734B0E94001361E08FE00E949B1B60914C
:10282000C3117091C41181EB96E10E94611B8091EC
:10283000500C81110CC08091C3119091C411069766
:1028400024F081E08093000202C010920002909177
:10285000000280918511992341F0811106C061E049
:102860008CE00E949B1B62E00DC0882379F061E040
:102870008BE00E949B1B6AEA75E081EB96E10E9467
:10288000684C66E081EB96E10E948B24A7960FB618
:10289000F894DEBF0FBECDBFDF91CF911F910F9196
:1028A000FF90EF90DF90CF90BF90AF900895DF92B0
:1028B000EF92FF920F931F93CF93DF93CDB7DEB7C5
:1028C000A1970FB6F894DEBF0FBECDBF9FEF980F54
:1028D000963408F0E7C09C3208F07FC0082F10E063
:1028E00063E279E081EB95E10E94404CB801CE01B2
:1028F00001960E946842BE016F5F7F4F81EB95E1B8
:102900000E94D44BCE0101960E94734B6DEA75E094
:1029100081EB95E10E94404C63E279E081EB95E127
:102920000E94404CB801CE0101960E946842CE013F
:1029300001960E949E4AF82ECE0101960E94734B8A
:10294000FF2009F447C0B801CE014C960E946842AE
:102950006C8D7D8D41E0CE0101960E94E248CE0152
:1029600001960E94A54ACE014C960E94734B0E948C
:10297000E34A882399F001E010E0E12CF12C9AE081
:10298000D92E89EC96E10E948C28892B09F480C00D
:102990000B3481E018070CF44CC07AC066E074E098
:1029A00081EB95E10E94404C66E074E084E195E1A2
:1029B0000E94404C81EB96E10E94942466E074E012
:1029C00081EB96E10E94684C68E873E180E090E05A
:1029D0000E94701E0E94F73E29C090E0FC01BD9746
:1029E000EA31F10518F58827EE55FF4F8F4F0C940B
:1029F0009D680E9435051AC00E94591017C00E9498
:102A00008C4614C00E946D4511C00E9434440EC013
:102A10000E9463430BC00E94304308C00E94D3420F
:102A200005C00E949E4202C00E9404170E946013CB
:102A300039C089EC96E10E94A22F282F082E000CA5
:102A4000330B205331092A30310548F4DE9CC00194
:102A5000DF9C900D11247C01E20EF31E92CF8C328C
:102A600051F4F801EE0FFF1FEF5AF34FF182E082AD
:102A70000F5F1F4F0AC08E3209F083CFF801EE0FAF
:102A8000FF1FE751F14FF182E082E12CF12C79CF69
:102A9000000F111FF801EF5AF34F118210820E94AC
:102AA000D04A98CFA1960FB6F894DEBF0FBECDBF27
:102AB000DF91CF911F910F91FF90EF90DF900895DC
:102AC0008F929F92AF92BF92EF92FF920F931F93BC
:102AD000CF93DF93EC01892B11F4C8E1D0E0809112
:102AE000210290912202892B49F0209121023091FC
:102AF00022022115310509F051C083C080910102E5
:102B0000882339F0FE01EF5FFD4F808181110E9423
:102B1000571480911E02882341F3FE01EF5FFD4FA1
:102B20008081882311F368EE73E080E090E00E94DA
:102B3000701E86E190E00E9417064B015C017E0149
:102B4000CD30D1051CF08CE0E81AF10800E010E06F
:102B50000E151F0554F681EB96E10E94942461E066
:102B600087E00E949B1B65E081EB96E10E948B242D
:102B70000F5F1F4FB80181EB96E10E94611B64EC6F
:102B800079E080E090E00E94701E24EC39E0B5010D
:102B9000A40186E190E00E94C904DACF80911A0274
:102BA000813079F5CE0101968931910514F081E0EB
:102BB00090E0CF5FDD4F4881442319F1FC01EF5FC6
:102BC000FD4F80818823E9F02F30310519F4809181
:102BD0001B020BC02E31310519F480911C0205C077
:102BE0002D32310571F480911D02DF91CF911F913B
:102BF0000F91FF90EF90BF90AF909F908F900C94AB
:102C00005714DF91CF911F910F91FF90EF90BF90DC
:102C1000AF909F908F900895CF930E940013809162
:102C2000500C81110CC08091C3119091C411069772
:102C300024F081E08093000202C010920002809193
:102C4000210290912202009709F050C08091C21198
:102C50008111D8C0C1E0C093C2111092C11110926D
:102C6000C0111092BF1181EB96E10E94942461E0A3
:102C700086E00E949B1B61E081EB96E10E948B2421
:102C800061E088E00E949B1B60917F14709180142A
:102C900081EB96E10E94611B62EB75E081EB96E1AE
:102CA0000E94684C68EE73E080E090E00E94701E25
:102CB00081EB96E10E94942480917F14909180147E
:102CC0008130910571F41092500C2091C311309114
:102CD000C411263031051CF0C093000202C01092CE
:102CE0000002609121027091220281C08F30910513
:102CF00009F58091C111811185C01092C21181E046
:102D00008093C1111092C0111092BF1181EB96E116
:102D10000E94942461E086E00E949B1B61E081EBAD
:102D200096E10E948B2461E088E00E949B1B64EB8B
:102D300075E047C08E31910509F58091C011811170
:102D400061C01092C2111092C11181E08093C01134
:102D50001092BF1181EB96E10E94942461E086E01D
:102D60000E949B1B61E081EB96E10E948B2461E055
:102D700088E00E949B1B68EB75E023C08D9709F0EB
:102D800041C08091BF1181113DC01092C2111092BB
:102D9000C1111092C01181E08093BF1181EB96E1C7
:102DA0000E94942461E086E00E949B1B61E081EB1D
:102DB00096E10E948B2461E088E00E949B1B6CEBF3
:102DC00075E081EB96E10E94684C68EE73E080E06C
:102DD00090E00E94701E81EB96E10E949424609125
:102DE00021027091220280917F14909180140E94A0
:102DF00060158DE390E09093220280932102CF91A1
:102E00000C946013CF910895CF92DF92EF92FF92CE
:102E100086E190E00E9417066B017C0181EB96E150
:102E20000E94942460E082E00E949B1B60E081EBA2
:102E300096E10E948B2460E084E00E949B1B60EC82
:102E400075E081EB96E10E94684C68EE73E080E0EB
:102E500090E00E94701E20ED37E0B701A60186E1E8
:102E600090E00E94C90481EB96E10E94942460E006
:102E700082E00E949B1B60E081EB96E10E948B2424
:102E800060E084E00E949B1B60EC75E081EB96E1C2
:102E90000E94684C60ED77E080E090E00E94701E38
:102EA0000E9400138091210290912202892B99F6B1
:102EB00081EB96E10E949424FF90EF90DF90CF90F9
:102EC0000C940C1680912402813069F56BEC75E04E
:102ED00084E195E10E94404C61E073E084E195E17A
:102EE0000E94684C6DE873E084E195E10E94404CDB
:102EF00064ED75E084E195E10E94404C62EE75E07E
:102F000084E195E10E94684C6FEF75E084E195E102
:102F10000E94684C62E376E084E195E10E94684C8F
:102F20006FE576E0D6C08230D9F464EC73E084E1DA
:102F300095E10E94404C61E073E084E195E10E94DC
:102F4000684C66E876E084E195E10E94404C62E9D5
:102F500076E084E195E10E94404C6FE976E01CC088
:102F6000833009F564EC73E084E195E10E94404C04
:102F700061E073E084E195E10E94684C69E177E0EB
:102F800084E195E10E94404C64E277E084E195E1C0
:102F90000E94404C61E377E084E195E10E94404C5F
:102FA00064E077E096C0843009F563E273E084E181
:102FB00095E10E94404C61E073E084E195E10E945C
:102FC000684C6CE273E084E195E10E94404C66E954
:102FD00077E084E195E10E94404C6DEA77E084E17E
:102FE00095E10E94404C6BED77E073C08530D9F4D9
:102FF00061E673E084E195E10E94404C61E073E09A
:1030000084E195E10E94684C69E373E084E195E115
:103010000E94404C6CE078E084E195E10E94404CD5
:1030200061E278E056C08630D9F464E478E084E167
:1030300095E10E94404C61E073E084E195E10E94DB
:10304000684C64E174E084E195E10E94404C6FE4D7
:1030500078E084E195E10E94404C64E678E039C074
:103060008730D9F467E878E084E195E10E94404C2C
:1030700061E073E084E195E10E94684C6FE878E0DC
:1030800084E195E10E94404C6BE978E084E195E1B0
:103090000E94404C6BEA78E01CC08830F1F463EC8D
:1030A00078E084E195E10E94404C61E073E084E1C6
:1030B00095E10E94684C6DEC78E084E195E10E9416
:1030C000404C6BED78E084E195E10E94404C65EE68
:1030D00078E084E195E10C94404C08953FB7F89472
:1030E0008091CC139091CD13A091CE13B091CF13BA
:1030F00026B5A89B05C02F3F19F00196A11DB11D53
:103100003FBFBA2FA92F982F8827820F911DA11D8D
:10311000B11DBC01CD0142E0660F771F881F991FCA
:103120004A95D1F70895EF92FF920F931F93CF9393
:10313000DF93FC01248135816115710511F480E074
:1031400019C041155105A9F07B01EC018A01020F5C
:10315000131FB8010E944C4B882389F328813981C1
:103160008C819D81B701820F931F0E94EC6A1D83A1
:103170000C8381E0DF91CF911F910F91FF90EF9031
:1031800008952F923F924F925F926F927F928F920B
:103190009F92AF92BF92CF92DF92EF92FF920F93E6
:1031A0001F93CF93DF93CDB7DEB7C052D1400FB698
:1031B000F894DEBF0FBECDBFF82FE92FC55FDE4FFD
:1031C000C882CB50D140C45FDE4FD882CC50D140B2
:1031D000C05FDE4F1883C051D140CF5EDE4F2883E1
:1031E000C151D140CD5EDE4F4883C351D140CC5E4A
:1031F000DE4F5883C451D140CB5EDE4F6883C5514A
:10320000D140CA5EDE4F7883C651D140C55FDE4FE4
:10321000A880B980CB50D1401E2D1982632E712C0D
:10322000C301079667E070E00E946768E82EC25EFF
:10323000DE4F9883CE51D1408F2D6AE00E944768BF
:10324000C95EDE4F9883C751D1408F2E9E2E6E01EE
:10325000D394250143E044225524812F90E0DC01E2
:10326000AD54B84FC15EDE4FB983A883CF51D14072
:103270002FEF210FC85EDE4F2883C851D140822F27
:1032800090E0880F991FAC0141595D4FC65EDE4F3B
:1032900059834883CA51D1403150C75EDE4F3883CD
:1032A000C951D140832F90E0880F991F9C01295765
:1032B0003D4FC45EDE4F39832883CC51D140B401E9
:1032C000D401ED914D01EE2309F43AC18E2FEE0F9A
:1032D000990BAA0BBB0BFC01E154F109EA33F10590
:1032E00008F025C18827E454FF4F8F4F0C949D6848
:1032F0001F92FF92DDC01F92FF92B6C0C75EDE4FE5
:103300003881C951D140373008F05DC0C45EDE4F0E
:10331000A881B981CC51D14053C0C75EDE4F28810E
:10332000C951D140273008F061C0C45EDE4FA8818A
:10333000B981CC51D14057C07F926F9295C0C25E87
:10334000DE4F2881CE51D1402F93EF928DC041E0C6
:1033500061E0C5010E94EF4A1C014F2D612FC5019C
:103360000E94EF4A821993099F937DC0C95EDE4F88
:103370003881C751D140313039F0323041F03330EB
:1033800049F066E079E082C063E579E07FC060E003
:1033900079E07CC063E079E079C01F921F9388C018
:1033A0001F921F9361C0C85EDE4F2881C851D14073
:1033B0002C3048F4C65EDE4FA881B981CA51D14095
:1033C0006D917C9163C068EF78E060C0C85EDE4FAD
:1033D0002881C851D1402C3048F4C65EDE4FA88108
:1033E000B981CA51D1406D917C9102C068EF78E0FB
:1033F00043E050E09EC0C15EDE4FE881F981CF51CD
:10340000D1408491123071F54114510409F496C0F1
:1034100029C0BF92AF9228C0C501805D97409F939D
:1034200046C081E041145104E9F080E01BC01F92C6
:103430000F933EC01F920F9317C0002329F00D3049
:1034400028F084EF800F32C08CE030C0802F2EC077
:10345000002329F00D3028F084EF800F03C08CE0AA
:1034600001C0802F1F928F938AE199E023C00C3016
:1034700018F06CE079E00AC069E079E007C00C3030
:1034800018F06FE079E002C062E179E0CE010196C8
:103490000E94D66A14CFC05FDE4F8881C051D140F0
:1034A00005C0CF5EDE4F8881C151D1401F928F93FE
:1034B00085E199E09F938F93DF92CF920E94126BE8
:1034C000B601CE0101960E94D66A0F900F900F9020
:1034D0000F900F900F90F3CECA5EDE4F8881C651D9
:1034E000D1408F93CB5EDE4F8881C551D1408F9301
:1034F000CC5EDE4F8881C451D1408F93CD5EDE4FCC
:103500008881C351D1408F938DE199E09F938F9330
:10351000DF92CF920E94126BB601CE0101960E94FB
:10352000D66A0FB6F894DEBF0FBECDBFC8CE41E05D
:1035300050E0CE0101960E94F36AC1CE8F5F92CF18
:10354000CE010196C05EDE4F0FB6F894DEBF0FBE0F
:10355000CDBFDF91CF911F910F91FF90EF90DF9042
:10356000CF90BF90AF909F908F907F906F905F9023
:103570004F903F902F900895CF92DF92EF92FF925D
:103580000F931F93CF93DF93CDB7DEB72E970FB670
:10359000F894DEBF0FBECDBF8C0181E08093A714ED
:1035A00088E68093C9141092A8141092CA1480E07F
:1035B00090E00E9450480E94F34787E090E00E940C
:1035C000AA479091F2148091F3149817F1F37E01B9
:1035D0008FE0E80EF11CFE0131966F018EE496E15A
:1035E0000E948021282F82958F702F70FAE08F9F84
:1035F000200D112430E0F701329322937F01EC1566
:10360000FD0561F70E94F34789819A818053984FA5
:1036100090939C1480939B146B8160939D144D81B7
:1036200040939E142F812093A214D984D0929F148A
:10363000EB84E092A014FD84F092A1140E94EF4A62
:103640009C01A8E1B0E00E94C6679B01AC012D0D72
:10365000311D411D511DACE3B0E00E94BB679B01D1
:10366000AC012E0D311D411D511D0E94BB67DC01B7
:10367000CB018F0D911DA11DB11D80599A4CA249FE
:10368000B74C8093A3149093A414A093A514B09363
:10369000A6148CE0EBE9F4E1D80101900D928A9533
:1036A000E1F7C8012E960FB6F894DEBF0FBECDBF6E
:1036B000DF91CF911F910F91FF90EF90DF90CF900E
:1036C0000895CF92DF92EF92FF920F931F93CF93C3
:1036D000DF936B01770FEE08FF08F7FE1FC0EC01C8
:1036E000E881F9810190F081E02D6DE219958C015E
:1036F00044275527BA014C195D096E097F092AE054
:10370000CE010E94F74B800F911FDF91CF911F9147
:103710000F91FF90EF90DF90CF9008952AE0B701CE
:10372000A601DF91CF911F910F91FF90EF90DF9055
:10373000CF900C94F74B643008F063E09091C4167E
:10374000691710F06FEF690FE62FF0E0EF54F94EB4
:103750009489682F690F606881EB96E10C9491243D
:103760002AE00C94F74BAF92BF92CF92DF92EF9288
:10377000FF920F931F93CF93DF931F92CDB7DEB7C6
:103780005C01162FF42E81E08093A71488E68093C5
:10379000C9141092A8141092CA1480E090E02983F2
:1037A0000E9450485AE0D52E8E2D6D2D0E944768FC
:1037B000692F30E1839F600D11248EE496E10E9411
:1037C000CC21802F6D2D0E944768692F30E1839FA7
:1037D000600D11248EE496E10E94CC212981822F74
:1037E0006D2D0E944768692F20E1829F600D112492
:1037F0008EE496E10E94CC2181E090E0133010F03D
:1038000080E090E06501C81AD90AE12FF0E0E9569E
:10381000F84FE49196012F0D311DC60196958795BD
:1038200096958795280F391FC60160E971E00E94BF
:103830005368260F371FC60164E670E00E94536884
:10384000261B370BC9018E0F911D67E070E00E94A7
:103850005368009709F487E00AE0602F0E944768E8
:10386000692F8EE496E10E94CC218F2D602F0E945B
:103870004768692F30E1839F600D11248EE496E143
:103880000E94CC21812F602F0E944768692F20E180
:10389000829F600D11248EE496E10E94CC2180E38A
:1038A0008A0D602F0E944768692F30E1839F600D69
:1038B00011248EE496E10E94CC2180E090E00E94E9
:1038C00050480F90DF91CF911F910F91FF90EF9093
:1038D000DF90CF90BF90AF900C94F3478F929F9260
:1038E000AF92BF92CF92DF92EF92FF92CF93DF938E
:1038F000C82F8CE596E19093C6138093C513CC2313
:1039000069F1C53010F080E00DC140E060E070E08A
:10391000CB010E94D7248823B1F320E1C29FC001CC
:1039200011248B549E4EFC01E254FE4F20812F77D0
:1039300051F73C9640815181628173814436510533
:103940006105710500F33497C080D180E280F38077
:10395000C114D104E104F10421F4D5CFC12CD12C40
:10396000760140E0C701B6010E94D724882359F2AE
:103970008091D0119091D1118115924021F6A091A2
:10398000D511AA2309F4BFCF6091D3117091D4113E
:103990006115710509F4B7CF2091D211222309F4E2
:1039A000B2CFA0937A1620936C1680E030E0E1E06D
:1039B000F0E0C82FAF01082E02C0440F551F0A9433
:1039C000E2F72417350741F0982F8F5F983089F779
:1039D00089E08093751697CF809375162091DB113F
:1039E0003091DC112115310519F040E050E008C09C
:1039F0002091E9113091EA114091EB115091EC11B5
:103A000020936D1630936E1640936F165093701678
:103A100046015701860E971EA11CB11C80927B1691
:103A200090927C16A0927D16B0927E16E091D611EF
:103A3000F091D711F0938116E0938016B0E00E94C8
:103A4000BB67860E971EA81EB91E809282169092A2
:103A50008316A0928416B092851685E0EE0FFF1FA4
:103A60008A95E1F7E150FE4FEF2FFF27E6958E0E86
:103A70009F1EA11CB11C8092761690927716A09280
:103A80007816B09279162091D8113091D91121155C
:103A9000310521F0A90160E070E008C04091E51116
:103AA0005091E6116091E7117091E811D701C601BC
:103AB00088199909AA09BB09840F951FA61FB71F6A
:103AC00004C0B695A79597958795CA95D2F7809328
:103AD000711690937216A0937316B0937416853F67
:103AE0002FE09207A105B10510F48CE018C0853FC6
:103AF0009F4FA105B10510F480E111C08091F11133
:103B00009091F211A091F311B091F411809382166B
:103B100090938316A0938416B093851680E28093C9
:103B20007F1681E0DF91CF91FF90EF90DF90CF90F3
:103B3000BF90AF909F908F900895EF92FF920F9358
:103B40001F93CF93DF931F92CDB7DEB7162F8770E9
:103B500028E0829FC0011124682F606481EB96E108
:103B600079830E949124E12E7981F72E8701085FE5
:103B70001F4FF70161917F0181EB96E10E948B2439
:103B8000E016F106B1F70F90DF91CF911F910F91E1
:103B9000FF90EF9008950F931F93CF93DF93EC0165
:103BA000462F50E060E070E02AE00E94F74B8C0165
:103BB00061E279E0CE010E94E24B800F911FDF911C
:103BC000CF911F910F910895462F50E060E070E073
:103BD0002AE00C94F74BAC0160E070E02AE081EB46
:103BE00095E10C94F74B362F90E0FC01EE5AF84F1C
:103BF0004491FC01E65CF74F2491FC01EC50F84F36
:103C00009491992309F46BC0442309F455C050E002
:103C1000FA013197E231F10508F04EC08827EA50E9
:103C2000FF4F8F4F0C949D68809180008F7707C065
:103C3000809180008F7D03C080918000877F80937A
:103C400080003AC084B58F7702C084B58F7D84BD73
:103C500033C08091B0008F7703C08091B0008F7D1A
:103C60008093B00029C0809190008F7707C0809129
:103C700090008F7D03C080919000877F809390009B
:103C80001BC08091A0008F7707C08091A0008F7D1E
:103C900003C08091A000877F8093A0000DC0809119
:103CA00020018F7707C0809120018F7D03C0809114
:103CB0002001877F80932001E92FF0E0EE0FFF1FA6
:103CC000E054F84FA591B4918FB7F894EC9131116D
:103CD00003C020952E2301C02E2B2C938FBF089557
:103CE0008F929F92AF92BF92CF92DF92EF92FF920C
:103CF0006B017C010E946E184B015C01C114D10460
:103D0000E104F104F1F00E946E18DC01CB01881986
:103D10009909AA09BB09883E9340A105B10570F332
:103D200021E0C21AD108E108F10888EE880E83E08C
:103D3000981EA11CB11CC114D104E104F10419F7AF
:103D4000DDCFFF90EF90DF90CF90BF90AF909F902E
:103D50008F9008952FB7F8946091C8137091C9138C
:103D60008091CA139091CB132FBF08950F931F9387
:103D70000E94AA1E60931C1570931D1580931E153A
:103D800090931F15E0911415F09115150484F58595
:103D9000E02D84E195E1199597FF1FC00E94AA1EAE
:103DA00000911C1510911D1520911E1530911F15A5
:103DB000DC01CB01801B910BA20BB30B00911815FA
:103DC0001091191520911A1530911B158017910724
:103DD000A207B307B8F28FEF9FEF1F910F910895DD
:103DE000FF920F931F93CF93DF9300D01F92CDB715
:103DF000DEB70E94B61EFC0197FD11C08D32910501
:103E000091F0C0970A9778F0E0911415F09115158C
:103E10000284F385E02D84E195E11995EACF60E015
:103E200070E0CB014CC020E030E0A901F12CE13082
:103E3000F105F1F0ED32F105C9F0CF01C0970A9715
:103E4000B8F4AAE0B0E00E94BB678F01FF0F220B1D
:103E5000330BDC01CB01800F911FA21FB31F9C010C
:103E6000AD01205331094109510902C0FF24F394E7
:103E7000E0911415F09115150284F385E02D84E18D
:103E800095E129833A834B835C8319950E94B61E82
:103E9000FC01C09729813A814B815C810A9738F2F5
:103EA000E130F10521F2FF2041F066277727CB01B1
:103EB000621B730B840B950B02C0CA01B9010F90F2
:103EC0000F900F900F90DF91CF911F910F91FF9066
:103ED00008951F920F920FB60F9211242F933F93C4
:103EE0008F939F93AF93BF938091C8139091C91301
:103EF000A091CA13B091CB133091C71323E0230FC5
:103F00002D3720F40196A11DB11D05C026E8230F11
:103F10000296A11DB11D2093C7138093C8139093DF
:103F2000C913A093CA13B093CB138091CC13909173
:103F3000CD13A091CE13B091CF130196A11DB11D49
:103F40008093CC139093CD13A093CE13B093CF1343
:103F5000BF91AF919F918F913F912F910F900FBE85
:103F60000F901F9018956115710551F0FB0101909C
:103F70000020E9F73197AF01461B570B0C949318BB
:103F800080E00895FB0144815581608171810C942A
:103F90009318EF92FF920F931F93CF93DF93EC014F
:103FA0007B018A01BA010E944C4B28813981811121
:103FB0000DC02115310519F0C9010E943A69198215
:103FC00018821D821C821B821A8206C01D830C83EC
:103FD000B701C9010E94EC6ACE01DF91CF911F9118
:103FE0000F91FF90EF900895CF93DF93EC0161154F
:103FF000710559F0FB0101900020E9F73197AF01FD
:10400000461B570B0E94C91F0CC0888199810097DD
:1040100011F00E943A69198218821D821C821B824B
:104020001A82CE01DF91CF910895FC01A089B18958
:104030008C91A689B78982FD0FC09C91818D8F5F7D
:104040008F73228D821749F0218DDF01A20FB11DE0
:104050005D969C93818F08958C910895FC01538DFA
:10406000448D252F30E0842F90E0821B930B541752
:1040700010F0CF96089501970895FC01918D828DDF
:10408000981761F0828DDF01A80FB11D5D968C91AC
:10409000928D9F5F9F73928F90E008958FEF9FEFB7
:1040A0000895FC01918D828D981731F0828DE80F73
:1040B000F11D858D90E008958FEF9FEF0895FC012D
:1040C000918D228D892F90E0805C9F4F821B9109FA
:1040D0008F739927089584E195E10E945F2021E084
:1040E000892B09F420E0822F089581EB95E10E944D
:1040F0005F2021E0892B09F420E0822F0895FC0144
:10410000848DDF01A80FB11DA35ABF4F2C91848D60
:1041100090E001968F739927848FA689B7892C9395
:10412000A089B1898C9180648C93938D848D981330
:1041300006C00288F389E02D80818F7D80830895F9
:10414000EF92FF920F931F93CF93DF93EC0181E0E7
:10415000888F9B8D8C8D981305C0E889F9898081A3
:1041600085FD24C0F62E0B8D10E00F5F1F4F0F73DF
:104170001127E02E8C8DE8120CC00FB607FCFACF89
:10418000E889F989808185FFF5CFCE010E947F20E3
:10419000F1CF8B8DFE01E80FF11DE35AFF4FF08246
:1041A0000B8FEA89FB898081806207C0EE89FF89D5
:1041B0006083E889F98980818064808381E090E070
:1041C000DF91CF911F910F91FF90EF900895CF93C2
:1041D000DF93EC01888D8823C9F0EA89FB8980810F
:1041E00085FD05C0A889B9898C9186FD0FC00FB6E1
:1041F00007FCF5CF808185FFF2CFA889B9898C9122
:1042000085FFEDCFCE010E947F20E7CFDF91CF91D8
:10421000089580E090E0892B21F00E9475208111A3
:1042200021C080E090E0892B21F00E946B20811159
:104230001CC080E090E0892B41F080E090E0892B69
:1042400021F00E940000811113C080E090E0892BD2
:10425000A1F080E090E0892B81F00E9400008111A4
:104260000AC008950E940000DCCF0E940000E1CF48
:104270000E940000EACF0C940000089585ED809321
:10428000BC008091BC0084FDFCCF1092F114089515
:104290004091F713262F30E0240F311D21323105D4
:1042A000DCF42091F1142430C9F4FC0180E090E0AA
:1042B000861758F43091F7132191DC01AB52BC4EB4
:1042C000A30FB11D2C930196F3CF8091F713680FC4
:1042D0006093F71380E0089581E0089582E00895E7
:1042E0000895E091F3148091F214E81730F4F0E0AF
:1042F000EC50FB4E808190E008958FEF9FEF089582
:104300009091F3148091F214981750F4E92FF0E093
:10431000EC50FB4E208130E09F5F9093F31402C07D
:104320002FEF3FEFC90108958091F21490E02091A2
:10433000F314821B91090895CF92DF92EF92FF92BE
:104340000F931F93CF93DF937C01262F972F8A0122
:104350008091A714882391F0C62FD72F6E01C40E29
:10436000D51ECC15DD0571F06991D701ED91FC9159
:104370000190F081E02DC7011995F3CF642F822FB2
:104380000E944821C801DF91CF911F910F91FF90AA
:10439000EF90DF90CF900895CF93DF931F92CDB72A
:1043A000DEB769832091A7142223D1F02091CA148B
:1043B000203240F021E030E0FC013383228380E0B2
:1043C00090E015C08091A814E82FF0E0E755FB4E6F
:1043D000998190838F5F8093A8148093CA1405C03D
:1043E00061E0CE0101960E94482181E090E00F90AB
:1043F000DF91CF9108950E94BB6ACF93DF93EC01C8
:1044000060E08E810E94F31D61E08E810E94F31DA9
:1044100060E08E810E94F31D8BE891E00197F1F737
:10442000DF91CF9108951F920F920FB60F92112432
:104430000BB60F922F933F934F935F936F937F939E
:104440008F939F93AF93BF93EF93FF9384E195E195
:104450000E947F20FF91EF91BF91AF919F918F912B
:104460007F916F915F914F913F912F910F900BBE74
:104470000F900FBE0F901F9018951F920F920FB6BE
:104480000F9211240BB60F922F933F934F935F938C
:104490006F937F938F939F93AF93BF93EF93FF930C
:1044A00084E195E10E941520FF91EF91BF91AF91BA
:1044B0009F918F917F916F915F914F913F912F913C
:1044C0000F900BBE0F900FBE0F901F9018951F926C
:1044D0000F920FB60F9211240BB60F922F933F93AA
:1044E0004F935F936F937F938F939F93AF93BF93FC
:1044F000EF93FF9381EB95E10E947F20FF91EF9175
:10450000BF91AF919F918F917F916F915F914F91EB
:104510003F912F910F900BBE0F900FBE0F901F90E9
:1045200018951F920F920FB60F9211240BB60F928F
:104530002F933F934F935F936F937F938F939F93AB
:10454000AF93BF93EF93FF9381EB95E10E9415200A
:10455000FF91EF91BF91AF919F918F917F916F915B
:104560005F914F913F912F910F900BBE0F900FBE17
:104570000F901F9018951F920F920FB60F92112453
:104580000BB60F922F933F934F935F936F937F934D
:104590008F939F93AF93BF93EF93FF938091B90055
:1045A000887F803609F49CC068F5883209F45BC0C6
:1045B00090F4803109F454C038F4882309F4F6C02B
:1045C000883009F44DC0F6C0883109F44CC08032FF
:1045D00009F45DC0EFC0803409F468C048F480334A
:1045E00009F455C0883309F0E5C08093EF14D8C0B2
:1045F000803509F44FC0883509F45DC0883409F06E
:10460000D9C0D6C0883909F4C7C0A8F4883709F4DE
:1046100067C038F4883609F463C0803709F460C095
:10462000C9C0883809F4B8C0803909F45FC080383F
:1046300009F0C0C05BC0803B09F486C038F4803A02
:1046400009F466C0883A09F47FC0B4C0803C09F41C
:10465000A7C0883C09F4A4C0883B09F48AC0AAC05A
:104660008091EC1410C09091EE148091ED14981785
:1046700070F5E091EE1481E08E0F8093EE14F0E07F
:10468000E553FB4E80818093BB0085EC86C0809310
:10469000EF148EC0E091EE1481E08E0F8093EE1443
:1046A0008091BB00F0E0E553FB4E80839091EE14C7
:1046B0008091ED146EC0E091EE1481E08E0F809336
:1046C000EE148091BB00F0E0E553FB4E80838091B7
:1046D000F01481116DC081E08093EB1484EA61C015
:1046E00083E08093F11410921B14CFCF80911B14A0
:1046F000803208F051C0E0911B1481E08E0F80934E
:104700001B148091BB00F0E0E550FC4E8083BDCFD0
:1047100085EC8093BC001092F11480911B148032C0
:1047200030F4E0911B14F0E0E550FC4E10826091F3
:104730001B1470E0E091F913F091FA138BEF93E101
:10474000199510921B1436C084E08093F1141092D6
:10475000F8131092F713E091F513F091F6131995F1
:104760008091F713811105C081E08093F7131092B7
:10477000D513E091F81381E08E0F8093F813F0E0E9
:10478000EB52FC4E80818093BB009091F813809196
:10479000F713981708F479CF85E88093BC000AC016
:1047A00085EC8093BC001092F11404C01092EF14B9
:1047B0000E943E21FF91EF91BF91AF919F918F9108
:1047C0007F916F915F914F913F912F910F900BBE11
:1047D0000F900FBE0F901F9018951092F11481E06A
:1047E0008093F0141092EB1461E084E10E94F31DB9
:1047F00061E085E10E94F31DE9EBF0E080818E7FAE
:10480000808380818D7F808388E48093B80085E4F5
:104810008093BC000895CF92DF92EF92FF920F93A6
:104820001F93CF93DF937C016C0187E0C80ED11CEE
:10483000C0E0D0E0062F10E0B8010C2E02C0759544
:1048400067950A94E2F76170F60181916F010E9409
:10485000F31D2196C430D10579F7C701DF91CF91BF
:104860001F910F91FF90EF90DF90CF900C94FD215E
:10487000CF92DF92EF92FF920F931F93CF93DF932C
:10488000EC01F62E642F8C810E94F31D8D818F3FE9
:1048900019F060E00E94F31D8F850F2D10E084FF5A
:1048A00025C06E0187E0C80ED11CE12CF12CB801A7
:1048B0000E2C02C0759567950A94E2F76170F601B7
:1048C00081916F010E94F31DFFEFEF1AFF0A88E04C
:1048D000E816F10461F7CE01DF91CF911F910F919E
:1048E000FF90EF90DF90CF900C94FD21B80184E011
:1048F000759567958A95E1F7CE010E940B246F2D7F
:10490000CE01DF91CF911F910F91FF90EF90DF903B
:10491000CF900C940B2441E00E94382481E090E079
:10492000089540E00C94382461E00E9491248BE3C8
:104930009FE10197F1F708958091D0138823A9F1A1
:1049400040912D0250912E0260912F027091300201
:1049500025EC31E18091C5139091C6130E94D62FAA
:10496000811102C080E008954091D1135091D2137B
:104970006091D3137091D4134115510561057105F0
:1049800091F025EC31E18091C5139091C6130E94FE
:10499000D62F882339F31092D1131092D21310928C
:1049A000D3131092D4131092D01381E008958F92F4
:1049B0009F92AF92BF92EF92FF920F931F93CF936C
:1049C0004B015C01C42F80912D0290912E02A09189
:1049D0002F02B091300288159905AA05BB0501F197
:1049E0000E949C24811102C080E020C085ECE82E4A
:1049F00081E1F82E00E012E020E030E0B501A401F2
:104A00008091C5139091C6130E94CC2B882361F32B
:104A100080922D0290922E02A0922F02B09230022C
:104A20008091D013C82BC093D01381E0CF911F91F8
:104A30000F91FF90EF90BF90AF909F908F9008954F
:104A40004F925F926F927F928F929F92AF92BF929E
:104A5000CF92DF92EF92FF920F931F93CF93DF934A
:104A6000EC016A017B0128013901423051056105E1
:104A7000710510F480E073C089859A85AB85BC858B
:104A80000196A11DB11D84179507A607B70790F3DE
:104A90008B889C88AD88BE888F89803129F4BB279C
:104AA000AF2D9E2D8D2D09C0DB01CA0147E0B695C3
:104AB000A795979587954A95D1F7880E991EAA1EB6
:104AC000BB1E80912D0290912E02A0912F02B091D9
:104AD000300288169906AA06BB0679F48F898031C0
:104AE000A1F4DD24EE24FF24C601880F991FFC01E8
:104AF000EB53FE4E5182408219C040E0C501B40123
:104B00000E94D7248111EACFB5CFE894C7F8DD24FD
:104B1000EE24FF24C601880F991F880F991FFC01FE
:104B2000EB53FE4E40825182628273828091D01399
:104B300081608093D0138A89823080F08D819E813C
:104B4000AF81B885880E991EAA1EBB1E8092D11314
:104B50009092D213A092D313B092D41381E0DF913C
:104B6000CF911F910F91FF90EF90DF90CF90BF906A
:104B7000AF909F908F907F906F905F904F9008952F
:104B80008F929F92AF92BF92CF92DF92EF92FF925D
:104B90000F931F93CF93DF93FC0181859285A385AB
:104BA000B4850196A11DB11D84179507A607B70707
:104BB00010F480E05CC083899489A589B689C7898F
:104BC000C03129F4852E962EA72EBB2409C04A0198
:104BD0005B01C7E0B694A79497948794CA95D1F7E0
:104BE000E9016A017B018F01BC01CD01680D791DCE
:104BF0008A1D9B1D80902D0290902E02A0902F0266
:104C0000B0903002681579058A059B0599F4F80182
:104C100087898031A9F4B701A60155276627772730
:104C2000440F551FFA01EB53FE4E80819181A0E0A5
:104C3000B0E018C040E00E94D7248111E8CFB9CF7E
:104C4000B701A6014F77552766277727440F551FD1
:104C5000440F551FFA01EB53FE4E80819181A281D2
:104C6000B381BF7088839983AA83BB8381E0DF917E
:104C7000CF911F910F91FF90EF90DF90CF90BF9059
:104C8000AF909F908F9008954F925F926F927F9216
:104C9000AF92BF92CF92DF92EF92FF920F931F934A
:104CA000CF93DF9300D01F92CDB7DEB78C0149833D
:104CB0005A836B837C835901C12CD12C7601412C02
:104CC00082E0582E612C712C49815A816B817C8144
:104CD0009E012F5F3F4FC8010E94C025882351F1DC
:104CE000D301C201F801058404C0880F991FAA1FCF
:104CF000BB1F0A94D2F7C80ED91EEA1EFB1E4981BB
:104D00005A816B817C818789803129F088EF9FEF00
:104D1000AFEFBFE004C088EF9FEFA0E0B0E048171E
:104D200059076A077B0780F2F501C082D182E282CF
:104D3000F38281E00F900F900F900F90DF91CF9151
:104D40001F910F91FF90EF90DF90CF90BF90AF90A9
:104D50007F906F905F904F900895CF93DF93EC0119
:104D60008D818823A1F18C8187FF2DC06E857F8581
:104D70008889998941E00E94D724882341F1EA89F2
:104D800080E2E89FF0011124DF01AB53BE4E109783
:104D9000F1F08D81823050F44B895C896D897E8978
:104DA0005C964D935D936D937C935F978F89988DFF
:104DB000A98DBA8DEB53FE4E938F828FB58BA48B4A
:104DC0008C818F778C83DF91CF910C949C2480E031
:104DD000DF91CF9108952F923F924F925F926F9201
:104DE0007F928F929F92AF92BF92CF92DF92EF927B
:104DF000FF920F931F93CF93DF9300D01F92CDB7F5
:104E0000DEB78C015B011A01DC0115968C911597B8
:104E10008130C9F414968C9181FF15C082FF1BC0AC
:104E2000F801438954896589768982859385A485AB
:104E3000B58584179507A607B70769F0C8010E94D2
:104E40005C29811108C081E090E0F801938382839E
:104E500080E090E039C1610183C0D8015B968D91FB
:104E60009C915C97FC01248121502A013B0139E08F
:104E700076946794579447943A95D1F7722E74209C
:104E80007A01F1E0FF22772009F476C080E092E019
:104E90008E199F0946018C159D0508F44C01D80117
:104EA0005B962D913C915C9716968D919D910D90FE
:104EB000BC91A02D0297A109B109F901058404C094
:104EC000880F991FAA1FBB1F0A94D2F746855785E2
:104ED00060897189840F951FA61FB71F9C01AD01C2
:104EE000270D311D411D511D29013A01811432E068
:104EF000930609F088C080912D0290912E02A09116
:104F00002F02B091300284159505A605B70559F416
:104F10008FEF9FEFDC0180932D0290932E02A093E0
:104F20002F02B09330029501B301A2018091C51305
:104F30009091C6130E94D62F882309F484CF9EEF48
:104F4000B91AC818D908F80182859385A485B58552
:104F5000880D991DA11DB11D82879387A487B587F0
:104F6000D8011A964D915D916D917C911D97C11458
:104F7000D10409F072CF87C0E114F10409F086CFA3
:104F800016964D915D916D917C9119974115510542
:104F90006105710559F457968D919D910D90BC91C5
:104FA000A02D0097A105B10541F521C09E012F5FFD
:104FB0003F4F0E94C025882309F44BCF89819A81F5
:104FC000AB81BC81F801238D348DF9012789203113
:104FD00029F048EF5FEF6FEF7FE004C048EF5FEF2D
:104FE00060E070E084179507A607B70730F0C801A6
:104FF0000E94FE2981114ACF26CFF801868397832C
:10500000A087B18743CFE114F10429F5D8011A969E
:105010004D915D916D917C911D9753968D919D91D0
:105020000D90BC91A02D481759076A077B0798F08F
:105030000E949C24882309F406CF40922D025092AE
:105040002E0260922F02709230028091D013816004
:105050008093D01308C041E0C301B2010E94D7245D
:10506000882309F4F0CED501F701EB53FE4ECF01B2
:10507000880D991DE817F90719F02D912193FACFA2
:10508000A80CB91C5ECF53968D919D910D90BC914B
:10509000A02D84179507A607B70740F4F801438BA6
:1050A000548B658B768B848180688483D8011496B9
:1050B0008C9183FD02C0C10107C0C8010E94AD26CA
:1050C000882309F4C0CEF7CF0F900F900F900F9068
:1050D000DF91CF911F910F91FF90EF90DF90CF90D4
:1050E000BF90AF909F908F907F906F905F904F9008
:1050F0003F902F900895CF93DF931F92CDB7DEB7E7
:10510000698341E050E0BE016F5F7F4F0E94EB2654
:105110000F90DF91CF910895DC015996ED91FC91AC
:105120005A973097B9F083899489A589B6894285C1
:10513000538564857585841B950BA60BB70B81156C
:1051400020E89207A105B10538F08FEF9FE7A0E0B6
:10515000B0E0089580E090E00895CF93DF931F9230
:10516000CDB7DEB76983DC01ED91FC910280F3815C
:10517000E02D41E050E0BE016F5F7F4F19950F9029
:10518000DF91CF910895089580E090E008951F93F6
:10519000CF93DF93EC0180E2689FF00111249F011F
:1051A0002B533E4ED9011B969C91917129F0842F6F
:1051B000827411F080E058C0142F6A8B80912D0208
:1051C00090912E02A0912F02B09130028E879F877E
:1051D000A88BB98BEB53FE4E4489558960E070E093
:1051E000BA01552744274F8B588F698F7A8F828D4C
:1051F000938DA0E0B0E0482B592B6A2B7B2B4F8B73
:10520000588F698F7A8FD9011B968C91887151F4D0
:10521000848D958DA68DB78D8B8B9C8BAD8BBE8B26
:1052200081E00DC0803131F69E012D5E3F4F8B8DA8
:105230009C8D0E944426882309F4BCCF84E08D8392
:10524000812F8F708C831E821F82188619861A8682
:105250001B861C861D8616FF06C0CE01DF91CF91EE
:105260001F910C94554881E0DF91CF911F910895D3
:10527000FC01818D928D009711F00C94AD2608955C
:10528000CF93DF93EC01898D9A8D009739F481E0FB
:1052900090E09B838A8380E090E00BC0FC01138246
:1052A00012820E94EB26E98DFA8D22813381232B15
:1052B00071F7DF91CF9108958F929F92AF92BF9235
:1052C000CF92DF92EF92FF920F931F93CF93DF93D2
:1052D000EC018D81811102C080E077C00B891C89AF
:1052E0002D893E890417150726073707A8F36A0199
:1052F0007B01823029F4CA86DB86EC86FD860DC0F0
:10530000C114D104E104F10451F41E821F821886F5
:1053100019861A861B861C861D8681E056C08A84E3
:105320009B84AC84BD84EB8DFC8D258530E0275FAC
:105330003F4FB501A4014150510961097109022E85
:1053400004C076956795579547950A94D2F7D7018B
:10535000C6010197A109B10904C0B695A795979513
:1053600087952A95D2F784179507A607B70720F0E7
:1053700089288A288B2849F44F89588D698D7A8D20
:105380004E835F836887798704C0841B950BA60BC7
:10539000B70B4C015D018E010A5F1F4F8114910410
:1053A000A104B10409F4A7CF4E815F816885798596
:1053B00098018B8D9C8D0E94C02591E0891A9108DF
:1053C000A108B1088111EACF87CFDF91CF911F915A
:1053D0000F91FF90EF90DF90CF90BF90AF909F9094
:1053E0008F900895CF93DF93EC010E94AD26882320
:1053F00011F01D8281E0DF91CF9108953F924F928D
:105400005F926F927F928F929F92AF92BF92CF9254
:10541000DF92EF92FF920F931F93CF93DF93CDB75D
:10542000DEB72C970FB6F894DEBF0FBECDBF5C0180
:10543000DC015B968D909C905C971696CD90DD90EC
:10544000ED90FC901997C114D104E104F10439F0F6
:10545000BFEFCB1ADB0AEB0AFB0A312C07C0F401C1
:10546000C080D180E280F38033243394F4018185BD
:105470009285A385B4859C01AD012F5F3F4F4F4FAF
:105480005F4F29873A874B875C87260137011D824A
:105490001E821F821886F40181859285A385B485BA
:1054A0002D813E814F815885281739074A075B07B0
:1054B00008F063C089859A85AB85BC858C159D05F0
:1054C000AE05BF0550F482E0C82ED12CE12CF12CA2
:1054D00092E0492E512C612C712C9E012F5F3F4F81
:1054E000B701A601C4010E94C025882309F445C064
:1054F00089819A81AB81BC81892B8A2B8B2B41F0CE
:10550000260137019FEF491A590A690A790A05C02D
:10551000C414D504E604F70491F02D813E814F8137
:1055200058852F5F3F4F4F4F5F4F2D833E834F83F3
:1055300058873FEFC31AD30AE30AF30AACCF0FEF41
:105540001FEF2FEF3FE0B301A201C4010E9420250D
:10555000882399F0D50116964D915D916D917C91BE
:105560001997411551056105710549F093018201B3
:10557000C4010E942025811102C080E02AC0D5010B
:1055800016964D925D926D927C921997332051F050
:10559000D301C2010196A11DB11DF4018083918345
:1055A000A283B383F5018789908DA18DB28D892B5C
:1055B0008A2B8B2B69F4D50157964D925D926D9293
:1055C0007C925A9714968C911497806814968C93B9
:1055D00081E02C960FB6F894DEBF0FBECDBFDF91F1
:1055E000CF911F910F91FF90EF90DF90CF90BF90E0
:1055F000AF909F908F907F906F905F904F903F9073
:1056000008958FB7F89480911D148FBF089561E0BD
:10561000FC0184810E94F31D80911C148111109261
:105620001C1408958EBD00000DB407FEFDCF8EB58D
:1056300008958FEF0C94122B0F931F93CF93DF934A
:10564000EB010E94AA1E8B010E94192B8F3F49F08B
:105650000E94AA1E601B710B6C177D07A8F380E0E7
:1056600001C081E0DF91CF911F910F910895CF93F9
:10567000DF93EC018E81882389F08F8198859C01CE
:105680002F5F3F4F38872F838230924018F40E945B
:10569000192BF3CFCE010E94072B1E82DF91CF91F1
:1056A00008958CBD9DBD0895CF93DF93EC0180914B
:1056B0001C14811109C081E080931C1480915A163A
:1056C00090915B160E94512B60E08C81DF91CF910D
:1056D0000C94F31DCF92DF92FF920F931F93CF9301
:1056E000DF9300D01F92CDB7DEB76C01F62E298371
:1056F0003A834B835C830E94372BC6010E94542B54
:105700006CE271E0C6010E941C2B8F2D80640E9408
:10571000122B08E110E05C814B813A812981DA018A
:10572000C901002E04C0B695A795979587950A9450
:10573000D2F729833A834B835C830E94122B085053
:10574000110929813A814B815C81083F8FEF18074D
:1057500031F7FF2029F0E8E0FE1204C087E803C01B
:1057600085E901C08FEF0E94122B10E00E94192BD7
:10577000F601828787FF04C01F3F11F01F5FF6CF3D
:105780000F900F900F900F90DF91CF911F910F917D
:10579000FF90DF90CF900895AF92BF92CF92DF92AB
:1057A000EF92FF920F931F93CF93DF93EC01690168
:1057B000C801820F931F8130924008F070C08E8123
:1057C000882371F088819981AA81BB814817590784
:1057D0006A077B0729F48F819885C816D906B0F52A
:1057E000488359836A837B838B85833039F089E0D2
:1057F000440F551F661F771F8A95D1F79A01AB0199
:1058000061E1CE010E946A2B882319F083E08D8329
:1058100046C00E94AA1E5B010E94192B8A878F3FF7
:1058200049F40E94AA1E6A197B096D327140A0F3E7
:105830008FE003C08E3F31F08DE08D83CE010E945A
:10584000072B2DC018861F8281E08E838F8198855B
:105850008C159D0540F40E94192B8F819885019627
:1058600098878F83F3CF6701E00EF11ECE14DF041B
:1058700031F00E94192BF60181936F01F7CF8F81D0
:105880009885080F191F18870F838985882319F0B9
:105890000115124048F0CE010E94372B05C0CE0101
:1058A0000E94072B80E001C081E0DF91CF911F9122
:1058B0000F91FF90EF90DF90CF90BF90AF90089541
:1058C0002F923F924F925F926F927F928F929F9210
:1058D000AF92BF92CF92DF92EF92FF920F931F93FE
:1058E000CF93DF931F921F92CDB7DEB7FC01858166
:1058F000882309F4D9C0848180FFD6C021E02A839F
:10590000438954896589768982859385A485B5857F
:10591000481759076A077B0709F41A826F013A8111
:10592000832F90E0DE0111964D013F01B6E06B0E32
:10593000711C892B09F47DC0D6011A964D915D9199
:105940006D917C911D975A01B1E0BB22F601258132
:105950001A012B0189E056944794379427948A952D
:10596000D1F7838D948D223061F4FC01828D938D6B
:10597000A48DB58DBC01CD01620D731D841D951DD7
:1059800045C0DC0114961C9111501221A114B104E0
:10599000D1F4111118C0452B462B472B51F4F601B9
:1059A0008789908DA18DB28D86839783A087B187DB
:1059B0000AC0468157816085718593010E94C02588
:1059C000882309F471C0F601238D348D8681978177
:1059D000A085B1850297A109B109AC01BD01F9010A
:1059E000058404C0440F551F661F771F0A94D2F721
:1059F00086859785A089B189840F951FA61FB71F3B
:105A0000BC01CD01610F711D811D911DD601149640
:105A10002C9126FF14C000912D0210912E0220918E
:105A20002F0230913002601771078207930751F5FA
:105A300006C0FA81FF23C1F1898190E037C040E0C0
:105A40000E94D724882381F1F501EB53FE4ED40147
:105A5000CF010196E817F90719F021912D93FACF9C
:105A6000EFEF8E1A9E0AF60182859385A485B5858F
:105A70000196A11DB11D82879387A487B58780E019
:105A800090E057CF740101E010E09501AB01BC013B
:105A90008091C5139091C6130E94CC2B882321F0CE
:105AA000BFEF8B1A9B0ADFCF8FEF9FEF0F900F9006
:105AB000DF91CF911F910F91FF90EF90DF90CF90EA
:105AC000BF90AF909F908F907F906F905F904F901E
:105AD0003F902F9008954F925F926F927F929F9286
