:100000000C9453010C9429090C94FE080C94D30809
:100010000C94A8080C947D080C9452080C942708A2
:100020000C94FC070C9484010C9484010C948401BE
:100030000C9484010C9484010C9484010C9484012C
:100040000C9484010C9484010C9484010C9484011C
:100050000C9484010C9484010C9484010C94B207D8
:100060000C9484010C9436050C940C050C948401BA
:100070000C9484010C9484010C9484010C948401EC
:100080000C9484010C9484010C9484010C948401DC
:100090000C9484010C9484010C9484010C946C05E0
:1000A0000C9484010C9484010C9484010C948401BC
:1000B0000C9484010C9484010C9484010C948401AC
:1000C0000C9484010C9484010C9484010C9484019C
:1000D0000C9484010C9484010C9484010C9484018C
:1000E0000C948401EA02ED02DC02E002E402240343
:1000F000F102F502FB02FF02030309030D031103E2
:10010000240317031B031F030C94800C0C94650439
:100110000C945A030C94FF020C9491030C94090361
:100120000C94EA020C9475040C94F1020C941B03D9
:100130000C94F0040C944C030C941F030C94C10415
:100140000C94F5020C94E0020C944D070C941E07DD
:100150000C94DC020C9438030C94ED020C941703FD
:100160000C940D030C9491040C94D8030C94E402A9
:100170000C9424030C9466040C94FB020C944C071E
:100180000C9411030C9489040C94E90D0C94030352
:1001900000030205000305010406020400000A0B27
:1001A00002090C0D0E080703040100000000000006
:1001B000000000000000000000000000000000003F
:1001C00000000000000000001211100000000000FC
:1001D000000000000000000000000000000000001F
:1001E000000000002200250028002B002E00310016
:1001F000340002010000050108010B01000021008C
:10020000240027002A002D003000330001010000E7
:10021000040107010A010505050507050808080886
:10022000020202020A0A080804040404010101018E
:100230000101010103030303030303030407070789
:100240000C0C0C0C0C0C0C0C02020202060606062E
:10025000060606060B0B0B0B0B0B0B0B01021020FB
:1002600020080810204010204080020102010804EC
:100270000201010204081020408080402010080480
:1002800002018004020180402010080402010804D9
:10029000020101020408102040800102040810201D
:1002A0004080800CE90D11241FBECFEFD1E2DEBFEC
:1002B000CDBF00E00CBF24E0A4E7B2E001C01D9276
:1002C000A930B207E1F712E0A0E0B2E0E8EAF0E21C
:1002D00000E00BBF02C007900D92A437B107D9F719
:1002E00011E0C2E5D1E000E006C021970109802FAE
:1002F000FE010E940F0EC135D10780E00807A9F763
:100300000E9454090C9442100C94000090E0FC01EF
:10031000E45AFD4F2491FC01EA5EFD4F849188234D
:1003200099F090E0880F991FFC01E450FE4FA591D1
:10033000B491FC01EE51FE4F859194918FB7F894E2
:10034000EC91E22BEC938FBF08952091EC029091F9
:10035000EB02213208F04AC08091C8028111FCCF23
:1003600032E03093C80231E03093C7023FEF309360
:10037000C6021092C5022093C402ABECB2E044EA7C
:1003800052E0FA013E2F341B321718F43D9131939D
:10039000F9CF1092A3022091A302990F922B909370
:1003A000A3029091A202913061F41092A202909166
:1003B000A3029093BB009091BC0093FDF8CF95EC05
:1003C00001C095EE9093BC009091C8029230E1F389
:1003D0009091C6029F3F79F08091C602803241F031
:1003E0008091C602803331F084E005C081E003C013
:1003F00082E001C083E01092CA021092EC021092D7
:10040000C9020895CF93C62F91E09093C90298E650
:100410009093EB021092CA021092EC02682F8AE8C5
:1004200093E00E94C1046C2F8AE893E00E94C1040B
:10043000CF910C94A501CF9391E09093C90298E6D7
:100440009093EB021092CA021092EC02682F8AE895
:1004500093E00E94C1040E94A5018091C80281110D
:10046000FCCF81E08093C8028093C7029FEF9093F6
:10047000C6021092C5021092C4028093A30280911A
:10048000A302806D8093A3028091A202813061F467
:100490001092A2028091A3028093BB008091BC00C5
:1004A00083FDF8CF85EC01C085EE8093BC00809180
:1004B000C8028130E1F38091C502811103C08091AF
:1004C000C50201C081E0A4EAB2E026E732E0F9010A
:1004D0009E2F921B981718F49D919193F9CF10922B
:1004E000750280937402811101C0FFCF8AE893E006
:1004F0000E947504C82F0E94A5018C2FCF910895EA
:10050000FC01908190539A3008F090E081818053F3
:100510002AE0929F800D11240895EF92FF920F938D
:100520001F93CF93DF931F92CDB7DEB7162F87703F
:1005300028E0829FC0011124682F606486E993E05F
:1005400079830E942407E12E7981F72E8701085FC5
:100550001F4FF70161917F0186E993E00E941E071A
:10056000E016F106B1F70F90DF91CF911F910F9137
:10057000FF90EF900895362F90E0FC01E456FE4F77
:100580004491FC01E45AFD4F2491FC01EA5EFD4FC9
:100590009491992309F46BC0442309F455C050E0A9
:1005A000FA013197E231F10508F04EC08827EE5884
:1005B000FF4F8F4F0C940F0E809180008F7707C0F4
:1005C000809180008F7D03C080918000877F809321
:1005D00080003AC084B58F7702C084B58F7D84BD1A
:1005E00033C08091B0008F7703C08091B0008F7DC1
:1005F0008093B00029C0809190008F7707C08091D0
:1006000090008F7D03C080919000877F8093900041
:100610001BC08091A0008F7707C08091A0008F7DC4
:1006200003C08091A000877F8093A0000DC08091BF
:1006300020018F7707C0809120018F7D03C08091BA
:100640002001877F80932001E92FF0E0EE0FFF1F4C
:10065000EE51FE4FA591B4918FB7F894EC91311102
:1006600003C020952E2301C02E2B2C938FBF0895FD
:10067000FC01918D828D981761F0828DDF01A80FAA
:10068000B11D5D968C91928D9F5F9F73928F90E0CC
:1006900008958FEF9FEF0895FC01918D828D98173B
:1006A00031F0828DE80FF11D858D90E008958FEF78
:1006B0009FEF0895FC01918D228D892F90E0805C41
:1006C0009F4F821B91098F73992708958DEE92E0B9
:1006D0000E945A0321E0892B09F420E0822F08951B
:1006E000FC01848DDF01A80FB11DA35ABF4F2C91CF
:1006F000848D90E001968F739927848FA689B7899E
:100700002C93A089B1898C9180648C93938D848D76
:10071000981306C00288F389E02D80818F7D808345
:100720000895EF92FF920F931F93CF93DF93EC0105
:1007300081E0888F9B8D8C8D981305C0E889F9899D
:10074000808185FD24C0F62E0B8D10E00F5F1F4FBA
:100750000F731127E02E8C8DE8120CC00FB607FC2A
:10076000FACFE889F989808185FFF5CFCE010E9413
:100770007003F1CF8B8DFE01E80FF11DE35AFF4F9F
:10078000F0820B8FEA89FB898081806207C0EE8945
:10079000FF896083E889F98980818064808381E0B2
:1007A00090E0DF91CF911F910F91FF90EF9008950E
:1007B000CF93DF93EC01888D8823C9F0EA89FB8908
:1007C000808185FD05C0A889B9898C9186FD0FC0FF
:1007D0000FB607FCF5CF808185FFF2CFA889B989D4
:1007E0008C9185FFEDCFCE010E947003E7CFDF91A2
:1007F000CF91089580E090E0892B21F00E9466035C
:10080000811125C080E090E0892B41F080E090E0EC
:10081000892B21F00E94000081111CC080E090E033
:10082000892B41F080E090E0892B21F00E940000AC
:10083000811113C080E090E0892BA1F080E090E06E
:10084000892B81F00E94000081110AC008950E9446
:100850000000D8CF0E940000E1CF0E940000EACF44
:100860000C940000089585ED8093BC008091BC003D
:1008700084FDFCCF1092C80208954091D703262F23
:1008800030E0240F311D21323105DCF42091C80203
:100890002430C9F4FC0180E090E0861758F43091D0
:1008A000D7032191DC01AB54BC4FA30FB11D2C9396
:1008B0000196F3CF8091D703680F6093D70380E050
:1008C000089581E0089582E008950895E091750209
:1008D00080917402E81730F4F0E0EA58FD4F80810F
:1008E00090E008958FEF9FEF0895909175028091A9
:1008F0007402981750F4E92FF0E0EA58FD4F208178
:1009000030E09F5F9093750202C02FEF3FEFC90167
:1009100008958091740290E020917502821B9109E4
:100920000895CF92DF92EF92FF920F931F93CF9390
:10093000DF937C01262F972F8A018091C90288239B
:1009400091F0C62FD72F6E01C40ED51ECC15DD0534
:1009500071F06991D701ED91FC910190F081E02D4A
:10096000C7011995F3CF642F822F0E943D04C8015F
:10097000DF91CF911F910F91FF90EF90DF90CF907B
:100980000895CF93DF931F92CDB7DEB7698320918F
:10099000C9022223D1F02091EC02203240F021E064
:1009A00030E0FC013383228380E090E015C0809129
:1009B000CA02E82FF0E0E553FD4F998190838F5FE5
:1009C0008093CA028093EC0205C061E0CE010196DB
:1009D0000E943D0481E090E00F90DF91CF91089557
:1009E00081E08093B40308950E942D10CF93DF938C
:1009F000EC0160E08E810E94BB0261E08E810E946A
:100A0000BB0260E08E810E94BB028BE891E00197FF
:100A1000F1F7DF91CF9108951F920F920FB60F92C9
:100A200011240BB60F922F933F934F935F936F93C5
:100A30007F938F939F93AF93BF93EF93FF938DEE2D
:100A400092E00E947003FF91EF91BF91AF919F914F
:100A50008F917F916F915F914F913F912F910F9067
:100A60000BBE0F900FBE0F901F9018951F920F9204
:100A70000FB60F9211240BB60F922F938F939F9363
:100A8000EF93FF93E091FD02F091FE028081E091EF
:100A90000303F091040382FD12C09081809106034C
:100AA0008F5F8F7320910703821751F0E091060347
:100AB000F0E0E351FD4F958F8093060301C08081E4
:100AC000FF91EF919F918F912F910F900BBE0F90FF
:100AD0000FBE0F901F9018951F920F920FB60F9296
:100AE00011240BB60F922F933F934F935F936F9305
:100AF0007F938F939F93AF93BF93EF93FF938091D7
:100B0000B900887F803609F49CC068F5883209F402
:100B10005BC090F4803109F454C038F4882309F4A0
:100B2000F6C0883009F44DC0F6C0883109F44CC0D5
:100B3000803209F45DC0EFC0803409F468C048F425
:100B4000803309F455C0883309F0E5C08093C602AC
:100B5000D8C0803509F44FC0883509F45DC08834A9
:100B600009F0D9C0D6C0883909F4C7C0A8F48837BD
:100B700009F467C038F4883609F463C0803709F493
:100B800060C0C9C0883809F4B8C0803909F45FC0B2
:100B9000803809F0C0C05BC0803B09F486C038F4DF
:100BA000803A09F466C0883A09F47FC0B4C0803C3A
:100BB00009F4A7C0883C09F4A4C0883B09F48AC0A2
:100BC000AAC08091A30210C09091C5028091C40276
:100BD000981770F5E091C50281E08E0F8093C502F1
:100BE000F0E0EC55FD4F80818093BB0085EC86C022
:100BF0008093C6028EC0E091C50281E08E0F809383
:100C0000C5028091BB00F0E0EC55FD4F80839091D0
:100C1000C5028091C4026EC0E091C50281E08E0FD2
:100C20008093C5028091BB00F0E0EC55FD4F8083BE
:100C30008091C70281116DC081E08093A20284EA95
:100C400061C083E08093C8021092FB03CFCF8091F4
:100C5000FB03803208F051C0E091FB0381E08E0F6E
:100C60008093FB038091BB00F0E0E552FC4F808352
:100C7000BDCF85EC8093BC001092C8028091FB032D
:100C8000803230F4E091FB03F0E0E552FC4F10823B
:100C90006091FB0370E0E091D903F091DA038BEDF2
:100CA00093E019951092FB0336C084E08093C8024C
:100CB0001092D8031092D703E091D503F091D60398
:100CC00019958091D703811105C081E08093D703E6
:100CD0001092B503E091D80381E08E0F8093D80382
:100CE000F0E0EB54FC4F80818093BB009091D803DF
:100CF0008091D703981708F479CF85E88093BC00DA
:100D00000AC085EC8093BC001092C80204C0109207
:100D1000C6020E943304FF91EF91BF91AF919F9162
:100D20008F917F916F915F914F913F912F910F9094
:100D30000BBE0F900FBE0F901F901895CF92DF92B1
:100D4000EF92FF920F931F93CF93DF937C016C017F
:100D500087E0C80ED11CC0E0D0E0062F10E0B8013B
:100D60000C2E02C0759567950A94E2F76170F60142
:100D700081916F010E94BB022196C430D10579F7A1
:100D8000C701DF91CF911F910F91FF90EF90DF90FE
:100D9000CF900C94F604CF92DF92EF92FF920F93D4
:100DA0001F93CF93DF93EC01F62E642F8C810E946A
:100DB000BB028D818F3F19F060E00E94BB028F85DE
:100DC0000F2D10E084FF25C06E0187E0C80ED11CF6
:100DD000E12CF12CB8010E2C02C0759567950A9490
:100DE000E2F76170F60181916F010E94BB02FFEF93
:100DF000EF1AFF0A88E0E816F10461F7CE01DF91EF
:100E0000CF911F910F91FF90EF90DF90CF900C94B6
:100E1000F604B80184E0759567958A95E1F7CE01EF
:100E20000E949E066F2DCE01DF91CF911F910F91F1
:100E3000FF90EF90DF90CF900C949E0641E00E94CF
:100E4000CB0681E090E0089540E00C94CB063FB7DC
:100E5000F8948091010490910204A0910304B09150
:100E6000040426B5A89B05C02F3F19F00196A11DCB
:100E7000B11D3FBFBA2FA92F982F8827820F911D30
:100E8000A11DB11DBC01CD0142E0660F771F881F77
:100E9000991F4A95D1F708950895CF92DF92EF9266
:100EA000FF920F931F93CF93DF936C017A018B0115
:100EB000C0E0D0E0CE15DF0589F0D8016D918D013D
:100EC000D601ED91FC910190F081E02DC6011995BC
:100ED000892B11F47E0102C02196ECCFC701DF916E
:100EE000CF911F910F91FF90EF90DF90CF900895D9
:100EF0008F929F92AF92BF92CF92DF92EF92FF922A
:100F00006B017C010E9427074B015C01C114D104D5
:100F1000E104F104F1F00E942707DC01CB018819FC
:100F20009909AA09BB09883E9340A105B10570F350
:100F300021E0C21AD108E108F10888EE880E83E0AA
:100F4000981EA11CB11CC114D104E104F10419F7CD
:100F5000DDCFFF90EF90DF90CF90BF90AF909F904C
:100F60008F9008951F920F920FB60F9211242F9316
:100F70003F938F939F93AF93BF938091FD03909185
:100F8000FE03A091FF03B09100043091FC0323E025
:100F9000230F2D3720F40196A11DB11D05C026E8B1
:100FA000230F0296A11DB11D2093FC038093FD0326
:100FB0009093FE03A093FF03B0930004809101047B
:100FC00090910204A0910304B09104040196A11D24
:100FD000B11D8093010490930204A0930304B09385
:100FE0000404BF91AF919F918F913F912F910F90EA
:100FF0000FBE0F901F9018951F920F920FB60F9271
:1010000011240BB60F922F933F934F935F936F93DF
:101010007F938F939F93AF93BF93EF93FF93E09151
:101020002E02F0912F021995FF91EF91BF91AF9190
:101030009F918F917F916F915F914F913F912F91F0
:101040000F900BBE0F900FBE0F901F9018951F9220
:101050000F920FB60F9211240BB60F922F933F935E
:101060004F935F936F937F938F939F93AF93BF93B0
:10107000EF93FF93E0912C02F0912D021995FF91CF
:10108000EF91BF91AF919F918F917F916F915F9100
:101090004F913F912F910F900BBE0F900FBE0F906D
:1010A0001F9018951F920F920FB60F9211240BB636
:1010B0000F922F933F934F935F936F937F938F93F1
:1010C0009F93AF93BF93EF93FF93E0912202F09130
:1010D00023021995FF91EF91BF91AF919F918F914D
:1010E0007F916F915F914F913F912F910F900BBE28
:1010F0000F900FBE0F901F9018951F920F920FB672
:101100000F9211240BB60F922F933F934F935F933F
:101110006F937F938F939F93AF93BF93EF93FF93BF
:10112000E0912002F09121021995FF91EF91BF917A
:10113000AF919F918F917F916F915F914F913F916F
:101140002F910F900BBE0F900FBE0F901F90189510
:101150001F920F920FB60F9211240BB60F922F937E
:101160003F934F935F936F937F938F939F93AF932F
:10117000BF93EF93FF93E0912A02F0912B02199510
:10118000FF91EF91BF91AF919F918F917F916F915F
:101190005F914F913F912F910F900BBE0F900FBE1B
:1011A0000F901F9018951F920F920FB60F92112457
:1011B0000BB60F922F933F934F935F936F937F9351
:1011C0008F939F93AF93BF93EF93FF93E091280288
:1011D000F09129021995FF91EF91BF91AF919F91E5
:1011E0008F917F916F915F914F913F912F910F90D0
:1011F0000BBE0F900FBE0F901F9018951F920F926D
:101200000FB60F9211240BB60F922F933F934F936B
:101210005F936F937F938F939F93AF93BF93EF935E
:10122000FF93E0912602F09127021995FF91EF912B
:10123000BF91AF919F918F917F916F915F914F91EE
:101240003F912F910F900BBE0F900FBE0F901F90EC
:1012500018951F920F920FB60F9211240BB60F9292
:101260002F933F934F935F936F937F938F939F93AE
:10127000AF93BF93EF93FF93E0912402F091250287
:101280001995FF91EF91BF91AF919F918F917F91B0
:101290006F915F914F913F912F910F900BBE0F90E7
:1012A0000FBE0F901F901895789484B5826084BD0E
:1012B00084B5816084BD85B5826085BD85B581605A
:1012C00085BD80916E00816080936E0010928100D8
:1012D0008091810082608093810080918100816093
:1012E0008093810080918000816080938000809154
:1012F000B10084608093B1008091B00081608093E0
:10130000B000809191008260809391008091910063
:101310008160809391008091900081608093900023
:101320008091A10082608093A1008091A1008160E2
:101330008093A1008091A00081608093A0008091A3
:10134000210182608093210180912101816080933D
:1013500021018091200181608093200180917A0099
:10136000846080937A0080917A00826080937A0012
:1013700080917A00816080937A0080917A00806801
:1013800080937A001092C100E091FD02F091FE027C
:1013900082E08083E091F902F091FA021082E091FC
:1013A000FB02F091FC028FEC808310920503E09128
:1013B0000103F0910203C6E0C083E091FF02F091C7
:1013C0000003808180618083E091FF02F09100033F
:1013D000808188608083E091FF02F091000380812A
:1013E00080688083E091FF02F091000380818F7D0F
:1013F000808368E172E080E00E948D0260E172E02B
:1014000081E00E948D0268E072E082E00E948D021D
:1014100060E072E083E00E948D0285E10E94860117
:1014200086E10E94860187E10E94860188E10E9490
:10143000860189E10E9486018AE10E9486018BE192
:101440000E9486018CE10E9486018DE10E94860146
:101450008EE10E9486018FE10E94860180E20E9457
:10146000860181E20E94860182E20E94860183E277
:101470000E94860184E20E94860185E20E94860124
:1014800086E20E94860187E20E94860188E20E942D
:10149000860189E20E9486018AE20E9486018BE22F
:1014A0000E9486018CE20E94860160E085E10E9434
:1014B000BB0260E086E10E94BB0260E087E10E941F
:1014C000BB0260E088E10E94BB0260E089E10E940B
:1014D000BB0260E08AE10E94BB0260E08BE10E94F7
:1014E000BB0260E08CE10E94BB0260E08DE10E94E3
:1014F000BB0260E08EE10E94BB0260E08FE10E94CF
:10150000BB0260E080E20E94BB0260E081E20E94D8
:10151000BB0260E082E20E94BB0260E083E20E94C4
:10152000BB0260E084E20E94BB0260E085E20E94B0
:10153000BB0260E086E20E94BB0260E087E20E949C
:10154000BB0260E088E20E94BB0260E089E20E9488
:10155000BB0260E08AE20E94BB0260E08BE20E9474
:10156000BB0260E08CE20E94BB02109275021092F6
:1015700074021092CA021092EC021092C80201E0AA
:101580000093C7021092A20261E084E10E94BB02B4
:1015900061E085E10E94BB028091B9008E7F80935B
:1015A000B9008091B9008D7F8093B90088E4809361
:1015B000B80085E48093BC008EE00E941B02682F77
:1015C0006B738EE00E94020280ED97E09093970289
:1015D00080939602009398020093990210929A02C7
:1015E00010929B0210929C02C0939D0280E795E3AB
:1015F000ADE6B8E380939E0290939F02A093A00271
:10160000B093A1028EE00E941B02682F64608EE0FE
:101610000E94020287E692E00E948002C82F82E6C2
:1016200092E00E948002182F8AE692E00E948002D7
:10163000F82E8DE692E00E948002E82E80E792E08C
:101640000E948002D82ED0E0C053D84F0093C90228
:1016500088E68093EB021092CA021092EC0260E0DE
:101660008AE893E00E94C1040AE08D2D602F0E9459
:10167000EF0D692F20E1829F600D11248AE893E02D
:101680000E94C1048E2D602F0E94EF0D692F20E172
:10169000829F600D11248AE893E00E94C1048F2D7F
:1016A000602F0E94EF0D692F20E1829F600D1124B1
:1016B0008AE893E00E94C104EAE9F1E0E491212F75
:1016C00030E02E0F311D2B5F3F4F2C0F3D1FCE0101
:1016D0009695879596958795280F391FCE0164E6D4
:1016E00070E00E94FB0DC901861B970B67E070E05C
:1016F0000E94FB0D009709F487E0DAE06D2F0E944D
:10170000EF0D692F8AE893E00E94C104812F6D2FAD
:101710000E94EF0D692F20E1829F600D11248AE85D
:1017200093E00E94C10461E18AE893E00E94C10451
:101730008C2F805D6D2F0E94EF0D692F20E1829F1D
:10174000600D11248AE893E00E94C10460E08AE8F9
:1017500093E00E94C1040E94A50181E08093C90228
:1017600088E68093EB021092CA021092EC0267E0C6
:101770008AE893E00E94C10461E08AE893E00E9455
:10178000C10460E88AE893E00E94C10460E88AE846
:1017900093E00E94C10460E88AE893E00E94C104DB
:1017A0000E94A5018EE00E941B02682F61608EE0FE
:1017B0000E9402028FE00E941B02682F6E7F8FE062
:1017C0000E94020280EF94E0909321028093200215
:1017D00080916A008C7F826080936A00EC9A60E05E
:1017E0008FE10E94BB026CE271E080E090E00E9419
:1017F000780761E08FE10E94BB0260ED77E080E056
:1018000090E00E94780760E087E10E94BB026CE2F2
:1018100071E080E090E00E94780761E087E10E943B
:10182000BB0260ED77E080E090E00E94780760E026
:1018300086E10E94BB026CE271E080E090E00E94D1
:10184000780761E086E10E94BB0268EB7BE080E004
:1018500090E00E94780760E080E20E94BB026CE2A8
:1018600071E080E090E00E94780761E080E20E94F1
:10187000BB0268E873E180E090E00E94780760E0D6
:1018800085E10E94BB026CE271E080E090E00E9482
:10189000780761E085E10E94BB0260ED77E080E0BF
:1018A00090E00E94780760E080E20E94BB0260E066
:1018B00088E10E94BB0260E08BE20E94BB026CE206
:1018C00071E080E090E00E94780761E080E20E9491
:1018D000BB0261E088E10E94BB0261E08BE20E94F2
:1018E000BB0260ED77E080E090E00E94780768E856
:1018F00073E180E090E00E9478070E94FA036FCFC6
:10190000CF93DF931092F0021092EF0288EE93E0F3
:10191000A0E0B0E08093F1029093F202A093F30272
:10192000B093F4022AE332E03093EE022093ED020A
:1019300025EC30E03093FA022093F90224EC30E0F9
:101940003093FC022093FB0220EC30E03093FE0247
:101950002093FD0221EC30E0309300032093FF023E
:1019600022EC30E0309302032093010326EC30E0B8
:10197000309304032093030310920603109207038D
:10198000109208031092090310928D0310928C0399
:1019900080938E0390938F03A0939003B093910351
:1019A0008AE492E090938B0380938A031092AF03B2
:1019B0001092AE031092B1031092B0031092B303D1
:1019C0001092B20361E070E080E090E00E94440F6A
:1019D000009791F09093AF038093AE031092B10300
:1019E0001092B0032091B2033091B303232B09F07E
:1019F000E7C0FC011082E4C08091AE039091AF0378
:101A0000009711F00E94AC0E1092AF031092AE033B
:101A10001092B3031092B2031092B1031092B0036C
:101A200010929903109298038AE592E0909397039D
:101A30008093960388E080939A038FEF80939B03B3
:101A400089E080939C0384E080939D0385E08093EC
:101A50009E0386E080939F0387E08093A00310920B
:101A6000A1031092A2031092A3031092A403109258
:101A7000A50381E08093A9031092AA0380E48093D8
:101A8000AB0380E18093AC0380E58093AD0388E0F5
:101A90000E94860180919B038F3F11F00E94860176
:101AA00080919C030E948601C0E0D0E08091A50354
:101AB00084FD03C084E090E002C088E090E0C81795
:101AC000D90744F4FE01EA56FC4F87810E94860143
:101AD0002196ECCF8BE39DE00197F1F760E08091D8
:101AE0009A030E94BB0260E080919C030E94BB02AB
:101AF00080919B038F3F19F060E00E94BB026091D0
:101B0000A50364FD20C063E086E993E00E949E0681
:101B1000CBE4D6E4CE010197F1F763E086E993E0E8
:101B20000E949E062197F1F763E086E993E00E9408
:101B30009E0683E592E00197F1F762E086E993E083
:101B40000E949E061BC0606286E993E00E94240703
:101B50008BE496E40197F1F76091A503606286E952
:101B600093E00E94240783E592E00197F1F76091EA
:101B7000A503606286E993E00E9424076091A503B3
:101B8000606286E993E00E94240784E08093A603C4
:101B90006CE086E993E00E94240761E086E993E027
:101BA0000E9424078BE39FE10197F1F782E0809385
:101BB000A70366E086E993E0DF91CF910C942407B8
:101BC0001092B3031092B20362E772E00E943B10DE
:101BD00027CF8091AE039091AF030C94AC0E991B6C
:101BE00079E004C0991F961708F0961B881F7A9514
:101BF000C9F780950895AA1BBB1B51E107C0AA1F16
:101C0000BB1FA617B70710F0A61BB70B881F991F9D
:101C10005A95A9F780959095BC01CD010895EE0FD6
:101C2000FF1F881F8BBF0790F691E02D1994CF936B
:101C3000DF938230910510F482E090E0E091070498
:101C4000F091080420E030E0C0E0D0E0309711F1DE
:101C50004081518148175907C0F04817590761F46E
:101C600082819381209719F09B838A832BC0909364
:101C700008048093070426C02115310519F0421786
:101C8000530718F49A01BE01DF01EF010280F381CE
:101C9000E02DDCCF2115310509F1281B390B24304B
:101CA000310590F412968D919C91139761157105F1
:101CB00021F0FB019383828304C0909308048093F6
:101CC0000704FD01329644C0FD01E20FF31F81932A
:101CD0009193225031092D933C933AC020910504F1
:101CE00030910604232B41F42091320230913302CB
:101CF0003093060420930504209130023091310284
:101D00002115310541F42DB73EB740913402509171
:101D10003502241B350BE0910504F0910604E2170F
:101D2000F307A0F42E1B3F0B2817390778F0AC01FE
:101D30004E5F5F4F2417350748F04E0F5F1F5093DB
:101D40000604409305048193919302C0E0E0F0E023
:101D5000CF01DF91CF9108950F931F93CF93DF931E
:101D6000009709F48CC0FC01329713821282009113
:101D70000704109108040115110581F420813181B7
:101D8000820F931F2091050430910604281739070C
:101D900079F5F0930604E093050471C0D80140E0A2
:101DA00050E0AE17BF0750F412962D913C91139757
:101DB000AD012115310509F1D901F3CF9D01DA01FA
:101DC0003383228360817181860F971F8217930767
:101DD00069F4EC0128813981260F371F2E5F3F4FB0
:101DE000318320838A819B8193838283452B29F4CD
:101DF000F0930804E093070442C01396FC93EE931B
:101E00001297ED01499159919E01240F351FE21758
:101E1000F30771F480819181840F951F02961196CA
:101E20009C938E938281938113969C938E931297A9
:101E3000E0E0F0E0D80112968D919C911397009705
:101E400019F0F8018C01F6CF8D919C9198012E5FCD
:101E50003F4F820F931F20910504309106042817ED
:101E6000390769F4309729F4109208041092070496
:101E700002C0138212821093060400930504DF91BE
:101E8000CF911F910F9108956F927F928F929F92A1
:101E9000AF92BF92CF92DF92EF92FF920F931F9378
:101EA000CF93DF93EC01009789F4CB01DF91CF91C1
:101EB0001F910F91FF90EF90DF90CF90BF90AF9068
:101EC0009F908F907F906F900C94170EFC01E60FFF
:101ED000F71F9C0122503109E217F30708F4ACC048
:101EE000D9010D911C91119706171707B0F0053015
:101EF000110508F49FC0C80104978617970708F4D6
:101F000099C002501109061B170B019311936D9391
:101F10007C93CF010E94AC0E8DC05B01A01AB10A68
:101F20004C01800E911EA0910704B091080440E07E
:101F300050E0E12CF12C109709F44AC0A815B9051E
:101F4000D1F56D907C901197630182E0C80ED11C91
:101F5000CA14DB0480F1A3014A195B096A0182E01B
:101F6000C80ED11C1296BC9012971396AC91B5E096
:101F7000CB16D10440F0B282A38351834083D901B0
:101F80006D937C930AC00E5F1F4FC301800F911F9A
:101F9000F90191838083EB2DFA2FE114F10431F0E4
:101FA000D7011396FC93EE93129744C0F093080464
:101FB000E09307043FC08D919C91119748175907F2
:101FC00008F4AC017D0112960D90BC91A02DB3CF09
:101FD000809105049091060488159905E1F446174F
:101FE0005707C8F48091300290913102009741F474
:101FF0008DB79EB74091340250913502841B950BEA
:10200000E817F907C8F4F0930604E0930504F90112
:10201000718360830FC0CB010E94170E7C01009773
:1020200059F0A801BE010E943210CE010E94AC0EF0
:10203000C70104C0CE0102C080E090E0DF91CF91E3
:102040001F910F91FF90EF90DF90CF90BF90AF90D6
:102050009F908F907F906F90089581E090E0F8942A
:102060000C944210FB01DC0102C001900D92415022
:102070005040D8F70895FB01DC0101900D9200203B
:10208000E1F7089511E0C2E5D1E000E006C0802F3D
:10209000FE010E940F0E2196011DC335D10780E07D
:0820A0000807A9F7F894FFCF2F
:1020A800000004021F020400000004081F080400C6
:1020B8000E0F0909191B030000040E0E1F1F040050
:1020C8004C074C074C074C074C074C074C074C0770
:1020D8000000090480000000000091034D075A0326
:1020E80038034C03D80300000000C104910489049C
:1020F800750466046504000000001E074D074E6F56
:102108007620313820323031370030303A35363A9F
:042118003536000058
:00000001FF
