:100000000C94A5030C94D6030C94D6030C94D6033D
:100010000C94D6030C94D6030C94D6030C94D603FC
:100020000C94D6030C94D6030C94D6030C94D603EC
:100030000C94D6030C94D6030C94D6030C94D603DC
:100040000C94D6030C94D6030C94D6030C94D603CC
:100050000C94D6030C94D6030C94D6030C94871DF1
:100060000C94D6030C940F070C94E5060C94D6035D
:100070000C94D6030C94D6030C94D6030C94D6039C
:100080000C94D6030C94D6030C94D6030C94D6038C
:100090000C94D6030C94D6030C94D6030C94450709
:1000A0000C94D6030C94D6030C94D6030C94D6036C
:1000B0000C94D6030C94D6030C94D6030C94D6035C
:1000C0000C94D6030C94D6030C94D6030C94D6034C
:1000D0000C94D6030C94D6030C94D6030C94D6033C
:1000E0000C94D6039C05A505AE05B705C005C9054A
:1000F000D205DB05E405ED05F605FF05080611064A
:100100001A0623062C0635063E06470650065906F3
:1001100062066B06CA06850688068B068E06910661
:10012000940697069A069D06A006A306A606A906AB
:10013000AC06AF06B206B506B806BB06BE06C106DB
:10014000C406C706C422D122DE22EB22F8220523F0
:1001500012231F232C2339234623532360236D238B
:100160007A2387239423A123AE23BB23C823D5233B
:10017000E223EF23202435244A245F247424892495
:100180009E24B324C824DD24F22407251C25312510
:1001900046255B25702585259A25AF25C425D925BB
:1001A000EE250326E126E426E726EA26ED26F026BC
:1001B000F326F626F926FC26FF2602270527082720
:1001C0000B270E271127142717271A271D2720274B
:1001D000232726272927B715171617160D151716C3
:1001E00053159A15971517161716171691156615A4
:1001F0001C15171617161716171636151716EC15A1
:100200001716171617168915171617161716171615
:10021000171617161716BF1517161716F8141716F0
:100220001716A8159D15CB15FB141716FE144D15A2
:1002300050151716171617161716D1157B15171602
:1002400017161F1517168C152715F31CF61CE51C21
:10025000E91CED1C2D1DFA1CFE1C041D081D0C1DA7
:10026000121D161D1A1D2D1D201D241D281D0C9448
:1002700007250C9460230C9450150C941C150C94B9
:10028000EE250C94EF230C9423270C9411060C9468
:10029000281D0C9402270C941F230C9405270C9402
:1002A0007A230C94F6260C94C9050C94C8240C945B
:1002B00035060C9462060C940B270C9453230C9473
:1002C000EA260C946D230C94E4260C941A270C94C3
:1002D000E1260C94B8060C94ED1C0C9488060C9442
:1002E00023060C94A0060C94E4050C94FA1C0C94C0
:1002F000C4060C9453150C940D150C949A060C948A
:10030000F8220C9403260C947B150C94161D0C9467
:10031000DD240C9474240C94FE1C0C94E51C0C94A9
:10032000A6060C9447060C94E91C0C94AF060C949A
:1003300031040C94C0050C94BB230C94CB150C9485
:1003400059060C9405230C94D2050C949C050C942E
:100350001A1D0C948B060C94D1150C9417270C9431
:10036000EB220C946B060C9494230C94FA030C94DB
:1003700089240C9497060C94F3260C94C1060C94D3
:10038000B5060C941F150C9429270C94121D0C947F
:10039000A9060C9414270C94AC060C94BF150C946D
:1003A00066150C94D1220C94F2240C940C1D0C9420
:1003B000B3240C949A250C94B7050C94ED050C9479
:1003C000AF250C9411270C94BB060C9408270C94B1
:1003D000F0260C9478040C94C8230C94D9250C9422
:1003E00070250C941A060C94C4250C943E060C94AB
:1003F0001D270C9420270C9431050C94EC150C94BB
:1004000017160C94EC030C9431250C94FC260C94D8
:100410008E060C94591C0C94261E0C94A3060C9466
:10042000CC270C94DE220C9429050C945B250C94AB
:10043000ED260C94C7060C94CA060C9408060C947E
:10044000BE060C9461050C94F6050C94A1230C9443
:10045000AE050C94D5230C9497150C945F240C9442
:1004600085060C94FF050C9487230C9439230C9477
:1004700006050C940E270C94E7260C94AE230C94DE
:1004800085250C94FE140C94FB140C9412230C94EC
:100490008C150C9446230C9491150C94F31C0C941D
:1004A0002C230C9494060C9489150C94F7080C9446
:1004B0009D060C94B2060C94081D0C94F61C0C942A
:1004C0002D1D0C94A5050C944A240C949E240C9488
:1004D000A8150C94041D0C94DB050C9435240C9485
:1004E000F9260C949A150C9436150C9450060C941D
:1004F000C4220C944D150C94B7150C9420240C9424
:10050000E2230C94201D0C9415050C9405050C9405
:10051000241D0C9427150C9446250C941C250C9432
:100520009D150C9491060C94FF260C94D8030C9402
:100530002C060C94F8140C94262700407A10F35AD9
:1005400000A0724E18090010A5D4E80000E8764813
:10055000170000E40B54020000CA9A3B000000E1BF
:10056000F505000080969800000040420F00000052
:10057000A08601000000102700000000E803000032
:1005800000006400000000000A00000000000100FC
:10059000000000002C76D888DC674F0823DFC1DF1D
:1005A000AE59E1B1B796E5E3E453C63AE651997620
:1005B00096E8E6C28426EB898C9B62ED407C6FFC5A
:1005C000EFBC9C9F40F2BAA56FA5F490055A2AF79C
:1005D0005C936B6CF9676DC11BFCE0E40D47FEF5A5
:1005E00020E6B500D0ED902E03009435770500800D
:1005F000841E080000204E0A000000C80C3333336C
:10060000330F986E12831141EF8D2114893BE6550B
:1006100016CFFEE6DB18D1844B381BF77C1D901DEE
:10062000A4BBE424203284725E228100C9F124EC50
:10063000A1E53D271F1C1F1E1F1E1F1F1E1F1E1F63
:1006400000002200250028002B002E00310034007D
:1006500002010000050108010B0100002100240037
:1006600027002A002D0030003300010100000401A2
:1006700007010A0105050505070508080808020223
:1006800002020A0A0808040404040101010101012C
:1006900001010303030303030303040707070C0C0F
:1006A0000C0C0C0C0C0C02020202060606060606D6
:1006B00006060B0B0B0B0B0B0B0B0102102020087B
:1006C00008102040102040800201020108040201AD
:1006D000010204081020408080402010080402011C
:1006E0008004020180402010080402010804020175
:1006F00001020408102040800102040810204080FC
:1007000000000A0B02090C0D0E080703040100008B
:1007100000000000000000000000000000000000D9
:100720000000000000000000000000001211100096
:1007300000000000000000000000000000000000B9
:10074000000000000000CC27261E11241FBECFEFA2
:10075000D1E2DEBFCDBF00E00CBF26E0AEECB4E0DE
:1007600001C01D92A43EB207E1F714E0A0E0B2E0A0
:10077000EAEDF2E600E00BBF02C007900D92AE3C3E
:10078000B107D9F713E0C4EAD3E000E006C021972F
:100790000109802FFE010E94222CC33AD10780E07C
:1007A0000807A9F70E942E1E0C945B310C940000E0
:1007B000FC01918D828D981761F0828DDF01A80F69
:1007C000B11D5D968C91928D9F5F9F73928F90E08B
:1007D00008958FEF9FEF0895FC01918D828D9817FA
:1007E00031F0828DE80FF11D858D90E008958FEF37
:1007F0009FEF0895FC01918D228D892F90E0805C00
:100800009F4F821B91098F73992708958AE096E084
:100810000E94FA0321E0892B09F420E0822F089539
:10082000FC01848DDF01A80FB11DA35ABF4F2C918D
:10083000848D90E001968F739927848FA689B7895C
:100840002C93A089B1898C9180648C93938D848D35
:10085000981306C00288F389E02D80818F7D808304
:100860000895EF92FF920F931F93CF93DF93EC01C4
:1008700081E0888F9B8D8C8D981305C0E889F9895C
:10088000808185FD24C0F62E0B8D10E00F5F1F4F79
:100890000F731127E02E8C8DE8120CC00FB607FCE9
:1008A000FACFE889F989808185FFF5CFCE010E94D2
:1008B0001004F1CF8B8DFE01E80FF11DE35AFF4FBD
:1008C000F0820B8FEA89FB898081806207C0EE8904
:1008D000FF896083E889F98980818064808381E071
:1008E00090E0DF91CF911F910F91FF90EF900895CD
:1008F000CF93DF93EC01888D8823C9F0EA89FB89C7
:10090000808185FD05C0A889B9898C9186FD0FC0BD
:100910000FB607FCF5CF808185FFF2CFA889B98992
:100920008C9185FFEDCFCE010E941004E7CFDF91BF
:10093000CF91089580E090E0892B21F00E94060479
:10094000811125C080E090E0892B41F080E090E0AB
:10095000892B21F00E94000081111CC080E090E0F2
:10096000892B41F080E090E0892B21F00E9400006B
:10097000811113C080E090E0892BA1F080E090E02D
:10098000892B81F00E94000081110AC008950E9405
:100990000000D8CF0E940000E1CF0E940000EACF03
:1009A0000C940000089585ED8093BC008091BC00FC
:1009B00084FDFCCF1092D905089540910605262F9D
:1009C00030E0240F311D21323105DCF42091D905AE
:1009D0002430C9F4FC0180E090E0861758F430918F
:1009E00006052191DC01AC51BB4FA30FB11D2C9327
:1009F0000196F3CF80910605680F6093060580E0AD
:100A0000089581E0089582E008950895E0919205A7
:100A100080919105E81730F4F0E0ED56FA4F8081AF
:100A200090E008958FEF9FEF089590919205809147
:100A30009105981750F4E92FF0E0ED56FA4F208118
:100A400030E09F5F9093920502C02FEF3FEFC90106
:100A500008958091910590E020919205821B910963
:100A60000895CF92DF92EF92FF920F931F93CF934F
:100A7000DF937C01262F972F8A018091DA05882346
:100A800091F0C62FD72F6E01C40ED51ECC15DD05F3
:100A900071F06991D701ED91FC910190F081E02D09
:100AA000C7011995F3CF642F822F0E94DD04C8017E
:100AB000DF91CF911F910F91FF90EF90DF90CF903A
:100AC0000895CF93DF931F92CDB7DEB7698320914E
:100AD000DA052223D1F02091FD05203240F021E0FB
:100AE00030E0FC013383228380E090E015C08091E8
:100AF000DB05E82FF0E0E452FA4F998190838F5F95
:100B00008093DB058093FD0505C061E0CE01019671
:100B10000E94DD0481E090E00F90DF91CF91089575
:100B2000FC013197E831F10508F0DEC08827EE5866
:100B3000FF4F8F4F0C94222C60918D0570918E0584
:100B400080918F059091900508956091890570912D
:100B50008A0580918B0590918C050895609185059B
:100B60007091860580918705909188050895609120
:100B70008105709182058091830590918405089587
:100B800060917D0570917E0580917F059091800533
:100B900008956091790570917A0580917B05909117
:100BA0007C050895609175057091760580917705B3
:100BB000909178050895609171057091720580910A
:100BC000730590917405089560916D0570916E059F
:100BD00080916F05909170050895609169057091FD
:100BE0006A0580916B0590916C050895609165058B
:100BF00070916605809167059091680508956091F0
:100C00006105709162058091630590916405089576
:100C100060915D0570915E0580915F059091600522
:100C200008956091590570915A0580915B059091E6
:100C30005C050895609155057091560580915705A2
:100C400090915805089560915105709152058091D9
:100C5000530590915405089560914D0570914E058E
:100C600080914F05909150050895609149057091CC
:100C70004A0580914B0590914C050895609145057A
:100C800070914605809147059091480508956091BF
:100C90004105709142058091430590914405089566
:100CA00060913D0570913E0580913F059091400512
:100CB00008956091390570913A0580913B059091B6
:100CC0003C05089560913505709136058091370592
:100CD00090913805089560913105709132058091A9
:100CE000330590913405089564E670E080E090E06B
:100CF0000895FC013197E831F10508F04DC08827CF
:100D0000E657FF4F8F4F0C94222C87E190E0089517
:100D100088E190E0089589E190E008958AE190E00B
:100D200008958BE190E008958CE190E008958DE1C5
:100D300090E008958EE190E008958FE190E00895AD
:100D400080E290E0089581E290E0089582E290E0F0
:100D5000089583E290E0089584E290E0089585E2AA
:100D600090E0089586E290E0089587E290E008958B
:100D700088E290E0089589E290E008958AE290E0A8
:100D800008958BE290E008958CE290E008958DE262
:100D900090E0089586E190E008950E94542ECF934C
:100DA000DF93EC0160E08E810E94C41C61E08E81C3
:100DB0000E94C41C60E08E810E94C41C8BE891E0FC
:100DC0000197F1F7DF91CF9108951F920F920FB61F
:100DD0000F9211240BB60F922F933F934F935F9373
:100DE0006F937F938F939F93AF93BF93EF93FF93F3
:100DF0008AE096E00E941004FF91EF91BF91AF91BD
:100E00009F918F917F916F915F914F913F912F9122
:100E10000F900BBE0F900FBE0F901F9018951F9252
:100E20000F920FB60F9211240BB60F922F938F9340
:100E30009F93EF93FF93E0911A06F0911B06808138
:100E4000E0912006F091210682FD12C090818091F0
:100E500023068F5F8F7320912406821751F0E09153
:100E60002306F0E0E65FF94F958F8093230601C0DB
:100E70008081FF91EF919F918F912F910F900BBEE9
:100E80000F900FBE0F901F9018951F920F920FB6E4
:100E90000F9211240BB60F922F933F934F935F93B2
:100EA0006F937F938F939F93AF93BF93EF93FF9332
:100EB0008091B900887F803609F49CC068F588323B
:100EC00009F45BC090F4803109F454C038F48823ED
:100ED00009F4F6C0883009F44DC0F6C0883109F431
:100EE0004CC0803209F45DC0EFC0803409F468C0A2
:100EF00048F4803309F455C0883309F0E5C0809385
:100F0000D705D8C0803509F44FC0883509F45DC0D5
:100F1000883409F0D9C0D6C0883909F4C7C0A8F40C
:100F2000883709F467C038F4883609F463C080371D
:100F300009F460C0C9C0883809F4B8C0803909F420
:100F40005FC0803809F0C0C05BC0803B09F486C038
:100F500038F4803A09F466C0883A09F47FC0B4C016
:100F6000803C09F4A7C0883C09F4A4C0883B09F47C
:100F70008AC0AAC08091B40510C09091D605809116
:100F8000D505981770F5E091D60581E08E0F809316
:100F9000D605F0E0EB54FA4F80818093BB0085ECDE
:100FA00086C08093D7058EC0E091D60581E08E0F74
:100FB0008093D6058091BB00F0E0EB54FA4F80831C
:100FC0009091D6058091D5056EC0E091D60581E05F
:100FD0008E0F8093D6058091BB00F0E0EB54FA4F62
:100FE00080838091D80581116DC081E08093B30525
:100FF00084EA61C083E08093D90510922A05CFCF9F
:1010000080912A05803208F051C0E0912A0581E0E4
:101010008E0F80932A058091BB00F0E0E65FFA4FC7
:101020008083BDCF85EC8093BC001092D905809160
:101030002A05803230F4E0912A05F0E0E65FFA4FAD
:10104000108260912A0570E0E0910805F091090591
:101050008AE095E0199510922A0536C084E08093C5
:10106000D9051092070510920605E0910405F0914C
:101070000505199580910605811105C081E08093D1
:1010800006051092E404E091070581E08E0F80933D
:101090000705F0E0EC51FB4F80818093BB009091FD
:1010A000070580910605981708F479CF85E88093A5
:1010B000BC000AC085EC8093BC001092D90504C026
:1010C0001092D7050E94D304FF91EF91BF91AF9189
:1010D0009F918F917F916F915F914F913F912F9150
:1010E0000F900BBE0F900FBE0F901F901895CF92D0
:1010F000DF92EF92FF920F931F93CF93DF937C01C8
:101100006C0187E0C80ED11CC0E0D0E0062F10E0D3
:10111000B8010C2E02C0759567950A94E2F76170CC
:10112000F60181916F010E94C41C2196C430D10543
:1011300079F7C701DF91CF911F910F91FF90EF9049
:10114000DF90CF900C94CF06CF92DF92EF92FF9278
:101150000F931F93CF93DF93EC01F62E642F8C81B6
:101160000E94C41C8D818F3F19F060E00E94C41C56
:101170008F850F2D10E084FF25C06E0187E0C80E1B
:10118000D11CE12CF12CB8010E2C02C0759567958D
:101190000A94E2F76170F60181916F010E94C41C0C
:1011A000FFEFEF1AFF0A88E0E816F10461F7CE01BD
:1011B000DF91CF911F910F91FF90EF90DF90CF9033
:1011C0000C94CF06B80184E0759567958A95E1F790
:1011D000CE010E9477086F2DCE01DF91CF911F9134
:1011E0000F91FF90EF90DF90CF900C94770841E043
:1011F0000E94A40881E090E0089540E00C94A408C7
:1012000061E00E94FD088BE39FE10197F1F70895EB
:101210002F923F924F925F926F927F928F929F9206
:10122000AF92BF92CF92DF92EF92FF920F931F93F4
:10123000CF93DF9300D01F92CDB7DEB75C018B0157
:101240001A010E947906E82EC8010E947906D82E5C
:10125000C5010E9490054B015C01C8010E949005E8
:101260002B013C018FEB96E00E94000961E083E0D6
:101270000E94231160E08FEB96E00E94F7088EE851
:1012800092E00E94A31760E08E2D0E94C41C60E0D3
:101290008D2D0E94C41C0E947B1D609336027093AA
:1012A00037028093380290933902FF24F394CC24C0
:1012B000C3940E947B1D609332027093330280932B
:1012C00034029093350220913602309137024091DA
:1012D000380250913902621B730B840B950B681511
:1012E00079058A059B0528F061E08E2D0E94C41CBB
:1012F000C12C8091320290913302A0913402B091BE
:101300003502409136025091370260913802709157
:101310003902841B950BA60BB70B84159505A60502
:10132000B70540F061E08D2D0E94C41CCC2031F047
:10133000F12CBFCFC110BDCFF110BBCFB10180E008
:1013400090E00F900F900F900F90DF91CF911F9131
:101350000F91FF90EF90DF90CF90BF90AF909F9054
:101360008F907F906F905F904F903F902F900C9454
:10137000411DCF93DF9300D000D0CDB7DEB7BC01C5
:10138000CE0101960E94F71D8FEB96E00E940009A6
:1013900060E080E00E94231161E08FEB96E00E9404
:1013A000F70860E082E00E942311CE0101960E94BE
:1013B000881760E08EE00E94231186E992E00E9487
:1013C000A317CE0101960E94F21D26960FB6F8943F
:1013D000DEBF0FBECDBFDF91CF910895CF92DF92D8
:1013E000EF92FF92CF93DF93EC010E9490056B0187
:1013F0007C018FEB96E00E94000960E080E00E9493
:10140000231165E08FEB96E00E94F70860E082E030
:101410000E942311CE010E94791160E084E00E94B5
:10142000231189E992E00E94A31760E089E00E94FD
:1014300023114AE0C701B6010E94381160E08EE036
:101440000E94231186E992E0DF91CF91FF90EF9007
:10145000DF90CF900C94A317CF92DF92EF92FF9280
:10146000CF93DF93EC016A017B018FEB96E00E9442
:10147000000960E080E00E94231160E08FEB96E0BD
:101480000E94F70860E082E00E942311CE010E94D2
:10149000791160E084E00E9423118FE992E00E94BC
:1014A000A31760E089E00E9423114AE0C701B6015A
:1014B0000E94381160E08EE00E94231186E992E0DC
:1014C000DF91CF91FF90EF90DF90CF900C94A31716
:1014D000DF92EF92FF920F931F93CF93DF9300D091
:1014E0001F92CDB7DEB78C010E94900569837A8385
:1014F0008B839C83000F111F000F111FCE010196DB
:101500007C0194E0D92EDE0CF70161917F01C801C6
:101510000E94B82B0F5F1F4FDE10F6CF0F900F9079
:101520000F900F90DF91CF911F910F91FF90EF904F
:10153000DF900895DF92EF92FF920F931F93CF9366
:10154000DF9300D01F92CDB7DEB7880F991F880FA9
:10155000991F8E010F5F1F4F7C01E01AF10A34E0E2
:10156000D32ED00EC701800F911F0E94B02BF8011F
:1015700081938F01DE12F6CF69817A818B819C8104
:101580000F900F900F900F90DF91CF911F910F91BF
:10159000FF90EF90DF90089580917B00877F80938C
:1015A0007B0080E480937C0080917A00806480934B
:1015B0007A0080917A0086FDFCCF2091780080919E
:1015C000790030E0382B233431058CF02D3D310586
:1015D00084F02C3881E0380774F02A3592E039071E
:1015E00064F081E0293633404CF080E0089585E0D6
:1015F000089584E0089583E0089582E00895CF92ED
:10160000DF92EF92FF920F931F93CF93DF93C8ED7A
:10161000D4E0CE010E94E2168E8190E09093D70430
:101620008093D6048D8190E09093310280933002B4
:101630008C8190E090932C0580932B058B8190E01A
:101640009093D5048093D4048F8190E09093D30439
:101650008093D2048A8190E09093D1048093D00447
:10166000888199819093CF048093CE04C090D80450
:10167000D090D904E090DA04F090DB040091DC040F
:101680001091DD042091DE043091DF044091E004EC
:101690005091E1046091E2047091E30485EA92E0E4
:1016A0000E944114BC0189EB96E0DF91CF911F911C
:1016B0000F91FF90EF90DF90CF900C94D11DAF92DF
:1016C000BF92CF92DF92EF92FF920F931F93CF932F
:1016D000DF93CDB7DEB7A7970FB6F894DEBF0FBE86
:1016E000CDBF88ED94E00E94E2168091DD0490E089
:1016F00020913002309131028217930709F48BC098
:1017000090933102809330028FEB96E00E940009A3
:10171000C090D804D090D904E090DA04F090DB04B3
:101720000091DC041091DD042091DE043091DF048F
:101730004091E0045091E1046091E2047091E3046F
:1017400087EA92E00E9441140E94A31761E080E0C2
:101750000E94231181EB92E00E94A31781E0809305
:10176000DA0588E68093FC051092DB051092FD05F2
:1017700061E187EA96E00E9461050E943C1682E0E2
:1017800090E00E949916909191058091920598178A
:10179000F1F387EA96E00E941505182F87EA96E094
:1017A0000E9415051BA21AA21DA21CA21FA21EA206
:1017B000B12EA12CB501682B86E0759567958A95A9
:1017C000E1F7072E000C880B990B0E94B72A20E046
:1017D00030E040E85EE30E94F22A8E010F5F1F4F67
:1017E00022E044E00E942F28BC01CE0182960E9494
:1017F000D11DCE0182960E948817CE0182960E944A
:10180000F21D0E94FF0A87EB92E00E94A31789EB6A
:1018100096E00E948817A7960FB6F894DEBF0FBE19
:10182000CDBFDF91CF911F910F91FF90EF90DF908F
:10183000CF90BF90AF900895AF92BF92CF92DF92BA
:10184000EF92FF920F931F93CF93DF935C016A0196
:101850007B01E9010E947906182F092F8FEB96E092
:101860000E94000960E083E00E94231180EA92E078
:101870000E94A3174AE0C701B6010E9438118BEB02
:1018800092E00E94A31761E082E00E94231160E0D1
:101890008FEB96E00E94F70889EB92E00E94A31775
:1018A000C5010E9479118FEB92E00E94A317812F4E
:1018B000902F0E94791160E0812F0E94C41CC70103
:1018C000B6010E94411D61E0812F0E94C41CBE012F
:1018D00080E090E00E94411DDF91CF911F910F9118
:1018E000FF90EF90DF90CF90BF90AF900895409120
:1018F00051055091520560915305709154059C011A
:1019000080E190E00C941C0C4091610550916205BF
:1019100060916305709164059C018CE090E00C94EB
:101920001C0C40917505509176056091770570917A
:1019300078059C0187E090E00C941C0C40917D059B
:1019400050917E0560917F05709180059C0185E036
:1019500090E00C941C0C44EF51E061E170E080E1F8
:1019600090E00E9408094CE251E061E170E080E102
:1019700090E00E94080944EF51E061E170E085E0E9
:1019800090E00E94080948EC50E061E170E085E0D9
:1019900090E00E94080948EC50E061E170E080E1CD
:1019A00090E00E94080940915505509156056091BC
:1019B00057057091580528EC30E08FE090E00E94C8
:1019C0001C0C48EC50E061E170E080E190E00E9486
:1019D000080948EC50E061E170E080E190E00E948D
:1019E000080988EC90E00E949E0C44EF51E061E110
:1019F00070E08FE090E00E940809409165055091E9
:101A00006605609167057091680528EC30E08BE011
:101A100090E00E941C0C88EC90E00E94770C88EC0F
:101A200090E00E94910C409165055091660560918F
:101A300067057091680520E931E08BE090E00E9435
:101A40001C0C4091590550915A0560915B057091AD
:101A50005C0528EC30E08EE090E00E941C0C409188
:101A60005D0550915E0560915F057091600528EC01
:101A700030E08DE090E00E941C0C8CE291E00E942E
:101A8000840C80E991E00E94770C84EF91E00E9441
:101A9000840C88EC90E00E94770C84EF91E00E9427
:101AA000840C88EC90E00E94840C88EC90E00E940A
:101AB0009E0C88EC90E00E94770C84EF91E00E94ED
:101AC000840C4091550550915605609157057091D1
:101AD000580528EC30E08FE090E00E941C0C40910B
:101AE0005D0550915E0560915F057091600524EF82
:101AF00031E08DE090E00E941C0C88EC90E00E94A8
:101B0000910C88EC90E00E94910C84EF91E00E948F
:101B1000770C48EC50E06DE070E085E090E00E94CA
:101B200008094CE251E063E070E08DE090E00E9433
:101B3000080948EC50E063E070E085E090E00E9426
:101B400008094CE251E063E070E082E190E00E941D
:101B5000080940918505509186056091870570912F
:101B6000880528EC30E083E090E00E941C0C4CE2F9
:101B700051E060E170E08BE090E00E94080948ECE1
:101B800050E06FE070E085E090E00E94080948ECCA
:101B900050E06FE070E085E090E00E94080944EFBB
:101BA00051E063E070E08DE090E00E9408094CE2B3
:101BB00051E067E070E08EE090E00E94080948EC98
:101BC00050E063E170E080E190E00E94080988EC59
:101BD00090E00E949E0C48EC50E06DE070E08EE0DA
:101BE00090E00E94080948EC50E06DE070E08FE062
:101BF00090E00E94080940E050E06DE070E082E172
:101C000090E00C940809803161F020F4813009F4EF
:101C1000F3C00895813109F473C0823109F4ECC036
:101C2000089520ED37E04AEF50E060E070E081E099
:101C300090E00E941C0C20ED37E048E151E060E0AC
:101C400070E082E090E00E941C0C28EB3BE04AEF41
:101C500050E060E070E083E090E00E941C0C28E817
:101C600033E14CE251E060E070E084E090E00E94FB
:101C70001C0C20ED37E04CE251E060E070E085E0C4
:101C800090E00E941C0C20ED37E04CE251E060E057
:101C900070E086E090E00E941C0C20ED37E04CE202
:101CA00051E060E070E087E090E00E941C0C20EDC5
:101CB00037E04CE251E060E070E088E090E00E94A4
:101CC0001C0C40ED57E062E070E081E090E00E9483
:101CD000080980ED97E00E94AF1180ED97E00E9427
:101CE000711280ED97E00E94E61A80ED97E00E9465
:101CF000601980ED97E00E94A51780ED97E07AC00B
:101D000040918D0550918E0560918F0570919005E1
:101D100024EF31E081E090E00E941C0C40918905A5
:101D200050918A0560918B0570918C0524EF31E00C
:101D300082E090E00E941C0C409185055091860540
:101D4000609187057091880524EF31E083E090E091
:101D50000E941C0C40918105509182056091830581
:101D60007091840524EF31E084E090E00E941C0C27
:101D700084EF91E00E949E0C4091790550917A0584
:101D800060917B0570917C0524EF31E086E090E066
:101D90000E941C0C84EF91E00E94910C409171050F
:101DA00050917205609173057091740524EF31E0D4
:101DB00088E090E00E941C0C48EE53E062E070E086
:101DC00081E090E00E94080988EE93E00E94AF1144
:101DD00088EE93E00E94711288EE93E00E94E61A6A
:101DE00088EE93E00E94601988EE93E00E94A517A8
:101DF00088EE93E00C94FE0E0C94AB0C2F923F9265
:101E00004F925F926F927F928F929F92AF92BF920A
:101E1000CF92DF92EF92FF920F931F93CF93DF93B6
:101E2000CDB7DEB76A970FB6F894DEBF0FBECDBF51
:101E30001C0120918D0530918E0540918F055091A8
:101E4000900529833A834B835C83209189053091E7
:101E50008A0540918B0550918C052D833E834F83DD
:101E600058872091850530918605409187055091CE
:101E7000880529873A874B875C87209181053091B7
:101E8000820540918305509184052D873E874F87B9
:101E9000588B20917D0530917E0540917F055091B2
:101EA0008005298B3A8B4B8B5C8B20917905309187
:101EB0007A0540917B0550917C052D8B3E8B4F8B95
:101EC000588F8090750590907605A0907705B0901A
:101ED0007805409071055090720560907305709080
:101EE00074058FEB96E00E94000961E083E00E9498
:101EF000231160E08FEB96E00E94F70886EE93E0F6
:101F00000E94A31760E086E10E94C41C60E087E1A4
:101F10000E94C41C60E088E10E94C41C60E089E16A
:101F20000E94C41C60E08AE10E94C41C60E08BE156
:101F30000E94C41C60E08CE10E94C41C60E08DE142
:101F40000E94C41C0E947B1D60933602709337026E
:101F5000809338029093390231E0398F41E04A8F03
:101F6000CC24C394DD24D394EE24E394FF24F3948F
:101F700001E011E00E947B1D6093320270933302F6
:101F800080933402909335022091360230913702CB
:101F90004091380250913902DC01CB01821B930B36
:101FA000A40BB50B29813A814B815C818217930781
:101FB000A407B50728F061E086E10E94C41C10E088
:101FC0008091320290913302A0913402B091350297
:101FD0004091360250913702609138027091390277
:101FE000841B950BA60BB70B2D813E814F81588525
:101FF00082179307A407B50728F061E087E10E94E4
:10200000C41C00E08091320290913302A09134020E
:10201000B0913502409136025091370260913802FA
:1020200070913902841B950BA60BB70B29853A8555
:102030004B855C8582179307A407B50728F061E0FC
:1020400088E10E94C41CF12C8091320290913302ED
:10205000A0913402B091350240913602509137027E
:102060006091380270913902841B950BA60BB70B57
:102070002D853E854F85588982179307A407B5079C
:1020800028F061E089E10E94C41CE12C80913202B9
:1020900090913302A0913402B09135024091360202
:1020A000509137026091380270913902841B950B70
:1020B000A60BB70B29893A894B895C89821793074C
:1020C000A407B50728F061E08AE10E94C41CD12C66
:1020D0008091320290913302A0913402B091350286
:1020E0004091360250913702609138027091390266
:1020F000841B950BA60BB70B2D893E894F89588DF4
:1021000082179307A407B50728F061E08BE10E94CE
:10211000C41CC12C8091320290913302A0913402F0
:10212000B0913502409136025091370260913802E9
:1021300070913902841B950BA60BB70B8815990576
:10214000AA05BB0528F061E08CE10E94C41C1A8E30
:102150008091320290913302A0913402B091350205
:1021600040913602509137026091380270913902E5
:10217000841B950BA60BB70B84159505A605B70513
:1021800028F061E08DE10E94C41C198E1111F2CE7D
:102190000111F0CEF110EECEE110ECCED110EACE6E
:1021A000C110E8CE3A8D3111E5CE498D4111E2CE14
:1021B000B10180E090E06A960FB6F894DEBF0FBEE2
:1021C000CDBFDF91CF911F910F91FF90EF90DF90E6
:1021D000CF90BF90AF909F908F907F906F905F90C7
:1021E0004F903F902F900C94411DEF92FF920F93D0
:1021F0001F93CF93DF931F92CDB7DEB7162F877053
:1022000028E0829FC0011124682F60648FEB96E064
:1022100079830E94FD08E12E7981F72E8701085FFE
:102220001F4FF70161917F018FEB96E00E94F70845
:10223000E016F106B1F70F90DF91CF911F910F914A
:10224000FF90EF900895643008F063E09091D2061B
:10225000691710F06FEF690FE62FF0E0E154F94FC6
:102260009489682F690F60688FEB96E00C94FD08E5
:102270008F929F92AF92BF920F931F93CF93DF9352
:10228000CDB7DEB7A1970FB6F894DEBF0FBECDBFB6
:1022900019A2423008F44AE08E010F5D1F4F842ED0
:1022A000912CA12CB12CA50194010E94002CE62FA9
:1022B000B901CA0101501109EA3014F4E05D01C00E
:1022C000E95CD801EC93232B242B252B61F7C80163
:1022D0000E949117A1960FB6F894DEBF0FBECDBF36
:1022E000DF91CF911F910F91BF90AF909F908F90F2
:1022F0000895CF92DF92EF92FF92CF93DF936C011C
:10230000990FEE08FF08F7FE1FC0E091BF06F0919D
:10231000C0060190F081E02D6DE28FEB96E01995FB
:10232000EC0166277727CB016C197D098E099F097F
:102330004AE00E9438118C0F9D1FDF91CF91FF90D2
:10234000EF90DF90CF9008954AE0C701B601DF918A
:10235000CF91FF90EF90DF90CF900C9438113F9287
:102360004F925F926F927F928F929F92AF92BF92A5
:10237000CF92DF92EF92FF920F931F93CF93DF9351
:10238000CDB7DEB72A970FB6F894DEBF0FBECDBF2C
:102390009A87898780918D0590918E05A0918F05F0
:1023A000B091900589839A83AB83BC834090890563
:1023B00050908A0560908B0570908C058091850502
:1023C00090918605A0918705B09188058D839E83A5
:1023D000AF83B8878FEB96E00E94000961E083E04D
:1023E0000E94231160E08FEB96E00E94F7088EEECA
:1023F00093E00E94A31760E086E10E94C41C60E0A5
:1024000087E10E94C41C60E088E10E94C41C0E9415
:102410007B1D4B015C016093360270933702809301
:1024200038029093390211E03324339401E00E9482
:102430007B1D609332027093330280933402909339
:1024400035026B017C01C818D908EA08FB088981AC
:102450009A81AB81BC81C816D906EA06FB0628F032
:1024600061E086E10E94C41C00E0C414D504E604C7
:10247000F70428F061E087E10E94C41C312C8D81B3
:102480009E81AF81B885C816D906EA06FB0628F0FA
:1024900061E088E10E94C41C10E00111C8CF311036
:1024A000C6CF1111C4CF29853A85B90180E090E0EB
:1024B0002A960FB6F894DEBF0FBECDBFDF91CF9145
:1024C0001F910F91FF90EF90DF90CF90BF90AF9052
:1024D0009F908F907F906F905F904F903F900C9463
:1024E000411D2F923F924F925F926F927F928F92F7
:1024F0009F92AF92BF92CF92DF92EF92FF920F9393
:102500001F93CF93DF93CDB7DEB72E970FB6F89416
:10251000DEBF0FBECDBF1C0180918D0590918E0551
:10252000A0918F05B091900589839A83AB83BC837A
:102530008091890590918A05A0918B05B0918C05B9
:102540008D839E83AF83B887409085055090860524
:102550006090870570908805809181059091820533
:10256000A0918305B091840589879A87AB87BC8742
:102570008FEB96E00E94000961E083E00E94231146
:1025800060E08FEB96E00E94F70886EF93E00E94F0
:10259000A31760E086E10E94C41C60E087E10E940E
:1025A000C41C60E088E10E94C41C60E089E10E94D4
:1025B000C41C0E947B1D4B015C016093360270932A
:1025C0003702809338029093390291E09D8701E0B1
:1025D00011E0A1E0AE870E947B1D609332027093F0
:1025E000330280933402909335026B017C01C8184A
:1025F000D908EA08FB0889819A81AB81BC81C81699
:10260000D906EA06FB0628F061E086E10E94C41CB8
:102610001E868D819E81AF81B885C816D906EA06CF
:10262000FB0628F061E087E10E94C41C10E0C4149E
:10263000D504E604F70428F061E088E10E94C41C98
:1026400000E089859A85AB85BC85C816D906EA065F
:10265000FB0628F061E089E10E94C41C1D869E856E
:102660009111B9CF1111B7CF0111B5CFAD85A1111E
:10267000B2CFB10180E090E02E960FB6F894DEBFA5
:102680000FBECDBFDF91CF911F910F91FF90EF90C3
:10269000DF90CF90BF90AF909F908F907F906F9082
:1026A0005F904F903F902F900C94411DDC01A05DF6
:1026B000B74050E0E4E3F6E021E02E1B322F3E0F5E
:1026C000361728F43491430F511D3196F7CF6230FD
:1026D00029F49D0123703327232BB9F02DE631E037
:1026E000A29FB001A39F700DB29F700D11249C0199
:1026F0002D5C37403695279536952795CB01820F6F
:10270000931F0197840F951F08954F5F5F4FE6CF8A
:1027100090E0FC01E654F94F2491FC01EC58F94F8C
:102720008491882399F090E0880F991FFC01E65A64
:10273000F94FA591B491FC01E05CF94F859194911A
:102740008FB7F894EC91E22BEC938FBF0895EF9242
:10275000FF920F931F93CF93DF93EC01623018F039
:102760008F8588608F876B8B1C8A80E48D8B80E1DE
:102770008E8B80E58F8B8C810E9488138D818F3F9B
:1027800011F00E9488138E810E9488137E0187E0D9
:10279000E80EF11C00E010E08F8584FD03C084E0AA
:1027A00090E002C088E090E00817190744F4F701B0
:1027B00081917F010E9488130F5F1F4FEDCF8BE344
:1027C0009DE00197F1F760E08C810E94C41C60E0FD
:1027D0008E810E94C41C8D818F3F19F060E00E94A1
:1027E000C41C6F8564FD1DC063E0CE010E947708A4
:1027F0000BE416E4C8010197F1F763E0CE010E94F3
:102800007708C8010197F1F763E0CE010E947708CD
:1028100083E592E00197F1F762E0CE010E9477082C
:1028200016C06062CE010E94FD088BE496E4019719
:10283000F1F76F856062CE010E94FD0883E592E0AA
:102840000197F1F76F856062CE010E94FD086F85E8
:102850006062CE010E94FD0884E0888B6CE0CE01AE
:102860000E94FD08CE010E94000982E0898B66E08B
:10287000CE01DF91CF911F910F91FF90EF900C94BB
:10288000FD082F923F924F925F926F927F928F92AC
:102890009F92AF92BF92CF92DF92EF92FF920F93EF
:1028A0001F93CF93DF93CDB7DEB7C052D1400FB6A1
:1028B000F894DEBF0FBECDBFF82FE92FC55FDE4F06
:1028C000C882CB50D140C45FDE4FD882CC50D140BB
:1028D000C05FDE4F1883C051D140CF5EDE4F2883EA
:1028E000C151D140CD5EDE4F4883C351D140CC5E53
:1028F000DE4F5883C451D140CB5EDE4F6883C55153
:10290000D140CA5EDE4F7883C651D140C55FDE4FED
:10291000A880B980CB50D1401E2D1982632E712C16
:10292000C301079667E070E00E94EC2BE82EC25EC0
:10293000DE4F9883CE51D1408F2D6AE00E94E02B6C
:10294000C95EDE4F9883C751D1408F2E9E2E6E01F7
:10295000D394250143E044225524812F90E0DC01EB
:10296000AD5CB94FC15EDE4FB983A883CF51D14072
:102970002FEF210FC85EDE4F2883C851D140822F30
:1029800090E0880F991FAC01405C5D4FC65EDE4F42
:1029900059834883CA51D1403150C75EDE4F3883D6
:1029A000C951D140832F90E0880F991F9C01285A6C
:1029B0003D4FC45EDE4F39832883CC51D140B401F2
:1029C000D401ED914D01EE2309F43AC18E2FEE0FA3
:1029D000990BAA0BBB0BFC01E154F109EA33F10599
:1029E00008F025C18827E551FF4F8F4F0C94222C0A
:1029F0001F92FF92DDC01F92FF92B6C0C75EDE4FEE
:102A00003881C951D140373008F05DC0C45EDE4F17
:102A1000A881B981CC51D14053C0C75EDE4F288117
:102A2000C951D140273008F061C0C45EDE4FA88193
:102A3000B981CC51D14057C07F926F9295C0C25E90
:102A4000DE4F2881CE51D1402F93EF928DC041E0CF
:102A500061E0C5010E9456131C014F2D612FC50175
:102A60000E945613821993099F937DC0C95EDE4F61
:102A70003881C751D140313039F0323041F03330F4
:102A800049F06CE074E082C066E574E07FC066E007
:102A900074E07CC069E074E079C01F921F9388C025
:102AA0001F921F9361C0C85EDE4F2881C851D1407C
:102AB0002C3048F4C65EDE4FA881B981CA51D1409E
:102AC0006D917C9163C06EEF73E060C0C85EDE4FB5
:102AD0002881C851D1402C3048F4C65EDE4FA88111
:102AE000B981CA51D1406D917C9102C06EEF73E003
:102AF00043E050E09EC0C15EDE4FE881F981CF51D6
:102B0000D1408491123071F54114510409F496C0FA
:102B100029C0BF92AF9228C0C501805D97409F93A6
:102B200046C081E041145104E9F080E01BC01F92CF
:102B30000F933EC01F920F9317C0002329F00D3052
:102B400028F084EF800F32C08CE030C0802F2EC080
:102B5000002329F00D3028F084EF800F03C08CE0B3
:102B600001C0802F1F928F9380E294E023C00C302D
:102B700018F062E174E00AC06FE074E007C00C3046
:102B800018F065E174E002C068E174E0CE010196DE
:102B90000E94622E14CFC05FDE4F8881C051D140A9
:102BA00005C0CF5EDE4F8881C151D1401F928F9307
:102BB0008BE194E09F938F93DF92CF920E94842EBB
:102BC000B601CE0101960E94622E0F900F900F90D9
:102BD0000F900F900F90F3CECA5EDE4F8881C651E2
:102BE000D1408F93CB5EDE4F8881C551D1408F930A
:102BF000CC5EDE4F8881C451D1408F93CD5EDE4FD5
:102C00008881C351D1408F9383E294E09F938F9347
:102C1000DF92CF920E94842EB601CE0101960E94CF
:102C2000622E0FB6F894DEBF0FBECDBFC8CE41E016
:102C300050E0CE0101960E94742EC1CE8F5F92CFDC
:102C4000CE010196C05EDE4F0FB6F894DEBF0FBE18
:102C5000CDBFDF91CF911F910F91FF90EF90DF904B
:102C6000CF90BF90AF909F908F907F906F905F902C
:102C70004F903F902F9008952091FD059091FC0575
:102C8000213208F04AC08091D9058111FCCF32E091
:102C90003093D90531E03093D8053FEF3093D70515
:102CA0001092D6052093D505ACEDB5E045EB55E087
:102CB000FA013E2F341B321718F43D913193F9CFAE
:102CC0001092B4052091B405990F922B9093B405FE
:102CD0009091B305913061F41092B3059091B405D1
:102CE0009093BB009091BC0093FDF8CF95EC01C090
:102CF00095EE9093BC009091D9059230E1F39091BC
:102D0000D7059F3F79F08091D705803241F08091BF
:102D1000D705803331F084E005C081E003C082E054
:102D200001C083E01092DB051092FD051092DA05D8
:102D300008959091D9059111FCCF813208F080E27D
:102D400091E09093D9059093D8052FEF2093D70564
:102D50001092D605280F2093D5059093B405909135
:102D6000B405906D9093B4059091B305913061F4E2
:102D70001092B3059091B4059093BB009091BC0064
:102D800093FDF8CF95EC01C095EE9093BC00909127
:102D9000D9059130E1F39091D605981710F4809100
:102DA000D605A5EBB5E023E935E0F9019E2F921B8E
:102DB000981718F49D919193F9CF109292058093F2
:102DC00091050895CF92DF92EF92FF920F931F9398
:102DD000CF93DF93CDB7DEB72E970FB6F894DEBF53
:102DE0000FBECDBF8C0181E08093DA0588E6809329
:102DF000FC051092DB051092FD0560E087EA96E085
:102E00000E9461050E943C1687E090E00E9499169E
:102E100090919105809192059817F1F37E018FE0D2
:102E2000E80EF11CFE0131966F0187EA96E00E94E0
:102E30001505282F82958F702F70FAE08F9F200D37
:102E4000112430E0F701329322937F01EC15FD0548
:102E500061F70E943C1689819A818053984F909324
:102E6000FF058093FE056B81609300064D814093C2
:102E700001062F8120930506D984D0920206EB84A7
:102E8000E0920306FD84F09204060E9456139C0112
:102E9000A8E1B0E00E94D12B9B01AC012D0D311DAA
:102EA000411D511DACE3B0E00E94C62B9B01AC015B
:102EB0002E0D311D411D511D0E94C62BDC01CB0181
:102EC0008F0D911DA11DB11D80599A4CA249B74C7F
:102ED0008093060690930706A0930806B093090610
:102EE0008CE0EEEFF5E0D80101900D928A95E1F7C4
:102EF000C8012E960FB6F894DEBF0FBECDBFDF918E
:102F0000CF911F910F91FF90EF90DF90CF90089598
:102F1000FC0144815581608171818FEB96E00C94B6
:102F2000591C009769F0FC0101900020E9F73197E6
:102F3000AF01481B590BBC018FEB96E00C94591C58
:102F400080E090E008950C9491172F923F924F9259
:102F50005F926F927F928F929F92AF92BF92CF9229
:102F6000DF92EF92FF920F931F93CF93DF93CDB732
:102F7000DEB765970FB6F894DEBF0FBECDBF1C015C
:102F8000C0908D05D0908E05E0908F05F090900553
:102F90002091890530918A0540918B0550918C05CF
:102FA0002C833D834E835F83209185053091860578
:102FB0004091870550918805288739874A875B8724
:102FC00020918105309182054091830550918405BF
:102FD0002C873D874E875F8720917D0530917E0548
:102FE00040917F0550918005288B398B4A8B5B8BF4
:102FF0008090790590907A05A0907B05B0907C0533
:103000004090750550907605609077057090780532
:103010008FEB96E00E94000961E083E00E9423119B
:1030200060E08FEB96E00E94F70886EB94E00E9448
:10303000A31760E086E10E94C41C60E087E10E9463
:10304000C41C60E088E10E94C41C60E089E10E9429
:10305000C41C60E08AE10E94C41C60E08BE10E9415
:10306000C41C60E08CE10E94C41C0E947B1D609324
:10307000360270933702809338029093390231E020
:103080003C8B41E04B8351E05A8321E0298301E0EE
:1030900011E03D8B0E947B1D6093320270933302DE
:1030A000809334029093350220913602309137029A
:1030B0004091380250913902DC01CB01821B930B05
:1030C000A40BB50B8C159D05AE05BF0528F061E07E
:1030D00086E10E94C41C1D8A8091320290913302C5
:1030E000A0913402B09135024091360250913702DE
:1030F0006091380270913902841B950BA60BB70BB7
:103100002C813D814E815F8182179307A407B5070B
:1031100028F061E087E10E94C41C10E08091320237
:1031200090913302A0913402B09135024091360261
:10313000509137026091380270913902841B950BCF
:10314000A60BB70B288539854A855B8582179307BF
:10315000A407B50728F061E088E10E94C41C00E0E4
:103160008091320290913302A0913402B0913502E5
:1031700040913602509137026091380270913902C5
:10318000841B950BA60BB70B2C853D854E855F8563
:1031900082179307A407B50728F061E089E10E9430
:1031A000C41C19828091320290913302A0913402A2
:1031B000B091350240913602509137026091380249
:1031C00070913902841B950BA60BB70B288939899E
:1031D0004A895B8982179307A407B50728F061E045
:1031E0008AE10E94C41C1A828091320290913302BB
:1031F000A0913402B09135024091360250913702CD
:103200006091380270913902841B950BA60BB70BA5
:1032100088159905AA05BB0528F061E08BE10E949D
:10322000C41C1B828091320290913302A09134021F
:10323000B0913502409136025091370260913802C8
:1032400070913902841B950BA60BB70B841595055D
:10325000A605B70528F061E08CE10E94C41C1C8A19
:103260003D89311117CF111115CF011113CF4981AC
:10327000411110CF5A8151110DCF2B8121110ACF4D
:103280003C89311107CFB10180E090E065960FB61F
:10329000F894DEBF0FBECDBFDF91CF911F910F918C
:1032A000FF90EF90DF90CF90BF90AF909F908F9066
:1032B0007F906F905F904F903F902F900C94411DA6
:1032C0002F923F924F925F926F927F928F929F9236
:1032D000AF92BF92CF92DF92EF92FF920F931F9324
:1032E000CF93DF93CDB7DEB760970FB6F894DEBF0C
:1032F0000FBECDBF9E878D8720918D0530918E05A5
:1033000040918F055091900529833A834B835C83CC
:103310002091890530918A0540918B0550918C054B
:103320002D833E834F8358872091850530918605F4
:10333000409187055091880529873A874B875C879C
:10334000C0908105D0908205E0908305F0908405BF
:1033500080907D0590907E05A0907F05B0908005BF
:103360004090790550907A0560907B0570907C05BF
:103370008FEB96E00E94000961E083E00E94231138
:1033800060E08FEB96E00E94F7088EEB94E00E94DD
:10339000A31760E086E10E94C41C60E087E10E9400
:1033A000C41C60E088E10E94C41C60E089E10E94C6
:1033B000C41C60E08AE10E94C41C60E08BE10E94B2
:1033C000C41C0E947B1D6093360270933702809369
:1033D00038029093390231E03F8741E0488B222444
:1033E00023943324339401E011E00E947B1D609309
:1033F000320270933302809334029093350220910D
:103400003602309137024091380250913902DC0186
:10341000CB01821B930BA40BB50B29813A814B8105
:103420005C8182179307A407B50728F061E086E165
:103430000E94C41C10E08091320290913302A0914E
:103440003402B091350240913602509137026091BA
:10345000380270913902841B950BA60BB70B2D8196
:103460003E814F81588582179307A407B50728F03E
:1034700061E087E10E94C41C00E0809132029091DB
:103480003302A0913402B09135024091360250913E
:1034900037026091380270913902841B950BA60B9C
:1034A000B70B29853A854B855C8582179307A4075E
:1034B000B50728F061E088E10E94C41C312C80919E
:1034C000320290913302A0913402B09135024091C2
:1034D0003602509137026091380270913902841B94
:1034E000950BA60BB70B8C159D05AE05BF0528F0F7
:1034F00061E089E10E94C41C212C809132029091EC
:103500003302A0913402B0913502409136025091BD
:1035100037026091380270913902841B950BA60B1B
:10352000B70B88159905AA05BB0528F061E08AE16B
:103530000E94C41C188A8091320290913302A0919B
:103540003402B091350240913602509137026091B9
:10355000380270913902841B950BA60BB70B8415AA
:103560009505A605B70528F061E08BE10E94C41C13
:103570001F8611113ACF011138CF311036CF2110EB
:1035800034CF3889311131CF4F8541112ECF2D8560
:103590003E85B90180E090E060960FB6F894DEBFFA
:1035A0000FBECDBFDF91CF911F910F91FF90EF9094
:1035B000DF90CF90BF90AF909F908F907F906F9053
:1035C0005F904F903F902F900C94411D2F923F920F
:1035D0004F925F926F927F928F929F92AF92BF9223
:1035E000CF92DF92EF92FF920F931F93CF93DF93CF
:1035F000CDB7DEB72B970FB6F894DEBF0FBECDBFA9
:103600001C0120918D0530918E0540918F055091C0
:1036100090052A833B834C835D83209189053091FB
:103620008A0540918B0550918C052E833F834887F6
:103630005987C0908505D0908605E0908705F09069
:1036400088058090810590908205A0908305B090B8
:10365000840540907D0550907E0560907F057090B8
:1036600080058FEB96E00E94000961E083E00E94F4
:10367000231160E08FEB96E00E94F70886EC94E05F
:103680000E94A31760E086E10E94C41C60E087E10D
:103690000E94C41C60E088E10E94C41C60E089E1D3
:1036A0000E94C41C60E08AE10E94C41C0E947B1D31
:1036B00060933602709337028093380290933902F8
:1036C00031E03A8741E0498301E011E051E05B8756
:1036D0000E947B1D60933202709333028093340208
:1036E0009093350220913602309137024091380292
:1036F00050913902DC01CB01821B930BA40BB50B5B
:103700002A813B814C815D8182179307A407B5070D
:1037100028F061E086E10E94C41C1B868091320281
:1037200090913302A0913402B0913502409136025B
:10373000509137026091380270913902841B950BC9
:10374000A60BB70B2E813F814885598582179307B9
:10375000A407B50728F061E087E10E94C41C10E0CF
:103760008091320290913302A0913402B0913502DF
:1037700040913602509137026091380270913902BF
:10378000841B950BA60BB70B8C159D05AE05BF05CD
:1037900028F061E088E10E94C41C00E080913202C0
:1037A00090913302A0913402B091350240913602DB
:1037B000509137026091380270913902841B950B49
:1037C000A60BB70B88159905AA05BB0528F061E083
:1037D00089E10E94C41C19828091320290913302C7
:1037E000A0913402B09135024091360250913702D7
:1037F0006091380270913902841B950BA60BB70BB0
:1038000084159505A605B70528F061E08AE10E94B8
:10381000C41C1A863B8531115BCF111159CF0111A0
:1038200057CF4981411154CF5A85511151CFB10120
:1038300080E090E02B960FB6F894DEBF0FBECDBFB0
:10384000DF91CF911F910F91FF90EF90DF90CF907C
:10385000BF90AF909F908F907F906F905F904F90B0
:103860003F902F900C94411D3FB7F8948091DC0657
:103870009091DD06A091DE06B091DF0626B5A89BEB
:1038800005C02F3F19F00196A11DB11D3FBFBA2FF2
:10389000A92F982F8827820F911DA11DB11DBC0152
:1038A000CD0142E0660F771F881F991F4A95D1F717
:1038B0000895CF92DF92EF92FF920F931F93CF93D1
:1038C000DF936C017A018B01C0E0D0E0CE15DF05FB
:1038D00089F0D8016D918D01D601ED91FC91019097
:1038E000F081E02DC6011995892B11F47E0102C0EB
:1038F0002196ECCFC701DF91CF911F910F91FF90DF
:10390000EF90DF90CF900895EF92FF920F931F9367
:10391000CF93DF93EC017B018A0188819981009725
:1039200029F02A813B8124173507F8F4B8016F5F2D
:103930007F4F0E946B2D009759F0998388831B83DA
:103940000A832C813D81232B81F4FC0110820DC060
:1039500088819981009711F00E94D32C19821882D6
:103960001D821C821B821A8207C01D830C83B70133
:10397000888199810E946D2ECE01DF91CF911F9198
:103980000F91FF90EF900895362F90E0FC01E050EA
:10399000F94F4491FC01E654F94F2491FC01EC5895
:1039A000F94F9491992309F46BC0442309F455C04D
:1039B00050E0FA013197E231F10508F04EC0882756
:1039C000EB5DFE4F8F4F0C94222C809180008F77FF
:1039D00007C0809180008F7D03C080918000877F29
:1039E000809380003AC084B58F7702C084B58F7D04
:1039F00084BD33C08091B0008F7703C08091B00048
:103A00008F7D8093B00029C0809190008F7707C090
:103A1000809190008F7D03C080919000877F80937C
:103A200090001BC08091A0008F7707C08091A000FC
:103A30008F7D03C08091A000877F8093A0000DC080
:103A4000809120018F7707C0809120018F7D03C076
:103A500080912001877F80932001E92FF0E0EE0F15
:103A6000FF1FE05CF94FA591B4918FB7F894EC91EA
:103A7000311103C020952E2301C02E2B2C938FBF14
:103A800008958F929F92AF92BF92CF92DF92EF9262
:103A9000FF926B017C010E94341C4B015C01C1143C
:103AA000D104E104F104F1F00E94341CDC01CB01EB
:103AB00088199909AA09BB09883E9340A105B10557
:103AC00070F321E0C21AD108E108F10888EE880EEF
:103AD00083E0981EA11CB11CC114D104E104F104BF
:103AE00019F7DDCFFF90EF90DF90CF90BF90AF90B0
:103AF0009F908F9008952FB7F8946091D806709199
:103B0000D9068091DA069091DB062FBF08951F92A7
:103B10000F920FB60F9211242F933F938F939F9381
:103B2000AF93BF938091D8069091D906A091DA0601
:103B3000B091DB063091D70623E0230F2D3720F418
:103B40000196A11DB11D05C026E8230F0296A11DF7
:103B5000B11D2093D7068093D8069093D906A093E1
:103B6000DA06B093DB068091DC069091DD06A09129
:103B7000DE06B091DF060196A11DB11D8093DC0623
:103B80009093DD06A093DE06B093DF06BF91AF9160
:103B90009F918F913F912F910F900FBE0F901F908B
:103BA0001895CF93DF93EC016115710559F0FB0176
:103BB00001900020E9F73197AF01461B570B0E9497
:103BC000841C0CC088819981009711F00E94D32C2D
:103BD000198218821D821C821B821A82CE01DF91FB
:103BE000CF910895FC01808191810C94D32CFB012D
:103BF000DC0111961C921E9213961C921E92129733
:103C000015961C921E9214978617970749F06081AB
:103C100071816115710521F0448155810C94841CDA
:103C20000895FC011182108213821282158214827F
:103C30006115710551F0FB0101900020E9F7319702
:103C4000AF01461B570B0C94841C089583EB96E040
:103C50000E94F21D89EB96E00C94F21DCF93DF9346
:103C6000CDB7DEB72C970FB6F894DEBF0FBECDBF31
:103C7000789484B5826084BD84B5816084BD85B547
:103C8000826085BD85B5816085BD80916E00816053
:103C900080936E00109281008091810082608093F9
:103CA00081008091810081608093810080918000FB
:103CB0008160809380008091B10084608093B10026
:103CC0008091B00081608093B0008091910082600B
:103CD0008093910080919100816080939100809108
:103CE00090008160809390008091A1008260809319
:103CF000A1008091A10081608093A1008091A0002B
:103D000081608093A00080912101826080932101D5
:103D10008091210181608093210180912001816047
:103D20008093200180917A00846080937A00809152
:103D30007A00826080937A0080917A00816080931B
:103D40007A0080917A00806880937A001092C10096
:103D500081E090E00E949A0A60938D0570938E0531
:103D600080938F059093900582E090E00E949A0ADC
:103D70006093890570938A0580938B0590938C05D9
:103D800083E090E00E949A0A60938505709386050F
:103D9000809387059093880584E090E00E949A0ABA
:103DA00060938105709382058093830590938405C9
:103DB00085E090E00E949A0A60937D0570937E05ED
:103DC00080937F059093800586E090E00E949A0A98
:103DD0006093790570937A0580937B0590937C05B9
:103DE00087E090E00E949A0A6093750570937605CB
:103DF000809377059093780588E090E00E949A0A76
:103E000060937105709372058093730590937405A8
:103E100089E090E00E949A0A60936D0570936E05A8
:103E200080936F05909370058AE090E00E949A0A53
:103E30006093690570936A0580936B0590936C0598
:103E40008BE090E00E949A0A609365057093660586
:103E500080936705909368058CE090E00E949A0A31
:103E60006093610570936205809363059093640588
:103E70008DE090E00E949A0A60935D0570935E0564
:103E800080935F05909360058EE090E00E949A0A0F
:103E90006093590570935A0580935B0590935C0578
:103EA0008FE090E00E949A0A609355057093560542
:103EB000809357059093580580E190E00E949A0AFC
:103EC0006093510570935205809353059093540568
:103ED00081E190E00E949A0A60934D0570934E052F
:103EE00080934F059093500582E190E00E949A0ADA
:103EF0006093490570934A0580934B0590934C0558
:103F000083E190E00E949A0A60934505709346050C
:103F1000809347059093480584E190E00E949A0AB7
:103F20006093410570934205809343059093440547
:103F300085E190E00E949A0A60933D0570933E05EA
:103F400080933F059093400586E190E00E949A0A95
:103F50006093390570933A0580933B0590933C0537
:103F600087E190E00E949A0A6093350570933605C8
:103F7000809337059093380588E190E00E949A0A73
:103F80006093310570933205809333059093340527
:103F9000E0911A06F0911B0682E08083E0911606FC
:103FA000F09117061082E0911806F09119068FEC37
:103FB000808310922206E0911E06F0911F0686E093
:103FC0008083E0911C06F0911D06808180618083D2
:103FD000E0911C06F0911D06808188608083E0914D
:103FE0001C06F0911D06808180688083E0911C068C
:103FF000F0911D0680818F7D808368E272E080E011
:104000000E94F51060E272E081E00E94F51068E124
:1040100072E082E00E94F51060E172E083E00E94AD
:10402000F51068E072E084E00E94F51060E072E054
:1040300085E00E94F51086E10E94881387E10E94C6
:10404000881388E10E94881389E10E9488138AE11D
:104050000E9488138BE10E9488138CE10E948813D0
:104060008DE10E9488138EE10E9488138FE10E94E7
:10407000881380E20E94881381E20E94881382E202
:104080000E94881383E20E94881384E20E948813AE
:1040900085E20E94881386E20E94881387E20E94CC
:1040A000881388E20E94881389E20E9488138AE2BA
:1040B0000E9488138BE20E9488138CE20E9488136E
:1040C0008DE20E94881361E086E10E94C41C61E0D9
:1040D00087E10E94C41C61E088E10E94C41C61E089
:1040E00089E10E94C41C61E08AE10E94C41C61E075
:1040F0008BE10E94C41C61E08CE10E94C41C61E061
:104100008DE10E94C41C61E08EE10E94C41C61E04C
:104110008FE10E94C41C61E080E20E94C41C61E047
:1041200081E20E94C41C61E082E20E94C41C61E042
:1041300083E20E94C41C61E084E20E94C41C61E02E
:1041400085E20E94C41C61E086E20E94C41C61E01A
:1041500087E20E94C41C61E088E20E94C41C61E006
:1041600089E20E94C41C61E08AE20E94C41C61E0F2
:104170008BE20E94C41C61E08CE20E94C41C61E0DE
:104180008DE20E94C41C62E08FEB96E00E94A713B0
:104190008FEB96E00E9400098FEB96E00E940009E9
:1041A00086EC92E00E94A31761E082E00E94231156
:1041B00061E08FEB96E00E94F70884ED92E00E94A8
:1041C000A31764EF71E080E090E00E94411D8FEB47
:1041D00096E00E94000980EE92E00E94A3171092E0
:1041E0009205109291051092DB051092FD05109238
:1041F000D90511E01093D8051092B30561E084E170
:104200000E94C41C61E085E10E94C41C8091B90039
:104210008E7F8093B9008091B9008D7F8093B90023
:1042200088E48093B80085E48093BC001093DA059D
:1042300088E68093FC051092DB051092FD056EE088
:1042400087EA96E00E9461050E943C1681E090E0BA
:104250000E94991690919105809192059817F1F31B
:1042600087EA96E00E941505082F0E943C1611E08F
:104270001093DA0588E68093FC051092DB05109216
:10428000FD056EE087EA96E00E946105602F6B7382
:1042900087EA96E00E9461050E943C1680ED97E057
:1042A0009093FF058093FE0510930006109301067E
:1042B00010920206109203061092040686E0809384
:1042C000050680E795E3ADE6B8E380930606909394
:1042D0000706A0930806B0930906ADE32A2E312CF9
:1042E0000E945F0B0E94CC0A813009F0DCC58FEB85
:1042F00096E00E94000960E086E00E9423118AEEA9
:1043000092E00E94A31768EE73E080E090E00E94C4
:10431000411D44E650E060E070E08CE090E00E94D7
:104320002C0A61E080E00E94231164E08FEB96E0AC
:104330000E94F708812C912C54018394D12C11E018
:10434000E4E64E2E512C612C712CFCE0EF2EF12C6A
:104350000E94CC0A8823E1F38130E9F4113009F49A
:1043600072C0123009F467C0133009F062C0AAE0CD
:10437000B0E0A50194010E94C62B4B015C0185E6CB
:1043800088169104A104B10408F45FC0812C912C1B
:10439000540183945AC0823029F4115009F063C04B
:1043A00014E061C0833001F5113009F44CC01230C3
:1043B00061F481E0E81AF10801E01E141F040CF416
:1043C00045C058E1E52EF12C41C0133091F5481855
:1043D00059086A087B0801E0C9F54FE0442E47E21E
:1043E000542E612C712C32C08430B9F5113059F142
:1043F000123061F48FEFE81AF80A01E089E1E8165B
:10440000F10424F1EE24E394F12C20C0133089F45C
:10441000480C591C6A1C7B1C01E080E1481687E2AD
:1044200058066104710490F0412C512C32014394E0
:104430000DC0143051F42CED35E0B301A201C701D9
:104440000E941C0C02C000E001C001E068EC70E0BA
:1044500080E090E00E94411D0DC0853051F41F5F47
:10446000153008F010E068EC70E080E090E00E9409
:10447000411D01E0123061F020F4113071F4D12CB3
:104480000CC0133041F0143041F4BEE0DB2E05C007
:1044900092E0D92E02C089E0D82EB301A201C70153
:1044A0000E942C0A61E08D2D0E94231164E08FEBA5
:1044B00096E00E94F708133029F44AE0C501B401E0
:1044C0000E943811011144CF8CE090E00E94EE0967
:1044D00061E080E00E94231164E08FEB96E00E948F
:1044E000F708C12CD12C7601C394712C01E0ACE00B
:1044F0008A2E912C0E94CC0A8823E1F38130D1F4DA
:10450000013009F49BC3033009F092C3AAE0B0E084
:10451000A70196010E94C62B6B017C0185E6C81697
:10452000D104E104F10408F48BC3C12CD12C760131
:10453000C39486C3823029F4015009F08FC304E08C
:104540008DC3833009F058C1013009F477C30230BC
:1045500061F481E0881A910811E0181419040CF430
:1045600070C378E1872E912C6CC3033009F060C3CF
:10457000F4013197E831F10508F062C38827EE5560
:10458000FF4F8F4F0C94222C80918D0590918E05BA
:10459000A0918F05B09190058C199D09AE09BF09B6
:1045A0005BC18091890590918A05A0918B05B0919E
:1045B0008C058C199D09AE09BF0963C180918505E1
:1045C00090918605A0918705B09188058C199D0969
:1045D000AE09BF096BC18091810590918205A091C0
:1045E0008305B09184058C199D09AE09BF0973C17B
:1045F00080917D0590917E05A0917F05B091800509
:104600008C199D09AE09BF097BC1809179059091F4
:104610007A05A0917B05B0917C058C199D09AE09A6
:10462000BF0983C18091750590917605A0917705AA
:10463000B09178058C199D09AE09BF098BC1809195
:10464000710590917205A0917305B09174058C1954
:104650009D09AE09BF0993C180916D0590916E05CA
:10466000A0916F05B09170058C199D09AE09BF0925
:104670009BC18091690590916A05A0916B05B091ED
:104680006C058C199D09AE09BF09A3C18091650510
:1046900090916605A0916705B09168058C199D09F8
:1046A000AE09BF09ABC18091610590916205A091EF
:1046B0006305B09164058C199D09AE09BF09B3C1AA
:1046C00080915D0590915E05A0915F05B0916005B8
:1046D0008C199D09AE09BF09BBC180915905909104
:1046E0005A05A0915B05B0915C058C199D09AE0936
:1046F000BF09C3C18091550590915605A0915705FA
:10470000B09158058C199D09AE09BF09CBC18091A4
:10471000510590915205A0915305B09154058C1903
:104720009D09AE09BF09D3C180914D0590914E05F9
:10473000A0914F05B09150058C199D09AE09BF0994
:10474000DBC18091490590914A05A0914B05B0913C
:104750004C058C199D09AE09BF09E3C1809145053F
:1047600090914605A0914705B09148058C199D0987
:10477000AE09BF09EBC18091410590914205A0911E
:104780004305B09144058C199D09AE09BF09F3C1D9
:1047900080913D0590913E05A0913F05B091400567
:1047A0008C199D09AE09BF09FBC180913905909113
:1047B0003A05A0913B05B0913C058C199D09AE09C5
:1047C000BF0903C28091350590913605A091370548
:1047D000B09138058C199D09AE09BF090BC28091B3
:1047E000310590913205A0913305B09134058C19B3
:1047F0009D09AE09BF0913C2843009F029C20130F6
:1048000009F41CC2023069F48FEF881A980A11E08B
:1048100089E1881691040CF414C288248394912CA5
:1048200010C2033009F004C2F4013197E831F105F8
:1048300008F006C28827E654FF4F8F4F0C94222CB5
:1048400080918D0590918E05A0918F05B091900576
:104850008C0D9D1DAE1DBF1D80938D0590938E0503
:10486000A0938F05B0939005EBC18091890590913D
:104870008A05A0918B05B0918C058C0D9D1DAE1DF8
:10488000BF1D8093890590938A05A0938B05B093F3
:104890008C05D6C18091850590918605A0918705EC
:1048A000B09188058C0D9D1DAE1DBF1D80938505A3
:1048B00090938605A0938705B0938805C1C1809128
:1048C000810590918205A0918305B09184058C0D9E
:1048D0009D1DAE1DBF1D8093810590938205A09301
:1048E0008305B0938405ACC180917D0590917E05D0
:1048F000A0917F05B09180058C0D9D1DAE1DBF1D43
:1049000080937D0590937E05A0937F05B0938005ED
:1049100097C18091790590917A05A0917B05B0911E
:104920007C058C0D9D1DAE1DBF1D80937905909358
:104930007A05A0937B05B0937C0582C180917505B3
:1049400090917605A0917705B09178058C0D9D1D0D
:10495000AE1DBF1D8093750590937605A0937705D6
:10496000B09378056DC18091710590917205A09109
:104970007305B09174058C0D9D1DAE1DBF1D8093F8
:10498000710590937205A0937305B093740558C197
:1049900080916D0590916E05A0916F05B0917005A5
:1049A0008C0D9D1DAE1DBF1D80936D0590936E05F2
:1049B000A0936F05B093700543C1809169059091F4
:1049C0006A05A0916B05B0916C058C0D9D1DAE1D07
:1049D000BF1D8093690590936A05A0936B05B09302
:1049E0006C052EC18091650590916605A0916705C3
:1049F000B09168058C0D9D1DAE1DBF1D8093650592
:104A000090936605A0936705B093680519C18091DE
:104A1000610590916205A0916305B09164058C0DCC
:104A20009D1DAE1DBF1D8093610590936205A093EF
:104A30006305B093640504C180915D0590915E05A6
:104A4000A0915F05B09160058C0D9D1DAE1DBF1D31
:104A500080935D0590935E05A0935F05B09360051C
:104A6000EFC08091590590915A05A0915B05B091D6
:104A70005C058C0D9D1DAE1DBF1D80935905909347
:104A80005A05A0935B05B0935C05DAC0809155058B
:104A900090915605A0915705B09158058C0D9D1D1C
:104AA000AE1DBF1D8093550590935605A0935705E5
:104AB000B0935805C5C08091510590915205A091C1
:104AC0005305B09154058C0D9D1DAE1DBF1D8093E7
:104AD000510590935205A0935305B0935405B0C06F
:104AE00080914D0590914E05A0914F05B0915005D4
:104AF0008C0D9D1DAE1DBF1D80934D0590934E05E1
:104B0000A0934F05B09350059BC0809149059091AB
:104B10004A05A0914B05B0914C058C0D9D1DAE1D15
:104B2000BF1D8093490590934A05A0934B05B09310
:104B30004C0586C08091450590914605A09147059A
:104B4000B09148058C0D9D1DAE1DBF1D8093450580
:104B500090934605A0934705B093480571C0809196
:104B6000410590914205A0914305B09144058C0DFB
:104B70009D1DAE1DBF1D8093410590934205A093DE
:104B80004305B09344055CC080913D0590913E057E
:104B9000A0913F05B09140058C0D9D1DAE1DBF1D20
:104BA00080933D0590933E05A0933F05B09340054B
:104BB00047C08091390590913A05A0913B05B0918D
:104BC0003C058C0D9D1DAE1DBF1D80933905909336
:104BD0003A05A0933B05B0933C0532C08091350562
:104BE00090913605A0913705B09138058C0D9D1D2B
:104BF000AE1DBF1D8093350590933605A0933705F4
:104C0000B09338051DC08091310590913205A09177
:104C10003305B09134058C0D9D1DAE1DBF1D8093D5
:104C2000310590933205A0933305B093340508C045
:104C3000043031F4C4010E94680A02C010E001C0CF
:104C400011E068EC70E080E090E00E94411D0DC032
:104C5000853051F40F5F053008F000E068EC70E03B
:104C600080E090E00E94411D11E0023061F020F4EC
:104C7000013071F4712C0CC0033041F0043041F468
:104C80003EE0732E05C052E0752E02C049E0742E3E
:104C9000C4010E94EE0961E0872D0E94231164E0A7
:104CA0008FEB96E00E94F708033029F44AE0C70131
:104CB000B6010E94381111111DCC6FEE72E0CE01C9
:104CC00007960E94111EBE01695F7F4FCE010196BB
:104CD0000E94F71DCE0101960E94B909CE010196EE
:104CE0000E94F21D61E080E00E94231164E08FEBDE
:104CF00096E00E94F708FF24F394E12C11E00E9453
:104D0000CC0A8823E1F3813029F4113041F11230CB
:104D100001F521C0823021F4115089F513E02FC034
:104D2000833051F41130D9F0123099F4FA94F11023
:104D300018C029E1F22E15C08430D9F4113079F071
:104D4000123039F4F39489E18F1558F4FF24F39469
:104D500008C0133031F48F2D0E94030E02C000E012
:104D600001C001E068EC70E080E090E00E94411D2D
:104D70000DC0853051F41F5F143008F010E068EC6E
:104D800070E080E090E00E94411D01E0123031F0BF
:104D9000133039F0113039F4E12C05C092E0E92EDE
:104DA00002C08EE0E82E8F2D90E0FC013197E931B2
:104DB000F10508F054C08827EE52FF4F8F4F0C9436
:104DC000222C6FEE72E047C068EF72E044C061E0F1
:104DD00073E041C06AE073E03EC063E173E03BC052
:104DE0006CE173E038C065E273E035C06EE273E0F9
:104DF00032C067E373E02FC060E473E02CC06AE464
:104E000073E029C064E573E026C06EE573E023C05B
:104E100068E673E020C062E773E01DC06CE773E0F2
:104E20001AC067E873E017C065ED72E014C062E96C
:104E300073E011C06EE973E00EC06AEA73E00BC064
:104E400066EB73E008C062EC73E005C06EEC73E0E3
:104E500002C06AED73E0CE0107960E94D11DBE012B
:104E6000695F7F4FCE0101960E94F71DCE0101962A
:104E70000E94B909CE0101960E94F21D61E08E2DBB
:104E80000E94231164E08FEB96E00E94F708011165
:104E900036CFCE0107960E94F21D30923102209249
:104EA00030020E945F0B0E94FF0A809130029091B5
:104EB0003102009709F03EC080913005811169C030
:104EC00081E08093300510922F0510922E051092EC
:104ED0002D0580912B0590912C058530910508F4C6
:104EE00058C08530910519F40E94AB0C52C09C014A
:104EF000265031092630310508F44BC08C3091051D
:104F0000B1F468EE73E080E090E00E94411D0CE097
:104F100010E028E833E144E650E060E070E08BE226
:104F200090E00E941C0C0150110999F732C045977E
:104F3000D9F22FC08F30910561F480912F05811136
:104F400028C01092300581E080932F0510922E0525
:104F50000EC08E31910571F480912E05811119C01A
:104F60001092300510922F0581E080932E0510924B
:104F70002D050FC08D9769F480912D05811109C011
:104F80001092300510922F0510922E0581E080932B
:104F90002D050E949A04A4C9EAE0F6E01382128269
:104FA00088EE93E0A0E0B0E084839583A683B78386
:104FB0002AE632E03183208325EC30E035872487F0
:104FC00024EC30E03787268720EC30E0318B208BD3
:104FD00021EC30E0338B228B22EC30E0358B248BBC
:104FE00026EC30E0378B268B118E128E138E148EAA
:104FF000E7EAF6E01382128284839583A683B7835F
:105000008AE792E091838083EFEBF6E013821282CD
:105010008AE892E09183808388E084838FEF8583A0
:1050200089E0868384E0878385E0808786E08187C6
:1050300087E082871386148615861686178661E0B8
:10504000CF010E94A7136AEB72E089EB96E00E9401
:10505000111E6AEB72E083EB96E00C94111EEF9246
:105060000F931F93CF93DF93E80147FD02C034E015
:1050700001C034E1E42F440FFF0BF7FF03C0F195AB
:10508000E195F109E32E022F2E2FAE010E944F2849
:10509000CE01DF91CF911F910F91EF9008954F9224
:1050A0005F926F927F929F92AF92BF92CF92DF9268
:1050B000EF92FF920F931F93CF93DF93CDB7DEB79D
:1050C00029970FB6F894DEBF0FBECDBF6A01122F2D
:1050D000B02E2BE3201720F0FF24F394F00E02C033
:1050E000BCE3FB2E0F2D27E0AE014F5F5F4F0E9408
:1050F000DD29AC018981982F9970913031F0E1FC64
:1051000006C0E0FE06C090E205C09DE203C09BE23F
:1051100001C090E0EE2DE07183FF3CC0911102C010
:1051200083E001C084E0811718F4212F281B01C0FF
:1051300020E0E1110BC0F601822F30E2882319F044
:1051400031938150FBCFC20ED11C20E0992329F06E
:10515000D6019C93F60131966F01C6010396E2FEDB
:105160000AC03EE4D6013C9341E411964C9311975A
:1051700012963C9306C03EE6F601308341E6418339
:105180003283FC01322F40E2332309F442C04193C1
:105190003150FACF82FF44C0911102C083E001C0B8
:1051A00084E0811718F4212F281B01C020E0E111B1
:1051B0000BC0F601822F30E2882319F03193815021
:1051C000FBCFC20ED11C20E0992329F0D6019C937D
:1051D000F60131966F01C6010396E2FE0BC039E479
:1051E000D6013C933EE411963C93119736E4129617
:1051F0003C9307C039E6F60130833EE6318336E65C
:105200003283FC01322F40E2332319F041933150B5
:10521000FBCFFC01E20FF11D10828EEF9FEFB7C0B4
:10522000F1E0911101C0F0E06F2F70E01416150647
:1052300024F49A012F5F3F4F02C021E030E0260F97
:10524000371FBB2029F06B2D70E06F5F7F4F02C0CE
:1052500060E070E0260F371F612F70E026173707D8
:105260001CF4121B212F01C020E03E2D387159F48F
:10527000D601322F60E2332319F06D933150FBCF0A
:10528000C20ED11C20E0FF2331F0D6019C93B60161
:105290006F5F7F4F6B01E1110BC0F601922F30E37E
:1052A000992319F031939150FBCFC20ED11C20E00D
:1052B0009F2D940F3A81782F7071A72E84FF03C021
:1052C000313309F49150191624F4993018F098E00C
:1052D00001C091E0E42F852F57FF02C0E0E080E09D
:1052E0006E2F782FE0E0F0E0AEE29A2E3A01691AD4
:1052F00071082A01461A570A0B2D10E011950195E5
:1053000011096F3F8FEF780729F4D6019C92C601EF
:1053100001966C014617570784F0661677066CF401
:105320007F01E40CF51CA1E0B0E0AC0FBD1FEA0E5C
:10533000FB1ED7011196BC9002C090E3B92E6150BC
:1053400071093196C60101967C016017710724F03E
:10535000D601BC926C01D5CF6417750741F4363382
:1053600020F4353321F4A11002C081E3B82EF601F8
:10537000B082F701822F90E2882319F09193815037
:10538000FBCFF701E20FF11D108280E090E029963B
:105390000FB6F894DEBF0FBECDBFDF91CF911F9146
:1053A0000F91FF90EF90DF90CF90BF90AF909F90C4
:1053B0007F906F905F904F900895283008F027E01D
:1053C0003327DA01990F311D87FD91600096610541
:1053D000710539F432602E5F3D9330E32A95E1F791
:1053E00008959F3F30F080387105610509F03C5FFA
:1053F0003C5F3D93913008F08068911DDF93CF931F
:105400001F930F93FF92EF92192F987F9695E92F94
:1054100096959695E90FFF27EC56FA4F9927332773
:10542000EE24FF24A701E70105900894079428F4CF
:10543000360FE71EF81E491F511D660F771F881F84
:10544000991F0694A1F70590079428F4E70EF81E1B
:10545000491F561FC11D770F881F991F661F06948D
:10546000A1F70590079428F4F80E491F561FC71F8F
:10547000D11D880F991F661F771F0694A1F705900D
:10548000079420F4490F561FC71FD81F990F661F96
:10549000771F881F0694A9F784911095177041F023
:1054A000D695C79557954795F794E7941A95C1F700
:1054B000EAE3F5E068941590159135916591959121
:1054C00005907FE27395E118F10A430B560BC90B67
:1054D000D009C0F7E10CF11E431F561FC91FD01D94
:1054E0007EF4703311F48A95E6CFE894015030F0E1
:1054F000080F0AF40027021708F4202F2395022F23
:105500007A3328F079E37D932A95E9F710C07D93EB
:105510002A9589F606949795679537951795179468
:10552000E118F10A430B560BC90BD00998F02395EB
:105530007E9173957A3308F070E37C932013B8F76B
:105540007E9170617D9330F0839571E37D9370E37C
:105550002A95E1F71124EF90FF900F911F91CF91C1
:10556000DF91992787FD90950895E89409C097FBEE
:105570003EF490958095709561957F4F8F4F9F4F2A
:105580009923A9F0F92F96E9BB279395F69587956E
:1055900077956795B795F111F8CFFAF4BB0F11F431
:1055A00060FF1BC06F5F7F4F8F4F9F4F16C08823D8
:1055B00011F096E911C0772321F09EE8872F762F0E
:1055C00005C0662371F096E8862F70E060E02AF04F
:1055D0009A95660F771F881FDAF7880F969587953B
:1055E00097F908950E94052B0C94762B0E94682B46
:1055F00038F00E946F2B20F0952311F00C945F2B54
:105600000C94652B11240C94AA2B0E94872B70F309
:10561000959FC1F3950F50E0551F629FF001729F57
:10562000BB27F00DB11D639FAA27F00DB11DAA1F66
:10563000649F6627B00DA11D661F829F2227B00DB3
:10564000A11D621F739FB00DA11D621F839FA00D3E
:10565000611D221F749F3327A00D611D231F849F8E
:10566000600D211D822F762F6A2F11249F575040E5
:105670009AF0F1F088234AF0EE0FFF1FBB1F661F60
:10568000771F881F91505040A9F79E3F510580F029
:105690000C945F2B0C94AA2B5F3FE4F3983ED4F359
:1056A000869577956795B795F795E7959F5FC1F7CD
:1056B000FE2B880F911D9695879597F9089597F978
:1056C0009F6780E870E060E008959FEF80EC0895A8
:1056D00000240A94161617061806090608950024D1
:1056E0000A9412161306140605060895092E03944B
:1056F000000C11F4882352F0BB0F40F4BF2B11F4BF
:1057000060FF04C06F5F7F4F8F4F9F4F089557FD1D
:105710009058440F551F59F05F3F71F04795880F1F
:1057200097FB991F61F09F3F79F0879508951216B6
:1057300013061406551FF2CF4695F1DF08C0161662
:1057400017061806991FF1CF869571056105089413
:105750000895E894BB2766277727CB0197F908952A
:10576000F999FECF92BD81BDF89A992780B5089529
:10577000262FF999FECF1FBA92BD81BD20BD0FB66D
:10578000F894FA9AF99A0FBE019608950E94D12BC7
:10579000A59F900DB49F900DA49F800D911D112485
:1057A0000895A29FB001B39FC001A39F700D811DFA
:1057B0001124911DB29F700D811D1124911D08951A
:1057C000991B79E004C0991F961708F0961B881F53
:1057D0007A95C9F78095089597FB072E16F40094E3
:1057E00007D077FD09D00E942A2C07FC05D03EF493
:1057F000909581959F4F0895709561957F4F08957D
:10580000A1E21A2EAA1BBB1BFD010DC0AA1FBB1FC4
:10581000EE1FFF1FA217B307E407F50720F0A21B36
:10582000B30BE40BF50B661F771F881F991F1A94A3
:1058300069F760957095809590959B01AC01BD01CD
:10584000CF010895EE0FFF1F881F8BBF0790F691C1
:10585000E02D1994AA1BBB1B51E107C0AA1FBB1F57
:10586000A617B70710F0A61BB70B881F991F5A95EC
:10587000A9F780959095BC01CD010895CF93DF9352
:105880008230910510F482E090E0E091E206F09120
:10589000E30620E030E0C0E0D0E0309711F1408135
:1058A000518148175907C0F04817590761F48281A0
:1058B0009381209719F09B838A832BC09093E306F2
:1058C0008093E20626C02115310519F042175307CF
:1058D00018F49A01BE01DF01EF010280F381E02D8F
:1058E000DCCF2115310509F1281B390B2430310596
:1058F00090F412968D919C9113976115710521F08A
:10590000FB019383828304C09093E3068093E206B5
:10591000FD01329644C0FD01E20FF31F8193919384
:10592000225031092D933C933AC02091E0063091EA
:10593000E106232B41F420913C0230913D0230934B
:10594000E1062093E00620913A0230913B022115B6
:10595000310541F42DB73EB740913E0250913F02D0
:10596000241B350BE091E006F091E106E217F30706
:10597000A0F42E1B3F0B2817390778F0AC014E5FBF
:105980005F4F2417350748F04E0F5F1F5093E10615
:105990004093E0068193919302C0E0E0F0E0CF01F4
:1059A000DF91CF9108950F931F93CF93DF930097CB
:1059B00009F48CC0FC013297138212820091E20636
:1059C0001091E3060115110581F420813181820FC8
:1059D000931F2091E0063091E1062817390779F5E9
:1059E000F093E106E093E00671C0D80140E050E09A
:1059F000AE17BF0750F412962D913C911397AD014D
:105A00002115310509F1D901F3CF9D01DA01338365
:105A1000228360817181860F971F8217930769F433
:105A2000EC0128813981260F371F2E5F3F4F3183CC
:105A300020838A819B8193838283452B29F4F09371
:105A4000E306E093E20642C01396FC93EE931297AE
:105A5000ED01499159919E01240F351FE217F3077B
:105A600071F480819181840F951F029611969C9309
:105A70008E938281938113969C938E931297E0E08C
:105A8000F0E0D80112968D919C911397009719F030
:105A9000F8018C01F6CF8D919C9198012E5F3F4FBC
:105AA000820F931F2091E0063091E10628173907F5
:105AB00069F4309729F41092E3061092E20602C0CE
:105AC000138212821093E1060093E006DF91CF91DA
:105AD0001F910F9108956F927F928F929F92AF9234
