:100000000C9485010C94B6010C94B6010C94B601C5
:100010000C94B6010C94B6010C94B6010C94B60184
:100020000C94B6010C94B6010C94B6010C94B60174
:100030000C94B6010C94B6010C94B6010C94B60164
:100040000C94B6010C94B6010C94B6010C94B60154
:100050000C94B6010C94B6010C94B6010C94C7062E
:100060000C94B6010C94F3020C94C9020C94B601E2
:100070000C94B6010C94B6010C94B6010C94B60124
:100080000C94B6010C94B6010C94B6010C94B60114
:100090000C94B6010C94B6010C94B6010C94B60104
:1000A0000C94B6010C94B6010C94B6010C94B601F4
:1000B0000C94B6010C94B6010C94B6010C94B601E4
:1000C0000C94B6010C94B6010C94B6010C94B601D4
:1000D0000C94B6010C94B6010C94B6010C94B601C4
:1000E0000C94B6010304D503D703D903DB03DD0366
:1000F000DF03E103E303E503E703E903EB03ED03B8
:10010000EF03F103F303F503F703F903FB03FD0327
:10011000FF030104A505A80597059B059F05DF05BD
:10012000AC05B005B605BA05BE05C405C805CC05C5
:10013000DF05D205D605DA050C94F7030C94D90334
:100140000C9435090C946F040C94E1030C94FF0398
:100150000C9458020C949F050C94D5030C94CC017C
:100160000C94F3030C943B090C94DF050C94E50309
:100170000C94A9030C94E3030C9411020C94010455
:100180000C94B0050C94DD030C9403040C94CC0582
:100190000C94A8050C94B8010C9497050C94E703F3
:1001A0000C94BA050C94D2050C94BE050C94DA0597
:1001B0000C94EF030C94C8050C94F1030C94DB032E
:1001C0000C94FB030C94E9030C94A5050C94DA0140
:1001D0000C94AC050C94D7030C94F5030C94F90320
:1001E0000C94D6050C94FD030C94DF030C94EB03E4
:1001F0000C949B050C94B6050C94ED030C94C4056B
:1002000000000A0B02090C0D0E0807030401000090
:1002100000000000000000000000000000000000DE
:10022000000000000000000000000000121110009B
:1002300000000000000000000000000000000000BE
:1002400000000000000000002200250028002B0014
:100250002E003100340002010000050108010B01ED
:1002600000002100240027002A002D003000330068
:1002700001010000040107010A0105050505070544
:1002800008080808020202020A0A08080404040412
:10029000010101010101010103030303030303033E
:1002A000040707070C0C0C0C0C0C0C0C02020202CD
:1002B00006060606060606060B0B0B0B0B0B0B0BB6
:1002C0000102102020080810204010204080020168
:1002D000020108040201010204081020408080404D
:1002E000201008040201800402018040201008044C
:1002F00002010804020101020408102040800102EA
:100300000408102040803B09350911241FBECFEF9F
:10031000D1E2DEBFCDBF00E00CBF23E0A0E6B2E03B
:1003200001C01D92A832B207E1F712E0A0E0B2E0EE
:10033000E8EAF8E100E00BBF02C007900D92A0369A
:10034000B107D9F711E0C4E8D1E000E006C0219779
:100350000109802FFE010E940F0AC338D10780E0F7
:100360000807A9F70E9411070C94420C0C94000096
:10037000FC01918D828D981761F0828DDF01A80FAD
:10038000B11D5D968C91928D9F5F9F73928F90E0CF
:1003900008958FEF9FEF0895FC01918D828D98173E
:1003A00031F0828DE80FF11D858D90E008958FEF7B
:1003B0009FEF0895FC01918D228D892F90E0805C44
:1003C0009F4F821B91098F739927089580E692E0D1
:1003D0000E94DA0121E0892B09F420E0822F0895A0
:1003E000FC01848DDF01A80FB11DA35ABF4F2C91D2
:1003F000848D90E001968F739927848FA689B789A1
:100400002C93A089B1898C9180648C93938D848D79
:10041000981306C00288F389E02D80818F7D808348
:100420000895EF92FF920F931F93CF93DF93EC0108
:1004300081E0888F9B8D8C8D981305C0E889F989A0
:10044000808185FD24C0F62E0B8D10E00F5F1F4FBD
:100450000F731127E02E8C8DE8120CC00FB607FC2D
:10046000FACFE889F989808185FFF5CFCE010E9416
:10047000F001F1CF8B8DFE01E80FF11DE35AFF4F24
:10048000F0820B8FEA89FB898081806207C0EE8948
:10049000FF896083E889F98980818064808381E0B5
:1004A00090E0DF91CF911F910F91FF90EF90089511
:1004B000CF93DF93EC01888D8823C9F0EA89FB890B
:1004C000808185FD05C0A889B9898C9186FD0FC002
:1004D0000FB607FCF5CF808185FFF2CFA889B989D7
:1004E0008C9185FFEDCFCE010E94F001E7CFDF9127
:1004F000CF91089580E090E0892B21F00E94E601E1
:10050000811125C080E090E0892B41F080E090E0EF
:10051000892B21F00E94000081111CC080E090E036
:10052000892B41F080E090E0892B21F00E940000AF
:10053000811113C080E090E0892BA1F080E090E071
:10054000892B81F00E94000081110AC008950E9449
:100550000000D8CF0E940000E1CF0E940000EACF47
:100560000C9400000895CF93DF93EC0160E08E813E
:100570000E94760561E08E810E94760560E08E81A2
:100580000E9476058BE891E00197F1F7DF91CF911A
:1005900008951F920F920FB60F9211240BB60F926F
:1005A0002F933F934F935F936F937F938F939F937B
:1005B000AF93BF93EF93FF9380E692E00E94F00128
:1005C000FF91EF91BF91AF919F918F917F916F912B
:1005D0005F914F913F912F910F900BBE0F900FBEE7
:1005E0000F901F9018951F920F920FB60F92112423
:1005F0000BB60F922F938F939F93EF93FF93E091FE
:100600007002F09171028081E0917602F0917702A0
:1006100082FD12C09081809179028F5F8F7320914B
:100620007A02821751F0E0917902F0E0E05AFD4F32
:10063000958F8093790201C08081FF91EF919F9106
:100640008F912F910F900BBE0F900FBE0F901F90A8
:100650001895CF92DF92EF92FF920F931F93CF9353
:10066000DF937C016C0187E0C80ED11CC0E0D0E0B4
:10067000062F10E0B8010C2E02C0759567950A94FC
:10068000E2F76170F60181916F010E947605219673
:10069000C430D10579F7C701DF91CF911F910F9138
:1006A000FF90EF90DF90CF900C94B302CF92DF9247
:1006B000EF92FF920F931F93CF93DF93EC01F62EEF
:1006C000642F8C810E9476058D818F3F19F060E048
:1006D0000E9476058F850F2D10E084FF25C06E01E6
:1006E00087E0C80ED11CE12CF12CB8010E2C02C001
:1006F000759567950A94E2F76170F60181916F0133
:100700000E947605FFEFEF1AFF0A88E0E816F10471
:1007100061F7CE01DF91CF911F910F91FF90EF9084
:10072000DF90CF900C94B302B80184E07595679583
:100730008A95E1F7CE010E9429036F2DCE01DF914A
:10074000CF911F910F91FF90EF90DF90CF900C947D
:10075000290341E00E94560381E090E0089540E0C3
:100760000C94560361E00E94AF038BE39FE1019775
:10077000F1F708958F929F92AF92BF92EF92FF92FE
:100780000F931F93CF93DF938C014A015B01790193
:10079000FC013197E831F10530F48827EE58FF4F1E
:1007A0008F4F0C940F0AEC0130C0C7E12DC0C8E197
:1007B0002BC0C9E129C0CAE127C0CBE125C0CCE1EB
:1007C00023C0CDE121C0CEE11FC0CFE11DC0C0E2FA
:1007D0001BC0C1E219C0C2E217C0C3E215C0C4E227
:1007E00013C0C5E211C0C6E20FC0C7E20DC0C8E227
:1007F0000BC0C9E209C0CAE207C0CBE205C0CCE227
:1008000003C0CDE201C0C6E1D0E083E093E00E94E6
:10081000B203E0911603E23010F4E15001C0E1E0D0
:10082000F0E0ED5FFC4F84898E5F682F606883E0A5
:1008300093E00E94AF0360E083E093E00E94A9038D
:1008400083E492E00E94BB04C8010E94CD048EE3C1
:1008500092E00E94BB04CE010E94CD0460E08C2F88
:100860000E947605C501B4010E948D0661E08C2FBF
:100870000E947605B70180E090E00E948D06DF912E
:10088000CF911F910F91FF90EF90BF90AF909F90ED
:100890008F9008953FB7F8948091200390912103A1
:1008A000A0912203B091230326B5A89B05C02F3F3A
:1008B00019F00196A11DB11D3FBFBA2FA92F982F86
:1008C0008827820F911DA11DB11DBC01CD0142E001
:1008D000660F771F881F991F4A95D1F70895CF9209
:1008E000DF92EF92FF920F931F93CF93DF936C01F0
:1008F0007A018B01C0E0D0E0CE15DF0589F0D80188
:100900006D918D01D601ED91FC910190F081E02D6A
:10091000C6011995892B11F47E0102C02196ECCFF6
:10092000C701DF91CF911F910F91FF90EF90DF9062
:10093000CF9008950E942D0C90E0FC01E054FD4FF3
:100940002491FC01E658FD4F8491882399F090E0B2
:10095000880F991FFC01E05AFD4FA591B491FC014D
:10096000EA5BFD4F859194918FB7F894EC91E22B5F
:10097000EC938FBF0895009769F0FC01019000206F
:10098000E9F73197AF01481B590BBC0183E093E0B5
:100990000C946F0480E090E008958F929F92AF9244
:1009A000BF92CF92DF92EF92FF920F931F93CF935C
:1009B000DF93CDB7DEB7A1970FB6F894DEBF0FBEB9
:1009C000CDBF6C01990FEE08FF08F7FE31C0E09132
:1009D0000303F09104030190F081E02D6DE283E0C8
:1009E00093E019958C0122273327A9012C193D0981
:1009F0004E095F0919A2CE0181967C019AE0892EE9
:100A0000912CA12CB12CCA01B901A50194010E941D
:100A1000ED09605DF70162937F0121153105410504
:100A2000510589F7CF010E94BB04800F911F1DC0A3
:100A3000A701960119A28E010F5D1F4F8AE0C82EF3
:100A4000D12CE12CF12CCA01B901A70196010E9419
:100A5000ED09605DF80162938F01211531054105B3
:100A6000510589F7CF010E94BB04A1960FB6F894F7
:100A7000DEBF0FBECDBFDF91CF911F910F91FF90D1
:100A8000EF90DF90CF90BF90AF909F908F900895A0
:100A9000EF92FF920F931F93CF93DF931F92CDB7E7
:100AA000DEB7162F877028E0829FC0011124682FBF
:100AB000606483E093E079830E94AF03E12E798143
:100AC000F72E8701085F1F4FF70161917F0183E0D7
:100AD00093E00E94A903E016F106B1F70F90DF91B1
:100AE000CF911F910F91FF90EF900895362F90E0D6
:100AF000FC01E050FE4F4491FC01E054FD4F249175
:100B0000FC01E658FD4F9491992309F46BC04423EE
:100B100009F455C050E0FA013197E231F10508F0CF
:100B20004EC08827E657FF4F8F4F0C940F0A8091D5
:100B300080008F7707C0809180008F7D03C08091F7
:100B40008000877F809380003AC084B58F7702C091
:100B500084B58F7D84BD33C08091B0008F7703C092
:100B60008091B0008F7D8093B00029C0809190006B
:100B70008F7707C0809190008F7D03C08091900097
:100B8000877F809390001BC08091A0008F7707C063
:100B90008091A0008F7D03C08091A000877F80930B
:100BA000A0000DC0809120018F7707C080912001A7
:100BB0008F7D03C080912001877F80932001E92FE2
:100BC000F0E0EE0FFF1FEA5BFD4FA591B4918FB7E8
:100BD000F894EC91311103C020952E2301C02E2BE7
:100BE0002C938FBF0895EF92FF920F931F93CF9393
:100BF000DF93EC01623018F08F8588608F876B8BF4
:100C00001C8A80E48D8B80E18E8B80E58F8B8C81BC
:100C10000E949C048D818F3F11F00E949C048E8164
:100C20000E949C047E0187E0E80EF11C00E010E0C9
:100C30008F8584FD03C084E090E002C088E090E0EE
:100C40000817190744F4F70181917F010E949C0461
:100C50000F5F1F4FEDCF8BE39DE00197F1F760E051
:100C60008C810E94760560E08E810E9476058D81E0
:100C70008F3F19F060E00E9476056F8564FD1DC00E
:100C800063E0CE010E9429030BE416E4C80101973A
:100C9000F1F763E0CE010E942903C8010197F1F743
:100CA00063E0CE010E94290383E592E00197F1F70A
:100CB00062E0CE010E94290316C06062CE010E944C
:100CC000AF038BE496E40197F1F76F856062CE0184
:100CD0000E94AF0383E592E00197F1F76F856062B0
:100CE000CE010E94AF036F856062CE010E94AF0308
:100CF00084E0888B6CE0CE010E94AF03CE010E949D
:100D0000B20382E0898B66E0CE01DF91CF911F9123
:100D10000F91FF90EF900C94AF038F929F92AF9240
:100D2000BF92CF92DF92EF92FF926B017C010E9403
:100D30004A044B015C01C114D104E104F104F1F057
:100D40000E944A04DC01CB0188199909AA09BB0950
:100D5000883E9340A105B10570F321E0C21AD10885
:100D6000E108F10888EE880E83E0981EA11CB11CF2
:100D7000C114D104E104F10419F7DDCFFF90EF9025
:100D8000DF90CF90BF90AF909F908F9008951F926B
:100D90000F920FB60F9211242F933F938F939F932F
:100DA000AF93BF9380911C0390911D03A0911E03EC
:100DB000B0911F0330911B0323E0230F2D3720F444
:100DC0000196A11DB11D05C026E8230F0296A11DA5
:100DD000B11D20931B0380931C0390931D03A093CC
:100DE0001E03B0931F038091200390912103A091D3
:100DF0002203B09123030196A11DB11D809320030E
:100E000090932103A0932203B0932303BF91AF914A
:100E10009F918F913F912F910F900FBE0F901F9038
:100E20001895789484B5826084BD84B5816084BD52
:100E300085B5826085BD85B5816085BD80916E0078
:100E4000816080936E0010928100809181008260A9
:100E500080938100809181008160809381008091E6
:100E600080008160809380008091B10084608093D5
:100E7000B1008091B00081608093B00080919100BA
:100E800082608093910080919100816080939100B5
:100E9000809190008160809390008091A100826099
:100EA0008093A1008091A10081608093A100809136
:100EB000A00081608093A0008091210182608093D6
:100EC0002101809121018160809321018091200185
:100ED00081608093200180917A00846080937A0001
:100EE00080917A00826080937A0080917A0081609C
:100EF00080937A0080917A00806880937A001092C3
:100F0000C1008DE00E949C04E0917002F09171029A
:100F100082E08083E0916C02F0916D021082E0919A
:100F20006E02F0916F028FEC808310927802E09154
:100F30007402F091750286E08083E0917202F09174
:100F40007302808180618083E0917202F09173026C
:100F5000808188608083E0917202F09173028081C9
:100F600080688083E0917202F091730280818F7DAE
:100F7000808368E172E080E00E94480560E172E0F1
:100F800081E00E94480568E072E082E00E94480526
:100F900060E072E083E00E94480586E10E949C04C4
:100FA00087E10E949C0488E10E949C0489E10E94E0
:100FB0009C048AE10E949C048BE10E949C048CE1C9
:100FC0000E949C048DE10E949C048EE10E949C047E
:100FD0008FE10E949C0480E20E949C0481E20E94B6
:100FE0009C0482E20E949C0483E20E949C0484E2AE
:100FF0000E949C0485E20E949C0486E20E949C045C
:1010000087E20E949C0488E20E949C0489E20E947C
:101010009C048AE20E949C048BE20E949C048CE265
:101020000E949C048DE20E949C0461E086E10E9483
:10103000760561E087E10E94760561E088E10E9423
:10104000760561E089E10E94760561E08AE10E940F
:10105000760561E08BE10E94760561E08CE10E94FB
:10106000760561E08DE10E94760561E08EE10E94E7
:10107000760561E08FE10E94760561E080E20E94E2
:10108000760561E081E20E94760561E082E20E94DD
:10109000760561E083E20E94760561E084E20E94C9
:1010A000760561E085E20E94760561E086E20E94B5
:1010B000760561E087E20E94760561E088E20E94A1
:1010C000760561E089E20E94760561E08AE20E948D
:1010D000760561E08BE20E94760561E08CE20E9479
:1010E000760561E08DE20E94760562E083E093E0A0
:1010F0000E94F30583E093E00E94B20385E492E04E
:101100000E94BB04E0911603E23010F4E15001C0EC
:10111000E1E0F0E0ED5FFC4F64896E5F606883E0C2
:1011200093E00E94AF0361E083E093E00E94A90393
:1011300083E592E00E94BB0460ED77E080E090E000
:101140000E948D0660E089E10E94760560E08AE1F8
:101150000E9476056CE271E080E090E00E948D06CE
:1011600061E089E10E94760561E08AE10E947605EE
:1011700060ED77E080E090E00E948D0660E086E11F
:101180000E94760560E087E10E94760560E088E1D4
:101190000E9476056CE271E080E090E00E948D068E
:1011A00061E086E10E94760561E087E10E947605B4
:1011B00061E088E10E94760560ED77E080E090E0F4
:1011C0000E948D0624EF31E04CE251E060E070E0D7
:1011D00081E090E00E94BA0324EF31E04CE251E05C
:1011E00060E070E082E090E00E94BA0324EF31E01A
:1011F0004CE251E060E070E083E090E00E94BA03CE
:1012000024E833E04CE251E060E070E084E090E0FC
:101210000E94BA0320E931E04CE251E060E070E066
:1012200085E090E00E94BA0320E931E04CE251E011
:1012300060E070E086E090E00E94BA0320E931E0CF
:101240004CE251E060E070E087E090E00E94BA0379
:1012500020E931E04CE251E060E070E088E090E0AD
:101260000E94BA030E947A026DCF8091FD02909194
:10127000FE020C94AC0A109263021092620288EE95
:1012800093E0A0E0B0E08093640290936502A093A5
:101290006602B09367028AE292E0909361028093C3
:1012A000600285EC90E090936D0280936C0284EC78
:1012B00090E090936F0280936E0280EC90E09093A8
:1012C00071028093700281EC90E09093730280939E
:1012D000720282EC90E0909375028093740286EC27
:1012E00090E09093770280937602109279021092A8
:1012F0007A0210927B0210927C02109206031092E6
:1013000005038AE392E0909304038093030388E04B
:10131000809307038FEF8093080389E0809309038C
:1013200084E080930A0385E080930B0386E080933A
:101330000C0387E080930D0310920E0310920F03AD
:1013400010921003109211031092120361E083E0D7
:1013500093E00E94F3051092FE021092FD0210929B
:1013600000031092FF02109202031092010361E049
:1013700070E080E090E00E94440B009789F0909329
:10138000FE028093FD02109200031092FF02209152
:10139000010330910203232BC1F4FC01108215C01C
:1013A0008091FD029091FE02009711F00E94AC0A1C
:1013B0001092FE021092FD0210920203109201039D
:1013C000109200031092FF020895109202031092EF
:1013D000010364E472E00C943B0CA1E21A2EAA1BF8
:1013E000BB1BFD010DC0AA1FBB1FEE1FFF1FA217D5
:1013F000B307E407F50720F0A21BB30BE40BF50BD2
:10140000661F771F881F991F1A9469F7609570955A
:10141000809590959B01AC01BD01CF010895EE0F21
:10142000FF1F881F8BBF0790F691E02D1994CF9373
:10143000DF938230910510F482E090E0E091260382
:10144000F091270320E030E0C0E0D0E0309711F1C8
:101450004081518148175907C0F04817590761F476
:1014600082819381209719F09B838A832BC090936C
:1014700027038093260326C02115310519F0421752
:10148000530718F49A01BE01DF01EF010280F381D6
:10149000E02DDCCF2115310509F1281B390B243053
:1014A000310590F412968D919C91139761157105F9
:1014B00021F0FB019383828304C0909327038093E0
:1014C0002603FD01329644C0FD01E20FF31F819314
:1014D0009193225031092D933C933AC020912403DB
:1014E00030912503232B41F42091220230912302D5
:1014F0003093250320932403209120023091210270
:101500002115310541F42DB73EB740912402509189
:101510002502241B350BE0912403F0912503E217EB
:10152000F307A0F42E1B3F0B2817390778F0AC0106
:101530004E5F5F4F2417350748F04E0F5F1F5093E3
:101540002503409324038193919302C0E0E0F0E0EF
:10155000CF01DF91CF9108950F931F93CF93DF9326
:10156000009709F48CC0FC0132971382128200911B
:101570002603109127030115110581F42081318183
:10158000820F931F209124033091250328173907D8
:1015900079F5F0932503E093240371C0D80140E06E
:1015A00050E0AE17BF0750F412962D913C9113975F
:1015B000AD012115310509F1D901F3CF9D01DA0102
:1015C0003383228360817181860F971F821793076F
:1015D00069F4EC0128813981260F371F2E5F3F4FB8
:1015E000318320838A819B8193838283452B29F4D5
:1015F000F0932703E093260342C01396FC93EE93E7
:101600001297ED01499159919E01240F351FE21760
:10161000F30771F480819181840F951F02961196D2
:101620009C938E938281938113969C938E931297B1
:10163000E0E0F0E0D80112968D919C91139700970D
:1016400019F0F8018C01F6CF8D919C9198012E5FD5
:101650003F4F820F931F20912403309125032817B9
:10166000390769F4309729F4109227031092260362
:1016700002C0138212821093250300932403DF918A
:10168000CF911F910F9108956F927F928F929F92A9
:10169000AF92BF92CF92DF92EF92FF920F931F9380
:1016A000CF93DF93EC01009789F4CB01DF91CF91C9
:1016B0001F910F91FF90EF90DF90CF90BF90AF9070
:1016C0009F908F907F906F900C94170AFC01E60F0B
:1016D000F71F9C0122503109E217F30708F4ACC050
:1016E000D9010D911C91119706171707B0F005301D
:1016F000110508F49FC0C80104978617970708F4DE
:1017000099C002501109061B170B019311936D9399
:101710007C93CF010E94AC0A8DC05B01A01AB10A74
:101720004C01800E911EA0912603B091270340E04A
:1017300050E0E12CF12C109709F44AC0A815B90526
:10174000D1F56D907C901197630182E0C80ED11C99
:10175000CA14DB0480F1A3014A195B096A0182E023
:10176000C80ED11C1296BC9012971396AC91B5E09E
:10177000CB16D10440F0B282A38351834083D901B8
:101780006D937C930AC00E5F1F4FC301800F911FA2
:10179000F90191838083EB2DFA2FE114F10431F0EC
:1017A000D7011396FC93EE93129744C0F09327034E
:1017B000E09326033FC08D919C91119748175907DC
:1017C00008F4AC017D0112960D90BC91A02DB3CF11
:1017D000809124039091250388159905E1F446171B
:1017E0005707C8F48091200290912102009741F49C
:1017F0008DB79EB74091240250912502841B950B12
:10180000E817F907C8F4F0932503E0932403F901DE
:10181000718360830FC0CB010E94170A7C0100977F
:1018200059F0A801BE010E94320CCE010E94AC0A00
:10183000C70104C0CE0102C080E090E0DF91CF91EB
:101840001F910F91FF90EF90DF90CF90BF90AF90DE
:101850009F908F907F906F90089581E090E0F89432
:101860000C94420CFB01DC0102C001900D9241502E
:101870005040D8F70895FB01DC0101900D92002043
:10188000E1F7089511E0C4E8D1E000E006C0802F40
:10189000FE010E940F0A2196011DC538D10780E084
:0818A0000807A9F7F894FFCF37
:1018A800000004021F020400000004081F080400CE
:1018B8000E0F0909191B030000040E0E1F1F040058
:1018C8000000280380000000000011026F04DA0104
:1018D800B801CC01580200000000A9036F042020C1
:1018E80050494E20002020204D4547415A564F4E22
:1018F800323400206D656C6F6469614558320000B0
:00000001FF
