:100000000C9430010C9461010C9461010C94610119
:100010000C9461010C9461010C9461010C946101D8
:100020000C9461010C9461010C9461010C946101C8
:100030000C9461010C9461010C9461010C946101B8
:100040000C9461010C9461010C9461010C946101A8
:100050000C9461010C9461010C9461010C94770380
:100060000C9461010C9461010C9461010C94610188
:100070000C9461010C9461010C9461010C94610178
:100080000C9461010C9461010C9461010C94610168
:100090000C9461010C9461010C9461010C94610158
:1000A0000C9461010C9461010C9461010C94610148
:1000B0000C9461010C9461010C9461010C94610138
:1000C0000C9461010C9461010C9461010C94610128
:1000D0000C9461010C9461010C9461010C94610118
:1000E0000C946101B101B401A301A701AB01EB01C3
:1000F000B801BC01C201C601CA01D001D401D801B6
:10010000EB01DE01E201E6010C94D0010C94AB019D
:100110000C94D8010C94B8010C94CA010C94BC0145
:100120000C94B1010C94D4010C94E6010C94DE0102
:100130000C94C2010C941F030C94BD040C94C601D2
:100140000C94EB010C94A7010C94A3010C945E0297
:100150000C94B4010C94E20100000A0B02090C0D8E
:100160000E0807030401000000000000000000006A
:10017000000000000000000000000000000000007F
:10018000000000001211100000000000000000003C
:10019000000000000000000000000000000000005F
:1001A0002200250028002B002E003100340002011F
:1001B0000000050108010B010000210024002700B8
:1001C0002A002D0030003300010100000401070166
:1001D0000A010505050507050808080802020202CC
:1001E0000A0A0808040404040101010101010101D3
:1001F0000303030303030303040707070C0C0C0C9E
:100200000C0C0C0C02020202060606060606060686
:100210000B0B0B0B0B0B0B0B010210202008081013
:100220002040102040800201020108040201010266
:10023000040810204080804020100804020180043F
:10024000020180402010080402010804020101029A
:100250000408102040800102040810204080BD04E2
:1002600011241FBECFEFD1E2DEBFCDBF00E00CBF37
:1002700012E0A0E0B2E0ECE3FBE000E00BBF02C064
:1002800007900D92A832B107D9F722E0A8E2B2E0B8
:1002900001C01D92A934B207E1F711E0C0E3D1E03B
:1002A00000E006C021970109802FFE010E948F0502
:1002B000CF32D10780E00807A9F70E94C1030C9450
:1002C0009C050C94000090E0FC01E85EFD4F249139
:1002D000FC01EE52FE4F8491882399F090E0880F44
:1002E000991FFC01E854FE4FA591B491FC01E25620
:1002F000FE4F859194918FB7F894EC91E22BEC939B
:100300008FBF0895362F90E0FC01E85AFE4F4491CC
:10031000FC01E85EFD4F2491FC01EE52FE4F9491EA
:10032000992309F46BC0442309F455C050E0FA0145
:100330003197E231F10508F04EC08827EE58FF4FA3
:100340008F4F0C948F05809180008F7707C080912C
:1003500080008F7D03C080918000877F8093800024
:100360003AC084B58F7702C084B58F7D84BD33C019
:100370008091B0008F7703C08091B0008F7D809313
:10038000B00029C0809190008F7707C080919000C5
:100390008F7D03C080919000877F809390001BC069
:1003A0008091A0008F7707C08091A0008F7D03C04F
:1003B0008091A000877F8093A0000DC080912001D4
:1003C0008F7707C0809120018F7D03C0809120012D
:1003D000877F80932001E92FF0E0EE0FFF1FE256A8
:1003E000FE4FA591B4918FB7F894EC91311103C0F1
:1003F00020952E2301C02E2B2C938FBF08953FB73D
:10040000F89480912D0290912E02A0912F02B0912C
:10041000300226B5A89B05C02F3F19F00196A11DFB
:10042000B11D3FBFBA2FA92F982F8827820F911D8A
:10043000A11DB11DBC01CD0142E0660F771F881FD1
:10044000991F4A95D1F708958F929F92AF92BF92CC
:10045000CF92DF92EF92FF926B017C010E94FF012D
:100460004B015C01C114D104E104F104F1F00E94DC
:10047000FF01DC01CB0188199909AA09BB09883E53
:100480009340A105B10570F321E0C21AD108E1083B
:10049000F10888EE880E83E0981EA11CB11CC114DF
:1004A000D104E104F10419F7DDCFFF90EF90DF9064
:1004B000CF90BF90AF909F908F900895CF92DF9292
:1004C000EF92FF920F931F93CF93DF936C017A010A
:1004D0008B01C0E0D0E0CE15DF0589F0D8016D9129
:1004E0008D01D601ED91FC910190F081E02DC601C6
:1004F0001995892B11F47E0102C02196ECCFC7011A
:10050000DF91CF911F910F91FF90EF90DF90CF90EF
:100510000895CF93DF93EC0160E08E810E94820109
:1005200061E08E810E94820160E08E810E948201E2
:100530008BE891E00197F1F7DF91CF910895CF9289
:10054000DF92EF92FF920F931F93CF93DF937C0183
:100550006C0187E0C80ED11CC0E0D0E0062F10E08F
:10056000B8010C2E02C0759567950A94E2F7617088
:10057000F60181916F010E9482012196C430D1055C
:1005800079F7C701DF91CF911F910F91FF90EF9005
:10059000DF90CF900C948902CF92DF92EF92FF927E
:1005A0000F931F93CF93DF93EC01F62E642F8C8172
:1005B0000E9482018D818F3F19F060E00E948201CC
:1005C0008F850F2D10E084FF25C06E0187E0C80ED7
:1005D000D11CE12CF12CB8010E2C02C07595679549
:1005E0000A94E2F76170F60181916F010E94820125
:1005F000FFEFEF1AFF0A88E0E816F10461F7CE0179
:10060000DF91CF911F910F91FF90EF90DF90CF90EE
:100610000C948902B80184E0759567958A95E1F795
:10062000CE010E949F026F2DCE01DF91CF911F91CD
:100630000F91FF90EF90DF90CF900C949F0241E0DC
:100640000E94CC0281E090E0089540E00C94CC023E
:10065000EF92FF920F931F93CF93DF931F92CDB72B
:10066000DEB7162F877028E0829FC0011124682F03
:10067000606481E392E079830E942503E12E798111
:10068000F72E8701085F1F4FF70161917F0181E31A
:1006900092E00E941F03E016F106B1F70F90DF9180
:1006A000CF911F910F91FF90EF900895FF920F93BC
:1006B0001F93CF93DF93F82E8B01EA0161E00E9434
:1006C0008201B80180E090E00E94240260E08F2D5A
:1006D0000E948201BE0180E090E00E942402DF912E
:1006E000CF911F910F91FF9008950E9497051F923F
:1006F0000F920FB60F9211242F933F938F939F93D6
:10070000AF93BF938091290290912A02A0912B026E
:10071000B0912C023091280223E0230F2D3720F4D2
:100720000196A11DB11D05C026E8230F0296A11D4B
:10073000B11D209328028093290290932A02A0934E
:100740002B02B0932C0280912D0290912E02A09149
:100750002F02B09130020196A11DB11D80932D0290
:1007600090932E02A0932F02B0933002BF91AF91CD
:100770009F918F913F912F910F900FBE0F901F90DF
:100780001895789484B5826084BD84B5816084BDF9
:1007900085B5826085BD85B5816085BD80916E001F
:1007A000816080936E001092810080918100826050
:1007B000809381008091810081608093810080918D
:1007C00080008160809380008091B100846080937C
:1007D000B1008091B00081608093B0008091910061
:1007E000826080939100809191008160809391005C
:1007F000809190008160809390008091A100826040
:100800008093A1008091A10081608093A1008091DC
:10081000A00081608093A00080912101826080937C
:10082000210180912101816080932101809120012B
:1008300081608093200180917A00846080937A00A7
:1008400080917A00826080937A0080917A00816042
:1008500080937A0080917A00806880937A00109269
:10086000C10068E172E080E00E94280360E172E06C
:1008700081E00E94280368E072E082E00E94280381
:1008800060E072E083E00E94280385E10E9463013A
:1008900086E10E94630187E10E94630188E10E9472
:1008A000630189E10E9463018AE10E9463018BE197
:1008B0000E9463018CE10E9463018DE10E9463014B
:1008C0008EE10E9463018FE10E94630180E20E9439
:1008D000630181E20E94630182E20E94630183E27C
:1008E0000E94630184E20E94630185E20E94630129
:1008F00086E20E94630187E20E94630188E20E940F
:10090000630189E20E9463018AE20E9463018BE233
:100910000E9463018CE20E946301C0E0D0E040EDE0
:1009200057E06AEF70E08FE10E94560340ED57E018
:1009300068E171E087E10E94560348EB5BE06AEFF3
:1009400070E086E10E94560348E853E16CE271E0F2
:1009500080E20E94560340ED57E06CE271E085E1D1
:100960000E94560360E177E280E090E00E9424025A
:100970002097A9F20E940000D2CFCF93DF9310926C
:1009800034021092330284E292E090933202809318
:10099000310288E0809335028FEF8093360289E040
:1009A0008093370284E08093380285E08093390297
:1009B00086E080933A0287E080933B0210923C02EB
:1009C00010923D0210923E0210923F02109240029D
:1009D00081E0809344021092450280E480934602B5
:1009E00080E18093470280E58093480288E00E947E
:1009F0006301809136028F3F11F00E946301809164
:100A000037020E946301C0E0D0E08091400284FD83
:100A100003C084E090E002C088E090E0C817D907E6
:100A200044F4FE01EF5CFD4F87810E946301219633
:100A3000ECCF8BE39DE00197F1F760E08091350208
:100A40000E94820160E0809137020E9482018091C1
:100A500036028F3F19F060E00E94820160914002EF
:100A600064FD20C063E081E392E00E949F02CBE43A
:100A7000D6E4CE010197F1F763E081E392E00E94B2
:100A80009F022197F1F763E081E392E00E949F02C9
:100A900083E592E00197F1F762E081E392E00E9442
:100AA0009F021BC0606281E392E00E9425038BE4F9
:100AB00096E40197F1F760914002606281E392E071
:100AC0000E94250383E592E00197F1F760914002CF
:100AD000606281E392E00E942503609140026062BF
:100AE00081E392E00E94250384E0809341026CE060
:100AF00081E392E00E94250361E081E392E00E949D
:100B000025038BE39FE10197F1F782E08093420296
:100B100066E081E392E0DF91CF910C942503EE0F24
:100B2000FF1F881F8BBF0790F691E02D199481E07D
:0C0B300090E0F8940C949C05F894FFCF22
:100B3C00000004021F020400000004081F08040047
:100B4C000E0F0909191B030000040E0E1F1F0400D1
:080B5C00000000001F035E020F
:00000001FF
