:100000000C9430010C9461010C9461010C94610119
:100010000C9461010C9461010C9461010C946101D8
:100020000C9461010C9461010C9461010C946101C8
:100030000C9461010C9461010C9461010C946101B8
:100040000C9461010C9461010C9461010C946101A8
:100050000C9461010C9461010C9461010C944603B1
:100060000C9461010C9461010C9461010C94610188
:100070000C9461010C9461010C9461010C94610178
:100080000C9461010C9461010C9461010C94610168
:100090000C9461010C9461010C9461010C94610158
:1000A0000C9461010C9461010C9461010C94610148
:1000B0000C9461010C9461010C9461010C94610138
:1000C0000C9461010C9461010C9461010C94610128
:1000D0000C9461010C9461010C9461010C94610118
:1000E0000C946101B101B401A301A701AB01EB01C3
:1000F000B801BC01C201C601CA01D001D401D801B6
:10010000EB01DE01E201E6010C94C2010C94AB01AB
:100110000C94B1010C94BC010C94C6010C94A70181
:100120000C94E6010C945E020C94B4010C94B8019A
:100130000C94D8010C94DE010C94D4010C94EB01C6
:100140000C9479040C94A3010C941F030C94E20109
:100150000C94D0010C94CA0100000A0B02090C0D8A
:100160000E0807030401000000000000000000006A
:10017000000000000000000000000000000000007F
:10018000000000001211100000000000000000003C
:10019000000000000000000000000000000000005F
:1001A0002200250028002B002E003100340002011F
:1001B0000000050108010B010000210024002700B8
:1001C0002A002D0030003300010100000401070166
:1001D0000A010505050507050808080802020202CC
:1001E0000A0A0808040404040101010101010101D3
:1001F0000303030303030303040707070C0C0C0C9E
:100200000C0C0C0C02020202060606060606060686
:100210000B0B0B0B0B0B0B0B010210202008081013
:100220002040102040800201020108040201010266
:10023000040810204080804020100804020180043F
:10024000020180402010080402010804020101029A
:100250000408102040800102040810204080790426
:1002600011241FBECFEFD1E2DEBFCDBF00E00CBF37
:1002700012E0A0E0B2E0E2ECFAE000E00BBF02C066
:1002800007900D92A830B107D9F722E0A8E0B2E0BC
:1002900001C01D92A932B207E1F711E0C0E3D1E03D
:1002A00000E006C021970109802FFE010E9452053F
:1002B000CF32D10780E00807A9F70E9490030C9481
:1002C0005F050C94000090E0FC01E85EFD4F249176
:1002D000FC01EE52FE4F8491882399F090E0880F44
:1002E000991FFC01E854FE4FA591B491FC01E25620
:1002F000FE4F859194918FB7F894EC91E22BEC939B
:100300008FBF0895362F90E0FC01E85AFE4F4491CC
:10031000FC01E85EFD4F2491FC01EE52FE4F9491EA
:10032000992309F46BC0442309F455C050E0FA0145
:100330003197E231F10508F04EC08827EE58FF4FA3
:100340008F4F0C945205809180008F7707C0809169
:1003500080008F7D03C080918000877F8093800024
:100360003AC084B58F7702C084B58F7D84BD33C019
:100370008091B0008F7703C08091B0008F7D809313
:10038000B00029C0809190008F7707C080919000C5
:100390008F7D03C080919000877F809390001BC069
:1003A0008091A0008F7707C08091A0008F7D03C04F
:1003B0008091A000877F8093A0000DC080912001D4
:1003C0008F7707C0809120018F7D03C0809120012D
:1003D000877F80932001E92FF0E0EE0FFF1FE256A8
:1003E000FE4FA591B4918FB7F894EC91311103C0F1
:1003F00020952E2301C02E2B2C938FBF08953FB73D
:10040000F8948091250290912602A0912702B09144
:10041000280226B5A89B05C02F3F19F00196A11D03
:10042000B11D3FBFBA2FA92F982F8827820F911D8A
:10043000A11DB11DBC01CD0142E0660F771F881FD1
:10044000991F4A95D1F708958F929F92AF92BF92CC
:10045000CF92DF92EF92FF926B017C010E94FF012D
:100460004B015C01C114D104E104F104F1F00E94DC
:10047000FF01DC01CB0188199909AA09BB09883E53
:100480009340A105B10570F321E0C21AD108E1083B
:10049000F10888EE880E83E0981EA11CB11CC114DF
:1004A000D104E104F10419F7DDCFFF90EF90DF9064
:1004B000CF90BF90AF909F908F900895CF92DF9292
:1004C000EF92FF920F931F93CF93DF936C017A010A
:1004D0008B01C0E0D0E0CE15DF0589F0D8016D9129
:1004E0008D01D601ED91FC910190F081E02DC601C6
:1004F0001995892B11F47E0102C02196ECCFC7011A
:10050000DF91CF911F910F91FF90EF90DF90CF90EF
:100510000895CF93DF93EC0160E08E810E94820109
:1005200061E08E810E94820160E08E810E948201E2
:100530008BE891E00197F1F7DF91CF910895CF9289
:10054000DF92EF92FF920F931F93CF93DF937C0183
:100550006C0187E0C80ED11CC0E0D0E0062F10E08F
:10056000B8010C2E02C0759567950A94E2F7617088
:10057000F60181916F010E9482012196C430D1055C
:1005800079F7C701DF91CF911F910F91FF90EF9005
:10059000DF90CF900C948902CF92DF92EF92FF927E
:1005A0000F931F93CF93DF93EC01F62E642F8C8172
:1005B0000E9482018D818F3F19F060E00E948201CC
:1005C0008F850F2D10E084FF25C06E0187E0C80ED7
:1005D000D11CE12CF12CB8010E2C02C07595679549
:1005E0000A94E2F76170F60181916F010E94820125
:1005F000FFEFEF1AFF0A88E0E816F10461F7CE0179
:10060000DF91CF911F910F91FF90EF90DF90CF90EE
:100610000C948902B80184E0759567958A95E1F795
:10062000CE010E949F026F2DCE01DF91CF911F91CD
:100630000F91FF90EF90DF90CF900C949F0241E0DC
:100640000E94CC0281E090E00895FF920F931F93E7
:10065000CF93DF93F82E8B01EA0161E00E948201C3
:10066000B80180E090E00E94240260E08F2D0E949B
:100670008201BE0180E090E00E942402DF91CF91D0
:100680001F910F91FF9008950E945A051F920F929B
:100690000FB60F9211242F933F938F939F93AF9395
:1006A000BF938091210290912202A0912302B091E8
:1006B00024023091200223E0230F2D3720F40196ED
:1006C000A11DB11D05C026E8230F0296A11DB11D75
:1006D000209320028093210290932202A093230270
:1006E000B09324028091250290912602A0912702C6
:1006F000B09128020196A11DB11D8093250290930F
:100700002602A0932702B0932802BF91AF919F9138
:100710008F913F912F910F900FBE0F901F901895C2
:10072000789484B5826084BD84B5816084BD85B5CC
:10073000826085BD85B5816085BD80916E008160D8
:1007400080936E001092810080918100826080937E
:100750008100809181008160809381008091800080
:100760008160809380008091B10084608093B100AB
:100770008091B00081608093B00080919100826090
:10078000809391008091910081608093910080918D
:1007900090008160809390008091A100826080939E
:1007A000A1008091A10081608093A1008091A000B0
:1007B00081608093A000809121018260809321015B
:1007C00080912101816080932101809120018160CD
:1007D0008093200180917A00846080937A008091D8
:1007E0007A00826080937A0080917A0081608093A1
:1007F0007A0080917A00806880937A001092C1001C
:1008000081E00E94630182E00E94630183E00E9414
:10081000630182E20E94630183E20E94630184E239
:100820000E94630185E20E94630186E20E946301E7
:1008300087E20E94630188E20E9463018BE00E94CC
:1008400063018CE00E9463018DE00E9463018EE0F1
:100850000E9463018FE00E94630180E10E946301B6
:1008600081E10E94630182E10E94630183E10E94B1
:10087000630184E10E94630185E10E94630186E1D6
:100880000E94630187E10E94630188E10E94630185
:10089000C0E0D0E040ED57E06AEF70E08BE00E94EE
:1008A000250340ED57E068E171E083E00E942503F5
:1008B00048EB5BE06AEF70E082E00E94250348E8C5
:1008C00053E16CE271E08CE00E94250340ED57E0BB
:1008D0006CE271E081E00E94250340ED57E068E1A1
:1008E00071E083E00E9425032097A1F20E9400009E
:1008F000D1CFCF93DF9310920B0210920A0284E0C3
:1009000092E0909309028093080288E080930C02A1
:100910008FEF80930D0289E080930E0284E0809334
:100920000F0285E08093100286E08093110287E039
:100930008093120210921302109214021092150268
:10094000109216021092170281E080931B021092FF
:100950001C0280E480931D0280E180931E0280E5EA
:1009600080931F0288E00E94630180910D028F3FF7
:1009700011F00E94630180910E020E946301C0E0A9
:10098000D0E08091170284FD03C084E090E002C0B3
:1009900088E090E0C817D90744F4FE01E85FFD4FF6
:1009A00087810E9463012196ECCF8BE39DE0019744
:1009B000F1F760E080910C020E94820160E080917A
:1009C0000E020E94820180910D028F3F19F060E0BB
:1009D0000E9482016091170264FD20C063E088E0FC
:1009E00092E00E949F02CBE4D6E4CE010197F1F79A
:1009F00063E088E092E00E949F022197F1F763E0B4
:100A000088E092E00E949F0283E592E00197F1F76F
:100A100062E088E092E00E949F021EC0606240E0B7
:100A200088E092E00E94CC028BE496E40197F1F713
:100A300060911702606240E088E092E00E94CC0280
:100A400083E592E00197F1F760911702606240E060
:100A500088E092E00E94CC0260911702606240E060
:100A600088E092E00E94CC0284E08093180240E08B
:100A70006CE088E092E00E94CC0240E061E088E017
:100A800092E00E94CC028BE39FE10197F1F782E0B4
:100A90008093190240E066E088E092E0DF91CF9118
:100AA0000C94CC02EE0FFF1F881F8BBF0790F691AE
:100AB000E02D199481E090E0F8940C945F05F8948F
:020AC000FFCF66
:080AC200000000001F035E02AA
:00000001FF
