:100000000C9449010C947A010C947A010C947A01B5
:100010000C947A010C947A010C947A010C947A0174
:100020000C947A010C947A010C947A010C947A0164
:100030000C947A010C947A010C947A010C947A0154
:100040000C947A010C947A010C947A010C947A0144
:100050000C947A010C947A010C947A010C940307A5
:100060000C947A010C941F030C94F5020C947A0101
:100070000C947A010C947A010C947A010C947A0114
:100080000C947A010C947A010C947A010C947A0104
:100090000C947A010C947A010C947A010C94550317
:1000A0000C947A010C947A010C947A010C947A01E4
:1000B0000C947A010C947A010C947A010C947A01D4
:1000C0000C947A010C947A010C947A010C947A01C4
:1000D0000C947A010C947A010C947A010C947A01B4
:1000E0000C947A01DC05DF05CE05D205D60516068F
:1000F000E305E705ED05F105F505FB05FF0503063D
:10010000160609060D0611060C94E3050C947C01F5
:100110000C94DF050C94F1050C94CE050C940306A9
:100120000C94FF050C9411060C9484090C94CC02D9
:100130000C940D060C94B7020C94A9020C940906B9
:100140000C94FB050C94D2050C94B0020C94900115
:100150000C94F5050C941C020C94D6050C94AA0280
:100160000C9407050C94E7050C9435050C947E0956
:100170000C9416060C949E010C94DC050C94D5018D
:100180000C94ED050C94AD0200000A0B02090C0D55
:100190000E0807030401000000000000000000003A
:1001A000000000000000000000000000000000004F
:1001B000000000001211100000000000000000000C
:1001C000000000000000000000000000000000002F
:1001D0002200250028002B002E00310034000201EF
:1001E0000000050108010B01000021002400270088
:1001F0002A002D0030003300010100000401070136
:100200000A0105050505070508080808020202029B
:100210000A0A0808040404040101010101010101A2
:100220000303030303030303040707070C0C0C0C6D
:100230000C0C0C0C02020202060606060606060656
:100240000B0B0B0B0B0B0B0B0102102020080810E3
:100250002040102040800201020108040201010236
:10026000040810204080804020100804020180040F
:10027000020180402010080402010804020101026A
:1002800004081020408001020408102040808409E6
:100290007E0911241FBECFEFD1E2DEBFCDBF00E04B
:1002A0000CBF23E0AAE5B2E001C01D92AD39B20750
:1002B000E1F712E0A0E0B2E0ECE1F9E100E00BBF11
:1002C00002C007900D92AA35B107D9F711E0C8E432
:1002D000D1E000E006C021970109802FFE010E94B5
:1002E000490AC734D10780E00807A9F70E944D07E3
:1002F0000C947C0C0C940000FC01918D828D98175D
:1003000061F0828DDF01A80FB11D5D968C91928DF9
:100310009F5F9F73928F90E008958FEF9FEF0895F6
:10032000FC01918D828D981731F0828DE80FF11DBF
:10033000858D90E008958FEF9FEF0895FC01918DDA
:10034000228D892F90E0805C9F4F821B91098F73D3
:100350009927089589EC92E00E949E0121E0892B63
:1003600009F420E0822F0895FC01848DDF01A80F9D
:10037000B11DA35ABF4F2C91848D90E001968F73CD
:100380009927848FA689B7892C93A089B1898C91EC
:1003900080648C93938D848D981306C00288F389B2
:1003A000E02D80818F7D80830895EF92FF920F93DF
:1003B0001F93CF93DF93EC0181E0888F9B8D8C8D11
:1003C000981305C0E889F989808185FD24C0F62E3F
:1003D0000B8D10E00F5F1F4F0F731127E02E8C8DD8
:1003E000E8120CC00FB607FCFACFE889F9898081C2
:1003F00085FFF5CFCE010E94B401F1CF8B8DFE01B8
:10040000E80FF11DE35AFF4FF0820B8FEA89FB8959
:100410008081806207C0EE89FF896083E889F9895D
:1004200080818064808381E090E0DF91CF911F9193
:100430000F91FF90EF900895CF93DF93EC01888D9B
:100440008823C9F0EA89FB89808185FD05C0A889D8
:10045000B9898C9186FD0FC00FB607FCF5CF80815E
:1004600085FFF2CFA889B9898C9185FFEDCFCE01A8
:100470000E94B401E7CFDF91CF91089580E090E032
:10048000892B21F00E94AA01811125C080E090E013
:10049000892B41F080E090E0892B21F00E94000040
:1004A00081111CC080E090E0892B41F080E090E059
:1004B000892B21F00E940000811113C080E090E0A0
:1004C000892BA1F080E090E0892B81F00E94000050
:1004D00081110AC008950E940000D8CF0E94000038
:1004E000E1CF0E940000EACF0C940000089585ED52
:1004F0008093BC008091BC0084FDFCCF1092A302CD
:10050000089540917D02262F30E0240F311D2132C5
:100510003105DCF42091A3022430C9F4FC0180E011
:1005200090E0861758F430917D022191DC01A55AA4
:10053000BD4FA30FB11D2C930196F3CF80917D0287
:10054000680F60937D0280E0089581E0089582E065
:10055000089508958FEF9FEF08958FEF9FEF08950F
:1005600080915A0290E09195819591090895CF93D9
:10057000DF931F921F92CDB7DEB7CB01642F498363
:100580005A830E9481024981842F5A81952F0F90AE
:100590000F90DF91CF910895CF93DF931F92CDB746
:1005A000DEB7698361E0CE0101960E94810281E09D
:1005B00090E00F90DF91CF910895CF93DF93EC01FE
:1005C00060E08E810E94AD0561E08E810E94AD05E4
:1005D00060E08E810E94AD058BE891E00197F1F714
:1005E000DF91CF9108950E94670C1F920F920FB672
:1005F0000F9211240BB60F922F933F934F935F935B
:100600006F937F938F939F93AF93BF93EF93FF93DA
:1006100089EC92E00E94B401FF91EF91BF91AF91FC
:100620009F918F917F916F915F914F913F912F910A
:100630000F900BBE0F900FBE0F901F9018951F923A
:100640000F920FB60F9211240BB60F922F938F9328
:100650009F93EF93FF93E091D902F091DA028081AA
:10066000E091DF02F091E00282FD12C09081809162
:10067000E2028F5F8F732091E302821751F0E091C5
:10068000E202F0E0E753FD4F958F8093E20201C054
:100690008081FF91EF919F918F912F910F900BBED1
:1006A0000F900FBE0F901F9018951F920F920FB6CC
:1006B0000F9211240BB60F922F933F934F935F939A
:1006C0006F937F938F939F93AF93BF93EF93FF931A
:1006D0008091B900887F803609F49CC068F5883223
:1006E00009F45BC090F4803109F454C038F48823D5
:1006F00009F4F6C0883009F44DC0F6C0883109F419
:100700004CC0803209F45DC0EFC0803409F468C089
:1007100048F4803309F455C0883309F0E5C080936C
:10072000A202D8C0803509F44FC0883509F45DC0F5
:10073000883409F0D9C0D6C0883909F4C7C0A8F4F4
:10074000883709F467C038F4883609F463C0803705
:1007500009F460C0C9C0883809F4B8C0803909F408
:100760005FC0803809F0C0C05BC0803B09F486C020
:1007700038F4803A09F466C0883A09F47FC0B4C0FE
:10078000803C09F4A7C0883C09F4A4C0883B09F464
:100790008AC0AAC08091C80210C09091C7028091FF
:1007A000C602981770F5E091C70281E08E0F809322
:1007B000C702F0E0EA55FD4F80818093BB0085ECD5
:1007C00086C08093A2028EC0E091C70281E08E0FA6
:1007D0008093C7028091BB00F0E0EA55FD4F808313
:1007E0009091C7028091C6026EC0E091C70281E07D
:1007F0008E0F8093C7028091BB00F0E0EA55FD4F59
:1008000080838091A50281116DC081E08093A40254
:1008100084EA61C083E08093A3021092A102CFCF4B
:100820008091A102803208F051C0E091A10281E0E4
:100830008E0F8093A1028091BB00F0E0EF57FD4F37
:100840008083BDCF85EC8093BC001092A302809181
:10085000A102803230F4E091A102F0E0EF57FD4FA9
:1008600010826091A10270E0E0917F02F09180021D
:1008700081E892E019951092A10236C084E080933D
:10088000A30210927E0210927D02E0917B02F09111
:100890007C02199580917D02811105C081E08093D1
:1008A0007D0210925B02E0917E0281E08E0F8093C8
:1008B0007E02F0E0E55AFD4F80818093BB0090916D
:1008C0007E0280917D02981708F479CF85E88093A5
:1008D000BC000AC085EC8093BC001092A30204C047
:1008E0001092A2020E947702FF91EF91BF91AF9107
:1008F0009F918F917F916F915F914F913F912F9138
:100900000F900BBE0F900FBE0F901F901895CF92B7
:10091000DF92EF92FF920F931F93CF93DF937C01AF
:100920006C0187E0C80ED11CC0E0D0E0062F10E0BB
:10093000B8010C2E02C0759567950A94E2F76170B4
:10094000F60181916F010E94AD052196C430D10559
:1009500079F7C701DF91CF911F910F91FF90EF9031
:10096000DF90CF900C94DD02CF92DF92EF92FF9256
:100970000F931F93CF93DF93EC01F62E642F8C819E
:100980000E94AD058D818F3F19F060E00E94AD059A
:100990008F850F2D10E084FF25C06E0187E0C80E03
:1009A000D11CE12CF12CB8010E2C02C07595679575
:1009B0000A94E2F76170F60181916F010E94AD0522
:1009C000FFEFEF1AFF0A88E0E816F10461F7CE01A5
:1009D000DF91CF911F910F91FF90EF90DF90CF901B
:1009E0000C94DD02B80184E0759567958A95E1F76E
:1009F000CE010E9487046F2DCE01DF91CF911F9110
:100A00000F91FF90EF90DF90CF900C94870441E01E
:100A10000E94B40481E090E0089540E00C94B40496
:100A20003FB7F8948091890390918A03A0918B033A
:100A3000B0918C0326B5A89B05C02F3F19F00196F5
:100A4000A11DB11D3FBFBA2FA92F982F8827820F54
:100A5000911DA11DB11DBC01CD0142E0660F771FA4
:100A6000881F991F4A95D1F70895CF92DF92EF9290
:100A7000FF920F931F93CF93DF936C017A018B0149
:100A8000C0E0D0E0CE15DF0589F0D8016D918D0171
:100A9000D601ED91FC910190F081E02DC6011995F0
:100AA000892B11F47E0102C02196ECCFC701DF91A2
:100AB000CF911F910F91FF90EF90DF90CF9008950D
:100AC00090E0FC01E85BFD4F2491FC01EE5FFD4FDF
:100AD0008491882399F090E0880F991FFC01E851D8
:100AE000FE4FA591B491FC01E253FE4F8591949184
:100AF0008FB7F894EC91E22BEC938FBF0895EF92AF
:100B0000FF920F931F93CF93DF931F92CDB7DEB762
:100B1000162F877028E0829FC0011124682F60641F
:100B200086E693E079830E940D05E12E7981F72E08
:100B30008701085F1F4FF70161917F0186E693E00F
:100B40000E940705E016F106B1F70F90DF91CF91F3
:100B50001F910F91FF90EF900895362F90E0FC01C8
:100B6000E857FE4F4491FC01E85BFD4F2491FC01E6
:100B7000EE5FFD4F9491992309F46BC0442309F46F
:100B800055C050E0FA013197E231F10508F04EC04E
:100B90008827EE58FF4F8F4F0C94490A80918000B0
:100BA0008F7707C0809180008F7D03C08091800087
:100BB000877F809380003AC084B58F7702C084B568
:100BC0008F7D84BD33C08091B0008F7703C080914A
:100BD000B0008F7D8093B00029C0809190008F7706
:100BE00007C0809190008F7D03C080919000877F27
:100BF000809390001BC08091A0008F7707C08091E8
:100C0000A0008F7D03C08091A000877F8093A0000B
:100C10000DC0809120018F7707C0809120018F7DCA
:100C200003C080912001877F80932001E92FF0E0AD
:100C3000EE0FFF1FE253FE4FA591B4918FB7F894CA
:100C4000EC91311103C020952E2301C02E2B2C9343
:100C50008FBF0895EF92FF920F931F93CF93DF936F
:100C6000EC01623018F08F8588608F876B8B1C8A4F
:100C700080E48D8B80E18E8B80E58F8B8C810E9450
:100C800060058D818F3F11F00E9460058E810E946A
:100C900060057E0187E0E80EF11C00E010E08F8522
:100CA00084FD03C084E090E002C088E090E0081773
:100CB000190744F4F70181917F010E9460050F5FDD
:100CC0001F4FEDCF8BE39DE00197F1F760E08C8142
:100CD0000E94AD0560E08E810E94AD058D818F3F41
:100CE00019F060E00E94AD056F8564FD1DC063E0F2
:100CF000CE010E9487040BE416E4C8010197F1F7C6
:100D000063E0CE010E948704C8010197F1F763E018
:100D1000CE010E94870483E592E00197F1F762E03B
:100D2000CE010E94870416C06062CE010E940D05AC
:100D30008BE496E40197F1F76F856062CE010E9423
:100D40000D0583E592E00197F1F76F856062CE01B2
:100D50000E940D056F856062CE010E940D0584E042
:100D6000888B6CE0CE010E940D0561E0CE010E94EF
:100D70000D058BE39FE10197F1F782E0898B66E037
:100D8000CE01DF91CF911F910F91FF90EF900C94C6
:100D90000D058F929F92AF92BF92CF92DF92EF920A
:100DA000FF926B017C010E9410054B015C01C11494
:100DB000D104E104F104F1F00E941005DC01CB0143
:100DC00088199909AA09BB09883E9340A105B10574
:100DD00070F321E0C21AD108E108F10888EE880E0C
:100DE00083E0981EA11CB11CC114D104E104F104DC
:100DF00019F7DDCFFF90EF90DF90CF90BF90AF90CD
:100E00009F908F9008951F920F920FB60F9211240A
:100E10002F933F938F939F93AF93BF9380918503BD
:100E200090918603A0918703B09188033091840349
:100E300023E0230F2D3720F40196A11DB11D05C01D
:100E400026E8230F0296A11DB11D209384038093F1
:100E5000850390938603A0938703B09388038091C2
:100E6000890390918A03A0918B03B0918C03019622
:100E7000A11DB11D8093890390938A03A0938B03D6
:100E8000B0938C03BF91AF919F918F913F912F9120
:100E90000F900FBE0F901F901895789484B58260C4
:100EA00084BD84B5816084BD85B5826085BD85B50E
:100EB000816085BD80916E00816080936E0010928C
:100EC0008100809181008260809381008091810007
:100ED0008160809381008091800081608093800098
:100EE0008091B10084608093B1008091B0008160F6
:100EF0008093B000809191008260809391008091F6
:100F00009100816080939100809190008160809336
:100F100090008091A10082608093A1008091A10047
:100F200081608093A1008091A00081608093A000E7
:100F30008091210182608093210180912101816053
:100F40008093210180912001816080932001809114
:100F50007A00846080937A0080917A008260809326
:100F60007A0080917A00816080937A0080917A0083
:100F7000806880937A001092C1008DE00E94600525
:100F8000E091D902F091DA0282E08083E091D5020B
:100F9000F091D6021082E091D702F091D8028FEC46
:100FA00080831092E102E091DD02F091DE0286E0A2
:100FB0008083E091DB02F091DC028081806180839C
:100FC000E091DB02F091DC02808188608083E09117
:100FD000DB02F091DC02808180688083E091DB029B
:100FE000F091DC0280818F7D808368E172E080E097
:100FF0000E947F0560E172E081E00E947F0568E069
:1010000072E082E00E947F0560E072E083E00E946F
:101010007F0586E10E94600587E10E94600588E106
:101020000E94600589E10E9460058AE10E946005D6
:101030008BE10E9460058CE10E9460058DE10E94B9
:1010400060058EE10E9460058FE10E94600580E2EC
:101050000E94600581E20E94600582E20E946005B4
:1010600083E20E94600584E20E94600585E20E949E
:10107000600586E20E94600587E20E94600588E2C2
:101080000E94600589E20E9460058AE20E94600574
:101090008BE20E9460058CE20E9460058DE20E9456
:1010A000600561E086E10E94AD0561E087E10E9494
:1010B000AD0561E088E10E94AD0561E089E10E9433
:1010C000AD0561E08AE10E94AD0561E08BE10E941F
:1010D000AD0561E08CE10E94AD0561E08DE10E940B
:1010E000AD0561E08EE10E94AD0561E08FE10E94F7
:1010F000AD0561E080E20E94AD0561E081E20E9401
:10110000AD0561E082E20E94AD0561E083E20E94EC
:10111000AD0561E084E20E94AD0561E085E20E94D8
:10112000AD0561E086E20E94AD0561E087E20E94C4
:10113000AD0561E088E20E94AD0561E089E20E94B0
:10114000AD0561E08AE20E94AD0561E08BE20E949C
:10115000AD0561E08CE20E94AD0561E08DE20E9488
:10116000AD0562E086E693E00E942A0661E086E62D
:1011700093E00E940D058BE39FE10197F1F74AE0B0
:1011800050E06EE472E086E693E00E94350561E08F
:101190008DE00E94AD0568EE73E080E090E00E9473
:1011A000C90660E08DE00E94AD0568EE73E080E066
:1011B00090E00E94C90660E086E10E94AD056CE205
:1011C00071E080E090E00E94C90661E086E10E9443
:1011D000AD0564EF71E080E090E00E94C90660E038
:1011E00087E10E94AD056CE271E080E090E00E9432
:1011F000C90661E087E10E94AD0564EF71E080E01F
:1012000090E00E94C90660E088E10E94AD056CE2B2
:1012100071E080E090E00E94C90661E088E10E94F0
:10122000AD0564EF71E080E090E00E94C90660E0E7
:1012300089E10E94AD056CE271E080E090E00E94DF
:10124000C90661E089E10E94AD0564E873E080E0D1
:1012500090E00E94C90660E08AE10E94AD056CE260
:1012600071E080E090E00E94C90661E08AE10E949E
:10127000AD0560E971E080E090E00E94C90660E0A1
:101280008BE10E94AD056CE271E080E090E00E948D
:10129000C90661E08BE10E94AD0560E971E080E084
:1012A00090E00E94C90660E08CE10E94AD056CE20E
:1012B00071E080E090E00E94C90661E08CE10E944C
:1012C000AD0560E971E080E090E00E94C90660E051
:1012D0008DE10E94AD056CE271E080E090E00E943B
:1012E000C90661E08DE10E94AD0560E971E080E032
:1012F00090E00E94C9060E943E0249CF80917E0381
:1013000090917F030C94E60A1092CC021092CB02CB
:1013100088EE93E0A0E0B0E08093CD029093CE02FF
:10132000A093CF02B093D0022AE232E03093CA02F7
:101330002093C90225EC30E03093D6022093D502E9
:1013400024EC30E03093D8022093D70220EC30E038
:101350003093DA022093D90221EC30E03093DC02A2
:101360002093DB0222EC30E03093DE022093DD029A
:1013700026EC30E03093E0022093DF021092E2028C
:101380001092E3021092E4021092E5021092900390
:1013900010928F038093910390939203A0939303F1
:1013A000B09394038AE392E090938E0380938D032D
:1013B00010927F0310927E0310928103109280039B
:1013C000109283031092820361E070E080E090E06D
:1013D0000E947E0B009791F090937F0380937E0391
:1013E0001092810310928003209182033091830335
:1013F000232B09F045C0FC01108242C080917E037E
:1014000090917F03009711F00E94E60A10927F03EB
:1014100010927E0310928303109282031092810334
:101420001092800310926903109268038AE492E09C
:10143000909367038093660388E080936A038FEF3D
:1014400080936B0389E080936C0384E080936D0349
:1014500085E080936E0386E080936F0387E080933E
:101460007003109271031092720310927303109222
:1014700074031092750361E086E693E00C942A06EB
:10148000109283031092820368E572E00E94750C4B
:10149000C9CFEE0FFF1F881F8BBF0790F691E02D7D
:1014A0001994CF93DF938230910510F482E090E09D
:1014B000E0919B03F0919C0320E030E0C0E0D0E09D
:1014C000309711F14081518148175907C0F04817F2
:1014D000590761F482819381209719F09B838A8355
:1014E0002BC090939C0380939B0326C0211531054C
:1014F00019F04217530718F49A01BE01DF01EF01FA
:101500000280F381E02DDCCF2115310509F1281B84
:10151000390B2430310590F412968D919C911397DC
:101520006115710521F0FB019383828304C09093C0
:101530009C0380939B03FD01329644C0FD01E20FA2
:10154000F31F81939193225031092D933C933AC01C
:101550002091990330919A03232B41F42091220288
:101560003091230230939A03209399032091200213
:10157000309121022115310541F42DB73EB740913C
:10158000240250912502241B350BE0919903F09120
:101590009A03E217F307A0F42E1B3F0B2817390715
:1015A00078F0AC014E5F5F4F2417350748F04E0FBF
:1015B0005F1F50939A03409399038193919302C0C4
:1015C000E0E0F0E0CF01DF91CF9108950F931F93FA
:1015D000CF93DF93009709F48CC0FC0132971382FC
:1015E000128200919B0310919C030115110581F457
:1015F00020813181820F931F2091990330919A03AA
:101600002817390779F5F0939A03E093990371C08D
:10161000D80140E050E0AE17BF0750F412962D916C
:101620003C911397AD012115310509F1D901F3CF93
:101630009D01DA013383228360817181860F971FB8
:101640008217930769F4EC0128813981260F371F2F
:101650002E5F3F4F318320838A819B8193838283D6
:10166000452B29F4F0939C03E0939B0342C013960F
:10167000FC93EE931297ED01499159919E01240F2D
:10168000351FE217F30771F480819181840F951F54
:10169000029611969C938E938281938113969C93CC
:1016A0008E931297E0E0F0E0D80112968D919C9114
:1016B0001397009719F0F8018C01F6CF8D919C914A
:1016C00098012E5F3F4F820F931F20919903309115
:1016D0009A032817390769F4309729F410929C036C
:1016E00010929B0302C01382128210939A030093FC
:1016F0009903DF91CF911F910F9108956F927F927F
:101700008F929F92AF92BF92CF92DF92EF92FF9211
:101710000F931F93CF93DF93EC01009789F4CB01D4
:10172000DF91CF911F910F91FF90EF90DF90CF90BD
:10173000BF90AF909F908F907F906F900C94510AC4
:10174000FC01E60FF71F9C0122503109E217F30755
:1017500008F4ACC0D9010D911C9111970617170719
:10176000B0F00530110508F49FC0C8010497861732
:10177000970708F499C002501109061B170B019333
:1017800011936D937C93CF010E94E60A8DC05B019B
:10179000A01AB10A4C01800E911EA0919B03B0913A
:1017A0009C0340E050E0E12CF12C109709F44AC072
:1017B000A815B905D1F56D907C901197630182E071
:1017C000C80ED11CCA14DB0480F1A3014A195B09BD
:1017D0006A0182E0C80ED11C1296BC901297139633
:1017E000AC91B5E0CB16D10440F0B282A383518313
:1017F0004083D9016D937C930AC00E5F1F4FC301D4
:10180000800F911FF90191838083EB2DFA2FE11452
:10181000F10431F0D7011396FC93EE93129744C074
:10182000F0939C03E0939B033FC08D919C91119793
:101830004817590708F4AC017D0112960D90BC9130
:10184000A02DB3CF8091990390919A0388159905A3
:10185000E1F446175707C8F48091200290912102C5
:10186000009741F48DB79EB7409124025091250214
:10187000841B950BE817F907C8F4F0939A03E093DB
:101880009903F901718360830FC0CB010E94510A53
:101890007C01009759F0A801BE010E946C0CCE019A
:1018A0000E94E60AC70104C0CE0102C080E090E0B9
:1018B000DF91CF911F910F91FF90EF90DF90CF902C
:1018C000BF90AF909F908F907F906F90089581E030
:1018D00090E0F8940C947C0CFB01DC0102C00190B8
:1018E0000D9241505040D8F70895FB01DC01019062
:1018F0000D920020E1F7089511E0C8E4D1E000E086
:1019000006C0802FFE010E94490A2196011DC9349C
:0C191000D10780E00807A9F7F894FFCF8A
:10191C00000004021F020400000004081F08040059
:10192C000E0F0909191B030000040E0E1F1F0400E3
:10193C0000009D03800000000000D50135059E01CC
:10194C007C0190011C0200000000CC02B702B00226
:10195C00AD02AA02A90200000000070535054D459D
:0A196C0047415A564F4E3234000036
:00000001FF
