:100000000C9485010C94B6010C94B6010C94B601C5
:100010000C94B6010C94B6010C94B6010C94B60184
:100020000C94B6010C94B6010C94B6010C94B60174
:100030000C94B6010C94B6010C94B6010C94B60164
:100040000C94B6010C94B6010C94B6010C94B60154
:100050000C94B6010C94B6010C94B6010C944906AC
:100060000C94B6010C94BD060C9493060C94B60146
:100070000C94B6010C94B6010C94B6010C94B60124
:100080000C94B6010C94B6010C94B6010C94B60114
:100090000C94B6010C94B6010C94B6010C94B60104
:1000A0000C94B6010C94B6010C94B6010C94B601F4
:1000B0000C94B6010C94B6010C94B6010C94B601E4
:1000C0000C94B6010C94B6010C94B6010C94B601D4
:1000D0000C94B6010C94B6010C94B6010C94B601C4
:1000E0000C94B60106020902F801FC01000240026C
:1000F0000D02110217021B021F02250229022D0206
:100100004002330237023B0248071A071C071E074A
:10011000200722072407260728072A072C072E076F
:10012000300732073407360738073A073C073E07DF
:1001300040074207440746070C9406020C94320716
:100140000C9429020C9436070C9446070C94B302C5
:100150000C943A070C9424070C942A070C9420075B
:100160000C9440020C942C070C94DD070C9417029D
:100170000C94F8010C9448070C940D020C9442075F
:100180000C9400020C941A070C9409020C9433028C
:100190000C943C070C9444070C9400030C94340713
:1001A0000C941E070C9430070C943B020C9425020F
:1001B0000C9426070C947E030C94F2020C943E07D8
:1001C0000C9437020C94FC010C946F040C941B02E9
:1001D0000C9428070C9437030C9438070C942207CE
:1001E0000C9440070C94440B0C94DE020C942D02EA
:1001F0000C9411020C941F020C942E070C941C07F3
:1002000000000A0B02090C0D0E0807030401000090
:1002100000000000000000000000000000000000DE
:10022000000000000000000000000000121110009B
:1002300000000000000000000000000000000000BE
:1002400000000000000000002200250028002B0014
:100250002E003100340002010000050108010B01ED
:1002600000002100240027002A002D003000330068
:1002700001010000040107010A0105050505070544
:1002800008080808020202020A0A08080404040412
:10029000010101010101010103030303030303033E
:1002A000040707070C0C0C0C0C0C0C0C02020202CD
:1002B00006060606060606060B0B0B0B0B0B0B0BB6
:1002C0000102102020080810204010204080020168
:1002D000020108040201010204081020408080404D
:1002E000201008040201800402018040201008044C
:1002F00002010804020101020408102040800102EA
:10030000040810204080DD07440B11241FBECFEFEE
:10031000D1E2DEBFCDBF00E00CBF23E0ACE8B2E02D
:1003200001C01D92A435B207E1F712E0A0E0B2E0EF
:10033000E6E9FBE100E00BBF02C007900D92AC388C
:10034000B107D9F711E0C4E8D1E000E006C0219779
:100350000109802FFE010E94860BC338D10780E07F
:100360000807A9F70E948F080C94B90D0C9400009F
:1003700090E0FC01E054FD4F2491FC01E658FD4F54
:100380008491882399F090E0880F991FFC01E05A2E
:10039000FD4FA591B491FC01EA5BFD4F85919491CD
:1003A0008FB7F894EC91E22BEC938FBF0895362F22
:1003B00090E0FC01E050FE4F4491FC01E054FD4F01
:1003C0002491FC01E658FD4F9491992309F46BC0E8
:1003D000442309F455C050E0FA013197E231F105A8
:1003E00008F04EC08827EE58FF4F8F4F0C94860BB5
:1003F000809180008F7707C0809180008F7D03C03F
:1004000080918000877F809380003AC084B58F7789
:1004100002C084B58F7D84BD33C08091B0008F77DA
:1004200003C08091B0008F7D8093B00029C080917F
:1004300090008F7707C0809190008F7D03C08091DE
:100440009000877F809390001BC08091A0008F77E1
:1004500007C08091A0008F7D03C08091A000877F9E
:100460008093A0000DC0809120018F7707C08091FC
:1004700020018F7D03C080912001877F8093200120
:10048000E92FF0E0EE0FFF1FEA5BFD4FA591B4915D
:100490008FB7F894EC91311103C020952E2301C041
:1004A0002E2B2C938FBF08953FB7F8948091910223
:1004B00090919202A0919302B091940226B5A89BCC
:1004C00005C02F3F19F00196A11DB11D3FBFBA2FE6
:1004D000A92F982F8827820F911DA11DB11DBC0146
:1004E000CD0142E0660F771F881F991F4A95D1F70B
:1004F00008958F929F92AF92BF92CF92DF92EF9228
:10050000FF926B017C010E9454024B015C01C114FB
:10051000D104E104F104F1F00E945402DC01CB01AA
:1005200088199909AA09BB09883E9340A105B1051C
:1005300070F321E0C21AD108E108F10888EE880EB4
:1005400083E0981EA11CB11CC114D104E104F10484
:1005500019F7DDCFFF90EF90DF90CF90BF90AF9075
:100560009F908F900895CF92DF92EF92FF920F931A
:100570001F93CF93DF936C017A018B01C0E0D0E031
:10058000CE15DF0589F0D8016D918D01D601ED9171
:10059000FC910190F081E02DC6011995892B11F491
:1005A0007E0102C02196ECCFC701DF91CF911F9150
:1005B0000F91FF90EF90DF90CF900895FC01918D07
:1005C000828D981761F0828DDF01A80FB11D5D96B5
:1005D0008C91928D9F5F9F73928F90E008958FEF23
:1005E0009FEF0895FC01918D828D981731F0828DD7
:1005F000E80FF11D858D90E008958FEF9FEF08952E
:10060000FC01918D228D892F90E0805C9F4F821B91
:1006100091098F739927089585E992E00E9400035C
:1006200021E0892B09F420E0822F0895FC01848DBC
:10063000DF01A80FB11DA35ABF4F2C91848D90E00C
:1006400001968F739927848FA689B7892C93A089E7
:10065000B1898C9180648C93938D848D981306C09E
:100660000288F389E02D80818F7D80830895EF9249
:10067000FF920F931F93CF93DF93EC0181E0888F5C
:100680009B8D8C8D981305C0E889F989808185FD43
:1006900024C0F62E0B8D10E00F5F1F4F0F73112734
:1006A000E02E8C8DE8120CC00FB607FCFACFE8895B
:1006B000F989808185FFF5CFCE010E941603F1CF25
:1006C0008B8DFE01E80FF11DE35AFF4FF0820B8F77
:1006D000EA89FB898081806207C0EE89FF89608397
:1006E000E889F98980818064808381E090E0DF91EE
:1006F000CF911F910F91FF90EF900895CF93DF93CB
:10070000EC01888D8823C9F0EA89FB89808185FD09
:1007100005C0A889B9898C9186FD0FC00FB607FC6A
:10072000F5CF808185FFF2CFA889B9898C9185FFAB
:10073000EDCFCE010E941603E7CFDF91CF91089550
:1007400080E090E0892B21F00E940C03811125C0EC
:1007500080E090E0892B41F080E090E0892B21F04F
:100760000E94000081111CC080E090E0892B41F0C4
:1007700080E090E0892B21F00E940000811113C0DD
:1007800080E090E0892BA1F080E090E0892B81F05F
:100790000E94000081110AC008950E940000D8CF75
:1007A0000E940000E1CF0E940000EACF0C940000FC
:1007B0000895CF93DF93EC0160E08E810E94D70112
:1007C00061E08E810E94D70160E08E810E94D70196
:1007D0008BE891E00197F1F7DF91CF910895CF92E7
:1007E000DF92EF92FF920F931F93CF93DF937C01E1
:1007F0006C0187E0C80ED11CC0E0D0E0062F10E0ED
:10080000B8010C2E02C0759567950A94E2F76170E5
:10081000F60181916F010E94D7012196C430D10564
:1008200079F7C701DF91CF911F910F91FF90EF9062
:10083000DF90CF900C94D903CF92DF92EF92FF928A
:100840000F931F93CF93DF93EC01F62E642F8C81CF
:100850000E94D7018D818F3F19F060E00E94D7017F
:100860008F850F2D10E084FF25C06E0187E0C80E34
:10087000D11CE12CF12CB8010E2C02C075956795A6
:100880000A94E2F76170F60181916F010E94D7012D
:10089000FFEFEF1AFF0A88E0E816F10461F7CE01D6
:1008A000DF91CF911F910F91FF90EF90DF90CF904C
:1008B0000C94D903B80184E0759567958A95E1F7A2
:1008C000CE010E94EF036F2DCE01DF91CF911F91DA
:1008D0000F91FF90EF90DF90CF900C94EF0341E0E9
:1008E0000E941C0481E090E0089540E00C941C04F8
:1008F000643008F063E090914B03691710F06FEFDC
:10090000690FE62FF0E0E85CFC4F9489682F690FCF
:10091000606888E393E00C947504EF92FF920F9364
:100920001F93CF93DF931F92CDB7DEB7162F87703B
:1009300028E0829FC0011124682F606488E393E05F
:1009400079830E947504E12E7981F72E8701085F73
:100950001F4FF70161917F0188E393E00E946F04CC
:10096000E016F106B1F70F90DF91CF911F910F9133
:10097000FF90EF90089561E00E9475048BE39FE182
:100980000197F1F70895EF92FF920F931F93CF9382
:10099000DF93EC01623018F08F8588608F876B8B56
:1009A0001C8A80E48D8B80E18E8B80E58F8B8C811F
:1009B0000E94B8018D818F3F11F00E94B8018E8195
:1009C0000E94B8017E0187E0E80EF11C00E010E013
:1009D0008F8584FD03C084E090E002C088E090E051
:1009E0000817190744F4F70181917F010E94B801AB
:1009F0000F5F1F4FEDCF8BE39DE00197F1F760E0B4
:100A00008C810E94D70160E08E810E94D7018D8188
:100A10008F3F19F060E00E94D7016F8564FD1DC013
:100A200063E0CE010E94EF030BE416E4C8010197D6
:100A3000F1F763E0CE010E94EF03C8010197F1F7DF
:100A400063E0CE010E94EF0383E592E00197F1F7A6
:100A500062E0CE010E94EF0316C06062CE010E94E8
:100A600075048BE496E40197F1F76F856062CE011F
:100A70000E94750483E592E00197F1F76F8560624B
:100A8000CE010E9475046F856062CE010E947504DC
:100A900084E0888B6CE0CE010E947504CE010E9438
:100AA000BB0482E0898B66E0CE01DF91CF911F917C
:100AB0000F91FF90EF900C9475046115710579F01A
:100AC000FB0101900020E9F73197AF01461B570B5E
:100AD000DC01ED91FC910280F381E02D199480E01E
:100AE00090E008954F925F926F927F92EF92FF9203
:100AF0000F931F93CF93DF93CDB7DEB7A1970FB6B8
:100B0000F894DEBF0FBECDBF7C01FA01CB0119A264
:100B1000223008F42AE08E010F5D1F4F422E512C27
:100B2000612C712CBF01A30192010E94640BF90199
:100B3000CA01015011096A3014F4605D01C0695C9A
:100B4000D8016C93232B242B252B61F7B801C70107
:100B50000E945D05A1960FB6F894DEBF0FBECDBF13
:100B6000DF91CF911F910F91FF90EF907F906F9049
:100B70005F904F900895CF92DF92EF92FF920F9384
:100B80001F93CF93DF93EC016A017B01E881F98128
:100B90000190F081E02D6DE219958C0144275527D5
:100BA000BA014C195D096E097F092AE0CE010E9445
:100BB0007205800F911FDF91CF911F910F91FF90D0
:100BC000EF90DF90CF9008950C945D051F93CF9325
:100BD000DF9380917B00877F80937B0080E480930C
:100BE0007C0080917A00806480937A0080917A0002
:100BF00086FDFCCFC091780080917900D0E0D82BA1
:100C0000C334D10594F0CD3DD1058CF0CC3881E0D2
:100C1000D8077CF0CA3582E0D8076CF011E0C936FD
:100C200083E0D8074CF010E007C015E005C014E0E1
:100C300003C013E001C012E0412F50E060E070E01B
:100C40002AE085E992E00E9472056FE472E085E98E
:100C500092E00E94E405AE010D2E000C660B770BAE
:100C6000D7FF05C085E992E00E94BB0505C02AE0D8
:100C700085E992E00E9472056AE572E085E992E0FA
:100C80000E945D05812FDF91CF911F9108950E94F1
:100C9000A40D1F920F920FB60F9211242F933F9322
:100CA0008F939F93AF93BF9380918D0290918E020B
:100CB000A0918F02B091900230918C0223E0230F1B
:100CC0002D3720F40196A11DB11D05C026E8230F84
:100CD0000296A11DB11D20938C0280938D029093EA
:100CE0008E02A0938F02B093900280919102909116
:100CF0009202A0919302B09194020196A11DB11DA0
:100D00008093910290939202A0939302B0939402E5
:100D1000BF91AF919F918F913F912F910F900FBEF7
:100D20000F901F9018951F920F920FB60F921124DB
:100D30000BB60F922F933F934F935F936F937F93D5
:100D40008F939F93AF93BF93EF93FF9385E992E0C7
:100D50000E941603FF91EF91BF91AF919F918F91E8
:100D60007F916F915F914F913F912F910F900BBEAB
:100D70000F900FBE0F901F9018951F920F920FB6F5
:100D80000F9211240BB60F922F938F939F93EF9393
:100D9000FF93E091A502F091A6028081E091AB0261
:100DA000F091AC0282FD12C090818091AE028F5F03
:100DB0008F732091AF02821751F0E091AE02F0E004
:100DC000EB56FD4F958F8093AE0201C08081FF915D
:100DD000EF919F918F912F910F900BBE0F900FBEAF
:100DE0000F901F901895AC01990F660B770B77FF4A
:100DF00004C088E393E00C94BB052AE088E393E009
:100E00000C947205CF92DF92EF92FF920F931F9393
:100E1000CF93DF938C016A017B01FC013197E831AC
:100E2000F10530F48827EC57FF4F8F4F0C94860B59
:100E3000EC0130C0C7E12DC0C8E12BC0C9E129C019
:100E4000CAE127C0CBE125C0CCE123C0CDE121C060
:100E5000CEE11FC0CFE11DC0C0E21BC0C1E219C07E
:100E6000C2E217C0C3E215C0C4E213C0C5E211C09C
:100E7000C6E20FC0C7E20DC0C8E20BC0C9E209C09C
:100E8000CAE207C0CBE205C0CCE203C0CDE201C09C
:100E9000C6E1D0E088E393E00E94BB0460E083E019
:100EA0000E94780462E572E088E393E00E94E40522
:100EB0002AE0B701A60188E393E00E94720566E488
:100EC00072E088E393E00E94E40561E082E00E9422
:100ED000780460E088E393E00E946F046FE472E0BE
:100EE00088E393E00E94E405C8010E94F3066AE4E7
:100EF00072E088E393E00E94E405CE010E94F306CD
:100F000060E08C2F0E94D701C701B6010E947902D0
:100F100061E08C2F0E94D70160ED77E080E090E0E7
:100F20000E947902DF91CF911F910F91FF90EF9076
:100F3000DF90CF900895CF92DF92EF92FF92CF9300
:100F4000DF93EC016A017B0188E393E00E94BB041C
:100F500060E080E00E94780460E088E393E00E9413
:100F60006F0460E082E00E947804CE010E94F306E4
:100F700060E084E00E94780461E572E088E393E039
:100F80000E94E40560E089E00E9478042AE0B7014D
:100F9000A60188E393E00E94720560E08EE00E9463
:100FA000780467E572E088E393E0DF91CF91FF90EA
:100FB000EF90DF90CF900C94E4051092980210927D
:100FC000970288EE93E0A0E0B0E0809399029093BE
:100FD0009A02A0939B02B0939C0282E392E09093CA
:100FE00096028093950285EC90E09093A202809304
:100FF000A10284EC90E09093A4028093A30280EC81
:1010000090E09093A6028093A50281EC90E09093EB
:10101000A8028093A70282EC90E09093AA028093AA
:10102000A90286EC90E09093AC028093AB02109200
:10103000AE021092AF021092B0021092B102109262
:101040003B0310923A0382E492E090933903809339
:10105000380388E080933C038FEF80933D0389E061
:1010600080933E0384E080933F0385E080934003B8
:1010700086E08093410387E080934203109243030C
:1010800010924403109245031092460310924703B6
:1010900061E088E393E00E94C3041092330310924E
:1010A00032031092350310923403109237031092DA
:1010B000360361E070E080E090E00E94BB0C009796
:1010C00089F090933303809332031092350310928A
:1010D00034032091360330913703232BC1F4FC01F4
:1010E000108215C08091320390913303009711F064
:1010F0000E94230C10923303109232031092370394
:101100001092360310923503109234030895109212
:101110003703109236036CE572E00C94B20D7894AC
:1011200084B5826084BD84B5816084BD85B58260EC
:1011300085BD85B5816085BD80916E00816080939D
:101140006E00109281008091810082608093810006
:101150008091810081608093810080918000816016
:10116000809380008091B10084608093B100809171
:10117000B00081608093B000809191008260809384
:101180009100809191008160809391008091900006
:101190008160809390008091A10082608093A10083
:1011A0008091A10081608093A1008091A000816066
:1011B0008093A00080912101826080932101809121
:1011C00021018160809321018091200181608093C1
:1011D000200180917A00846080937A0080917A0067
:1011E000826080937A0080917A00816080937A0097
:1011F00080917A00806880937A001092C100E0911B
:10120000A502F091A60282E08083E091A102F09114
:10121000A2021082E091A302F091A4028FEC8083DD
:101220001092AD02E091A902F091AA0286E08083BB
:10123000E091A702F091A802808180618083E09113
:10124000A702F091A802808188608083E091A702C4
:10125000F091A802808180688083E091A702F091DC
:10126000A80280818F7D808360E272E080E00E942E
:101270008D0468E172E081E00E948D0460E172E01B
:1012800082E00E948D0468E072E083E00E948D0499
:1012900060E072E084E00E948D0486E10E94B80163
:1012A00087E10E94B80188E10E94B80189E10E94AB
:1012B000B8018AE10E94B8018BE10E94B8018CE17B
:1012C0000E94B8018DE10E94B8018EE10E94B80130
:1012D0008FE10E94B80180E20E94B80181E20E9481
:1012E000B80182E20E94B80183E20E94B80184E260
:1012F0000E94B80185E20E94B80186E20E94B8010E
:1013000087E20E94B80188E20E94B80189E20E9447
:10131000B8018AE20E94B8018BE20E94B8018CE217
:101320000E94B8018DE20E94B80161E086E10E944E
:10133000D70161E087E10E94D70161E088E10E9466
:10134000D70161E089E10E94D70161E08AE10E9452
:10135000D70161E08BE10E94D70161E08CE10E943E
:10136000D70161E08DE10E94D70161E08EE10E942A
:10137000D70161E08FE10E94D70161E080E20E9425
:10138000D70161E081E20E94D70161E082E20E9420
:10139000D70161E083E20E94D70161E084E20E940C
:1013A000D70161E085E20E94D70161E086E20E94F8
:1013B000D70161E087E20E94D70161E088E20E94E4
:1013C000D70161E089E20E94D70161E08AE20E94D0
:1013D000D70161E08BE20E94D70161E08CE20E94BC
:1013E000D70161E08DE20E94D70162E088E393E0DB
:1013F0000E94C30488E393E00E94BB0488E393E067
:101400000E94BB046DE572E088E393E00E94E4056E
:1014100061E082E00E94780461E088E393E00E944A
:101420006F046BE672E088E393E00E94E40560EDF0
:1014300077E080E090E00E9479020E94E60581302A
:1014400009F00FC188E393E00E94BB0460E086E0EE
:101450000E94780467E772E088E393E00E94E40565
:1014600068EE73E080E090E00E9479024CE251E087
:1014700060E070E08CE090E00E949B0761E080E01B
:101480000E94780464E088E393E00E946F04712C6A
:101490006CE2C62EDD24D394E12CF12C0CE010E09C
:1014A000812C912C54018394C1E00E94E60588238D
:1014B00009F468C08130B1F4C13009F46EC0C330A2
:1014C00009F053C0AAE0B0E0A50194010E944A0BC4
:1014D0004B015C0185E688169104A104B10408F073
:1014E0006FC072C0823021F4C15009F477C04AC085
:1014F0008330D9F4C13009F450C0C23039F40150FE
:101500001109101611060CF456C053C0C33069F50A
:10151000C818D908EA08FB0809F056C05FE0C52ED4
:1015200057E2D52EE12CF12C4FC0843031F5C1307B
:10153000A1F1C23041F40F5F1F4F09311105DCF1F9
:1015400001E010E038C0C33081F4C80CD91CEA1C9B
:10155000FB1C80E1C81687E2D806E104F104A0F183
:10156000C12CD12C7601C3942FC0C430C1F4B70173
:10157000A601C8010E94020731C0853019F4CF5F6F
:10158000C53088F5C230B9F018F4C13071F02EC002
:10159000C330D1F0C43011F129C0D0E007C0C2304F
:1015A00051F0B8F4C13009F05FC0D1E0C1E0712C56
:1015B0001EC008E110E0D1E0C2E032E0732E17C097
:1015C000812C912C54018394D1E0C3E029E0722E48
:1015D0000EC0C330C9F3C43009F046C0D1E0C4E046
:1015E0009EE0792E04C0D1E0C0E001C0D1E0B70197
:1015F000A601C8010E949B0761E0872D0E94780424
:1016000064E088E393E00E946F04C33039F42AE079
:10161000B501A40188E393E00E94720566E970E0D9
:1016200080E090E00E947902D1113FCF88E393E0FF
:101630000E94BB0468EE73E080E090E00E947902B3
:1016400061E080E00E9478046CE772E088E393E058
:101650000E94E4056CED75E080E090E00E94790264
:10166000E5CF0E94A003E9CEB701A601C8010E9400
:101670009B0761E0872D0E94780464E088E393E093
:101680000E946F04D1E0CACF80913203909133035E
:101690000C94230C0E94550BA59F900DB49F900DA8
:1016A000A49F800D911D11240895A29FB001B39FA6
:1016B000C001A39F700D811D1124911DB29F700D5B
:1016C000811D1124911D0895A1E21A2EAA1BBB1B96
:1016D000FD010DC0AA1FBB1FEE1FFF1FA217B307FE
:1016E000E407F50720F0A21BB30BE40BF50B661F14
:1016F000771F881F991F1A9469F7609570958095D8
:1017000090959B01AC01BD01CF010895EE0FFF1F25
:10171000881F8BBF0790F691E02D1994CF93DF932C
:101720008230910510F482E090E0E0915203F09154
:10173000530320E030E0C0E0D0E0309711F1408169
:10174000518148175907C0F04817590761F4828141
:101750009381209719F09B838A832BC09093530326
:101760008093520326C02115310519F04217530703
:1017700018F49A01BE01DF01EF010280F381E02D30
:10178000DCCF2115310509F1281B390B2430310537
:1017900090F412968D919C9113976115710521F02B
:1017A000FB019383828304C090935303809352037D
:1017B000FD01329644C0FD01E20FF31F8193919326
:1017C000225031092D933C933AC02091500330911F
:1017D0005103232B41F420912A0230912B023093A4
:1017E00051032093500320912802309129022115A2
:1017F000310541F42DB73EB740912C0250912D0296
:10180000241B350BE0915003F0915103E217F307CD
:10181000A0F42E1B3F0B2817390778F0AC014E5F60
:101820005F4F2417350748F04E0F5F1F5093510349
:10183000409350038193919302C0E0E0F0E0CF0128
:10184000DF91CF9108950F931F93CF93DF9300976C
:1018500009F48CC0FC01329713821282009152036A
:10186000109153030115110581F420813181820FFC
:10187000931F20915003309151032817390779F5B0
:10188000F0935103E093500371C0D80140E050E061
:10189000AE17BF0750F412962D913C911397AD01EE
:1018A0002115310509F1D901F3CF9D01DA01338307
:1018B000228360817181860F971F8217930769F4D5
:1018C000EC0128813981260F371F2E5F3F4F31836E
:1018D00020838A819B8193838283452B29F4F09313
:1018E0005303E093520342C01396FC93EE93129776
:1018F000ED01499159919E01240F351FE217F3071D
:1019000071F480819181840F951F029611969C93AA
:101910008E938281938113969C938E931297E0E02D
:10192000F0E0D80112968D919C911397009719F0D1
:10193000F8018C01F6CF8D919C9198012E5F3F4F5D
:10194000820F931F209150033091510328173907BC
:1019500069F4309729F4109253031092520302C095
:10196000138212821093510300935003DF91CF91A1
:101970001F910F9108956F927F928F929F92AF92D5
:10198000BF92CF92DF92EF92FF920F931F93CF936C
:10199000DF93EC01009789F4CB01DF91CF911F9188
:1019A0000F91FF90EF90DF90CF90BF90AF909F90FE
:1019B0008F907F906F900C948E0BFC01E60FF71FB9
:1019C0009C0122503109E217F30708F4ACC0D90199
:1019D0000D911C91119706171707B0F005301105EE
:1019E00008F49FC0C80104978617970708F499C0A8
:1019F00002501109061B170B019311936D937C93F1
:101A0000CF010E94230C8DC05B01A01AB10A4C01CA
:101A1000800E911EA0915203B091530340E050E01C
:101A2000E12CF12C109709F44AC0A815B905D1F59D
:101A30006D907C901197630182E0C80ED11CCA148E
:101A4000DB0480F1A3014A195B096A0182E0C80E38
:101A5000D11C1296BC9012971396AC91B5E0CB16A0
:101A6000D10440F0B282A38351834083D9016D93A6
:101A70007C930AC00E5F1F4FC301800F911FF901B5
:101A800091838083EB2DFA2FE114F10431F0D7011B
:101A90001396FC93EE93129744C0F0935303E09394
:101AA00052033FC08D919C9111974817590708F434
:101AB000AC017D0112960D90BC91A02DB3CF809109
:101AC00050039091510388159905E1F44617570783
:101AD000C8F48091280290912902009741F48DB7B3
:101AE0009EB740912C0250912D02841B950BE81754
:101AF000F907C8F4F0935103E0935003F90171839F
:101B000060830FC0CB010E948E0B7C01009759F0BF
:101B1000A801BE010E94A90DCE010E94230CC7019D
:101B200004C0CE0102C080E090E0DF91CF911F9110
:101B30000F91FF90EF90DF90CF90BF90AF909F906C
:101B40008F907F906F90089581E090E0F8940C94CE
:101B5000B90DFB01DC0102C001900D9241505040D3
:101B6000D8F70895FB01DC0101900D920020E1F708
:101B7000089511E0C4E8D1E000E006C0802FFE0126
:101B80000E94860B2196011DC538D10780E0080709
:061B9000A9F7F894FFCF55
:101B9600040E1F00001F0E04000004021F020400B2
:101BA600000004081F0804000E0F0909191B030092
:101BB60000040E0E1F1F04000000540380000000E6
:101BC60000003703B3020003DE02F2027E030000C8
:101BD60000006F04B302206D7300202050494E2090
:101BE600002064656C20004F4B000D0A0020202069
:101BF6004D4547415A564F4E323400206D656C6F45
:101C0600646961455832004D454E55002052455392
:0C1C1600455420746F206578697400004C
:00000001FF
