:100000000C9491010C94C2010C94C2010C94C20195
:100010000C94C2010C94C2010C94C2010C94C20154
:100020000C94C2010C94C2010C94C2010C94C20144
:100030000C94C2010C94C2010C94C2010C94C20134
:100040000C94C2010C94C2010C94C2010C94C20124
:100050000C94C2010C94C2010C94C2010C9468036C
:100060000C94C2010C94DC030C94B2030C94C201F6
:100070000C94C2010C94C2010C94C2010C94C201F4
:100080000C94C2010C94C2010C94C2010C94C201E4
:100090000C94C2010C94C2010C94C2010C94120481
:1000A0000C94C2010C94C2010C94C2010C94C201C4
:1000B0000C94C2010C94C2010C94C2010C94C201B4
:1000C0000C94C2010C94C2010C94C2010C94C201A4
:1000D0000C94C2010C94C2010C94C2010C94C20194
:1000E0000C94C2011E06F005F205F405F605F805AC
:1000F000FA05FC05FE0500060206040606060806CB
:100100000A060C060E061006120614061606180637
:100110001A061C069407970786078A078E07CE07DC
:100120009B079F07A507A907AD07B307B707BB073D
:10013000CE07C107C507C9070C948F020C94F005C0
:100140000C9497070C9416060C94E00A0C94C907BB
:100150000C94F2050C94C1070C94C4010C94A507EF
:100160000C94B3070C9403020C9423030C94000624
:100170000C9418060C941C030C949F070C94CE0747
:100180000C942A030C94FE050C94AD070C941E06E7
:100190000C940A060C9420030C9408060C94EF01AE
:1001A0000C94BB070C9406060C94FA050C94A90752
:1001B0000C9404060C94FC050C9494070C941D03F9
:1001C0000C948E070C949B070C9411020C94F6056A
:1001D0000C9402060C9486070C9410060C94C50728
:1001E0000C94C4050C9412060C9414060C940C0682
:1001F0000C940E060C941C060C94B7070C943F0349
:100200000C9448020C948A070C94F8050C941A0676
:100210000C94E60A0C94F40500000A0B02090C0D7C
:100220000E080703040100000000000000000000A9
:1002300000000000000000000000000000000000BE
:10024000000000001211100000000000000000007B
:10025000000000000000000000000000000000009E
:100260002200250028002B002E003100340002015E
:100270000000050108010B010000210024002700F7
:100280002A002D00300033000101000004010701A5
:100290000A0105050505070508080808020202020B
:1002A0000A0A080804040404010101010101010112
:1002B0000303030303030303040707070C0C0C0CDD
:1002C0000C0C0C0C020202020606060606060606C6
:1002D0000B0B0B0B0B0B0B0B010210202008081053
:1002E00020401020408002010201080402010102A6
:1002F000040810204080804020100804020180047F
:1003000002018040201008040201080402010102D9
:100310000408102040800102040810204080E60AF2
:10032000E00A11241FBECFEFD1E2DEBFCDBF00E057
:100330000CBF23E0A0E7B2E001C01D92A33BB207CF
:10034000E1F712E0A0E0B2E0E2E2FCE100E00BBF86
:1003500002C007900D92A037B107D9F711E0C0E9AC
:10036000D1E000E006C021970109802FFE010E9424
:10037000CC0BCF38D10780E00807A9F70E94B60858
:100380000C94FF0D0C940000CF92DF92EF92FF923D
:100390000F931F93CF93DF936C017A018B01C0E021
:1003A000D0E0CE15DF0589F0D8016D918D01D60121
:1003B000ED91FC910190F081E02DC6011995892BFA
:1003C00011F47E0102C02196ECCFC701DF91CF91DD
:1003D0001F910F91FF90EF90DF90CF900895FC0157
:1003E000918D828D981761F0828DDF01A80FB11D6C
:1003F0005D968C91928D9F5F9F73928F90E0089590
:100400008FEF9FEF0895FC01918D828D981731F049
:10041000828DE80FF11D858D90E008958FEF9FEF9D
:100420000895FC01918D228D892F90E0805C9F4F73
:10043000821B91098F739927089588EE92E00E949C
:10044000110221E0892B09F420E0822F0895FC019C
:10045000848DDF01A80FB11DA35ABF4F2C91848D4D
:1004600090E001968F739927848FA689B7892C9382
:10047000A089B1898C9180648C93938D848D98131D
:1004800006C00288F389E02D80818F7D80830895E6
:10049000EF92FF920F931F93CF93DF93EC0181E0D4
:1004A000888F9B8D8C8D981305C0E889F989808190
:1004B00085FD24C0F62E0B8D10E00F5F1F4F0F73CC
:1004C0001127E02E8C8DE8120CC00FB607FCFACF76
:1004D000E889F989808185FFF5CFCE010E94270246
:1004E000F1CF8B8DFE01E80FF11DE35AFF4FF08233
:1004F0000B8FEA89FB898081806207C0EE89FF89C2
:100500006083E889F98980818064808381E090E05C
:10051000DF91CF911F910F91FF90EF900895CF93AE
:10052000DF93EC01888D8823C9F0EA89FB898081FB
:1005300085FD05C0A889B9898C9186FD0FC00FB6CD
:1005400007FCF5CF808185FFF2CFA889B9898C910E
:1005500085FFEDCFCE010E942702E7CFDF91CF913B
:10056000089580E090E0892B21F00E941D02811106
:1005700025C080E090E0892B41F080E090E0892B5D
:1005800021F00E94000081111CC080E090E0892BC6
:1005900041F080E090E0892B21F00E940000811161
:1005A00013C080E090E0892BA1F080E090E0892BDF
:1005B00081F00E94000081110AC008950E9400008D
:1005C000D8CF0E940000E1CF0E940000EACF0C9437
:1005D0000000089585ED8093BC008091BC0084FDEF
:1005E000FCCF1092B902089540919302262F30E07B
:1005F000240F311D21323105DCF42091B902243061
:10060000C9F4FC0180E090E0861758F43091930221
:100610002191DC01AF58BD4FA30FB11D2C93019662
:10062000F3CF80919302680F6093930280E0089566
:1006300081E0089582E0089508958FEF9FEF089577
:100640008FEF9FEF08958091700290E091958195D2
:1006500091090895CF93DF931F921F92CDB7DEB714
:10066000CB01642F49835A830E94F4024981842F6D
:100670005A81952F0F900F90DF91CF910895CF93CE
:10068000DF931F92CDB7DEB7698361E0CE0101969B
:100690000E94F40281E090E00F90DF91CF910895E5
:1006A000CF93DF93EC0160E08E810E94650761E0EB
:1006B0008E810E94650760E08E810E9465078BE84D
:1006C00091E00197F1F7DF91CF9108950E94EA0D33
:1006D0001F920F920FB60F9211242F933F938F9377
:1006E0009F93AF93BF938091E0029091E102A0911C
:1006F000E202B091E3023091DF0223E0230F2D37B5
:1007000020F40196A11DB11D05C026E8230F029615
:10071000A11DB11D2093DF028093E0029093E102BE
:10072000A093E202B093E3028091E4029091E5028B
:10073000A091E602B091E7020196A11DB11D809340
:10074000E4029093E502A093E602B093E702BF9122
:10075000AF919F918F913F912F910F900FBE0F906E
:100760001F9018951F920F920FB60F9211240BB67F
:100770000F922F933F934F935F936F937F938F933A
:100780009F93AF93BF93EF93FF9388EE92E00E9405
:100790002702FF91EF91BF91AF919F918F917F9130
:1007A0006F915F914F913F912F910F900BBE0F90E2
:1007B0000FBE0F901F9018951F920F920FB60F92B9
:1007C00011240BB60F922F938F939F93EF93FF9368
:1007D000E091F802F091F9028081E091FE02F0913F
:1007E000FF0282FD12C09081809101038F5F8F73A1
:1007F00020910203821751F0E0910103F0E0E851EB
:10080000FD4F958F8093010301C08081FF91EF918F
:100810009F918F912F910F900BBE0F900FBE0F9055
:100820001F9018951F920F920FB60F9211240BB6BE
:100830000F922F933F934F935F936F937F938F9379
:100840009F93AF93BF93EF93FF938091B900887FFD
:10085000803609F49CC068F5883209F45BC090F4D6
:10086000803109F454C038F4882309F4F6C0883084
:1008700009F44DC0F6C0883109F44CC0803209F447
:100880005DC0EFC0803409F468C048F4803309F4D7
:1008900055C0883309F0E5C08093B802D8C08035D0
:1008A00009F44FC0883509F45DC0883409F0D9C017
:1008B000D6C0883909F4C7C0A8F4883709F467C0DE
:1008C00038F4883609F463C0803709F460C0C9C0C1
:1008D000883809F4B8C0803909F45FC0803809F05D
:1008E000C0C05BC0803B09F486C038F4803A09F48C
:1008F00066C0883A09F47FC0B4C0803C09F4A7C040
:10090000883C09F4A4C0883B09F48AC0AAC080913D
:10091000DE0210C09091DD028091DC02981770F524
:10092000E091DD0281E08E0F8093DD02F0E0E4547F
:10093000FD4F80818093BB0085EC86C08093B80218
:100940008EC0E091DD0281E08E0F8093DD02809108
:10095000BB00F0E0E454FD4F80839091DD02809174
:10096000DC026EC0E091DD0281E08E0F8093DD023B
:100970008091BB00F0E0E454FD4F80838091BB0286
:1009800081116DC081E08093BA0284EA61C083E086
:100990008093B9021092B702CFCF8091B702803214
:1009A00008F051C0E091B70281E08E0F8093B7024A
:1009B0008091BB00F0E0E956FD4F8083BDCF85EC10
:1009C0008093BC001092B9028091B702803230F45B
:1009D000E091B702F0E0E956FD4F10826091B70256
:1009E00070E0E0919502F091960287E992E0199506
:1009F0001092B70236C084E08093B902109294023C
:100A000010929302E0919102F091920219958091D7
:100A10009302811105C081E08093930210927102CC
:100A2000E091940281E08E0F80939402F0E0EF5801
:100A3000FD4F80818093BB0090919402809193023E
:100A4000981708F479CF85E88093BC000AC085EC3C
:100A50008093BC001092B90204C01092B8020E94A8
:100A6000EA02FF91EF91BF91AF919F918F917F919A
:100A70006F915F914F913F912F910F900BBE0F900F
:100A80000FBE0F901F901895CF92DF92EF92FF92BA
:100A90000F931F93CF93DF937C016C0187E0C80E07
:100AA000D11CC0E0D0E0062F10E0B8010C2E02C02F
:100AB000759567950A94E2F76170F60181916F016F
:100AC0000E9465072196C430D10579F7C701DF91EF
:100AD000CF911F910F91FF90EF90DF90CF900C94EA
:100AE0005003CF92DF92EF92FF920F931F93CF9319
:100AF000DF93EC01F62E642F8C810E9465078D81B7
:100B00008F3F19F060E00E9465078F850F2D10E080
:100B100084FF25C06E0187E0C80ED11CE12CF12CAA
:100B2000B8010E2C02C0759567950A94E2F76170C2
:100B3000F60181916F010E946507FFEFEF1AFF0A2E
:100B400088E0E816F10461F7CE01DF91CF911F91A3
:100B50000F91FF90EF90DF90CF900C945003B8016D
:100B600084E0759567958A95E1F7CE010E9444056A
:100B70006F2DCE01DF91CF911F910F91FF90EF90DC
:100B8000DF90CF900C94440541E00E94710581E014
:100B900090E0089540E00C94710561E00E94CA0560
:100BA0008BE39FE10197F1F708958F929F92AF92A7
:100BB000BF92EF92FF920F931F93CF93DF938C011D
:100BC0004A015B017901FC013197E831F10530F40C
:100BD0008827EE58FF4F8F4F0C94CC0BEC0130C0A0
:100BE000C7E12DC0C8E12BC0C9E129C0CAE127C0B7
:100BF000CBE125C0CCE123C0CDE121C0CEE11FC0B7
:100C0000CFE11DC0C0E21BC0C1E219C0C2E217C0E3
:100C1000C3E215C0C4E213C0C5E211C0C6E20FC0F2
:100C2000C7E20DC0C8E20BC0C9E209C0CAE207C0F2
:100C3000CBE205C0CCE203C0CDE201C0C6E1D0E00A
:100C40008BE893E00E94CD050E94260760E08BE8C8
:100C500093E00E94C40583E592E00E949906C801D2
:100C60000E94AB068EE492E00E949906CE010E949B
:100C7000AB0660E08C2F0E946507C501B4010E949D
:100C80007C0861E08C2F0E946507B70180E090E04E
:100C90000E947C08DF91CF911F910F91FF90EF9000
:100CA000BF90AF909F908F9008953FB7F894809138
:100CB000E4029091E502A091E602B091E70226B528
:100CC000A89B05C02F3F19F00196A11DB11D3FBF84
:100CD000BA2FA92F982F8827820F911DA11DB11D12
:100CE000BC01CD0142E0660F771F881F991F4A950E
:100CF000D1F7089590E0FC01E852FD4F2491FC01EA
:100D0000EE56FD4F8491882399F090E0880F991F4B
:100D1000FC01E858FD4FA591B491FC01E25AFD4F4A
:100D2000859194918FB7F894EC91E22BEC938FBF5F
:100D30000895009769F0FC0101900020E9F73197D0
:100D4000AF01481B590BBC018BE893E00C94C40124
:100D500080E090E008958F929F92AF92BF92CF92E1
:100D6000DF92EF92FF920F931F93CF93DF93CDB754
:100D7000DEB7A1970FB6F894DEBF0FBECDBF6C01F2
:100D8000990FEE08FF08F7FE31C0E0918B03F09158
:100D90008C030190F081E02D6DE28BE893E01995D2
:100DA0008C0122273327A9012C193D094E095F091F
:100DB00019A2CE0181967C019AE0892E912CA12C5A
:100DC000B12CCA01B901A50194010E94AA0B605D72
:100DD000F70162937F01211531054105510589F71E
:100DE000CF010E949906800F911F1DC0A701960197
:100DF00019A28E010F5D1F4F8AE0C82ED12CE12C65
:100E0000F12CCA01B901A70196010E94AA0B605DED
:100E1000F80162938F01211531054105510589F7CC
:100E2000CF010E949906A1960FB6F894DEBF0FBEBF
:100E3000CDBFDF91CF911F910F91FF90EF90DF9089
:100E4000CF90BF90AF909F908F900895E0919E03B8
:100E5000E23010F4E15001C0E1E0F0E0E557FC4F72
:100E600064896E5F60688BE893E00C94CA05EF922A
:100E7000FF920F931F93CF93DF931F92CDB7DEB7EF
:100E8000162F877028E0829FC0011124682F6064AC
:100E90008BE893E079830E94CA05E12E7981F72ED1
:100EA0008701085F1F4FF70161917F018BE893E095
:100EB0000E94C405E016F106B1F70F90DF91CF91C3
:100EC0001F910F91FF90EF900895362F90E0FC0155
:100ED000E85EFD4F4491FC01E852FD4F2491FC0176
:100EE000EE56FD4F9491992309F46BC0442309F405
:100EF00055C050E0FA013197E231F10508F04EC0DB
:100F00008827E657FF4F8F4F0C94CC0B80918000C1
:100F10008F7707C0809180008F7D03C08091800013
:100F2000877F809380003AC084B58F7702C084B5F4
:100F30008F7D84BD33C08091B0008F7703C08091D6
:100F4000B0008F7D8093B00029C0809190008F7792
:100F500007C0809190008F7D03C080919000877FB3
:100F6000809390001BC08091A0008F7707C0809174
:100F7000A0008F7D03C08091A000877F8093A00098
:100F80000DC0809120018F7707C0809120018F7D57
:100F900003C080912001877F80932001E92FF0E03A
:100FA000EE0FFF1FE25AFD4FA591B4918FB7F89451
:100FB000EC91311103C020952E2301C02E2B2C93D0
:100FC0008FBF0895EF92FF920F931F93CF93DF93FC
:100FD000EC01623018F08F8588608F876B8B1C8ADC
:100FE00080E48D8B80E18E8B80E58F8B8C810E94DD
:100FF0007A068D818F3F11F00E947A068E810E94C1
:101000007A067E0187E0E80EF11C00E010E08F8593
:1010100084FD03C084E090E002C088E090E00817FF
:10102000190744F4F70181917F010E947A060F5F4E
:101030001F4FEDCF8BE39DE00197F1F760E08C81CE
:101040000E94650760E08E810E9465078D818F3F59
:1010500019F060E00E9465076F8564FD1DC063E0C4
:10106000CE010E9444050BE416E4C8010197F1F794
:1010700063E0CE010E944405C8010197F1F763E0E7
:10108000CE010E94440583E592E00197F1F762E00A
:10109000CE010E94440516C06062CE010E94CA05BE
:1010A0008BE496E40197F1F76F856062CE010E94B0
:1010B000CA0583E592E00197F1F76F856062CE0182
:1010C0000E94CA056F856062CE010E94CA0584E055
:1010D000888B6CE0CE010E94CA05CE010E94CD052E
:1010E00082E0898B66E0CE01DF91CF911F910F9155
:1010F000FF90EF900C94CA058F929F92AF92BF928F
:10110000CF92DF92EF92FF926B017C010E94550615
:101110004B015C01C114D104E104F104F1F00E941F
:101120005506DC01CB0188199909AA09BB09883E3B
:101130009340A105B10570F321E0C21AD108E1087E
:10114000F10888EE880E83E0981EA11CB11CC11422
:10115000D104E104F10419F7DDCFFF90EF90DF90A7
:10116000CF90BF90AF909F908F900895789484B562
:10117000826084BD84B5816084BD85B5826085BD93
:1011800085B5816085BD80916E00816080936E0021
:101190001092810080918100826080938100809113
:1011A00081008160809381008091800081608093C4
:1011B00080008091B10084608093B1008091B00084
:1011C00081608093B0008091910082608093910053
:1011D0008091910081608093910080919000816066
:1011E000809390008091A10082608093A100809103
:1011F000A10081608093A1008091A0008160809314
:10120000A0008091210182608093210180912101C1
:101210008160809321018091200181608093200171
:1012200080917A00846080937A0080917A00826055
:1012300080937A0080917A00816080937A00809117
:101240007A00806880937A001092C1008DE00E943D
:101250007A06E091F802F091F90282E08083E09151
:10126000F402F091F5021082E091F602F091F7029B
:101270008FEC808310920003E091FC02F091FD025C
:1012800086E08083E091FA02F091FB028081806128
:101290008083E091FA02F091FB0280818860808374
:1012A000E091FA02F091FB02808180688083E091F6
:1012B000FA02F091FB0280818F7D808368E172E009
:1012C00080E00E94370760E172E081E00E9437070A
:1012D00068E072E082E00E94370760E072E083E03D
:1012E0000E94370786E10E947A0687E10E947A060B
:1012F00088E10E947A0689E10E947A068AE10E94CA
:101300007A068BE10E947A068CE10E947A068DE1D2
:101310000E947A068EE10E947A068FE10E947A0688
:1013200080E20E947A0681E20E947A0682E20E94AE
:101330007A0683E20E947A0684E20E947A0685E2B7
:101340000E947A0686E20E947A0687E20E947A0666
:1013500088E20E947A0689E20E947A068AE20E9466
:101360007A068BE20E947A068CE20E947A068DE26F
:101370000E947A0661E086E10E94650761E087E1EC
:101380000E94650761E088E10E94650761E089E1EC
:101390000E94650761E08AE10E94650761E08BE1D8
:1013A0000E94650761E08CE10E94650761E08DE1C4
:1013B0000E94650761E08EE10E94650761E08FE1B0
:1013C0000E94650761E080E20E94650761E081E2BA
:1013D0000E94650761E082E20E94650761E083E2A6
:1013E0000E94650761E084E20E94650761E085E292
:1013F0000E94650761E086E20E94650761E087E27E
:101400000E94650761E088E20E94650761E089E269
:101410000E94650761E08AE20E94650761E08BE255
:101420000E94650761E08CE20E94650761E08DE241
:101430000E94650762E08BE893E00E94E2078BE878
:1014400093E00E94CD0585E592E00E9499060E94F6
:10145000260761E08BE893E00E94C40583E692E0F2
:101460000E94990660ED77E080E090E00E947C08A1
:1014700060E089E10E94650760E08AE10E946507FB
:101480006CE271E080E090E00E947C0861E089E11C
:101490000E94650761E08AE10E94650760ED77E0E0
:1014A00080E090E00E947C0860E086E10E94650791
:1014B00060E087E10E94650760E088E10E946507BF
:1014C0006CE271E080E090E00E947C0861E086E1DF
:1014D0000E94650761E087E10E94650761E088E19D
:1014E0000E94650760ED77E080E090E00E947C0854
:1014F00024EF31E04CE251E060E070E081E090E008
:101500000E94D50524EF31E04CE251E060E070E04C
:1015100082E090E00E94D50524EF31E04CE251E0FA
:1015200060E070E083E090E00E94D50524E833E0BD
:101530004CE251E060E070E084E090E00E94D5056C
:1015400020E931E04CE251E060E070E085E090E0BD
:101550000E94D50520E931E04CE251E060E070E006
:1015600086E090E00E94D50520E931E04CE251E0B0
:1015700060E070E087E090E00E94D50520E931E06E
:101580004CE251E060E070E088E090E00E94D50518
:101590008BE893E00E94CD050E94260761E08BE86E
:1015A00093E00E94C40583E692E00E94990668EEEB
:1015B00073E080E090E00E947C080E94B10258CF66
:1015C00080918503909186030C94690C1092EB0234
:1015D0001092EA0288EE93E0A0E0B0E08093EC0283
:1015E0009093ED02A093EE02B093EF022AE232E074
:1015F0003093E9022093E80225EC30E03093F502C5
:101600002093F40224EC30E03093F7022093F602AA
:1016100020EC30E03093F9022093F80221EC30E026
:101620003093FB022093FA0222EC30E03093FD026B
:101630002093FC0226EC30E03093FF022093FE0260
:1016400010920103109202031092030310920403FC
:101650001092A6031092A5038093A7039093A8036A
:10166000A093A903B093AA038AE392E09093A40302
:101670008093A30310928E0310928D038AE492E06C
:1016800090938C0380938B0388E080938F038FEF7C
:101690008093900389E08093910384E08093920388
:1016A00085E08093930386E08093940387E08093A2
:1016B000950310929603109297031092980310923C
:1016C000990310929A0361E08BE893E00E94E2078D
:1016D000109286031092850310928803109287035C
:1016E00010928A031092890361E070E080E090E03C
:1016F0000E94010D009789F09093860380938503E3
:1017000010928803109287032091890330918A03F5
:10171000232BC1F4FC01108215C0809185039091A8
:101720008603009711F00E94690C109286031092B4
:10173000850310928A0310928903109288031092F5
:101740008703089510928A031092890364E572E07A
:101750000C94F80DA1E21A2EAA1BBB1BFD010DC0B3
:10176000AA1FBB1FEE1FFF1FA217B307E407F50751
:1017700020F0A21BB30BE40BF50B661F771F881F2D
:10178000991F1A9469F760957095809590959B01C3
:10179000AC01BD01CF010895EE0FFF1F881F8BBF65
:1017A0000790F691E02D1994CF93DF938230910545
:1017B00010F482E090E0E091B103F091B20320E0F8
:1017C00030E0C0E0D0E0309711F1408151814817FE
:1017D0005907C0F04817590761F482819381209717
:1017E00019F09B838A832BC09093B2038093B1033B
:1017F00026C02115310519F04217530718F49A0134
:10180000BE01DF01EF010280F381E02DDCCF211565
:10181000310509F1281B390B2430310590F412965B
:101820008D919C9113976115710521F0FB019383B4
:10183000828304C09093B2038093B103FD0132967A
:1018400044C0FD01E20FF31F8193919322503109AF
:101850002D933C933AC02091AF033091B003232BDA
:1018600041F420912202309123023093B00320935F
:10187000AF0320912002309121022115310541F45E
:101880002DB73EB74091240250912502241B350B01
:10189000E091AF03F091B003E217F307A0F42E1B21
:1018A0003F0B2817390778F0AC014E5F5F4F2417C4
:1018B000350748F04E0F5F1F5093B0034093AF03BE
:1018C0008193919302C0E0E0F0E0CF01DF91CF91EE
:1018D00008950F931F93CF93DF93009709F48CC063
:1018E000FC013297138212820091B1031091B2036E
:1018F0000115110581F420813181820F931F209100
:10190000AF033091B0032817390779F5F093B0038E
:10191000E093AF0371C0D80140E050E0AE17BF07BD
:1019200050F412962D913C911397AD01211531057C
:1019300009F1D901F3CF9D01DA013383228360815C
:101940007181860F971F8217930769F4EC01288134
:101950003981260F371F2E5F3F4F318320838A81C5
:101960009B8193838283452B29F4F093B203E09308
:10197000B10342C01396FC93EE931297ED01499187
:1019800059919E01240F351FE217F30771F48081EE
:101990009181840F951F029611969C938E9382815C
:1019A000938113969C938E931297E0E0F0E0D80118
:1019B00012968D919C911397009719F0F8018C0164
:1019C000F6CF8D919C9198012E5F3F4F820F931F10
:1019D0002091AF033091B0032817390769F430978D
:1019E00029F41092B2031092B10302C01382128242
:1019F0001093B0030093AF03DF91CF911F910F912C
:101A000008956F927F928F929F92AF92BF92CF92E2
:101A1000DF92EF92FF920F931F93CF93DF93EC012E
:101A2000009789F4CB01DF91CF911F910F91FF9027
:101A3000EF90DF90CF90BF90AF909F908F907F906E
:101A40006F900C94D40BFC01E60FF71F9C01225001
:101A50003109E217F30708F4ACC0D9010D911C91CC
:101A6000119706171707B0F00530110508F49FC04D
:101A7000C80104978617970708F499C00250110906
:101A8000061B170B019311936D937C93CF010E945A
:101A9000690C8DC05B01A01AB10A4C01800E911E29
:101AA000A091B103B091B20340E050E0E12CF12CE1
:101AB000109709F44AC0A815B905D1F56D907C902E
:101AC0001197630182E0C80ED11CCA14DB0480F1B7
:101AD000A3014A195B096A0182E0C80ED11C129663
:101AE000BC9012971396AC91B5E0CB16D10440F0A0
:101AF000B282A38351834083D9016D937C930AC042
:101B00000E5F1F4FC301800F911FF90191838083E6
:101B1000EB2DFA2FE114F10431F0D7011396FC9369
:101B2000EE93129744C0F093B203E093B1033FC029
:101B30008D919C9111974817590708F4AC017D01CC
:101B400012960D90BC91A02DB3CF8091AF039091D0
:101B5000B00388159905E1F446175707C8F480913A
:101B6000200290912102009741F48DB79EB74091D9
:101B7000240250912502841B950BE817F907C8F43D
:101B8000F093B003E093AF03F901718360830FC05A
:101B9000CB010E94D40B7C01009759F0A801BE0133
:101BA0000E94EF0DCE010E94690CC70104C0CE0156
:101BB00002C080E090E0DF91CF911F910F91FF90E4
:101BC000EF90DF90CF90BF90AF909F908F907F90DD
:101BD0006F90089581E090E0F8940C94FF0DFB0164
:101BE000DC0102C001900D9241505040D8F7089599
:101BF000FB01DC0101900D920020E1F7089511E056
:101C0000C0E9D1E000E006C0802FFE010E94CC0BAD
:101C10002196011DC139D10780E00807A9F7F89482
:021C2000FFCFF4
:101C2200000004021F020400000004081F08040050
:101C32000E0F0909191B030000040E0E1F1F0400DA
:101C42000000B3038000000000004802C40111023A
:101C5200EF0103028F02000000003F032A03230367
:101C620020031D031C0300000000C405C401202042
:101C720050494E20002020204D4547415A564F4E94
:101C8200323400206D656C6F646961455832000022
:00000001FF
