:100000000C945A030C948B030C948B030C948B0369
:100010000C948B030C948B030C948B030C948B0328
:100020000C948B030C948B030C948B030C948B0318
:100030000C948B030C948B030C948B030C948B0308
:100040000C948B030C948B030C948B030C948B03F8
:100050000C948B030C948B030C948B030C9459130A
:100060000C948B030C94DB050C94B1050C948B035E
:100070000C948B030C948B030C948B030C948B03C8
:100080000C948B030C948B030C948B030C948B03B8
:100090000C948B030C948B030C948B030C9411061F
:1000A0000C948B030C948B030C948B030C948B0398
:1000B0000C948B030C948B030C948B030C948B0388
:1000C0000C948B030C948B030C948B030C948B0378
:1000D0000C948B030C948B030C948B030C948B0368
:1000E0000C948B0396055105540557055A055D057B
:1000F00060056305660569056C056F057205750584
:1001000078057B057E058105840587058A058D05B3
:10011000900593051F0A280A310A3A0A430A4C0A35
:10012000550A5E0A670A700A790A820A8B0A940ADB
:100130009D0AA60AAF0AB80AC10ACA0AD30ADC0A8B
:10014000E50AEE0AC118CE18DB18E818F5180219EE
:100150000F191C1929193619431950195D196A19F3
:100160007719841991199E19AB19B819C519D219A3
:10017000DF19EC191D1A321A471A5C1A711A861AFD
:100180009B1AB01AC51ADA1AEF1A041B191B2E1B78
:10019000431B581B6D1B821B971BAC1BC11BD61B23
:1001A000EB1B001C970FF70FF70FED0EF70F330F38
:1001B0007A0F770FF70FF70FF70F710F460FFC0E3F
:1001C000F70FF70FF70FF70F160FF70FCC0FF70F0B
:1001D000F70FF70F690FF70FF70FF70FF70FF70F7D
:1001E000F70FF70F9F0FF70FF70FD80EF70FF70F57
:1001F000880F7D0FAB0FDB0EF70FDE0E2D0F300FCC
:10020000F70FF70FF70FF70FB10F5B0FF70FF70FA0
:10021000FF0EF70F6C0F070FD112D412C312C712C3
:10022000CB120B13D812DC12E212E612EA12F01211
:10023000F412F8120B13FE12021306130C946F053E
:100240000C94DB0E0C9402190C94AB190C94FE1256
:100250000C9484050C94EC190C94D80E0C94CA04DC
:100260000C94AF030C94C11B0C94AF0A0C94C519E9
:100270000C94EF1A0C947B050C94711A0C94DE0EFE
:100280000C94BA040C94F4120C9460050C94570569
:100290000C949F0F0C9416050C94861A0C94B01AAB
:1002A0000C94880F0C941F0A0C9493050C94DF197E
:1002B0000C94310A0C9478050C947E050C94550A24
:1002C0000C94D8120C94DC0A0C9463050C947719E6
:1002D0000C94B80A0C94DE040C94EB1B0C94FF0EE7
:1002E0000C94D4120C941C190C94DA1A0C94E50A90
:1002F0000C94B10F0C94821B0C948D030C94DB1C9A
:100300000C947A0F0C94430A0C94321A0C949D0AA4
:100310000C94CE180C94F8120C945D190C94C3072D
:100320000C94690F0C942D0F0C94C7120C94540567
:100330000C94EA120C945A050C9469050C94C1189B
:100340000C94280A0C9402130C94460F0C9429194F
:100350000C94A1110C94820A0C946D1B0C94431BF9
:100360000C94330F0C942E1B0C945D050C94160FFB
:100370000C946A190C94F0120C94F5180C94C51A8C
:100380000C944C0A0C94F70F0C94E6040C94C10ADC
:100390000C9472050C94E8180C94B8190C948D0503
:1003A0000C94EE0A0C940B130C9466050C949005B7
:1003B0000C94FC0E0C94C3120C9443190C94670A11
:1003C0000C949E190C948B0A0C94191B0C94940A8F
:1003D0000C949B1A0C947D0F0C94CA0A0C94D61B97
:1003E0000C9496050C94581B0C94790A0C945B0F92
:1003F0000C94971B0C94041B0C94A1030C94D2191D
:100400000C9481050C94770F0C9475050C9491193C
:100410000C943A0A0C94E6030C94AB0F0C9404145D
:100420000C945E0A0C94E6120C94E2120C94D11215
:100430000C9484190C948A050C94970F0C94001C4E
:100440000C94CC0F0C94DB180C9487050C94CB12F5
:100450000C9436190C94ED0E0C94BB040C945105BD
:100460000C9450190C94D30A0C942D040C9406137C
:100470000C946C0F0C94AC1B0C94DC120C94471A6B
:100480000C946C050C945C1A0C94300F0C94700A4C
:100490000C94710F0C940F190C94070F0C94A60A6E
:1004A0000C941D1A00407A10F35A00A0724E1809DD
:1004B0000010A5D4E80000E87648170000E40B54CB
:1004C000020000CA9A3B000000E1F505000080969A
:1004D0009800000040420F000000A08601000000CC
:1004E000102700000000E803000000006400000086
:1004F00000000A00000000000100000000002C764F
:10050000D888DC674F0823DFC1DFAE59E1B1B79669
:10051000E5E3E453C63AE651997696E8E6C28426C6
:10052000EB898C9B62ED407C6FFCEFBC9C9F40F2A2
:10053000BAA56FA5F490055A2AF75C936B6CF9671E
:100540006DC11BFCE0E40D47FEF520E6B500D0EDE3
:10055000902E0300943577050080841E080000204B
:100560004E0A000000C80C333333330F986E1283E9
:100570001141EF8D2114893BE65516CFFEE6DB18BD
:10058000D1844B381BF77C1D901DA4BBE424203282
:1005900084725E228100C9F124ECA1E53D271F1C75
:1005A0001F1E1F1E1F1F1E1F1E1F000022002500D2
:1005B00028002B002E00310034000201000005014C
:1005C00008010B0100002100240027002A002D0053
:1005D0003000330001010000040107010A01050594
:1005E0000505070508080808020202020A0A0808A9
:1005F00004040404010101010101010103030303D7
:1006000003030303040707070C0C0C0C0C0C0C0C65
:100610000202020206060606060606060B0B0B0B76
:100620000B0B0B0B0102102020080810204010209B
:1006300040800201020108040201010204081020A6
:1006400040808040201008040201800402018040A4
:10065000201008040201080402010102040810200D
:100660004080010204081020408000000A0B0209AB
:100670000C0D0E080703040100000000000000003C
:10068000000000000000000000000000000000006A
:100690000000000000001211100000000000000027
:1006A000000000000000000000000000000000004A
:1006B000DB1C041411241FBECFEFD1E2DEBFCDBF7F
:1006C00000E00CBF25E0A8EAB3E001C01D92AE3BFC
:1006D000B207E1F713E0A0E0B2E0ECE1FDE400E0F6
:1006E0000BBF02C007900D92A83AB107D9F713E0EB
:1006F000C9E5D3E000E006C021970109802FFE0183
:100700000E944321C835D10780E00807A9F70E945D
:1007100010140C947C260C940000FC01918D828DA9
:10072000981761F0828DDF01A80FB11D5D968C9145
:10073000928D9F5F9F73928F90E008958FEF9FEF50
:100740000895FC01918D828D981731F0828DE80F0C
:10075000F11D858D90E008958FEF9FEF0895FC01C6
:10076000918D228D892F90E0805C9F4F821B910993
:100770008F73992708958CED94E00E94AF0321E0D8
:10078000892B09F420E0822F0895FC01848DDF017C
:10079000A80FB11DA35ABF4F2C91848D90E00196F4
:1007A0008F739927848FA689B7892C93A089B189E3
:1007B0008C9180648C93938D848D981306C00288ED
:1007C000F389E02D80818F7D80830895EF92FF92E1
:1007D0000F931F93CF93DF93EC0181E0888F9B8D64
:1007E0008C8D981305C0E889F989808185FD24C026
:1007F000F62E0B8D10E00F5F1F4F0F731127E02EA9
:100800008C8DE8120CC00FB607FCFACFE889F98985
:10081000808185FFF5CFCE010E94C503F1CF8B8D7E
:10082000FE01E80FF11DE35AFF4FF0820B8FEA89BA
:10083000FB898081806207C0EE89FF896083E88937
:10084000F98980818064808381E090E0DF91CF919D
:100850001F910F91FF90EF900895CF93DF93EC01DC
:10086000888D8823C9F0EA89FB89808185FD05C0D0
:10087000A889B9898C9186FD0FC00FB607FCF5CF0A
:10088000808185FFF2CFA889B9898C9185FFEDCF52
:10089000CE010E94C503E7CFDF91CF91089580E09C
:1008A00090E0892B21F00E94BB03811125C080E0DC
:1008B00090E0892B41F080E090E0892B21F00E94AC
:1008C000000081111CC080E090E0892B41F080E0A5
:1008D00090E0892B21F00E940000811113C080E07C
:1008E00090E0892BA1F080E090E0892B81F00E94BC
:1008F000000081110AC008950E940000D8CF0E9414
:100900000000E1CF0E940000EACF0C94000008959F
:1009100085ED8093BC008091BC0084FDFCCF1092DB
:10092000AB0408954091E003262F30E0240F311DE1
:1009300021323105DCF42091AB042430C9F4FC01F0
:1009400080E090E0861758F43091E0032191DC01BB
:10095000A254BC4FA30FB11D2C930196F3CF8091ED
:10096000E003680F6093E00380E0089581E008955C
:1009700082E008950895E091640480916304E8178B
:1009800030F4F0E0EB59FB4F808190E008958FEF59
:100990009FEF08959091640480916304981750F438
:1009A000E92FF0E0EB59FB4F208130E09F5F9093FF
:1009B000640402C02FEF3FEFC901089580916304E2
:1009C00090E020916404821B91090895CF92DF92F8
:1009D000EF92FF920F931F93CF93DF937C01262F0B
:1009E000972F8A018091AC04882391F0C62FD72FCE
:1009F0006E01C40ED51ECC15DD0571F06991D701CD
:100A0000ED91FC910190F081E02DC7011995F3CF94
:100A1000642F822F0E949204C801DF91CF911F9111
:100A20000F91FF90EF90DF90CF900895CF93DF93D9
:100A30001F92CDB7DEB769832091AC042223D1F099
:100A40002091CF04203240F021E030E0FC013383DC
:100A5000228380E090E015C08091AD04E82FF0E0A3
:100A6000E255FB4F998190838F5F8093AD04809313
:100A7000CF0405C061E0CE0101960E94920481E09E
:100A800090E00F90DF91CF910895FC013197E8310C
:100A9000F10508F04DC08827EE58FF4F8F4F0C949A
:100AA000432187E190E0089588E190E0089589E18D
:100AB00090E008958AE190E008958BE190E0089538
:100AC0008CE190E008958DE190E008958EE190E052
:100AD00008958FE190E0089580E290E0089581E22A
:100AE00090E0089582E290E0089583E290E0089516
:100AF00084E290E0089585E290E0089586E290E037
:100B0000089587E290E0089588E290E0089589E2F0
:100B100090E008958AE290E008958BE290E00895D5
:100B20008CE290E008958DE290E0089586E190E0F7
:100B300008950E947523CF93DF93EC0160E08E81CE
:100B40000E94A21261E08E810E94A21260E08E815A
:100B50000E94A2128BE891E00197F1F7DF91CF910B
:100B600008951F920F920FB60F9211240BB60F9299
:100B70002F933F934F935F936F937F938F939F93A5
:100B8000AF93BF93EF93FF938CED94E00E94C50366
:100B9000FF91EF91BF91AF919F918F917F916F9155
:100BA0005F914F913F912F910F900BBE0F900FBE11
:100BB0000F901F9018951F920F920FB60F9211244D
:100BC0000BB60F922F938F939F93EF93FF93E09128
:100BD000EC04F091ED048081E091F204F091F304D3
:100BE00082FD12C090818091F5048F5F8F732091F8
:100BF000F604821751F0E091F504F0E0E452FB4F67
:100C0000958F8093F50401C08081FF91EF919F91B2
:100C10008F912F910F900BBE0F900FBE0F901F90D2
:100C200018951F920F920FB60F9211240BB60F92C8
:100C30002F933F934F935F936F937F938F939F93E4
:100C4000AF93BF93EF93FF938091B900887F803675
:100C500009F49CC068F5883209F45BC090F48031D7
:100C600009F454C038F4882309F4F6C0883009F434
:100C70004DC0F6C0883109F44CC0803209F45DC023
:100C8000EFC0803409F468C048F4803309F455C0DB
:100C9000883309F0E5C08093A904D8C0803509F4F1
:100CA0004FC0883509F45DC0883409F0D9C0D6C07A
:100CB000883909F4C7C0A8F4883709F467C038F444
:100CC000883609F463C0803709F460C0C9C0883829
:100CD00009F4B8C0803909F45FC0803809F0C0C099
:100CE0005BC0803B09F486C038F4803A09F466C0E2
:100CF000883A09F47FC0B4C0803C09F4A7C0883C9E
:100D000009F4A4C0883B09F48AC0AAC08091860473
:100D100010C09091A8048091A704981770F5E091F5
:100D2000A80481E08E0F8093A804F0E0E957FB4F00
:100D300080818093BB0085EC86C08093A9048EC01F
:100D4000E091A80481E08E0F8093A8048091BB00FD
:100D5000F0E0E957FB4F80839091A8048091A704AD
:100D60006EC0E091A80481E08E0F8093A80480916A
:100D7000BB00F0E0E957FB4F80838091AA0481110A
:100D80006DC081E08093850484EA61C083E0809334
:100D9000AB0410920404CFCF80910404803208F099
:100DA00051C0E091040481E08E0F8093040480918F
:100DB000BB00F0E0EC51FC4F8083BDCF85EC80930D
:100DC000BC001092AB0480910404803230F4E091B6
:100DD0000404F0E0EC51FC4F10826091040470E0D8
:100DE000E091E203F091E30384EE93E01995109211
:100DF000040436C084E08093AB041092E1031092A7
:100E0000E003E091DE03F091DF0319958091E003A8
:100E1000811105C081E08093E0031092BE03E09150
:100E2000E10381E08E0F8093E103F0E0E254FC4F98
:100E300080818093BB009091E1038091E00398173B
:100E400008F479CF85E88093BC000AC085EC8093D4
:100E5000BC001092AB0404C01092A9040E94880444
:100E6000FF91EF91BF91AF919F918F917F916F9182
:100E70005F914F913F912F910F900BBE0F900FBE3E
:100E80000F901F901895CF92DF92EF92FF920F93E1
:100E90001F93CF93DF937C016C0187E0C80ED11CB8
:100EA000C0E0D0E0062F10E0B8010C2E02C075950E
:100EB00067950A94E2F76170F60181916F010E94D3
:100EC000A2122196C430D10579F7C701DF91CF91E5
:100ED0001F910F91FF90EF90DF90CF900C949B05A6
:100EE000CF92DF92EF92FF920F931F93CF93DF93F6
:100EF000EC01F62E642F8C810E94A2128D818F3F0F
:100F000019F060E00E94A2128F850F2D10E084FF7F
:100F100025C06E0187E0C80ED11CE12CF12CB80170
:100F20000E2C02C0759567950A94E2F76170F60180
:100F300081916F010E94A212FFEFEF1AFF0A88E071
:100F4000E816F10461F7CE01DF91CF911F910F9167
:100F5000FF90EF90DF90CF900C949B05B80184E058
:100F6000759567958A95E1F7CE010E9443076F2D2D
:100F7000CE01DF91CF911F910F91FF90EF90DF9005
:100F8000CF900C94430741E00E94700781E090E00D
:100F9000089540E00C94700761E00E94C9078BE35C
:100FA0009FE10197F1F70895CF92DF92EF92FF92C0
:100FB000CF93DF93EC016A017B0181E995E00E9408
:100FC000CC0760E080E00E94CC1160E081E995E010
:100FD0000E94C30760E082E00E94CC11CE010E9413
:100FE000221260E084E00E94CC118EE892E00E9420
:100FF0007A1160E089E00E94CC114AE0C701B60195
:101000000E94E11160E08EE00E94CC1184E992E040
:10101000DF91CF91FF90EF90DF90CF900C947A11F9
:10102000DF92EF92FF920F931F93CF93DF9300D045
:101030001F92CDB7DEB7880F991F880F991F8E01B9
:101040000F5F1F4F7C01E01AF10A34E0D32ED00E5F
:10105000C701800F911F0E94D120F80181938F0159
:10106000DE12F6CF69817A818B819C810F900F907F
:101070000F900F90DF91CF911F910F91FF90EF9004
:10108000DF90089580917B00877F80937B0080E4D0
:1010900080937C0080917A00806480937A008091B4
:1010A0007A0086FDFCCF209178008091790030E0B5
:1010B000382B233431058CF02D3D310584F02C384C
:1010C00081E0380774F02A3592E0390764F081E056
:1010D000293633404CF080E0089585E0089584E09F
:1010E000089583E0089582E00895CF92DF92EF9211
:1010F000FF920F931F93CF93DF93C2EBD3E0CE0108
:101100000E94C2108E8190E09093B1038093B0034F
:101110008D8190E090933902809338028C8190E029
:1011200090935E0480935D048B8190E09093AF0375
:101130008093AE038F8190E09093AD038093AC03D6
:101140008A8190E09093AB038093AA038881998170
:101150009093A9038093A803C090B203D090B303E7
:10116000E090B403F090B5030091B6031091B7037B
:101170002091B8033091B9034091BA035091BB0359
:101180006091BC037091BD0387E992E00E94210E3B
:10119000BC018BE895E0DF91CF911F910F91FF90FB
:1011A000EF90DF90CF900C94E313AF92BF92CF9269
:1011B000DF92EF92FF920F931F93CF93DF93CDB700
:1011C000DEB7A7970FB6F894DEBF0FBECDBF82EB98
:1011D00093E00E94C2108091B70390E02091380202
:1011E000309139028217930709F497C0909339021E
:1011F0008093380281E995E00E94CC07C090B20349
:10120000D090B303E090B403F090B5030091B6031F
:101210001091B7032091B8033091B9034091BA03FC
:101220005091BB036091BC037091BD0389E992E0CA
:101230000E94210E0E947A1161E080E00E94CC1190
:1012400083EA92E00E947A1181E08093AC0488E600
:101250008093CE041092AD041092CF0461E189E72F
:1012600095E00E9416050E941C1082E090E00E940A
:10127000791090916304809164049817F1F389E7E1
:1012800095E00E94CA04182F89E795E00E94CA04DD
:101290001BA21AA21DA21CA21FA21EA2B12EA12C2B
:1012A000B501682B86E0759567958A95E1F7072E5D
:1012B000000C880B990B0E94D81F20E030E040E81A
:1012C0005EE30E9413208E010F5F1F4F22E044E077
:1012D0000E94501DBC01CE0182960E94E3134EA1D4
:1012E0005FA16AA17BA181E995E00E94A1118AA179
:1012F0009BA10E94F4210E94750889EA92E00E9455
:101300007A1140918F055091900560918B057091F5
:101310008C0581E995E00E94A111A7960FB6F8947B
:10132000DEBF0FBECDBFDF91CF911F910F91FF9018
:10133000EF90DF90CF90BF90AF900895AF92BF92A3
:10134000CF92DF92EF92FF920F931F93CF93DF9391
:101350005C016A017B01E9010E944505182F092FF4
:1013600081E995E00E94CC0760E083E00E94CC1107
:101370008FE892E00E947A114AE0C701B6010E940C
:10138000E1118DEA92E00E947A1161E082E00E9410
:10139000CC1160E081E995E00E94C3078BEA92E0FE
:1013A0000E947A11C5010E94221281EB92E00E94F4
:1013B0007A11812F902F0E94221260E0812F0E94CB
:1013C000A212C701B6010E941F1361E0812F0E9483
:1013D000A212BE0180E090E00E941F13DF91CF9126
:1013E0001F910F91FF90EF90DF90CF90BF90AF9043
:1013F000089540912504509126046091270470912E
:1014000028049C0180E190E00C949E0940913504F1
:101410005091360460913704709138049C018CE03F
:1014200090E00C949E09FC013197E831F10508F039
:10143000DEC08827E657FF4F8F4F0C944321609101
:10144000590470915A0480915B0490915C04089552
:1014500060915504709156048091570490915804FE
:1014600008956091510470915204809153049091B9
:101470005404089560914D0470914E0480914F047E
:101480009091500408956091B1057091B2058091DA
:10149000B3059091B40508956091490470914A0490
:1014A00080914B0490914C0408956091AD0570912A
:1014B000AE058091AF059091B00508956091450407
:1014C000709146048091470490914804089560917A
:1014D0004104709142048091430490914404089522
:1014E00060913D0470913E0480913F0490914004CE
:1014F00008956091390470913A0480913B04909171
:101500003C0408956091350470913604809137044D
:101510009091380408956091310470913204809163
:10152000330490913404089560912D0470912E0439
:1015300080912F0490913004089560912904709156
:101540002A0480912B0490912C0408956091250425
:101550007091260480912704909128040895609149
:101560002104709122048091230490912404089511
:1015700060911D0470911E0480911F0490912004BD
:1015800008956091190470911A0480911B04909140
:101590001C0408956091150470911604809117043D
:1015A0009091180408956091110470911204809133
:1015B000130490911404089560910D0470910E0429
:1015C00080910F0490911004089560910904709126
:1015D0000A0480910B0490910C0408956091050415
:1015E000709106048091070490910804089564E6C0
:1015F00070E080E090E00895CF92DF92EF92FF924A
:10160000CF93DF93EC010E94130A6B017C0181E907
:1016100095E00E94CC0760E080E00E94CC1165E07C
:1016200081E995E00E94C30760E082E00E94CC114E
:10163000CE010E94221260E084E00E94CC1188EB6F
:1016400092E00E947A1160E089E00E94CC114AE0A9
:10165000C701B6010E94E11160E08EE00E94CC114A
:1016600084E992E0DF91CF91FF90EF90DF90CF90EF
:101670000C947A112F923F924F925F926F927F92C9
:101680008F929F92AF92BF92CF92DF92EF92FF9292
:101690000F931F93CF93DF936C017B01EA010E94AC
:1016A0004505182FC7010E944505082FC6010E9455
:1016B000130A2B013C01C7010E94130A4B015C0174
:1016C00081E995E00E94CC0761E083E00E94CC11A3
:1016D00060E081E995E00E94C3078EEB92E00E94F2
:1016E0007A1160E0812F0E94A21260E0802F0E9498
:1016F000A2122FB7F8948091A9059091AA05A09104
:10170000AB05B091AC052FBF809304029093050206
:10171000A0930602B0930702222423943324339427
:101720008FB7F894C090A905D090AA05E090AB05BA
:10173000F090AC058FBFC0920002D0920102E092FF
:101740000202F09203028091040290910502A0919E
:101750000602B0910702C81AD90AEA0AFB0AC414A1
:10176000D504E604F70468F061E0812F0E94A2121C
:10177000C814D904EA04FB0450F42220A1F0312C4F
:10178000CFCFC814D904EA04FB0450F001C0312CB7
:1017900061E0802F0E94A212332029F0212CC0CFBB
:1017A000332059F3BDCFBE0180E090E0DF91CF91AF
:1017B0001F910F91FF90EF90DF90CF90BF90AF906F
:1017C0009F908F907F906F905F904F903F902F9061
:1017D0000C941F1344EF51E061E170E080E190E070
:1017E0000E943A0B4CE251E061E170E080E190E050
:1017F0000E943A0B44EF51E061E170E085E090E037
:101800000E943A0B48EC50E061E170E085E090E026
:101810000E943A0B48EC50E061E170E080E190E01A
:101820000E943A0B4091290450912A0460912B04A4
:1018300070912C0428EC30E08FE090E00E949E092B
:1018400048EC50E061E170E080E190E00E943A0BEA
:1018500048EC50E061E170E080E190E00E943A0BDA
:101860000E94581244EF51E061E170E08FE090E097
:101870000E943A0B4091390450913A0460913B0424
:1018800070913C0428EC30E08BE090E00E949E09CF
:1018900088EC90E00E94F9090E9466124091390498
:1018A00050913A0460913B0470913C0420E931E08E
:1018B0008BE090E00E949E0940912D0450912E04EF
:1018C00060912F047091300428EC30E08EE090E0BD
:1018D0000E949E094091310450913204609133047A
:1018E0007091340428EC30E08DE090E00E949E0975
:1018F0008CE291E00E94060A80E991E00E94F909D9
:1019000084EF91E00E94060A88EC90E00E94F909B9
:1019100084EF91E00E94060A88EC90E00E94060A9B
:101920000E94581288EC90E00E94F90984EF91E03F
:101930000E94060A4091290450912A0460912B04C8
:1019400070912C0428EC30E08FE090E00E949E091A
:101950004091310450913204609133047091340409
:1019600024EF31E08DE090E00E949E090E94661213
:101970000E94661284EF91E00E94F90948EC50E061
:101980006DE070E085E090E00E943A0B4CE251E09F
:1019900063E070E08DE090E00E943A0B48EC50E08C
:1019A00063E070E085E090E00E943A0B4CE251E089
:1019B00063E070E082E190E00E943A0B40915104B4
:1019C00050915204609153047091540428EC30E01B
:1019D00083E090E00E949E094CE251E060E170E0FB
:1019E0008BE090E00E943A0B48EC50E06FE070E032
:1019F00085E090E00E943A0B48EC50E06FE070E028
:101A000085E090E00E943A0B44EF51E063E070E023
:101A10008DE090E00E943A0B4CE251E067E070E00C
:101A20008EE090E00E943A0B48EC50E063E170E0F9
:101A300080E190E00E943A0B0E94581248EC50E07E
:101A40006DE070E08EE090E00E943A0B48EC50E0D0
:101A50006DE070E08FE090E00E943A0B40E050E0D3
:101A60006DE070E082E190E00C943A0BDC01A05D47
:101A7000B74050E0EEE9F5E021E02E1B322F3E0F9B
:101A8000361728F43491430F511D3196F7CF623049
:101A900029F49D0123703327232BB9F02DE631E083
:101AA000A29FB001A39F700DB29F700D11249C01E5
:101AB0002D5C37403695279536952795CB01820FBB
:101AC000931F0197840F951F08954F5F5F4FE6CFD7
:101AD00090E0FC01EC5DF94F2491FC01E252FA4FD9
:101AE0008491882399F090E0880F991FFC01EC53B2
:101AF000FA4FA591B491FC01E655FA4F8591949166
:101B00008FB7F894EC91E22BEC938FBF0895EF928E
:101B1000FF920F931F93CF93DF93EC01623018F085
:101B20008F8588608F876B8B1C8A80E48D8B80E12A
:101B30008E8B80E58F8B8C810E94680D8D818F3F0D
:101B400011F00E94680D8E810E94680D7E0187E071
:101B5000E80EF11C00E010E08F8584FD03C084E0F6
:101B600090E002C088E090E00817190744F4F701FC
:101B700081917F010E94680D0F5F1F4FEDCF8BE3B6
:101B80009DE00197F1F760E08C810E94A21260E075
:101B90008E810E94A2128D818F3F19F060E00E9419
:101BA000A2126F8564FD1DC063E0CE010E94430751
:101BB0000BE416E4C8010197F1F763E0CE010E943F
:101BC0004307C8010197F1F763E0CE010E94430784
:101BD00083E592E00197F1F762E0CE010E944307AE
:101BE00016C06062CE010E94C9078BE496E401979B
:101BF000F1F76F856062CE010E94C90783E592E02C
:101C00000197F1F76F856062CE010E94C9076F8569
:101C10006062CE010E94C90784E0888B6CE0CE012F
:101C20000E94C907CE010E94CC0782E0898B66E042
:101C3000CE01DF91CF911F910F91FF90EF900C9407
:101C4000C9072F923F924F925F926F927F928F922D
:101C50009F92AF92BF92CF92DF92EF92FF920F933B
:101C60001F93CF93DF93CDB7DEB7C052D1400FB6ED
:101C7000F894DEBF0FBECDBFF82FE92FC55FDE4F52
:101C8000C882CB50D140C45FDE4FD882CC50D14007
:101C9000C05FDE4F1883C051D140CF5EDE4F288336
:101CA000C151D140CD5EDE4F4883C351D140CC5E9F
:101CB000DE4F5883C451D140CB5EDE4F6883C5519F
:101CC000D140CA5EDE4F7883C651D140C55FDE4F3A
:101CD000A880B980CB50D1401E2D1982632E712C63
:101CE000C301079667E070E00E940D21E82EC25EF6
:101CF000DE4F9883CE51D1408F2D6AE00E940121A2
:101D0000C95EDE4F9883C751D1408F2E9E2E6E0143
:101D1000D394250143E044225524812F90E0DC0137
:101D2000A356BA4FC15EDE4FB983A883CF51D140CD
:101D30002FEF210FC85EDE4F2883C851D140822F7C
:101D400090E0880F991FAC01405C5D4FC65EDE4F8E
:101D500059834883CA51D1403150C75EDE4F388322
:101D6000C951D140832F90E0880F991F9C01285AB8
:101D70003D4FC45EDE4F39832883CC51D140B4013E
:101D8000D401ED914D01EE2309F43AC18E2FEE0FEF
:101D9000990BAA0BBB0BFC01E154F109EA33F105E5
:101DA00008F025C18827EE52FF4F8F4F0C94432136
:101DB0001F92FF92DDC01F92FF92B6C0C75EDE4F3A
:101DC0003881C951D140373008F05DC0C45EDE4F64
:101DD000A881B981CC51D14053C0C75EDE4F288164
:101DE000C951D140273008F061C0C45EDE4FA881E0
:101DF000B981CC51D14057C07F926F9295C0C25EDD
:101E0000DE4F2881CE51D1402F93EF928DC041E01B
:101E100061E0C5010E94360D1C014F2D612FC501E7
:101E20000E94360D821993099F937DC0C95EDE4FD3
:101E30003881C751D140313039F0323041F0333040
:101E400049F06DEF72E082C067E473E07FC067EF36
:101E500072E07CC06AEF72E079C01F921F9388C065
:101E60001F921F9361C0C85EDE4F2881C851D140C8
:101E70002C3048F4C65EDE4FA881B981CA51D140EA
:101E80006D917C9163C06FEE72E060C0C85EDE4F02
:101E90002881C851D1402C3048F4C65EDE4FA8815D
:101EA000B981CA51D1406D917C9102C06FEE72E050
:101EB00043E050E09EC0C15EDE4FE881F981CF5122
:101EC000D1408491123071F54114510409F496C047
:101ED00029C0BF92AF9228C0C501805D97409F93F3
:101EE00046C081E041145104E9F080E01BC01F921C
:101EF0000F933EC01F920F9317C0002329F00D309F
:101F000028F084EF800F32C08CE030C0802F2EC0CC
:101F1000002329F00D3028F084EF800F03C08CE0FF
:101F200001C0802F1F928F9381E193E023C00C307A
:101F300018F063E073E00AC060E073E007C00C30A3
:101F400018F066E073E002C069E073E0CE0101962C
:101F50000E94832314CFC05FDE4F8881C051D140DF
:101F600005C0CF5EDE4F8881C151D1401F928F9353
:101F70008CE093E09F938F93DF92CF920E94A523F2
:101F8000B601CE0101960E9483230F900F900F900F
:101F90000F900F900F90F3CECA5EDE4F8881C6512E
:101FA000D1408F93CB5EDE4F8881C551D1408F9356
:101FB000CC5EDE4F8881C451D1408F93CD5EDE4F21
:101FC0008881C351D1408F9384E193E09F938F9395
:101FD000DF92CF920E94A523B601CE0101960E9406
:101FE00083230FB6F894DEBF0FBECDBFC8CE41E04D
:101FF00050E0CE0101960E949523C1CE8F5F92CF13
:10200000CE010196C05EDE4F0FB6F894DEBF0FBE64
:10201000CDBFDF91CF911F910F91FF90EF90DF9097
:10202000CF90BF90AF909F908F907F906F905F9078
:102030004F903F902F9008952091CF049091CE041F
:10204000213208F04AC08091AB048111FCCF32E00C
:102050003093AB0431E03093AA043FEF3093A904EE
:102060001092A8042093A704AEEAB4E047E854E035
:10207000FA013E2F341B321718F43D913193F9CFFA
:102080001092860420918604990F922B90938604D7
:1020900090918504913061F41092850490918604AA
:1020A0009093BB009091BC0093FDF8CF95EC01C0DC
:1020B00095EE9093BC009091AB049230E1F3909137
:1020C000A9049F3F79F08091A904803241F080916A
:1020D000A904803331F084E005C081E003C082E0D0
:1020E00001C083E01092AD041092CF041092AC04B2
:1020F00008959091AB049111FCCF813208F080E2F9
:1021000091E09093AB049093AA042FEF2093A9043D
:102110001092A804280F2093A7049093860490910E
:102120008604906D9093860490918504913061F4BB
:1021300010928504909186049093BB009091BC000E
:1021400093FDF8CF95EC01C095EE9093BC00909173
:10215000AB049130E1F39091A804981710F48091AA
:10216000A804A7E8B4E025E634E0F9019E2F921B0D
:10217000981718F49D919193F9CF1092640480936D
:1021800063040895CF92DF92EF92FF920F931F9313
:10219000CF93DF93CDB7DEB72E970FB6F894DEBF9F
:1021A0000FBECDBF8C0181E08093AC0488E68093A4
:1021B000CE041092AD041092CF0460E089E795E060
:1021C0000E9416050E941C1087E090E00E94791082
:1021D00090916304809164049817F1F37E018FE07D
:1021E000E80EF11CFE0131966F0189E795E00E942F
:1021F000CA04282F82958F702F70FAE08F9F200DD0
:10220000112430E0F701329322937F01EC15FD0594
:1022100061F70E941C1089819A818053984F909396
:10222000D1048093D0046B816093D2044D8140939C
:10223000D3042F812093D704D984D092D404EB8483
:10224000E092D504FD84F092D6040E94360D9C01E4
:10225000A8E1B0E00E94F2209B01AC012D0D311DE0
:10226000411D511DACE3B0E00E94E7209B01AC0191
:102270002E0D311D411D511D0E94E720DC01CB01B7
:102280008F0D911DA11DB11D80599A4CA249B74CCB
:102290008093D8049093D904A093DA04B093DB041C
:1022A0008CE0E0EDF4E0D80101900D928A95E1F721
:1022B000C8012E960FB6F894DEBF0FBECDBFDF91DA
:1022C000CF911F910F91FF90EF90DF90CF900895E5
:1022D000009769F0FC0101900020E9F73197AF0108
:1022E000481B590BBC0181E995E00C94A11180E0D9
:1022F00090E008950C9468113FB7F8948091B6056A
:102300009091B705A091B805B091B90526B5A89BE5
:1023100005C02F3F19F00196A11DB11D3FBFBA2F77
:10232000A92F982F8827820F911DA11DB11DBC01D7
:10233000CD0142E0660F771F881F991F4A95D1F79C
:102340000895CF92DF92EF92FF920F931F93CF9356
:10235000DF936C017A018B01C0E0D0E0CE15DF0580
:1023600089F0D8016D918D01D601ED91FC9101901C
:10237000F081E02DC6011995892B11F47E0102C070
:102380002196ECCFC701DF91CF911F910F91FF9064
:10239000EF90DF90CF900895643008F063E0909163
:1023A000A405691710F06FEF690FE62FF0E0EF5604
:1023B000FA4F9489682F690F606881E995E00C9461
:1023C000C9078F929F92AF92BF920F931F93CF93A3
:1023D000DF93CDB7DEB7A1970FB6F894DEBF0FBE7F
:1023E000CDBF19A2423008F44AE08E010F5D1F4FA5
:1023F000842E912CA12CB12CA50194010E942121A5
:10240000E62FB901CA0101501109EA3014F4E05D68
:1024100001C0E95CD801EC93232B242B252B61F719
:10242000C8010E946811A1960FB6F894DEBF0FBED6
:10243000CDBFDF91CF911F910F91BF90AF909F9033
:102440008F900895CF92DF92EF92FF92CF93DF9318
:102450006C01990FEE08FF08F7FE1FC0E09191058F
:10246000F09192050190F081E02D6DE281E995E017
:102470001995EC0166277727CB016C197D098E0928
:102480009F094AE00E94E1118C0F9D1FDF91CF91BF
:10249000FF90EF90DF90CF9008954AE0C701B6011A
:1024A000DF91CF91FF90EF90DF90CF900C94E111EE
:1024B0004091B1055091B2056091B3057091B4059A
:1024C00028EC30E085E090E00C949E094091AD0549
:1024D0005091AE056091AF057091B00528EC30E0E9
:1024E00087E090E00C949E09EF92FF920F931F9368
:1024F000CF93DF931F92CDB7DEB7162F877028E0FA
:10250000829FC0011124682F606481E995E079837E
:102510000E94C907E12E7981F72E8701085F1F4FBE
:10252000F70161917F0181E995E00E94C307E01600
:10253000F106B1F70F90DF91CF911F910F91FF90AE
:10254000EF900895362F90E0FC01E659F94F449141
:10255000FC01EC5DF94F2491FC01E252FA4F949199
:10256000992309F46BC0442309F455C050E0FA01E3
:102570003197E231F10508F04EC08827E45FFE4F45
:102580008F4F0C944321809180008F7707C08091FA
:1025900080008F7D03C080918000877F80938000C2
:1025A0003AC084B58F7702C084B58F7D84BD33C0B7
:1025B0008091B0008F7703C08091B0008F7D8093B1
:1025C000B00029C0809190008F7707C08091900063
:1025D0008F7D03C080919000877F809390001BC007
:1025E0008091A0008F7707C08091A0008F7D03C0ED
:1025F0008091A000877F8093A0000DC08091200172
:102600008F7707C0809120018F7D03C080912001CA
:10261000877F80932001E92FF0E0EE0FFF1FE65542
:10262000FA4FA591B4918FB7F894EC91311103C092
:1026300020952E2301C02E2B2C938FBF08958F92AF
:102640009F92AF92BF92CF92DF92EF92FF926B0177
:102650007C010E947C114B015C01C114D104E10496
:10266000F104F1F00E947C11DC01CB018819990979
:10267000AA09BB09883E9340A105B10570F321E08A
:10268000C21AD108E108F10888EE880E83E0981E8E
:10269000A11CB11CC114D104E104F10419F7DDCF70
:1026A000FF90EF90DF90CF90BF90AF909F908F9072
:1026B00008951F920F920FB60F9211242F933F93FC
:1026C0008F939F93AF93BF938091A9059091AA0593
:1026D000A091AB05B091AC053091B50523E0230F77
:1026E0002D3720F40196A11DB11D05C026E8230F4A
:1026F0000296A11DB11D2093B5058093A905909365
:10270000AA05A093AB05B093AC058091B605909156
:10271000B705A091B805B091B9050196A11DB11DED
:102720008093B6059093B705A093B805B093B9050B
:10273000BF91AF919F918F913F912F910F900FBEBD
:102740000F901F901895EF92FF920F931F93CF93C6
:10275000DF93EC017B018A0188819981009729F040
:102760002A813B8124173507F8F4B8016F5F7F4F4A
:102770000E948C22009759F0998388831B830A83D7
:102780002C813D81232B81F4FC0110820DC08881B6
:102790009981009711F00E94F421198218821D82FC
:1027A0001C821B821A8207C01D830C83B70188819B
:1027B00099810E948E23CE01DF91CF911F910F91BD
:1027C000FF90EF900895CF93DF93EC0161157105B1
:1027D00059F0FB0101900020E9F73197AF01461B4A
:1027E000570B0E94A3130CC088819981009711F0A8
:1027F0000E94F421198218821D821C821B821A8277
:10280000CE01DF91CF910895809185059091860545
:102810000E94F42180918B0590918C050C94F421F9
:10282000CF93DF9300D000D0CDB7DEB7789484B5D6
:10283000826084BD84B5816084BD85B5826085BDBC
:1028400085B5816085BD80916E00816080936E004A
:10285000109281008091810082608093810080913C
:1028600081008160809381008091800081608093ED
:1028700080008091B10084608093B1008091B000AD
:1028800081608093B000809191008260809391007C
:10289000809191008160809391008091900081608F
:1028A000809390008091A10082608093A10080912C
:1028B000A10081608093A1008091A000816080933D
:1028C000A0008091210182608093210180912101EB
:1028D000816080932101809120018160809320019B
:1028E00080917A00846080937A0080917A0082607F
:1028F00080937A0080917A00816080937A00809141
:102900007A00806880937A001092C10081E090E0A4
:102910000E9410086093590470935A0480935B04DA
:1029200090935C0482E090E00E941008609355044C
:1029300070935604809357049093580483E090E07A
:102940000E941008609351047093520480935304C2
:102950009093540484E090E00E94100860934D042A
:1029600070934E0480934F049093500485E090E060
:102970000E9410086093B1057093B2058093B3056F
:102980009093B40586E090E00E941008609349049B
:1029900070934A0480934B0490934C0487E090E03A
:1029A0000E9410086093AD057093AE058093AF054B
:1029B0009093B00588E090E00E9410086093450471
:1029C00070934604809347049093480489E090E014
:1029D0000E94100860934104709342048093430462
:1029E000909344048AE090E00E94100860933D04B4
:1029F00070933E0480933F04909340048BE090E0FA
:102A00000E9410086093390470933A0480933B0449
:102A100090933C048CE090E00E9410086093350491
:102A20007093360480933704909338048DE090E0DF
:102A30000E94100860933104709332048093330431
:102A4000909334048EE090E00E94100860932D046F
:102A500070932E0480932F04909330048FE090E0C5
:102A60000E9410086093290470932A0480932B0419
:102A700090932C0480E190E00E941008609325045C
:102A800070932604809327049093280481E190E0BA
:102A90000E94100860932104709322048093230401
:102AA0009093240482E190E00E94100860931D043A
:102AB00070931E0480931F049093200483E190E0A0
:102AC0000E9410086093190470931A0480931B04E9
:102AD00090931C0484E190E00E9410086093150418
:102AE00070931604809317049093180485E190E086
:102AF0000E941008609311047093120480931304D1
:102B00009093140486E190E00E94100860930D04F5
:102B100070930E0480930F049093100487E190E06B
:102B20000E9410086093090470930A0480930B04B8
:102B300090930C0488E190E00E94100860930504D3
:102B4000709306048093070490930804E091EC04CA
:102B5000F091ED0482E08083E091E804F091E904D3
:102B60001082E091EA04F091EB048FEC80831092E4
:102B7000F404E091F004F091F10486E08083E091A8
:102B8000EE04F091EF04808180618083E091EE0497
:102B9000F091EF04808188608083E091EE04F091F1
:102BA000EF04808180688083E091EE04F091EF046F
:102BB00080818F7D808360E372E080E00E947412E8
:102BC00068E272E081E00E94741260E272E082E0EA
:102BD0000E94741268E172E083E00E94741260E166
:102BE00072E084E00E94741268E072E085E00E9466
:102BF000741286E10E94680D87E10E94680D88E1E9
:102C00000E94680D89E10E94680D8AE10E94680DAA
:102C10008BE10E94680D8CE10E94680D8DE10E949D
:102C2000680D8EE10E94680D8FE10E94680D80E2C0
:102C30000E94680D81E20E94680D82E20E94680D88
:102C400083E20E94680D84E20E94680D85E20E9482
:102C5000680D86E20E94680D87E20E94680D88E296
:102C60000E94680D89E20E94680D8AE20E94680D48
:102C70008BE20E94680D8CE20E94680D8DE20E943A
:102C8000680D61E086E10E94A21261E087E10E9486
:102C9000A21261E088E10E94A21261E089E10E9433
:102CA000A21261E08AE10E94A21261E08BE10E941F
:102CB000A21261E08CE10E94A21261E08DE10E940B
:102CC000A21261E08EE10E94A21261E08FE10E94F7
:102CD000A21261E080E20E94A21261E081E20E9401
:102CE000A21261E082E20E94A21261E083E20E94ED
:102CF000A21261E084E20E94A21261E085E20E94D9
:102D0000A21261E086E20E94A21261E087E20E94C4
:102D1000A21261E088E20E94A21261E089E20E94B0
:102D2000A21261E08AE20E94A21261E08BE20E949C
:102D3000A21261E08CE20E94A21261E08DE20E9488
:102D4000A21262E081E995E00E94870D81E995E099
:102D50000E94CC0781E995E00E94CC0786EC92E0C6
:102D60000E947A1161E082E00E94CC1161E081E969
:102D700095E00E94C30784ED92E00E947A1164EF0F
:102D800071E080E090E00E941F1381E995E00E94CD
:102D9000CC0780EE92E00E947A11109264041092A7
:102DA00063041092AD041092CF041092AB0411E0B2
:102DB0001093AA041092850461E084E10E94A2129B
:102DC00061E085E10E94A2128091B9008E7F80931C
:102DD000B9008091B9008D7F8093B90088E4809319
:102DE000B80085E48093BC001093AC0488E680931F
:102DF000CE041092AD041092CF046EE089E795E006
:102E00000E9416050E941C1081E090E00E9479103B
:102E100090916304809164049817F1F389E795E039
:102E20000E94CA04082F0E941C1011E01093AC04E9
:102E300088E68093CE041092AD041092CF046EE029
:102E400089E795E00E941605602F6B7389E795E08E
:102E50000E9416050E941C1080ED97E09093D1040B
:102E60008093D0041093D2041093D3041092D4040E
:102E70001092D5041092D60486E08093D70480E7A0
:102E800095E3ADE6B8E38093D8049093D904A0937A
:102E9000DA04B093DB04CE0101969E838D83382E35
:102EA00094E0390E0E94D5080E944208813009F052
:102EB00003C581E995E00E94CC0760E086E00E94AE
:102EC000CC118AEE92E00E947A1168EE73E080E005
:102ED00090E00E941F1344E650E060E070E08CE058
:102EE00090E00E94D40761E080E00E94CC1164E091
:102EF00081E995E00E94C307812C912C54018394B1
:102F0000D12C11E064E6462E512C612C712C7CE012
:102F1000E72EF12C0E9442088823E1F38130E1F48E
:102F2000113009F471C0123009F466C0133009F091
:102F300061C0AAE0B0E0A50194010E94E7204B0126
:102F40005C01653671058105910508F45FC0812C2F
:102F5000912C540183945AC0823029F4115009F005
:102F600063C014E061C0833001F5113009F44CC036
:102F7000123061F4F1E0EF1AF10801E01E141F04B1
:102F80000CF445C038E1E32EF12C41C0133091F52B
:102F9000481859086A087B0801E0C9F52FE0422E5D
:102FA00027E2522E612C712C32C08430B9F51130D9
:102FB00059F1123061F48FEFE81AF80A01E099E153
:102FC000E916F10424F1EE24E394F12C20C013302F
:102FD00089F4480C591C6A1C7B1C01E0E0E14E1688
:102FE000E7E25E066104710490F0412C512C32013D
:102FF00043940DC0143051F42CED35E0B301A2011F
:10300000C7010E949E0902C000E001C001E068EC17
:1030100070E080E090E00E941F130DC0853051F4F5
:103020001F5F153008F010E068EC70E080E090E081
:103030000E941F1301E0123061F020F4113071F48E
:10304000D12C0CC0133041F0143041F4FEE0DF2EDF
:1030500005C0B2E0DB2E02C0A9E0DA2EB301A20166
:10306000C7010E94D40761E08D2D0E94CC1164E05D
:1030700081E995E00E94C307133029F44AE0C501B5
:10308000B4010E94E111011145CF8CE090E00E9453
:10309000FC0A61E080E00E94CC1164E081E995E0E7
:1030A0000E94C307C12CD12C7601C394212C01E0CE
:1030B000ECE08E2E912C0E9442088823E1F38130AF
:1030C000B1F5013009F4B1C3033099F4AAE0B0E0DE
:1030D000A70196010E94E7206B017C01653671050E
:1030E0008105910508F4A3C3C12CD12C7601C394AA
:1030F0009EC3043009F09BC3C4010E94130A698374
:103100007A838B839C832401440C551C440C551CEE
:10311000CE0101963C01F30161913F01C2010E9481
:10312000D920FFEF4F1A5F0A3610F5CF80C38230E7
:1031300029F4015009F089C304E087C3833009F002
:1031400058C1013009F471C3023061F481E0881A7A
:10315000910811E0181419040CF46AC348E1842E94
:10316000912C66C3033009F062C3F4013197E83152
:10317000F10508F05CC38827EE55FF4F8F4F0C9484
:1031800043218091590490915A04A0915B04B0911D
:103190005C048C199D09AE09BF095BC1809155047F
:1031A00090915604A0915704B09158048C199D0930
:1031B000AE09BF0963C18091510490915204A0915E
:1031C0005304B09154048C199D09AE09BF096BC119
:1031D00080914D0490914E04A0914F04B091500401
:1031E0008C199D09AE09BF0973C18091B1059091F9
:1031F000B205A091B305B091B4058C199D09AE0933
:10320000BF097BC18091490490914A04A0914B046D
:10321000B0914C048C199D09AE09BF0983C18091FE
:10322000AD059091AE05A091AF05B091B0058C1998
:103230009D09AE09BF098BC1809145049091460458
:10324000A0914704B09148048C199D09AE09BF09AB
:1032500093C18091410490914204A0914304B091A4
:1032600044048C199D09AE09BF099BC180913D049E
:1032700090913E04A0913F04B09140048C199D09A7
:10328000AE09BF09A3C18091390490913A04A0917D
:103290003B04B0913C048C199D09AE09BF09ABC138
:1032A0008091350490913604A0913704B091380490
:1032B0008C199D09AE09BF09B3C180913104909169
:1032C0003204A0913304B09134048C199D09AE09E5
:1032D000BF09BBC180912D0490912E04A0912F04B1
:1032E000B09130048C199D09AE09BF09C3C180910A
:1032F000290490912A04A0912B04B0912C048C19DC
:103300009D09AE09BF09CBC1809125049091260487
:10331000A0912704B09128048C199D09AE09BF091A
:10332000D3C18091210490912204A0912304B091F3
:1033300024048C199D09AE09BF09DBC180911D04CD
:1033400090911E04A0911F04B09120048C199D0936
:10335000AE09BF09E3C18091190490911A04A091AC
:103360001B04B0911C048C199D09AE09BF09EBC167
:103370008091150490911604A0911704B09118043F
:103380008C199D09AE09BF09F3C180911104909178
:103390001204A0911304B09114048C199D09AE0974
:1033A000BF09FBC180910D0490910E04A0910F0400
:1033B000B09110048C199D09AE09BF0903C2809118
:1033C000090490910A04A0910B04B0910C048C198B
:1033D0009D09AE09BF090BC28091050490910604B6
:1033E000A0910704B09108048C199D09AE09BF098A
:1033F00013C2843009F023C2013009F416C202302E
:1034000069F49FEF891A990A11E0E9E18E16910497
:103410000CF40EC288248394912C0AC2033009F064
:1034200006C2F4013197E831F10508F000C288279F
:10343000E654FF4F8F4F0C94432180915904909193
:103440005A04A0915B04B0915C048C0D9D1DAE1DCF
:10345000BF1D8093590490935A04A0935B04B093CA
:103460005C04E5C18091550490915604A0915704E5
:10347000B09158048C0D9D1DAE1DBF1D8093550449
:1034800090935604A0935704B0935804D0C18091F0
:10349000510490915204A0915304B09154048C0DA6
:1034A0009D1DAE1DBF1D8093510490935204A093A7
:1034B0005304B0935404BBC180914D0490914E04C9
:1034C000A0914F04B09150048C0D9D1DAE1DBF1DE9
:1034D00080934D0490934E04A0934F04B0935004F6
:1034E000A6C18091B1059091B205A091B305B091AC
:1034F000B4058C0D9D1DAE1DBF1D8093B10590932D
:10350000B205A093B305B093B40591C1809149046D
:1035100090914A04A0914B04B0914C048C0D9D1DD8
:10352000AE1DBF1D8093490490934A04A0934B04A1
:10353000B0934C047CC18091AD059091AE05A091F3
:10354000AF05B091B0058C0D9D1DAE1DBF1D8093C4
:10355000AD059093AE05A093AF05B093B00567C1DC
:103560008091450490914604A0914704B09148048D
:103570008C0D9D1DAE1DBF1D809345049093460488
:10358000A0934704B093480452C1809141049091A4
:103590004204A0914304B09144048C0D9D1DAE1DC6
:1035A000BF1D8093410490934204A0934304B093C1
:1035B00044043DC180913D0490913E04A0913F049C
:1035C000B09140048C0D9D1DAE1DBF1D80933D0428
:1035D00090933E04A0933F04B093400428C180918F
:1035E000390490913A04A0913B04B0913C048C0DB5
:1035F0009D1DAE1DBF1D8093390490933A04A09386
:103600003B04B0933C0413C180913504909136047F
:10361000A0913704B09138048C0D9D1DAE1DBF1DC7
:103620008093350490933604A0933704B093380404
:10363000FEC08091310490913204A0913304B09186
:1036400034048C0D9D1DAE1DBF1D809331049093DD
:103650003204A0933304B0933404E9C080912D0464
:1036600090912E04A0912F04B09130048C0D9D1DDB
:10367000AE1DBF1D80932D0490932E04A0932F04A4
:10368000B0933004D4C08091290490912A04A09171
:103690002B04B0912C048C0D9D1DAE1DBF1D80937D
:1036A000290490932A04A0932B04B0932C04BFC048
:1036B0008091250490912604A0912704B0912804BC
:1036C0008C0D9D1DAE1DBF1D809325049093260477
:1036D000A0932704B0932804AAC08091210490915C
:1036E0002204A0912304B09124048C0D9D1DAE1DD5
:1036F000BF1D8093210490932204A0932304B093D0
:10370000240495C080911D0490911E04A0911F0473
:10371000B09120048C0D9D1DAE1DBF1D80931D0416
:1037200090931E04A0931F04B093200480C0809146
:10373000190490911A04A0911B04B0911C048C0DE3
:103740009D1DAE1DBF1D8093190490931A04A09374
:103750001B04B0931C046BC0809115049091160457
:10376000A0911704B09118048C0D9D1DAE1DBF1DB6
:103770008093150490931604A0931704B093180433
:1037800056C08091110490911204A0911304B0913D
:1037900014048C0D9D1DAE1DBF1D809311049093CC
:1037A0001204A0931304B093140441C080910D043B
:1037B00090910E04A0910F04B09110048C0D9D1DEA
:1037C000AE1DBF1D80930D0490930E04A0930F04B3
:1037D000B09310042CC08091090490910A04A09128
:1037E0000B04B0910C048C0D9D1DAE1DBF1D80936C
:1037F000090490930A04A0930B04B0930C0417C01F
:103800008091050490910604A0910704B0910804EA
:103810008C0D9D1DAE1DBF1D809305049093060465
:10382000A0930704B093080402C010E001C011E0A7
:1038300068EC70E080E090E00E941F130DC08530BE
:1038400051F40F5F053008F000E068EC70E080E0B4
:1038500090E00E941F1311E0023061F020F401306B
:1038600071F4212C0CC0033041F0043041F48EE09F
:10387000282E05C022E0222E02C099E0292EC40184
:103880000E94FC0A61E0822D0E94CC1164E081E973
:1038900095E00E94C307033029F44AE0C701B6014E
:1038A0000E94E111111107CC8DE390E09093390251
:1038B000809338020E94D5080E94750880913802D2
:1038C00090913902009709F03EC080916204811105
:1038D00069C081E0809362041092610410926004D8
:1038E00010925F0480915D0490915E048530910593
:1038F00008F458C08530910519F40E94EA0B52C0B3
:103900009C01265031092630310508F44BC08C301B
:103910009105B1F468EE73E080E090E00E941F131F
:103920000CE010E028E833E144E650E060E070E0AD
:103930008BE290E00E949E090150110999F732C074
:103940004597D9F22FC08F30910561F480916104C1
:10395000811128C01092620481E08093610410926A
:1039600060040EC08E31910571F480916004811164
:1039700019C0109262041092610481E08093600487
:1039800010925F040FC08D9769F480915F048111DC
:1039900009C010926204109261041092600481E0E8
:1039A00080935F0468EE73E080E090E00E941F1354
:1039B0000E944F0477CAECEDF4E01382128288EE85
:1039C00093E0A0E0B0E084839583A683B7832AE6E2
:1039D00032E03183208325EC30E03587248724ECE6
:1039E00030E03787268720EC30E0318B208B21ECCC
:1039F00030E0338B228B22EC30E0358B248B26ECAD
:103A000030E0378B268B118E128E138E148EE9E7E1
:103A1000F5E01382128284839583A683B7838AE7B5
:103A200092E091838083E1E9F5E0138212828AE8D3
:103A300092E09183808388E084838FEF858389E09F
:103A4000868384E0878385E0808786E0818787E0BE
:103A500082871386148615861686178661E0CF0145
:103A60000E94870DEBE8F5E011821082138212822A
:103A70001582148240E050E06CEA72E0CF010E94AF
:103A8000A313E5E8F5E011821082138212821582F9
:103A9000148240E050E06CEA72E0CF010C94A31372
:103AA000EF920F931F93CF93DF93E80147FD02C07E
:103AB00034E001C034E1E42F440FFF0BF7FF03C0F3
:103AC000F195E195F109E32E022F2E2FAE010E9410
:103AD000701DCE01DF91CF911F910F91EF9008954E
:103AE0004F925F926F927F929F92AF92BF92CF92CE
:103AF000DF92EF92FF920F931F93CF93DF93CDB797
:103B0000DEB729970FB6F894DEBF0FBECDBF6A01AE
:103B1000122FB02E2BE3201720F0FF24F394F00E89
:103B200002C0BCE3FB2E0F2D27E0AE014F5F5F4FBD
:103B30000E94FE1EAC018981982F9970913031F05E
:103B4000E1FC06C0E0FE06C090E205C09DE203C0B5
:103B50009BE201C090E0EE2DE07183FF3CC091112B
:103B600002C083E001C084E0811718F4212F281BD4
:103B700001C020E0E1110BC0F601822F30E2882362
:103B800019F031938150FBCFC20ED11C20E0992354
:103B900029F0D6019C93F60131966F01C601039678
:103BA000E2FE0AC03EE4D6013C9341E411964C93F8
:103BB000119712963C9306C03EE6F601308341E62B
:103BC00041833283FC01322F40E2332309F442C0A7
:103BD00041933150FACF82FF44C0911102C083E07B
:103BE00001C084E0811718F4212F281B01C020E0B8
:103BF000E1110BC0F601822F30E2882319F03193D6
:103C00008150FBCFC20ED11C20E0992329F0D601B0
:103C10009C93F60131966F01C6010396E2FE0BC03C
:103C200039E4D6013C933EE411963C93119736E477
:103C300012963C9307C039E6F60130833EE63183A5
:103C400036E63283FC01322F40E2332319F04193F0
:103C50003150FBCFFC01E20FF11D10828EEF9FEF80
:103C6000B7C0F1E0911101C0F0E06F2F70E01416C1
:103C7000150624F49A012F5F3F4F02C021E030E087
:103C8000260F371FBB2029F06B2D70E06F5F7F4F31
:103C900002C060E070E0260F371F612F70E026172A
:103CA00037071CF4121B212F01C020E03E2D387174
:103CB00059F4D601322F60E2332319F06D9331505D
:103CC000FBCFC20ED11C20E0FF2331F0D6019C9324
:103CD000B6016F5F7F4F6B01E1110BC0F601922FB0
:103CE00030E3992319F031939150FBCFC20ED11CD0
:103CF00020E09F2D940F3A81782F7071A72E84FFBA
:103D000003C0313309F49150191624F4993018F096
:103D100098E001C091E0E42F852F57FF02C0E0E05A
:103D200080E06E2F782FE0E0F0E0AEE29A2E3A01CC
:103D3000691A71082A01461A570A0B2D10E01195CD
:103D4000019511096F3F8FEF780729F4D6019C92F6
:103D5000C60101966C014617570784F06616770670
:103D60006CF47F01E40CF51CA1E0B0E0AC0FBD1FCA
:103D7000EA0EFB1ED7011196BC9002C090E3B92E4B
:103D8000615071093196C60101967C016017710777
:103D900024F0D601BC926C01D5CF6417750741F4AD
:103DA000363320F4353321F4A11002C081E3B82E5C
:103DB000F601B082F701822F90E2882319F09193E7
:103DC0008150FBCFF701E20FF11D108280E090E0FF
:103DD00029960FB6F894DEBF0FBECDBFDF91CF910D
:103DE0001F910F91FF90EF90DF90CF90BF90AF9019
:103DF0009F907F906F905F904F900895283008F0CB
:103E000027E03327DA01990F311D87FD9160009675
:103E10006105710539F432602E5F3D9330E32A95D8
:103E2000E1F708959F3F30F080387105610509F092
:103E30003C5F3C5F3D93913008F08068911DDF93BB
:103E4000CF931F930F93FF92EF92192F987F969520
:103E5000E92F96959695E90FFF27E250FB4F99279A
:103E60003327EE24FF24A701E70105900894079467
:103E700028F4360FE71EF81E491F511D660F771FE5
:103E8000881F991F0694A1F70590079428F4E70E60
:103E9000F81E491F561FC11D770F881F991F661FE7
:103EA0000694A1F70590079428F4F80E491F561FB1
:103EB000C71FD11D880F991F661F771F0694A1F792
:103EC0000590079420F4490F561FC71FD81F990F5C
:103ED000661F771F881F0694A9F7849110951770A5
:103EE00041F0D695C79557954795F794E7941A955D
:103EF000C1F7E4EAF4E06894159015913591659165
:103F0000959105907FE27395E118F10A430B560BEA
:103F1000C90BD009C0F7E10CF11E431F561FC91F82
:103F2000D01D7EF4703311F48A95E6CFE8940150E9
:103F300030F0080F0AF40027021708F4202F239509
:103F4000022F7A3328F079E37D932A95E9F710C0A0
:103F50007D932A9589F606949795679537951795D9
:103F60001794E118F10A430B560BC90BD00998F0CE
:103F700023957E9173957A3308F070E37C93201338
:103F8000B8F77E9170617D9330F0839571E37D93F6
:103F900070E32A95E1F71124EF90FF900F911F91A4
:103FA000CF91DF91992787FD90950895E89409C0F6
:103FB00097FB3EF490958095709561957F4F8F4F5C
:103FC0009F4F9923A9F0F92F96E9BB279395F69572
:103FD000879577956795B795F111F8CFFAF4BB0FF0
:103FE00011F460FF1BC06F5F7F4F8F4F9F4F16C054
:103FF000882311F096E911C0772321F09EE8872FDE
:10400000762F05C0662371F096E8862F70E060E099
:104010002AF09A95660F771F881FDAF7880F969512
:10402000879597F908950E9426200C9497200E9466
:10403000892038F00E94902020F0952311F00C94F4
:1040400080200C94862011240C94CB200E94A82060
:1040500070F3959FC1F3950F50E0551F629FF001DB
:10406000729FBB27F00DB11D639FAA27F00DB11DF4
:10407000AA1F649F6627B00DA11D661F829F22277D
:10408000B00DA11D621F739FB00DA11D621F839F04
:10409000A00D611D221F749F3327A00D611D231FDA
:1040A000849F600D211D822F762F6A2F11249F5728
:1040B00050409AF0F1F088234AF0EE0FFF1FBB1F2B
:1040C000661F771F881F91505040A9F79E3F5105EA
:1040D00080F00C9480200C94CB205F3FE4F3983E5A
:1040E000D4F3869577956795B795F795E7959F5F94
:1040F000C1F7FE2B880F911D9695879597F9089526
:1041000097F99F6780E870E060E008959FEF80EC8A
:10411000089500240A94161617061806090608952D
:1041200000240A9412161306140605060895092E93
:104130000394000C11F4882352F0BB0F40F4BF2B02
:1041400011F460FF04C06F5F7F4F8F4F9F4F089542
:1041500057FD9058440F551F59F05F3F71F0479538
:10416000880F97FB991F61F09F3F79F0879508951D
:10417000121613061406551FF2CF4695F1DF08C03C
:10418000161617061806991FF1CF86957105610559
:1041900008940895E894BB2766277727CB0197F901
:1041A0000895F999FECF92BD81BDF89A992780B5FF
:1041B0000895262FF999FECF1FBA92BD81BD20BD6B
:1041C0000FB6F894FA9AF99A0FBE019608950E94D4
:1041D000F220A59F900DB49F900DA49F800D911D7E
:1041E00011240895A29FB001B39FC001A39F700D39
:1041F000811D1124911DB29F700D811D1124911DEF
:104200000895991B79E004C0991F961708F0961B32
:10421000881F7A95C9F78095089597FB072E16F4A5
:10422000009407D077FD09D00E944B2107FC05D0F0
:104230003EF4909581959F4F0895709561957F4FBD
:104240000895A1E21A2EAA1BBB1BFD010DC0AA1FD7
:10425000BB1FEE1FFF1FA217B307E407F50720F0EF
:10426000A21BB30BE40BF50B661F771F881F991F6A
:104270001A9469F760957095809590959B01AC01B3
:10428000BD01CF010895EE0FFF1F881F8BBF079060
:10429000F691E02D1994AA1BBB1B51E107C0AA1F80
:1042A000BB1FA617B70710F0A61BB70B881F991FD7
:1042B0005A95A9F780959095BC01CD010895CF93AB
:1042C000DF938230910510F482E090E0E091BC052C
:1042D000F091BD0520E030E0C0E0D0E0309711F172
:1042E0004081518148175907C0F04817590761F4B8
:1042F00082819381209719F09B838A832BC09093AE
:10430000BD058093BC0526C02115310519F0421763
:10431000530718F49A01BE01DF01EF010280F38117
:10432000E02DDCCF2115310509F1281B390B243094
:10433000310590F412968D919C911397611571053A
:1043400021F0FB019383828304C09093BD05809389
:10435000BC05FD01329644C0FD01E20FF31F8193BD
:104360009193225031092D933C933AC02091BA0584
:104370003091BB05232B41F420913C0230913D024A
:104380003093BB052093BA0520913A0230913B024D
:104390002115310541F42DB73EB740913E025091B1
:1043A0003F02241B350BE091BA05F091BB05E217E3
:1043B000F307A0F42E1B3F0B2817390778F0AC0148
:1043C0004E5F5F4F2417350748F04E0F5F1F509325
:1043D000BB054093BA058193919302C0E0E0F0E001
:1043E000CF01DF91CF9108950F931F93CF93DF9368
:1043F000009709F48CC0FC0132971382128200915D
:10440000BC051091BD050115110581F42081318194
:10441000820F931F2091BA053091BB0528173907E9
:1044200079F5F093BB05E093BA0571C0D80140E07F
:1044300050E0AE17BF0750F412962D913C911397A0
:10444000AD012115310509F1D901F3CF9D01DA0143
:104450003383228360817181860F971F82179307B0
:1044600069F4EC0128813981260F371F2E5F3F4FF9
:10447000318320838A819B8193838283452B29F416
:10448000F093BD05E093BC0542C01396FC93EE93F8
:104490001297ED01499159919E01240F351FE217A2
:1044A000F30771F480819181840F951F0296119614
:1044B0009C938E938281938113969C938E931297F3
:1044C000E0E0F0E0D80112968D919C91139700974F
:1044D00019F0F8018C01F6CF8D919C9198012E5F17
:1044E0003F4F820F931F2091BA053091BB052817CB
:1044F000390769F4309729F41092BD051092BC0574
:1045000002C0138212821093BB050093BA05DF919B
:10451000CF911F910F9108956F927F928F929F92EA
:10452000AF92BF92CF92DF92EF92FF920F931F93C1
:10453000CF93DF93EC01009789F4CB01DF91CF910A
:104540001F910F91FF90EF90DF90CF90BF90AF90B1
:104550009F908F907F906F900C945F21FC01E60FED
:10456000F71F9C0122503109E217F30708F4ACC091
:10457000D9010D911C91119706171707B0F005305E
:10458000110508F49FC0C80104978617970708F41F
:1045900099C002501109061B170B019311936D93DB
:1045A0007C93CF010E94F4218DC05B01A01AB10A57
:1045B0004C01800E911EA091BC05B091BD0540E05C
:1045C00050E0E12CF12C109709F44AC0A815B90568
:1045D000D1F56D907C901197630182E0C80ED11CDB
:1045E000CA14DB0480F1A3014A195B096A0182E065
:1045F000C80ED11C1296BC9012971396AC91B5E0E0
:10460000CB16D10440F0B282A38351834083D901F9
:104610006D937C930AC00E5F1F4FC301800F911FE3
:10462000F90191838083EB2DFA2FE114F10431F02D
:10463000D7011396FC93EE93129744C0F093BD05F7
:10464000E093BC053FC08D919C9111974817590785
:1046500008F4AC017D0112960D90BC91A02DB3CF52
:104660008091BA059091BB0588159905E1F446172C
:104670005707C8F480913A0290913B02009741F4A9
:104680008DB79EB740913E0250913F02841B950B1F
:10469000E817F907C8F4F093BB05E093BA05F901F0
:1046A000718360830FC0CB010E945F217C01009762
:1046B00059F0A801BE010E947A23CE010E94F42184
:1046C000C70104C0CE0102C080E090E0DF91CF912D
:1046D0001F910F91FF90EF90DF90CF90BF90AF9020
:1046E0009F908F907F906F90089581E090E0F89474
:1046F0000C947C26FB01DC0102C001900D9241501C
:104700005040D8F70895FB01DC010D900020E9F737
:10471000119701900D920020E1F70895FB01DC0153
:1047200001900D920020E1F70895FB01DC010D904E
:104730000020E9F711974150504028F001900020E7
:104740000D92C9F708951C9208950F931F93CF936C
:10475000DF93CDB7DEB72E970FB6F894DEBF0FBE4E
:10476000CDBF0E891F8986E08C831A8309838FEF62
:104770009FE79E838D83AE01465E5F4F688D798D86
:10478000CE0101960E94D5232F813885F801E20FD2
:10479000F31F10822E960FB6F894DEBF0FBECDBF6A
:1047A000DF91CF911F910F9108952F923F924F92D9
:1047B0005F926F927F928F929F92AF92BF92CF92B1
:1047C000DF92EF92FF920F931F93CF93DF93CDB7BA
:1047D000DEB72C970FB6F894DEBF0FBECDBF7C01BD
:1047E0006B018A01FC0117821682838181FFBDC1A2
:1047F000CE0101964C01F7019381F60193FD85915D
:1048000093FF81916F01882309F4ABC1853239F49C
:1048100093FD859193FF81916F01853229F4B70152
:1048200090E00E94E625E7CF512C312C20E0203289
:10483000A0F48B3269F030F4803259F0833269F49D
:1048400020612CC08D3239F0803339F4216026C0CC
:104850002260246023C0286021C027FD27C030EDDE
:10486000380F3A3078F426FF06C0FAE05F9E300D2C
:104870001124532E13C08AE0389E300D1124332E9C
:1048800020620CC08E3221F426FD6BC1206406C06C
:104890008C3611F4206802C0883641F4F60193FD8D
:1048A000859193FF81916F018111C1CF982F9F7DD9
:1048B0009554933028F40C5F1F4FFFE3F9830DC02C
:1048C000833631F0833771F0833509F05BC022C045
:1048D000F801808189830E5F1F4F44244394512C3B
:1048E000540115C03801F2E06F0E711CF801A08070
:1048F000B18026FF03C0652D70E002C06FEF7FEF2F
:10490000C5012C870E94DB252C0183012C852F7784
:10491000222E17C03801F2E06F0E711CF801A08042
:10492000B18026FF03C0652D70E002C06FEF7FEFFE
:10493000C5012C870E94D0252C012C852068222EB1
:10494000830123FC1BC0832D90E048165906B0F468
:10495000B70180E290E00E94E6253A94F4CFF50199
:1049600027FC859127FE81915F01B70190E00E94AD
:10497000E62531103A94F1E04F1A510841145104E0
:1049800071F7E5C0843611F0893639F5F80127FF53
:1049900007C060817181828193810C5F1F4F08C0C5
:1049A00060817181072E000C880B990B0E5F1F4FE1
:1049B0002F76722E97FF09C090958095709561951E
:1049C0007F4F8F4F9F4F2068722E2AE030E0A40166
:1049D0000E941E26A82EA81844C0853729F42F7ED1
:1049E000B22E2AE030E025C0F22FF97FBF2E8F369D
:1049F000C1F018F4883579F0B4C0803719F08837E1
:104A000021F0AFC02F2F2061B22EB4FE0DC08B2D30
:104A10008460B82E09C024FF0AC09F2F9660B92E6B
:104A200006C028E030E005C020E130E002C020E10F
:104A300032E0F801B7FE07C0608171818281938105
:104A40000C5F1F4F06C06081718180E090E00E5FB7
:104A50001F4FA4010E941E26A82EA818FB2DFF7729
:104A60007F2E76FE0BC0372D3E7FA51450F474FECA
:104A70000AC072FC08C0372D3E7E05C0BA2C372D07
:104A800003C0BA2C01C0B52C34FF0DC0FE01EA0DE5
:104A9000F11D8081803311F4397E09C032FF06C0D8
:104AA000B394B39404C0832F867809F0B39433FD94
:104AB00013C030FF06C05A2CB31418F4530C5B1803
:104AC000B32CB31468F4B70180E290E03C870E94F5
:104AD000E625B3943C85F5CFB31410F43B1801C020
:104AE000312C34FF12C0B70180E390E03C870E9474
:104AF000E6253C8532FF17C031FD03C088E790E012
:104B000002C088E590E0B7010CC0832F867859F089
:104B100031FF02C08BE201C080E237FD8DE2B701B8
:104B200090E00E94E625A51438F4B70180E390E0F8
:104B30000E94E6255A94F7CFAA94F401EA0DF11DDC
:104B40008081B70190E00E94E625A110F5CF3320C7
:104B500009F451CEB70180E290E00E94E6253A9434
:104B6000F6CFF7018681978102C08FEF9FEF2C96D9
:104B70000FB6F894DEBF0FBECDBFDF91CF911F916E
:104B80000F91FF90EF90DF90CF90BF90AF909F90EC
:104B90008F907F906F905F904F903F902F900895EF
:104BA000FC010590615070400110D8F780959095F8
:104BB0008E0F9F1F0895FC016150704001900110FD
:104BC000D8F7809590958E0F9F1F08950F931F9390
:104BD000CF93DF93FB01238121FD03C08FEF9FEF74
:104BE00028C022FF16C04681578124813581421793
:104BF000530744F4A081B1819D012F5F3F4F318362
:104C000020838C93268137812F5F3F4F3783268304
:104C100010C0EB01092F182F0084F185E02D1995A4
:104C2000892BE1F68E819F8101969F838E83812F50
:104C3000902FDF91CF911F910F910895FA01AA272C
:104C4000283051F1203181F1E8946F936E7F6E5FCF
:104C50007F4F8F4F9F4FAF4FB1E03ED0B4E03CD07D
:104C6000670F781F891F9A1FA11D680F791F8A1F60
:104C7000911DA11D6A0F711D811D911DA11D20D0C7
:104C800009F468943F912AE0269F11243019305D81
:104C90003193DEF6CF010895462F4770405D419372
:104CA000B3E00FD0C9F7F6CF462F4F70405D4A33BF
:104CB00018F0495D31FD4052419302D0A9F7EACF87
:104CC000B4E0A6959795879577956795BA95C9F7B6
:104CD00000976105710508959B01AC010A2E0694A9
:104CE0005795479537952795BA95C9F7620F731F62
:104CF000841F951FA01D089513E0C9E5D3E000E0CF
:104D000006C0802FFE010E9443212196011DCA3555
:0C4D1000D10780E00807A9F7F894FFCF56
:104D1C00010000000100000000000E1517110E002C
:104D2C00040E1F00001F0E04000004021F020400EA
:104D3C00000004081F0804000E0F0909191B0300CA
:104D4C0000040E0E1F1F04003D000000BE05800075
:104D5C001803200329032F03350339033E034303B0
:104D6C004A0354035C0365036E0375037D038703D9
:104D7C0090039703A00300000000E603A111AF030A
:104D8C008D03A1032D04000000001605E604DE04CB
:104D9C00CA04BB04BA0400000000C307A1112064BC
:104DAC00656C20004F4B007A00642E6D2E59204804
:104DBC003A690074656D70200020202000206D730E
:104DCC0000202050494E2000207365742000206381
:104DDC006F6D626F32002020204D4547415A564F6F
:104DEC004E323400206D656C6F6469614558330038
:104DFC0073656C65637420746F204D454E5500557A
:104E0C006E6B6E6F776E006E640072640074680077
:104E1C00414D00504D00706D00616D0025303264C5
:104E2C0000256400256C75004A616E75617279000D
:104E3C004665627275617279004D617263680041FA
:104E4C007072696C004D6179004A756E65004A7527
:104E5C006C79004175677573740053657074656D7A
:104E6C00626572004F63746F626572004E6F766597
:104E7C006D62657200446563656D626572004D6FAD
:104E8C006E6461790054756573646179005765646B
:104E9C006E6573646179005468757273646179002E
:104EAC00467269646179005361747572646179004A
:084EBC0053756E64617900007A
:00000001FF
