:100000000C9440010C9471010C9471010C947101D9
:100010000C9471010C9471010C9471010C94710198
:100020000C9471010C9471010C9471010C94710188
:100030000C9471010C9471010C9471010C94710178
:100040000C9471010C9471010C9471010C94710168
:100050000C9471010C9471010C9471010C94360490
:100060000C9471010C9471010C9471010C94710148
:100070000C9471010C9471010C9471010C94710138
:100080000C9471010C9471010C9471010C94710128
:100090000C9471010C9471010C9471010C94710118
:1000A0000C9471010C9471010C9471010C94710108
:1000B0000C9471010C9471010C9471010C947101F8
:1000C0000C9471010C9471010C9471010C947101E8
:1000D0000C9471010C9471010C9471010C947101D8
:1000E0000C9471018E019101800184018A01C80183
:1000F000950199019F01A301A701AD01B101B501CE
:10010000C801BB01BF01C3010C94C3010C9484015D
:100110000C94AD010C949B060C9495010C948A01EF
:100120000C94B1010C9485070C9491010C94DD02A0
:100130000C9480010C94B5010C94BF010C94A701A0
:100140000C94A3010C949F010C949E030C949901B0
:100150000C94BB010C948E010C94C801000021008A
:10016000240027002A002D00300033000101000088
:10017000040107010A0100002200250028002B00CD
:100180002E003100340002010000050108010B01BE
:10019000000020002300260029002C002F00320040
:1001A0000001000003010601090105050505070519
:1001B00008080808020202020A0A080804040404E3
:1001C000010101010101010103030303030303030F
:1001D000040707070C0C0C0C0C0C0C0C020202029E
:1001E00006060606060606060B0B0B0B0B0B0B0B87
:1001F0000102102020080810204010204080020139
:10020000020108040201010204081020408080401D
:10021000201008040201800402018040201008041C
:1002200002010804020101020408102040800102BA
:1002300004081020408000000A0B02090C0D0E0873
:10024000070304010000000000000000000000009F
:10025000000000000000000000000000000000009E
:10026000000012111000000000000000000000005B
:100270000000000000000000000000009B06850751
:1002800011241FBECFEFD1E2DEBFCDBF00E00CBF17
:1002900022E0A4E6B2E001C01D92AE39B207E1F758
:1002A00012E0A0E0B2E0E2EBF3E100E00BBF02C03D
:1002B00007900D92A436B107D9F711E0CFE3D1E052
:1002C00000E006C021970109802FFE010E948B07E4
:1002D000CE33D10780E00807A9F70E9480040C9470
:1002E000C7090C94000090E0FC013197E231F10560
:1002F00008F04EC08827EE58FF4F8F4F0C948B07A5
:10030000809180008F7703C0809180008F7D8093E3
:100310008000089580918000877FF9CF84B58F7722
:1003200002C084B58F7D84BD08958091B0008F7721
:1003300003C08091B0008F7D8093B00008958091BC
:1003400090008F7707C0809190008F7D03C08091CF
:100350009000877F8093900008958091A0008F7710
:1003600007C08091A0008F7D03C08091A000877F8F
:100370008093A0000895809120018F7707C080911D
:1003800020018F7D03C080912001877F8093200111
:100390000895CF92DF92EF92FF920F931F93CF9326
:1003A000DF93EC018B0190E1E92E97E2F92E81E0D9
:1003B000E81AF10861F1288130E0F901EA5CFD4FAB
:1003C0008491F901E051FE4FC490F901E655FE4FCA
:1003D000D490DD20A1F081110E947301ED2DF0E099
:1003E000EE0FFF1FE057FE4FA591B491EC91EC2169
:1003F00031E020E009F430E0832F922F02C080E04A
:1004000090E08017910799F280E090E002C082E0CE
:1004100090E0DF91CF911F910F91FF90EF90DF90CF
:10042000CF9008951F93CF93DF93282F30E0F901E9
:10043000EA5CFD4F8491F901E051FE4FD491F9013E
:10044000E655FE4FC491CC23C9F0162F81110E94AE
:100450007301EC2FF0E0EE0FFF1FEA58FE4FA5915D
:10046000B4918FB7F894111105C09C91ED2FE095D0
:10047000E92302C0EC91ED2BEC938FBFDF91CF917C
:100480001F910895CF93DF9390E0FC01E051FE4F60
:100490002491FC01E655FE4F8491882361F190E0A0
:1004A000880F991FFC01E45AFE4FC591D491FC01BD
:1004B000EA58FE4FA591B491611109C09FB7F89415
:1004C0008881209582238883EC912E230BC0623093
:1004D00061F49FB7F8943881822F809583238883B5
:1004E000EC912E2B2C939FBF06C08FB7F894E88118
:1004F0002E2B28838FBFDF91CF9108953FB7F894BB
:1005000080917E0290917F02A0918002B091810241
:1005100026B5A89B05C02F3F19F00196A11DB11D5E
:100520003FBFBA2FA92F982F8827820F911DA11D99
:10053000B11DBC01CD0142E0660F771F881F991FD6
:100540004A95D1F708958F929F92AF92BF92CF9222
:10055000DF92EF92FF926B017C010E947E024B01C1
:100560005C01C114D104E104F104F1F00E947E02A7
:10057000DC01CB0188199909AA09BB09883E93407F
:10058000A105B10570F321E0C21AD108E108F10814
:1005900088EE880E83E0981EA11CB11CC114D10402
:1005A000E104F10419F7DDCFFF90EF90DF90CF90D9
:1005B000BF90AF909F908F900895CF92DF92EF926F
:1005C000FF920F931F93CF93DF936C017A018B01FE
:1005D000C0E0D0E0CE15DF0589F0D8016D918D0126
:1005E000D601ED91FC910190F081E02DC6011995A5
:1005F000892B11F47E0102C02196ECCFC701DF9157
:10060000CF911F910F91FF90EF90DF90CF900895C1
:10061000CF93DF93EC0160E08E810E94120261E0D3
:100620008E810E94120260E08E810E9412028BE88D
:1006300091E00197F1F7DF91CF910895CF92DF928A
:10064000EF92FF920F931F93CF93DF937C016C0186
:1006500087E0C80ED11CC0E0D0E0062F10E0B80142
:100660000C2E02C0759567950A94E2F76170F60149
:1006700081916F010E9412022196C430D10579F751
:10068000C701DF91CF911F910F91FF90EF90DF9005
:10069000CF900C940803CF92DF92EF92FF920F93CA
:1006A0001F93CF93DF93EC01F62E642F8C810E9471
:1006B00012028D818F3F19F060E00E9412028F8537
:1006C0000F2D10E084FF25C06E0187E0C80ED11CFD
:1006D000E12CF12CB8010E2C02C0759567950A9497
:1006E000E2F76170F60181916F010E941202FFEF43
:1006F000EF1AFF0A88E0E816F10461F7CE01DF91F6
:10070000CF911F910F91FF90EF90DF90CF900C94BD
:100710000803B80184E0759567958A95E1F7CE01E5
:100720000E941E036F2DCE01DF91CF911F910F917B
:10073000FF90EF90DF90CF900C941E0341E00E9459
:100740004B0381E090E0089540E00C944B03EF925E
:10075000FF920F931F93CF93DF931F92CDB7DEB716
:10076000162F877028E0829FC0011124682F6064D3
:1007700082E892E079830E94A403E12E7981F72E2A
:100780008701085F1F4FF70161917F0182E892E0C6
:100790000E949E03E016F106B1F70F90DF91CF9112
:1007A0001F910F91FF90EF900895FF920F931F9369
:1007B000CF93DF93F82E8B01EA0161E00E941202D1
:1007C000B80180E090E00E94A30260E08F2D0E94BB
:1007D0001202BE0180E090E00E94A302DF91CF915F
:1007E0001F910F91FF9008950E94A909EF92FF9227
:1007F0000F931F93CF93DF93EC017B018A018881D4
:100800009981009729F02A813B8124173507F8F454
:10081000B8016F5F7F4F0E94C008009759F099831D
:1008200088831B830A832C813D81232B81F4FC0167
:1008300010820DC088819981009711F00E942808CC
:10084000198218821D821C821B821A8207C01D8396
:100850000C83B701888199810E94C009CE01DF9184
:10086000CF911F910F91FF90EF9008951F920F92DB
:100870000FB60F9211242F933F938F939F93AF93B3
:10088000BF9380917A0290917B02A0917C02B091FB
:100890007D023091790223E0230F2D3720F4019659
:1008A000A11DB11D05C026E8230F0296A11DB11D93
:1008B0002093790280937A0290937B02A0937C022A
:1008C000B0937D0280917E0290917F02A091800280
:1008D000B09181020196A11DB11D80937E0290937B
:1008E0007F02A0938002B0938102BF91AF919F914C
:1008F0008F913F912F910F900FBE0F901F901895E1
:10090000CF93DF9300D01F921F92CDB7DEB77894BC
:1009100084B5826084BD84B5816084BD85B5826004
:1009200085BD85B5816085BD80916E0081608093B5
:100930006E0010928100809181008260809381001E
:10094000809181008160809381008091800081602E
:10095000809380008091B10084608093B100809189
:10096000B00081608093B00080919100826080939C
:10097000910080919100816080939100809190001E
:100980008160809390008091A10082608093A1009B
:100990008091A10081608093A1008091A00081607E
:1009A0008093A00080912101826080932101809139
:1009B00021018160809321018091200181608093D9
:1009C000200180917A00846080937A0080917A007F
:1009D000826080937A0080917A00816080937A00AF
:1009E00080917A00806880937A001092C10068E15B
:1009F00072E080E00E94A70360E172E081E00E9463
:100A0000A70368E072E082E00E94A70360E072E062
:100A100083E00E94A70361E085E10E94420261E059
:100A200086E10E94420261E087E10E94420261E0A9
:100A300088E10E94420261E089E10E94420261E095
:100A40008AE10E94420261E08BE10E94420261E081
:100A50008CE10E94420261E08DE10E94420261E06D
:100A60008EE10E94420261E08FE10E94420261E059
:100A700080E20E94420261E081E20E94420261E063
:100A800082E20E94420261E083E20E94420261E04F
:100A900084E20E94420261E085E20E94420261E03B
:100AA00086E20E94420261E087E20E94420261E027
:100AB00088E20E94420261E089E20E94420261E013
:100AC0008AE20E94420261E08BE20E94420261E0FF
:100AD0008CE20E94420261E08CE20E944202CE015E
:100AE00001967C0140E0842E40E0942ECC24CA94F0
:100AF000DC2C80916A0281110EC0D0926602C092F5
:100B00006502D0926802C092670297E390936902EF
:100B1000E1E0E0936A02F70185E011928A95E9F736
:100B200061E0809169020E94420260E08091690266
:100B30000E94120264E170E080E090E00E94A30253
:100B400061E0809169020E9412028FE090E00197BB
:100B5000F1F760E0809169020E94420260E070E07B
:100B600089E692E00E94C9013C01892B09F068C026
:100B700061E070E089E692E00E94C9013C01892BA6
:100B800009F05EC037E0B32E00E010E060E070E0F6
:100B900089E692E00E94C9013C01892B09F050C00E
:100BA0000E947E021B012C0161E070E089E692E068
:100BB0000E94C9013C01892B09F042C00E947E02BB
:100BC000DC01CB0182199309A409B5098997A10514
:100BD000B10590F0F80123E0F695E7952A95E1F745
:100BE000EE0DFF1D81E090E00B2C01C0880F0A94F0
:100BF000EAF79081892B8083BB2011F0BA9402C060
:100C000097E0B92E0F5F1F4F0832110509F0BECFD4
:100C1000298130E08B8190E04D8150E0B901680F6F
:100C2000791F4617570749F43093660220936502EF
:100C3000909368028093670203C066246394712CCA
:100C400091E06916710499F0E2E06E167104A1F06A
:100C50006728B9F4809167028093720280916502DF
:100C60008093640246E050E06EE272E00EC04EE017
:100C700050E065E372E009C04DE050E064E472E0EA
:100C800004C04DE050E062E572E083E792E00E942C
:100C9000F60360ED77E080E090E00E94A30280918F
:100CA000770290917802892BB1F06EE272E0809128
:100CB0007302909174020E94B709892B61F48091AC
:100CC0007202811102C061E003C0863020F060E052
:100CD00082E30E94120240ED57E06AEF70E08FE17C
:100CE0000E94D50340ED57E068E171E087E10E9482
:100CF000D50348EB5BE06AEF70E086E10E94D50324
:100D000048E853E16CE271E080E20E94D50340EDD7
:100D100057E06CE271E085E10E94D50360E177E283
:100D200080E090E00E94A3028114910409F4E1CED6
:100D30000E940000DECECF93DF93109274021092D7
:100D4000730210927602109275021092780210923D
:100D5000770243E050E060E672E083E792E00E94B1
:100D6000F60310928502109284028AE292E0909338
:100D700083028093820288E0809386028FEF8093C3
:100D8000870289E08093880284E08093890285E06D
:100D900080938A0286E080938B0287E080938C02A6
:100DA00010928D0210928E0210928F021092900279
:100DB0001092910281E0809395021092960280E455
:100DC0008093970280E18093980280E58093990256
:100DD00061E088E00E944202809187028F3F19F013
:100DE00061E00E94420261E0809188020E9442021A
:100DF000C0E0D0E08091910284FD03C084E090E0E7
:100E000002C088E090E0C817D9074CF4FE01EE5705
:100E1000FD4F61E087810E9442022196EBCF8BE378
:100E20009DE00197F1F760E0809186020E94120236
:100E300060E0809188020E941202809187028F3FB9
:100E400019F060E00E9412026091910264FD20C0DE
:100E500063E082E892E00E941E03CBE4D6E4CE0178
:100E60000197F1F763E082E892E00E941E03219768
:100E7000F1F763E082E892E00E941E0383E592E0CE
:100E80000197F1F762E082E892E00E941E031BC026
:100E9000606282E892E00E94A4038BE496E40197EA
:100EA000F1F760919102606282E892E00E94A403EF
:100EB00083E592E00197F1F760919102606282E828
:100EC00092E00E94A40360919102606282E892E045
:100ED0000E94A40384E0809392026CE082E892E096
:100EE0000E94A40361E082E892E00E94A4038BE3E5
:100EF0009FE10197F1F782E08093930266E082E838
:100F000092E0DF91CF910C94A403809173029091B1
:100F100074020C942808EE0FFF1F881F8BBF0790E8
:100F2000F691E02D1994CF93DF938230910510F460
:100F300082E090E0E0919C02F0919D0220E030E0A0
:100F4000C0E0D0E0309711F1408151814817590736
:100F5000C0F04817590761F482819381209719F0F6
:100F60009B838A832BC090939D0280939C0226C012
:100F70002115310519F04217530718F49A01BE01E3
:100F8000DF01EF010280F381E02DDCCF2115310577
:100F900009F1281B390B2430310590F412968D91FC
:100FA0009C9113976115710521F0FB019383828356
:100FB00004C090939D0280939C02FD01329644C030
:100FC000FD01E20FF31F81939193225031092D937C
:100FD0003C933AC020919A0230919B02232B41F41A
:100FE000209122023091230230939B0220939A0297
:100FF00020912002309121022115310541F42DB7B5
:101000003EB74091240250912502241B350BE091FC
:101010009A02F0919B02E217F307A0F42E1B3F0BFC
:101020002817390778F0AC014E5F5F4F241735075A
:1010300048F04E0F5F1F50939B0240939A0281939A
:10104000919302C0E0E0F0E0CF01DF91CF910895ED
:101050000F931F93CF93DF93009709F48CC0FC018B
:1010600032971382128200919C0210919D02011509
:10107000110581F420813181820F931F20919A0202
:1010800030919B022817390779F5F0939B02E09382
:101090009A0271C0D80140E050E0AE17BF0750F48B
:1010A00012962D913C911397AD012115310509F14F
:1010B000D901F3CF9D01DA013383228360817181ED
:1010C000860F971F8217930769F4EC0128813981F5
:1010D000260F371F2E5F3F4F318320838A819B81EC
:1010E00093838283452B29F4F0939D02E0939C0225
:1010F00042C01396FC93EE931297ED0149915991DA
:101100009E01240F351FE217F30771F4808191814E
:10111000840F951F029611969C938E9382819381E2
:1011200013969C938E931297E0E0F0E0D80112960C
:101130008D919C911397009719F0F8018C01F6CFCF
:101140008D919C9198012E5F3F4F820F931F2091AC
:101150009A0230919B022817390769F4309729F4D5
:1011600010929D0210929C0202C013821282109370
:101170009B0200939A02DF91CF911F910F910895E6
:101180006F927F928F929F92AF92BF92CF92DF9297
:10119000EF92FF920F931F93CF93DF93EC01009791
:1011A00089F4CB01DF91CF911F910F91FF90EF90C8
:1011B000DF90CF90BF90AF909F908F907F906F9077
:1011C0000C949307FC01E60FF71F9C012250310994
:1011D000E217F30708F4ACC0D9010D911C911197E7
:1011E00006171707B0F00530110508F49FC0C801B5
:1011F00004978617970708F499C002501109061B37
:10120000170B019311936D937C93CF010E942808D3
:101210008DC05B01A01AB10A4C01800E911EA091F5
:101220009C02B0919D0240E050E0E12CF12C10971F
:1012300009F44AC0A815B905D1F56D907C901197B5
:10124000630182E0C80ED11CCA14DB0480F1A30143
:101250004A195B096A0182E0C80ED11C1296BC9043
:1012600012971396AC91B5E0CB16D10440F0B28240
:10127000A38351834083D9016D937C930AC00E5F91
:101280001F4FC301800F911FF90191838083EB2DC4
:10129000FA2FE114F10431F0D7011396FC93EE9389
:1012A000129744C0F0939D02E0939C023FC08D9141
:1012B0009C9111974817590708F4AC017D011296CB
:1012C0000D90BC91A02DB3CF80919A0290919B027A
:1012D00088159905E1F446175707C8F48091200254
:1012E00090912102009741F48DB79EB7409124025E
:1012F00050912502841B950BE817F907C8F4F09369
:101300009B02E0939A02F901718360830FC0CB01C5
:101310000E9493077C01009759F0A801BE010E942A
:10132000AE09CE010E942808C70104C0CE0102C048
:1013300080E090E0DF91CF911F910F91FF90EF90AF
:10134000DF90CF90BF90AF909F908F907F906F90E5
:10135000089581E090E0F8940C94C709FB01DC014A
:1013600002C001900D9241505040D8F70895FB0102
:10137000DC018D91019080190110D9F3990B08952A
:10138000FB01DC0101900D920020E1F7089511E0CE
:10139000CFE3D1E000E006C0802FFE010E948B0762
:1013A0002196011DC034D10780E00807A9F7F89401
:0213B000FFCF6D
:1013B200000004021F020400000004081F080400C9
:1013C2000E0F0909191B030000040E0E1F1F040053
:1013D20000009E028000000000009E03DD024448DF
:1013E20054204F4B00436865636B73756D206572C3
:1013F200726F720054696D656F7574206572726FD9
:101402007200556E6B6E6F776E206572726F72002E
:041412003F3F3F0019
:00000001FF
