:100000000C94A5030C94D6030C94D6030C94D6033D
:100010000C94D6030C94D6030C94D6030C94D603FC
:100020000C94D6030C94D6030C94D6030C94D603EC
:100030000C94D6030C94D6030C94D6030C94D603DC
:100040000C94D6030C94D6030C94D6030C94D603CC
:100050000C94D6030C94D6030C94D6030C948B1DED
:100060000C94D6030C940F070C94E5060C94D6035D
:100070000C94D6030C94D6030C94D6030C94D6039C
:100080000C94D6030C94D6030C94D6030C94D6038C
:100090000C94D6030C94D6030C94D6030C94450709
:1000A0000C94D6030C94D6030C94D6030C94D6036C
:1000B0000C94D6030C94D6030C94D6030C94D6035C
:1000C0000C94D6030C94D6030C94D6030C94D6034C
:1000D0000C94D6030C94D6030C94D6030C94D6033C
:1000E0000C94D6039C05A505AE05B705C005C9054A
:1000F000D205DB05E405ED05F605FF05080611064A
:100100001A0623062C0635063E06470650065906F3
:1001100062066B06CA06850688068B068E06910661
:10012000940697069A069D06A006A306A606A906AB
:10013000AC06AF06B206B506B806BB06BE06C106DB
:10014000C406C706C822D522E222EF22FC220923D8
:100150001623232330233D234A235723642371236B
:100160007E238B239823A523B223BF23CC23D9231B
:10017000E623F323242439244E24632478248D2475
:10018000A224B724CC24E124F6240B2520253525F0
:100190004A255F25742589259E25B325C825DD259B
:1001A000F2250726E526E826EB26EE26F126F4269C
:1001B000F726FA26FD2600270327062709270C27FE
:1001C0000F271227152718271B271E27212724272B
:1001D00027272A272D27BB151B161B1611151B16A3
:1001E00057159E159B151B161B161B1695156A1584
:1001F00020151B161B161B161B163A151B16F01581
:100200001B161B161B168D151B161B161B161B16F5
:100210001B161B161B16C3151B161B16FC141B16D0
:100220001B16AC15A115CF15FF141B160215511581
:1002300054151B161B161B161B16D5157F151B16E2
:100240001B1623151B1690152B15F71CFA1CE91C01
:10025000ED1CF11C311DFE1C021D081D0C1D101D86
:10026000161D1A1D1E1D311D241D281D2C1D0C942C
:10027000FC220C944E240C9497060C947E230C9430
:10028000FC140C9416230C9423060C9462060C9414
:10029000FA1C0C9423150C948B230C9415050C94C8
:1002A00011150C94CF150C94241D0C94F7080C9484
:1002B000FF140C94F4260C9478040C941A060C94F5
:1002C000C4060C9463240C94FA030C940F270C942A
:1002D00094060C948B060C9409230C942A1E0C94FF
:1002E0003E060C941B270C94D2050C94FA260C9411
:1002F000A3060C9450060C940B250C94A5050C94A5
:10030000C0050C94F0150C945F250C941E270C94DA
:10031000C3150C9420150C9461050C946A150C946B
:1003200007260C9421270C9488060C946B060C94D9
:1003300031050C94FE1C0C94081D0C942C1D0C947F
:100340007F150C94C8220C94CC240C949B150C940F
:10035000DB050C94D9230C9427270C94EF220C94E2
:1003600054150C94F3230C9412270C942C060C9423
:10037000B3250C94AE050C9435250C94B2230C9443
:10038000A5230C94F11C0C94B7240C9406050C9432
:100390009E250C94A0060C94F1260C9423230C9417
:1003A000F2250C94C7060C9474250C9491060C94B9
:1003B0009A060C94311D0C94BE060C94E1240C9406
:1003C00000270C945D1C0C94B2060C9411060C943E
:1003D00089250C944A250C94BB150C94FD260C948D
:1003E000EB260C94161D0C9406270C9403270C94F2
:1003F000E6230C94F71C0C94D5150C9464230C94F0
:10040000E2220C9424240C943D230C94F7260C94A3
:1004100057230C94DD250C94C1060C9495150C946F
:10042000E4050C94D5220C949E150C94A6060C940D
:1004300057150C94AF060C940C1D0C94C8250C9405
:10044000ED1C0C942B150C9439240C949C050C94E5
:1004500018270C94AC150C942D270C94E5260C94BD
:10046000CA060C9402150C9424270C948E060C9446
:1004700015270C94F6050C94AC060C94EC030C9424
:10048000E2270C9490150C9408060C943A150C94E1
:1004900035060C9498230C948D240C9451150C94CF
:1004A000B8060C94E8260C941A1D0C9471230C9435
:1004B00020250C949D060C94A1150C9478240C9482
:1004C000D8030C944A230C94021D0C94A2240C947F
:1004D000101D0C941B160C94C9050C94EE260C945C
:1004E000281D0C9429050C9409270C948D150C9447
:1004F00059060C94B7050C9447060C94E91C0C940F
:1005000031040C94FF050C94BB060C94ED050C947F
:10051000BF230C9405050C942A270C940C270C94EB
:1005200030230C9485060C94A9060C94B5060C9403
:100530001E1D0C94F6240C94CC2300407A10F35A20
:1005400000A0724E18090010A5D4E80000E8764813
:10055000170000E40B54020000CA9A3B000000E1BF
:10056000F505000080969800000040420F00000052
:10057000A08601000000102700000000E803000032
:1005800000006400000000000A00000000000100FC
:10059000000000002C76D888DC674F0823DFC1DF1D
:1005A000AE59E1B1B796E5E3E453C63AE651997620
:1005B00096E8E6C28426EB898C9B62ED407C6FFC5A
:1005C000EFBC9C9F40F2BAA56FA5F490055A2AF79C
:1005D0005C936B6CF9676DC11BFCE0E40D47FEF5A5
:1005E00020E6B500D0ED902E03009435770500800D
:1005F000841E080000204E0A000000C80C3333336C
:10060000330F986E12831141EF8D2114893BE6550B
:1006100016CFFEE6DB18D1844B381BF77C1D901DEE
:10062000A4BBE424203284725E228100C9F124EC50
:10063000A1E53D271F1C1F1E1F1E1F1F1E1F1E1F63
:1006400000002200250028002B002E00310034007D
:1006500002010000050108010B0100002100240037
:1006600027002A002D0030003300010100000401A2
:1006700007010A0105050505070508080808020223
:1006800002020A0A0808040404040101010101012C
:1006900001010303030303030303040707070C0C0F
:1006A0000C0C0C0C0C0C02020202060606060606D6
:1006B00006060B0B0B0B0B0B0B0B0102102020087B
:1006C00008102040102040800201020108040201AD
:1006D000010204081020408080402010080402011C
:1006E0008004020180402010080402010804020175
:1006F00001020408102040800102040810204080FC
:1007000000000A0B02090C0D0E080703040100008B
:1007100000000000000000000000000000000000D9
:100720000000000000000000000000001211100096
:1007300000000000000000000000000000000000B9
:10074000000000000000E2272A1E11241FBECFEF88
:10075000D1E2DEBFCDBF00E00CBF26E0A4EDB4E0E7
:1007600001C01D92AA3EB207E1F714E0A0E0B2E09A
:10077000E6E0F3E600E00BBF02C007900D92A43D57
:10078000B107D9F713E0C4EAD3E000E006C021972F
:100790000109802FFE010E94382CC33AD10780E066
:1007A0000807A9F70E94321E0C9471310C940000C6
:1007B000FC01918D828D981761F0828DDF01A80F69
:1007C000B11D5D968C91928D9F5F9F73928F90E08B
:1007D00008958FEF9FEF0895FC01918D828D9817FA
:1007E00031F0828DE80FF11D858D90E008958FEF37
:1007F0009FEF0895FC01918D228D892F90E0805C00
:100800009F4F821B91098F739927089580E196E08D
:100810000E94FA0321E0892B09F420E0822F089539
:10082000FC01848DDF01A80FB11DA35ABF4F2C918D
:10083000848D90E001968F739927848FA689B7895C
:100840002C93A089B1898C9180648C93938D848D35
:10085000981306C00288F389E02D80818F7D808304
:100860000895EF92FF920F931F93CF93DF93EC01C4
:1008700081E0888F9B8D8C8D981305C0E889F9895C
:10088000808185FD24C0F62E0B8D10E00F5F1F4F79
:100890000F731127E02E8C8DE8120CC00FB607FCE9
:1008A000FACFE889F989808185FFF5CFCE010E94D2
:1008B0001004F1CF8B8DFE01E80FF11DE35AFF4FBD
:1008C000F0820B8FEA89FB898081806207C0EE8904
:1008D000FF896083E889F98980818064808381E071
:1008E00090E0DF91CF911F910F91FF90EF900895CD
:1008F000CF93DF93EC01888D8823C9F0EA89FB89C7
:10090000808185FD05C0A889B9898C9186FD0FC0BD
:100910000FB607FCF5CF808185FFF2CFA889B98992
:100920008C9185FFEDCFCE010E941004E7CFDF91BF
:10093000CF91089580E090E0892B21F00E94060479
:10094000811125C080E090E0892B41F080E090E0AB
:10095000892B21F00E94000081111CC080E090E0F2
:10096000892B41F080E090E0892B21F00E9400006B
:10097000811113C080E090E0892BA1F080E090E02D
:10098000892B81F00E94000081110AC008950E9405
:100990000000D8CF0E940000E1CF0E940000EACF03
:1009A0000C940000089585ED8093BC008091BC00FC
:1009B00084FDFCCF1092DF05089540910C05262F91
:1009C00030E0240F311D21323105DCF42091DF05A8
:1009D0002430C9F4FC0180E090E0861758F430918F
:1009E0000C052191DC01A651BB4FA30FB11D2C9327
:1009F0000196F3CF80910C05680F60930C0580E0A1
:100A0000089581E0089582E008950895E0919805A1
:100A100080919705E81730F4F0E0E756FA4F8081AF
:100A200090E008958FEF9FEF089590919805809141
:100A30009705981750F4E92FF0E0E756FA4F208118
:100A400030E09F5F9093980502C02FEF3FEFC90100
:100A500008958091970590E020919805821B910957
:100A60000895CF92DF92EF92FF920F931F93CF934F
:100A7000DF937C01262F972F8A018091E005882340
:100A800091F0C62FD72F6E01C40ED51ECC15DD05F3
:100A900071F06991D701ED91FC910190F081E02D09
:100AA000C7011995F3CF642F822F0E94DD04C8017E
:100AB000DF91CF911F910F91FF90EF90DF90CF903A
:100AC0000895CF93DF931F92CDB7DEB7698320914E
:100AD000E0052223D1F020910306203240F021E0EE
:100AE00030E0FC013383228380E090E015C08091E8
:100AF000E105E82FF0E0EE51FA4F998190838F5F86
:100B00008093E1058093030605C061E0CE01019664
:100B10000E94DD0481E090E00F90DF91CF91089575
:100B2000FC013197E831F10508F0DEC08827EE5866
:100B3000FF4F8F4F0C94382C609193057091940562
:100B40008091950590919605089560918F0570911B
:100B500090058091910590919205089560918B0583
:100B600070918C0580918D0590918E05089560910E
:100B70008705709188058091890590918A0508956F
:100B8000609183057091840580918505909186051B
:100B9000089560917F057091800580918105909105
:100BA0008205089560917B0570917C0580917D059B
:100BB00090917E05089560917705709178058091F8
:100BC000790590917A050895609173057091740587
:100BD0008091750590917605089560916F057091EB
:100BE00070058091710590917205089560916B0573
:100BF00070916C0580916D0590916E0508956091DE
:100C00006705709168058091690590916A0508955E
:100C1000609163057091640580916505909166050A
:100C2000089560915F0570916005809161059091D4
:100C30006205089560915B0570915C0580915D058A
:100C400090915E05089560915705709158058091C7
:100C5000590590915A050895609153057091540576
:100C60008091550590915605089560914F057091BA
:100C700050058091510590915205089560914B0562
:100C800070914C0580914D0590914E0508956091AD
:100C90004705709148058091490590914A0508954E
:100CA00060914305709144058091450590914605FA
:100CB000089560913F0570914005809141059091A4
:100CC0004205089560913B0570913C0580913D057A
:100CD00090913E0508956091370570913805809197
:100CE000390590913A05089564E670E080E090E05F
:100CF0000895FC013197E831F10508F04DC08827CF
:100D0000E657FF4F8F4F0C94382C87E190E0089501
:100D100088E190E0089589E190E008958AE190E00B
:100D200008958BE190E008958CE190E008958DE1C5
:100D300090E008958EE190E008958FE190E00895AD
:100D400080E290E0089581E290E0089582E290E0F0
:100D5000089583E290E0089584E290E0089585E2AA
:100D600090E0089586E290E0089587E290E008958B
:100D700088E290E0089589E290E008958AE290E0A8
:100D800008958BE290E008958CE290E008958DE262
:100D900090E0089586E190E008950E946A2ECF9336
:100DA000DF93EC0160E08E810E94C81C61E08E81BF
:100DB0000E94C81C60E08E810E94C81C8BE891E0F4
:100DC0000197F1F7DF91CF9108951F920F920FB61F
:100DD0000F9211240BB60F922F933F934F935F9373
:100DE0006F937F938F939F93AF93BF93EF93FF93F3
:100DF00080E196E00E941004FF91EF91BF91AF91C6
:100E00009F918F917F916F915F914F913F912F9122
:100E10000F900BBE0F900FBE0F901F9018951F9252
:100E20000F920FB60F9211240BB60F922F938F9340
:100E30009F93EF93FF93E0912006F091210680812C
:100E4000E0912606F091270682FD12C090818091E4
:100E500029068F5F8F7320912A06821751F0E09147
:100E60002906F0E0E05FF94F958F8093290601C0D5
:100E70008081FF91EF919F918F912F910F900BBEE9
:100E80000F900FBE0F901F9018951F920F920FB6E4
:100E90000F9211240BB60F922F933F934F935F93B2
:100EA0006F937F938F939F93AF93BF93EF93FF9332
:100EB0008091B900887F803609F49CC068F588323B
:100EC00009F45BC090F4803109F454C038F48823ED
:100ED00009F4F6C0883009F44DC0F6C0883109F431
:100EE0004CC0803209F45DC0EFC0803409F468C0A2
:100EF00048F4803309F455C0883309F0E5C0809385
:100F0000DD05D8C0803509F44FC0883509F45DC0CF
:100F1000883409F0D9C0D6C0883909F4C7C0A8F40C
:100F2000883709F467C038F4883609F463C080371D
:100F300009F460C0C9C0883809F4B8C0803909F420
:100F40005FC0803809F0C0C05BC0803B09F486C038
:100F500038F4803A09F466C0883A09F47FC0B4C016
:100F6000803C09F4A7C0883C09F4A4C0883B09F47C
:100F70008AC0AAC08091BA0510C09091DC0580910A
:100F8000DB05981770F5E091DC0581E08E0F80930A
:100F9000DC05F0E0E554FA4F80818093BB0085ECDE
:100FA00086C08093DD058EC0E091DC0581E08E0F68
:100FB0008093DC058091BB00F0E0E554FA4F80831C
:100FC0009091DC058091DB056EC0E091DC0581E04D
:100FD0008E0F8093DC058091BB00F0E0E554FA4F62
:100FE00080838091DE0581116DC081E08093B90519
:100FF00084EA61C083E08093DF0510923005CFCF93
:1010000080913005803208F051C0E091300581E0D8
:101010008E0F809330058091BB00F0E0E05FFA4FC7
:101020008083BDCF85EC8093BC001092DF0580915A
:101030003005803230F4E0913005F0E0E05FFA4FA7
:1010400010826091300570E0E0910E05F0910F057F
:1010500080E195E019951092300536C084E08093C8
:10106000DF0510920D0510920C05E0910A05F09134
:101070000B05199580910C05811105C081E08093C5
:101080000C051092EA04E0910D0581E08E0F80932B
:101090000D05F0E0E651FB4F80818093BB009091FD
:1010A0000D0580910C05981708F479CF85E8809399
:1010B000BC000AC085EC8093BC001092DF0504C020
:1010C0001092DD050E94D304FF91EF91BF91AF9183
:1010D0009F918F917F916F915F914F913F912F9150
:1010E0000F900BBE0F900FBE0F901F901895CF92D0
:1010F000DF92EF92FF920F931F93CF93DF937C01C8
:101100006C0187E0C80ED11CC0E0D0E0062F10E0D3
:10111000B8010C2E02C0759567950A94E2F76170CC
:10112000F60181916F010E94C81C2196C430D1053F
:1011300079F7C701DF91CF911F910F91FF90EF9049
:10114000DF90CF900C94CF06CF92DF92EF92FF9278
:101150000F931F93CF93DF93EC01F62E642F8C81B6
:101160000E94C81C8D818F3F19F060E00E94C81C4E
:101170008F850F2D10E084FF25C06E0187E0C80E1B
:10118000D11CE12CF12CB8010E2C02C0759567958D
:101190000A94E2F76170F60181916F010E94C81C08
:1011A000FFEFEF1AFF0A88E0E816F10461F7CE01BD
:1011B000DF91CF911F910F91FF90EF90DF90CF9033
:1011C0000C94CF06B80184E0759567958A95E1F790
:1011D000CE010E9477086F2DCE01DF91CF911F9134
:1011E0000F91FF90EF90DF90CF900C94770841E043
:1011F0000E94A40881E090E0089540E00C94A408C7
:1012000061E00E94FD088BE39FE10197F1F70895EB
:101210002F923F924F925F926F927F928F929F9206
:10122000AF92BF92CF92DF92EF92FF920F931F93F4
:10123000CF93DF9300D01F92CDB7DEB75C018B0157
:101240001A010E947906E82EC8010E947906D82E5C
:10125000C5010E9490054B015C01C8010E949005E8
:101260002B013C0185EC96E00E94000961E083E0DF
:101270000E94271160E085EC96E00E94F7088EE856
:1012800092E00E94A71760E08E2D0E94C81C60E0CB
:101290008D2D0E94C81C0E947F1D609336027093A2
:1012A00037028093380290933902FF24F394CC24C0
:1012B000C3940E947F1D6093320270933302809327
:1012C00034029093350220913602309137024091DA
:1012D000380250913902621B730B840B950B681511
:1012E00079058A059B0528F061E08E2D0E94C81CB7
:1012F000C12C8091320290913302A0913402B091BE
:101300003502409136025091370260913802709157
:101310003902841B950BA60BB70B84159505A60502
:10132000B70540F061E08D2D0E94C81CCC2031F043
:10133000F12CBFCFC110BDCFF110BBCFB10180E008
:1013400090E00F900F900F900F90DF91CF911F9131
:101350000F91FF90EF90DF90CF90BF90AF909F9054
:101360008F907F906F905F904F903F902F900C9454
:10137000451DCF93DF9300D000D0CDB7DEB7BC01C1
:10138000CE0101960E94FB1D85EC96E00E940009AB
:1013900085EC96E00E94000960E080E00E94271141
:1013A00061E085EC96E00E94F70860E082E00E9430
:1013B0002711CE0101960E948C1760E08EE00E94FA
:1013C000271186E992E00E94A717CE0101960E949C
:1013D000F61D26960FB6F894DEBF0FBECDBFDF9187
:1013E000CF910895CF92DF92EF92FF92CF93DF9348
:1013F000EC010E9490056B017C0185EC96E00E9457
:10140000000960E080E00E94271165E085EC96E02D
:101410000E94F70860E082E00E942711CE010E943E
:101420007D1160E084E00E94271189E992E00E942A
:10143000A71760E089E00E9427114AE0C701B601C2
:101440000E943C1160E08EE00E94271186E992E044
:10145000DF91CF91FF90EF90DF90CF900C94A71782
:10146000CF92DF92EF92FF92CF93DF93EC016A016C
:101470007B0185EC96E00E94000960E080E00E941C
:10148000271160E085EC96E00E94F70860E082E0BA
:101490000E942711CE010E947D1160E084E00E942D
:1014A00027118FE992E00E94A71760E089E00E946F
:1014B00027114AE0C701B6010E943C1160E08EE0AE
:1014C0000E94271186E992E0DF91CF91FF90EF9083
:1014D000DF90CF900C94A717DF92EF92FF920F93BB
:1014E0001F93CF93DF9300D01F92CDB7DEB78C014F
:1014F0000E94900569837A838B839C83000F111F60
:10150000000F111FCE0101967C0194E0D92EDE0C54
:10151000F70161917F01C8010E94CE2B0F5F1F4F21
:10152000DE10F6CF0F900F900F900F90DF91CF91BC
:101530001F910F91FF90EF90DF900895DF92EF924F
:10154000FF920F931F93CF93DF9300D01F92CDB7DD
:10155000DEB7880F991F880F991F8E010F5F1F4FED
:101560007C01E01AF10A34E0D32ED00EC701800FBF
:10157000911F0E94C62BF80181938F01DE12F6CFD6
:1015800069817A818B819C810F900F900F900F90D1
:10159000DF91CF911F910F91FF90EF90DF90089511
:1015A00080917B00877F80937B0080E480937C0028
:1015B00080917A00806480937A0080917A0086FD21
:1015C000FCCF209178008091790030E0382B2334D3
:1015D00031058CF02D3D310584F02C3881E0380741
:1015E00074F02A3592E0390764F081E029363340FF
:1015F0004CF080E0089585E0089584E0089583E04C
:10160000089582E00895CF92DF92EF92FF920F93B8
:101610001F93CF93DF93CEEDD4E0CE010E94E61668
:101620008E8190E09093DD048093DC048D8190E0C6
:1016300090933102809330028C8190E09093320538
:10164000809331058B8190E09093DB048093DA04E2
:101650008F8190E09093D9048093D8048A8190E0A0
:101660009093D7048093D604888199819093D50470
:101670008093D404C090DE04D090DF04E090E004B6
:10168000F090E1040091E2041091E3042091E4045D
:101690003091E5044091E6045091E7046091E8043C
:1016A0007091E90485EA92E00E944514BC018FEB39
:1016B00096E0DF91CF911F910F91FF90EF90DF9017
:1016C000CF900C94D51DAF92BF92CF92DF92EF9244
:1016D000FF920F931F93CF93DF93CDB7DEB7A797FA
:1016E0000FB6F894DEBF0FBECDBF8EED94E00E9422
:1016F000E6168091E30490E02091300230913102AF
:101700008217930709F48BC09093310280933002C3
:1017100085EC96E00E940009C090DE04D090DF04C2
:10172000E090E004F090E1040091E2041091E30401
:101730002091E4043091E5044091E6045091E704DF
:101740006091E8047091E90487EA92E00E944514F0
:101750000E94A71761E080E00E94271181EB92E0D0
:101760000E94A71781E08093E00588E68093020637
:101770001092E1051092030661E18DEA96E00E9465
:1017800061050E94401682E090E00E949D169091B3
:101790009705809198059817F1F38DEA96E00E94DD
:1017A0001505182F8DEA96E00E9415051BA21AA2B6
:1017B0001DA21CA21FA21EA2B12EA12CB501682B36
:1017C00086E0759567958A95E1F7072E000C880BE2
:1017D000990B0E94CD2A20E030E040E85EE30E94B1
:1017E000082B8E010F5F1F4F22E044E00E94452826
:1017F000BC01CE0182960E94D51DCE0182960E9428
:101800008C17CE0182960E94F61D0E94030B87EB77
:1018100092E00E94A7178FEB96E00E948C17A79684
:101820000FB6F894DEBF0FBECDBFDF91CF911F91F1
:101830000F91FF90EF90DF90CF90BF90AF90089501
:10184000AF92BF92CF92DF92EF92FF920F931F93CE
:10185000CF93DF935C016A017B01E9010E94790665
:10186000182F092F85EC96E00E94000960E083E0C4
:101870000E94271180EA92E00E94A7174AE0C70160
:10188000B6010E943C118BEB92E00E94A71761E029
:1018900082E00E94271160E085EC96E00E94F70844
:1018A00089EB92E00E94A717C5010E947D118FEB82
:1018B00092E00E94A717812F902F0E947D1160E077
:1018C000812F0E94C81CC701B6010E94451D61E01E
:1018D000812F0E94C81CBE0180E090E00E94451D3F
:1018E000DF91CF911F910F91FF90EF90DF90CF90FC
:1018F000BF90AF9008954091570550915805609161
:10190000590570915A059C0180E190E00C94200CDF
:1019100040916705509168056091690570916A056D
:101920009C018CE090E00C94200C40917B05509140
:101930007C0560917D0570917E059C0187E090E0BB
:101940000C94200C4091830550918405609185058D
:10195000709186059C0185E090E00C94200C44EF8A
:1019600051E061E170E080E190E00E9408094CE202
:1019700051E061E170E080E190E00E94080944EFED
:1019800051E061E170E085E090E00E94080948ECD8
:1019900050E061E170E085E090E00E94080948ECC9
:1019A00050E061E170E080E190E00E940809409120
:1019B0005B0550915C0560915D0570915E0528ECBA
:1019C00030E08FE090E00E94200C48EC50E061E1B4
:1019D00070E080E190E00E94080948EC50E061E18D
:1019E00070E080E190E00E94080988EC90E00E949D
:1019F000A20C44EF51E061E170E08FE090E00E94C2
:101A0000080940916B0550916C0560916D057091CE
:101A10006E0528EC30E08BE090E00E94200C88EC12
:101A200090E00E947B0C88EC90E00E94950C409125
:101A30006B0550916C0560916D0570916E0520E904
:101A400031E08BE090E00E94200C40915F055091C6
:101A50006005609161057091620528EC30E08EE0D0
:101A600090E00E94200C40916305509164056091C4
:101A700065057091660528EC30E08DE090E00E94ED
:101A8000200C8CE291E00E94880C80E991E00E9499
:101A90007B0C84EF91E00E94880C88EC90E00E941F
:101AA0007B0C84EF91E00E94880C88EC90E00E940F
:101AB000880C88EC90E00E94A20C88EC90E00E94D8
:101AC0007B0C84EF91E00E94880C40915B05509163
:101AD0005C0560915D0570915E0528EC30E08FE05B
:101AE00090E00E94200C4091630550916405609144
:101AF00065057091660524EF31E08DE090E00E946D
:101B0000200C88EC90E00E94950C88EC90E00E94FC
:101B1000950C84EF91E00E947B0C48EC50E06DE066
:101B200070E085E090E00E9408094CE251E063E03B
:101B300070E08DE090E00E94080948EC50E063E01E
:101B400070E085E090E00E9408094CE251E063E01B
:101B500070E082E190E00E94080940918B0550916D
:101B60008C0560918D0570918E0528EC30E083E046
:101B700090E00E94200C4CE251E060E170E08BE0CC
:101B800090E00E94080948EC50E06FE070E085E0CA
:101B900090E00E94080948EC50E06FE070E085E0BA
:101BA00090E00E94080944EF51E063E070E08DE0AE
:101BB00090E00E9408094CE251E067E070E08EE09E
:101BC00090E00E94080948EC50E063E170E080E199
:101BD00090E00E94080988EC90E00E94A20C48EC7A
:101BE00050E06DE070E08EE090E00E94080948EC63
:101BF00050E06DE070E08FE090E00E94080940E066
:101C000050E06DE070E082E190E00C9408098031D2
:101C100061F020F4813009F4F3C00895813109F4B2
:101C200073C0823109F4ECC0089520ED37E04AEF2B
:101C300050E060E070E081E090E00E94200C20ED38
:101C400037E048E151E060E070E082E090E00E941F
:101C5000200C28EB3BE04AEF50E060E070E083E0CE
:101C600090E00E94200C28E833E14CE251E060E073
:101C700070E084E090E00E94200C20ED37E04CE220
:101C800051E060E070E085E090E00E94200C20EDE3
:101C900037E04CE251E060E070E086E090E00E94C6
:101CA000200C20ED37E04CE251E060E070E087E08E
:101CB00090E00E94200C20ED37E04CE251E060E023
:101CC00070E088E090E00E94200C40ED57E062E078
:101CD00070E081E090E00E94080980ED97E00E94AA
:101CE000B31180ED97E00E94751280ED97E00E949D
:101CF000EA1A80ED97E00E94641980ED97E00E9457
:101D0000A91780ED97E07AC0409193055091940512
:101D1000609195057091960524EF31E081E090E0A7
:101D20000E94200C40918F05509190056091910583
:101D30007091920524EF31E082E090E00E94200C47
:101D400040918B0550918C0560918D0570918E05A9
:101D500024EF31E083E090E00E94200C4091870561
:101D6000509188056091890570918A0524EF31E0D2
:101D700084E090E00E94200C84EF91E00E94A20C8D
:101D800040917F0550918005609181057091820599
:101D900024EF31E086E090E00E94200C84EF91E097
:101DA0000E94950C409177055091780560917905D6
:101DB00070917A0524EF31E088E090E00E94200CD9
:101DC00048EE53E062E070E081E090E00E94080994
:101DD00088EE93E00E94B31188EE93E00E947512A2
:101DE00088EE93E00E94EA1A88EE93E00E9464195C
:101DF00088EE93E00E94A91788EE93E00C94020FFE
:101E00000C94AF0C2F923F924F925F926F927F9201
:101E10008F929F92AF92BF92CF92DF92EF92FF92FA
:101E20000F931F93CF93DF93CDB7DEB76A970FB6AB
:101E3000F894DEBF0FBECDBF1C01209193053091F9
:101E40009405409195055091960529833A834B83DB
:101E50005C8320918F0530919005409191055091C0
:101E600092052D833E834F83588720918B053091B7
:101E70008C0540918D0550918E0529873A874B87B7
:101E80005C872091870530918805409189055091A4
:101E90008A052D873E874F87588B20918305309187
:101EA00084054091850550918605298B3A8B4B8B93
:101EB0005C8B20917F053091800540918105509188
:101EC00082052D8B3E8B4F8B588F80907B05909099
:101ED0007C05A0907D05B0907E05409077055090E0
:101EE00078056090790570907A0585EC96E00E94FF
:101EF000000961E083E00E94271160E085EC96E034
:101F00000E94F7088BEE93E00E94A71760E086E13D
:101F10000E94C81C60E087E10E94C81C60E088E164
:101F20000E94C81C60E089E10E94C81C60E08AE150
:101F30000E94C81C60E08BE10E94C81C60E08CE13C
:101F40000E94C81C60E08DE10E94C81C0E947F1D99
:101F5000609336027093370280933802909339026F
:101F600031E0398F41E04A8FCC24C394DD24D394EF
:101F7000EE24E394FF24F39401E011E00E947F1D1E
:101F8000609332027093330280933402909335024F
:101F90002091360230913702409138025091390237
:101FA000DC01CB01821B930BA40BB50B29813A8179
:101FB0004B815C8182179307A407B50728F061E085
:101FC00086E10E94C81C10E0809132029091330299
:101FD000A0913402B09135024091360250913702FF
:101FE0006091380270913902841B950BA60BB70BD8
:101FF0002D813E814F81588582179307A407B5072D
:1020000028F061E087E10E94C81C00E08091320264
:1020100090913302A0913402B09135024091360282
:10202000509137026091380270913902841B950BF0
:10203000A60BB70B29853A854B855C8582179307DC
:10204000A407B50728F061E088E10E94C81CF12CC4
:102050008091320290913302A0913402B091350206
:1020600040913602509137026091380270913902E6
:10207000841B950BA60BB70B2D853E854F85588984
:1020800082179307A407B50728F061E089E10E9451
:10209000C81CE12C8091320290913302A09134024D
:1020A000B09135024091360250913702609138026A
:1020B00070913902841B950BA60BB70B29893A89BD
:1020C0004B895C8982179307A407B50728F061E064
:1020D0008AE10E94C81CD12C809132029091330277
:1020E000A0913402B09135024091360250913702EE
:1020F0006091380270913902841B950BA60BB70BC7
:102100002D893E894F89588D82179307A407B507FB
:1021100028F061E08BE10E94C81CC12C8091320242
:1021200090913302A0913402B09135024091360271
:10213000509137026091380270913902841B950BDF
:10214000A60BB70B88159905AA05BB0528F061E019
:102150008CE10E94C81C1A8E809132029091330249
:10216000A0913402B091350240913602509137026D
:102170006091380270913902841B950BA60BB70B46
:1021800084159505A605B70528F061E08DE10E944C
:10219000C81C198E1111F2CE0111F0CEF110EECE45
:1021A000E110ECCED110EACEC110E8CE3A8D31115B
:1021B000E5CE498D4111E2CEB10180E090E06A9612
:1021C0000FB6F894DEBF0FBECDBFDF91CF911F9148
:1021D0000F91FF90EF90DF90CF90BF90AF909F90C6
:1021E0008F907F906F905F904F903F902F900C94C6
:1021F000451DEF92FF920F931F93CF93DF931F9292
:10220000CDB7DEB7162F877028E0829FC00111245A
:10221000682F606485EC96E079830E94FD08E12ECA
:102220007981F72E8701085F1F4FF70161917F01C8
:1022300085EC96E00E94F708E016F106B1F70F90E2
:10224000DF91CF911F910F91FF90EF90089564302F
:1022500008F063E09091D806691710F06FEF690FEE
:10226000E62FF0E0EB53F94F9489682F690F60680F
:1022700085EC96E00C94FD088F929F92AF92BF92EE
:102280000F931F93CF93DF93CDB7DEB7A1970FB610
:10229000F894DEBF0FBECDBF19A2423008F44AE069
:1022A0008E010F5D1F4F842E912CA12CB12CA50106
:1022B00094010E94162CE62FB901CA0101501109A0
:1022C000EA3014F4E05D01C0E95CD801EC93232B03
:1022D000242B252B61F7C8010E949517A1960FB6F4
:1022E000F894DEBF0FBECDBFDF91CF911F910F914C
:1022F000BF90AF909F908F900895CF92DF92EF9212
:10230000FF92CF93DF936C01990FEE08FF08F7FE61
:102310001FC0E091C506F091C6060190F081E02D46
:102320006DE285EC96E01995EC0166277727CB01E5
:102330006C197D098E099F094AE00E943C118C0F9F
:102340009D1FDF91CF91FF90EF90DF90CF90089588
:102350004AE0C701B601DF91CF91FF90EF90DF9087
:10236000CF900C943C113F924F925F926F927F926C
:102370008F929F92AF92BF92CF92DF92EF92FF9295
:102380000F931F93CF93DF93CDB7DEB72A970FB686
:10239000F894DEBF0FBECDBF9A87898780919305E1
:1023A00090919405A0919505B091960589839A83A3
:1023B000AB83BC8340908F05509090056090910551
:1023C0007090920580918B0590918C05A0918D0560
:1023D000B0918E058D839E83AF83B88785EC96E0A0
:1023E0000E94000961E083E00E94271160E085EC13
:1023F00096E00E94F70883EF93E00E94A71760E041
:1024000086E10E94C81C60E087E10E94C81C60E071
:1024100088E10E94C81C0E947F1D4B015C016093F3
:10242000360270933702809338029093390211E09C
:102430003324339401E00E947F1D60933202709335
:10244000330280933402909335026B017C01C818EB
:10245000D908EA08FB0889819A81AB81BC81C8163A
:10246000D906EA06FB0628F061E086E10E94C81C56
:1024700000E0C414D504E604F70428F061E087E125
:102480000E94C81C312C8D819E81AF81B885C816F1
:10249000D906EA06FB0628F061E088E10E94C81C24
:1024A00010E00111C8CF3110C6CF1111C4CF29855A
:1024B0003A85B90180E090E02A960FB6F894DEBF25
:1024C0000FBECDBFDF91CF911F910F91FF90EF9085
:1024D000DF90CF90BF90AF909F908F907F906F9044
:1024E0005F904F903F900C94451D2F923F924F92DA
:1024F0005F926F927F928F929F92AF92BF92CF9294
:10250000DF92EF92FF920F931F93CF93DF93CDB79C
:10251000DEB72E970FB6F894DEBF0FBECDBF1C01FD
:102520008091930590919405A0919505B0919605A1
:1025300089839A83AB83BC8380918F0590919005AA
:10254000A0919105B09192058D839E83AF83B8874A
:1025500040908B0550908C0560908D0570908E0595
:102560008091870590918805A0918905B0918A0591
:1025700089879A87AB87BC8785EC96E00E94000923
:1025800061E083E00E94271160E085EC96E00E9404
:10259000F7088BEF93E00E94A71760E086E10E94A6
:1025A000C81C60E087E10E94C81C60E088E10E94CE
:1025B000C81C60E089E10E94C81C0E947F1D4B017D
:1025C0005C016093360270933702809338029093D7
:1025D000390291E09D8701E011E0A1E0AE870E9401
:1025E0007F1D609332027093330280933402909384
:1025F00035026B017C01C818D908EA08FB088981FB
:102600009A81AB81BC81C816D906EA06FB0628F080
:1026100061E086E10E94C81C1E868D819E81AF818B
:10262000B885C816D906EA06FB0628F061E087E1FE
:102630000E94C81C10E0C414D504E604F70428F076
:1026400061E088E10E94C81C00E089859A85AB851D
:10265000BC85C816D906EA06FB0628F061E089E1C8
:102660000E94C81C1D869E859111B9CF1111B7CF4C
:102670000111B5CFAD85A111B2CFB10180E090E0DD
:102680002E960FB6F894DEBF0FBECDBFDF91CF916F
:102690001F910F91FF90EF90DF90CF90BF90AF9080
:1026A0009F908F907F906F905F904F903F902F9072
:1026B0000C94451DDC01A05DB74050E0E4E3F6E07A
:1026C00021E02E1B322F3E0F361728F43491430F92
:1026D000511D3196F7CF623029F49D0123703327C5
:1026E000232BB9F02DE631E0A29FB001A39F700D1E
:1026F000B29F700D11249C012D5C374036952795B3
:1027000036952795CB01820F931F0197840F951F54
:1027100008954F5F5F4FE6CF90E0FC01E654F94F1C
:102720002491FC01EC58F94F8491882399F090E0B2
:10273000880F991FFC01E65AF94FA591B491FC014D
:10274000E05CF94F859194918FB7F894EC91E22B6E
:10275000EC938FBF0895EF92FF920F931F93CF9347
:10276000DF93EC01623018F08F8588608F876B8B68
:102770001C8A80E48D8B80E18E8B80E58F8B8C8131
:102780000E948C138D818F3F11F00E948C138E81DB
:102790000E948C137E0187E0E80EF11C00E010E03F
:1027A0008F8584FD03C084E090E002C088E090E063
:1027B0000817190744F4F70181917F010E948C13D7
:1027C0000F5F1F4FEDCF8BE39DE00197F1F760E0C6
:1027D0008C810E94C81C60E08E810E94C81C8D8183
:1027E0008F3F19F060E00E94C81C6F8564FD1DC01A
:1027F00063E0CE010E9477080BE416E4C80101975C
:10280000F1F763E0CE010E947708C8010197F1F764
:1028100063E0CE010E94770883E592E00197F1F72B
:1028200062E0CE010E94770816C06062CE010E946D
:10283000FD088BE496E40197F1F76F856062CE01A5
:102840000E94FD0883E592E00197F1F76F856062D1
:10285000CE010E94FD086F856062CE010E94FD08D6
:1028600084E0888B6CE0CE010E94FD08CE010E94BE
:10287000000982E0898B66E0CE01DF91CF911F9144
:102880000F91FF90EF900C94FD082F923F924F9282
:102890005F926F927F928F929F92AF92BF92CF92F0
:1028A000DF92EF92FF920F931F93CF93DF93CDB7F9
:1028B000DEB7C052D1400FB6F894DEBF0FBECDBF19
:1028C000F82FE92FC55FDE4FC882CB50D140C45FDF
:1028D000DE4FD882CC50D140C05FDE4F1883C0514C
:1028E000D140CF5EDE4F2883C151D140CD5EDE4F57
:1028F0004883C351D140CC5EDE4F5883C451D14090
:10290000CB5EDE4F6883C551D140CA5EDE4F78830F
:10291000C651D140C55FDE4FA880B980CB50D140B1
:102920001E2D1982632E712CC301079667E070E09B
:102930000E94022CE82EC25EDE4F9883CE51D14019
:102940008F2D6AE00E94F62BC95EDE4F9883C75137
:10295000D1408F2E9E2E6E01D394250143E0442258
:102960005524812F90E0DC01AD5CB94FC15EDE4F94
:10297000B983A883CF51D1402FEF210FC85EDE4F1E
:102980002883C851D140822F90E0880F991FAC0155
:10299000405C5D4FC65EDE4F59834883CA51D140CB
:1029A0003150C75EDE4F3883C951D140832F90E04C
:1029B000880F991F9C01285A3D4FC45EDE4F398312
:1029C0002883CC51D140B401D401ED914D01EE23C7
:1029D00009F43AC18E2FEE0F990BAA0BBB0BFC0129
:1029E000E154F109EA33F10508F025C18827E551E2
:1029F000FF4F8F4F0C94382C1F92FF92DDC01F9217
:102A0000FF92B6C0C75EDE4F3881C951D140373022
:102A100008F05DC0C45EDE4FA881B981CC51D140C1
:102A200053C0C75EDE4F2881C951D140273008F01E
:102A300061C0C45EDE4FA881B981CC51D14057C07E
:102A40007F926F9295C0C25EDE4F2881CE51D140F9
:102A50002F93EF928DC041E061E0C5010E945A13AF
:102A60001C014F2D612FC5010E945A138219930931
:102A70009F937DC0C95EDE4F3881C751D140313050
:102A800039F0323041F0333049F061E174E082C016
:102A90006BE574E07FC06BE074E07CC06EE074E0D6
:102AA00079C01F921F9388C01F921F9361C0C85E98
:102AB000DE4F2881C851D1402C3048F4C65EDE4F2D
:102AC000A881B981CA51D1406D917C9163C063E006
:102AD00074E060C0C85EDE4F2881C851D1402C3000
:102AE00048F4C65EDE4FA881B981CA51D1406D91CC
:102AF0007C9102C063E074E043E050E09EC0C15EA0
:102B0000DE4FE881F981CF51D1408491123071F5C7
:102B10004114510409F496C029C0BF92AF9228C055
:102B2000C501805D97409F9346C081E041145104E8
:102B3000E9F080E01BC01F920F933EC01F920F93DD
:102B400017C0002329F00D3028F084EF800F32C029
:102B50008CE030C0802F2EC0002329F00D3028F0EB
:102B600084EF800F03C08CE001C0802F1F928F93F1
:102B700085E294E023C00C3018F067E174E00AC0ED
:102B800064E174E007C00C3018F06AE174E002C040
:102B90006DE174E0CE0101960E94782E14CFC05FE3
:102BA000DE4F8881C051D14005C0CF5EDE4F8881A5
:102BB000C151D1401F928F9380E294E09F938F93F5
:102BC000DF92CF920E949A2EB601CE0101960E940A
:102BD000782E0F900F900F900F900F900F90F3CED4
:102BE000CA5EDE4F8881C651D1408F93CB5EDE4FE7
:102BF0008881C551D1408F93CC5EDE4F8881C4510E
:102C0000D1408F93CD5EDE4F8881C351D1408F93E9
:102C100088E294E09F938F93DF92CF920E949A2E46
:102C2000B601CE0101960E94782E0FB6F894DEBF51
:102C30000FBECDBFC8CE41E050E0CE0101960E944C
:102C40008A2EC1CE8F5F92CFCE010196C05EDE4F3D
:102C50000FB6F894DEBF0FBECDBFDF91CF911F91AD
:102C60000F91FF90EF90DF90CF90BF90AF909F902B
:102C70008F907F906F905F904F903F902F9008952E
:102C80002091030690910206213208F04AC08091FB
:102C9000DF058111FCCF32E03093DF0531E0309366
:102CA000DE053FEF3093DD051092DC052093DB0558
:102CB000A2EEB5E04BEB55E0FA013E2F341B321784
:102CC00018F43D913193F9CF1092BA052091BA05CD
:102CD000990F922B9093BA059091B905913061F4B8
:102CE0001092B9059091BA059093BB009091BC00E9
:102CF00093FDF8CF95EC01C095EE9093BC009091B8
:102D0000DF059230E1F39091DD059F3F79F08091EE
:102D1000DD05803241F08091DD05803331F084E0C3
:102D200005C081E003C082E001C083E01092E105AC
:102D3000109203061092E00508959091DF0591111D
:102D4000FCCF813208F080E291E09093DF05909310
:102D5000DE052FEF2093DD051092DC05280F209370
:102D6000DB059093BA059091BA05906D9093BA05E2
:102D70009091B905913061F41092B9059091BA051E
:102D80009093BB009091BC0093FDF8CF95EC01C0EF
:102D900095EE9093BC009091DF059130E1F3909116
:102DA000DC05981710F48091DC05ABEBB5E029E960
:102DB00035E0F9019E2F921B981718F49D9191937D
:102DC000F9CF10929805809397050895CF92DF92DE
:102DD000EF92FF920F931F93CF93DF93CDB7DEB7A0
:102DE0002E970FB6F894DEBF0FBECDBF8C0181E0E9
:102DF0008093E00588E6809302061092E105109228
:102E0000030660E08DEA96E00E9461050E9440168C
:102E100087E090E00E949D1690919705809198051B
:102E20009817F1F37E018FE0E80EF11CFE01319658
:102E30006F018DEA96E00E941505282F82958F700C
:102E40002F70FAE08F9F200D112430E0F7013293AC
:102E500022937F01EC15FD0561F70E9440168981E0
:102E60009A818053984F90930506809304066B8156
:102E7000609306064D81409307062F8120930B0631
:102E8000D984D0920806EB84E0920906FD84F09282
:102E90000A060E945A139C01A8E1B0E00E94E72BA9
:102EA0009B01AC012D0D311D411D511DACE3B0E066
:102EB0000E94DC2B9B01AC012E0D311D411D511DCB
:102EC0000E94DC2BDC01CB018F0D911DA11DB11DDA
:102ED00080599A4CA249B74C80930C0690930D06EA
:102EE000A0930E06B0930F068CE0E4E0F6E0D80164
:102EF00001900D928A95E1F7C8012E960FB6F894CD
:102F0000DEBF0FBECDBFDF91CF911F910F91FF901C
:102F1000EF90DF90CF900895FC014481558160814E
:102F2000718185EC96E00C945D1C009769F0FC01C2
:102F300001900020E9F73197AF01481B590BBC0104
:102F400085EC96E00C945D1C80E090E008950C9474
:102F500095172F923F924F925F926F927F928F922E
:102F60009F92AF92BF92CF92DF92EF92FF920F9318
:102F70001F93CF93DF93CDB7DEB765970FB6F89465
:102F8000DEBF0FBECDBF1C01C0909305D09094054D
:102F9000E0909505F090960520918F053091900571
:102FA00040919105509192052C833D834E835F8320
:102FB00020918B0530918C0540918D0550918E05A7
:102FC000288739874A875B87209187053091880554
:102FD0004091890550918A052C873D874E875F87F0
:102FE0002091830530918405409185055091860597
:102FF000288B398B4A8B5B8B80907F059090800566
:10300000A0908105B090820540907B0550907C0592
:1030100060907D0570907E0585EC96E00E94000929
:1030200061E083E00E94271160E085EC96E00E9459
:10303000F7088BEB94E00E94A71760E086E10E94FE
:10304000C81C60E087E10E94C81C60E088E10E9423
:10305000C81C60E089E10E94C81C60E08AE10E940F
:10306000C81C60E08BE10E94C81C60E08CE10E94FB
:10307000C81C0E947F1D60933602709337028093B4
:1030800038029093390231E03C8B41E04B8351E0B0
:103090005A8321E0298301E011E03D8B0E947F1DCE
:1030A000609332027093330280933402909335021E
:1030B0002091360230913702409138025091390206
:1030C000DC01CB01821B930BA40BB50B8C159D056A
:1030D000AE05BF0528F061E086E10E94C81C1D8A8C
:1030E0008091320290913302A0913402B091350266
:1030F0004091360250913702609138027091390246
:10310000841B950BA60BB70B2C813D814E815F81F3
:1031100082179307A407B50728F061E087E10E94B2
:10312000C81C10E08091320290913302A0913402C9
:10313000B0913502409136025091370260913802C9
:1031400070913902841B950BA60BB70B2885398526
:103150004A855B8582179307A407B50728F061E0CD
:1031600088E10E94C81C00E08091320290913302F5
:10317000A0913402B091350240913602509137024D
:103180006091380270913902841B950BA60BB70B26
:103190002C853D854E855F8582179307A407B5076B
:1031A00028F061E089E10E94C81C198280913202F6
:1031B00090913302A0913402B091350240913602D1
:1031C000509137026091380270913902841B950B3F
:1031D000A60BB70B288939894A895B89821793071F
:1031E000A407B50728F061E08AE10E94C81C1A8292
:1031F0008091320290913302A0913402B091350255
:103200004091360250913702609138027091390234
:10321000841B950BA60BB70B88159905AA05BB0552
:1032200028F061E08BE10E94C81C1B828091320271
:1032300090913302A0913402B09135024091360250
:10324000509137026091380270913902841B950BBE
:10325000A60BB70B84159505A605B70528F061E008
:103260008CE10E94C81C1C8A3D89311117CF1111B5
:1032700015CF011113CF4981411110CF5A8151113E
:103280000DCF2B8121110ACF3C89311107CFB1011C
:1032900080E090E065960FB6F894DEBF0FBECDBF1C
:1032A000DF91CF911F910F91FF90EF90DF90CF9022
:1032B000BF90AF909F908F907F906F905F904F9056
:1032C0003F902F900C94451D2F923F924F925F920A
:1032D0006F927F928F929F92AF92BF92CF92DF9226
:1032E000EF92FF920F931F93CF93DF93CDB7DEB78B
:1032F00060970FB6F894DEBF0FBECDBF9E878D8757
:103300002091930530919405409195055091960533
:1033100029833A834B835C8320918F0530919005FC
:1033200040919105509192052D833E834F8358879C
:1033300020918B0530918C0540918D0550918E0523
:1033400029873A874B875C87C0908705D09088058E
:10335000E0908905F0908A0580908305909084051F
:10336000A0908505B090860540907F05509080051F
:10337000609081057090820585EC96E00E940009BE
:1033800061E083E00E94271160E085EC96E00E94F6
:10339000F70883EC94E00E94A71760E086E10E94A2
:1033A000C81C60E087E10E94C81C60E088E10E94C0
:1033B000C81C60E089E10E94C81C60E08AE10E94AC
:1033C000C81C60E08BE10E94C81C0E947F1D6093B6
:1033D000360270933702809338029093390231E0BD
:1033E0003F8741E0488B222423943324339401E027
:1033F00011E00E947F1D609332027093330280932C
:103400003402909335022091360230913702409178
:10341000380250913902DC01CB01821B930BA40BC3
:10342000B50B29813A814B815C8182179307A407F0
:10343000B50728F061E086E10E94C81C10E0809189
:10344000320290913302A0913402B0913502409142
:103450003602509137026091380270913902841B14
:10346000950BA60BB70B2D813E814F815885821796
:103470009307A407B50728F061E087E10E94C81C04
:1034800000E08091320290913302A0913402B09119
:1034900035024091360250913702609138027091A6
:1034A0003902841B950BA60BB70B29853A854B85F2
:1034B0005C8582179307A407B50728F061E088E1CF
:1034C0000E94C81C312C8091320290913302A0914D
:1034D0003402B0913502409136025091370260912A
:1034E000380270913902841B950BA60BB70B8C1513
:1034F0009D05AE05BF0528F061E089E10E94C81C6A
:10350000212C8091320290913302A0913402B0912B
:103510003502409136025091370260913802709125
:103520003902841B950BA60BB70B88159905AA05C4
:10353000BB0528F061E08AE10E94C81C188A8091CE
:10354000320290913302A0913402B0913502409141
:103550003602509137026091380270913902841B13
:10356000950BA60BB70B84159505A605B70528F096
:1035700061E08BE10E94C81C1F8611113ACF011136
:1035800038CF311036CF211034CF3889311131CFB7
:103590004F8541112ECF2D853E85B90180E090E009
:1035A00060960FB6F894DEBF0FBECDBFDF91CF910E
:1035B0001F910F91FF90EF90DF90CF90BF90AF9051
:1035C0009F908F907F906F905F904F903F902F9043
:1035D0000C94451D2F923F924F925F926F927F9273
:1035E0008F929F92AF92BF92CF92DF92EF92FF9213
:1035F0000F931F93CF93DF93CDB7DEB72B970FB603
:10360000F894DEBF0FBECDBF1C0120919305309111
:10361000940540919505509196052A833B834C83F0
:103620005D8320918F0530919005409191055091D7
:1036300092052E833F8348875987C0908B05D09091
:103640008C05E0908D05F0908E0580908705909018
:103650008805A0908905B0908A0540908305509018
:103660008405609085057090860585EC96E00E9443
:10367000000961E083E00E94271160E085EC96E09C
:103680000E94F7088BEC94E00E94A71760E086E1A7
:103690000E94C81C60E087E10E94C81C60E088E1CD
:1036A0000E94C81C60E089E10E94C81C60E08AE1B9
:1036B0000E94C81C0E947F1D6093360270933702DF
:1036C000809338029093390231E03A8741E0498390
:1036D00001E011E051E05B870E947F1D60933202A0
:1036E0007093330280933402909335022091360216
:1036F000309137024091380250913902DC01CB0100
:10370000821B930BA40BB50B2A813B814C815D81FD
:1037100082179307A407B50728F061E086E10E94AD
:10372000C81C1B868091320290913302A091340212
:10373000B0913502409136025091370260913802C3
:1037400070913902841B950BA60BB70B2E813F811C
:103750004885598582179307A407B50728F061E0CB
:1037600087E10E94C81C10E08091320290913302E0
:10377000A0913402B0913502409136025091370247
:103780006091380270913902841B950BA60BB70B20
:103790008C159D05AE05BF0528F061E088E10E940B
:1037A000C81C00E08091320290913302A091340253
:1037B000B091350240913602509137026091380243
:1037C00070913902841B950BA60BB70B88159905D0
:1037D000AA05BB0528F061E089E10E94C81C198296
:1037E0008091320290913302A0913402B09135025F
:1037F000409136025091370260913802709139023F
:10380000841B950BA60BB70B84159505A605B7056C
:1038100028F061E08AE10E94C81C1A863B853111BC
:103820005BCF111159CF011157CF4981411154CFAD
:103830005A85511151CFB10180E090E02B960FB61F
:10384000F894DEBF0FBECDBFDF91CF911F910F91D6
:10385000FF90EF90DF90CF90BF90AF909F908F90B0
:103860007F906F905F904F903F902F900C94451DEC
:103870003FB7F8948091E2069091E306A091E406A8
:10388000B091E50626B5A89B05C02F3F19F001961B
:10389000A11DB11D3FBFBA2FA92F982F8827820FD6
:1038A000911DA11DB11DBC01CD0142E0660F771F26
:1038B000881F991F4A95D1F70895CF92DF92EF9212
:1038C000FF920F931F93CF93DF936C017A018B01CB
:1038D000C0E0D0E0CE15DF0589F0D8016D918D01F3
:1038E000D601ED91FC910190F081E02DC601199572
:1038F000892B11F47E0102C02196ECCFC701DF9124
:10390000CF911F910F91FF90EF90DF90CF9008958E
:10391000EF92FF920F931F93CF93DF93EC017B0104
:103920008A0188819981009729F02A813B81241797
:103930003507F8F4B8016F5F7F4F0E94812D009723
:1039400059F0998388831B830A832C813D81232B23
:1039500081F4FC0110820DC088819981009711F0DB
:103960000E94E92C198218821D821C821B821A82F5
:1039700007C01D830C83B701888199810E94832E23
:10398000CE01DF91CF911F910F91FF90EF9008959D
:10399000362F90E0FC01E050F94F4491FC01E654D1
:1039A000F94F2491FC01EC58F94F9491992309F4B3
:1039B0006BC0442309F455C050E0FA013197E2315D
:1039C000F10508F04EC08827EB5DFE4F8F4F0C9439
:1039D000382C809180008F7707C0809180008F7D88
:1039E00003C080918000877F809380003AC084B5B7
:1039F0008F7702C084B58F7D84BD33C08091B000C5
:103A00008F7703C08091B0008F7D8093B00029C074
:103A1000809190008F7707C0809190008F7D03C0C8
:103A200080919000877F809390001BC08091A000C0
:103A30008F7707C08091A0008F7D03C08091A00088
:103A4000877F8093A0000DC0809120018F7707C0F1
:103A5000809120018F7D03C080912001877F80931A
:103A60002001E92FF0E0EE0FFF1FE05CF94FA59178
:103A7000B4918FB7F894EC91311103C020952E23A7
:103A800001C02E2B2C938FBF08958F929F92AF92DF
:103A9000BF92CF92DF92EF92FF926B017C010E9466
:103AA000381C4B015C01C114D104E104F104F1F0B4
:103AB0000E94381CDC01CB0188199909AA09BB09AD
:103AC000883E9340A105B10570F321E0C21AD108E8
:103AD000E108F10888EE880E83E0981EA11CB11C55
:103AE000C114D104E104F10419F7DDCFFF90EF9088
:103AF000DF90CF90BF90AF909F908F9008952FB799
:103B0000F8946091DE067091DF068091E006909156
:103B1000E1062FBF08951F920F920FB60F92112446
:103B20002F933F938F939F93AF93BF938091DE0624
:103B30009091DF06A091E006B091E1063091DD069C
:103B400023E0230F2D3720F40196A11DB11D05C0E0
:103B500026E8230F0296A11DB11D2093DD06809358
:103B6000DE069093DF06A093E006B093E106809115
:103B7000E2069091E306A091E406B091E506019675
:103B8000A11DB11D8093E2069093E306A093E40685
:103B9000B093E506BF91AF919F918F913F912F9187
:103BA0000F900FBE0F901F901895CF93DF93EC01ED
:103BB0006115710559F0FB0101900020E9F731977B
:103BC000AF01461B570B0E94881C0CC0888199814D
:103BD000009711F00E94E92C198218821D821C8224
:103BE0001B821A82CE01DF91CF910895FC01808162
:103BF00091810C94E92CFB01DC0111961C921E9220
:103C000013961C921E92129715961C921E92149750
:103C10008617970749F0608171816115710521F060
:103C2000448155810C94881C0895FC0111821082F6
:103C300013821282158214826115710551F0FB0105
:103C400001900020E9F73197AF01461B570B0C9408
:103C5000881C089589EB96E00E94F61D8FEB96E094
:103C60000C94F61DCF93DF93CDB7DEB72C970FB62C
:103C7000F894DEBF0FBECDBF789484B5826084BD5A
:103C800084B5816084BD85B5826085BD85B5816060
:103C900085BD80916E00816080936E0010928100DE
:103CA0008091810082608093810080918100816099
:103CB000809381008091800081608093800080915A
:103CC000B10084608093B1008091B00081608093E6
:103CD000B00080919100826080939100809191006A
:103CE000816080939100809190008160809390002A
:103CF0008091A10082608093A1008091A1008160E9
:103D00008093A1008091A00081608093A0008091A9
:103D10002101826080932101809121018160809343
:103D200021018091200181608093200180917A009F
:103D3000846080937A0080917A00826080937A0018
:103D400080917A00816080937A0080917A00806807
:103D500080937A001092C10081E090E00E949E0A58
:103D600060939305709394058093950590939605C1
:103D700082E090E00E949E0A60938F057093900508
:103D8000809391059093920583E090E00E949E0AB3
:103D900060938B0570938C0580938D0590938E05B1
:103DA00084E090E00E949E0A6093870570938805E6
:103DB0008093890590938A0585E090E00E949E0A91
:103DC00060938305709384058093850590938605A1
:103DD00086E090E00E949E0A60937F0570938005C4
:103DE000809381059093820587E090E00E949E0A6F
:103DF00060937B0570937C0580937D0590937E0591
:103E000088E090E00E949E0A6093770570937805A1
:103E10008093790590937A0589E090E00E949E0A4C
:103E20006093730570937405809375059093760580
:103E30008AE090E00E949E0A60936F05709370057F
:103E400080937105909372058BE090E00E949E0A2A
:103E500060936B0570936C0580936D0590936E0570
:103E60008CE090E00E949E0A60936705709368055D
:103E70008093690590936A058DE090E00E949E0A08
:103E80006093630570936405809365059093660560
:103E90008EE090E00E949E0A60935F05709360053B
:103EA00080936105909362058FE090E00E949E0AE6
:103EB00060935B0570935C0580935D0590935E0550
:103EC00080E190E00E949E0A609357057093580528
:103ED0008093590590935A0581E190E00E949E0AD3
:103EE0006093530570935405809355059093560540
:103EF00082E190E00E949E0A60934F057093500506
:103F0000809351059093520583E190E00E949E0AB0
:103F100060934B0570934C0580934D0590934E052F
:103F200084E190E00E949E0A6093470570934805E3
:103F30008093490590934A0585E190E00E949E0A8E
:103F4000609343057093440580934505909346051F
:103F500086E190E00E949E0A60933F0570934005C1
:103F6000809341059093420587E190E00E949E0A6C
:103F700060933B0570933C0580933D0590933E050F
:103F800088E190E00E949E0A60933705709338059F
:103F90008093390590933A05E0912006F09121062F
:103FA00082E08083E0911C06F0911D061082E09172
:103FB0001E06F0911F068FEC808310922806E09178
:103FC0002406F091250686E08083E0912206F09198
:103FD0002306808180618083E0912206F091230690
:103FE000808188608083E0912206F09123068081A1
:103FF00080688083E0912206F091230680818F7D86
:10400000808368E272E080E00E94F91060E272E072
:1040100081E00E94F91068E172E082E00E94F910EC
:1040200060E172E083E00E94F91068E072E084E0F1
:104030000E94F91060E072E085E00E94F91086E1CC
:104040000E948C1387E10E948C1388E10E948C13DC
:1040500089E10E948C138AE10E948C138BE10E94FB
:104060008C138CE10E948C138DE10E948C138EE1E5
:104070000E948C138FE10E948C1380E20E948C13AB
:1040800081E20E948C1382E20E948C1383E20E94E0
:104090008C1384E20E948C1385E20E948C1386E2CA
:1040A0000E948C1387E20E948C1388E20E948C137A
:1040B00089E20E948C138AE20E948C138BE20E9498
:1040C0008C138CE20E948C138DE20E948C1361E0B1
:1040D00086E10E94C81C61E087E10E94C81C61E083
:1040E00088E10E94C81C61E089E10E94C81C61E06F
:1040F0008AE10E94C81C61E08BE10E94C81C61E05B
:104100008CE10E94C81C61E08DE10E94C81C61E046
:104110008EE10E94C81C61E08FE10E94C81C61E032
:1041200080E20E94C81C61E081E20E94C81C61E03C
:1041300082E20E94C81C61E083E20E94C81C61E028
:1041400084E20E94C81C61E085E20E94C81C61E014
:1041500086E20E94C81C61E087E20E94C81C61E000
:1041600088E20E94C81C61E089E20E94C81C61E0EC
:104170008AE20E94C81C61E08BE20E94C81C61E0D8
:104180008CE20E94C81C61E08DE20E94C81C62E0C3
:1041900085EC96E00E94AB1385EC96E00E94000946
:1041A00085EC96E00E94000986EC92E00E94A71739
:1041B00061E082E00E94271161E085EC96E00E94B8
:1041C000F70884ED92E00E94A71764EF71E080E0A9
:1041D00090E00E94451D85EC96E00E94000980EE6B
:1041E00092E00E94A71710929805109297051092DE
:1041F000E105109203061092DF0511E01093DE0531
:104200001092B90561E084E10E94C81C61E085E17B
:104210000E94C81C8091B9008E7F8093B900809164
:10422000B9008D7F8093B90088E48093B80085E45D
:104230008093BC001093E00588E6809302061092FC
:10424000E105109203066EE08DEA96E00E9461059A
:104250000E94401681E090E00E949D169091970583
:10426000809198059817F1F38DEA96E00E94150564
:10427000082F0E94401611E01093E00588E6809315
:1042800002061092E105109203066EE08DEA96E0B8
:104290000E946105602F6B738DEA96E00E946105B4
:1042A0000E94401680ED97E09093050680930406E7
:1042B000109306061093070610920806109209063E
:1042C00010920A0686E080930B0680E795E3ADE640
:1042D000B8E380930C0690930D06A0930E06B0935E
:1042E0000F06ADE32A2E312C0E94630B0E94D00AE8
:1042F000813009F0EEC585EC96E00E94000960E08F
:1043000086E00E9427118AEE92E00E94A71768EECD
:1043100073E080E090E00E94451D44E650E060E0DC
:1043200070E08CE090E00E94300A61E080E00E9442
:10433000271164E085EC96E00E94F708812C912C0F
:1043400054018394D12C11E0E4E64E2E512C612CC3
:10435000712CFCE0EF2EF12C0E94D00A8823E1F3AF
:104360008130E9F4113009F472C0123009F467C0E9
:10437000133009F062C0AAE0B0E0A50194010E94E8
:10438000DC2B4B015C0185E688169104A104B10485
:1043900008F45FC0812C912C540183945AC0823060
:1043A00029F4115009F063C014E061C0833001F5B5
:1043B000113009F44CC0123061F481E0E81AF108C0
:1043C00001E01E141F040CF445C058E1E52EF12C49
:1043D00041C0133091F5481859086A087B0801E07C
:1043E000C9F54FE0442E47E2542E612C712C32C0A7
:1043F0008430B9F5113059F1123061F48FEFE81AB9
:10440000F80A01E089E1E816F10424F1EE24E394CE
:10441000F12C20C0133089F4480C591C6A1C7B1CF9
:1044200001E080E1481687E258066104710490F0CB
:10443000412C512C320143940DC0143051F42CED19
:1044400035E0B301A201C7010E94200C02C000E0C8
:1044500001C001E068EC70E080E090E00E94451D42
:104460000DC0853051F41F5F153008F010E068EC86
:1044700070E080E090E00E94451D01E0123061F0A4
:1044800020F4113071F4D12C0CC0133041F01430F1
:1044900041F4BEE0DB2E05C092E0D92E02C089E0D7
:1044A000D82EB301A201C7010E94300A61E08D2D10
:1044B0000E94271164E085EC96E00E94F708133013
:1044C00029F44AE0C501B4010E943C11011144CF16
:1044D0008CE090E00E94F20961E080E00E942711E8
:1044E00064E085EC96E00E94F708C12CD12C76019F
:1044F000C394712C01E0ACE08A2E912C0E94D00A6A
:104500008823E1F38130D1F4013009F49BC30330F7
:1045100009F092C3AAE0B0E0A70196010E94DC2B4B
:104520006B017C0185E6C816D104E104F10408F4AE
:104530008BC3C12CD12C7601C39486C3823029F45D
:10454000015009F08FC304E08DC3833009F058C1D6
:10455000013009F477C3023061F481E0881A9108D0
:1045600011E0181419040CF470C378E1872E912C13
:104570006CC3033009F060C3F4013197E831F105F1
:1045800008F062C38827EE55FF4F8F4F0C94382CEC
:104590008091930590919405A0919505B091960511
:1045A0008C199D09AE09BF095BC180918F0590915F
:1045B0009005A0919105B09192058C199D09AE09C5
:1045C000BF0963C180918B0590918C05A0918D05E9
:1045D000B0918E058C199D09AE09BF096BC1809100
:1045E000870590918805A0918905B0918A058C195D
:1045F0009D09AE09BF0973C180918305909184051F
:10460000A0918505B09186058C199D09AE09BF0959
:104610007BC180917F0590918005A0918105B0912B
:1046200082058C199D09AE09BF0983C180917B0564
:1046300090917C05A0917D05B0917E058C199D0916
:10464000AE09BF098BC18091770590917805A09143
:104650007905B0917A058C199D09AE09BF0993C1FE
:104660008091730590917405A0917505B0917605C0
:104670008C199D09AE09BF099BC180916F0590916E
:104680007005A0917105B09172058C199D09AE0954
:10469000BF09A3C180916B0590916C05A0916D0538
:1046A000B0916E058C199D09AE09BF09ABC180910F
:1046B000670590916805A0916905B0916A058C190C
:1046C0009D09AE09BF09B3C180916305909164054E
:1046D000A0916505B09166058C199D09AE09BF09C9
:1046E000BBC180915F0590916005A0916105B0917B
:1046F00062058C199D09AE09BF09C3C180915B0594
:1047000090915C05A0915D05B0915E058C199D09A5
:10471000AE09BF09CBC18091570590915805A09172
:104720005905B0915A058C199D09AE09BF09D3C12D
:104730008091530590915405A0915505B09156056F
:104740008C199D09AE09BF09DBC180914F0590917D
:104750005005A0915105B09152058C199D09AE09E3
:10476000BF09E3C180914B0590914C05A0914D0587
:10477000B0914E058C199D09AE09BF09EBC180911E
:10478000470590914805A0914905B0914A058C19BB
:104790009D09AE09BF09F3C180914305909144057D
:1047A000A0914505B09146058C199D09AE09BF0938
:1047B000FBC180913F0590914005A0914105B091CA
:1047C00042058C199D09AE09BF0903C280913B05C2
:1047D00090913C05A0913D05B0913E058C199D0935
:1047E000AE09BF090BC28091370590913805A091A1
:1047F0003905B0913A058C199D09AE09BF0913C25C
:10480000843009F029C2013009F41CC2023069F475
:104810008FEF881A980A11E089E1881691040CF448
:1048200014C288248394912C10C2033009F004C26E
:10483000F4013197E831F10508F006C28827E65403
:10484000FF4F8F4F0C94382C8091930590919405D5
:10485000A0919505B09196058C0D9D1DAE1DBF1DB7
:104860008093930590939405A0939505B093960536
:10487000EBC180918F0590919005A0919105B09129
:1048800092058C0D9D1DAE1DBF1D80938F059093CD
:104890009005A0939105B0939205D6C180918B05A8
:1048A00090918C05A0918D05B0918E058C0D9D1D6C
:1048B000AE1DBF1D80938B0590938C05A0938D0535
:1048C000B0938E05C1C18091870590918805A09114
:1048D0008905B0918A058C0D9D1DAE1DBF1D80936D
:1048E000870590938805A0938905B0938A05ACC18C
:1048F0008091830590918405A0918505B0918605EE
:104900008C0D9D1DAE1DBF1D809383059093840566
:10491000A0938505B093860597C180917F059091FE
:104920008005A0918105B09182058C0D9D1DAE1D65
:10493000BF1D80937F0590938005A0938105B09360
:10494000820582C180917B0590917C05A0917D05B7
:10495000B0917E058C0D9D1DAE1DBF1D80937B0506
:1049600090937C05A0937D05B0937E056DC18091E9
:10497000770590917805A0917905B0917A058C0D15
:104980009D1DAE1DBF1D8093770590937805A09364
:104990007905B0937A0558C180917305909174059B
:1049A000A0917505B09176058C0D9D1DAE1DBF1DA6
:1049B0008093730590937405A0937505B093760565
:1049C00043C180916F0590917005A0917105B091E0
:1049D00072058C0D9D1DAE1DBF1D80936F059093BC
:1049E0007005A0937105B09372052EC180916B057F
:1049F00090916C05A0916D05B0916E058C0D9D1D7B
:104A0000AE1DBF1D80936B0590936C05A0936D0543
:104A1000B0936E0519C18091670590916805A091CA
:104A20006905B0916A058C0D9D1DAE1DBF1D80935B
:104A3000670590936805A0936905B0936A0504C162
:104A40008091630590916405A0916505B09166051C
:104A50008C0D9D1DAE1DBF1D809363059093640555
:104A6000A0936505B0936605EFC080915F059091B6
:104A70006005A0916105B09162058C0D9D1DAE1D74
:104A8000BF1D80935F0590936005A0936105B0936F
:104A90006205DAC080915B0590915C05A0915D058F
:104AA000B0915E058C0D9D1DAE1DBF1D80935B05F5
:104AB00090935C05A0935D05B0935E05C5C08091A1
:104AC000570590915805A0915905B0915A058C0D44
:104AD0009D1DAE1DBF1D8093570590935805A09353
:104AE0005905B0935A05B0C0809153059091540573
:104AF000A0915505B09156058C0D9D1DAE1DBF1D95
:104B00008093530590935405A0935505B093560593
:104B10009BC080914F0590915005A0915105B09197
:104B200052058C0D9D1DAE1DBF1D80934F059093AA
:104B30005005A0935105B093520586C080914B0556
:104B400090914C05A0914D05B0914E058C0D9D1D89
:104B5000AE1DBF1D80934B0590934C05A0934D0552
:104B6000B0934E0571C08091470590914805A09182
:104B70004905B0914A058C0D9D1DAE1DBF1D80934A
:104B8000470590934805A0934905B0934A055CC03A
:104B90008091430590914405A0914505B09146054B
:104BA0008C0D9D1DAE1DBF1D809343059093440544
:104BB000A0934505B093460547C080913F0590916D
:104BC0004005A0914105B09142058C0D9D1DAE1D83
:104BD000BF1D80933F0590934005A0934105B0937E
:104BE000420532C080913B0590913C05A0913D0566
:104BF000B0913E058C0D9D1DAE1DBF1D80933B05E4
:104C000090933C05A0933D05B0933E051DC0809157
:104C1000370590913805A0913905B0913A058C0D72
:104C20009D1DAE1DBF1D8093370590933805A09341
:104C30003905B0933A0508C0043031F4C4010E942C
:104C40006C0A02C010E001C011E068EC70E080E086
:104C500090E00E94451D0DC0853051F40F5F053076
:104C600008F000E068EC70E080E090E00E94451DF4
:104C700011E0023061F020F4013071F4712C0CC0AD
:104C8000033041F0043041F43EE0732E05C052E0A1
:104C9000752E02C049E0742EC4010E94F20961E041
:104CA000872D0E94271164E085EC96E00E94F708AA
:104CB000033029F44AE0C701B6010E943C111111EA
:104CC0001DCC6FEE72E0CE0107960E94151EBE014C
:104CD000695F7F4FCE0101960E94FB1DCE010196B8
:104CE0000E94B909CE0101960E94F61D61E080E0A4
:104CF0000E94271164E085EC96E00E94F708FF24EB
:104D0000F394E12C11E00E94D00A8823E1F3813072
:104D100029F4113041F1123001F521C0823021F423
:104D2000115089F513E02FC0833051F41130D9F0C0
:104D3000123099F4FA94F11018C029E1F22E15C03E
:104D40008430D9F4113079F0123039F4F39489E1D8
:104D50008F1558F4FF24F39408C0133031F48F2DCD
:104D60000E94070E02C000E001C001E068EC70E0A4
:104D700080E090E00E94451D0DC0853051F41F5F1A
:104D8000143008F010E068EC70E080E090E00E94E1
:104D9000451D01E0123031F0133039F0113039F493
:104DA000E12C05C095E0E92E02C08EE0E82E8F2DA3
:104DB00090E0FC013197E931F10508F054C08827F3
:104DC000EE52FF4F8F4F0C94382C6FEE72E047C0BD
:104DD00068EF72E044C061E073E041C06AE073E0F4
:104DE0003EC063E173E03BC06CE173E038C065E254
:104DF00073E035C06EE273E032C067E373E02FC04A
:104E000060E473E02CC06AE473E029C064E573E0F9
:104E100026C06EE573E023C068E673E020C062E759
:104E200073E01DC06CE773E01AC067E873E017C059
:104E300065ED72E014C062E973E011C06EE973E0E1
:104E40000EC06AEA73E00BC066EB73E008C062EC68
:104E500073E005C06EEC73E002C06AED73E0CE0152
:104E600007960E94D51DBE01695F7F4FCE01019656
:104E70000E94FB1DCE0101960E94B909CE01019648
:104E80000E94F61D61E08E2D0E94271164E085ECE2
:104E900096E00E94F708011136CFCE0107960E94D6
:104EA000F61D85EC96E00E94000960E086E00E9415
:104EB000271186EE93E00E94A71768EE73E080E06A
:104EC00090E00E94451D30923102209230020E94F3
:104ED000630B0E94030B8091300290913102009786
:104EE00009F03EC080913605811169C081E0809350
:104EF00036051092350510923405109233058091D5
:104F00003105909132058530910508F458C08530FF
:104F1000910519F40E94AF0C52C09C012650310932
:104F20002630310508F44BC08C309105B1F468EEA1
:104F300073E080E090E00E94451D0CE010E028E85E
:104F400033E144E650E060E070E08BE290E00E94E4
:104F5000200C0150110999F732C04597D9F22FC0A2
:104F60008F30910561F480913505811128C0109230
:104F7000360581E080933505109234050EC08E31E0
:104F8000910571F480913405811119C01092360594
:104F90001092350581E080933405109233050FC0DF
:104FA0008D9769F480913305811109C010923605FF
:104FB000109235051092340581E0809333050E94EC
:104FC0009A0492C9E0E1F6E01382128288EE93E03F
:104FD000A0E0B0E084839583A683B7832AE632E01D
:104FE0003183208325EC30E03587248724EC30E0C2
:104FF0003787268720EC30E0318B208B21EC30E0A6
:10500000338B228B22EC30E0358B248B26EC30E086
:10501000378B268B118E128E138E148EEDEAF6E0EE
:105020001382128284839583A683B7838AE792E0F2
:1050300091838083E5ECF6E0138212828AE892E0A5
:105040009183808388E084838FEF858389E08683E2
:1050500084E0878385E0808786E0818787E0828798
:105060001386148615861686178661E0CF010E9486
:10507000AB136AEB72E08FEB96E00E94151E6AEBB1
:1050800072E089EB96E00C94151EEF920F931F933C
:10509000CF93DF93E80147FD02C034E001C034E163
:1050A000E42F440FFF0BF7FF03C0F195E195F109E1
:1050B000E32E022F2E2FAE010E946528CE01DF9134
:1050C000CF911F910F91EF9008954F925F926F9241
:1050D0007F929F92AF92BF92CF92DF92EF92FF9218
:1050E0000F931F93CF93DF93CDB7DEB729970FB6FA
:1050F000F894DEBF0FBECDBF6A01122FB02E2BE396
:10510000201720F0FF24F394F00E02C0BCE3FB2E26
:105110000F2D27E0AE014F5F5F4F0E94F329AC01D6
:105120008981982F9970913031F0E1FC06C0E0FE42
:1051300006C090E205C09DE203C09BE201C090E082
:10514000EE2DE07183FF3CC0911102C083E001C0ED
:1051500084E0811718F4212F281B01C020E0E11101
:105160000BC0F601822F30E2882319F03193815071
:10517000FBCFC20ED11C20E0992329F0D6019C93CD
:10518000F60131966F01C6010396E2FE0AC03EE4C5
:10519000D6013C9341E411964C93119712963C939F
:1051A00006C03EE6F601308341E641833283FC01CE
:1051B000322F40E2332309F442C041933150FACFF9
:1051C00082FF44C0911102C083E001C084E08117D6
:1051D00018F4212F281B01C020E0E1110BC0F601BB
:1051E000822F30E2882319F031938150FBCFC20E19
:1051F000D11C20E0992329F0D6019C93F601319629
:105200006F01C6010396E2FE0BC039E4D6013C9360
:105210003EE411963C93119736E412963C9307C0F6
:1052200039E6F60130833EE6318336E63283FC010F
:10523000322F40E2332319F041933150FBCFFC0170
:10524000E20FF11D10828EEF9FEFB7C0F1E09111D8
:1052500001C0F0E06F2F70E01416150624F49A01D7
:105260002F5F3F4F02C021E030E0260F371FBB20E9
:1052700029F06B2D70E06F5F7F4F02C060E070E03F
:10528000260F371F612F70E0261737071CF4121BFB
:10529000212F01C020E03E2D387159F4D601322F64
:1052A00060E2332319F06D933150FBCFC20ED11C55
:1052B00020E0FF2331F0D6019C93B6016F5F7F4F52
:1052C0006B01E1110BC0F601922F30E3992319F025
:1052D00031939150FBCFC20ED11C20E09F2D940F33
:1052E0003A81782F7071A72E84FF03C0313309F4FF
:1052F0009150191624F4993018F098E001C091E00B
:10530000E42F852F57FF02C0E0E080E06E2F782F5A
:10531000E0E0F0E0AEE29A2E3A01691A71082A0143
:10532000461A570A0B2D10E01195019511096F3F90
:105330008FEF780729F4D6019C92C60101966C0183
:105340004617570784F0661677066CF47F01E40C65
:10535000F51CA1E0B0E0AC0FBD1FEA0EFB1ED701AB
:105360001196BC9002C090E3B92E6150710931963C
:10537000C60101967C016017710724F0D601BC922A
:105380006C01D5CF6417750741F4363320F43533FB
:1053900021F4A11002C081E3B82EF601B082F7011A
:1053A000822F90E2882319F091938150FBCFF7016F
:1053B000E20FF11D108280E090E029960FB6F8947C
:1053C000DEBF0FBECDBFDF91CF911F910F91FF9038
:1053D000EF90DF90CF90BF90AF909F907F906F90B5
:1053E0005F904F900895283008F027E03327DA01C6
:1053F000990F311D87FD916000966105710539F4A3
:1054000032602E5F3D9330E32A95E1F708959F3F88
:1054100030F080387105610509F03C5F3C5F3D93D9
:10542000913008F08068911DDF93CF931F930F9305
:10543000FF92EF92192F987F9695E92F9695969562
:10544000E90FFF27EC56FA4F99273327EE24FF2464
:10545000A701E70105900894079428F4360FE71E8A
:10546000F81E491F511D660F771F881F991F06944C
:10547000A1F70590079428F4E70EF81E491F561F60
:10548000C11D770F881F991F661F0694A1F705900D
:10549000079428F4F80E491F561FC71FD11D880F07
:1054A000991F661F771F0694A1F70590079420F4B3
:1054B000490F561FC71FD81F990F661F771F881FD8
:1054C0000694A9F784911095177041F0D695C79569
:1054D00057954795F794E7941A95C1F7EAE3F5E0F5
:1054E00068941590159135916591959105907FE29D
:1054F0007395E118F10A430B560BC90BD009C0F79D
:10550000E10CF11E431F561FC91FD01D7EF47033DE
:1055100011F48A95E6CFE894015030F0080F0AF4B0
:105520000027021708F4202F2395022F7A3328F042
:1055300079E37D932A95E9F710C07D932A9589F642
:10554000069497956795379517951794E118F10A82
:10555000430B560BC90BD00998F023957E91739598
:105560007A3308F070E37C932013B8F77E91706172
:105570007D9330F0839571E37D9370E32A95E1F795
:105580001124EF90FF900F911F91CF91DF919927F8
:1055900087FD90950895E89409C097FB3EF4909597
:1055A0008095709561957F4F8F4F9F4F9923A9F0FC
:1055B000F92F96E9BB279395F6958795779567958B
:1055C000B795F111F8CFFAF4BB0F11F460FF1BC0CF
:1055D0006F5F7F4F8F4F9F4F16C0882311F096E962
:1055E00011C0772321F09EE8872F762F05C0662310
:1055F00071F096E8862F70E060E02AF09A95660FC9
:10560000771F881FDAF7880F9695879597F9089581
:105610000E941B2B0C948C2B0E947E2B38F00E9436
:10562000852B20F0952311F00C94752B0C947B2B7B
:1056300011240C94C02B0E949D2B70F3959FC1F3F5
:10564000950F50E0551F629FF001729FBB27F00D30
:10565000B11D639FAA27F00DB11DAA1F649F662785
:10566000B00DA11D661F829F2227B00DA11D621FD4
:10567000739FB00DA11D621F839FA00D611D221F8E
:10568000749F3327A00D611D231F849F600D211D72
:10569000822F762F6A2F11249F5750409AF0F1F0F5
:1056A00088234AF0EE0FFF1FBB1F661F771F881F5E
:1056B00091505040A9F79E3F510580F00C94752BF6
:1056C0000C94C02B5F3FE4F3983ED4F38695779516
:1056D0006795B795F795E7959F5FC1F7FE2B880F04
:1056E000911D9695879597F9089597F99F6780E89A
:1056F00070E060E008959FEF80EC089500240A9424
:105700001616170618060906089500240A9412169C
:105710001306140605060895092E0394000C11F4CF
:10572000882352F0BB0F40F4BF2B11F460FF04C07C
:105730006F5F7F4F8F4F9F4F089557FD9058440FD5
:10574000551F59F05F3F71F04795880F97FB991FE0
:1057500061F09F3F79F0879508951216130614069D
:10576000551FF2CF4695F1DF08C01616170618062A
:10577000991FF1CF86957105610508940895E89405
:10578000BB2766277727CB0197F90895F999FECFB4
:1057900092BD81BDF89A992780B50895262FF99971
:1057A000FECF1FBA92BD81BD20BD0FB6F894FA9A04
:1057B000F99A0FBE019608950E94E72BA59F900DC0
:1057C000B49F900DA49F800D911D11240895A29F58
:1057D000B001B39FC001A39F700D811D1124911DC5
:1057E000B29F700D811D1124911D0895991B79E0C0
:1057F00004C0991F961708F0961B881F7A95C9F761
:105800008095089597FB072E16F4009407D077FD36
:1058100009D00E94402C07FC05D03EF4909581955C
:105820009F4F0895709561957F4F0895A1E21A2EBC
:10583000AA1BBB1BFD010DC0AA1FBB1FEE1FFF1F34
:10584000A217B307E407F50720F0A21BB30BE40B84
:10585000F50B661F771F881F991F1A9469F76095CB
:105860007095809590959B01AC01BD01CF01089585
:10587000EE0FFF1F881F8BBF0790F691E02D199444
:10588000AA1BBB1B51E107C0AA1FBB1FA617B70766
:1058900010F0A61BB70B881F991F5A95A9F7809582
:1058A0009095BC01CD010895CF93DF93823091058F
:1058B00010F482E090E0E091E806F091E90620E043
:1058C00030E0C0E0D0E0309711F1408151814817BD
:1058D0005907C0F04817590761F4828193812097D6
:1058E00019F09B838A832BC09093E9068093E80686
:1058F00026C02115310519F04217530718F49A01F3
:10590000BE01DF01EF010280F381E02DDCCF211524
:10591000310509F1281B390B2430310590F412961A
:105920008D919C9113976115710521F0FB01938373
:10593000828304C09093E9068093E806FD013296C5
:1059400044C0FD01E20FF31F81939193225031096E
:105950002D933C933AC02091E6063091E706232B25
:1059600041F420913C0230913D023093E7062093B0
:10597000E60620913A0230913B022115310541F4AF
:105980002DB73EB740913E0250913F02241B350B8C
:10599000E091E606F091E706E217F307A0F42E1B6C
:1059A0003F0B2817390778F0AC014E5F5F4F241783
:1059B000350748F04E0F5F1F5093E7064093E60609
:1059C0008193919302C0E0E0F0E0CF01DF91CF91AD
:1059D00008950F931F93CF93DF93009709F48CC022
:1059E000FC013297138212820091E8061091E906B9
:1059F0000115110581F420813181820F931F2091BF
:105A0000E6063091E7062817390779F5F093E7069F
:105A1000E093E60671C0D80140E050E0AE17BF0742
:105A200050F412962D913C911397AD01211531053B
:105A300009F1D901F3CF9D01DA013383228360811B
:105A40007181860F971F8217930769F4EC012881F3
:105A50003981260F371F2E5F3F4F318320838A8184
:105A60009B8193838283452B29F4F093E906E0938D
:105A7000E80642C01396FC93EE931297ED0149910C
:105A800059919E01240F351FE217F30771F48081AD
:105A90009181840F951F029611969C938E9382811B
:105AA000938113969C938E931297E0E0F0E0D801D7
:105AB00012968D919C911397009719F0F8018C0123
:105AC000F6CF8D919C9198012E5F3F4F820F931FCF
:105AD0002091E6063091E7062817390769F43097D8
