:100000000C9453010C948F050C9464050C943905E1
:100010000C940E050C94E3040C94B8040C948D0419
:100020000C9462040C9484010C9484010C9484015B
:100030000C9484010C9484010C9484010C9484012C
:100040000C9484010C9484010C9484010C9484011C
:100050000C9484010C9484010C9484010C94180475
:100060000C9484010C94E4050C94BA050C9484015E
:100070000C9484010C9484010C9484010C948401EC
:100080000C9484010C9484010C9484010C948401DC
:100090000C9484010C9484010C9484010C941A0631
:1000A0000C9484010C9484010C9484010C948401BC
:1000B0000C9484010C9484010C9484010C948401AC
:1000C0000C9484010C9484010C9484010C9484019C
:1000D0000C9484010C9484010C9484010C9484018C
:1000E0000C94840139093C092B092F093309730940
:1000F000400944094A094E09520958095C09600936
:10010000730966096A096E090C9460090C94B502BA
:100110000C9437020C9411020C9443030C9466095E
:100120000C94E5010C9440090C9452090C94580964
:100130000C94CC070C946E020C944E090C943C0960
:100140000C9439090C94210C0C9429020C94270C62
:100150000C942F090C9442030C9444090C946E09DE
:100160000C946A090C9452030C942B090C946603AA
:100170000C9415020C944A090C9433090C946E03E8
:100180000C945C090C949E030C94E6010C94730986
:1001900000030205000305010406020400000A0B27
:1001A00002090C0D0E080703040100000000000006
:1001B000000000000000000000000000000000003F
:1001C00000000000000000001211100000000000FC
:1001D000000000000000000000000000000000001F
:1001E000000000002200250028002B002E00310016
:1001F000340002010000050108010B01000021008C
:10020000240027002A002D003000330001010000E7
:10021000040107010A010505050507050808080886
:10022000020202020A0A080804040404010101018E
:100230000101010103030303030303030407070789
:100240000C0C0C0C0C0C0C0C02020202060606062E
:10025000060606060B0B0B0B0B0B0B0B01021020FB
:1002600020080810204010204080020102010804EC
:100270000201010204081020408080402010080480
:1002800002018004020180402010080402010804D9
:10029000020101020408102040800102040810201D
:1002A0004080270C210C11241FBECFEFD1E2DEBF0E
:1002B000CDBF00E00CBF24E0ACE8B2E001C01D926D
:1002C000A132B207E1F712E0A0E0B2E0EAEEFFE10E
:1002D00000E00BBF02C007900D92AC38B107D9F710
:1002E00011E0C2E5D1E000E006C021970109802FAE
:1002F000FE010E94B00DC135D10780E00807A9F7C3
:100300000E9487090C94E30F0C9400003FB7F89407
:100310008091D9029091DA02A091DB02B091DC02C7
:1003200026B5A89B05C02F3F19F00196A11DB11D50
:100330003FBFBA2FA92F982F8827820F911DA11D8B
:10034000B11DBC01CD0142E0660F771F881F991FC8
:100350004A95D1F708958F929F92AF92BF92CF9214
:10036000DF92EF92FF926B017C010E9486014B01AC
:100370005C01C114D104E104F104F1F00E94860192
:10038000DC01CB0188199909AA09BB09883E934071
:10039000A105B10570F321E0C21AD108E108F10806
:1003A00088EE880E83E0981EA11CB11CC114D104F4
:1003B000E104F10419F7DDCFFF90EF90DF90CF90CB
:1003C000BF90AF909F908F9008950895CF92DF9245
:1003D000EF92FF920F931F93CF93DF936C017A01FB
:1003E0008B01C0E0D0E0CE15DF0589F0D8016D911A
:1003F0008D01D601ED91FC910190F081E02DC601B7
:100400001995892B11F47E0102C02196ECCFC7010A
:10041000DF91CF911F910F91FF90EF90DF90CF90E0
:10042000089581E080938C020895FC01918D828D66
:10043000981761F0828DDF01A80FB11D5D968C9138
:10044000928D9F5F9F73928F90E008958FEF9FEF43
:100450000895FC01918D828D981731F0828DE80FFF
:10046000F11D858D90E008958FEF9FEF0895FC01B9
:10047000918D228D892F90E0805C9F4F821B910986
:100480008F739927089586E593E00E94370221E053
:10049000892B09F420E0822F0895FC01848DDF016F
:1004A000A80FB11DA35ABF4F2C91848D90E00196E7
:1004B0008F739927848FA689B7892C93A089B189D6
:1004C0008C9180648C93938D848D981306C00288E0
:1004D000F389E02D80818F7D80830895EF92FF92D4
:1004E0000F931F93CF93DF93EC0181E0888F9B8D57
:1004F0008C8D981305C0E889F989808185FD24C019
:10050000F62E0B8D10E00F5F1F4F0F731127E02E9B
:100510008C8DE8120CC00FB607FCFACFE889F98978
:10052000808185FFF5CFCE010E944D02F1CF8B8DEA
:10053000FE01E80FF11DE35AFF4FF0820B8FEA89AD
:10054000FB898081806207C0EE89FF896083E8892A
:10055000F98980818064808381E090E0DF91CF9190
:100560001F910F91FF90EF900895CF93DF93EC01CF
:10057000888D8823C9F0EA89FB89808185FD05C0C3
:10058000A889B9898C9186FD0FC00FB607FCF5CFFD
:10059000808185FFF2CFA889B9898C9185FFEDCF45
:1005A000CE010E944D02E7CFDF91CF91089580E008
:1005B00090E0892B21F00E944302811125C080E048
:1005C00090E0892B41F080E090E0892B21F00E949F
:1005D000000081111CC080E090E0892B41F080E098
:1005E00090E0892B21F00E940000811113C080E06F
:1005F00090E0892BA1F080E090E0892B81F00E94AF
:10060000000081110AC008950E940000D8CF0E9406
:100610000000E1CF0E940000EACF0C940000089592
:1006200085ED8093BC008091BC0084FDFCCF1092CE
:10063000310308954091AF02262F30E0240F311D81
:1006400021323105DCF4209131032430C9F4FC015E
:1006500080E090E0861758F43091AF022191DC01E0
:10066000A357BD4FA30FB11D2C930196F3CF8091DB
:10067000AF02680F6093AF0280E0089581E00895B3
:1006800082E008950895E091DE028091DD02E8178E
:1006900030F4F0E0E152FD4F808190E008958FEF5B
:1006A0009FEF08959091DE028091DD02981750F43B
:1006B000E92FF0E0E152FD4F208130E09F5F909301
:1006C000DE0202C02FEF3FEFC90108958091DD02E5
:1006D00090E02091DE02821B91090895CF92DF9273
:1006E000EF92FF920F931F93CF93DF937C01262FFE
:1006F000972F8A0180913203882391F0C62FD72F3C
:100700006E01C40ED51ECC15DD0571F06991D701BF
:10071000ED91FC910190F081E02DC7011995F3CF87
:10072000642F822F0E941A03C801DF91CF911F917D
:100730000F91FF90EF90DF90CF900895CF93DF93CC
:100740001F92CDB7DEB76983209132032223D1F007
:1007500020915503203240F021E030E0FC0133834A
:10076000228380E090E015C080913303E82FF0E011
:10077000EC5CFC4F998190838F5F8093330380936F
:10078000550305C061E0CE0101960E941A0381E085
:1007900090E00F90DF91CF910895CF93DF93EC011C
:1007A00060E08E810E940A0961E08E810E940A0940
:1007B00060E08E810E940A098BE891E00197F1F7D1
:1007C000DF91CF910895CF92DF92EF92FF920F9336
:1007D0001F93CF93DF936A017B01890101978831D1
:1007E000910540F4FC01EA5CFD4FC0810C2E000C29
:1007F000DD0B02C0C0E0D0E061E08C2F0E940A094E
:10080000C701B6010E94AB0160E08C2F0E940A096B
:10081000B80180E090E00E94AB01DF91CF911F9181
:100820000F91FF90EF90DF90CF9008950E94CE0F30
:100830001F920F920FB60F9211242F933F938F9315
:100840009F93AF93BF938091D5029091D602A091D0
:10085000D702B091D8023091D40223E0230F2D3774
:1008600020F40196A11DB11D05C026E8230F0296B4
:10087000A11DB11D2093D4028093D5029093D6027E
:10088000A093D702B093D8028091D9029091DA0256
:10089000A091DB02B091DC020196A11DB11D8093F5
:1008A000D9029093DA02A093DB02B093DC02BF91ED
:1008B000AF919F918F913F912F910F900FBE0F900D
:1008C0001F9018951F920F920FB60F9211240BB61E
:1008D0000F922F933F934F935F936F937F938F93D9
:1008E0009F93AF93BF93EF93FF93E0912E02F0910C
:1008F0002F021995FF91EF91BF91AF919F918F9129
:100900007F916F915F914F913F912F910F900BBE0F
:100910000F900FBE0F901F9018951F920F920FB659
:100920000F9211240BB60F922F933F934F935F9327
:100930006F937F938F939F93AF93BF93EF93FF93A7
:10094000E0912C02F0912D021995FF91EF91BF914A
:10095000AF919F918F917F916F915F914F913F9157
:100960002F910F900BBE0F900FBE0F901F901895F8
:100970001F920F920FB60F9211240BB60F922F9366
:100980003F934F935F936F937F938F939F93AF9317
:10099000BF93EF93FF93E0912202F0912302199508
:1009A000FF91EF91BF91AF919F918F917F916F9147
:1009B0005F914F913F912F910F900BBE0F900FBE03
:1009C0000F901F9018951F920F920FB60F9211243F
:1009D0000BB60F922F933F934F935F936F937F9339
:1009E0008F939F93AF93BF93EF93FF93E091200278
:1009F000F09121021995FF91EF91BF91AF919F91D5
:100A00008F917F916F915F914F913F912F910F90B7
:100A10000BBE0F900FBE0F901F9018951F920F9254
:100A20000FB60F9211240BB60F922F933F934F9353
:100A30005F936F937F938F939F93AF93BF93EF9346
:100A4000FF93E0912A02F0912B021995FF91EF910B
:100A5000BF91AF919F918F917F916F915F914F91D6
:100A60003F912F910F900BBE0F900FBE0F901F90D4
:100A700018951F920F920FB60F9211240BB60F927A
:100A80002F933F934F935F936F937F938F939F9396
:100A9000AF93BF93EF93FF93E0912802F091290267
:100AA0001995FF91EF91BF91AF919F918F917F9198
:100AB0006F915F914F913F912F910F900BBE0F90CF
:100AC0000FBE0F901F9018951F920F920FB60F92A6
:100AD00011240BB60F922F933F934F935F936F9315
:100AE0007F938F939F93AF93BF93EF93FF93E09187
:100AF0002602F09127021995FF91EF91BF91AF91D6
:100B00009F918F917F916F915F914F913F912F9125
:100B10000F900BBE0F900FBE0F901F9018951F9255
:100B20000F920FB60F9211240BB60F922F933F9393
:100B30004F935F936F937F938F939F93AF93BF93E5
:100B4000EF93FF93E0912402F09125021995FF9114
:100B5000EF91BF91AF919F918F917F916F915F9135
:100B60004F913F912F910F900BBE0F900FBE0F90A2
:100B70001F9018951F920F920FB60F9211240BB66B
:100B80000F922F933F934F935F936F937F938F9326
:100B90009F93AF93BF93EF93FF9386E593E00E94FB
:100BA0004D02FF91EF91BF91AF919F918F917F91F6
:100BB0006F915F914F913F912F910F900BBE0F90CE
:100BC0000FBE0F901F9018951F920F920FB60F92A5
:100BD00011240BB60F922F938F939F93EF93FF9354
:100BE000E0916603F09167038081E0916C03F091DE
:100BF0006D0382FD12C0908180916F038F5F8F73B0
:100C000020917003821751F0E0916F03F0E0EA5AEF
:100C1000FC4F958F80936F0301C08081FF91EF910E
:100C20009F918F912F910F900BBE0F900FBE0F9041
:100C30001F9018951F920F920FB60F9211240BB6AA
:100C40000F922F933F934F935F936F937F938F9365
:100C50009F93AF93BF93EF93FF938091B900887FE9
:100C6000803609F49CC068F5883209F45BC090F4C2
:100C7000803109F454C038F4882309F4F6C0883070
:100C800009F44DC0F6C0883109F44CC0803209F433
:100C90005DC0EFC0803409F468C048F4803309F4C3
:100CA00055C0883309F0E5C080932F03D8C0803544
:100CB00009F44FC0883509F45DC0883409F0D9C003
:100CC000D6C0883909F4C7C0A8F4883709F467C0CA
:100CD00038F4883609F463C0803709F460C0C9C0AD
:100CE000883809F4B8C0803909F45FC0803809F049
:100CF000C0C05BC0803B09F486C038F4803A09F478
:100D000066C0883A09F47FC0B4C0803C09F4A7C02B
:100D1000883C09F4A4C0883B09F48AC0AAC0809129
:100D20000C0310C090912E0380912D03981770F53D
:100D3000E0912E0381E08E0F80932E03F0E0E35FBD
:100D4000FC4F80818093BB0085EC86C080932F038D
:100D50008EC0E0912E0381E08E0F80932E03809150
:100D6000BB00F0E0E35FFC4F808390912E03809105
:100D70002D036EC0E0912E0381E08E0F80932E0331
:100D80008091BB00F0E0E35FFC4F808380913003F3
:100D900081116DC081E080930B0384EA61C083E020
:100DA000809331031092D302CFCF8091D30280324F
:100DB00008F051C0E091D30281E08E0F8093D302FE
:100DC0008091BB00F0E0ED54FD4F8083BDCF85ECFA
:100DD0008093BC00109231038091D302803230F4B2
:100DE000E091D302F0E0ED54FD4F10826091D30208
:100DF00070E0E091B102F091B20283EB92E01995BC
:100E00001092D30236C084E0809331031092B00276
:100E10001092AF02E091AD02F091AE02199580916F
:100E2000AF02811105C081E08093AF0210928D0264
:100E3000E091B00281E08E0F8093B002F0E0E357C2
:100E4000FD4F80818093BB009091B0028091AF02F2
:100E5000981708F479CF85E88093BC000AC085EC28
:100E60008093BC001092310304C010922F030E94A3
:100E70001003FF91EF91BF91AF919F918F917F915F
:100E80006F915F914F913F912F910F900BBE0F90FB
:100E90000FBE0F901F901895CF92DF92EF92FF92A6
:100EA0000F931F93CF93DF937C016C0187E0C80EF3
:100EB000D11CC0E0D0E0062F10E0B8010C2E02C01B
:100EC000759567950A94E2F76170F60181916F015B
:100ED0000E940A092196C430D10579F7C701DF9134
:100EE000CF911F910F91FF90EF90DF90CF900C94D6
:100EF000CD03CF92DF92EF92FF920F931F93CF9388
:100F0000DF93EC01F62E642F8C810E940A098D81FB
:100F10008F3F19F060E00E940A098F850F2D10E0C5
:100F200084FF25C06E0187E0C80ED11CE12CF12C96
:100F3000B8010E2C02C0759567950A94E2F76170AE
:100F4000F60181916F010E940A09FFEFEF1AFF0A73
:100F500088E0E816F10461F7CE01DF91CF911F918F
:100F60000F91FF90EF90DF90CF900C94CD03B801DC
:100F700084E0759567958A95E1F7CE010E944C074C
:100F80006F2DCE01DF91CF911F910F91FF90EF90C8
:100F9000DF90CF900C944C0741E00E94790781E0EC
:100FA00090E0089540E00C94790790E0FC01E45A49
:100FB000FD4F2491FC01EA5EFD4F8491882399F056
:100FC00090E0880F991FFC01E450FE4FA591B49169
:100FD000FC01EE51FE4F859194918FB7F894EC91FE
:100FE000E22BEC938FBF0895209155039091540309
:100FF000213208F04AC0809131038111FCCF32E0E8
:101000003093310331E0309330033FEF30932F03BF
:1010100010922E0320932D03A4E3B3E04DE053E0A0
:10102000FA013E2F341B321718F43D913193F9CF5A
:1010300010920C0320910C03990F922B90930C03A8
:1010400090910B03913061F410920B0390910C037B
:101050009093BB009091BC0093FDF8CF95EC01C03C
:1010600095EE9093BC00909131039230E1F3909112
:101070002F039F3F79F080912F03803241F08091C0
:101080002F03803331F084E005C081E003C082E0AB
:1010900001C083E010923303109255031092320383
:1010A0000895CF93C62F91E09093320398E69093E2
:1010B00054031092330310925503682F83EF93E08B
:1010C0000E949E036C2F83EF93E00E949E03CF91BA
:1010D0000C94F407CF9391E09093320398E69093A9
:1010E00054031092330310925503682F83EF93E05B
:1010F0000E949E030E94F407809131038111FCCF6E
:1011000081E080933103809330039FEF90932F030E
:1011100010922E0310922D0380930C0380910C03E8
:10112000806D80930C0380910B03813061F41092E9
:101130000B0380910C038093BB008091BC0083FD66
:10114000F8CF85EC01C085EE8093BC00809131031F
:101150008130E1F380912E03811103C080912E0331
:1011600001C081E0ADE0B3E02FED32E0F9019E2F48
:10117000921B981718F49D919193F9CF1092DE026B
:101180008093DD02811101C0FFCF83EF93E00E94C5
:101190005203C82F0E94F4078C2FCF910895FC01B1
:1011A000908190539A3008F090E0818180532AE03A
:1011B000929F800D11240895EF92FF920F931F9339
:1011C000CF93DF931F92CDB7DEB7162F877028E03D
:1011D000829FC0011124682F60648FEF93E07983B0
:1011E0000E94D207E12E7981F72E8701085F1F4FF9
:1011F000F70161917F018FEF93E00E94CC07E01629
:10120000F106B1F70F90DF91CF911F910F91FF90F1
:10121000EF900895362F90E0FC01E456FE4F449184
:10122000FC01E45AFD4F2491FC01EA5EFD4F9491CC
:10123000992309F46BC0442309F455C050E0FA0126
:101240003197E231F10508F04EC08827EE58FF4F84
:101250008F4F0C94B00D809180008F7707C08091E4
:1012600080008F7D03C080918000877F8093800005
:101270003AC084B58F7702C084B58F7D84BD33C0FA
:101280008091B0008F7703C08091B0008F7D8093F4
:10129000B00029C0809190008F7707C080919000A6
:1012A0008F7D03C080919000877F809390001BC04A
:1012B0008091A0008F7707C08091A0008F7D03C030
:1012C0008091A000877F8093A0000DC080912001B5
:1012D0008F7707C0809120018F7D03C0809120010E
:1012E000877F80932001E92FF0E0EE0FFF1FEE5182
:1012F000FE4FA591B4918FB7F894EC91311103C0D2
:1013000020952E2301C02E2B2C938FBF0895789407
:1013100084B5826084BD84B5816084BD85B58260FA
:1013200085BD85B5816085BD80916E0081608093AB
:101330006E00109281008091810082608093810014
:101340008091810081608093810080918000816024
:10135000809380008091B10084608093B10080917F
:10136000B00081608093B000809191008260809392
:101370009100809191008160809391008091900014
:101380008160809390008091A10082608093A10091
:101390008091A10081608093A1008091A000816074
:1013A0008093A0008091210182608093210180912F
:1013B00021018160809321018091200181608093CF
:1013C000200180917A00846080937A0080917A0075
:1013D000826080937A0080917A00816080937A00A5
:1013E00080917A00806880937A001092C100E09129
:1013F0006603F091670382E08083E0916203F091DD
:1014000063031082E0916403F09165038FEC8083A5
:1014100010926E03E0916A03F0916B03C6E0C08303
:10142000E0916803F0916903808180618083E0919D
:101430006803F0916903808188608083E09168038C
:10144000F0916903808180688083E0916803F09166
:10145000690380818F7D808368E172E080E00E9473
:10146000DC0860E172E081E00E94DC0868E072E084
:1014700082E00E94DC0860E072E083E00E94DC0809
:1014800085E10E94D50786E10E94D50787E10E9489
:10149000D50788E10E94D50789E10E94D5078AE136
:1014A0000E94D5078BE10E94D5078CE10E94D507E9
:1014B0008DE10E94D5078EE10E94D5078FE10E9441
:1014C000D50780E20E94D50781E20E94D50782E21B
:1014D0000E94D50783E20E94D50784E20E94D507C7
:1014E00085E20E94D50786E20E94D50787E20E9426
:1014F000D50788E20E94D50789E20E94D5078AE2D3
:101500000E94D5078BE20E94D5078CE20E94D50786
:101510001092DE021092DD021092330310925503F6
:101520001092310301E00093300310920B0361E04D
:1015300084E10E940A0961E085E10E940A09809124
:10154000B9008E7F8093B9008091B9008D7F809320
:10155000B90088E48093B80085E48093BC008EE0F5
:101560000E946A08682F6B738EE00E94510880ED1C
:1015700097E0909300038093FF0200930103009390
:101580000203109203031092040310920503C09308
:10159000060380E795E3ADE6B8E3809307039093F5
:1015A0000803A0930903B0930A038EE00E946A081F
:1015B000682F64608EE00E9451088FE792E00E94DD
:1015C000CF08C82F8AE792E00E94CF08182F82E840
:1015D00092E00E94CF08F82E85E892E00E94CF08A2
:1015E000E82E88E892E00E94CF08D82ED0E0C053C1
:1015F000D84F0093320388E680935403109233034C
:101600001092550360E083EF93E00E949E030AE08E
:101610008D2D602F0E94900D692F20E1829F600D1B
:10162000112483EF93E00E949E038E2D602F0E9471
:10163000900D692F20E1829F600D112483EF93E0CC
:101640000E949E038F2D602F0E94900D692F20E134
:10165000829F600D112483EF93E00E949E03EAE9CC
:10166000F1E0E491212F30E02E0F311D2B5F3F4F31
:101670002C0F3D1FCE019695879596958795280F3F
:10168000391FCE0164E670E00E949C0DC901861BE3
:10169000970B67E070E00E949C0D009709F487E0CB
:1016A000DAE06D2F0E94900D692F83EF93E00E9486
:1016B0009E03812F6D2F0E94900D692F20E1829F44
:1016C000600D112483EF93E00E949E0361E183EF9C
:1016D00093E00E949E038C2F805D6D2F0E94900DE1
:1016E000692F20E1829F600D112483EF93E00E9417
:1016F0009E0360E083EF93E00E949E030E94F40744
:1017000081E08093320388E6809354031092330380
:101710001092550367E083EF93E00E949E0361E01F
:1017200083EF93E00E949E0360E883EF93E00E94C2
:101730009E0360E883EF93E00E949E0360E883EFDE
:1017400093E00E949E030E94F4078EE00E946A08C4
:10175000682F61608EE00E9451088FE00E946A0845
:10176000682F6E7F8FE00E94510881E192E0909394
:1017700021028093200280916A008C7F8260809396
:101780006A00EC9A20ED37E04AEF50E060E070E04C
:101790008BE090E00E94E30320ED37E048E151E068
:1017A00060E070E083E090E00E94E30328EB3BE020
:1017B0004AEF50E060E070E082E090E00E94E303D6
:1017C00028E833E14CE251E060E070E08CE090E02A
:1017D0000E94E30320ED37E04CE251E060E070E06E
:1017E00081E090E00E94E30361E080E20E940A0948
:1017F00061E088E10E940A0961E08BE20E940A0927
:101800006CE271E080E090E00E94AB0160E080E279
:101810000E940A0960E088E10E940A0960E08BE208
:101820000E940A0960ED77E080E090E00E94AB0141
:1018300060E177E280E090E00E94AB010E94D70275
:10184000A1CF80911704909118040C944D0ECF9362
:10185000DF93109259031092580388EE93E0A0E0B2
:10186000B0E080935A0390935B03A0935C03B09322
:101870005D0322E532E0309357032093560325ECB5
:1018800030E0309363032093620324EC30E0309324
:1018900065032093640320EC30E0309367032093CA
:1018A000660321EC30E0309369032093680322EC57
:1018B00030E030936B0320936A0326EC30E03093E2
:1018C0006D0320936C0310926F03109270031092BB
:1018D0007103109272031092F6031092F503809335
:1018E000F7039093F803A093F903B093FA0382E609
:1018F00092E09093F4038093F303109218041092F3
:10190000170410921A041092190410921C041092D9
:101910001B0461E070E080E090E00E94E50E00971B
:1019200091F0909318048093170410921A04109267
:10193000190420911B0430911C04232B09F0E7C0EB
:10194000FC011082E4C08091170490911804009764
:1019500011F00E944D0E109218041092170410926C
:101960001C0410921B0410921A0410921904109275
:1019700002041092010482E792E0909300048093A5
:10198000FF0388E0809303048FEF8093040489E0D1
:101990008093050484E08093060485E08093070427
:1019A00086E08093080487E08093090410920A047B
:1019B00010920B0410920C0410920D0410920E045D
:1019C00081E0809312041092130480E48093140445
:1019D00080E18093150480E58093160488E00E94DE
:1019E000D507809104048F3F11F00E94D5078091A4
:1019F00005040E94D507C0E0D0E080910E0484FD6C
:101A000003C084E090E002C088E090E0C817D907E6
:101A100044F4FE01E150FC4F87810E94D5072196D6
:101A2000ECCF8BE39DE00197F1F760E08091030438
:101A30000E940A0960E0809105040E940A098091D1
:101A400004048F3F19F060E00E940A0960910E04BF
:101A500064FD20C063E08FEF93E00E944C07CBE46D
:101A6000D6E4CE010197F1F763E08FEF93E00E9497
:101A70004C072197F1F763E08FEF93E00E944C074A
:101A800083E592E00197F1F762E08FEF93E00E9427
:101A90004C071BC060628FEF93E00E94D2078BE47B
:101AA00096E40197F1F760910E0460628FEF93E086
:101AB0000E94D20783E592E00197F1F760910E044E
:101AC00060628FEF93E00E94D20760910E04606223
:101AD0008FEF93E00E94D20784E080930F046CE0C4
:101AE0008FEF93E00E94D20761E08FEF93E00E94B6
:101AF000D2078BE39FE10197F1F782E08093100416
:101B000066E08FEF93E0DF91CF910C94D2071092B3
:101B10001C0410921B046AE872E00E94DC0F27CFBD
:101B2000991B79E004C0991F961708F0961B881F2F
:101B30007A95C9F780950895AA1BBB1B51E107C090
:101B4000AA1FBB1FA617B70710F0A61BB70B881F4D
:101B5000991F5A95A9F780959095BC01CD010895DC
:101B6000EE0FFF1F881F8BBF0790F691E02D199491
:101B7000CF93DF938230910510F482E090E0E09102
:101B80001F04F091200420E030E0C0E0D0E0309766
:101B900011F14081518148175907C0F04817590782
:101BA00061F482819381209719F09B838A832BC0F3
:101BB0009093200480931F0426C02115310519F04D
:101BC0004217530718F49A01BE01DF01EF010280AA
:101BD000F381E02DDCCF2115310509F1281B390BEC
:101BE0002430310590F412968D919C9113976115D4
:101BF000710521F0FB019383828304C0909320043C
:101C000080931F04FD01329644C0FD01E20FF31FD3
:101C100081939193225031092D933C933AC02091A6
:101C20001D0430911E04232B41F420913202309187
:101C3000330230931E0420931D0420913002309112
:101C400031022115310541F42DB73EB740913402E0
:101C500050913502241B350BE0911D04F0911E04B8
:101C6000E217F307A0F42E1B3F0B2817390778F073
:101C7000AC014E5F5F4F2417350748F04E0F5F1FD2
:101C800050931E0440931D048193919302C0E0E0A1
:101C9000F0E0CF01DF91CF9108950F931F93CF9381
:101CA000DF93009709F48CC0FC01329713821282F3
:101CB00000911F04109120040115110581F4208169
:101CC0003181820F931F20911D0430911E0428172B
:101CD000390779F5F0931E04E0931D0471C0D80113
:101CE00040E050E0AE17BF0750F412962D913C91A2
:101CF0001397AD012115310509F1D901F3CF9D01EC
:101D0000DA013383228360817181860F971F8217E6
:101D1000930769F4EC0128813981260F371F2E5F64
:101D20003F4F318320838A819B8193838283452B1C
:101D300029F4F0932004E0931F0442C01396FC930F
:101D4000EE931297ED01499159919E01240F351F91
:101D5000E217F30771F480819181840F951F029639
:101D600011969C938E938281938113969C938E936C
:101D70001297E0E0F0E0D80112968D919C911397B4
:101D8000009719F0F8018C01F6CF8D919C91980184
:101D90002E5F3F4F820F931F20911D0430911E0430
:101DA0002817390769F4309729F41092200410920B
:101DB0001F0402C01382128210931E0400931D049C
:101DC000DF91CF911F910F9108956F927F928F9223
:101DD0009F92AF92BF92CF92DF92EF92FF920F93BA
:101DE0001F93CF93DF93EC01009789F4CB01DF9130
:101DF000CF911F910F91FF90EF90DF90CF90BF9008
:101E0000AF909F908F907F906F900C94B80DFC01D5
:101E1000E60FF71F9C0122503109E217F30708F47F
:101E2000ACC0D9010D911C91119706171707B0F09E
:101E30000530110508F49FC0C8010497861797075D
:101E400008F499C002501109061B170B0193119356
:101E50006D937C93CF010E944D0E8DC05B01A01A43
:101E6000B10A4C01800E911EA0911F04B091200474
:101E700040E050E0E12CF12C109709F44AC0A8157D
:101E8000B905D1F56D907C901197630182E0C80E81
:101E9000D11CCA14DB0480F1A3014A195B096A0151
:101EA00082E0C80ED11C1296BC9012971396AC918A
:101EB000B5E0CB16D10440F0B282A38351834083B6
:101EC000D9016D937C930AC00E5F1F4FC301800F31
:101ED000911FF90191838083EB2DFA2FE114F10416
:101EE00031F0D7011396FC93EE93129744C0F09310
:101EF0002004E0931F043FC08D919C9111974817D7
:101F0000590708F4AC017D0112960D90BC91A02DEB
:101F1000B3CF80911D0490911E0488159905E1F4BA
:101F200046175707C8F4809130029091310200970C
:101F300041F48DB79EB74091340250913502841B15
:101F4000950BE817F907C8F4F0931E04E0931D04FD
:101F5000F901718360830FC0CB010E94B80D7C0131
:101F6000009759F0A801BE010E94D30FCE010E9434
:101F70004D0EC70104C0CE0102C080E090E0DF91A9
:101F8000CF911F910F91FF90EF90DF90CF90BF9076
:101F9000AF909F908F907F906F90089581E090E038
:101FA000F8940C94E30FFB01DC0102C001900D9248
:101FB00041505040D8F70895FB01DC0101900D928B
:101FC0000020E1F7089511E0C2E5D1E000E006C08D
:101FD000802FFE010E94B00D2196011DC335D1074F
:0A1FE00080E00807A9F7F894FFCF8E
:101FEA00000004021F020400000004081F08040085
:101FFA000E0F0909191B030000040E0E1F1F04000F
:10200A00E501E501E501E501E501E501E501E50196
:10201A0000002104800015161718191A1B1C1D1E12
:10202A001F202122232425262728292A2B2C000099
:10203A0000006E02E601370215022902B50200000D
:10204A0000009E036E03660352034303420300002B
:10205A000000CC07E6014E6F76203137203230314E
:0C206A00370031343A35363A323200008B
:00000001FF
