:100000000C9433010C9464010C9464010C9464010D
:100010000C9464010C9464010C9464010C946401CC
:100020000C9464010C9464010C9464010C946401BC
:100030000C9464010C9464010C9464010C946401AC
:100040000C9464010C9464010C9464010C9464019C
:100050000C9464010C9464010C9464010C944C03A2
:100060000C9464010C9464010C9464010C9464017C
:100070000C9464010C9464010C9464010C9464016C
:100080000C9464010C9464010C9464010C9464015C
:100090000C9464010C9464010C9464010C9464014C
:1000A0000C9464010C9464010C9464010C9464013C
:1000B0000C9464010C9464010C9464010C9464012C
:1000C0000C9464010C9464010C9464010C9464011C
:1000D0000C9464010C9464010C9464010C9464010C
:1000E0000C946401B401B701A601AA01AE01EE01AE
:1000F000BB01BF01C501C901CD01D301D701DB019E
:10010000EE01E101E501E9010C94A6010C94E50181
:100110000C94CD010C94D7010C94C9010C94EE0100
:100120000C94A1040C94E9010C94B7010C946102A5
:100130000C94E1010C94D3010C94AA010C942203B9
:100140000C94DB010C94BB010C94BA050C94BF0118
:100150000C94AE010C94B4010C94C50100000A0B80
:1001600002090C0D0E080703040100000000000046
:10017000000000000000000000000000000000007F
:10018000000000000000000012111000000000003C
:10019000000000000000000000000000000000005F
:1001A000000000002200250028002B002E00310056
:1001B000340002010000050108010B0100002100CC
:1001C000240027002A002D00300033000101000028
:1001D000040107010A0105050505070508080808C7
:1001E000020202020A0A08080404040401010101CF
:1001F00001010101030303030303030304070707CA
:100200000C0C0C0C0C0C0C0C02020202060606066E
:10021000060606060B0B0B0B0B0B0B0B010210203B
:10022000200808102040102040800201020108042C
:1002300002010102040810204080804020100804C0
:100240000201800402018040201008040201080419
:10025000020101020408102040800102040810205D
:100260004080A104BA0511241FBECFEFD1E2DEBF4A
:10027000CDBF00E00CBF22E0A2E2B2E001C01D92BF
:10028000AD34B207E1F712E0A0E0B2E0EAE0F0E15D
:1002900000E00BBF02C007900D92A232B107D9F760
:1002A00011E0C2E3D1E000E006C021970109802FF0
:1002B000FE010E94C005C133D10780E00807A9F7FD
:1002C0000E9496030C94F3070C94000090E0FC014C
:1002D000E45EFD4F2491FC01EA52FE4F8491882395
:1002E00099F090E0880F991FFC01E454FE4FA5910E
:1002F000B491FC01EE55FE4F859194918FB7F8941F
:10030000EC91E22BEC938FBF0895362F90E0FC0127
:10031000E45AFE4F4491FC01E45EFD4F2491FC0140
:10032000EA52FE4F9491992309F46BC0442309F4D7
:1003300055C050E0FA013197E231F10508F04EC0A6
:100340008827EE58FF4F8F4F0C94C0058091800096
:100350008F7707C0809180008F7D03C080918000DF
:10036000877F809380003AC084B58F7702C084B5C0
:100370008F7D84BD33C08091B0008F7703C08091A2
:10038000B0008F7D8093B00029C0809190008F775E
:1003900007C0809190008F7D03C080919000877F7F
:1003A000809390001BC08091A0008F7707C0809140
:1003B000A0008F7D03C08091A000877F8093A00064
:1003C0000DC0809120018F7707C0809120018F7D23
:1003D00003C080912001877F80932001E92FF0E006
:1003E000EE0FFF1FEE55FE4FA591B4918FB7F89415
:1003F000EC91311103C020952E2301C02E2B2C939C
:100400008FBF08953FB7F8948091450290914602BE
:10041000A0914702B091480226B5A89B05C02F3F86
:1004200019F00196A11DB11D3FBFBA2FA92F982F1A
:100430008827820F911DA11DB11DBC01CD0142E095
:10044000660F771F881F991F4A95D1F708958F92DD
:100450009F92AF92BF92CF92DF92EF92FF926B0189
:100460007C010E9402024B015C01C114D104E10431
:10047000F104F1F00E940202DC01CB018819990914
:10048000AA09BB09883E9340A105B10570F321E09C
:10049000C21AD108E108F10888EE880E83E0981EA0
:1004A000A11CB11CC114D104E104F10419F7DDCF82
:1004B000FF90EF90DF90CF90BF90AF909F908F9084
:1004C0000895CF92DF92EF92FF920F931F93CF93F5
:1004D000DF936C017A018B01C0E0D0E0CE15DF051F
:1004E00089F0D8016D918D01D601ED91FC910190BB
:1004F000F081E02DC6011995892B11F47E0102C00F
:100500002196ECCFC701DF91CF911F910F91FF9002
:10051000EF90DF90CF900895CF93DF93EC0160E0F0
:100520008E810E94850161E08E810E94850160E0DC
:100530008E810E9485018BE891E00197F1F7DF91B0
:10054000CF910895CF92DF92EF92FF920F931F9376
:10055000CF93DF937C016C0187E0C80ED11CC0E013
:10056000D0E0062F10E0B8010C2E02C075956795FB
:100570000A94E2F76170F60181916F010E94850192
:100580002196C430D10579F7C701DF91CF911F9132
:100590000F91FF90EF90DF90CF900C948C02CF9250
:1005A000DF92EF92FF920F931F93CF93DF93EC01B3
:1005B000F62E642F8C810E9485018D818F3F19F06A
:1005C00060E00E9485018F850F2D10E084FF25C01B
:1005D0006E0187E0C80ED11CE12CF12CB8010E2C65
:1005E00002C0759567950A94E2F76170F6018191F2
:1005F0006F010E948501FFEFEF1AFF0A88E0E816FD
:10060000F10461F7CE01DF91CF911F910F91FF901F
:10061000EF90DF90CF900C948C02B80184E0759538
:1006200067958A95E1F7CE010E94A2026F2DCE0157
:10063000DF91CF911F910F91FF90EF90DF90CF90BE
:100640000C94A20241E00E94CF0281E090E0089564
:1006500040E00C94CF02FF920F931F93CF93DF9350
:10066000F82E8B01EA0161E00E948501B80180E06B
:1006700090E00E94270260E08F2D0E948501BE015C
:1006800080E090E00E942702DF91CF911F910F91AF
:10069000FF9008950E94DE071F920F920FB60F92EF
:1006A00011242F933F938F939F93AF93BF93809188
:1006B000410290914202A0914302B09144023091D4
:1006C000400223E0230F2D3720F40196A11DB11D18
:1006D00005C026E8230F0296A11DB11D20934002FC
:1006E0008093410290934202A0934302B09344024C
:1006F0008091450290914602A0914702B091480234
:100700000196A11DB11D8093450290934602A093CE
:100710004702B0934802BF91AF919F918F913F9153
:100720002F910F900FBE0F901F901895789484B55D
:10073000826084BD84B5816084BD85B5826085BDDD
:1007400085B5816085BD80916E00816080936E006B
:10075000109281008091810082608093810080915D
:10076000810081608093810080918000816080930E
:1007700080008091B10084608093B1008091B000CE
:1007800081608093B000809191008260809391009D
:1007900080919100816080939100809190008160B0
:1007A000809390008091A10082608093A10080914D
:1007B000A10081608093A1008091A000816080935E
:1007C000A00080912101826080932101809121010C
:1007D00081608093210180912001816080932001BC
:1007E00080917A00846080937A0080917A008260A0
:1007F00080937A0080917A00816080937A00809162
:100800007A00806880937A001092C10060E488E2E8
:1008100092E00E942803C8E0D2E0699188E292E069
:100820000E94220382E0C031D807B9F768E488E269
:1008300092E00E942803C0E0D2E0699188E292E051
:100840000E94220382E0C830D807B9F781E00E94F5
:10085000660182E00E94660183E00E94660182E2F6
:100860000E94660183E20E94660184E20E946601A2
:1008700085E20E94660186E20E94660187E20E948C
:10088000660188E20E9466018BE00E9466018CE0AE
:100890000E9466018DE00E9466018EE00E94660162
:1008A0008FE00E94660180E10E94660181E10E9462
:1008B000660182E10E94660183E10E94660184E193
:1008C0000E94660185E10E94660186E10E94660140
:1008D00087E10E94660188E10E94660188E10E942A
:1008E0006601C0E0D0E040ED57E06AEF70E08BE0D9
:1008F0000E942B0340ED57E068E171E083E00E9425
:100900002B0348EB5BE06AEF70E082E00E942B0370
:1009100048E853E16CE271E08CE00E942B0340ED6B
:1009200057E06CE271E081E00E942B0360E177E226
:1009300080E090E00E9427022097A9F20E94000028
:10094000D2CFCF93DF931092230210922202109203
:10095000250210922402109227021092260264E0CF
:1009600070E080E090E00E94F5060097A1F090937F
:1009700023028093220223E030E03093250220936B
:1009800024022091260230912702232B09F0E7C090
:10099000FC011082E4C08091220290912302009712
:1009A00011F00E945D061092230210922202109212
:1009B0002702109226021092250210922402109211
:1009C0002B0210922A028AE192E0909329028093EE
:1009D000280288E080932C028FEF80932D0289E01B
:1009E00080932E0284E080932F0285E08093300272
:1009F00086E08093310287E08093320210923302C6
:100A00001092340210923502109236021092370280
:100A100081E080933B0210923C0280E480933D028F
:100A200080E180933E0280E580933F0288E00E944F
:100A3000660180912D028F3F11F00E946601809126
:100A40002E020E946601C0E0D0E08091370284FD52
:100A500003C084E090E002C088E090E0C817D907A6
:100A600044F4FE01E85DFD4F87810E9466012196F6
:100A7000ECCF8BE39DE00197F1F760E080912C02D1
:100A80000E94850160E080912E020E948501809184
:100A90002D028F3F19F060E00E94850160913702BE
:100AA00064FD20C063E088E292E00E94A202CBE4F1
:100AB000D6E4CE010197F1F763E088E292E00E946C
:100AC000A2022197F1F763E088E292E00E94A2027D
:100AD00083E592E00197F1F762E088E292E00E94FC
:100AE000A2021BC0606288E292E00E9428038BE4AD
:100AF00096E40197F1F760913702606288E292E034
:100B00000E94280383E592E00197F1F76091370294
:100B1000606288E292E00E9428036091370260627E
:100B200088E292E00E94280384E0809338026CE01F
:100B300088E292E00E94280361E088E292E00E944D
:100B400028038BE39FE10197F1F782E0809339025C
:100B500066E088E292E0DF91CF910C94280323E0D5
:100B600030E030932702209326026EE172E00E946B
:100B7000EC0725CF80912202909123020C945D0610
:100B8000EE0FFF1F881F8BBF0790F691E02D199481
:100B9000CF93DF938230910510F482E090E0E091F2
:100BA0004B02F0914C0220E030E0C0E0D0E0309702
:100BB00011F14081518148175907C0F04817590772
:100BC00061F482819381209719F09B838A832BC0E3
:100BD00090934C0280934B0226C02115310519F0E9
:100BE0004217530718F49A01BE01DF01EF0102809A
:100BF000F381E02DDCCF2115310509F1281B390BDC
:100C00002430310590F412968D919C9113976115C3
:100C1000710521F0FB019383828304C090934C0201
:100C200080934B02FD01329644C0FD01E20FF31F99
:100C300081939193225031092D933C933AC0209196
:100C4000490230914A02232B41F420911202309143
:100C5000130230934A0220934902209110023091EE
:100C600011022115310541F42DB73EB74091140210
:100C700050911502241B350BE0914902F0914A0274
:100C8000E217F307A0F42E1B3F0B2817390778F063
:100C9000AC014E5F5F4F2417350748F04E0F5F1FC2
:100CA00050934A02409349028193919302C0E0E03D
:100CB000F0E0CF01DF91CF9108950F931F93CF9371
:100CC000DF93009709F48CC0FC01329713821282E3
:100CD00000914B0210914C020115110581F4208105
:100CE0003181820F931F2091490230914A022817C7
:100CF000390779F5F0934A02E093490271C0D801AF
:100D000040E050E0AE17BF0750F412962D913C9191
:100D10001397AD012115310509F1D901F3CF9D01DB
:100D2000DA013383228360817181860F971F8217D6
:100D3000930769F4EC0128813981260F371F2E5F54
:100D40003F4F318320838A819B8193838283452B0C
:100D500029F4F0934C02E0934B0242C01396FC93AB
:100D6000EE931297ED01499159919E01240F351F81
:100D7000E217F30771F480819181840F951F029629
:100D800011969C938E938281938113969C938E935C
:100D90001297E0E0F0E0D80112968D919C911397A4
:100DA000009719F0F8018C01F6CF8D919C91980174
:100DB0002E5F3F4F820F931F2091490230914A02CC
:100DC0002817390769F4309729F410924C021092D1
:100DD0004B0202C01382128210934A02009349020E
:100DE000DF91CF911F910F9108956F927F928F9213
:100DF0009F92AF92BF92CF92DF92EF92FF920F93AA
:100E00001F93CF93DF93EC01009789F4CB01DF911F
:100E1000CF911F910F91FF90EF90DF90CF90BF90F7
:100E2000AF909F908F907F906F900C94C805FC01BD
:100E3000E60FF71F9C0122503109E217F30708F46F
:100E4000ACC0D9010D911C91119706171707B0F08E
:100E50000530110508F49FC0C8010497861797074D
:100E600008F499C002501109061B170B0193119346
:100E70006D937C93CF010E945D068DC05B01A01A2B
:100E8000B10A4C01800E911EA0914B02B0914C0210
:100E900040E050E0E12CF12C109709F44AC0A8156D
:100EA000B905D1F56D907C901197630182E0C80E71
:100EB000D11CCA14DB0480F1A3014A195B096A0141
:100EC00082E0C80ED11C1296BC9012971396AC917A
:100ED000B5E0CB16D10440F0B282A38351834083A6
:100EE000D9016D937C930AC00E5F1F4FC301800F21
:100EF000911FF90191838083EB2DFA2FE114F10406
:100F000031F0D7011396FC93EE93129744C0F093FF
:100F10004C02E0934B023FC08D919C911197481772
:100F2000590708F4AC017D0112960D90BC91A02DDB
:100F3000B3CF8091490290914A0288159905E1F456
:100F400046175707C8F4809110029091110200973C
:100F500041F48DB79EB74091140250911502841B45
:100F6000950BE817F907C8F4F0934A02E093490299
:100F7000F901718360830FC0CB010E94C8057C0119
:100F8000009759F0A801BE010E94E307CE010E941C
:100F90005D06C70104C0CE0102C080E090E0DF9191
:100FA000CF911F910F91FF90EF90DF90CF90BF9066
:100FB000AF909F908F907F906F90089581E090E028
:100FC000F8940C94F307FB01DC0102C001900D9230
:100FD00041505040D8F70895FB01DC0101900D927B
:100FE0000020E1F7089511E0C2E3D1E000E006C07F
:100FF000802FFE010E94C0052196011DC333D10739
:0A10000080E00807A9F7F894FFCF7D
:10100A000E0F0909191B030000040E0E1F1F04000E
:10101A0000004D02800000000000220361023F3FF1
:02102A003F0085
:00000001FF
