:100000000C9485010C94B6010C94B6010C94B601C5
:100010000C94B6010C94B6010C94B6010C94B60184
:100020000C94B6010C94B6010C94B6010C94B60174
:100030000C94B6010C94B6010C94B6010C94B60164
:100040000C94B6010C94B6010C94B6010C94B60154
:100050000C94B6010C94B6010C94B6010C944906AC
:100060000C94B6010C94BD060C9493060C94B60146
:100070000C94B6010C94B6010C94B6010C94B60124
:100080000C94B6010C94B6010C94B6010C94B60114
:100090000C94B6010C94B6010C94B6010C94B60104
:1000A0000C94B6010C94B6010C94B6010C94B601F4
:1000B0000C94B6010C94B6010C94B6010C94B601E4
:1000C0000C94B6010C94B6010C94B6010C94B601D4
:1000D0000C94B6010C94B6010C94B6010C94B601C4
:1000E0000C94B60106020902F801FC01000240026C
:1000F0000D02110217021B021F02250229022D0206
:100100004002330237023B02010AD309D509D7095D
:10011000D909DB09DD09DF09E109E309E509E70997
:10012000E909EB09ED09EF09F109F309F509F70907
:10013000F909FB09FD09FF090C94F9090C94060261
:100140000C9429020C94E5090C94B3020C94F30965
:100150000C9440020C94FD090C9444070C94EF0994
:100160000C9417020C94F8010C94F7090C94D5091F
:100170000C94DB090C940D020C9400020C940902FF
:100180000C94EB090C9433020C9400030C943B0286
:100190000C9425020C94F1090C94ED090C94010ABD
:1001A0000C947E030C94DF090C94E3090C94F20286
:1001B0000C94E7090C9437020C94FC010C946F0426
:1001C0000C94D9090C941B020C94E1090C94FB09C2
:1001D0000C94DD090C9437030C94D3090C94D709C3
:1001E0000C94EA0A0C94E9090C94DE020C942D029A
:1001F0000C94F5090C9411020C941F020C94FF0945
:1002000000000A0B02090C0D0E0807030401000090
:1002100000000000000000000000000000000000DE
:10022000000000000000000000000000121110009B
:1002300000000000000000000000000000000000BE
:1002400000000000000000002200250028002B0014
:100250002E003100340002010000050108010B01ED
:1002600000002100240027002A002D003000330068
:1002700001010000040107010A0105050505070544
:1002800008080808020202020A0A08080404040412
:10029000010101010101010103030303030303033E
:1002A000040707070C0C0C0C0C0C0C0C02020202CD
:1002B00006060606060606060B0B0B0B0B0B0B0BB6
:1002C0000102102020080810204010204080020168
:1002D000020108040201010204081020408080404D
:1002E000201008040201800402018040201008044C
:1002F00002010804020101020408102040800102EA
:100300000408102040804407EA0A11241FBECFEFE2
:10031000D1E2DEBFCDBF00E00CBF23E0A8E8B2E031
:1003200001C01D92A035B207E1F712E0A0E0B2E0F3
:10033000EEEAFAE100E00BBF02C007900D92A83888
:10034000B107D9F711E0C4E8D1E000E006C0219779
:100350000109802FFE010E94120BC338D10780E0F3
:100360000807A9F70E94F6070C94450D0C940000AD
:1003700090E0FC01E054FD4F2491FC01E658FD4F54
:100380008491882399F090E0880F991FFC01E05A2E
:10039000FD4FA591B491FC01EA5BFD4F85919491CD
:1003A0008FB7F894EC91E22BEC938FBF0895362F22
:1003B00090E0FC01E050FE4F4491FC01E054FD4F01
:1003C0002491FC01E658FD4F9491992309F46BC0E8
:1003D000442309F455C050E0FA013197E231F105A8
:1003E00008F04EC08827EE58FF4F8F4F0C94120B29
:1003F000809180008F7707C0809180008F7D03C03F
:1004000080918000877F809380003AC084B58F7789
:1004100002C084B58F7D84BD33C08091B0008F77DA
:1004200003C08091B0008F7D8093B00029C080917F
:1004300090008F7707C0809190008F7D03C08091DE
:100440009000877F809390001BC08091A0008F77E1
:1004500007C08091A0008F7D03C08091A000877F9E
:100460008093A0000DC0809120018F7707C08091FC
:1004700020018F7D03C080912001877F8093200120
:10048000E92FF0E0EE0FFF1FEA5BFD4FA591B4915D
:100490008FB7F894EC91311103C020952E2301C041
:1004A0002E2B2C938FBF08953FB7F89480918D0227
:1004B00090918E02A0918F02B091900226B5A89BD8
:1004C00005C02F3F19F00196A11DB11D3FBFBA2FE6
:1004D000A92F982F8827820F911DA11DB11DBC0146
:1004E000CD0142E0660F771F881F991F4A95D1F70B
:1004F00008958F929F92AF92BF92CF92DF92EF9228
:10050000FF926B017C010E9454024B015C01C114FB
:10051000D104E104F104F1F00E945402DC01CB01AA
:1005200088199909AA09BB09883E9340A105B1051C
:1005300070F321E0C21AD108E108F10888EE880EB4
:1005400083E0981EA11CB11CC114D104E104F10484
:1005500019F7DDCFFF90EF90DF90CF90BF90AF9075
:100560009F908F900895CF92DF92EF92FF920F931A
:100570001F93CF93DF936C017A018B01C0E0D0E031
:10058000CE15DF0589F0D8016D918D01D601ED9171
:10059000FC910190F081E02DC6011995892B11F491
:1005A0007E0102C02196ECCFC701DF91CF911F9150
:1005B0000F91FF90EF90DF90CF900895FC01918D07
:1005C000828D981761F0828DDF01A80FB11D5D96B5
:1005D0008C91928D9F5F9F73928F90E008958FEF23
:1005E0009FEF0895FC01918D828D981731F0828DD7
:1005F000E80FF11D858D90E008958FEF9FEF08952E
:10060000FC01918D228D892F90E0805C9F4F821B91
:1006100091098F739927089581E992E00E94000360
:1006200021E0892B09F420E0822F0895FC01848DBC
:10063000DF01A80FB11DA35ABF4F2C91848D90E00C
:1006400001968F739927848FA689B7892C93A089E7
:10065000B1898C9180648C93938D848D981306C09E
:100660000288F389E02D80818F7D80830895EF9249
:10067000FF920F931F93CF93DF93EC0181E0888F5C
:100680009B8D8C8D981305C0E889F989808185FD43
:1006900024C0F62E0B8D10E00F5F1F4F0F73112734
:1006A000E02E8C8DE8120CC00FB607FCFACFE8895B
:1006B000F989808185FFF5CFCE010E941603F1CF25
:1006C0008B8DFE01E80FF11DE35AFF4FF0820B8F77
:1006D000EA89FB898081806207C0EE89FF89608397
:1006E000E889F98980818064808381E090E0DF91EE
:1006F000CF911F910F91FF90EF900895CF93DF93CB
:10070000EC01888D8823C9F0EA89FB89808185FD09
:1007100005C0A889B9898C9186FD0FC00FB607FC6A
:10072000F5CF808185FFF2CFA889B9898C9185FFAB
:10073000EDCFCE010E941603E7CFDF91CF91089550
:1007400080E090E0892B21F00E940C03811125C0EC
:1007500080E090E0892B41F080E090E0892B21F04F
:100760000E94000081111CC080E090E0892B41F0C4
:1007700080E090E0892B21F00E940000811113C0DD
:1007800080E090E0892BA1F080E090E0892B81F05F
:100790000E94000081110AC008950E940000D8CF75
:1007A0000E940000E1CF0E940000EACF0C940000FC
:1007B0000895CF93DF93EC0160E08E810E94D70112
:1007C00061E08E810E94D70160E08E810E94D70196
:1007D0008BE891E00197F1F7DF91CF910895CF92E7
:1007E000DF92EF92FF920F931F93CF93DF937C01E1
:1007F0006C0187E0C80ED11CC0E0D0E0062F10E0ED
:10080000B8010C2E02C0759567950A94E2F76170E5
:10081000F60181916F010E94D7012196C430D10564
:1008200079F7C701DF91CF911F910F91FF90EF9062
:10083000DF90CF900C94D903CF92DF92EF92FF928A
:100840000F931F93CF93DF93EC01F62E642F8C81CF
:100850000E94D7018D818F3F19F060E00E94D7017F
:100860008F850F2D10E084FF25C06E0187E0C80E34
:10087000D11CE12CF12CB8010E2C02C075956795A6
:100880000A94E2F76170F60181916F010E94D7012D
:10089000FFEFEF1AFF0A88E0E816F10461F7CE01D6
:1008A000DF91CF911F910F91FF90EF90DF90CF904C
:1008B0000C94D903B80184E0759567958A95E1F7A2
:1008C000CE010E94EF036F2DCE01DF91CF911F91DA
:1008D0000F91FF90EF90DF90CF900C94EF0341E0E9
:1008E0000E941C0481E090E0089540E00C941C04F8
:1008F000643008F063E090914703691710F06FEFE0
:10090000690FE62FF0E0EC5CFC4F9489682F690FCB
:10091000606884E393E00C947504EF92FF920F9368
:100920001F93CF93DF931F92CDB7DEB7162F87703B
:1009300028E0829FC0011124682F606484E393E063
:1009400079830E947504E12E7981F72E8701085F73
:100950001F4FF70161917F0184E393E00E946F04D0
:10096000E016F106B1F70F90DF91CF911F910F9133
:10097000FF90EF90089561E00E9475048BE39FE182
:100980000197F1F70895EF92FF920F931F93CF9382
:10099000DF93EC01623018F08F8588608F876B8B56
:1009A0001C8A80E48D8B80E18E8B80E58F8B8C811F
:1009B0000E94B8018D818F3F11F00E94B8018E8195
:1009C0000E94B8017E0187E0E80EF11C00E010E013
:1009D0008F8584FD03C084E090E002C088E090E051
:1009E0000817190744F4F70181917F010E94B801AB
:1009F0000F5F1F4FEDCF8BE39DE00197F1F760E0B4
:100A00008C810E94D70160E08E810E94D7018D8188
:100A10008F3F19F060E00E94D7016F8564FD1DC013
:100A200063E0CE010E94EF030BE416E4C8010197D6
:100A3000F1F763E0CE010E94EF03C8010197F1F7DF
:100A400063E0CE010E94EF0383E592E00197F1F7A6
:100A500062E0CE010E94EF0316C06062CE010E94E8
:100A600075048BE496E40197F1F76F856062CE011F
:100A70000E94750483E592E00197F1F76F8560624B
:100A8000CE010E9475046F856062CE010E947504DC
:100A900084E0888B6CE0CE010E947504CE010E9438
:100AA000BB0482E0898B66E0CE01DF91CF911F917C
:100AB0000F91FF90EF900C9475046115710579F01A
:100AC000FB0101900020E9F73197AF01461B570B5E
:100AD000DC01ED91FC910280F381E02D199480E01E
:100AE00090E008954F925F926F927F92EF92FF9203
:100AF0000F931F93CF93DF93CDB7DEB7A1970FB6B8
:100B0000F894DEBF0FBECDBF7C01FA01CB0119A264
:100B1000223008F42AE08E010F5D1F4F422E512C27
:100B2000612C712CBF01A30192010E94F00AF9010E
:100B3000CA01015011096A3014F4605D01C0695C9A
:100B4000D8016C93232B242B252B61F7B801C70107
:100B50000E945D05A1960FB6F894DEBF0FBECDBF13
:100B6000DF91CF911F910F91FF90EF907F906F9049
:100B70005F904F900895CF92DF92EF92FF920F9384
:100B80001F93CF93DF93EC016A017B01E881F98128
:100B90000190F081E02D6DE219958C0144275527D5
:100BA000BA014C195D096E097F092AE0CE010E9445
:100BB0007205800F911FDF91CF911F910F91FF90D0
:100BC000EF90DF90CF9008950C945D051F93CF9325
:100BD000DF9380917B00877F80937B0080E480930C
:100BE0007C0080917A00806480937A0080917A0002
:100BF00086FDFCCFC091780080917900D0E0D82BA1
:100C0000C334D10594F0CD3DD1058CF0CC3881E0D2
:100C1000D8077CF0CA3582E0D8076CF011E0C936FD
:100C200083E0D8074CF010E007C015E005C014E0E1
:100C300003C013E001C012E0412F50E060E070E01B
:100C40002AE081E992E00E94720566E772E081E99C
:100C500092E00E94E405AE010D2E000C660B770BAE
:100C6000D7FF05C081E992E00E94BB0505C02AE0DC
:100C700081E992E00E9472056FE472E081E992E0FE
:100C80000E945D05812FDF91CF911F9108950E94F1
:100C9000300D1F920F920FB60F9211242F933F9396
:100CA0008F939F93AF93BF938091890290918A0213
:100CB000A0918B02B0918C023091880223E0230F27
:100CC0002D3720F40196A11DB11D05C026E8230F84
:100CD0000296A11DB11D20938802809389029093F2
:100CE0008A02A0938B02B0938C0280918D02909126
:100CF0008E02A0918F02B09190020196A11DB11DAC
:100D000080938D0290938E02A0938F02B0939002F5
:100D1000BF91AF919F918F913F912F910F900FBEF7
:100D20000F901F9018951F920F920FB60F921124DB
:100D30000BB60F922F933F934F935F936F937F93D5
:100D40008F939F93AF93BF93EF93FF9381E992E0CB
:100D50000E941603FF91EF91BF91AF919F918F91E8
:100D60007F916F915F914F913F912F910F900BBEAB
:100D70000F900FBE0F901F9018951F920F920FB6F5
:100D80000F9211240BB60F922F938F939F93EF9393
:100D9000FF93E091A102F091A2028081E091A7026D
:100DA000F091A80282FD12C090818091AA028F5F0B
:100DB0008F732091AB02821751F0E091AA02F0E00C
:100DC000EF56FD4F958F8093AA0201C08081FF915D
:100DD000EF919F918F912F910F900BBE0F900FBEAF
:100DE0000F901F901895AC01990F660B770B77FF4A
:100DF00004C084E393E00C94BB052AE084E393E011
:100E00000C947205CF92DF92EF92FF92CF93DF9313
:100E1000EC016A017B0184E393E00E94BB0460E083
:100E200080E00E94780460E084E393E00E946F0415
:100E300060E082E00E947804CE010E94F30660E048
:100E400084E00E94780466E472E084E393E00E9408
:100E5000E40560E089E00E9478042AE0B701A60179
:100E600084E393E00E94720560E08EE00E947804C3
:100E70006CE472E084E393E0DF91CF91FF90EF9018
:100E8000DF90CF900C94E40510929402109293029C
:100E900088EE93E0A0E0B0E08093950290939602F4
:100EA000A0939702B093980282E392E0909392020B
:100EB0008093910285EC90E090939E0280939D0236
:100EC00084EC90E09093A00280939F0280EC90E0ED
:100ED0009093A2028093A10281EC90E09093A402EF
:100EE0008093A30282EC90E09093A6028093A502E7
:100EF00086EC90E09093A8028093A7021092AA0239
:100F00001092AB021092AC021092AD021092370315
:100F10001092360382E492E0909335038093340379
:100F200088E0809338038FEF8093390389E08093C2
:100F30003A0384E080933B0385E080933C0386E0A2
:100F400080933D0387E080933E0310923F0310920D
:100F5000400310924103109242031092430361E058
:100F600084E393E00E94C30410922F0310922E0397
:100F70001092310310923003109233031092320317
:100F800061E070E080E090E00E94470C009789F0FB
:100F900090932F0380932E0310923103109230030D
:100FA0002091320330913303232BC1F4FC011082D2
:100FB00015C080912E0390912F03009711F00E948D
:100FC000AF0B10922F0310922E0310923303109246
:100FD00032031092310310923003089510923303BC
:100FE0001092320361E572E00C943E0D789484B562
:100FF000826084BD84B5816084BD85B5826085BD15
:1010000085B5816085BD80916E00816080936E00A2
:101010001092810080918100826080938100809194
:101020008100816080938100809180008160809345
:1010300080008091B10084608093B1008091B00005
:1010400081608093B00080919100826080939100D4
:1010500080919100816080939100809190008160E7
:10106000809390008091A10082608093A100809184
:10107000A10081608093A1008091A0008160809395
:10108000A000809121018260809321018091210143
:1010900081608093210180912001816080932001F3
:1010A00080917A00846080937A0080917A008260D7
:1010B00080937A0080917A00816080937A00809199
:1010C0007A00806880937A001092C100E091A102BA
:1010D000F091A20282E08083E0919D02F0919E0255
:1010E0001082E0919F02F091A0028FEC8083109219
:1010F000A902E091A502F091A60286E08083E0912A
:10110000A302F091A402808180618083E091A30218
:10111000F091A402808188608083E091A302F09125
:10112000A402808180688083E091A302F091A402F0
:1011300080818F7D808360E272E080E00E948D0478
:1011400068E172E081E00E948D0460E172E082E07B
:101150000E948D0468E072E083E00E948D0460E0EC
:1011600072E084E00E948D0486E10E94B80187E16C
:101170000E94B80188E10E94B80189E10E94B8018B
:101180008AE10E94B8018BE10E94B8018CE10E94C3
:10119000B8018DE10E94B8018EE10E94B8018FE193
:1011A0000E94B80180E20E94B80181E20E94B80169
:1011B00082E20E94B80183E20E94B80184E20E94A8
:1011C000B80185E20E94B80186E20E94B80187E278
:1011D0000E94B80188E20E94B80189E20E94B80129
:1011E0008AE20E94B8018BE20E94B8018CE20E9460
:1011F000B8018DE20E94B80161E086E10E94D7014A
:1012000061E087E10E94D70161E088E10E94D70197
:1012100061E089E10E94D70161E08AE10E94D70183
:1012200061E08BE10E94D70161E08CE10E94D7016F
:1012300061E08DE10E94D70161E08EE10E94D7015B
:1012400061E08FE10E94D70161E080E20E94D70156
:1012500061E081E20E94D70161E082E20E94D70151
:1012600061E083E20E94D70161E084E20E94D7013D
:1012700061E085E20E94D70161E086E20E94D70129
:1012800061E087E20E94D70161E088E20E94D70115
:1012900061E089E20E94D70161E08AE20E94D70101
:1012A00061E08BE20E94D70161E08CE20E94D701ED
:1012B00061E08DE20E94D70162E084E393E00E9446
:1012C000C30484E393E00E94BB0484E393E00E94A0
:1012D000BB0462E572E084E393E00E94E40561E010
:1012E00082E00E94780461E084E393E00E946F044E
:1012F00060E672E084E393E00E94E40560ED77E04D
:1013000080E090E00E9479020E94E605813009F0B9
:1013100049C184E393E00E94BB0460E086E00E9440
:1013200078046CE672E084E393E00E94E40568EEE2
:1013300073E080E090E00E9479024CE251E060E0CE
:1013400070E08CE090E00E94020761E080E00E9483
:10135000780464E084E393E00E946F04B12C5CE2C3
:10136000C52EDD24D394E12CF12C0CE010E0C1E07B
:101370000E94E605882309F4C0C0813009F075C0D9
:10138000C13009F4B8C0C43009F0B7C0F8013197D2
:10139000E831F10530F48827EC57FF4F8F4F0C945C
:1013A000120BE80130C0C7E12DC0C8E12BC0C9E174
:1013B00029C0CAE127C0CBE125C0CCE123C0CDE1E3
:1013C00021C0CEE11FC0CFE11DC0C0E21BC0C1E201
:1013D00019C0C2E217C0C3E215C0C4E213C0C5E21F
:1013E00011C0C6E20FC0C7E20DC0C8E20BC0C9E21F
:1013F00009C0CAE207C0CBE205C0CCE203C0CDE21F
:1014000001C0C6E1D0E084E393E00E94BB0461E048
:1014100083E00E94780460E084E393E00E946F041C
:1014200066E772E084E393E00E94E405C8010E944D
:10143000F30661E772E084E393E00E94E405CE01E5
:101440000E94F30660E08C2F0E94D701C701B6010D
:101450000E94790261E08C2F0E94D7016CED75E04B
:1014600080E090E00E94790268C0823021F4C1508F
:1014700009F463C042C08330A9F4C13009F43BC011
:10148000C23039F401501109101611060CF441C094
:101490003EC0C33091F581E0C81AD108E108F108D7
:1014A000E9F142C08430F9F4C13029F1C23041F48D
:1014B0000F5F1F4F0931110564F101E010E029C0F1
:1014C000C330D9F48FEFC81AD80AE80AF80A80E1C5
:1014D000C81687E2D806E104F10430F1C12CD12C02
:1014E0007601C39421C0853041F4CF5FC53028F028
:1014F000D1E0C0E026C0D0E007C0C23051F0C8F44F
:10150000C13009F052C0D1E0C1E0B12C1AC008E1ED
:1015100010E0D1E0C2E032E0B32E13C08FE0C82E5D
:1015200087E2D82EE12CF12CD1E0C3E029E0B22EE5
:1015300008C0C330C9F3C430C1F5D1E0C4E09EE0B7
:10154000B92EB701A601C8010E94020761E08B2DE8
:101550000E94780464E084E393E00E946F0466E9EB
:1015600070E080E090E00E947902D11101CF84E325
:1015700093E00E94BB0468EE73E080E090E00E947C
:10158000790261E080E00E94780468E772E084E319
:1015900093E00E94E4056CED75E080E090E00E942D
:1015A0007902E5CF0E94A003AFCEB701A601C80122
:1015B0000E94020761E08B2D0E94780464E084E3BE
:1015C00093E00E946F0466E970E080E090E00E9482
:1015D0007902CECE80912E0390912F030C94AF0B05
:1015E000A1E21A2EAA1BBB1BFD010DC0AA1FBB1F27
:1015F000EE1FFF1FA217B307E407F50720F0A21B99
:10160000B30BE40BF50B661F771F881F991F1A9405
:1016100069F760957095809590959B01AC01BD012F
:10162000CF010895EE0FFF1F881F8BBF0790F69123
:10163000E02D1994CF93DF938230910510F482E06E
:1016400090E0E0914E03F0914F0320E030E0C0E0E5
:10165000D0E0309711F14081518148175907C0F00F
:101660004817590761F482819381209719F09B8371
:101670008A832BC090934F0380934E0326C021157D
:10168000310519F04217530718F49A01BE01DF0122
:10169000EF010280F381E02DDCCF2115310509F146
:1016A000281B390B2430310590F412968D919C91B2
:1016B00013976115710521F0FB019383828304C0A8
:1016C00090934F0380934E03FD01329644C0FD0179
:1016D000E20FF31F81939193225031092D933C9394
:1016E0003AC020914C0330914D03232B41F42091BB
:1016F0002A0230912B0230934D0320934C0320910A
:101700002802309129022115310541F42DB73EB749
:1017100040912C0250912D02241B350BE0914C037B
:10172000F0914D03E217F307A0F42E1B3F0B28178F
:10173000390778F0AC014E5F5F4F2417350748F04A
:101740004E0F5F1F50934D0340934C038193919331
:1017500002C0E0E0F0E0CF01DF91CF9108950F9358
:101760001F93CF93DF93009709F48CC0FC0132974D
:101770001382128200914E0310914F03011511053F
:1017800081F420813181820F931F20914C0330918D
:101790004D032817390779F5F0934D03E0934C0377
:1017A00071C0D80140E050E0AE17BF0750F4129668
:1017B0002D913C911397AD012115310509F1D90106
:1017C000F3CF9D01DA013383228360817181860F1B
:1017D000971F8217930769F4EC0128813981260F3E
:1017E000371F2E5F3F4F318320838A819B819383F4
:1017F0008283452B29F4F0934F03E0934E0342C0BC
:101800001396FC93EE931297ED01499159919E0125
:10181000240F351FE217F30771F480819181840F43
:10182000951F029611969C938E93828193811396B5
:101830009C938E931297E0E0F0E0D80112968D9180
:101840009C911397009719F0F8018C01F6CF8D91B8
:101850009C9198012E5F3F4F820F931F20914C0364
:1018600030914D032817390769F4309729F4109205
:101870004F0310924E0302C01382128210934D0345
:1018800000934C03DF91CF911F910F9108956F92B8
:101890007F928F929F92AF92BF92CF92DF92EF9200
:1018A000FF920F931F93CF93DF93EC01009789F47E
:1018B000CB01DF91CF911F910F91FF90EF90DF90BF
:1018C000CF90BF90AF909F908F907F906F900C942F
:1018D0001A0BFC01E60FF71F9C0122503109E21799
:1018E000F30708F4ACC0D9010D911C9111970617AC
:1018F0001707B0F00530110508F49FC0C801049720
:101900008617970708F499C002501109061B170B98
:10191000019311936D937C93CF010E94AF0B8DC007
:101920005B01A01AB10A4C01800E911EA0914E03DA
:10193000B0914F0340E050E0E12CF12C109709F4F6
:101940004AC0A815B905D1F56D907C901197630137
:1019500082E0C80ED11CCA14DB0480F1A3014A192D
:101960005B096A0182E0C80ED11C1296BC901297E6
:101970001396AC91B5E0CB16D10440F0B282A383AC
:1019800051834083D9016D937C930AC00E5F1F4F32
:10199000C301800F911FF90191838083EB2DFA2FF2
:1019A000E114F10431F0D7011396FC93EE931297F2
:1019B00044C0F0934F03E0934E033FC08D919C9140
:1019C00011974817590708F4AC017D0112960D9044
:1019D000BC91A02DB3CF80914C0390914D038815FD
:1019E0009905E1F446175707C8F4809128029091B1
:1019F0002902009741F48DB79EB740912C02509177
:101A00002D02841B950BE817F907C8F4F0934D03DA
:101A1000E0934C03F901718360830FC0CB010E94F6
:101A20001A0B7C01009759F0A801BE010E94350DE8
:101A3000CE010E94AF0BC70104C0CE0102C080E0FE
:101A400090E0DF91CF911F910F91FF90EF90DF9089
:101A5000CF90BF90AF909F908F907F906F900895A0
:101A600081E090E0F8940C94450DFB01DC0102C08C
:101A700001900D9241505040D8F70895FB01DC01D0
:101A800001900D920020E1F7089511E0C4E8D1E043
:101A900000E006C0802FFE010E94120B2196011D5E
:0E1AA000C538D10780E00807A9F7F894FFCFFA
:101AAE00040E1F00001F0E04000004021F0204009B
:101ABE00000004081F0804000E0F0909191B03007B
:101ACE0000040E0E1F1F04000000500380000000D3
:101ADE0000003703B3020003DE02F2027E030000B1
:101AEE0000006F04B3022064656C20004F4B000DA4
:101AFE000A002020204D4547415A564F4E323400A1
:101B0E00206D656C6F646961455832004D454E55C8
:101B1E0000202050494E2000205245534554207439
:081B2E006F2065786974000066
:00000001FF
