:100000000C945A030C948B030C948B030C948B0369
:100010000C948B030C948B030C948B030C948B0328
:100020000C948B030C948B030C948B030C948B0318
:100030000C948B030C948B030C948B030C948B0308
:100040000C948B030C948B030C948B030C948B03F8
:100050000C948B030C948B030C948B030C947712ED
:100060000C948B030C94C4060C949A060C948B038A
:100070000C948B030C948B030C948B030C948B03C8
:100080000C948B030C948B030C948B030C948B03B8
:100090000C948B030C948B030C948B030C94FA0636
:1000A0000C948B030C948B030C948B030C948B0398
:1000B0000C948B030C948B030C948B030C948B0388
:1000C0000C948B030C948B030C948B030C948B0378
:1000D0000C948B030C948B030C948B030C948B0368
:1000E0000C948B0351055A0563056C0575057E0557
:1000F000870590059905A205AB05B405BD05C605A4
:10010000CF05D805E105EA05F305FC0505060E0651
:10011000170620067F063A063D06400643064606B9
:1001200049064C064F065206550658065B065E0603
:100130006106640667066A066D0670067306760633
:1001400079067C062A193719441951195E196B1959
:100150007819851992199F19AC19B919C619D319AB
:10016000E019ED19FA19071A141A211A2E1A3B1A56
:10017000481A551A861A9B1AB01AC51ADA1AEF1AB3
:10018000041B191B2E1B431B581B6D1B821B971B2B
:10019000AC1BC11BD61BEB1B001C151C2A1C3F1CD7
:1001A000541C691C6C0ECC0ECC0EC20DCC0E080E6D
:1001B0004F0E4C0ECC0ECC0ECC0E460E1B0ED10D9F
:1001C000CC0ECC0ECC0ECC0EEB0DCC0EA10ECC0E6C
:1001D000CC0ECC0E3E0ECC0ECC0ECC0ECC0ECC0EDD
:1001E000CC0ECC0E740ECC0ECC0EAD0DCC0ECC0EB7
:1001F0005D0E520E800EB00DCC0EB30D020E050E2C
:10020000CC0ECC0ECC0ECC0E860E300ECC0ECC0E00
:10021000D40DCC0E410EDC0DEF11F211E111E51100
:10022000E9112912F611FA110012041208120E1225
:100230001212161229121C12201224120C94C20D32
:100240000C946C050C94A1030C942D040C94481A86
:100250000C94AC190C9479060C9455060C94BD05BD
:100260000C94F3050C945B060C9412120C946D061E
:100270000C945D0E0C94151C0C943A060C943719D2
:100280000C9444190C94FA190C949B1A0C940E12A9
:100290000C94B00D0C9451190C94ED190C943B1A5C
:1002A0000C943D060C9475050C94AC080C941B0E34
:1002B0000C9446060C9473060C94DC0D0C94C51A31
:1002C0000C94EB1B0C9416050C94E6040C94D319B7
:1002D0000C946C0E0C942E1A0C945A050C946D1BF5
:1002E0000C9400120C946A060C94800E0C94860EEA
:1002F0000C94CC0E0C9470060C94AB050C94BB04BF
:100300000C944F0E0C94C11B0C94D61B0C946706D6
:100310000C94EA050C94AD0D0C94050E0C945E063D
:100320000C9494100C94041B0C9443060C94050636
:100330000C9463050C944C060C9452060C947F06A6
:100340000C94FA110C944F060C94A2050C94AF0374
:100350000C94C6050C94FC050C94861A0C942E1B68
:100360000C945E190C940E060C94971B0C94460E7C
:100370000C9417060C94B4050C94EF1A0C944906CF
:100380000C9420060C94F2110C94B9190C94191BBE
:100390000C94E1110C9451050C94F6110C94D805B1
:1003A0000C949F190C9499050C9424120C94E1055B
:1003B0000C94141A0C947C060C94A10E0C94691CD9
:1003C0000C9490050C94DA1A0C94581B0C948D0321
:1003D0000C9408120C94520E0C9458060C944C0E6B
:1003E0000C9478190C94C6190C94071A0C94610695
:1003F0000C94541C0C9429120C943F1C0C946B19F3
:100400000C9416120C94DE040C94D10D0C94B30DC4
:100410000C947E050C94821B0C94B01A0C941C1244
:100420000C946B1D0C94211A0C9420120C943E0E0B
:100430000C94410E0C94E0190C94E6030C94EF110B
:100440000C9404120C94080E0C9464060C94CA04C8
:100450000C94BA040C94431B0C94001C0C9440069E
:100460000C94CF050C94300E0C9485190C942A1C16
:100470000C9411130C94740E0C9492190C94E511B5
:100480000C9487050C94E9110C94D40D0C94EB0D8D
:100490000C94551A0C942A190C94020E0C9476069E
:1004A0000C94AC1B00407A10F35A00A0724E18094D
:1004B0000010A5D4E80000E87648170000E40B54CB
:1004C000020000CA9A3B000000E1F505000080969A
:1004D0009800000040420F000000A08601000000CC
:1004E000102700000000E803000000006400000086
:1004F00000000A00000000000100000000002C764F
:10050000D888DC674F0823DFC1DFAE59E1B1B79669
:10051000E5E3E453C63AE651997696E8E6C28426C6
:10052000EB898C9B62ED407C6FFCEFBC9C9F40F2A2
:10053000BAA56FA5F490055A2AF75C936B6CF9671E
:100540006DC11BFCE0E40D47FEF520E6B500D0EDE3
:10055000902E0300943577050080841E080000204B
:100560004E0A000000C80C333333330F986E1283E9
:100570001141EF8D2114893BE65516CFFEE6DB18BD
:10058000D1844B381BF77C1D901DA4BBE424203282
:1005900084725E228100C9F124ECA1E53D271F1C75
:1005A0001F1E1F1E1F1F1E1F1E1F000022002500D2
:1005B00028002B002E00310034000201000005014C
:1005C00008010B0100002100240027002A002D0053
:1005D0003000330001010000040107010A01050594
:1005E0000505070508080808020202020A0A0808A9
:1005F00004040404010101010101010103030303D7
:1006000003030303040707070C0C0C0C0C0C0C0C65
:100610000202020206060606060606060B0B0B0B76
:100620000B0B0B0B0102102020080810204010209B
:1006300040800201020108040201010204081020A6
:1006400040808040201008040201800402018040A4
:10065000201008040201080402010102040810200D
:100660004080010204081020408000000A0B0209AB
:100670000C0D0E080703040100000000000000003C
:10068000000000000000000000000000000000006A
:100690000000000000001211100000000000000027
:1006A000000000000000000000000000000000004A
:1006B0006B1D111311241FBECFEFD1E2DEBFCDBFE2
:1006C00000E00CBF25E0A0EBB3E001C01D92A63C0A
:1006D000B207E1F713E0A0E0B2E0E8E1FEE400E0F9
:1006E0000BBF02C007900D92A03BB107D9F713E0F2
:1006F000C9E5D3E000E006C021970109802FFE0183
:100700000E94C121C835D10780E00807A9F70E94DF
:10071000FE130C94FA260C940000FC01918D828D3E
:10072000981761F0828DDF01A80FB11D5D968C9145
:10073000928D9F5F9F73928F90E008958FEF9FEF50
:100740000895FC01918D828D981731F0828DE80F0C
:10075000F11D858D90E008958FEF9FEF0895FC01C6
:10076000918D228D892F90E0805C9F4F821B910993
:100770008F739927089584EE94E00E94AF0321E0DF
:10078000892B09F420E0822F0895FC01848DDF017C
:10079000A80FB11DA35ABF4F2C91848D90E00196F4
:1007A0008F739927848FA689B7892C93A089B189E3
:1007B0008C9180648C93938D848D981306C00288ED
:1007C000F389E02D80818F7D80830895EF92FF92E1
:1007D0000F931F93CF93DF93EC0181E0888F9B8D64
:1007E0008C8D981305C0E889F989808185FD24C026
:1007F000F62E0B8D10E00F5F1F4F0F731127E02EA9
:100800008C8DE8120CC00FB607FCFACFE889F98985
:10081000808185FFF5CFCE010E94C503F1CF8B8D7E
:10082000FE01E80FF11DE35AFF4FF0820B8FEA89BA
:10083000FB898081806207C0EE89FF896083E88937
:10084000F98980818064808381E090E0DF91CF919D
:100850001F910F91FF90EF900895CF93DF93EC01DC
:10086000888D8823C9F0EA89FB89808185FD05C0D0
:10087000A889B9898C9186FD0FC00FB607FCF5CF0A
:10088000808185FFF2CFA889B9898C9185FFEDCF52
:10089000CE010E94C503E7CFDF91CF91089580E09C
:1008A00090E0892B21F00E94BB03811125C080E0DC
:1008B00090E0892B41F080E090E0892B21F00E94AC
:1008C000000081111CC080E090E0892B41F080E0A5
:1008D00090E0892B21F00E940000811113C080E07C
:1008E00090E0892BA1F080E090E0892B81F00E94BC
:1008F000000081110AC008950E940000D8CF0E9414
:100900000000E1CF0E940000EACF0C94000008959F
:1009100085ED8093BC008091BC0084FDFCCF1092DB
:10092000B30408954091DC03262F30E0240F311DDD
:1009300021323105DCF42091B3042430C9F4FC01E8
:1009400080E090E0861758F43091DC032191DC01BF
:10095000A654BC4FA30FB11D2C930196F3CF8091E9
:10096000DC03680F6093DC0380E0089581E0089564
:1009700082E008950895E0916C0480916B04E8177B
:1009800030F4F0E0E359FB4F808190E008958FEF61
:100990009FEF089590916C0480916B04981750F428
:1009A000E92FF0E0E359FB4F208130E09F5F909307
:1009B0006C0402C02FEF3FEFC901089580916B04D2
:1009C00090E020916C04821B91090895CF92DF92F0
:1009D000EF92FF920F931F93CF93DF937C01262F0B
:1009E000972F8A018091B404882391F0C62FD72FC6
:1009F0006E01C40ED51ECC15DD0571F06991D701CD
:100A0000ED91FC910190F081E02DC7011995F3CF94
:100A1000642F822F0E949204C801DF91CF911F9111
:100A20000F91FF90EF90DF90CF900895CF93DF93D9
:100A30001F92CDB7DEB769832091B4042223D1F091
:100A40002091D704203240F021E030E0FC013383D4
:100A5000228380E090E015C08091B504E82FF0E09B
:100A6000EA54FB4F998190838F5F8093B504809304
:100A7000D70405C061E0CE0101960E94920481E096
:100A800090E00F90DF91CF910895FC013197E8310C
:100A9000F10508F0DEC08827EE58FF4F8F4F0C9409
:100AA000C12160916104709162048091630490910E
:100AB0006404089560915D0470915E0480915F0408
:100AC0009091600408956091590470915A04809146
:100AD0005B0490915C0408956091550470915604F4
:100AE000809157049091580408956091B9057091D0
:100AF000BA058091BB059091BC05089560915104A1
:100B0000709152048091530490915404089560911F
:100B1000B5057091B6058091B7059091B805089517
:100B200060914D0470914E0480914F049091500457
:100B300008956091490470914A0480914B0490910A
:100B40004C040895609145047091460480914704D7
:100B500090914804089560914104709142048091FD
:100B6000430490914404089560913D0470913E04C3
:100B700080913F04909140040895609139047091F0
:100B80003A0480913B0490913C04089560913504AF
:100B900070913604809137049091380408956091E3
:100BA000310470913204809133049091340408959B
:100BB00060912D0470912E0480912F049091300447
:100BC00008956091290470912A0480912B049091DA
:100BD0002C040895609125047091260480912704C7
:100BE00090912804089560912104709122048091CD
:100BF000230490912404089560911D0470911E04B3
:100C000080911F04909120040895609119047091BF
:100C10001A0480911B0490911C040895609115049E
:100C200070911604809117049091180408956091B2
:100C3000110470911204809113049091140408958A
:100C400060910D0470910E0480910F049091100436
:100C5000089564E670E080E090E00895FC0131972B
:100C6000E831F10508F04DC08827E657FF4F8F4F58
:100C70000C94C12187E190E0089588E190E0089507
:100C800089E190E008958AE190E008958BE190E099
:100C900008958CE190E008958DE190E008958EE153
:100CA00090E008958FE190E0089580E290E008954B
:100CB00081E290E0089582E290E0089583E290E07E
:100CC000089584E290E0089585E290E0089586E238
:100CD00090E0089587E290E0089588E290E008951A
:100CE00089E290E008958AE290E008958BE290E036
:100CF00008958CE290E008958DE290E0089586E1F9
:100D000090E008950E94F323CF93DF93EC0160E01D
:100D10008E810E94C01161E08E810E94C01160E04E
:100D20008E810E94C0118BE891E00197F1F7DF916D
:100D3000CF9108951F920F920FB60F9211240BB608
:100D40000F922F933F934F935F936F937F938F9364
:100D50009F93AF93BF93EF93FF9384EE94E00E9431
:100D6000C503FF91EF91BF91AF919F918F917F91BB
:100D70006F915F914F913F912F910F900BBE0F900C
:100D80000FBE0F901F9018951F920F920FB60F92E3
:100D900011240BB60F922F938F939F93EF93FF9392
:100DA000E091F404F091F5048081E091FA04F0916F
:100DB000FB0482FD12C090818091FD048F5F8F73D0
:100DC0002091FE04821751F0E091FD04F0E0EC5117
:100DD000FB4F958F8093FD0401C08081FF91EF91BF
:100DE0009F918F912F910F900BBE0F900FBE0F9080
:100DF0001F9018951F920F920FB60F9211240BB6E9
:100E00000F922F933F934F935F936F937F938F93A3
:100E10009F93AF93BF93EF93FF938091B900887F27
:100E2000803609F49CC068F5883209F45BC090F400
:100E3000803109F454C038F4882309F4F6C08830AE
:100E400009F44DC0F6C0883109F44CC0803209F471
:100E50005DC0EFC0803409F468C048F4803309F401
:100E600055C0883309F0E5C08093B104D8C08035FF
:100E700009F44FC0883509F45DC0883409F0D9C041
:100E8000D6C0883909F4C7C0A8F4883709F467C008
:100E900038F4883609F463C0803709F460C0C9C0EB
:100EA000883809F4B8C0803909F45FC0803809F087
:100EB000C0C05BC0803B09F486C038F4803A09F4B6
:100EC00066C0883A09F47FC0B4C0803C09F4A7C06A
:100ED000883C09F4A4C0883B09F48AC0AAC0809168
:100EE0008E0410C09091B0048091AF04981770F5F3
:100EF000E091B00481E08E0F8093B004F0E0E15700
:100F0000FB4F80818093BB0085EC86C08093B10449
:100F10008EC0E091B00481E08E0F8093B004809188
:100F2000BB00F0E0E157FB4F80839091B0048091CB
:100F3000AF046EC0E091B00481E08E0F8093B004E6
:100F40008091BB00F0E0E157FB4F80838091B204B9
:100F500081116DC081E080938D0484EA61C083E0DB
:100F60008093B30410920004CFCF809100048032AC
:100F700008F051C0E091000481E08E0F80930004DE
:100F80008091BB00F0E0E052FC4F8083BDCF85EC48
:100F90008093BC001092B30480910004803230F43E
:100FA000E0910004F0E0E052FC4F108260910004F8
:100FB00070E0E091DE03F091DF0380EE93E019959D
:100FC0001092000436C084E08093B3041092DD03D5
:100FD0001092DC03E091DA03F091DB031995809124
:100FE000DC03811105C081E08093DC031092BA0319
:100FF000E091DD0381E08E0F8093DD03F0E0E654A5
:10100000FC4F80818093BB009091DD038091DC03D5
:10101000981708F479CF85E88093BC000AC085EC66
:101020008093BC001092B30404C01092B1040E94DB
:101030008804FF91EF91BF91AF919F918F917F9124
:101040006F915F914F913F912F910F900BBE0F9039
:101050000FBE0F901F901895CF92DF92EF92FF92E4
:101060000F931F93CF93DF937C016C0187E0C80E31
:10107000D11CC0E0D0E0062F10E0B8010C2E02C059
:10108000759567950A94E2F76170F60181916F0199
:101090000E94C0112196C430D10579F7C701DF91B4
:1010A000CF911F910F91FF90EF90DF90CF900C9414
:1010B0008406CF92DF92EF92FF920F931F93CF930C
:1010C000DF93EC01F62E642F8C810E94C0118D817C
:1010D0008F3F19F060E00E94C0118F850F2D10E046
:1010E00084FF25C06E0187E0C80ED11CE12CF12CD5
:1010F000B8010E2C02C0759567950A94E2F76170ED
:10110000F60181916F010E94C011FFEFEF1AFF0AF3
:1011100088E0E816F10461F7CE01DF91CF911F91CD
:101120000F91FF90EF90DF90CF900C948406B80160
:1011300084E0759567958A95E1F7CE010E942C08A9
:101140006F2DCE01DF91CF911F910F91FF90EF9006
:10115000DF90CF900C942C0841E00E94590881E068
:1011600090E0089540E00C94590861E00E94B208B4
:101170008BE39FE10197F1F708952F923F924F92F1
:101180005F926F927F928F929F92AF92BF92CF9217
:10119000DF92EF92FF920F931F93CF93DF936C0137
:1011A0007B01EA010E942E06182FC7010E942E061D
:1011B000082FC6010E9445052B013C01C7010E9472
:1011C00045054B015C0189E995E00E94B50861E0A5
:1011D00083E00E945A1060E089E995E00E94AC0823
:1011E0008EE892E00E94581060E0812F0E94C011AA
:1011F00060E0802F0E94C0112FB7F8948091B10554
:101200009091B205A091B305B091B4052FBF809322
:10121000040290930502A0930602B09307022224D1
:101220002394332433948FB7F894C090B105D090B1
:10123000B205E090B305F090B4058FBFC0920002F4
:10124000D0920102E0920202F09203028091040225
:1012500090910502A0910602B0910702C81AD90A1E
:10126000EA0AFB0AC414D504E604F70468F061E056
:10127000812F0E94C011C814D904EA04FB0450F461
:101280002220A1F0312CCFCFC814D904EA04FB04EA
:1012900050F001C0312C61E0802F0E94C01133203A
:1012A00029F0212CC0CF332059F3BDCFBE0180E0FF
:1012B00090E0DF91CF911F910F91FF90EF90DF9021
:1012C000CF90BF90AF909F908F907F906F905F90E6
:1012D0004F903F902F900C943D12DF92EF92FF922F
:1012E0000F931F93CF93DF9300D01F92CDB7DEB73C
:1012F000880F991F880F991F8E010F5F1F4F7C0168
:10130000E01AF10A34E0D32ED00EC701800F911FEE
:101310000E944F21F80181938F01DE12F6CF69817F
:101320007A818B819C810F900F900F900F90DF91AD
:10133000CF911F910F91FF90EF90DF9008958091D2
:101340007B00877F80937B0080E480937C0080918A
:101350007A00806480937A0080917A0086FDFCCFC9
:10136000209178008091790030E0382B23343105CA
:101370008CF02D3D310584F02C3881E0380774F075
:101380002A3592E0390764F081E0293633404CF089
:1013900080E0089585E0089584E0089583E008954D
:1013A00082E00895CF92DF92EF92FF920F931F9306
:1013B000CF93DF93CDB7DEB72C970FB6F894DEBF8F
:1013C0000FBECDBFCE0101960E94970F8CE0FE01AB
:1013D0003196A1E0B4E001900D928A95E1F7E1E049
:1013E000F4E0868190E09093B9038093B8038581FF
:1013F00090E09093390280933802848190E090933A
:10140000660480936504838190E09093B703809392
:10141000B603878190E09093B5038093B4038281F3
:1014200090E09093B3038093B20380819181909375
:10143000B1038093B003C0900104D0900204E09007
:101440000304F09004040091050410910604209117
:101450000704309108044091090450910A046091F6
:101460000B0470910C0485EA92E00E94F60CBC011A
:1014700083E995E02C960FB6F894DEBF0FBECDBF82
:10148000DF91CF911F910F91FF90EF90DF90CF9060
:101490000C94C112AF92BF92CF92DF92EF92FF9263
:1014A0000F931F93CF93DF935C016A017B01E901E6
:1014B0000E942E06182F092F89E995E00E94B50891
:1014C00060E083E00E945A1080EA92E00E94581087
:1014D0004AE0C701B6010E94FF1087EA92E00E942D
:1014E000581061E082E00E945A1060E089E995E0BE
:1014F0000E94AC088DEE92E00E945810C5010E9437
:1015000040118BEA92E00E945810812F902F0E9488
:10151000401160E0812F0E94C011C701B6010E94F6
:101520003D1261E0812F0E94C011BE0180E090E079
:101530000E943D12DF91CF911F910F91FF90EF908C
:10154000DF90CF90BF90AF90089540912D045091BF
:101550002E0460912F04709130049C0180E190E092
:101560000C944A0A40913D0450913E0460913F041E
:10157000709140049C018CE090E00C944A0A44EF86
:1015800051E061E170E080E190E00E94BD084CE232
:1015900051E061E170E080E190E00E94BD0844EF1D
:1015A00051E061E170E085E090E00E94BD0848EC08
:1015B00050E061E170E085E090E00E94BD0848ECF9
:1015C00050E061E170E080E190E00E94BD08409150
:1015D000310450913204609133047091340428EC4A
:1015E00030E08FE090E00E944A0A48EC50E061E170
:1015F00070E080E190E00E94BD0848EC50E061E1BD
:1016000070E080E190E00E94BD080E94761144EFF6
:1016100051E061E170E08FE090E00E94BD084091F0
:10162000410450914204609143047091440428ECB9
:1016300030E08BE090E00E944A0A88EC90E00E9443
:10164000A50A0E9484114091410450914204609186
:1016500043047091440420E931E08BE090E00E9463
:101660004A0A4091350450913604609137047091D4
:10167000380428EC30E08EE090E00E944A0A409165
:10168000390450913A0460913B0470913C0428EC79
:1016900030E08DE090E00E944A0A8CE291E00E94E6
:1016A000B20A80E991E00E94A50A84EF91E00E94CD
:1016B000B20A88EC90E00E94A50A84EF91E00E94B3
:1016C000B20A88EC90E00E94B20A0E94761188EC7F
:1016D00090E00E94A50A84EF91E00E94B20A409136
:1016E000310450913204609133047091340428EC39
:1016F00030E08FE090E00E944A0A40913904509116
:101700003A0460913B0470913C0424EF31E08DE099
:1017100090E00E944A0A0E9484110E94841184EF82
:1017200091E00E94A50A48EC50E06DE070E085E091
:1017300090E00E94BD084CE251E063E070E08DE073
:1017400090E00E94BD0848EC50E063E070E085E066
:1017500090E00E94BD084CE251E063E070E082E15D
:1017600090E00E94BD084091590450915A04609144
:101770005B0470915C0428EC30E083E090E00E9410
:101780004A0A4CE251E060E170E08BE090E00E9498
:10179000BD0848EC50E06FE070E085E090E00E940A
:1017A000BD0848EC50E06FE070E085E090E00E94FA
:1017B000BD0844EF51E063E070E08DE090E00E94EE
:1017C000BD084CE251E067E070E08EE090E00E94DE
:1017D000BD0848EC50E063E170E080E190E00E94D9
:1017E000BD080E94761148EC50E06DE070E08EE09C
:1017F00090E00E94BD0848EC50E06DE070E08FE0A2
:1018000090E00E94BD0840E050E06DE070E082E1B1
:1018100090E00C94BD08DC01A05DB74050E0EEE91B
:10182000F5E021E02E1B322F3E0F361728F43491BD
:10183000430F511D3196F7CF623029F49D0123707B
:101840003327232BB9F02DE631E0A29FB001A39FEF
:10185000700DB29F700D11249C012D5C37403695A0
:10186000279536952795CB01820F931F0197840FFB
:10187000951F08954F5F5F4FE6CF90E0FC01EC5D50
:10188000F94F2491FC01E252FA4F8491882399F098
:1018900090E0880F991FFC01EC53FA4FA591B49189
:1018A000FC01E655FA4F859194918FB7F894EC912D
:1018B000E22BEC938FBF0895EF92FF920F931F934B
:1018C000CF93DF93EC01623018F08F8588608F87AB
:1018D0006B8B1C8A80E48D8B80E18E8B80E58F8BF7
:1018E0008C810E943D0C8D818F3F11F00E943D0C38
:1018F0008E810E943D0C7E0187E0E80EF11C00E025
:1019000010E08F8584FD03C084E090E002C088E091
:1019100090E00817190744F4F70181917F010E94B4
:101920003D0C0F5F1F4FEDCF8BE39DE00197F1F76B
:1019300060E08C810E94C01160E08E810E94C01125
:101940008D818F3F19F060E00E94C0116F8564FDAA
:101950001DC063E0CE010E942C080BE416E4C80110
:101960000197F1F763E0CE010E942C08C8010197AE
:10197000F1F763E0CE010E942C0883E592E0019725
:10198000F1F762E0CE010E942C0816C06062CE0121
:101990000E94B2088BE496E40197F1F76F856062CC
:1019A000CE010E94B20883E592E00197F1F76F85BE
:1019B0006062CE010E94B2086F856062CE010E9413
:1019C000B20884E0888B6CE0CE010E94B208CE01A0
:1019D0000E94B50882E0898B66E0CE01DF91CF914D
:1019E0001F910F91FF90EF900C94B2082F923F92AD
:1019F0004F925F926F927F928F929F92AF92BF921F
:101A0000CF92DF92EF92FF920F931F93CF93DF93CA
:101A1000CDB7DEB7C052D1400FB6F894DEBF0FBECF
:101A2000CDBFF82FE92FC55FDE4FC882CB50D14024
:101A3000C45FDE4FD882CC50D140C05FDE4F1883E8
:101A4000C051D140CF5EDE4F2883C151D140CD5E21
:101A5000DE4F4883C351D140CC5EDE4F5883C45122
:101A6000D140CB5EDE4F6883C551D140CA5EDE4FA8
:101A70007883C651D140C55FDE4FA880B980CB5076
:101A8000D1401E2D1982632E712CC301079667E089
:101A900070E00E948B21E82EC25EDE4F9883CE510B
:101AA000D1408F2D6AE00E947F21C95EDE4F98836E
:101AB000C751D1408F2E9E2E6E01D394250143E055
:101AC00044225524812F90E0DC01A356BA4FC15E19
:101AD000DE4FB983A883CF51D1402FEF210FC85ECD
:101AE000DE4F2883C851D140822F90E0880F991F84
:101AF000AC01405C5D4FC65EDE4F59834883CA51DE
:101B0000D1403150C75EDE4F3883C951D140832F59
:101B100090E0880F991F9C01285A3D4FC45EDE4F0C
:101B200039832883CC51D140B401D401ED914D01CA
:101B3000EE2309F43AC18E2FEE0F990BAA0BBB0BC3
:101B4000FC01E154F109EA33F10508F025C18827C9
:101B5000EE52FF4F8F4F0C94C1211F92FF92DDC0B8
:101B60001F92FF92B6C0C75EDE4F3881C951D14087
:101B7000373008F05DC0C45EDE4FA881B981CC511A
:101B8000D14053C0C75EDE4F2881C951D1402730B4
:101B900008F061C0C45EDE4FA881B981CC51D1404C
:101BA00057C07F926F9295C0C25EDE4F2881CE51A2
:101BB000D1402F93EF928DC041E061E0C5010E94BA
:101BC0000B0C1C014F2D612FC5010E940B0C8219BB
:101BD00093099F937DC0C95EDE4F3881C751D140C4
:101BE000313039F0323041F0333049F066E073E0A3
:101BF00082C060E573E07FC060E073E07CC063E0BA
:101C000073E079C01F921F9388C01F921F9361C019
:101C1000C85EDE4F2881C851D1402C3048F4C65EE2
:101C2000DE4FA881B981CA51D1406D917C9163C0CA
:101C300068EF72E060C0C85EDE4F2881C851D140B5
:101C40002C3048F4C65EDE4FA881B981CA51D1401C
:101C50006D917C9102C068EF72E043E050E09EC05D
:101C6000C15EDE4FE881F981CF51D14084911230BD
:101C700071F54114510409F496C029C0BF92AF9286
:101C800028C0C501805D97409F9346C081E0411404
:101C90005104E9F080E01BC01F920F933EC01F92D9
:101CA0000F9317C0002329F00D3028F084EF800F28
:101CB00032C08CE030C0802F2EC0002329F00D30C0
:101CC00028F084EF800F03C08CE001C0802F1F92AA
:101CD0008F938AE193E023C00C3018F06CE073E03E
:101CE0000AC069E073E007C00C3018F06FE073E0E1
:101CF00002C062E173E0CE0101960E94012414CF7C
:101D0000C05FDE4F8881C051D14005C0CF5EDE4F3D
:101D10008881C151D1401F928F9385E193E09F93B9
:101D20008F93DF92CF920E942324B601CE010196B9
:101D30000E9401240F900F900F900F900F900F9022
:101D4000F3CECA5EDE4F8881C651D1408F93CB5E01
:101D5000DE4F8881C551D1408F93CC5EDE4F8881A4
:101D6000C451D1408F93CD5EDE4F8881C351D140A5
:101D70008F938DE193E09F938F93DF92CF920E9498
:101D80002324B601CE0101960E9401240FB6F894D7
:101D9000DEBF0FBECDBFC8CE41E050E0CE01019600
:101DA0000E941324C1CE8F5F92CFCE010196C05EF8
:101DB000DE4F0FB6F894DEBF0FBECDBFDF91CF91DF
:101DC0001F910F91FF90EF90DF90CF90BF90AF9059
:101DD0009F908F907F906F905F904F903F902F904B
:101DE00008952091D7049091D604213208F04AC07A
:101DF0008091B3048111FCCF32E03093B30431E021
:101E00003093B2043FEF3093B1041092B0042093AA
:101E1000AF04A6EBB4E04FE854E0FA013E2F341BC8
:101E2000321718F43D913193F9CF10928E0420911E
:101E30008E04990F922B90938E0490918D04913083
:101E400061F410928D0490918E049093BB00909158
:101E5000BC0093FDF8CF95EC01C095EE9093BC00CB
:101E60009091B3049230E1F39091B1049F3F79F0E7
:101E70008091B104803241F08091B104803331F01F
:101E800084E005C081E003C082E001C083E01092DD
:101E9000B5041092D7041092B40408959091B3043D
:101EA0009111FCCF813208F080E291E09093B3046D
:101EB0009093B2042FEF2093B1041092B004280F36
:101EC0002093AF0490938E0490918E04906D909324
:101ED0008E0490918D04913061F410928D04909154
:101EE0008E049093BB009091BC0093FDF8CF95ECCD
:101EF00001C095EE9093BC009091B3049130E1F352
:101F00009091B004981710F48091B004AFE8B4E059
:101F10002DE634E0F9019E2F921B981718F49D913D
:101F20009193F9CF10926C0480936B040895CF9233
:101F3000DF92EF92FF920F931F93CF93DF93CDB772
:101F4000DEB72E970FB6F894DEBF0FBECDBF8C0163
:101F500081E08093B40488E68093D6041092B5049F
:101F60001092D70460E081E895E00E9416050E9477
:101F7000F10E87E090E00E944E0F90916B048091EB
:101F80006C049817F1F37E018FE0E80EF11CFE015E
:101F900031966F0181E895E00E94CA04282F82954E
:101FA0008F702F70FAE08F9F200D112430E0F70121
:101FB000329322937F01EC15FD0561F70E94F10E2B
:101FC00089819A818053984F9093D9048093D80443
:101FD0006B816093DA044D814093DB042F81209361
:101FE000DF04D984D092DC04EB84E092DD04FD842C
:101FF000F092DE040E940B0C9C01A8E1B0E00E946C
:1020000070219B01AC012D0D311D411D511DACE313
:10201000B0E00E9465219B01AC012E0D311D411DD8
:10202000511D0E946521DC01CB018F0D911DA11D69
:10203000B11D80599A4CA249B74C8093E00490930B
:10204000E104A093E204B093E3048CE0E8EDF4E053
:10205000D80101900D928A95E1F7C8012E960FB62E
:10206000F894DEBF0FBECDBFDF91CF911F910F91CE
:10207000FF90EF90DF90CF900895FC01448155814F
:102080006081718189E995E00C949410009769F062
:10209000FC0101900020E9F73197AF01481B590B73
:1020A000BC0189E995E00C94941080E090E00895DB
:1020B0000C944610643008F063E09091AC05691709
:1020C00010F06FEF690FE62FF0E0E756FA4F9489B2
:1020D000682F690F606889E995E00C94B2083FB7F2
:1020E000F8948091BE059091BF05A091C005B09174
:1020F000C10526B5A89B05C02F3F19F00196A11D6B
:10210000B11D3FBFBA2FA92F982F8827820F911D8D
:10211000A11DB11DBC01CD0142E0660F771F881FD4
:10212000991F4A95D1F70895CF92DF92EF92FF92CF
:102130000F931F93CF93DF936C017A018B01C0E063
:10214000D0E0CE15DF0589F0D8016D918D01D60163
:10215000ED91FC910190F081E02DC6011995892B3C
:1021600011F47E0102C02196ECCFC701DF91CF911F
:102170001F910F91FF90EF90DF90CF900895EF9215
:10218000FF920F931F93CF93DF93EC017B018A01A2
:1021900088819981009729F02A813B81241735078E
:1021A000F8F4B8016F5F7F4F0E940A23009759F03F
:1021B000998388831B830A832C813D81232B81F49F
:1021C000FC0110820DC088819981009711F00E9456
:1021D0007222198218821D821C821B821A8207C0F9
:1021E0001D830C83B701888199810E940C24CE0144
:1021F000DF91CF911F910F91FF90EF9008958F92F3
:102200009F92AF92BF920F931F93CF93DF93CDB75F
:10221000DEB7A1970FB6F894DEBF0FBECDBF19A2EF
:10222000423008F44AE08E010F5D1F4F842E912C3E
:10223000A12CB12CA50194010E949F21E62FB90188
:10224000CA0101501109EA3014F4E05D01C0E95CF3
:10225000D801EC93232B242B252B61F7C8010E9476
:102260004610A1960FB6F894DEBF0FBECDBFDF912A
:10227000CF911F910F91BF90AF909F908F90089535
:10228000CF92DF92EF92FF92CF93DF936C01990F81
:10229000EE08FF08F7FE1FC0E0919905F0919A053E
:1022A0000190F081E02D6DE289E995E01995EC014E
:1022B00066277727CB016C197D098E099F094AE0B3
:1022C0000E94FF108C0F9D1FDF91CF91FF90EF9028
:1022D000DF90CF9008954AE0C701B601DF91CF911A
:1022E000FF90EF90DF90CF900C94FF104091B905D4
:1022F0005091BA056091BB057091BC0528EC30E0A7
:1023000085E090E00C944A0A4091B5055091B605DD
:102310006091B7057091B80528EC30E087E090E057
:102320000C944A0AEF92FF920F931F93CF93DF937F
:102330001F92CDB7DEB7162F877028E0829FC001AD
:102340001124682F606489E995E079830E94B208BE
:10235000E12E7981F72E8701085F1F4FF701619108
:102360007F0189E995E00E94AC08E016F106B1F71B
:102370000F90DF91CF911F910F91FF90EF900895F3
:10238000362F90E0FC01E659F94F4491FC01EC5DD9
:10239000F94F2491FC01E252FA4F9491992309F4E8
:1023A0006BC0442309F455C050E0FA013197E23183
:1023B000F10508F04EC08827E45FFE4F8F4F0C9464
:1023C000C121809180008F7707C0809180008F7D30
:1023D00003C080918000877F809380003AC084B5DD
:1023E0008F7702C084B58F7D84BD33C08091B000EB
:1023F0008F7703C08091B0008F7D8093B00029C09B
:10240000809190008F7707C0809190008F7D03C0EE
:1024100080919000877F809390001BC08091A000E6
:102420008F7707C08091A0008F7D03C08091A000AE
:10243000877F8093A0000DC0809120018F7707C017
:10244000809120018F7D03C080912001877F809340
:102450002001E92FF0E0EE0FFF1FE655FA4FA5919E
:10246000B4918FB7F894EC91311103C020952E23CD
:1024700001C02E2B2C938FBF08958F929F92AF9205
:10248000BF92CF92DF92EF92FF926B017C010E948C
:102490006F104B015C01C114D104E104F104F1F0AF
:1024A0000E946F10DC01CB0188199909AA09BB09A8
:1024B000883E9340A105B10570F321E0C21AD1080E
:1024C000E108F10888EE880E83E0981EA11CB11C7B
:1024D000C114D104E104F10419F7DDCFFF90EF90AE
:1024E000DF90CF90BF90AF909F908F9008951F92F4
:1024F0000F920FB60F9211242F933F938F939F93B8
:10250000AF93BF938091B1059091B205A091B305AF
:10251000B091B4053091BD0523E0230F2D3720F491
:102520000196A11DB11D05C026E8230F0296A11D2D
:10253000B11D2093BD058093B1059093B205A09382
:10254000B305B093B4058091BE059091BF05A091ED
:10255000C005B091C1050196A11DB11D8093BE05B6
:102560009093BF05A093C005B093C105BF91AF91F3
:102570009F918F913F912F910F900FBE0F901F90C1
:102580001895CF93DF93EC016115710559F0FB01AC
:1025900001900020E9F73197AF01461B570B0E94CD
:1025A000BF100CC088819981009711F00E9472229F
:1025B000198218821D821C821B821A82CE01DF9131
:1025C000CF910895FB01DC0111961C921E92139687
:1025D0001C921E92129715961C921E9214978617A3
:1025E000970749F0608171816115710521F044817F
:1025F00055810C94BF100895FC0111821082138242
:102600001282158214826115710551F0FB0101904F
:102610000020E9F73197AF01461B570B0C94BF1010
:10262000089580918D0590918E050E94722280916F
:102630009305909194050C947222CF93DF9300D070
:1026400000D0CDB7DEB7BC01CE0101960E94E212E8
:1026500089E995E00E94B50860E080E00E945A1088
:1026600061E089E995E00E94AC0860E082E00E94A8
:102670005A10CE0101960E943D1060E08EE00E944B
:102680005A1086E992E00E94581089819A810E942E
:10269000722226960FB6F894DEBF0FBECDBFDF9133
:1026A000CF910895CF92DF92EF92FF92CF93DF9375
:1026B000EC010E9445056B017C0189E995E00E94CF
:1026C000B50860E080E00E945A1065E089E995E075
:1026D0000E94AC0860E082E00E945A10CE010E9485
:1026E000401160E084E00E945A1089E992E00E9463
:1026F000581060E089E00E945A104AE0C701B60114
:102700000E94FF1060E08EE00E945A1086E992E07D
:10271000DF91CF91FF90EF90DF90CF900C94581005
:10272000CF92DF92EF92FF92CF93DF93EC016A0199
:102730007B0189E995E00E94B50860E080E00E9495
:102740005A1060E089E995E00E94AC0860E082E000
:102750000E945A10CE010E94401160E084E00E9465
:102760005A108FE992E00E94581060E089E00E94C0
:102770005A104AE0C701B6010E94FF1060E08EE0E7
:102780000E945A1086E992E0DF91CF91FF90EF907E
:10279000DF90CF900C945810DF92EF92FF920F933E
:1027A0001F93CF93DF9300D01F92CDB7DEB78C017C
:1027B0000E94450569837A838B839C83000F111FD8
:1027C000000F111FCE0101967C0194E0D92EDE0C82
:1027D000F70161917F01C8010E9457210F5F1F4FD0
:1027E000DE10F6CF0F900F900F900F90DF91CF91EA
:1027F0001F910F91FF90EF90DF900895CF93DF939B
:10280000CDB7DEB7A7970FB6F894DEBF0FBECDBF2A
:10281000789484B5826084BD84B5816084BD85B5BB
:10282000826085BD85B5816085BD80916E008160C7
:1028300080936E001092810080918100826080936D
:10284000810080918100816080938100809180006F
:102850008160809380008091B10084608093B1009A
:102860008091B00081608093B0008091910082607F
:10287000809391008091910081608093910080917C
:1028800090008160809390008091A100826080938D
:10289000A1008091A10081608093A1008091A0009F
:1028A00081608093A000809121018260809321014A
:1028B00080912101816080932101809120018160BC
:1028C0008093200180917A00846080937A008091C7
:1028D0007A00826080937A0080917A008160809390
:1028E0007A0080917A00806880937A001092C1000B
:1028F00081E090E00E946D0960936104709362042E
:10290000809363049093640482E090E00E946D09D8
:1029100060935D0470935E0480935F049093600401
:1029200083E090E00E946D096093590470935A040B
:1029300080935B0490935C0484E090E00E946D09B6
:1029400060935504709356048093570490935804F1
:1029500085E090E00E946D096093B9057093BA0517
:102960008093BB059093BC0586E090E00E946D09C2
:1029700060935104709352048093530490935404D1
:1029800087E090E00E946D096093B5057093B605ED
:102990008093B7059093B80588E090E00E946D0998
:1029A00060934D0470934E0480934F0490935004B1
:1029B00089E090E00E946D096093490470934A0495
:1029C00080934B0490934C048AE090E00E946D0940
:1029D00060934504709346048093470490934804A1
:1029E0008BE090E00E946D09609341047093420473
:1029F00080934304909344048CE090E00E946D091E
:102A000060933D0470933E0480933F049093400490
:102A10008DE090E00E946D096093390470933A0450
:102A200080933B0490933C048EE090E00E946D09FB
:102A30006093350470933604809337049093380480
:102A40008FE090E00E946D0960933104709332042E
:102A5000809333049093340480E190E00E946D09E8
:102A600060932D0470932E0480932F049093300470
:102A700081E190E00E946D096093290470932A041B
:102A800080932B0490932C0482E190E00E946D09C6
:102A90006093250470932604809327049093280460
:102AA00083E190E00E946D096093210470932204F9
:102AB000809323049093240484E190E00E946D09A4
:102AC00060931D0470931E0480931F049093200450
:102AD00085E190E00E946D096093190470931A04D7
:102AE00080931B0490931C0486E190E00E946D0982
:102AF0006093150470931604809317049093180440
:102B000087E190E00E946D096093110470931204B4
:102B1000809313049093140488E190E00E946D095F
:102B200060930D0470930E0480930F04909310042F
:102B3000E091F404F091F50482E08083E091F004E8
:102B4000F091F1041082E091F204F091F3048FEC23
:102B500080831092FC04E091F804F091F90486E07F
:102B60008083E091F604F091F70480818061808396
:102B7000E091F604F091F704808188608083E09111
:102B8000F604F091F704808180688083E091F60478
:102B9000F091F70480818F7D808360E372E080E0B4
:102BA0000E94921168E272E081E00E94921160E25C
:102BB00072E082E00E94921168E172E083E00E947C
:102BC000921160E172E084E00E94921168E072E08C
:102BD00085E00E94921186E10E943D0C87E10E94EF
:102BE0003D0C88E10E943D0C89E10E943D0C8AE188
:102BF0000E943D0C8BE10E943D0C8CE10E943D0C3B
:102C00008DE10E943D0C8EE10E943D0C8FE10E94FF
:102C10003D0C80E20E943D0C81E20E943D0C82E26C
:102C20000E943D0C83E20E943D0C84E20E943D0C18
:102C300085E20E943D0C86E20E943D0C87E20E94E4
:102C40003D0C88E20E943D0C89E20E943D0C8AE224
:102C50000E943D0C8BE20E943D0C8CE20E943D0CD8
:102C60008DE20E943D0C61E086E10E94C01161E0AE
:102C700087E10E94C01161E088E10E94C01161E01B
:102C800089E10E94C01161E08AE10E94C01161E007
:102C90008BE10E94C01161E08CE10E94C01161E0F3
:102CA0008DE10E94C01161E08EE10E94C01161E0DF
:102CB0008FE10E94C01161E080E20E94C01161E0DA
:102CC00081E20E94C01161E082E20E94C01161E0D5
:102CD00083E20E94C01161E084E20E94C01161E0C1
:102CE00085E20E94C01161E086E20E94C01161E0AD
:102CF00087E20E94C01161E088E20E94C01161E099
:102D000089E20E94C01161E08AE20E94C01161E084
:102D10008BE20E94C01161E08CE20E94C01161E070
:102D20008DE20E94C01162E089E995E00E945C0C8E
:102D300089E995E00E94B50889E995E00E94B50807
:102D400082EB92E00E94581061E082E00E945A10EB
:102D500061E089E995E00E94AC0880EC92E00E9475
:102D6000581064EF71E080E090E00E943D1289E924
:102D700095E00E94B5088CEC92E00E9458101092E9
:102D80006C0410926B041092B5041092D704109248
:102D9000B30411E01093B20410928D0461E084E159
:102DA0000E94C01161E085E10E94C0118091B900CC
:102DB0008E7F8093B9008091B9008D7F8093B90098
:102DC00088E48093B80085E48093BC001093B40439
:102DD00088E68093D6041092B5041092D7046EE072
:102DE00081E895E00E9416050E94F10E81E090E0D6
:102DF0000E944E0F90916B0480916C049817F1F330
:102E000081E895E00E94CA04082F0E94F10E11E0AB
:102E10001093B40488E68093D6041092B5041092FF
:102E2000D7046EE081E895E00E941605602F6B7371
:102E300081E895E00E9416050E94F10E80ED97E072
:102E40009093D9048093D8041093DA041093DB0490
:102E50001092DC041092DD041092DE0486E0809370
:102E6000DF0480E795E3ADE6B8E38093E004909358
:102E7000E104A093E204B093E304F8E69F2E81E01E
:102E800094E00E94970F8091060490E02091380210
:102E9000309139028217930709F48AC0909339025E
:102EA0008093380289E995E00E94B508C09001043A
:102EB000D0900204E0900304F09004040091050413
:102EC00010910604209107043091080440910904F0
:102ED00050910A0460910B0470910C048BED92E008
:102EE0000E94F60C0E94581061E080E00E945A1087
:102EF00085EE92E00E94581081E08093B404909295
:102F0000D6041092B5041092D70461E181E895E0EF
:102F10000E9416050E94F10E82E090E00E944E0F82
:102F200090916B0480916C049817F1F381E895E01F
:102F30000E94CA04182F81E895E00E94CA041BA2CF
:102F40001AA21DA21CA21FA21EA2B12EA12CB50165
:102F5000682BE6E075956795EA95E1F7072E000C7A
:102F6000880B990B0E94562020E030E040E85EE399
:102F70000E9491208E010F5F1F4F22E044E00E94CB
:102F8000CE1DBC01CE0182960E94C112CE01829656
:102F90000E943D108AA19BA10E9472220E94D20928
:102FA0008BEE92E00E94581083E995E00E943D105C
:102FB0000E949F09813009F00FC589E995E00E94C0
:102FC000B50860E086E00E945A1086ED92E00E940B
:102FD000581068EE73E080E090E00E943D1244E6F5
:102FE00050E060E070E08CE090E00E94901361E0BF
:102FF00080E00E945A1064E089E995E00E94AC08E4
:10300000412C512C32014394D12C11E054E6852EF1
:10301000912CA12CB12C6CE0E62EF12C0E949F0982
:103020008823E1F38130E9F4113009F472C01230E1
:1030300009F467C0133009F062C0AAE0B0E0A30150
:1030400092010E9465212B013C0185E6481651043E
:103050006104710408F45FC0412C512C3201439487
:103060005AC0823029F4115009F063C014E061C0E5
:10307000833001F5113009F44CC0123061F481E065
:10308000E81AF10801E01E141F040CF445C028E101
:10309000E22EF12C41C0133091F584189508A60852
:1030A000B70801E0C9F59FE0892E97E2992EA12C7F
:1030B000B12C32C08430B9F5113059F1123061F4BD
:1030C0008FEFE81AF80A01E089E1E816F10424F12B
:1030D000EE24E394F12C20C0133089F4840C951C69
:1030E000A61CB71C01E080E1881687E29806A104BF
:1030F000B10490F0812C912C540183940DC01430B4
:1031000051F42CED35E0B501A401C7010E944A0A33
:1031100002C000E001C001E068EC70E080E090E0F7
:103120000E943D120DC0853051F41F5F153008F02C
:1031300010E068EC70E080E090E00E943D1201E059
:10314000123061F020F4113071F4D12C0CC0133026
:1031500041F0143041F4EEE0DE2E05C0A2E0DA2E9C
:1031600002C0F9E0DF2EB501A401C7010E9490134F
:1031700061E08D2D0E945A1064E089E995E00E947B
:10318000AC08133029F44AE0C301B2010E94FF10D9
:10319000011144CF8CE090E00E94521361E080E086
:1031A0000E945A1064E089E995E00E94AC08C12CA5
:1031B000D12C7601C394912C01E07CE0A72EB12C98
:1031C0000E949F098823E1F38130D1F4013009F492
:1031D0009BC3033009F092C3AAE0B0E0A7019601B7
:1031E0000E9465216B017C0185E6C816D104E104CB
:1031F000F10408F48BC3C12CD12C7601C39486C38F
:10320000823029F4015009F08FC304E08DC383306C
:1032100009F058C1013009F477C3023061F481E04C
:10322000A81AB10811E01A141B040CF470C348E189
:10323000A42EB12C6CC3033009F060C3F5013197A3
:10324000E831F10508F062C38827EE55FF4F8F4F34
:103250000C94C1218091610490916204A091630457
:10326000B09164048C199D09AE09BF095BC18091BE
:103270005D0490915E04A0915F04B09160048C198C
:103280009D09AE09BF0963C18091590490915A0408
:10329000A0915B04B0915C048C199D09AE09BF0933
:1032A0006BC18091550490915604A0915704B09140
:1032B00058048C199D09AE09BF0973C18091B905E5
:1032C0009091BA05A091BB05B091BC058C199D09E0
:1032D000AE09BF097BC18091510490915204A09125
:1032E0005304B09154048C199D09AE09BF0983C1E0
:1032F0008091B5059091B605A091B705B091B8053C
:103300008C199D09AE09BF098BC180914D04909124
:103310004E04A0914F04B09150048C199D09AE0940
:10332000BF0993C18091490490914A04A0914B0434
:10333000B0914C048C199D09AE09BF099BC18091C5
:10334000450490914604A0914704B09148048C191B
:103350009D09AE09BF09A3C1809141049091420427
:10336000A0914304B09144048C199D09AE09BF0992
:10337000ABC180913D0490913E04A0913F04B09177
:1033800040048C199D09AE09BF09B3C1809139046D
:1033900090913A04A0913B04B0913C048C199D0992
:1033A000AE09BF09BBC18091350490913604A0914C
:1033B0003704B09138048C199D09AE09BF09C3C107
:1033C0008091310490913204A0913304B09134047F
:1033D0008C199D09AE09BF09CBC180912D04909134
:1033E0002E04A0912F04B09130048C199D09AE09D0
:1033F000BF09D3C18091290490912A04A0912B0484
:10340000B0912C048C199D09AE09BF09DBC18091D4
:10341000250490912604A0912704B09128048C19CA
:103420009D09AE09BF09E3C1809121049091220456
:10343000A0912304B09124048C199D09AE09BF0901
:10344000EBC180911D0490911E04A0911F04B091C6
:1034500020048C199D09AE09BF09F3C1809119049C
:1034600090911A04A0911B04B0911C048C199D0921
:10347000AE09BF09FBC18091150490911604A0917B
:103480001704B09118048C199D09AE09BF0903C235
:103490008091110490911204A0911304B09114042E
:1034A0008C199D09AE09BF090BC280910D04909142
:1034B0000E04A0910F04B09110048C199D09AE095F
:1034C000BF0913C2843009F029C2013009F41CC2BB
:1034D000023069F48FEFA81AB80A11E089E1A81642
:1034E000B1040CF414C2AA24A394B12C10C203306A
:1034F00009F004C2F5013197E831F10508F006C280
:103500008827E654FF4F8F4F0C94C12180916104AE
:1035100090916204A0916304B09164048C0D9D1D90
:10352000AE1DBF1D8093610490936204A093630459
:10353000B0936404EBC180915D0490915E04A0910E
:103540005F04B09160048C0D9D1DAE1DBF1D809366
:103550005D0490935E04A0935F04B0936004D6C1B1
:103560008091590490915A04A0915B04B0915C043D
:103570008C0D9D1DAE1DBF1D8093590490935A0460
:10358000A0935B04B0935C04C1C1809155049091F9
:103590005604A0915704B09158048C0D9D1DAE1D8A
:1035A000BF1D8093550490935604A0935704B09385
:1035B0005804ACC18091B9059091BA05A091BB05A2
:1035C000B091BC058C0D9D1DAE1DBF1D8093B9052E
:1035D0009093BA05A093BB05B093BC0597C18091A9
:1035E000510490915204A0915304B09154048C0D55
:1035F0009D1DAE1DBF1D8093510490935204A09356
:103600005304B093540482C18091B5059091B605DE
:10361000A091B705B091B8058C0D9D1DAE1DBF1DC5
:103620008093B5059093B605A093B705B093B80500
:103630006DC180914D0490914E04A0914F04B091C2
:1036400050048C0D9D1DAE1DBF1D80934D049093A5
:103650004E04A0934F04B093500458C18091490484
:1036600090914A04A0914B04B0914C048C0D9D1D87
:10367000AE1DBF1D8093490490934A04A0934B0450
:10368000B0934C0443C18091450490914604A091AD
:103690004704B09148048C0D9D1DAE1DBF1D809345
:1036A000450490934604A0934704B09348042EC168
:1036B0008091410490914204A0914304B09144044C
:1036C0008C0D9D1DAE1DBF1D80934104909342043F
:1036D000A0934304B093440419C180913D04909198
:1036E0003E04A0913F04B09140048C0D9D1DAE1D81
:1036F000BF1D80933D0490933E04A0933F04B0937C
:10370000400404C18091390490913A04A0913B0493
:10371000B0913C048C0D9D1DAE1DBF1D80933904DE
:1037200090933A04A0933B04B0933C04EFC0809183
:10373000350490913604A0913704B09138048C0D73
:103740009D1DAE1DBF1D8093350490933604A0933C
:103750003704B0933804DAC0809131049091320478
:10376000A0913304B09134048C0D9D1DAE1DBF1D7E
:103770008093310490933204A0933304B0933404C3
:10378000C5C080912D0490912E04A0912F04B0917A
:1037900030048C0D9D1DAE1DBF1D80932D04909394
:1037A0002E04A0932F04B0933004B0C0809129045C
:1037B00090912A04A0912B04B0912C048C0D9D1D96
:1037C000AE1DBF1D8093290490932A04A0932B045F
:1037D000B0932C049BC08091250490912604A09165
:1037E0002704B09128048C0D9D1DAE1DBF1D809334
:1037F000250490932604A0932704B093280486C040
:103800008091210490912204A0912304B09124047A
:103810008C0D9D1DAE1DBF1D80932104909322042D
:10382000A0932304B093240471C080911D0490914F
:103830001E04A0911F04B09120048C0D9D1DAE1D8F
:10384000BF1D80931D0490931E04A0931F04B0938A
:1038500020045CC08091190490911A04A0911B046B
:10386000B0911C048C0D9D1DAE1DBF1D80931904CD
:1038700090931A04A0931B04B0931C0447C080913A
:10388000150490911604A0911704B09118048C0DA2
:103890009D1DAE1DBF1D8093150490931604A0932B
:1038A0001704B093180432C080911104909112044F
:1038B000A0911304B09114048C0D9D1DAE1DBF1D6D
:1038C0008093110490931204A0931304B0931404F2
:1038D0001DC080910D0490910E04A0910F04B09131
:1038E00010048C0D9D1DAE1DBF1D80930D04909383
:1038F0000E04A0930F04B093100408C0043031F4F8
:10390000C5010E94CC1302C010E001C011E068ECB8
:1039100070E080E090E00E943D120DC0853051F4CF
:103920000F5F053008F000E068EC70E080E090E0A8
:103930000E943D1211E0023061F020F4013071F478
:10394000912C0CC0033041F0043041F48EE0982EED
:1039500005C022E0922E02C099E0992EC5010E9476
:10396000521361E0892D0E945A1064E089E995E0C4
:103970000E94AC08033029F44AE0C701B6010E9456
:10398000FF1011111DCC6FEE72E0CE0182960E94E5
:10399000FC12BE016E5D7F4FCE0101960E94E212C5
:1039A000CE0101960E941D1389819A810E94722284
:1039B00061E080E00E945A1064E089E995E00E948D
:1039C000AC080E949F098823E1F36FEE72E0CE01FC
:1039D00082960E94C112DDCF0E94D20980913802E6
:1039E00090913902009709F03EC080916A048111DC
:1039F00069C081E080936A0410926904109268049F
:103A00001092670480916504909166048530910559
:103A100008F458C08530910519F40E94BF0A52C0BD
:103A20009C01265031092630310508F44BC08C30FA
:103A30009105B1F468EE73E080E090E00E943D12E1
:103A40000CE010E028E833E144E650E060E070E08C
:103A50008BE290E00E944A0A0150110999F732C0A6
:103A60004597D9F22FC08F30910561F48091690498
:103A7000811128C010926A0481E080936904109239
:103A800068040EC08E31910571F480916804811133
:103A900019C010926A041092690481E0809368044E
:103AA000109267040FC08D9769F4809167048111AB
:103AB00009C010926A04109269041092680481E0AF
:103AC0008093670468EE73E080E090E00E943D120E
:103AD0000E944F04D4C9E4EEF4E01382128288EE0F
:103AE00093E0A0E0B0E084839583A683B7832AE6C1
:103AF00032E03183208325EC30E03587248724ECC5
:103B000030E03787268720EC30E0318B208B21ECAA
:103B100030E0338B228B22EC30E0358B248B26EC8B
:103B200030E0378B268B118E128E138E148EE1E8C7
:103B3000F5E01382128284839583A683B7838AE794
:103B400092E091838083E9E9F5E0138212828AE8AA
:103B500092E09183808388E084838FEF858389E07E
:103B6000868384E0878385E0808786E0818787E09D
:103B700082871386148615861686178661E0CF0124
:103B80000E945C0C6EEE72E083E995E00E94FC12EC
:103B90006EEE72E08DE895E00C94FC12EF920F93BC
:103BA0001F93CF93DF93E80147FD02C034E001C0CB
:103BB00034E1E42F440FFF0BF7FF03C0F195E195CB
:103BC000F109E32E022F2E2FAE010E94EE1DCE0131
:103BD000DF91CF911F910F91EF9008954F925F92D7
:103BE0006F927F929F92AF92BF92CF92DF92EF92AD
:103BF000FF920F931F93CF93DF93CDB7DEB7299733
:103C00000FB6F894DEBF0FBECDBF6A01122FB02EE3
:103C10002BE3201720F0FF24F394F00E02C0BCE346
:103C2000FB2E0F2D27E0AE014F5F5F4F0E947C1FE0
:103C3000AC018981982F9970913031F0E1FC06C078
:103C4000E0FE06C090E205C09DE203C09BE201C019
:103C500090E0EE2DE07183FF3CC0911102C083E043
:103C600001C084E0811718F4212F281B01C020E037
:103C7000E1110BC0F601822F30E2882319F0319355
:103C80008150FBCFC20ED11C20E0992329F0D60130
:103C90009C93F60131966F01C6010396E2FE0AC0BD
:103CA0003EE4D6013C9341E411964C931197129651
:103CB0003C9306C03EE6F601308341E64183328301
:103CC000FC01322F40E2332309F442C041933150CA
:103CD000FACF82FF44C0911102C083E001C084E0AA
:103CE000811718F4212F281B01C020E0E1110BC01F
:103CF000F601822F30E2882319F031938150FBCFF7
:103D0000C20ED11C20E0992329F0D6019C93F60124
:103D100031966F01C6010396E2FE0BC039E4D6016D
:103D20003C933EE411963C93119736E412963C93F3
:103D300007C039E6F60130833EE6318336E632834A
:103D4000FC01322F40E2332319F041933150FBCF75
:103D5000FC01E20FF11D10828EEF9FEFB7C0F1E082
:103D6000911101C0F0E06F2F70E01416150624F4D5
:103D70009A012F5F3F4F02C021E030E0260F371F2E
:103D8000BB2029F06B2D70E06F5F7F4F02C060E0B9
:103D900070E0260F371F612F70E0261737071CF4DD
:103DA000121B212F01C020E03E2D387159F4D6019D
:103DB000322F60E2332319F06D933150FBCFC20EE6
:103DC000D11C20E0FF2331F0D6019C93B6016F5F38
:103DD0007F4F6B01E1110BC0F601922F30E3992365
:103DE00019F031939150FBCFC20ED11C20E09F2DD2
:103DF000940F3A81782F7071A72E84FF03C031335E
:103E000009F49150191624F4993018F098E001C083
:103E100091E0E42F852F57FF02C0E0E080E06E2F95
:103E2000782FE0E0F0E0AEE29A2E3A01691A7108CC
:103E30002A01461A570A0B2D10E011950195110918
:103E40006F3F8FEF780729F4D6019C92C601019647
:103E50006C014617570784F0661677066CF47F01ED
:103E6000E40CF51CA1E0B0E0AC0FBD1FEA0EFB1E98
:103E7000D7011196BC9002C090E3B92E6150710930
:103E80003196C60101967C016017710724F0D601B6
:103E9000BC926C01D5CF6417750741F4363320F41A
:103EA000353321F4A11002C081E3B82EF601B082AF
:103EB000F701822F90E2882319F091938150FBCF74
:103EC000F701E20FF11D108280E090E029960FB615
:103ED000F894DEBF0FBECDBFDF91CF911F910F9140
:103EE000FF90EF90DF90CF90BF90AF909F907F902A
:103EF0006F905F904F900895283008F027E03327A7
:103F0000DA01990F311D87FD9160009661057105F9
:103F100039F432602E5F3D9330E32A95E1F708953E
:103F20009F3F30F080387105610509F03C5F3C5FD0
:103F30003D93913008F08068911DDF93CF931F93DC
:103F40000F93FF92EF92192F987F9695E92F9695F0
:103F50009695E90FFF27E250FB4F99273327EE2470
:103F6000FF24A701E70105900894079428F4360F71
:103F7000E71EF81E491F511D660F771F881F991FE6
:103F80000694A1F70590079428F4E70EF81E491F40
:103F9000561FC11D770F881F991F661F0694A1F732
:103FA0000590079428F4F80E491F561FC71FD11D0E
:103FB000880F991F661F771F0694A1F70590079435
:103FC00020F4490F561FC71FD81F990F661F771F70
:103FD000881F0694A9F784911095177041F0D69523
:103FE000C79557954795F794E7941A95C1F7E4EA72
:103FF000F4E068941590159135916591959105902F
:104000007FE27395E118F10A430B560BC90BD009F7
:10401000C0F7E10CF11E431F561FC91FD01D7EF4CF
:10402000703311F48A95E6CFE894015030F0080F10
:104030000AF40027021708F4202F2395022F7A3361
:1040400028F079E37D932A95E9F710C07D932A95AE
:1040500089F6069497956795379517951794E11803
:10406000F10A430B560BC90BD00998F023957E91AA
:1040700073957A3308F070E37C932013B8F77E9140
:1040800070617D9330F0839571E37D9370E32A95A1
:10409000E1F71124EF90FF900F911F91CF91DF91E5
:1040A000992787FD90950895E89409C097FB3EF401
:1040B00090958095709561957F4F8F4F9F4F992375
:1040C000A9F0F92F96E9BB279395F69587957795F3
:1040D0006795B795F111F8CFFAF4BB0F11F460FFB3
:1040E0001BC06F5F7F4F8F4F9F4F16C0882311F00B
:1040F00096E911C0772321F09EE8872F762F05C01F
:10410000662371F096E8862F70E060E02AF09A95B9
:10411000660F771F881FDAF7880F9695879597F9AE
:1041200008950E94A4200C9415210E94072138F0C4
:104130000E940E2120F0952311F00C94FE200C9487
:10414000042111240C9449210E94262170F3959F8B
:10415000C1F3950F50E0551F629FF001729FBB277E
:10416000F00DB11D639FAA27F00DB11DAA1F649F1A
:104170006627B00DA11D661F829F2227B00DA11DCD
:10418000621F739FB00DA11D621F839FA00D611D53
:10419000221F749F3327A00D611D231F849F600D74
:1041A000211D822F762F6A2F11249F5750409AF09D
:1041B000F1F088234AF0EE0FFF1FBB1F661F771F29
:1041C000881F91505040A9F79E3F510580F00C94F4
:1041D000FE200C9449215F3FE4F3983ED4F386958A
:1041E00077956795B795F795E7959F5FC1F7FE2B94
:1041F000880F911D9695879597F9089597F99F6770
:1042000080E870E060E008959FEF80EC089500245E
:104210000A941616170618060906089500240A942B
:1042200012161306140605060895092E0394000CB1
:1042300011F4882352F0BB0F40F4BF2B11F460FF40
:1042400004C06F5F7F4F8F4F9F4F089557FD905869
:10425000440F551F59F05F3F71F04795880F97FB4A
:10426000991F61F09F3F79F0879508951216130604
:104270001406551FF2CF4695F1DF08C01616170633
:104280001806991FF1CF8695710561050894089568
:10429000E894BB2766277727CB0197F90895F9990A
:1042A000FECF92BD81BDF89A992780B50895262F3B
:1042B000F999FECF1FBA92BD81BD20BD0FB6F8940B
:1042C000FA9AF99A0FBE019608950E947021A59F4F
:1042D000900DB49F900DA49F800D911D1124089501
:1042E000A29FB001B39FC001A39F700D811D112437
:1042F000911DB29F700D811D1124911D0895991B70
:1043000079E004C0991F961708F0961B881F7A95CC
:10431000C9F78095089597FB072E16F4009407D0EF
:1043200077FD09D00E94C92107FC05D03EF4909585
:1043300081959F4F0895709561957F4F0895A1E2F3
:104340001A2EAA1BBB1BFD010DC0AA1FBB1FEE1F0F
:10435000FF1FA217B307E407F50720F0A21BB30B5A
:10436000E40BF50B661F771F881F991F1A9469F7D6
:1043700060957095809590959B01AC01BD01CF0132
:104380000895EE0FFF1F881F8BBF0790F691E02D59
:104390001994AA1BBB1B51E107C0AA1FBB1FA6177C
:1043A000B70710F0A61BB70B881F991F5A95A9F7DE
:1043B00080959095BC01CD010895CF93DF93823015
:1043C000910510F482E090E0E091C405F091C505FC
:1043D00020E030E0C0E0D0E0309711F14081518121
:1043E00048175907C0F04817590761F48281938133
:1043F000209719F09B838A832BC09093C5058093E7
:10440000C40526C02115310519F04217530718F4C9
:104410009A01BE01DF01EF010280F381E02DDCCFC4
:104420002115310509F1281B390B2430310590F491
:1044300012968D919C9113976115710521F0FB01E6
:104440009383828304C09093C5058093C405FD01C6
:10445000329644C0FD01E20FF31F819391932250E5
:1044600031092D933C933AC02091C2053091C30588
:10447000232B41F420913C0230913D023093C3053F
:104480002093C20520913A0230913B02211531055B
:1044900041F42DB73EB740913E0250913F02241B9C
:1044A000350BE091C205F091C305E217F307A0F4C4
:1044B0002E1B3F0B2817390778F0AC014E5F5F4F7A
:1044C0002417350748F04E0F5F1F5093C3054093E4
:1044D000C2058193919302C0E0E0F0E0CF01DF914B
:1044E000CF9108950F931F93CF93DF93009709F413
:1044F0008CC0FC013297138212820091C405109186
:10450000C5050115110581F420813181820F931FAA
:104510002091C2053091C3052817390779F5F0932A
:10452000C305E093C20571C0D80140E050E0AE176A
:10453000BF0750F412962D913C911397AD012115B0
:10454000310509F1D901F3CF9D01DA0133832283CB
:1045500060817181860F971F8217930769F4EC01C0
:1045600028813981260F371F2E5F3F4F31832083EB
:104570008A819B8193838283452B29F4F093C5051F
:10458000E093C40542C01396FC93EE931297ED019D
:10459000499159919E01240F351FE217F30771F4D9
:1045A00080819181840F951F029611969C938E9322
:1045B0008281938113969C938E931297E0E0F0E0B2
:1045C000D80112968D919C911397009719F0F801DC
:1045D0008C01F6CF8D919C9198012E5F3F4F820FF9
:1045E000931F2091C2053091C3052817390769F43C
:1045F000309729F41092C5051092C40502C01382A9
:1046000012821093C3050093C205DF91CF911F91D1
:104610000F9108956F927F928F929F92AF92BF9267
:10462000CF92DF92EF92FF920F931F93CF93DF937E
:10463000EC01009789F4CB01DF91CF911F910F918D
:10464000FF90EF90DF90CF90BF90AF909F908F90B2
:104650007F906F900C94DD21FC01E60FF71F9C0109
:1046600022503109E217F30708F4ACC0D9010D91CB
:104670001C91119706171707B0F00530110508F4C3
:104680009FC0C80104978617970708F499C0025085
:104690001109061B170B019311936D937C93CF01A6
:1046A0000E9472228DC05B01A01AB10A4C01800EDB
:1046B000911EA091C405B091C50540E050E0E12CE9
:1046C000F12C109709F44AC0A815B905D1F56D90E1
:1046D0007C901197630182E0C80ED11CCA14DB04E0
:1046E00080F1A3014A195B096A0182E0C80ED11C5E
:1046F0001296BC9012971396AC91B5E0CB16D104EC
:1047000040F0B282A38351834083D9016D937C939F
:104710000AC00E5F1F4FC301800F911FF9019183E3
:104720008083EB2DFA2FE114F10431F0D7011396B9
:10473000FC93EE93129744C0F093C505E093C40533
:104740003FC08D919C9111974817590708F4AC010F
:104750007D0112960D90BC91A02DB3CF8091C20522
:104760009091C30588159905E1F446175707C8F4D9
:1047700080913A0290913B02009741F48DB79EB729
:1047800040913E0250913F02841B950BE817F907B8
:10479000C8F4F093C305E093C205F9017183608307
:1047A0000FC0CB010E94DD217C01009759F0A801C8
:1047B000BE010E94F823CE010E947222C70104C0EC
:1047C000CE0102C080E090E0DF91CF911F910F9168
:1047D000FF90EF90DF90CF90BF90AF909F908F9021
:1047E0007F906F90089581E090E0F8940C94FA2601
:1047F000FB01DC0102C001900D9241505040D8F7FE
:104800000895FB01DC010D900020E9F7119701905C
:104810000D920020E1F70895FB01DC0101900D925B
:104820000020E1F70895FB01DC010D900020E9F77D
:1048300011974150504028F0019000200D92C9F787
:1048400008951C9208950F931F93CF93DF93CDB7D4
:10485000DEB72E970FB6F894DEBF0FBECDBF0E8920
:104860001F8986E08C831A8309838FEF9FE79E83DD
:104870008D83AE01465E5F4F688D798DCE010196C6
:104880000E9453242F813885F801E20FF31F108214
:104890002E960FB6F894DEBF0FBECDBFDF91CF913D
:1048A0001F910F9108952F923F924F925F926F92B6
:1048B0007F928F929F92AF92BF92CF92DF92EF92B0
:1048C000FF920F931F93CF93DF93CDB7DEB72C9753
:1048D0000FB6F894DEBF0FBECDBF7C016B018A011D
:1048E000FC0117821682838181FFBDC1CE01019632
:1048F0004C01F7019381F60193FD859193FF81911E
:104900006F01882309F4ABC1853239F493FD859199
:1049100093FF81916F01853229F4B70190E00E94E5
:104920006426E7CF512C312C20E02032A0F48B32CA
:1049300069F030F4803259F0833269F420612CC080
:104940008D3239F0803339F4216026C02260246032
:1049500023C0286021C027FD27C030ED380F3A3032
:1049600078F426FF06C0FAE05F9E300D1124532E26
:1049700013C08AE0389E300D1124332E20620CC003
:104980008E3221F426FD6BC1206406C08C3611F4F2
:10499000206802C0883641F4F60193FD859193FFAB
:1049A00081916F018111C1CF982F9F7D95549330D4
:1049B00028F40C5F1F4FFFE3F9830DC0833631F0FD
:1049C000833771F0833509F05BC022C0F801808124
:1049D00089830E5F1F4F44244394512C540115C00A
:1049E0003801F2E06F0E711CF801A080B18026FF43
:1049F00003C0652D70E002C06FEF7FEFC5012C870B
:104A00000E9459262C0183012C852F77222E17C056
:104A10003801F2E06F0E711CF801A080B18026FF12
:104A200003C0652D70E002C06FEF7FEFC5012C87DA
:104A30000E944E262C012C852068222E830123FC07
:104A40001BC0832D90E048165906B0F4B70180E2F0
:104A500090E00E9464263A94F4CFF50127FC8591FA
:104A600027FE81915F01B70190E00E94642631101A
:104A70003A94F1E04F1A51084114510471F7E5C01E
:104A8000843611F0893639F5F80127FF07C06081B7
:104A90007181828193810C5F1F4F08C06081718199
:104AA000072E000C880B990B0E5F1F4F2F76722E6E
:104AB00097FF09C090958095709561957F4F8F4FB6
:104AC0009F4F2068722E2AE030E0A4010E949C26AD
:104AD000A82EA81844C0853729F42F7EB22E2AE0CC
:104AE00030E025C0F22FF97FBF2E8F36C1F018F4C9
:104AF000883579F0B4C0803719F0883721F0AFC01D
:104B00002F2F2061B22EB4FE0DC08B2D8460B82EE5
:104B100009C024FF0AC09F2F9660B92E06C028E066
:104B200030E005C020E130E002C020E132E0F801D1
:104B3000B7FE07C060817181828193810C5F1F4F36
:104B400006C06081718180E090E00E5F1F4FA4017C
:104B50000E949C26A82EA818FB2DFF777F2E76FE9C
:104B60000BC0372D3E7FA51450F474FE0AC072FCB2
:104B700008C0372D3E7E05C0BA2C372D03C0BA2C95
:104B800001C0B52C34FF0DC0FE01EA0DF11D80817E
:104B9000803311F4397E09C032FF06C0B394B39458
:104BA00004C0832F867809F0B39433FD13C030FF1F
:104BB00006C05A2CB31418F4530C5B18B32CB3145E
:104BC00068F4B70180E290E03C870E946426B394C9
:104BD0003C85F5CFB31410F43B1801C0312C34FFE1
:104BE00012C0B70180E390E03C870E9464263C85B8
:104BF00032FF17C031FD03C088E790E002C088E5AE
:104C000090E0B7010CC0832F867859F031FF02C0C5
:104C10008BE201C080E237FD8DE2B70190E00E9497
:104C20006426A51438F4B70180E390E00E9464265E
:104C30005A94F7CFAA94F401EA0DF11D8081B701CF
:104C400090E00E946426A110F5CF332009F451CEE4
:104C5000B70180E290E00E9464263A94F6CFF70113
:104C60008681978102C08FEF9FEF2C960FB6F89444
:104C7000DEBF0FBECDBFDF91CF911F910F91FF908F
:104C8000EF90DF90CF90BF90AF909F908F907F90EC
:104C90006F905F904F903F902F900895FC0105908A
:104CA000615070400110D8F7809590958E0F9F1F2E
:104CB0000895FC016150704001900110D8F7809573
:104CC00090958E0F9F1F08950F931F93CF93DF939F
:104CD000FB01238121FD03C08FEF9FEF28C022FF3E
:104CE00016C046815781248135814217530744F409
:104CF000A081B1819D012F5F3F4F318320838C9331
:104D0000268137812F5F3F4F3783268310C0EB0109
:104D1000092F182F0084F185E02D1995892BE1F6D4
:104D20008E819F8101969F838E83812F902FDF91AB
:104D3000CF911F910F910895FA01AA27283051F1C0
:104D4000203181F1E8946F936E7F6E5F7F4F8F4FBC
:104D50009F4FAF4FB1E03ED0B4E03CD0670F781F1B
:104D6000891F9A1FA11D680F791F8A1F911DA11D00
:104D70006A0F711D811D911DA11D20D009F4689439
:104D80003F912AE0269F11243019305D3193DEF6E1
:104D9000CF010895462F4770405D4193B3E00FD097
:104DA000C9F7F6CF462F4F70405D4A3318F0495D82
:104DB00031FD4052419302D0A9F7EACFB4E0A69565
:104DC0009795879577956795BA95C9F70097610587
:104DD000710508959B01AC010A2E069457954795DD
:104DE00037952795BA95C9F7620F731F841F951FD2
:104DF000A01D089513E0C9E5D3E000E006C0802FB0
:104E0000FE010E94C1212196011DCA35D10780E013
:084E10000807A9F7F894FFCF91
:104E1800010000000100000000000E1517110E002F
:104E2800040E1F00001F0E04000004021F020400ED
:104E3800000004081F0804000E0F0909191B0300CD
:104E480000040E0E1F1F04003D000000C605800070
:104E580021032903320338033E03420347034C036B
:104E680053035D0365036E0377037E038603900394
:104E78009903A003A90300000000E6039410AF0300
:104E88008D03A1032D04000000001605E604DE04CE
:104E9800CA04BB04BA0400000000AC0894102063E4
:104EA8006F6D626F32004F4B0020736574200020D5
:104EB80064656C20007A00206D7300202050494EF4
:104EC80020002020204D4547415A564F4E3234008D
:104ED800206D656C6F6469614558330073656C6556
:104EE800637420746F204D454E5500642E6D2E5905
:104EF80020483A690074656D702000202020006DFC
:104F0800656C6F6469613100556E6B6E6F776E000A
:104F18006E6400726400746800414D00504D00706A
:104F28006D00616D002530326400256400256C75C4
:104F3800004A616E756172790046656272756172C8
:104F480079004D6172636800417072696C004D614F
:104F580079004A756E65004A756C79004175677508
:104F680073740053657074656D626572004F637485
:104F78006F626572004E6F76656D6265720044659A
:104F880063656D626572004D6F6E6461790054757A
:104F98006573646179005765646E6573646179004F
:104FA8005468757273646179004672696461790046
:104FB80053617475726461790053756E6461790028
:00000001FF
